{
  "contractName": "contractpool_erc20",
  "abi": [
    {
      "anonymous": false,
      "inputs": [
        {
          "indexed": true,
          "internalType": "address",
          "name": "previousOwner",
          "type": "address"
        },
        {
          "indexed": true,
          "internalType": "address",
          "name": "newOwner",
          "type": "address"
        }
      ],
      "name": "OwnershipTransferred",
      "type": "event"
    },
    {
      "inputs": [],
      "name": "owner",
      "outputs": [
        {
          "internalType": "address",
          "name": "",
          "type": "address"
        }
      ],
      "stateMutability": "view",
      "type": "function"
    },
    {
      "inputs": [],
      "name": "renounceOwnership",
      "outputs": [],
      "stateMutability": "nonpayable",
      "type": "function"
    },
    {
      "inputs": [
        {
          "internalType": "address",
          "name": "newOwner",
          "type": "address"
        }
      ],
      "name": "transferOwnership",
      "outputs": [],
      "stateMutability": "nonpayable",
      "type": "function"
    },
    {
      "inputs": [
        {
          "internalType": "address",
          "name": "contract_addr",
          "type": "address"
        }
      ],
      "name": "start_cal",
      "outputs": [],
      "stateMutability": "nonpayable",
      "type": "function"
    }
  ],
  "bytecode": "0x608060405234801561001057600080fd5b5061002d61002261003260201b60201c565b61003a60201b60201c565b6100fe565b600033905090565b60008060009054906101000a900473ffffffffffffffffffffffffffffffffffffffff169050816000806101000a81548173ffffffffffffffffffffffffffffffffffffffff021916908373ffffffffffffffffffffffffffffffffffffffff1602179055508173ffffffffffffffffffffffffffffffffffffffff168173ffffffffffffffffffffffffffffffffffffffff167f8be0079c531659141344cd1fd0a4f28419497f9722a3daafe3b4186f6b6457e060405160405180910390a35050565b61051f8061010d6000396000f3fe608060405234801561001057600080fd5b506004361061004c5760003560e01c80633f8d19cd14610051578063715018a61461006d5780638da5cb5b14610077578063f2fde38b14610095575b600080fd5b61006b6004803603810190610066919061033e565b6100b1565b005b6100756100b4565b005b61007f61013c565b60405161008c91906103bc565b60405180910390f35b6100af60048036038101906100aa919061033e565b610165565b005b50565b6100bc61025d565b73ffffffffffffffffffffffffffffffffffffffff166100da61013c565b73ffffffffffffffffffffffffffffffffffffffff1614610130576040517f08c379a0000000000000000000000000000000000000000000000000000000008152600401610127906103f7565b60405180910390fd5b61013a6000610265565b565b60008060009054906101000a900473ffffffffffffffffffffffffffffffffffffffff16905090565b61016d61025d565b73ffffffffffffffffffffffffffffffffffffffff1661018b61013c565b73ffffffffffffffffffffffffffffffffffffffff16146101e1576040517f08c379a00000000000000000000000000000000000000000000000000000000081526004016101d8906103f7565b60405180910390fd5b600073ffffffffffffffffffffffffffffffffffffffff168173ffffffffffffffffffffffffffffffffffffffff161415610251576040517f08c379a0000000000000000000000000000000000000000000000000000000008152600401610248906103d7565b60405180910390fd5b61025a81610265565b50565b600033905090565b60008060009054906101000a900473ffffffffffffffffffffffffffffffffffffffff169050816000806101000a81548173ffffffffffffffffffffffffffffffffffffffff021916908373ffffffffffffffffffffffffffffffffffffffff1602179055508173ffffffffffffffffffffffffffffffffffffffff168173ffffffffffffffffffffffffffffffffffffffff167f8be0079c531659141344cd1fd0a4f28419497f9722a3daafe3b4186f6b6457e060405160405180910390a35050565b600081359050610338816104d2565b92915050565b60006020828403121561035057600080fd5b600061035e84828501610329565b91505092915050565b61037081610428565b82525050565b6000610383602683610417565b915061038e8261045a565b604082019050919050565b60006103a6602083610417565b91506103b1826104a9565b602082019050919050565b60006020820190506103d16000830184610367565b92915050565b600060208201905081810360008301526103f081610376565b9050919050565b6000602082019050818103600083015261041081610399565b9050919050565b600082825260208201905092915050565b60006104338261043a565b9050919050565b600073ffffffffffffffffffffffffffffffffffffffff82169050919050565b7f4f776e61626c653a206e6577206f776e657220697320746865207a65726f206160008201527f6464726573730000000000000000000000000000000000000000000000000000602082015250565b7f4f776e61626c653a2063616c6c6572206973206e6f7420746865206f776e6572600082015250565b6104db81610428565b81146104e657600080fd5b5056fea26469706673582212204ff49ca68e1b814ef6af7382a3980007b46ca6668f6deaa638b7f17b31de938564736f6c63430008020033",
  "immutableReferences": {},
  "source": "//SPDX-License-Identifier: BUSL-1.1\r\npragma solidity ^0.8.0;\r\nimport \"@openzeppelin/contracts/utils/math/SafeMath.sol\";\r\nimport \"@openzeppelin/contracts/access/Ownable.sol\";\r\nimport \"../ICrossSpaceCall.sol\";\r\nimport \"../IPoSPool.sol\";\r\n\r\ncontract contractpool_erc20 is Ownable {\r\n  using SafeMath for uint256;\r\n  \r\n  function start_cal(address contract_addr) external {\r\n\r\n  }\r\n  \r\n}",
  "sourcePath": "C:/Users/artii/Conflux Studio/minpos/contracts/eSpace/contractpoolerc20.sol",
  "compiler": {
    "name": "solc",
    "version": "0.8.2+commit.661d1103.Emscripten.clang"
  },
  "schemaVersion": "3.3.4",
  "updatedAt": "2022-08-14T16:36:59.163Z",
  "devdoc": {
    "kind": "dev",
    "methods": {
      "owner()": {
        "details": "Returns the address of the current owner."
      },
      "renounceOwnership()": {
        "details": "Leaves the contract without owner. It will not be possible to call `onlyOwner` functions anymore. Can only be called by the current owner. NOTE: Renouncing ownership will leave the contract without an owner, thereby removing any functionality that is only available to the owner."
      },
      "transferOwnership(address)": {
        "details": "Transfers ownership of the contract to a new account (`newOwner`). Can only be called by the current owner."
      }
    },
    "version": 1
  },
  "userdoc": {
    "kind": "user",
    "methods": {},
    "version": 1
  }
}