{
  "contractName": "CoreBridge_multipool",
  "abi": [
    {
      "inputs": [],
      "stateMutability": "nonpayable",
      "type": "constructor"
    },
    {
      "anonymous": false,
      "inputs": [
        {
          "indexed": true,
          "internalType": "address",
          "name": "previousOwner",
          "type": "address"
        },
        {
          "indexed": true,
          "internalType": "address",
          "name": "newOwner",
          "type": "address"
        }
      ],
      "name": "OwnershipTransferred",
      "type": "event"
    },
    {
      "stateMutability": "payable",
      "type": "fallback"
    },
    {
      "inputs": [],
      "name": "CoreExroomAddress",
      "outputs": [
        {
          "internalType": "address",
          "name": "",
          "type": "address"
        }
      ],
      "stateMutability": "view",
      "type": "function"
    },
    {
      "inputs": [],
      "name": "ServicetreasuryAddress",
      "outputs": [
        {
          "internalType": "address",
          "name": "",
          "type": "address"
        }
      ],
      "stateMutability": "view",
      "type": "function"
    },
    {
      "inputs": [],
      "name": "eSpaceExroomAddress",
      "outputs": [
        {
          "internalType": "address",
          "name": "",
          "type": "address"
        }
      ],
      "stateMutability": "view",
      "type": "function"
    },
    {
      "inputs": [],
      "name": "identifier",
      "outputs": [
        {
          "internalType": "uint256",
          "name": "",
          "type": "uint256"
        }
      ],
      "stateMutability": "view",
      "type": "function"
    },
    {
      "inputs": [],
      "name": "owner",
      "outputs": [
        {
          "internalType": "address",
          "name": "",
          "type": "address"
        }
      ],
      "stateMutability": "view",
      "type": "function"
    },
    {
      "inputs": [
        {
          "internalType": "uint256",
          "name": "",
          "type": "uint256"
        }
      ],
      "name": "poolAddress",
      "outputs": [
        {
          "internalType": "address",
          "name": "",
          "type": "address"
        }
      ],
      "stateMutability": "view",
      "type": "function"
    },
    {
      "inputs": [],
      "name": "poolUserShareRatio",
      "outputs": [
        {
          "internalType": "uint256",
          "name": "",
          "type": "uint256"
        }
      ],
      "stateMutability": "view",
      "type": "function"
    },
    {
      "inputs": [],
      "name": "pos_id_in_use",
      "outputs": [
        {
          "internalType": "uint256",
          "name": "",
          "type": "uint256"
        }
      ],
      "stateMutability": "view",
      "type": "function"
    },
    {
      "inputs": [],
      "name": "renounceOwnership",
      "outputs": [],
      "stateMutability": "nonpayable",
      "type": "function"
    },
    {
      "inputs": [
        {
          "internalType": "address",
          "name": "newOwner",
          "type": "address"
        }
      ],
      "name": "transferOwnership",
      "outputs": [],
      "stateMutability": "nonpayable",
      "type": "function"
    },
    {
      "inputs": [],
      "name": "xCFXAddress",
      "outputs": [
        {
          "internalType": "address",
          "name": "",
          "type": "address"
        }
      ],
      "stateMutability": "view",
      "type": "function"
    },
    {
      "stateMutability": "payable",
      "type": "receive"
    },
    {
      "inputs": [],
      "name": "initialize",
      "outputs": [],
      "stateMutability": "nonpayable",
      "type": "function"
    },
    {
      "inputs": [
        {
          "internalType": "address",
          "name": "_poolAddress",
          "type": "address"
        }
      ],
      "name": "addPoolAddress",
      "outputs": [],
      "stateMutability": "nonpayable",
      "type": "function"
    },
    {
      "inputs": [
        {
          "internalType": "address",
          "name": "_oldpoolAddress",
          "type": "address"
        },
        {
          "internalType": "address",
          "name": "_newpoolAddress",
          "type": "address"
        }
      ],
      "name": "changePoolAddress",
      "outputs": [],
      "stateMutability": "nonpayable",
      "type": "function"
    },
    {
      "inputs": [
        {
          "internalType": "address",
          "name": "_oldpoolAddress",
          "type": "address"
        }
      ],
      "name": "delePoolAddress",
      "outputs": [],
      "stateMutability": "nonpayable",
      "type": "function"
    },
    {
      "inputs": [
        {
          "internalType": "address",
          "name": "_eSpaceExroomAddress",
          "type": "address"
        }
      ],
      "name": "seteSpaceExroomAddress",
      "outputs": [],
      "stateMutability": "nonpayable",
      "type": "function"
    },
    {
      "inputs": [
        {
          "internalType": "address",
          "name": "_eSpaceExroomAddress",
          "type": "address"
        },
        {
          "internalType": "bool",
          "name": "state",
          "type": "bool"
        }
      ],
      "name": "settrusted_trigers",
      "outputs": [],
      "stateMutability": "nonpayable",
      "type": "function"
    },
    {
      "inputs": [
        {
          "internalType": "address",
          "name": "_eSpaceExroomAddress",
          "type": "address"
        }
      ],
      "name": "get_triger_state",
      "outputs": [
        {
          "internalType": "bool",
          "name": "",
          "type": "bool"
        }
      ],
      "stateMutability": "view",
      "type": "function"
    },
    {
      "inputs": [],
      "name": "getPoolAddress",
      "outputs": [
        {
          "internalType": "address[]",
          "name": "",
          "type": "address[]"
        }
      ],
      "stateMutability": "view",
      "type": "function"
    },
    {
      "inputs": [],
      "name": "ePoolAddrB20",
      "outputs": [
        {
          "internalType": "bytes20",
          "name": "",
          "type": "bytes20"
        }
      ],
      "stateMutability": "view",
      "type": "function"
    },
    {
      "inputs": [],
      "name": "queryespacexCFXincrease",
      "outputs": [
        {
          "internalType": "uint256",
          "name": "",
          "type": "uint256"
        }
      ],
      "stateMutability": "nonpayable",
      "type": "function"
    },
    {
      "inputs": [],
      "name": "queryUnstakeLen",
      "outputs": [
        {
          "internalType": "uint256",
          "name": "",
          "type": "uint256"
        }
      ],
      "stateMutability": "nonpayable",
      "type": "function"
    },
    {
      "inputs": [
        {
          "internalType": "uint256",
          "name": "_num",
          "type": "uint256"
        }
      ],
      "name": "queryInterest",
      "outputs": [
        {
          "internalType": "uint256",
          "name": "",
          "type": "uint256"
        }
      ],
      "stateMutability": "view",
      "type": "function"
    },
    {
      "inputs": [],
      "name": "syncALLwork",
      "outputs": [],
      "stateMutability": "nonpayable",
      "type": "function"
    },
    {
      "inputs": [],
      "name": "claimInterests",
      "outputs": [],
      "stateMutability": "nonpayable",
      "type": "function"
    },
    {
      "inputs": [],
      "name": "campounds",
      "outputs": [],
      "stateMutability": "nonpayable",
      "type": "function"
    },
    {
      "inputs": [],
      "name": "SyncValue",
      "outputs": [],
      "stateMutability": "nonpayable",
      "type": "function"
    },
    {
      "inputs": [],
      "name": "handleUnstake",
      "outputs": [],
      "stateMutability": "nonpayable",
      "type": "function"
    },
    {
      "inputs": [],
      "name": "withdrawVotes",
      "outputs": [],
      "stateMutability": "nonpayable",
      "type": "function"
    },
    {
      "inputs": [
        {
          "internalType": "address",
          "name": "addr",
          "type": "address"
        },
        {
          "internalType": "bytes",
          "name": "data",
          "type": "bytes"
        }
      ],
      "name": "callEVM",
      "outputs": [],
      "stateMutability": "nonpayable",
      "type": "function"
    }
  ],
  "bytecode": "0x60806040526123286002556103e8600355683635c9adc5dea000006004553480156200002a57600080fd5b506200004b6200003f6200006160201b60201c565b6200006960201b60201c565b6200005b6200012d60201b60201c565b62000184565b600033905090565b60008060009054906101000a900473ffffffffffffffffffffffffffffffffffffffff169050816000806101000a81548173ffffffffffffffffffffffffffffffffffffffff021916908373ffffffffffffffffffffffffffffffffffffffff1602179055508173ffffffffffffffffffffffffffffffffffffffff168173ffffffffffffffffffffffffffffffffffffffff167f8be0079c531659141344cd1fd0a4f28419497f9722a3daafe3b4186f6b6457e060405160405180910390a35050565b730888000000000000000000000000000000000006600160006101000a81548173ffffffffffffffffffffffffffffffffffffffff021916908373ffffffffffffffffffffffffffffffffffffffff160217905550565b61401a80620001946000396000f3fe6080604052600436106101d15760003560e01c8063783b7c97116100f75780639fa28e4811610095578063da02d10011610064578063da02d100146105c4578063da9da526146105db578063f2fde38b14610618578063f586c6d914610641576101d8565b80639fa28e481461050a578063a0e86fd014610547578063b3569a1814610570578063bb46911014610599576101d8565b80638da5cb5b116100d15780638da5cb5b1461048657806393e48e38146104b1578063983bf1bd146104dc578063986e08b6146104f3576101d8565b8063783b7c97146104195780637998a1c4146104445780638129fc1c1461046f576101d8565b80634e141b4e1161016f57806367a1aa4f1161013e57806367a1aa4f146103975780636a5bd69d146103c2578063715018a6146103eb57806375eea4e214610402576101d8565b80634e141b4e146102ed578063505f53d414610318578063588beea51461034357806365473c5214610380576101d8565b80633b282f3a116101ab5780633b282f3a146102575780633e7321b51461028257806340d5637f146102ad57806343499844146102c4576101d8565b8063120063b0146101da5780632306092e14610203578063231da72f1461022c576101d8565b366101d857005b005b3480156101e657600080fd5b5061020160048036038101906101fc9190613242565b61066c565b005b34801561020f57600080fd5b5061022a60048036038101906102259190613242565b61072c565b005b34801561023857600080fd5b506102416109ce565b60405161024e91906136b4565b60405180910390f35b34801561026357600080fd5b5061026c6109f4565b604051610279919061370c565b60405180910390f35b34801561028e57600080fd5b50610297610a21565b6040516102a491906136b4565b60405180910390f35b3480156102b957600080fd5b506102c2610a47565b005b3480156102d057600080fd5b506102eb60048036038101906102e69190613242565b610e7e565b005b3480156102f957600080fd5b50610302610f60565b60405161030f91906136b4565b60405180910390f35b34801561032457600080fd5b5061032d610f86565b60405161033a91906138c9565b60405180910390f35b34801561034f57600080fd5b5061036a60048036038101906103659190613242565b6110e2565b60405161037791906136f1565b60405180910390f35b34801561038c57600080fd5b506103956111b4565b005b3480156103a357600080fd5b506103ac6116dd565b6040516103b991906138c9565b60405180910390f35b3480156103ce57600080fd5b506103e960048036038101906103e491906132e3565b6116e3565b005b3480156103f757600080fd5b50610400611835565b005b34801561040e57600080fd5b506104176118bd565b005b34801561042557600080fd5b5061042e611d23565b60405161043b91906138c9565b60405180910390f35b34801561045057600080fd5b50610459611d29565b60405161046691906138c9565b60405180910390f35b34801561047b57600080fd5b50610484611d2f565b005b34801561049257600080fd5b5061049b611d86565b6040516104a891906136b4565b60405180910390f35b3480156104bd57600080fd5b506104c6611daf565b6040516104d391906138c9565b60405180910390f35b3480156104e857600080fd5b506104f1611f0b565b005b3480156104ff57600080fd5b50610508612276565b005b34801561051657600080fd5b50610531600480360381019061052c91906133ce565b6123af565b60405161053e91906138c9565b60405180910390f35b34801561055357600080fd5b5061056e6004803603810190610569919061326b565b6124a5565b005b34801561057c57600080fd5b50610597600480360381019061059291906132a7565b61266b565b005b3480156105a557600080fd5b506105ae612742565b6040516105bb91906136b4565b60405180910390f35b3480156105d057600080fd5b506105d9612768565b005b3480156105e757600080fd5b5061060260048036038101906105fd91906133ce565b612d08565b60405161060f91906136b4565b60405180910390f35b34801561062457600080fd5b5061063f600480360381019061063a9190613242565b612d47565b005b34801561064d57600080fd5b50610656612e3f565b60405161066391906136cf565b60405180910390f35b610674612ecd565b73ffffffffffffffffffffffffffffffffffffffff16610692611d86565b73ffffffffffffffffffffffffffffffffffffffff16146106e8576040517f08c379a00000000000000000000000000000000000000000000000000000000081526004016106df90613889565b60405180910390fd5b80600860006101000a81548173ffffffffffffffffffffffffffffffffffffffff021916908373ffffffffffffffffffffffffffffffffffffffff16021790555050565b610734612ecd565b73ffffffffffffffffffffffffffffffffffffffff16610752611d86565b73ffffffffffffffffffffffffffffffffffffffff16146107a8576040517f08c379a000000000000000000000000000000000000000000000000000000000815260040161079f90613889565b60405180910390fd5b6000600580549050905060005b818110156109c9578273ffffffffffffffffffffffffffffffffffffffff166005828154811061080e577f4e487b7100000000000000000000000000000000000000000000000000000000600052603260045260246000fd5b9060005260206000200160009054906101000a900473ffffffffffffffffffffffffffffffffffffffff1673ffffffffffffffffffffffffffffffffffffffff1614156109b65760056001836108649190613adf565b8154811061089b577f4e487b7100000000000000000000000000000000000000000000000000000000600052603260045260246000fd5b9060005260206000200160009054906101000a900473ffffffffffffffffffffffffffffffffffffffff1660058281548110610900577f4e487b7100000000000000000000000000000000000000000000000000000000600052603260045260246000fd5b9060005260206000200160006101000a81548173ffffffffffffffffffffffffffffffffffffffff021916908373ffffffffffffffffffffffffffffffffffffffff1602179055506005805480610980577f4e487b7100000000000000000000000000000000000000000000000000000000600052603160045260246000fd5b6001900381819060005260206000200160006101000a81549073ffffffffffffffffffffffffffffffffffffffff021916905590555b80806109c190613c23565b9150506107b5565b505050565b600760009054906101000a900473ffffffffffffffffffffffffffffffffffffffff1681565b6000600860009054906101000a900473ffffffffffffffffffffffffffffffffffffffff1660601b905090565b600860009054906101000a900473ffffffffffffffffffffffffffffffffffffffff1681565b6001600c6000828254610a5a91906139bb565b9250508190555060011515600d60003373ffffffffffffffffffffffffffffffffffffffff1673ffffffffffffffffffffffffffffffffffffffff16815260200190815260200160002060009054906101000a900460ff16151514610af4576040517f08c379a0000000000000000000000000000000000000000000000000000000008152600401610aeb90613849565b60405180910390fd5b6005600c5414610b39576040517f08c379a0000000000000000000000000000000000000000000000000000000008152600401610b30906137c9565b60405180910390fd5b60006005805490509050600080600080600090505b84811015610e635760058181548110610b90577f4e487b7100000000000000000000000000000000000000000000000000000000600052603260045260246000fd5b9060005260206000200160009054906101000a900473ffffffffffffffffffffffffffffffffffffffff16935060008473ffffffffffffffffffffffffffffffffffffffff1663e3d5b233306040518263ffffffff1660e01b8152600401610bf891906136b4565b60c06040518083038186803b158015610c1057600080fd5b505afa158015610c24573d6000803e3d6000fd5b505050506040513d601f19601f82011682018060405250810190610c4891906133a5565b90506000816060015167ffffffffffffffff161115610e4f578473ffffffffffffffffffffffffffffffffffffffff16632ce7777f82606001516040518263ffffffff1660e01b8152600401610c9e91906138e4565b600060405180830381600087803b158015610cb857600080fd5b505af1158015610ccc573d6000803e3d6000fd5b50505050683635c9adc5dea00000816060015167ffffffffffffffff16610cf39190613a9c565b68ffffffffffffffffff169250600160009054906101000a900473ffffffffffffffffffffffffffffffffffffffff1673ffffffffffffffffffffffffffffffffffffffff1663bea05ee384610d476109f4565b8460600151604051602401610d5c91906138e4565b6040516020818303038152906040527f17f78871000000000000000000000000000000000000000000000000000000007bffffffffffffffffffffffffffffffffffffffffffffffffffffffff19166020820180517bffffffffffffffffffffffffffffffffffffffffffffffffffffffff83818316178352505050506040518463ffffffff1660e01b8152600401610df6929190613759565b6000604051808303818588803b158015610e0f57600080fd5b505af1158015610e23573d6000803e3d6000fd5b50505050506040513d6000823e3d601f19601f82011682018060405250810190610e4d919061333b565b505b508080610e5b90613c23565b915050610b4e565b50505050506005600c541415610e7c576000600c819055505b565b610e86612ecd565b73ffffffffffffffffffffffffffffffffffffffff16610ea4611d86565b73ffffffffffffffffffffffffffffffffffffffff1614610efa576040517f08c379a0000000000000000000000000000000000000000000000000000000008152600401610ef190613889565b60405180910390fd5b6005819080600181540180825580915050600190039060005260206000200160009091909190916101000a81548173ffffffffffffffffffffffffffffffffffffffff021916908373ffffffffffffffffffffffffffffffffffffffff16021790555050565b600960009054906101000a900473ffffffffffffffffffffffffffffffffffffffff1681565b600080600160009054906101000a900473ffffffffffffffffffffffffffffffffffffffff1673ffffffffffffffffffffffffffffffffffffffff1663bea05ee3610fcf6109f4565b6040516024016040516020818303038152906040527fc7ff5d6e000000000000000000000000000000000000000000000000000000007bffffffffffffffffffffffffffffffffffffffffffffffffffffffff19166020820180517bffffffffffffffffffffffffffffffffffffffffffffffffffffffff83818316178352505050506040518363ffffffff1660e01b815260040161106f929190613759565b600060405180830381600087803b15801561108957600080fd5b505af115801561109d573d6000803e3d6000fd5b505050506040513d6000823e3d601f19601f820116820180604052508101906110c6919061333b565b9050808060200190518101906110dc91906133f7565b91505090565b60006110ec612ecd565b73ffffffffffffffffffffffffffffffffffffffff1661110a611d86565b73ffffffffffffffffffffffffffffffffffffffff1614611160576040517f08c379a000000000000000000000000000000000000000000000000000000000815260040161115790613889565b60405180910390fd5b600d60008373ffffffffffffffffffffffffffffffffffffffff1673ffffffffffffffffffffffffffffffffffffffff16815260200190815260200160002060009054906101000a900460ff169050919050565b6001600c60008282546111c791906139bb565b9250508190555060011515600d60003373ffffffffffffffffffffffffffffffffffffffff1673ffffffffffffffffffffffffffffffffffffffff16815260200190815260200160002060009054906101000a900460ff16151514611261576040517f08c379a000000000000000000000000000000000000000000000000000000000815260040161125890613849565b60405180910390fd5b6003600c54146112a6576040517f08c379a000000000000000000000000000000000000000000000000000000000815260040161129d90613829565b60405180910390fd5b6000600760009054906101000a900473ffffffffffffffffffffffffffffffffffffffff1673ffffffffffffffffffffffffffffffffffffffff166318160ddd6040518163ffffffff1660e01b815260040160206040518083038186803b15801561131057600080fd5b505afa158015611324573d6000803e3d6000fd5b505050506040513d601f19601f8201168201806040525081019061134891906133f7565b90506000600160009054906101000a900473ffffffffffffffffffffffffffffffffffffffff1673ffffffffffffffffffffffffffffffffffffffff1663142b37c7600860009054906101000a900473ffffffffffffffffffffffffffffffffffffffff166040518263ffffffff1660e01b81526004016113c991906136b4565b60206040518083038186803b1580156113e157600080fd5b505afa1580156113f5573d6000803e3d6000fd5b505050506040513d601f19601f8201168201806040525081019061141991906133f7565b905060006005805490509050600080600090505b8281101561153b576005818154811061146f577f4e487b7100000000000000000000000000000000000000000000000000000000600052603260045260246000fd5b9060005260206000200160009054906101000a900473ffffffffffffffffffffffffffffffffffffffff1673ffffffffffffffffffffffffffffffffffffffff16637571fcf66040518163ffffffff1660e01b815260040160e06040518083038186803b1580156114df57600080fd5b505afa1580156114f3573d6000803e3d6000fd5b505050506040513d601f19601f82011682018060405250810190611517919061337c565b600001518261152691906139bb565b9150808061153390613c23565b91505061142d565b5060006115778561156961155a60045486612ed590919063ffffffff16565b87612eeb90919063ffffffff16565b612f0190919063ffffffff16565b9050600160009054906101000a900473ffffffffffffffffffffffffffffffffffffffff1673ffffffffffffffffffffffffffffffffffffffff1663bea05ee36115bf6109f4565b836040516024016115d091906138c9565b6040516020818303038152906040527f21e2f533000000000000000000000000000000000000000000000000000000007bffffffffffffffffffffffffffffffffffffffffffffffffffffffff19166020820180517bffffffffffffffffffffffffffffffffffffffffffffffffffffffff83818316178352505050506040518363ffffffff1660e01b815260040161166a929190613759565b600060405180830381600087803b15801561168457600080fd5b505af1158015611698573d6000803e3d6000fd5b505050506040513d6000823e3d601f19601f820116820180604052508101906116c1919061333b565b5050505050506005600c5414156116db576000600c819055505b565b60025481565b60011515600d60003373ffffffffffffffffffffffffffffffffffffffff1673ffffffffffffffffffffffffffffffffffffffff16815260200190815260200160002060009054906101000a900460ff16151514611776576040517f08c379a000000000000000000000000000000000000000000000000000000000815260040161176d90613849565b60405180910390fd5b600160009054906101000a900473ffffffffffffffffffffffffffffffffffffffff1673ffffffffffffffffffffffffffffffffffffffff1663bea05ee38460601b84846040518463ffffffff1660e01b81526004016117d893929190613727565b600060405180830381600087803b1580156117f257600080fd5b505af1158015611806573d6000803e3d6000fd5b505050506040513d6000823e3d601f19601f8201168201806040525081019061182f919061333b565b50505050565b61183d612ecd565b73ffffffffffffffffffffffffffffffffffffffff1661185b611d86565b73ffffffffffffffffffffffffffffffffffffffff16146118b1576040517f08c379a00000000000000000000000000000000000000000000000000000000081526004016118a890613889565b60405180910390fd5b6118bb6000612f17565b565b6001600c60008282546118d091906139bb565b9250508190555060011515600d60003373ffffffffffffffffffffffffffffffffffffffff1673ffffffffffffffffffffffffffffffffffffffff16815260200190815260200160002060009054906101000a900460ff1615151461196a576040517f08c379a000000000000000000000000000000000000000000000000000000000815260040161196190613849565b60405180910390fd5b6002600c54146119af576040517f08c379a00000000000000000000000000000000000000000000000000000000081526004016119a690613869565b60405180910390fd5b6000600b5414156119f5576040517f08c379a00000000000000000000000000000000000000000000000000000000081526004016119ec906138a9565b60405180910390fd5b6000600b549050600160009054906101000a900473ffffffffffffffffffffffffffffffffffffffff1673ffffffffffffffffffffffffffffffffffffffff1663bea05ee382611a436109f4565b6040516024016040516020818303038152906040527f68eca7f9000000000000000000000000000000000000000000000000000000007bffffffffffffffffffffffffffffffffffffffffffffffffffffffff19166020820180517bffffffffffffffffffffffffffffffffffffffffffffffffffffffff83818316178352505050506040518463ffffffff1660e01b8152600401611ae3929190613759565b6000604051808303818588803b158015611afc57600080fd5b505af1158015611b10573d6000803e3d6000fd5b50505050506040513d6000823e3d601f19601f82011682018060405250810190611b3a919061333b565b506000600160009054906101000a900473ffffffffffffffffffffffffffffffffffffffff1673ffffffffffffffffffffffffffffffffffffffff1663142b37c7600860009054906101000a900473ffffffffffffffffffffffffffffffffffffffff166040518263ffffffff1660e01b8152600401611bba91906136b4565b60206040518083038186803b158015611bd257600080fd5b505afa158015611be6573d6000803e3d6000fd5b505050506040513d601f19601f82011682018060405250810190611c0a91906133f7565b90506000611c2360045483612f0190919063ffffffff16565b905060008167ffffffffffffffff161115611d0a57600560065481548110611c74577f4e487b7100000000000000000000000000000000000000000000000000000000600052603260045260246000fd5b9060005260206000200160009054906101000a900473ffffffffffffffffffffffffffffffffffffffff1673ffffffffffffffffffffffffffffffffffffffff166309fecf7f826040518263ffffffff1660e01b8152600401611cd791906138e4565b600060405180830381600087803b158015611cf157600080fd5b505af1158015611d05573d6000803e3d6000fd5b505050505b5050506005600c541415611d21576000600c819055505b565b60065481565b600c5481565b730888000000000000000000000000000000000006600160006101000a81548173ffffffffffffffffffffffffffffffffffffffff021916908373ffffffffffffffffffffffffffffffffffffffff160217905550565b60008060009054906101000a900473ffffffffffffffffffffffffffffffffffffffff16905090565b600080600160009054906101000a900473ffffffffffffffffffffffffffffffffffffffff1673ffffffffffffffffffffffffffffffffffffffff1663bea05ee3611df86109f4565b6040516024016040516020818303038152906040527f15cc421d000000000000000000000000000000000000000000000000000000007bffffffffffffffffffffffffffffffffffffffffffffffffffffffff19166020820180517bffffffffffffffffffffffffffffffffffffffffffffffffffffffff83818316178352505050506040518363ffffffff1660e01b8152600401611e98929190613759565b600060405180830381600087803b158015611eb257600080fd5b505af1158015611ec6573d6000803e3d6000fd5b505050506040513d6000823e3d601f19601f82011682018060405250810190611eef919061333b565b905080806020019051810190611f0591906133f7565b91505090565b6001600c6000828254611f1e91906139bb565b9250508190555060011515600d60003373ffffffffffffffffffffffffffffffffffffffff1673ffffffffffffffffffffffffffffffffffffffff16815260200190815260200160002060009054906101000a900460ff16151514611fb8576040517f08c379a0000000000000000000000000000000000000000000000000000000008152600401611faf90613849565b60405180910390fd5b6001600c5414611ffd576040517f08c379a0000000000000000000000000000000000000000000000000000000008152600401611ff490613809565b60405180910390fd5b6000600b5414612042576040517f08c379a0000000000000000000000000000000000000000000000000000000008152600401612039906137e9565b60405180910390fd5b6000600580549050905060008060005b8381101561225c5760058181548110612094577f4e487b7100000000000000000000000000000000000000000000000000000000600052603260045260246000fd5b9060005260206000200160009054906101000a900473ffffffffffffffffffffffffffffffffffffffff1692506000821115612249578273ffffffffffffffffffffffffffffffffffffffff16638270512f6040518163ffffffff1660e01b8152600401602060405180830381600087803b15801561211257600080fd5b505af1158015612126573d6000803e3d6000fd5b505050506040513d601f19601f8201168201806040525081019061214a91906133f7565b915061217561271061216760025485612ed590919063ffffffff16565b612f0190919063ffffffff16565b600b600082825461218691906139bb565b92505081905550600160009054906101000a900473ffffffffffffffffffffffffffffffffffffffff1673ffffffffffffffffffffffffffffffffffffffff1663da8d5daf836121d46109f4565b6040518363ffffffff1660e01b81526004016121f0919061370c565b6000604051808303818588803b15801561220957600080fd5b505af115801561221d573d6000803e3d6000fd5b50505050506040513d6000823e3d601f19601f82011682018060405250810190612247919061333b565b505b808061225490613c23565b915050612052565b505050506005600c541415612274576000600c819055505b565b61227e612ecd565b73ffffffffffffffffffffffffffffffffffffffff1661229c611d86565b73ffffffffffffffffffffffffffffffffffffffff16146122f2576040517f08c379a00000000000000000000000000000000000000000000000000000000081526004016122e990613889565b60405180910390fd5b60011515600d60003373ffffffffffffffffffffffffffffffffffffffff1673ffffffffffffffffffffffffffffffffffffffff16815260200190815260200160002060009054906101000a900460ff16151514612385576040517f08c379a000000000000000000000000000000000000000000000000000000000815260040161237c90613849565b60405180910390fd5b61238d611f0b565b6123956118bd565b61239d6111b4565b6123a5612768565b6123ad610a47565b565b600080600583815481106123ec577f4e487b7100000000000000000000000000000000000000000000000000000000600052603260045260246000fd5b9060005260206000200160009054906101000a900473ffffffffffffffffffffffffffffffffffffffff16905060008173ffffffffffffffffffffffffffffffffffffffff1663e73e183b6040518163ffffffff1660e01b815260040160206040518083038186803b15801561246157600080fd5b505afa158015612475573d6000803e3d6000fd5b505050506040513d601f19601f8201168201806040525081019061249991906133f7565b90508092505050919050565b6124ad612ecd565b73ffffffffffffffffffffffffffffffffffffffff166124cb611d86565b73ffffffffffffffffffffffffffffffffffffffff1614612521576040517f08c379a000000000000000000000000000000000000000000000000000000000815260040161251890613889565b60405180910390fd5b6000600580549050905060005b81811015612665578373ffffffffffffffffffffffffffffffffffffffff1660058281548110612587577f4e487b7100000000000000000000000000000000000000000000000000000000600052603260045260246000fd5b9060005260206000200160009054906101000a900473ffffffffffffffffffffffffffffffffffffffff1673ffffffffffffffffffffffffffffffffffffffff161415612652578260058281548110612609577f4e487b7100000000000000000000000000000000000000000000000000000000600052603260045260246000fd5b9060005260206000200160006101000a81548173ffffffffffffffffffffffffffffffffffffffff021916908373ffffffffffffffffffffffffffffffffffffffff1602179055505b808061265d90613c23565b91505061252e565b50505050565b612673612ecd565b73ffffffffffffffffffffffffffffffffffffffff16612691611d86565b73ffffffffffffffffffffffffffffffffffffffff16146126e7576040517f08c379a00000000000000000000000000000000000000000000000000000000081526004016126de90613889565b60405180910390fd5b80600d60008473ffffffffffffffffffffffffffffffffffffffff1673ffffffffffffffffffffffffffffffffffffffff16815260200190815260200160002060006101000a81548160ff0219169083151502179055505050565b600a60009054906101000a900473ffffffffffffffffffffffffffffffffffffffff1681565b6001600c600082825461277b91906139bb565b9250508190555060011515600d60003373ffffffffffffffffffffffffffffffffffffffff1673ffffffffffffffffffffffffffffffffffffffff16815260200190815260200160002060009054906101000a900460ff16151514612815576040517f08c379a000000000000000000000000000000000000000000000000000000000815260040161280c90613849565b60405180910390fd5b6004600c541461285a576040517f08c379a0000000000000000000000000000000000000000000000000000000008152600401612851906137a9565b60405180910390fd5b6000612864610f86565b905060008114156128755750612cf2565b603281111561288357603290505b60006005600654815481106128c1577f4e487b7100000000000000000000000000000000000000000000000000000000600052603260045260246000fd5b9060005260206000200160009054906101000a900473ffffffffffffffffffffffffffffffffffffffff16905060008173ffffffffffffffffffffffffffffffffffffffff1663e3d5b233306040518263ffffffff1660e01b815260040161292991906136b4565b60c06040518083038186803b15801561294157600080fd5b505afa158015612955573d6000803e3d6000fd5b505050506040513d601f19601f8201168201806040525081019061297991906133a5565b90506000816040015167ffffffffffffffff16905060606000808314156129a557505050505050612cf2565b60005b86811015612cea57600160009054906101000a900473ffffffffffffffffffffffffffffffffffffffff1673ffffffffffffffffffffffffffffffffffffffff1663bea05ee36129f66109f4565b6040516024016040516020818303038152906040527f09fcd230000000000000000000000000000000000000000000000000000000007bffffffffffffffffffffffffffffffffffffffffffffffffffffffff19166020820180517bffffffffffffffffffffffffffffffffffffffffffffffffffffffff83818316178352505050506040518363ffffffff1660e01b8152600401612a96929190613759565b600060405180830381600087803b158015612ab057600080fd5b505af1158015612ac4573d6000803e3d6000fd5b505050506040513d6000823e3d601f19601f82011682018060405250810190612aed919061333b565b925082806020019051810190612b0391906133f7565b91506000821415612b1357612cea565b83821115612b2057612cea565b8573ffffffffffffffffffffffffffffffffffffffff1663beb99c1e836040518263ffffffff1660e01b8152600401612b5991906138e4565b600060405180830381600087803b158015612b7357600080fd5b505af1158015612b87573d6000803e3d6000fd5b50505050600160009054906101000a900473ffffffffffffffffffffffffffffffffffffffff1673ffffffffffffffffffffffffffffffffffffffff1663bea05ee3612bd16109f4565b6040516024016040516020818303038152906040527f84981986000000000000000000000000000000000000000000000000000000007bffffffffffffffffffffffffffffffffffffffffffffffffffffffff19166020820180517bffffffffffffffffffffffffffffffffffffffffffffffffffffffff83818316178352505050506040518363ffffffff1660e01b8152600401612c71929190613759565b600060405180830381600087803b158015612c8b57600080fd5b505af1158015612c9f573d6000803e3d6000fd5b505050506040513d6000823e3d601f19601f82011682018060405250810190612cc8919061333b565b508184612cd59190613adf565b93508080612ce290613c23565b9150506129a8565b505050505050505b6005600c541415612d06576000600c819055505b565b60058181548110612d1857600080fd5b906000526020600020016000915054906101000a900473ffffffffffffffffffffffffffffffffffffffff1681565b612d4f612ecd565b73ffffffffffffffffffffffffffffffffffffffff16612d6d611d86565b73ffffffffffffffffffffffffffffffffffffffff1614612dc3576040517f08c379a0000000000000000000000000000000000000000000000000000000008152600401612dba90613889565b60405180910390fd5b600073ffffffffffffffffffffffffffffffffffffffff168173ffffffffffffffffffffffffffffffffffffffff161415612e33576040517f08c379a0000000000000000000000000000000000000000000000000000000008152600401612e2a90613789565b60405180910390fd5b612e3c81612f17565b50565b60606005805480602002602001604051908101604052809291908181526020018280548015612ec357602002820191906000526020600020905b8160009054906101000a900473ffffffffffffffffffffffffffffffffffffffff1673ffffffffffffffffffffffffffffffffffffffff1681526020019060010190808311612e79575b5050505050905090565b600033905090565b60008183612ee39190613a42565b905092915050565b60008183612ef991906139bb565b905092915050565b60008183612f0f9190613a11565b905092915050565b60008060009054906101000a900473ffffffffffffffffffffffffffffffffffffffff169050816000806101000a81548173ffffffffffffffffffffffffffffffffffffffff021916908373ffffffffffffffffffffffffffffffffffffffff1602179055508173ffffffffffffffffffffffffffffffffffffffff168173ffffffffffffffffffffffffffffffffffffffff167f8be0079c531659141344cd1fd0a4f28419497f9722a3daafe3b4186f6b6457e060405160405180910390a35050565b6000612fee612fe984613924565b6138ff565b90508281526020810184848401111561300657600080fd5b613011848285613bbf565b509392505050565b60008135905061302881613f88565b92915050565b60008135905061303d81613f9f565b92915050565b60008083601f84011261305557600080fd5b8235905067ffffffffffffffff81111561306e57600080fd5b60208301915083600182028301111561308657600080fd5b9250929050565b600082601f83011261309e57600080fd5b81516130ae848260208601612fdb565b91505092915050565b600060e082840312156130c957600080fd5b6130d360e06138ff565b905060006130e384828501613218565b60008301525060206130f784828501613218565b602083015250604061310b84828501613218565b604083015250606061311f84828501613218565b606083015250608061313384828501613218565b60808301525060a061314784828501613218565b60a08301525060c061315b84828501613218565b60c08301525092915050565b600060c0828403121561317957600080fd5b61318360c06138ff565b905060006131938482850161322d565b60008301525060206131a78482850161322d565b60208301525060406131bb8482850161322d565b60408301525060606131cf8482850161322d565b60608301525060806131e384828501613218565b60808301525060a06131f784828501613218565b60a08301525092915050565b60008135905061321281613fb6565b92915050565b60008151905061322781613fb6565b92915050565b60008151905061323c81613fcd565b92915050565b60006020828403121561325457600080fd5b600061326284828501613019565b91505092915050565b6000806040838503121561327e57600080fd5b600061328c85828601613019565b925050602061329d85828601613019565b9150509250929050565b600080604083850312156132ba57600080fd5b60006132c885828601613019565b92505060206132d98582860161302e565b9150509250929050565b6000806000604084860312156132f857600080fd5b600061330686828701613019565b935050602084013567ffffffffffffffff81111561332357600080fd5b61332f86828701613043565b92509250509250925092565b60006020828403121561334d57600080fd5b600082015167ffffffffffffffff81111561336757600080fd5b6133738482850161308d565b91505092915050565b600060e0828403121561338e57600080fd5b600061339c848285016130b7565b91505092915050565b600060c082840312156133b757600080fd5b60006133c584828501613167565b91505092915050565b6000602082840312156133e057600080fd5b60006133ee84828501613203565b91505092915050565b60006020828403121561340957600080fd5b600061341784828501613218565b91505092915050565b600061342c8383613438565b60208301905092915050565b61344181613b13565b82525050565b61345081613b13565b82525050565b600061346182613965565b61346b8185613988565b935061347683613955565b8060005b838110156134a757815161348e8882613420565b97506134998361397b565b92505060018101905061347a565b5085935050505092915050565b6134bd81613b25565b82525050565b6134cc81613b31565b82525050565b60006134de8385613999565b93506134eb838584613bb0565b6134f483613cf9565b840190509392505050565b600061350a82613970565b6135148185613999565b9350613524818560208601613bbf565b61352d81613cf9565b840191505092915050565b60006135456026836139aa565b915061355082613d0a565b604082019050919050565b60006135686022836139aa565b915061357382613d59565b604082019050919050565b600061358b6022836139aa565b915061359682613da8565b604082019050919050565b60006135ae601f836139aa565b91506135b982613df7565b602082019050919050565b60006135d16022836139aa565b91506135dc82613e20565b604082019050919050565b60006135f46022836139aa565b91506135ff82613e6f565b604082019050919050565b60006136176017836139aa565b915061362282613ebe565b602082019050919050565b600061363a6022836139aa565b915061364582613ee7565b604082019050919050565b600061365d6020836139aa565b915061366882613f36565b602082019050919050565b6000613680601e836139aa565b915061368b82613f5f565b602082019050919050565b61369f81613b7d565b82525050565b6136ae81613b87565b82525050565b60006020820190506136c96000830184613447565b92915050565b600060208201905081810360008301526136e98184613456565b905092915050565b600060208201905061370660008301846134b4565b92915050565b600060208201905061372160008301846134c3565b92915050565b600060408201905061373c60008301866134c3565b818103602083015261374f8184866134d2565b9050949350505050565b600060408201905061376e60008301856134c3565b818103602083015261378081846134ff565b90509392505050565b600060208201905081810360008301526137a281613538565b9050919050565b600060208201905081810360008301526137c28161355b565b9050919050565b600060208201905081810360008301526137e28161357e565b9050919050565b60006020820190508181036000830152613802816135a1565b9050919050565b60006020820190508181036000830152613822816135c4565b9050919050565b60006020820190508181036000830152613842816135e7565b9050919050565b600060208201905081810360008301526138628161360a565b9050919050565b600060208201905081810360008301526138828161362d565b9050919050565b600060208201905081810360008301526138a281613650565b9050919050565b600060208201905081810360008301526138c281613673565b9050919050565b60006020820190506138de6000830184613696565b92915050565b60006020820190506138f960008301846136a5565b92915050565b600061390961391a565b90506139158282613bf2565b919050565b6000604051905090565b600067ffffffffffffffff82111561393f5761393e613cca565b5b61394882613cf9565b9050602081019050919050565b6000819050602082019050919050565b600081519050919050565b600081519050919050565b6000602082019050919050565b600082825260208201905092915050565b600082825260208201905092915050565b600082825260208201905092915050565b60006139c682613b7d565b91506139d183613b7d565b9250827fffffffffffffffffffffffffffffffffffffffffffffffffffffffffffffffff03821115613a0657613a05613c6c565b5b828201905092915050565b6000613a1c82613b7d565b9150613a2783613b7d565b925082613a3757613a36613c9b565b5b828204905092915050565b6000613a4d82613b7d565b9150613a5883613b7d565b9250817fffffffffffffffffffffffffffffffffffffffffffffffffffffffffffffffff0483118215151615613a9157613a90613c6c565b5b828202905092915050565b6000613aa782613b9b565b9150613ab283613b9b565b92508168ffffffffffffffffff0483118215151615613ad457613ad3613c6c565b5b828202905092915050565b6000613aea82613b7d565b9150613af583613b7d565b925082821015613b0857613b07613c6c565b5b828203905092915050565b6000613b1e82613b5d565b9050919050565b60008115159050919050565b60007fffffffffffffffffffffffffffffffffffffffff00000000000000000000000082169050919050565b600073ffffffffffffffffffffffffffffffffffffffff82169050919050565b6000819050919050565b600067ffffffffffffffff82169050919050565b600068ffffffffffffffffff82169050919050565b82818337600083830152505050565b60005b83811015613bdd578082015181840152602081019050613bc2565b83811115613bec576000848401525b50505050565b613bfb82613cf9565b810181811067ffffffffffffffff82111715613c1a57613c19613cca565b5b80604052505050565b6000613c2e82613b7d565b91507fffffffffffffffffffffffffffffffffffffffffffffffffffffffffffffffff821415613c6157613c60613c6c565b5b600182019050919050565b7f4e487b7100000000000000000000000000000000000000000000000000000000600052601160045260246000fd5b7f4e487b7100000000000000000000000000000000000000000000000000000000600052601260045260246000fd5b7f4e487b7100000000000000000000000000000000000000000000000000000000600052604160045260246000fd5b6000601f19601f8301169050919050565b7f4f776e61626c653a206e6577206f776e657220697320746865207a65726f206160008201527f6464726573730000000000000000000000000000000000000000000000000000602082015250565b7f6964656e746966696572206973206e6f742072696768742c206e65656420626560008201527f2034000000000000000000000000000000000000000000000000000000000000602082015250565b7f6964656e746966696572206973206e6f742072696768742c206e65656420626560008201527f2035000000000000000000000000000000000000000000000000000000000000602082015250565b7f73797374656d5f636678696e74657265737473206e6f7420636c65616e656400600082015250565b7f6964656e746966696572206973206e6f742072696768742c206e65656420626560008201527f2031000000000000000000000000000000000000000000000000000000000000602082015250565b7f6964656e746966696572206973206e6f742072696768742c206e65656420626560008201527f2033000000000000000000000000000000000000000000000000000000000000602082015250565b7f74726967657273206d7573742062652074727573746564000000000000000000600082015250565b7f6964656e746966696572206973206e6f742072696768742c206e65656420626560008201527f2032000000000000000000000000000000000000000000000000000000000000602082015250565b7f4f776e61626c653a2063616c6c6572206973206e6f7420746865206f776e6572600082015250565b7f73797374656d5f636678696e7465726573747320697320636c65616e65640000600082015250565b613f9181613b13565b8114613f9c57600080fd5b50565b613fa881613b25565b8114613fb357600080fd5b50565b613fbf81613b7d565b8114613fca57600080fd5b50565b613fd681613b87565b8114613fe157600080fd5b5056fea2646970667358221220847c52a550c1aee925e430fcdf82e6e8f0addfbae6d160405bad57419019380464736f6c63430008020033",
  "immutableReferences": {},
  "source": "//SPDX-License-Identifier: BUSL-1.1\r\npragma solidity ^0.8.0;\r\nimport \"@openzeppelin/contracts/utils/math/SafeMath.sol\";\r\nimport \"@openzeppelin/contracts/access/Ownable.sol\";\r\nimport \"@openzeppelin/contracts/token/ERC20/IERC20.sol\";\r\nimport \"../ICrossSpaceCall.sol\";\r\nimport \"../IExchange.sol\";\r\n///\r\n///  @title CoreBridge_multipool is a bridge to connect Conflux POS pools and Exchange rooms ,deployed in core;\r\n///  @dev This contract set the user share ratio, system share ratio, \r\n///  @dev compound the interests\r\n///  @notice Users cann't direct use this contract to participate Conflux PoS stake.\r\n///\r\ncontract CoreBridge_multipool is Ownable {\r\n  using SafeMath for uint256;\r\n  CrossSpaceCall internal crossSpaceCall;\r\n\r\n  uint256 private constant RATIO_BASE = 10000;\r\n  // ratio shared by user: 1-10000\r\n  uint256 public poolUserShareRatio = 9000;\r\n  uint256 CFX_COUNT_OF_ONE_VOTE = 1000;\r\n  uint256 CFX_VALUE_OF_ONE_VOTE = 1000 ether;\r\n\r\n  address[] public poolAddress;               // can use many pools, so here is an array\r\n  uint256   public pos_id_in_use;             // pos pool in use\r\n  address   public xCFXAddress;               // xCFX addr in espace \r\n  address   public eSpaceExroomAddress;       //Exchange room Address in espace\r\n  address   public CoreExroomAddress;         //Exchange room Address in core\r\n  address   public ServicetreasuryAddress;    //Service treasury Address in core\r\n  uint256   private system_cfxinterests_temp; //pools cfx interests in temporary\r\n  uint256   public identifier;                //Execution number , should be private when use in main net\r\n  mapping(address=>bool) trusted_node_trigers;//     \r\n  // ======================== Struct definitions =========================\r\n  struct PoolSummary {\r\n    uint256 xCFXSUM;             // xCFX SUM (1 ether xCFX === 1 e18)\r\n    uint256 totalInterest;       // PoS pool interests for all xCFX\r\n    uint256 CFXbalances;         // CFX balances in bridge\r\n    uint256 historical_Interest ;// total historical interest of whole pools\r\n  }\r\n\r\n  constructor () {\r\n    initialize();\r\n  }\r\n  // ======================== Modifiers =========================\r\n\r\n  modifier Only_in_order() {\r\n    identifier += 1;\r\n    _;\r\n    if(identifier==5) identifier = 0;\r\n  }\r\n  modifier Only_trusted_trigers() {\r\n    require(trusted_node_trigers[msg.sender]==true,'trigers must be trusted');\r\n    _;\r\n  }\r\n  // ======================== Methods for core pos pools settings =========================\r\n\r\n  function initialize() public {\r\n    crossSpaceCall = CrossSpaceCall(0x0888000000000000000000000000000000000006);\r\n  }\r\n\r\n  function addPoolAddress(address _poolAddress) public onlyOwner {\r\n    poolAddress.push(_poolAddress);\r\n  }\r\n\r\n  function changePoolAddress(address _oldpoolAddress,address _newpoolAddress) public onlyOwner {\r\n    uint256 pool_sum = poolAddress.length;\r\n    for(uint256 i=0;i<pool_sum;i++)\r\n    {\r\n        if(poolAddress[i]==_oldpoolAddress)\r\n        {\r\n            poolAddress[i]=_newpoolAddress;\r\n        }\r\n    }\r\n  }\r\n  function delePoolAddress(address _oldpoolAddress) public onlyOwner {\r\n    uint256 pool_sum = poolAddress.length;\r\n    for(uint256 i=0;i<pool_sum;i++)\r\n    {\r\n        if(poolAddress[i]==_oldpoolAddress)\r\n        {\r\n            poolAddress[i]= poolAddress[pool_sum-1];\r\n            poolAddress.pop();\r\n        }\r\n    }\r\n  }\r\n\r\n  function seteSpaceExroomAddress(address _eSpaceExroomAddress) public onlyOwner {\r\n    eSpaceExroomAddress = _eSpaceExroomAddress;\r\n  }\r\n  function settrusted_trigers(address _eSpaceExroomAddress,bool state) public onlyOwner {\r\n    trusted_node_trigers[_eSpaceExroomAddress] = state;\r\n  }\r\n\r\n  function get_triger_state(address _eSpaceExroomAddress) public view onlyOwner returns(bool){\r\n    return trusted_node_trigers[_eSpaceExroomAddress];\r\n  }\r\n  function getPoolAddress() public view returns (address[] memory ) {\r\n    return poolAddress;\r\n  }\r\n  \r\n  function ePoolAddrB20() public view returns (bytes20) {\r\n    return bytes20(eSpaceExroomAddress);\r\n  }\r\n  //-----------------espace method-------------------------------------------------------------------------------------\r\n\r\n  function queryespacexCFXincrease() public returns (uint256) {\r\n    bytes memory rawCrossingVotes = crossSpaceCall.callEVM(ePoolAddrB20(), abi.encodeWithSignature(\"crossingVotes()\"));\r\n    return abi.decode(rawCrossingVotes, (uint256));\r\n  }\r\n\r\n  function queryUnstakeLen() public returns (uint256) {\r\n    bytes memory rawUnstakeLen = crossSpaceCall.callEVM(ePoolAddrB20(), abi.encodeWithSignature(\"unstakeLen()\"));\r\n    return abi.decode(rawUnstakeLen, (uint256));\r\n  }\r\n\r\n  //-----------------core pool method-------------------------------------------------------------------------------------\r\n  function queryInterest(uint256 _num) public view returns (uint256) {\r\n    IExchange posPool = IExchange(poolAddress[_num]);\r\n    uint256 interest = posPool.temp_Interest();\r\n    return interest;\r\n  }\r\n\r\n  //-----------------bridge method-------------------------------------------------------------------------------------\r\n  function syncALLwork() public onlyOwner Only_trusted_trigers {\r\n    claimInterests();\r\n\r\n    campounds();\r\n    SyncValue();\r\n\r\n    handleUnstake();\r\n    withdrawVotes();\r\n  }\r\n\r\n  function claimInterests() public Only_in_order Only_trusted_trigers {\r\n    require(identifier==1,\"identifier is not right, need be 1\");\r\n    require(system_cfxinterests_temp==0,'system_cfxinterests not cleaned');\r\n    uint256 pool_sum = poolAddress.length;\r\n    IExchange posPool;\r\n    uint256 interest;\r\n    for(uint256 i=0;i<pool_sum;i++)\r\n    {\r\n      posPool = IExchange(poolAddress[i]);\r\n      //interest = posPool.userInterest(address(this));\r\n      if (interest > 0) {\r\n        interest = posPool.claimAllInterest();\r\n        system_cfxinterests_temp += interest.mul(poolUserShareRatio).div(RATIO_BASE);\r\n        crossSpaceCall.transferEVM{value: interest}(ePoolAddrB20());\r\n      }\r\n    }\r\n  }\r\n  function campounds() public Only_in_order Only_trusted_trigers {\r\n    require(identifier==2,\"identifier is not right, need be 2\");\r\n    require(system_cfxinterests_temp!=0,'system_cfxinterests is cleaned');\r\n    uint256 toxCFX = system_cfxinterests_temp;\r\n    system_cfxinterests_temp == 0;\r\n    crossSpaceCall.callEVM{value: toxCFX}(ePoolAddrB20(), abi.encodeWithSignature(\"CFX_exchange_XCFX()\"));\r\n    uint256 balanceinpool = crossSpaceCall.mappedBalance(eSpaceExroomAddress);\r\n    uint64 votePower = uint64(balanceinpool.div(CFX_VALUE_OF_ONE_VOTE));\r\n    if (votePower > 0){\r\n      IExchange(poolAddress[pos_id_in_use]).increaseStake(votePower);\r\n    }\r\n  }\r\n\r\n  function SyncValue() public Only_in_order Only_trusted_trigers {\r\n    require(identifier==3,\"identifier is not right, need be 3\");\r\n    uint256 sum = IERC20(xCFXAddress).totalSupply() ; \r\n    uint256 balanceinpool = crossSpaceCall.mappedBalance(eSpaceExroomAddress);\r\n    uint256 pool_sum = poolAddress.length;\r\n    uint256 SUMvotes;\r\n    for(uint256 i=0;i<pool_sum;i++)\r\n    {\r\n        SUMvotes += IExchange(poolAddress[i]).poolSummary().totalvotes;\r\n    }\r\n    uint256 xCFXvalues =balanceinpool.add(SUMvotes.mul(CFX_VALUE_OF_ONE_VOTE)).div(sum);\r\n    crossSpaceCall.callEVM(ePoolAddrB20(), abi.encodeWithSignature(\"setxCFXValue(uint256)\", xCFXvalues));\r\n  }\r\n\r\n  function handleUnstake() public Only_in_order Only_trusted_trigers {\r\n    require(identifier==4,\"identifier is not right, need be 4\");\r\n    uint256 unstakeLen = queryUnstakeLen();\r\n    if (unstakeLen == 0) return;\r\n    if (unstakeLen > 50) unstakeLen = 50; // max 50 unstakes per call\r\n    IExchange posPool = IExchange(poolAddress[pos_id_in_use]);\r\n    IExchange.UserSummary memory userSummary = posPool.userSummary(address(this));\r\n    uint256 available = userSummary.locked;\r\n    bytes memory rawFirstUnstakeVotes ;\r\n    uint256 firstUnstakeVotes;\r\n    if (available == 0) return;\r\n    for(uint256 i = 0; i < unstakeLen; i++) {\r\n      rawFirstUnstakeVotes = crossSpaceCall.callEVM(ePoolAddrB20(), abi.encodeWithSignature(\"firstUnstakeVotes()\"));\r\n      firstUnstakeVotes = abi.decode(rawFirstUnstakeVotes, (uint256));\r\n      if (firstUnstakeVotes == 0) break;\r\n      if (firstUnstakeVotes > available) break;\r\n      posPool.decreaseStake(uint64(firstUnstakeVotes));\r\n      crossSpaceCall.callEVM(ePoolAddrB20(), abi.encodeWithSignature(\"handleUnstakeTask()\"));\r\n      available -= firstUnstakeVotes;\r\n    }\r\n  }\r\n\r\n  function withdrawVotes() public Only_in_order Only_trusted_trigers {\r\n    require(identifier==5,\"identifier is not right, need be 5\");\r\n    uint256 pool_sum = poolAddress.length;\r\n    IExchange posPool;\r\n    uint256 interest;\r\n    uint256 transferValue;\r\n    for(uint256 i=0;i<pool_sum;i++)\r\n    {\r\n      posPool = IExchange(poolAddress[i]);\r\n      IExchange.UserSummary memory userSummary = posPool.userSummary(address(this));\r\n      if (userSummary.unlocked > 0) \r\n      {\r\n        posPool.withdrawStake(userSummary.unlocked);\r\n        // transfer to eSpacePool and call method\r\n        transferValue = userSummary.unlocked * 1000 ether;\r\n        crossSpaceCall.callEVM{value: transferValue}(ePoolAddrB20(), abi.encodeWithSignature(\"handleUnlockedIncrease(uint256)\", userSummary.unlocked));\r\n      }\r\n    }\r\n  }\r\n\r\n  function callEVM(address addr, bytes calldata data) public Only_trusted_trigers {\r\n    crossSpaceCall.callEVM(bytes20(addr), data);\r\n  }\r\n\r\n  fallback() external payable {}\r\n  receive() external payable {}\r\n}",
  "sourcePath": "C:/Users/artii/Conflux Studio/minpos/contracts/eSpace/CoreBridge_multipool.sol",
  "compiler": {
    "name": "solc",
    "version": "0.8.2+commit.661d1103.Emscripten.clang"
  },
  "schemaVersion": "3.3.4",
  "updatedAt": "2022-08-15T23:41:42.016Z",
  "devdoc": {
    "details": "This contract set the user share ratio, system share ratio, compound the interests",
    "kind": "dev",
    "methods": {
      "owner()": {
        "details": "Returns the address of the current owner."
      },
      "renounceOwnership()": {
        "details": "Leaves the contract without owner. It will not be possible to call `onlyOwner` functions anymore. Can only be called by the current owner. NOTE: Renouncing ownership will leave the contract without an owner, thereby removing any functionality that is only available to the owner."
      },
      "transferOwnership(address)": {
        "details": "Transfers ownership of the contract to a new account (`newOwner`). Can only be called by the current owner."
      }
    },
    "title": "CoreBridge_multipool is a bridge to connect Conflux POS pools and Exchange rooms ,deployed in core;",
    "version": 1
  },
  "userdoc": {
    "kind": "user",
    "methods": {},
    "notice": "Users cann't direct use this contract to participate Conflux PoS stake.",
    "version": 1
  }
}