{
  "contractName": "CoreBridge_multipool",
  "abi": [
    {
      "inputs": [],
      "stateMutability": "nonpayable",
      "type": "constructor"
    },
    {
      "anonymous": false,
      "inputs": [
        {
          "indexed": true,
          "internalType": "address",
          "name": "previousOwner",
          "type": "address"
        },
        {
          "indexed": true,
          "internalType": "address",
          "name": "newOwner",
          "type": "address"
        }
      ],
      "name": "OwnershipTransferred",
      "type": "event"
    },
    {
      "stateMutability": "payable",
      "type": "fallback"
    },
    {
      "inputs": [],
      "name": "CoreExroomAddress",
      "outputs": [
        {
          "internalType": "address",
          "name": "",
          "type": "address"
        }
      ],
      "stateMutability": "view",
      "type": "function"
    },
    {
      "inputs": [],
      "name": "ServicetreasuryAddress",
      "outputs": [
        {
          "internalType": "address",
          "name": "",
          "type": "address"
        }
      ],
      "stateMutability": "view",
      "type": "function"
    },
    {
      "inputs": [],
      "name": "bridge_eSpaceAddress",
      "outputs": [
        {
          "internalType": "address",
          "name": "",
          "type": "address"
        }
      ],
      "stateMutability": "view",
      "type": "function"
    },
    {
      "inputs": [],
      "name": "eSpaceExroomAddress",
      "outputs": [
        {
          "internalType": "address",
          "name": "",
          "type": "address"
        }
      ],
      "stateMutability": "view",
      "type": "function"
    },
    {
      "inputs": [],
      "name": "identifier",
      "outputs": [
        {
          "internalType": "uint256",
          "name": "",
          "type": "uint256"
        }
      ],
      "stateMutability": "view",
      "type": "function"
    },
    {
      "inputs": [],
      "name": "owner",
      "outputs": [
        {
          "internalType": "address",
          "name": "",
          "type": "address"
        }
      ],
      "stateMutability": "view",
      "type": "function"
    },
    {
      "inputs": [
        {
          "internalType": "uint256",
          "name": "",
          "type": "uint256"
        }
      ],
      "name": "poolAddress",
      "outputs": [
        {
          "internalType": "address",
          "name": "",
          "type": "address"
        }
      ],
      "stateMutability": "view",
      "type": "function"
    },
    {
      "inputs": [],
      "name": "poolUserShareRatio",
      "outputs": [
        {
          "internalType": "uint256",
          "name": "",
          "type": "uint256"
        }
      ],
      "stateMutability": "view",
      "type": "function"
    },
    {
      "inputs": [],
      "name": "pos_id_in_use",
      "outputs": [
        {
          "internalType": "uint256",
          "name": "",
          "type": "uint256"
        }
      ],
      "stateMutability": "view",
      "type": "function"
    },
    {
      "inputs": [],
      "name": "renounceOwnership",
      "outputs": [],
      "stateMutability": "nonpayable",
      "type": "function"
    },
    {
      "inputs": [],
      "name": "system_cfxinterests_temp",
      "outputs": [
        {
          "internalType": "uint256",
          "name": "",
          "type": "uint256"
        }
      ],
      "stateMutability": "view",
      "type": "function"
    },
    {
      "inputs": [
        {
          "internalType": "address",
          "name": "newOwner",
          "type": "address"
        }
      ],
      "name": "transferOwnership",
      "outputs": [],
      "stateMutability": "nonpayable",
      "type": "function"
    },
    {
      "inputs": [],
      "name": "xCFXAddress",
      "outputs": [
        {
          "internalType": "address",
          "name": "",
          "type": "address"
        }
      ],
      "stateMutability": "view",
      "type": "function"
    },
    {
      "stateMutability": "payable",
      "type": "receive"
    },
    {
      "inputs": [],
      "name": "initialize",
      "outputs": [],
      "stateMutability": "nonpayable",
      "type": "function"
    },
    {
      "inputs": [
        {
          "internalType": "address",
          "name": "_poolAddress",
          "type": "address"
        }
      ],
      "name": "addPoolAddress",
      "outputs": [],
      "stateMutability": "nonpayable",
      "type": "function"
    },
    {
      "inputs": [
        {
          "internalType": "address",
          "name": "_oldpoolAddress",
          "type": "address"
        },
        {
          "internalType": "address",
          "name": "_newpoolAddress",
          "type": "address"
        }
      ],
      "name": "changePoolAddress",
      "outputs": [],
      "stateMutability": "nonpayable",
      "type": "function"
    },
    {
      "inputs": [
        {
          "internalType": "address",
          "name": "_oldpoolAddress",
          "type": "address"
        }
      ],
      "name": "delePoolAddress",
      "outputs": [],
      "stateMutability": "nonpayable",
      "type": "function"
    },
    {
      "inputs": [
        {
          "internalType": "address",
          "name": "_eSpaceExroomAddress",
          "type": "address"
        }
      ],
      "name": "seteSpaceExroomAddress",
      "outputs": [],
      "stateMutability": "nonpayable",
      "type": "function"
    },
    {
      "inputs": [
        {
          "internalType": "address",
          "name": "_eSpacexCFXaddr",
          "type": "address"
        }
      ],
      "name": "seteSpacexCFXAddress",
      "outputs": [],
      "stateMutability": "nonpayable",
      "type": "function"
    },
    {
      "inputs": [
        {
          "internalType": "address",
          "name": "_bridge_eSpaceAddress",
          "type": "address"
        }
      ],
      "name": "seteSpacebridgeAddress",
      "outputs": [],
      "stateMutability": "nonpayable",
      "type": "function"
    },
    {
      "inputs": [
        {
          "internalType": "address",
          "name": "_Address",
          "type": "address"
        },
        {
          "internalType": "bool",
          "name": "state",
          "type": "bool"
        }
      ],
      "name": "settrusted_trigers",
      "outputs": [],
      "stateMutability": "nonpayable",
      "type": "function"
    },
    {
      "inputs": [
        {
          "internalType": "address",
          "name": "_Address",
          "type": "address"
        }
      ],
      "name": "get_triger_state",
      "outputs": [
        {
          "internalType": "bool",
          "name": "",
          "type": "bool"
        }
      ],
      "stateMutability": "view",
      "type": "function"
    },
    {
      "inputs": [],
      "name": "getPoolAddress",
      "outputs": [
        {
          "internalType": "address[]",
          "name": "",
          "type": "address[]"
        }
      ],
      "stateMutability": "view",
      "type": "function"
    },
    {
      "inputs": [
        {
          "internalType": "uint256",
          "name": "count",
          "type": "uint256"
        }
      ],
      "name": "_setCfxCountOfOneVote",
      "outputs": [],
      "stateMutability": "nonpayable",
      "type": "function"
    },
    {
      "inputs": [
        {
          "internalType": "uint64",
          "name": "ratio",
          "type": "uint64"
        }
      ],
      "name": "setPoolUserShareRatio",
      "outputs": [],
      "stateMutability": "nonpayable",
      "type": "function"
    },
    {
      "inputs": [],
      "name": "queryespacexCFXincrease",
      "outputs": [
        {
          "internalType": "uint256",
          "name": "",
          "type": "uint256"
        }
      ],
      "stateMutability": "nonpayable",
      "type": "function"
    },
    {
      "inputs": [],
      "name": "queryUnstakeLen",
      "outputs": [
        {
          "internalType": "uint256",
          "name": "",
          "type": "uint256"
        }
      ],
      "stateMutability": "nonpayable",
      "type": "function"
    },
    {
      "inputs": [
        {
          "internalType": "uint256",
          "name": "_num",
          "type": "uint256"
        }
      ],
      "name": "queryInterest",
      "outputs": [
        {
          "internalType": "uint256",
          "name": "",
          "type": "uint256"
        }
      ],
      "stateMutability": "view",
      "type": "function"
    },
    {
      "inputs": [],
      "name": "syncALLwork",
      "outputs": [],
      "stateMutability": "nonpayable",
      "type": "function"
    },
    {
      "inputs": [],
      "name": "claimInterests",
      "outputs": [
        {
          "internalType": "uint256",
          "name": "",
          "type": "uint256"
        }
      ],
      "stateMutability": "nonpayable",
      "type": "function"
    },
    {
      "inputs": [],
      "name": "campounds",
      "outputs": [
        {
          "internalType": "uint256",
          "name": "",
          "type": "uint256"
        }
      ],
      "stateMutability": "nonpayable",
      "type": "function"
    },
    {
      "inputs": [],
      "name": "SyncValue",
      "outputs": [
        {
          "internalType": "uint256",
          "name": "",
          "type": "uint256"
        }
      ],
      "stateMutability": "nonpayable",
      "type": "function"
    },
    {
      "inputs": [],
      "name": "handleUnstake",
      "outputs": [],
      "stateMutability": "nonpayable",
      "type": "function"
    },
    {
      "inputs": [],
      "name": "withdrawVotes",
      "outputs": [],
      "stateMutability": "nonpayable",
      "type": "function"
    },
    {
      "inputs": [
        {
          "internalType": "address",
          "name": "addr",
          "type": "address"
        },
        {
          "internalType": "bytes",
          "name": "data",
          "type": "bytes"
        }
      ],
      "name": "callEVM",
      "outputs": [],
      "stateMutability": "nonpayable",
      "type": "function"
    },
    {
      "inputs": [
        {
          "internalType": "uint256",
          "name": "_identifier",
          "type": "uint256"
        }
      ],
      "name": "identifier_test",
      "outputs": [],
      "stateMutability": "nonpayable",
      "type": "function"
    },
    {
      "inputs": [
        {
          "internalType": "uint256",
          "name": "_i",
          "type": "uint256"
        }
      ],
      "name": "system_cfxinterests_temp_set",
      "outputs": [],
      "stateMutability": "nonpayable",
      "type": "function"
    }
  ],
  "bytecode": "0x60806040526123286002556103e8600355683635c9adc5dea000006004553480156200002a57600080fd5b506200004b6200003f6200006160201b60201c565b6200006960201b60201c565b6200005b6200012d60201b60201c565b620001a6565b600033905090565b60008060009054906101000a900473ffffffffffffffffffffffffffffffffffffffff169050816000806101000a81548173ffffffffffffffffffffffffffffffffffffffff021916908373ffffffffffffffffffffffffffffffffffffffff1602179055508173ffffffffffffffffffffffffffffffffffffffff168173ffffffffffffffffffffffffffffffffffffffff167f8be0079c531659141344cd1fd0a4f28419497f9722a3daafe3b4186f6b6457e060405160405180910390a35050565b730888000000000000000000000000000000000006600160006101000a81548173ffffffffffffffffffffffffffffffffffffffff021916908373ffffffffffffffffffffffffffffffffffffffff1602179055506123286002819055506103e8600381905550683635c9adc5dea00000600481905550565b61480f80620001b66000396000f3fe60806040526004361061021e5760003560e01c80638129fc1c11610123578063b3569a18116100ab578063da02d1001161006f578063da02d10014610745578063da9da5261461075c578063f0d8fc6614610799578063f2fde38b146107c2578063f586c6d9146107eb57610225565b8063b3569a1814610672578063b8a99b1f1461069b578063bb469110146106c6578063c2626b7d146106f1578063c3b8eba01461071c57610225565b8063986e08b6116100f2578063986e08b6146105a35780639fa28e48146105ba578063a0e86fd0146105f7578063a53c9f8814610620578063a5d3416a1461064957610225565b80638129fc1c1461050b5780638da5cb5b1461052257806393e48e381461054d578063983bf1bd1461057857610225565b8063588beea5116101a65780636a5bd69d116101755780636a5bd69d1461044a578063715018a61461047357806375eea4e21461048a578063783b7c97146104b55780637998a1c4146104e057610225565b8063588beea51461038e57806363c312e5146103cb57806365473c52146103f457806367a1aa4f1461041f57610225565b80633e7321b5116101ed5780633e7321b5146102cd57806340d5637f146102f8578063434998441461030f5780634e141b4e14610338578063505f53d41461036357610225565b8063120063b0146102275780632306092e14610250578063231da72f146102795780633a7e2d9a146102a457610225565b3661022557005b005b34801561023357600080fd5b5061024e600480360381019061024991906139b7565b610816565b005b34801561025c57600080fd5b50610277600480360381019061027291906139b7565b6108d6565b005b34801561028557600080fd5b5061028e610b78565b60405161029b9190613e6f565b60405180910390f35b3480156102b057600080fd5b506102cb60048036038101906102c69190613b1a565b610b9e565b005b3480156102d957600080fd5b506102e2610c3e565b6040516102ef9190613e6f565b60405180910390f35b34801561030457600080fd5b5061030d610c64565b005b34801561031b57600080fd5b50610336600480360381019061033191906139b7565b610fec565b005b34801561034457600080fd5b5061034d6110ce565b60405161035a9190613e6f565b60405180910390f35b34801561036f57600080fd5b506103786110f4565b60405161038591906140c4565b60405180910390f35b34801561039a57600080fd5b506103b560048036038101906103b091906139b7565b61126e565b6040516103c29190613eac565b60405180910390f35b3480156103d757600080fd5b506103f260048036038101906103ed9190613b1a565b611340565b005b34801561040057600080fd5b506104096113c6565b60405161041691906140c4565b60405180910390f35b34801561042b57600080fd5b50610434611927565b60405161044191906140c4565b60405180910390f35b34801561045657600080fd5b50610471600480360381019061046c9190613a58565b61192d565b005b34801561047f57600080fd5b50610488611a7f565b005b34801561049657600080fd5b5061049f611b07565b6040516104ac91906140c4565b60405180910390f35b3480156104c157600080fd5b506104ca612104565b6040516104d791906140c4565b60405180910390f35b3480156104ec57600080fd5b506104f561210a565b60405161050291906140c4565b60405180910390f35b34801561051757600080fd5b50610520612110565b005b34801561052e57600080fd5b50610537612189565b6040516105449190613e6f565b60405180910390f35b34801561055957600080fd5b506105626121b2565b60405161056f91906140c4565b60405180910390f35b34801561058457600080fd5b5061058d61232c565b60405161059a91906140c4565b60405180910390f35b3480156105af57600080fd5b506105b86126b5565b005b3480156105c657600080fd5b506105e160048036038101906105dc9190613b1a565b6127f1565b6040516105ee91906140c4565b60405180910390f35b34801561060357600080fd5b5061061e600480360381019061061991906139e0565b6128e7565b005b34801561062c57600080fd5b5061064760048036038101906106429190613b1a565b612aad565b005b34801561065557600080fd5b50610670600480360381019061066b91906139b7565b612b33565b005b34801561067e57600080fd5b5061069960048036038101906106949190613a1c565b612bf3565b005b3480156106a757600080fd5b506106b0612cca565b6040516106bd9190613e6f565b60405180910390f35b3480156106d257600080fd5b506106db612cf0565b6040516106e89190613e6f565b60405180910390f35b3480156106fd57600080fd5b50610706612d16565b60405161071391906140c4565b60405180910390f35b34801561072857600080fd5b50610743600480360381019061073e9190613b6c565b612d1c565b005b34801561075157600080fd5b5061075a612e11565b005b34801561076857600080fd5b50610783600480360381019061077e9190613b1a565b61346f565b6040516107909190613e6f565b60405180910390f35b3480156107a557600080fd5b506107c060048036038101906107bb91906139b7565b6134ae565b005b3480156107ce57600080fd5b506107e960048036038101906107e491906139b7565b61356e565b005b3480156107f757600080fd5b50610800613666565b60405161080d9190613e8a565b60405180910390f35b61081e6136f4565b73ffffffffffffffffffffffffffffffffffffffff1661083c612189565b73ffffffffffffffffffffffffffffffffffffffff1614610892576040517f08c379a000000000000000000000000000000000000000000000000000000000815260040161088990614044565b60405180910390fd5b80600860006101000a81548173ffffffffffffffffffffffffffffffffffffffff021916908373ffffffffffffffffffffffffffffffffffffffff16021790555050565b6108de6136f4565b73ffffffffffffffffffffffffffffffffffffffff166108fc612189565b73ffffffffffffffffffffffffffffffffffffffff1614610952576040517f08c379a000000000000000000000000000000000000000000000000000000000815260040161094990614044565b60405180910390fd5b6000600580549050905060005b81811015610b73578273ffffffffffffffffffffffffffffffffffffffff16600582815481106109b8577f4e487b7100000000000000000000000000000000000000000000000000000000600052603260045260246000fd5b9060005260206000200160009054906101000a900473ffffffffffffffffffffffffffffffffffffffff1673ffffffffffffffffffffffffffffffffffffffff161415610b60576005600183610a0e9190614297565b81548110610a45577f4e487b7100000000000000000000000000000000000000000000000000000000600052603260045260246000fd5b9060005260206000200160009054906101000a900473ffffffffffffffffffffffffffffffffffffffff1660058281548110610aaa577f4e487b7100000000000000000000000000000000000000000000000000000000600052603260045260246000fd5b9060005260206000200160006101000a81548173ffffffffffffffffffffffffffffffffffffffff021916908373ffffffffffffffffffffffffffffffffffffffff1602179055506005805480610b2a577f4e487b7100000000000000000000000000000000000000000000000000000000600052603160045260246000fd5b6001900381819060005260206000200160006101000a81549073ffffffffffffffffffffffffffffffffffffffff021916905590555b8080610b6b906143c6565b91505061095f565b505050565b600760009054906101000a900473ffffffffffffffffffffffffffffffffffffffff1681565b610ba66136f4565b73ffffffffffffffffffffffffffffffffffffffff16610bc4612189565b73ffffffffffffffffffffffffffffffffffffffff1614610c1a576040517f08c379a0000000000000000000000000000000000000000000000000000000008152600401610c1190614044565b60405180910390fd5b80600381905550670de0b6b3a764000081610c35919061423d565b60048190555050565b600860009054906101000a900473ffffffffffffffffffffffffffffffffffffffff1681565b6001600d6000828254610c7791906141b6565b9250508190555060011515600e60003373ffffffffffffffffffffffffffffffffffffffff1673ffffffffffffffffffffffffffffffffffffffff16815260200190815260200160002060009054906101000a900460ff16151514610d11576040517f08c379a0000000000000000000000000000000000000000000000000000000008152600401610d0890614004565b60405180910390fd5b6005600d5414610d56576040517f08c379a0000000000000000000000000000000000000000000000000000000008152600401610d4d90613f84565b60405180910390fd5b60006005805490509050600080600080600090505b84811015610fd15760058181548110610dad577f4e487b7100000000000000000000000000000000000000000000000000000000600052603260045260246000fd5b9060005260206000200160009054906101000a900473ffffffffffffffffffffffffffffffffffffffff16935060008473ffffffffffffffffffffffffffffffffffffffff16637571fcf66040518163ffffffff1660e01b815260040160e06040518083038186803b158015610e2257600080fd5b505afa158015610e36573d6000803e3d6000fd5b505050506040513d601f19601f82011682018060405250810190610e5a9190613af1565b9050806080015193506000841115610fbd578473ffffffffffffffffffffffffffffffffffffffff1663bed9d8616040518163ffffffff1660e01b8152600401600060405180830381600087803b158015610eb457600080fd5b505af1158015610ec8573d6000803e3d6000fd5b50505050683635c9adc5dea0000084610ee1919061423d565b9250600160009054906101000a900473ffffffffffffffffffffffffffffffffffffffff1673ffffffffffffffffffffffffffffffffffffffff1663da8d5daf84600860009054906101000a900473ffffffffffffffffffffffffffffffffffffffff1660601b6040518363ffffffff1660e01b8152600401610f649190613ec7565b6000604051808303818588803b158015610f7d57600080fd5b505af1158015610f91573d6000803e3d6000fd5b50505050506040513d6000823e3d601f19601f82011682018060405250810190610fbb9190613ab0565b505b508080610fc9906143c6565b915050610d6b565b50505050506005600d541415610fea576000600d819055505b565b610ff46136f4565b73ffffffffffffffffffffffffffffffffffffffff16611012612189565b73ffffffffffffffffffffffffffffffffffffffff1614611068576040517f08c379a000000000000000000000000000000000000000000000000000000000815260040161105f90614044565b60405180910390fd5b6005819080600181540180825580915050600190039060005260206000200160009091909190916101000a81548173ffffffffffffffffffffffffffffffffffffffff021916908373ffffffffffffffffffffffffffffffffffffffff16021790555050565b600a60009054906101000a900473ffffffffffffffffffffffffffffffffffffffff1681565b600080600160009054906101000a900473ffffffffffffffffffffffffffffffffffffffff1673ffffffffffffffffffffffffffffffffffffffff1663bea05ee3600860009054906101000a900473ffffffffffffffffffffffffffffffffffffffff1660601b6040516024016040516020818303038152906040527fc7ff5d6e000000000000000000000000000000000000000000000000000000007bffffffffffffffffffffffffffffffffffffffffffffffffffffffff19166020820180517bffffffffffffffffffffffffffffffffffffffffffffffffffffffff83818316178352505050506040518363ffffffff1660e01b81526004016111fb929190613f14565b600060405180830381600087803b15801561121557600080fd5b505af1158015611229573d6000803e3d6000fd5b505050506040513d6000823e3d601f19601f820116820180604052508101906112529190613ab0565b9050808060200190518101906112689190613b43565b91505090565b60006112786136f4565b73ffffffffffffffffffffffffffffffffffffffff16611296612189565b73ffffffffffffffffffffffffffffffffffffffff16146112ec576040517f08c379a00000000000000000000000000000000000000000000000000000000081526004016112e390614044565b60405180910390fd5b600e60008373ffffffffffffffffffffffffffffffffffffffff1673ffffffffffffffffffffffffffffffffffffffff16815260200190815260200160002060009054906101000a900460ff169050919050565b6113486136f4565b73ffffffffffffffffffffffffffffffffffffffff16611366612189565b73ffffffffffffffffffffffffffffffffffffffff16146113bc576040517f08c379a00000000000000000000000000000000000000000000000000000000081526004016113b390614044565b60405180910390fd5b80600d8190555050565b60006001600d60008282546113db91906141b6565b9250508190555060011515600e60003373ffffffffffffffffffffffffffffffffffffffff1673ffffffffffffffffffffffffffffffffffffffff16815260200190815260200160002060009054906101000a900460ff16151514611475576040517f08c379a000000000000000000000000000000000000000000000000000000000815260040161146c90614004565b60405180910390fd5b6003600d54146114ba576040517f08c379a00000000000000000000000000000000000000000000000000000000081526004016114b190613fe4565b60405180910390fd5b6000600160009054906101000a900473ffffffffffffffffffffffffffffffffffffffff1673ffffffffffffffffffffffffffffffffffffffff1663bea05ee3600760009054906101000a900473ffffffffffffffffffffffffffffffffffffffff1660601b6040516024016040516020818303038152906040527f18160ddd000000000000000000000000000000000000000000000000000000007bffffffffffffffffffffffffffffffffffffffffffffffffffffffff19166020820180517bffffffffffffffffffffffffffffffffffffffffffffffffffffffff83818316178352505050506040518363ffffffff1660e01b81526004016115c0929190613f14565b600060405180830381600087803b1580156115da57600080fd5b505af11580156115ee573d6000803e3d6000fd5b505050506040513d6000823e3d601f19601f820116820180604052508101906116179190613ab0565b905060008180602001905181019061162f9190613b43565b9050600047905060006005805490509050600080600090505b82811015611756576005818154811061168a577f4e487b7100000000000000000000000000000000000000000000000000000000600052603260045260246000fd5b9060005260206000200160009054906101000a900473ffffffffffffffffffffffffffffffffffffffff1673ffffffffffffffffffffffffffffffffffffffff16637571fcf66040518163ffffffff1660e01b815260040160e06040518083038186803b1580156116fa57600080fd5b505afa15801561170e573d6000803e3d6000fd5b505050506040513d601f19601f820116820180604052508101906117329190613af1565b600001518261174191906141b6565b9150808061174e906143c6565b915050611648565b50600061179e85670de0b6b3a764000061177b600454866136fc90919063ffffffff16565b8761178691906141b6565b611790919061423d565b61371290919063ffffffff16565b9050600160009054906101000a900473ffffffffffffffffffffffffffffffffffffffff1673ffffffffffffffffffffffffffffffffffffffff1663bea05ee3600860009054906101000a900473ffffffffffffffffffffffffffffffffffffffff1660601b8360405160240161181591906140c4565b6040516020818303038152906040527f21e2f533000000000000000000000000000000000000000000000000000000007bffffffffffffffffffffffffffffffffffffffffffffffffffffffff19166020820180517bffffffffffffffffffffffffffffffffffffffffffffffffffffffff83818316178352505050506040518363ffffffff1660e01b81526004016118af929190613f14565b600060405180830381600087803b1580156118c957600080fd5b505af11580156118dd573d6000803e3d6000fd5b505050506040513d6000823e3d601f19601f820116820180604052508101906119069190613ab0565b508096505050505050506005600d541415611924576000600d819055505b90565b60025481565b60011515600e60003373ffffffffffffffffffffffffffffffffffffffff1673ffffffffffffffffffffffffffffffffffffffff16815260200190815260200160002060009054906101000a900460ff161515146119c0576040517f08c379a00000000000000000000000000000000000000000000000000000000081526004016119b790614004565b60405180910390fd5b600160009054906101000a900473ffffffffffffffffffffffffffffffffffffffff1673ffffffffffffffffffffffffffffffffffffffff1663bea05ee38460601b84846040518463ffffffff1660e01b8152600401611a2293929190613ee2565b600060405180830381600087803b158015611a3c57600080fd5b505af1158015611a50573d6000803e3d6000fd5b505050506040513d6000823e3d601f19601f82011682018060405250810190611a799190613ab0565b50505050565b611a876136f4565b73ffffffffffffffffffffffffffffffffffffffff16611aa5612189565b73ffffffffffffffffffffffffffffffffffffffff1614611afb576040517f08c379a0000000000000000000000000000000000000000000000000000000008152600401611af290614044565b60405180910390fd5b611b056000613728565b565b60006001600d6000828254611b1c91906141b6565b9250508190555060011515600e60003373ffffffffffffffffffffffffffffffffffffffff1673ffffffffffffffffffffffffffffffffffffffff16815260200190815260200160002060009054906101000a900460ff16151514611bb6576040517f08c379a0000000000000000000000000000000000000000000000000000000008152600401611bad90614004565b60405180910390fd5b6002600d5414611bfb576040517f08c379a0000000000000000000000000000000000000000000000000000000008152600401611bf290614024565b60405180910390fd5b6000600c541415611c41576040517f08c379a0000000000000000000000000000000000000000000000000000000008152600401611c38906140a4565b60405180910390fd5b6000600c5490506000600c81905550600160009054906101000a900473ffffffffffffffffffffffffffffffffffffffff1673ffffffffffffffffffffffffffffffffffffffff1663bea05ee382600860009054906101000a900473ffffffffffffffffffffffffffffffffffffffff1660601b6040516024016040516020818303038152906040527f68eca7f9000000000000000000000000000000000000000000000000000000007bffffffffffffffffffffffffffffffffffffffffffffffffffffffff19166020820180517bffffffffffffffffffffffffffffffffffffffffffffffffffffffff83818316178352505050506040518463ffffffff1660e01b8152600401611d55929190613f14565b6000604051808303818588803b158015611d6e57600080fd5b505af1158015611d82573d6000803e3d6000fd5b50505050506040513d6000823e3d601f19601f82011682018060405250810190611dac9190613ab0565b506000600160009054906101000a900473ffffffffffffffffffffffffffffffffffffffff1673ffffffffffffffffffffffffffffffffffffffff1663bea05ee3600860009054906101000a900473ffffffffffffffffffffffffffffffffffffffff1660601b600960009054906101000a900473ffffffffffffffffffffffffffffffffffffffff16604051602401611e469190613e6f565b6040516020818303038152906040527f048e1dcc000000000000000000000000000000000000000000000000000000007bffffffffffffffffffffffffffffffffffffffffffffffffffffffff19166020820180517bffffffffffffffffffffffffffffffffffffffffffffffffffffffff83818316178352505050506040518363ffffffff1660e01b8152600401611ee0929190613f14565b600060405180830381600087803b158015611efa57600080fd5b505af1158015611f0e573d6000803e3d6000fd5b505050506040513d6000823e3d601f19601f82011682018060405250810190611f379190613ab0565b9050600081806020019051810190611f4f9190613b43565b9050600160009054906101000a900473ffffffffffffffffffffffffffffffffffffffff1673ffffffffffffffffffffffffffffffffffffffff1663c23ef031826040518263ffffffff1660e01b8152600401611fac91906140c4565b600060405180830381600087803b158015611fc657600080fd5b505af1158015611fda573d6000803e3d6000fd5b505050506000611ff56004544761371290919063ffffffff16565b905060008167ffffffffffffffff1611156120dc57600560065481548110612046577f4e487b7100000000000000000000000000000000000000000000000000000000600052603260045260246000fd5b9060005260206000200160009054906101000a900473ffffffffffffffffffffffffffffffffffffffff1673ffffffffffffffffffffffffffffffffffffffff166309fecf7f826040518263ffffffff1660e01b81526004016120a991906140df565b600060405180830381600087803b1580156120c357600080fd5b505af11580156120d7573d6000803e3d6000fd5b505050505b8067ffffffffffffffff169450505050506005600d541415612101576000600d819055505b90565b60065481565b600d5481565b730888000000000000000000000000000000000006600160006101000a81548173ffffffffffffffffffffffffffffffffffffffff021916908373ffffffffffffffffffffffffffffffffffffffff1602179055506123286002819055506103e8600381905550683635c9adc5dea00000600481905550565b60008060009054906101000a900473ffffffffffffffffffffffffffffffffffffffff16905090565b600080600160009054906101000a900473ffffffffffffffffffffffffffffffffffffffff1673ffffffffffffffffffffffffffffffffffffffff1663bea05ee3600860009054906101000a900473ffffffffffffffffffffffffffffffffffffffff1660601b6040516024016040516020818303038152906040527f15cc421d000000000000000000000000000000000000000000000000000000007bffffffffffffffffffffffffffffffffffffffffffffffffffffffff19166020820180517bffffffffffffffffffffffffffffffffffffffffffffffffffffffff83818316178352505050506040518363ffffffff1660e01b81526004016122b9929190613f14565b600060405180830381600087803b1580156122d357600080fd5b505af11580156122e7573d6000803e3d6000fd5b505050506040513d6000823e3d601f19601f820116820180604052508101906123109190613ab0565b9050808060200190518101906123269190613b43565b91505090565b60006001600d600082825461234191906141b6565b9250508190555060011515600e60003373ffffffffffffffffffffffffffffffffffffffff1673ffffffffffffffffffffffffffffffffffffffff16815260200190815260200160002060009054906101000a900460ff161515146123db576040517f08c379a00000000000000000000000000000000000000000000000000000000081526004016123d290614004565b60405180910390fd5b6001600d5414612420576040517f08c379a000000000000000000000000000000000000000000000000000000000815260040161241790613fc4565b60405180910390fd5b6000600c5414612465576040517f08c379a000000000000000000000000000000000000000000000000000000000815260040161245c90613fa4565b60405180910390fd5b60006005805490509050600080600080600090505b8481101561264f57600581815481106124bc577f4e487b7100000000000000000000000000000000000000000000000000000000600052603260045260246000fd5b9060005260206000200160009054906101000a900473ffffffffffffffffffffffffffffffffffffffff1693508373ffffffffffffffffffffffffffffffffffffffff1663e73e183b6040518163ffffffff1660e01b815260040160206040518083038186803b15801561252f57600080fd5b505afa158015612543573d6000803e3d6000fd5b505050506040513d601f19601f820116820180604052508101906125679190613b43565b92506000831115612600578373ffffffffffffffffffffffffffffffffffffffff16638270512f6040518163ffffffff1660e01b8152600401602060405180830381600087803b1580156125ba57600080fd5b505af11580156125ce573d6000803e3d6000fd5b505050506040513d601f19601f820116820180604052508101906125f29190613b43565b826125fd91906141b6565b91505b6126366127106126286002546127106126199190614297565b866136fc90919063ffffffff16565b61371290919063ffffffff16565b600c819055508080612647906143c6565b91505061247a565b506000600c5411612695576040517f08c379a000000000000000000000000000000000000000000000000000000000815260040161268c90614084565b60405180910390fd5b600c549450505050506005600d5414156126b2576000600d819055505b90565b6126bd6136f4565b73ffffffffffffffffffffffffffffffffffffffff166126db612189565b73ffffffffffffffffffffffffffffffffffffffff1614612731576040517f08c379a000000000000000000000000000000000000000000000000000000000815260040161272890614044565b60405180910390fd5b60011515600e60003373ffffffffffffffffffffffffffffffffffffffff1673ffffffffffffffffffffffffffffffffffffffff16815260200190815260200160002060009054906101000a900460ff161515146127c4576040517f08c379a00000000000000000000000000000000000000000000000000000000081526004016127bb90614004565b60405180910390fd5b6127cc61232c565b506127d5611b07565b506127de6113c6565b506127e7612e11565b6127ef610c64565b565b6000806005838154811061282e577f4e487b7100000000000000000000000000000000000000000000000000000000600052603260045260246000fd5b9060005260206000200160009054906101000a900473ffffffffffffffffffffffffffffffffffffffff16905060008173ffffffffffffffffffffffffffffffffffffffff1663e73e183b6040518163ffffffff1660e01b815260040160206040518083038186803b1580156128a357600080fd5b505afa1580156128b7573d6000803e3d6000fd5b505050506040513d601f19601f820116820180604052508101906128db9190613b43565b90508092505050919050565b6128ef6136f4565b73ffffffffffffffffffffffffffffffffffffffff1661290d612189565b73ffffffffffffffffffffffffffffffffffffffff1614612963576040517f08c379a000000000000000000000000000000000000000000000000000000000815260040161295a90614044565b60405180910390fd5b6000600580549050905060005b81811015612aa7578373ffffffffffffffffffffffffffffffffffffffff16600582815481106129c9577f4e487b7100000000000000000000000000000000000000000000000000000000600052603260045260246000fd5b9060005260206000200160009054906101000a900473ffffffffffffffffffffffffffffffffffffffff1673ffffffffffffffffffffffffffffffffffffffff161415612a94578260058281548110612a4b577f4e487b7100000000000000000000000000000000000000000000000000000000600052603260045260246000fd5b9060005260206000200160006101000a81548173ffffffffffffffffffffffffffffffffffffffff021916908373ffffffffffffffffffffffffffffffffffffffff1602179055505b8080612a9f906143c6565b915050612970565b50505050565b612ab56136f4565b73ffffffffffffffffffffffffffffffffffffffff16612ad3612189565b73ffffffffffffffffffffffffffffffffffffffff1614612b29576040517f08c379a0000000000000000000000000000000000000000000000000000000008152600401612b2090614044565b60405180910390fd5b80600c8190555050565b612b3b6136f4565b73ffffffffffffffffffffffffffffffffffffffff16612b59612189565b73ffffffffffffffffffffffffffffffffffffffff1614612baf576040517f08c379a0000000000000000000000000000000000000000000000000000000008152600401612ba690614044565b60405180910390fd5b80600960006101000a81548173ffffffffffffffffffffffffffffffffffffffff021916908373ffffffffffffffffffffffffffffffffffffffff16021790555050565b612bfb6136f4565b73ffffffffffffffffffffffffffffffffffffffff16612c19612189565b73ffffffffffffffffffffffffffffffffffffffff1614612c6f576040517f08c379a0000000000000000000000000000000000000000000000000000000008152600401612c6690614044565b60405180910390fd5b80600e60008473ffffffffffffffffffffffffffffffffffffffff1673ffffffffffffffffffffffffffffffffffffffff16815260200190815260200160002060006101000a81548160ff0219169083151502179055505050565b600960009054906101000a900473ffffffffffffffffffffffffffffffffffffffff1681565b600b60009054906101000a900473ffffffffffffffffffffffffffffffffffffffff1681565b600c5481565b612d246136f4565b73ffffffffffffffffffffffffffffffffffffffff16612d42612189565b73ffffffffffffffffffffffffffffffffffffffff1614612d98576040517f08c379a0000000000000000000000000000000000000000000000000000000008152600401612d8f90614044565b60405180910390fd5b60008167ffffffffffffffff16118015612dbe57506127108167ffffffffffffffff1611155b612dfd576040517f08c379a0000000000000000000000000000000000000000000000000000000008152600401612df490614064565b60405180910390fd5b8067ffffffffffffffff1660028190555050565b6001600d6000828254612e2491906141b6565b9250508190555060011515600e60003373ffffffffffffffffffffffffffffffffffffffff1673ffffffffffffffffffffffffffffffffffffffff16815260200190815260200160002060009054906101000a900460ff16151514612ebe576040517f08c379a0000000000000000000000000000000000000000000000000000000008152600401612eb590614004565b60405180910390fd5b6004600d5414612f03576040517f08c379a0000000000000000000000000000000000000000000000000000000008152600401612efa90613f64565b60405180910390fd5b6000612f0d6110f4565b90506000811415612f1e5750613459565b611388811115612f2e5761138890505b6000600560065481548110612f6c577f4e487b7100000000000000000000000000000000000000000000000000000000600052603260045260246000fd5b9060005260206000200160009054906101000a900473ffffffffffffffffffffffffffffffffffffffff16905060008173ffffffffffffffffffffffffffffffffffffffff16637571fcf66040518163ffffffff1660e01b815260040160e06040518083038186803b158015612fe157600080fd5b505afa158015612ff5573d6000803e3d6000fd5b505050506040513d601f19601f820116820180604052508101906130199190613af1565b9050600081600001519050606060008083141561303b57505050505050613459565b60005b8681101561335c57600160009054906101000a900473ffffffffffffffffffffffffffffffffffffffff1673ffffffffffffffffffffffffffffffffffffffff1663bea05ee3600860009054906101000a900473ffffffffffffffffffffffffffffffffffffffff1660601b6040516024016040516020818303038152906040527f09fcd230000000000000000000000000000000000000000000000000000000007bffffffffffffffffffffffffffffffffffffffffffffffffffffffff19166020820180517bffffffffffffffffffffffffffffffffffffffffffffffffffffffff83818316178352505050506040518363ffffffff1660e01b815260040161314a929190613f14565b600060405180830381600087803b15801561316457600080fd5b505af1158015613178573d6000803e3d6000fd5b505050506040513d6000823e3d601f19601f820116820180604052508101906131a19190613ab0565b9250828060200190518101906131b79190613b43565b915060008214156131c75761335c565b838211156131d45761335c565b81600f60008282546131e691906141b6565b92505081905550600160009054906101000a900473ffffffffffffffffffffffffffffffffffffffff1673ffffffffffffffffffffffffffffffffffffffff1663bea05ee3600860009054906101000a900473ffffffffffffffffffffffffffffffffffffffff1660601b6040516024016040516020818303038152906040527f84981986000000000000000000000000000000000000000000000000000000007bffffffffffffffffffffffffffffffffffffffffffffffffffffffff19166020820180517bffffffffffffffffffffffffffffffffffffffffffffffffffffffff83818316178352505050506040518363ffffffff1660e01b81526004016132f1929190613f14565b600060405180830381600087803b15801561330b57600080fd5b505af115801561331f573d6000803e3d6000fd5b505050506040513d6000823e3d601f19601f820116820180604052508101906133489190613ab0565b508080613354906143c6565b91505061303e565b50600454600f541115613452578473ffffffffffffffffffffffffffffffffffffffff1663beb99c1e61339c600454600f5461371290919063ffffffff16565b6040518263ffffffff1660e01b81526004016133b891906140df565b600060405180830381600087803b1580156133d257600080fd5b505af11580156133e6573d6000803e3d6000fd5b50505050613401600454600f5461371290919063ffffffff16565b8361340c9190614297565b925061343960045461342b600454600f5461371290919063ffffffff16565b6136fc90919063ffffffff16565b600f600082825461344a9190614297565b925050819055505b5050505050505b6005600d54141561346d576000600d819055505b565b6005818154811061347f57600080fd5b906000526020600020016000915054906101000a900473ffffffffffffffffffffffffffffffffffffffff1681565b6134b66136f4565b73ffffffffffffffffffffffffffffffffffffffff166134d4612189565b73ffffffffffffffffffffffffffffffffffffffff161461352a576040517f08c379a000000000000000000000000000000000000000000000000000000000815260040161352190614044565b60405180910390fd5b80600760006101000a81548173ffffffffffffffffffffffffffffffffffffffff021916908373ffffffffffffffffffffffffffffffffffffffff16021790555050565b6135766136f4565b73ffffffffffffffffffffffffffffffffffffffff16613594612189565b73ffffffffffffffffffffffffffffffffffffffff16146135ea576040517f08c379a00000000000000000000000000000000000000000000000000000000081526004016135e190614044565b60405180910390fd5b600073ffffffffffffffffffffffffffffffffffffffff168173ffffffffffffffffffffffffffffffffffffffff16141561365a576040517f08c379a000000000000000000000000000000000000000000000000000000000815260040161365190613f44565b60405180910390fd5b61366381613728565b50565b606060058054806020026020016040519081016040528092919081815260200182805480156136ea57602002820191906000526020600020905b8160009054906101000a900473ffffffffffffffffffffffffffffffffffffffff1673ffffffffffffffffffffffffffffffffffffffff16815260200190600101908083116136a0575b5050505050905090565b600033905090565b6000818361370a919061423d565b905092915050565b60008183613720919061420c565b905092915050565b60008060009054906101000a900473ffffffffffffffffffffffffffffffffffffffff169050816000806101000a81548173ffffffffffffffffffffffffffffffffffffffff021916908373ffffffffffffffffffffffffffffffffffffffff1602179055508173ffffffffffffffffffffffffffffffffffffffff168173ffffffffffffffffffffffffffffffffffffffff167f8be0079c531659141344cd1fd0a4f28419497f9722a3daafe3b4186f6b6457e060405160405180910390a35050565b60006137ff6137fa8461411f565b6140fa565b90508281526020810184848401111561381757600080fd5b613822848285614362565b509392505050565b6000813590506138398161477d565b92915050565b60008135905061384e81614794565b92915050565b60008083601f84011261386657600080fd5b8235905067ffffffffffffffff81111561387f57600080fd5b60208301915083600182028301111561389757600080fd5b9250929050565b600082601f8301126138af57600080fd5b81516138bf8482602086016137ec565b91505092915050565b600060e082840312156138da57600080fd5b6138e460e06140fa565b905060006138f48482850161398d565b60008301525060206139088482850161398d565b602083015250604061391c8482850161398d565b60408301525060606139308482850161398d565b60608301525060806139448482850161398d565b60808301525060a06139588482850161398d565b60a08301525060c061396c8482850161398d565b60c08301525092915050565b600081359050613987816147ab565b92915050565b60008151905061399c816147ab565b92915050565b6000813590506139b1816147c2565b92915050565b6000602082840312156139c957600080fd5b60006139d78482850161382a565b91505092915050565b600080604083850312156139f357600080fd5b6000613a018582860161382a565b9250506020613a128582860161382a565b9150509250929050565b60008060408385031215613a2f57600080fd5b6000613a3d8582860161382a565b9250506020613a4e8582860161383f565b9150509250929050565b600080600060408486031215613a6d57600080fd5b6000613a7b8682870161382a565b935050602084013567ffffffffffffffff811115613a9857600080fd5b613aa486828701613854565b92509250509250925092565b600060208284031215613ac257600080fd5b600082015167ffffffffffffffff811115613adc57600080fd5b613ae88482850161389e565b91505092915050565b600060e08284031215613b0357600080fd5b6000613b11848285016138c8565b91505092915050565b600060208284031215613b2c57600080fd5b6000613b3a84828501613978565b91505092915050565b600060208284031215613b5557600080fd5b6000613b638482850161398d565b91505092915050565b600060208284031215613b7e57600080fd5b6000613b8c848285016139a2565b91505092915050565b6000613ba18383613bad565b60208301905092915050565b613bb6816142cb565b82525050565b613bc5816142cb565b82525050565b6000613bd682614160565b613be08185614183565b9350613beb83614150565b8060005b83811015613c1c578151613c038882613b95565b9750613c0e83614176565b925050600181019050613bef565b5085935050505092915050565b613c32816142dd565b82525050565b613c41816142e9565b82525050565b6000613c538385614194565b9350613c60838584614353565b613c698361449c565b840190509392505050565b6000613c7f8261416b565b613c898185614194565b9350613c99818560208601614362565b613ca28161449c565b840191505092915050565b6000613cba6026836141a5565b9150613cc5826144ad565b604082019050919050565b6000613cdd6022836141a5565b9150613ce8826144fc565b604082019050919050565b6000613d006022836141a5565b9150613d0b8261454b565b604082019050919050565b6000613d23601f836141a5565b9150613d2e8261459a565b602082019050919050565b6000613d466022836141a5565b9150613d51826145c3565b604082019050919050565b6000613d696022836141a5565b9150613d7482614612565b604082019050919050565b6000613d8c6017836141a5565b9150613d9782614661565b602082019050919050565b6000613daf6022836141a5565b9150613dba8261468a565b604082019050919050565b6000613dd26020836141a5565b9150613ddd826146d9565b602082019050919050565b6000613df56017836141a5565b9150613e0082614702565b602082019050919050565b6000613e18601d836141a5565b9150613e238261472b565b602082019050919050565b6000613e3b601e836141a5565b9150613e4682614754565b602082019050919050565b613e5a81614335565b82525050565b613e698161433f565b82525050565b6000602082019050613e846000830184613bbc565b92915050565b60006020820190508181036000830152613ea48184613bcb565b905092915050565b6000602082019050613ec16000830184613c29565b92915050565b6000602082019050613edc6000830184613c38565b92915050565b6000604082019050613ef76000830186613c38565b8181036020830152613f0a818486613c47565b9050949350505050565b6000604082019050613f296000830185613c38565b8181036020830152613f3b8184613c74565b90509392505050565b60006020820190508181036000830152613f5d81613cad565b9050919050565b60006020820190508181036000830152613f7d81613cd0565b9050919050565b60006020820190508181036000830152613f9d81613cf3565b9050919050565b60006020820190508181036000830152613fbd81613d16565b9050919050565b60006020820190508181036000830152613fdd81613d39565b9050919050565b60006020820190508181036000830152613ffd81613d5c565b9050919050565b6000602082019050818103600083015261401d81613d7f565b9050919050565b6000602082019050818103600083015261403d81613da2565b9050919050565b6000602082019050818103600083015261405d81613dc5565b9050919050565b6000602082019050818103600083015261407d81613de8565b9050919050565b6000602082019050818103600083015261409d81613e0b565b9050919050565b600060208201905081810360008301526140bd81613e2e565b9050919050565b60006020820190506140d96000830184613e51565b92915050565b60006020820190506140f46000830184613e60565b92915050565b6000614104614115565b90506141108282614395565b919050565b6000604051905090565b600067ffffffffffffffff82111561413a5761413961446d565b5b6141438261449c565b9050602081019050919050565b6000819050602082019050919050565b600081519050919050565b600081519050919050565b6000602082019050919050565b600082825260208201905092915050565b600082825260208201905092915050565b600082825260208201905092915050565b60006141c182614335565b91506141cc83614335565b9250827fffffffffffffffffffffffffffffffffffffffffffffffffffffffffffffffff038211156142015761420061440f565b5b828201905092915050565b600061421782614335565b915061422283614335565b9250826142325761423161443e565b5b828204905092915050565b600061424882614335565b915061425383614335565b9250817fffffffffffffffffffffffffffffffffffffffffffffffffffffffffffffffff048311821515161561428c5761428b61440f565b5b828202905092915050565b60006142a282614335565b91506142ad83614335565b9250828210156142c0576142bf61440f565b5b828203905092915050565b60006142d682614315565b9050919050565b60008115159050919050565b60007fffffffffffffffffffffffffffffffffffffffff00000000000000000000000082169050919050565b600073ffffffffffffffffffffffffffffffffffffffff82169050919050565b6000819050919050565b600067ffffffffffffffff82169050919050565b82818337600083830152505050565b60005b83811015614380578082015181840152602081019050614365565b8381111561438f576000848401525b50505050565b61439e8261449c565b810181811067ffffffffffffffff821117156143bd576143bc61446d565b5b80604052505050565b60006143d182614335565b91507fffffffffffffffffffffffffffffffffffffffffffffffffffffffffffffffff8214156144045761440361440f565b5b600182019050919050565b7f4e487b7100000000000000000000000000000000000000000000000000000000600052601160045260246000fd5b7f4e487b7100000000000000000000000000000000000000000000000000000000600052601260045260246000fd5b7f4e487b7100000000000000000000000000000000000000000000000000000000600052604160045260246000fd5b6000601f19601f8301169050919050565b7f4f776e61626c653a206e6577206f776e657220697320746865207a65726f206160008201527f6464726573730000000000000000000000000000000000000000000000000000602082015250565b7f6964656e746966696572206973206e6f742072696768742c206e65656420626560008201527f2034000000000000000000000000000000000000000000000000000000000000602082015250565b7f6964656e746966696572206973206e6f742072696768742c206e65656420626560008201527f2035000000000000000000000000000000000000000000000000000000000000602082015250565b7f73797374656d5f636678696e74657265737473206e6f7420636c65616e656400600082015250565b7f6964656e746966696572206973206e6f742072696768742c206e65656420626560008201527f2031000000000000000000000000000000000000000000000000000000000000602082015250565b7f6964656e746966696572206973206e6f742072696768742c206e65656420626560008201527f2033000000000000000000000000000000000000000000000000000000000000602082015250565b7f74726967657273206d7573742062652074727573746564000000000000000000600082015250565b7f6964656e746966696572206973206e6f742072696768742c206e65656420626560008201527f2032000000000000000000000000000000000000000000000000000000000000602082015250565b7f4f776e61626c653a2063616c6c6572206973206e6f7420746865206f776e6572600082015250565b7f726174696f2073686f756c6420626520312d3130303030000000000000000000600082015250565b7f696e7465726573747320696e20616c6c20706f6f6c206973207a65726f000000600082015250565b7f73797374656d5f636678696e7465726573747320697320636c65616e65640000600082015250565b614786816142cb565b811461479157600080fd5b50565b61479d816142dd565b81146147a857600080fd5b50565b6147b481614335565b81146147bf57600080fd5b50565b6147cb8161433f565b81146147d657600080fd5b5056fea2646970667358221220e9d3005bbe548ac317ece8b1f281ee5d2c9a60aaae5e2305536bc4a1ea036cb064736f6c63430008020033",
  "immutableReferences": {},
  "source": "//SPDX-License-Identifier: BUSL-1.1\r\npragma solidity ^0.8.0;\r\nimport \"@openzeppelin/contracts/utils/math/SafeMath.sol\";\r\nimport \"@openzeppelin/contracts/access/Ownable.sol\";\r\nimport \"@openzeppelin/contracts/token/ERC20/IERC20.sol\";\r\nimport \"../ICrossSpaceCall.sol\";\r\nimport \"../IExchange.sol\";\r\n///\r\n///  @title CoreBridge_multipool is a bridge to connect Conflux POS pools and Exchange rooms ,deployed in core;\r\n///  @dev This contract set the user share ratio, system share ratio, \r\n///  @dev compound the interests\r\n///  @notice Users cann't direct use this contract to participate Conflux PoS stake.\r\n///\r\ncontract CoreBridge_multipool is Ownable {\r\n  using SafeMath for uint256;\r\n  CrossSpaceCall internal crossSpaceCall;\r\n\r\n  uint256 private constant RATIO_BASE = 10000;\r\n  // ratio shared by user: 1-10000\r\n  uint256 public poolUserShareRatio = 9000;\r\n  uint256 CFX_COUNT_OF_ONE_VOTE = 1000;\r\n  uint256 CFX_VALUE_OF_ONE_VOTE = 1000 ether;\r\n\r\n  address[] public poolAddress;               // can use many pools, so here is an array\r\n  uint256   public pos_id_in_use;             // pos pool in use\r\n  //eSpace address\r\n  address   public xCFXAddress;               // xCFX addr in espace \r\n  address   public eSpaceExroomAddress;       //Exchange room Address in espace\r\n  address   public bridge_eSpaceAddress;       //address of bridge in espace\r\n  //Core Space address\r\n  address   public CoreExroomAddress;         //Exchange room Address in core\r\n  address   public ServicetreasuryAddress;    //Service treasury Address in core\r\n  uint256   public system_cfxinterests_temp; //pools cfx interests in temporary\r\n  //\r\n  uint256   public identifier;                //Execution number , should be private when use in main net\r\n  mapping(address=>bool) trusted_node_trigers;//     \r\n  // ======================== Struct definitions =========================\r\n  struct PoolSummary {\r\n    uint256 xCFXSUM;             // xCFX SUM (1 ether xCFX === 1 e18)\r\n    uint256 totalInterest;       // PoS pool interests for all xCFX\r\n    uint256 CFXbalances;         // CFX balances in bridge\r\n    uint256 historical_Interest ;// total historical interest of whole pools\r\n  }\r\n\r\n  constructor () {\r\n    initialize();\r\n  }\r\n  // ======================== Modifiers =========================\r\n\r\n  modifier Only_in_order() {\r\n    identifier += 1;\r\n    _;\r\n    if(identifier==5) identifier = 0;\r\n  }\r\n  modifier Only_trusted_trigers() {\r\n    require(trusted_node_trigers[msg.sender]==true,'trigers must be trusted');\r\n    _;\r\n  }\r\n  // ======================== Methods for core pos pools settings =========================\r\n\r\n  function initialize() public {\r\n    crossSpaceCall = CrossSpaceCall(0x0888000000000000000000000000000000000006);\r\n    poolUserShareRatio = 9000;\r\n    CFX_COUNT_OF_ONE_VOTE = 1000;\r\n    CFX_VALUE_OF_ONE_VOTE = 1000 ether;\r\n  }\r\n\r\n  function addPoolAddress(address _poolAddress) public onlyOwner {\r\n    poolAddress.push(_poolAddress);\r\n  }\r\n\r\n  function changePoolAddress(address _oldpoolAddress,address _newpoolAddress) public onlyOwner {\r\n    uint256 pool_sum = poolAddress.length;\r\n    for(uint256 i=0;i<pool_sum;i++)\r\n    {\r\n        if(poolAddress[i]==_oldpoolAddress)\r\n        {\r\n            poolAddress[i]=_newpoolAddress;\r\n        }\r\n    }\r\n  }\r\n  function delePoolAddress(address _oldpoolAddress) public onlyOwner {\r\n    uint256 pool_sum = poolAddress.length;\r\n    for(uint256 i=0;i<pool_sum;i++)\r\n    {\r\n        if(poolAddress[i]==_oldpoolAddress)\r\n        {\r\n            poolAddress[i]= poolAddress[pool_sum-1];\r\n            poolAddress.pop();\r\n        }\r\n    }\r\n  }\r\n\r\n  function seteSpaceExroomAddress(address _eSpaceExroomAddress) public onlyOwner {\r\n    eSpaceExroomAddress = _eSpaceExroomAddress;\r\n  }\r\n  function seteSpacexCFXAddress(address _eSpacexCFXaddr) public onlyOwner {\r\n    xCFXAddress = _eSpacexCFXaddr;\r\n  }\r\n  function seteSpacebridgeAddress(address _bridge_eSpaceAddress) public onlyOwner {\r\n    bridge_eSpaceAddress = _bridge_eSpaceAddress;\r\n  }\r\n  function settrusted_trigers(address _Address,bool state) public onlyOwner {\r\n    trusted_node_trigers[_Address] = state;\r\n  }\r\n\r\n  function get_triger_state(address _Address) public view onlyOwner returns(bool){\r\n    return trusted_node_trigers[_Address];\r\n  }\r\n  function getPoolAddress() public view returns (address[] memory ) {\r\n    return poolAddress;\r\n  }\r\n\r\n  /// @param count Vote cfx count, unit is cfx\r\n  function _setCfxCountOfOneVote(uint256 count) public onlyOwner {\r\n    CFX_COUNT_OF_ONE_VOTE = count;\r\n    CFX_VALUE_OF_ONE_VOTE = count * 1 ether;\r\n  }\r\n\r\n  function setPoolUserShareRatio(uint64 ratio) public onlyOwner {\r\n    require(ratio > 0 && ratio <= RATIO_BASE, \"ratio should be 1-10000\");\r\n    poolUserShareRatio = ratio;\r\n  }\r\n\r\n  //-----------------espace method-------------------------------------------------------------------------------------\r\n\r\n  function queryespacexCFXincrease() public returns (uint256) {\r\n    bytes memory rawCrossingVotes = crossSpaceCall.callEVM(bytes20(eSpaceExroomAddress), abi.encodeWithSignature(\"crossingVotes()\"));\r\n    return abi.decode(rawCrossingVotes, (uint256));\r\n  }\r\n\r\n  function queryUnstakeLen() public returns (uint256) {\r\n    bytes memory rawUnstakeLen = crossSpaceCall.callEVM(bytes20(eSpaceExroomAddress), abi.encodeWithSignature(\"unstakeLen()\"));\r\n    return abi.decode(rawUnstakeLen, (uint256));\r\n  }\r\n\r\n  //-----------------core pool method-------------------------------------------------------------------------------------\r\n  function queryInterest(uint256 _num) public view returns (uint256) {\r\n    IExchange posPool = IExchange(poolAddress[_num]);\r\n    uint256 interest = posPool.temp_Interest();\r\n    return interest;\r\n  }\r\n\r\n  //-----------------bridge method-------------------------------------------------------------------------------------\r\n  function syncALLwork() public onlyOwner Only_trusted_trigers {\r\n    claimInterests();\r\n\r\n    campounds();\r\n    SyncValue();\r\n\r\n    handleUnstake();\r\n    withdrawVotes();\r\n  }\r\n\r\n  function claimInterests() public Only_in_order Only_trusted_trigers returns(uint256){\r\n    require(identifier==1,\"identifier is not right, need be 1\");\r\n    require(system_cfxinterests_temp==0,'system_cfxinterests not cleaned');\r\n    uint256 pool_sum = poolAddress.length;\r\n    IExchange posPool;\r\n    uint256 interest;\r\n    uint256 allinterest;\r\n    for(uint256 i=0;i<pool_sum;i++)\r\n    {\r\n      posPool = IExchange(poolAddress[i]);\r\n      interest = posPool.temp_Interest();\r\n      if (interest > 0) {\r\n        allinterest += posPool.claimAllInterest(); \r\n      }\r\n      system_cfxinterests_temp = interest.mul(RATIO_BASE-poolUserShareRatio).div(RATIO_BASE);\r\n    }\r\n    require(system_cfxinterests_temp > 0,\"interests in all pool is zero\");\r\n    return system_cfxinterests_temp;\r\n  }\r\n  function campounds() public Only_in_order Only_trusted_trigers  returns(uint256){\r\n    require(identifier==2,\"identifier is not right, need be 2\");\r\n    require(system_cfxinterests_temp!=0,'system_cfxinterests is cleaned');\r\n    uint256 toxCFX = system_cfxinterests_temp;\r\n    system_cfxinterests_temp = 0;\r\n    crossSpaceCall.callEVM{value: toxCFX}(bytes20(eSpaceExroomAddress), abi.encodeWithSignature(\"CFX_exchange_XCFX()\"));\r\n    bytes memory rawbalance = crossSpaceCall.callEVM(bytes20(eSpaceExroomAddress), abi.encodeWithSignature(\"espacebalanceof(address)\", bridge_eSpaceAddress));\r\n    uint256 balanceinpool =  abi.decode(rawbalance, (uint256));\r\n    crossSpaceCall.withdrawFromMapped(balanceinpool);\r\n    uint64 votePower = uint64(address(this).balance.div(CFX_VALUE_OF_ONE_VOTE));\r\n    if (votePower > 0){\r\n      IExchange(poolAddress[pos_id_in_use]).increaseStake(votePower);\r\n    }\r\n    return votePower;\r\n  }\r\n\r\n  function SyncValue() public Only_in_order Only_trusted_trigers returns(uint256){\r\n    require(identifier==3,\"identifier is not right, need be 3\");\r\n    \r\n    bytes memory rawsum = crossSpaceCall.callEVM(bytes20(xCFXAddress), abi.encodeWithSignature(\"totalSupply()\"));\r\n    uint256 sum = abi.decode(rawsum, (uint256));\r\n    uint256 balanceinbridge =  address(this).balance;\r\n    uint256 pool_sum = poolAddress.length;\r\n    uint256 poolvotes_sum;\r\n    for(uint256 i=0;i<pool_sum;i++)\r\n    {\r\n        poolvotes_sum += IExchange(poolAddress[i]).poolSummary().totalvotes;\r\n    }\r\n    uint256 xCFXvalues =((balanceinbridge+poolvotes_sum.mul(CFX_VALUE_OF_ONE_VOTE)) * 1 ether ).div(sum);\r\n    crossSpaceCall.callEVM(bytes20(eSpaceExroomAddress), abi.encodeWithSignature(\"setxCFXValue(uint256)\", xCFXvalues));\r\n    return xCFXvalues;\r\n  }\r\n  uint256 Unstakebalanceinbridge;\r\n  function handleUnstake() public Only_in_order Only_trusted_trigers {\r\n    require(identifier==4,\"identifier is not right, need be 4\");\r\n    uint256 unstakeLen = queryUnstakeLen();\r\n    if (unstakeLen == 0) return;\r\n    if (unstakeLen > 5000) unstakeLen = 5000; // max 1000 unstakes per call\r\n    IExchange posPool = IExchange(poolAddress[pos_id_in_use]);\r\n    IExchange.PoolSummary memory poolSummary = posPool.poolSummary();\r\n    uint256 available = poolSummary.totalvotes;\r\n    bytes memory rawFirstUnstakeVotes ;\r\n    uint256 firstUnstakeVotes;\r\n    if (available == 0) return;\r\n    for(uint256 i = 0; i < unstakeLen; i++) {\r\n      rawFirstUnstakeVotes = crossSpaceCall.callEVM(bytes20(eSpaceExroomAddress), abi.encodeWithSignature(\"firstUnstakeVotes()\"));\r\n      firstUnstakeVotes = abi.decode(rawFirstUnstakeVotes, (uint256));\r\n      if (firstUnstakeVotes == 0) break;\r\n      if (firstUnstakeVotes > available) break;\r\n      Unstakebalanceinbridge += firstUnstakeVotes;\r\n\r\n      //posPool.decreaseStake(uint64(firstUnstakeVotes));\r\n      crossSpaceCall.callEVM(bytes20(eSpaceExroomAddress), abi.encodeWithSignature(\"handleUnstakeTask()\"));\r\n      //available -= firstUnstakeVotes;\r\n    }\r\n    if(Unstakebalanceinbridge > CFX_VALUE_OF_ONE_VOTE){\r\n      posPool.decreaseStake(uint64(Unstakebalanceinbridge.div(CFX_VALUE_OF_ONE_VOTE)));\r\n      available -= Unstakebalanceinbridge.div(CFX_VALUE_OF_ONE_VOTE);\r\n      Unstakebalanceinbridge -= Unstakebalanceinbridge.div(CFX_VALUE_OF_ONE_VOTE).mul(CFX_VALUE_OF_ONE_VOTE);\r\n    }\r\n  }\r\n\r\n  function withdrawVotes() public Only_in_order Only_trusted_trigers {\r\n    require(identifier==5,\"identifier is not right, need be 5\");\r\n    uint256 pool_sum = poolAddress.length;\r\n    IExchange posPool;\r\n    uint256 temp_unlocked;\r\n    uint256 transferValue;\r\n    for(uint256 i=0;i<pool_sum;i++)\r\n    {\r\n      posPool = IExchange(poolAddress[i]);\r\n      IExchange.PoolSummary memory poolSummary = posPool.poolSummary();\r\n      temp_unlocked = poolSummary.unlocked;\r\n      if (temp_unlocked > 0) \r\n      {\r\n        posPool.withdrawStake();\r\n        // transfer to eSpacePool and call method\r\n        transferValue = temp_unlocked * 1000 ether;\r\n        crossSpaceCall.transferEVM{value: transferValue}(bytes20(eSpaceExroomAddress));\r\n        // crossSpaceCall.callEVM{value: transferValue}(ePoolAddrB20(), abi.encodeWithSignature(\"handleUnlockedIncrease(uint256)\", userSummary.unlocked));\r\n      }\r\n    }\r\n  }\r\n\r\n  function callEVM(address addr, bytes calldata data) public Only_trusted_trigers {\r\n    crossSpaceCall.callEVM(bytes20(addr), data);\r\n  }\r\n\r\n  fallback() external payable {}\r\n  receive() external payable {}\r\n\r\n  //--------------------------------------temp-----------------------------------------------\r\n   function identifier_test(uint256 _identifier) public onlyOwner {identifier=_identifier; }\r\n   function system_cfxinterests_temp_set(uint256 _i) public onlyOwner {system_cfxinterests_temp=_i; }\r\n  \r\n}",
  "sourcePath": "C:/Users/artii/Conflux Studio/minpos/contracts/eSpace/CoreBridge_multipool.sol",
  "compiler": {
    "name": "solc",
    "version": "0.8.2+commit.661d1103.Emscripten.clang"
  },
  "schemaVersion": "3.3.4",
  "updatedAt": "2022-08-25T12:08:28.621Z",
  "devdoc": {
    "details": "This contract set the user share ratio, system share ratio, compound the interests",
    "kind": "dev",
    "methods": {
      "_setCfxCountOfOneVote(uint256)": {
        "params": {
          "count": "Vote cfx count, unit is cfx"
        }
      },
      "owner()": {
        "details": "Returns the address of the current owner."
      },
      "renounceOwnership()": {
        "details": "Leaves the contract without owner. It will not be possible to call `onlyOwner` functions anymore. Can only be called by the current owner. NOTE: Renouncing ownership will leave the contract without an owner, thereby removing any functionality that is only available to the owner."
      },
      "transferOwnership(address)": {
        "details": "Transfers ownership of the contract to a new account (`newOwner`). Can only be called by the current owner."
      }
    },
    "title": "CoreBridge_multipool is a bridge to connect Conflux POS pools and Exchange rooms ,deployed in core;",
    "version": 1
  },
  "userdoc": {
    "kind": "user",
    "methods": {},
    "notice": "Users cann't direct use this contract to participate Conflux PoS stake.",
    "version": 1
  }
}