{
  "contractName": "CoreBridge_multipool",
  "abi": [
    {
      "inputs": [],
      "stateMutability": "nonpayable",
      "type": "constructor"
    },
    {
      "anonymous": false,
      "inputs": [
        {
          "indexed": true,
          "internalType": "address",
          "name": "previousOwner",
          "type": "address"
        },
        {
          "indexed": true,
          "internalType": "address",
          "name": "newOwner",
          "type": "address"
        }
      ],
      "name": "OwnershipTransferred",
      "type": "event"
    },
    {
      "stateMutability": "payable",
      "type": "fallback"
    },
    {
      "inputs": [],
      "name": "CoreExroomAddress",
      "outputs": [
        {
          "internalType": "address",
          "name": "",
          "type": "address"
        }
      ],
      "stateMutability": "view",
      "type": "function"
    },
    {
      "inputs": [],
      "name": "ServicetreasuryAddress",
      "outputs": [
        {
          "internalType": "address",
          "name": "",
          "type": "address"
        }
      ],
      "stateMutability": "view",
      "type": "function"
    },
    {
      "inputs": [],
      "name": "bridge_eSpaceAddress",
      "outputs": [
        {
          "internalType": "address",
          "name": "",
          "type": "address"
        }
      ],
      "stateMutability": "view",
      "type": "function"
    },
    {
      "inputs": [],
      "name": "eSpaceExroomAddress",
      "outputs": [
        {
          "internalType": "address",
          "name": "",
          "type": "address"
        }
      ],
      "stateMutability": "view",
      "type": "function"
    },
    {
      "inputs": [],
      "name": "identifier",
      "outputs": [
        {
          "internalType": "uint256",
          "name": "",
          "type": "uint256"
        }
      ],
      "stateMutability": "view",
      "type": "function"
    },
    {
      "inputs": [],
      "name": "owner",
      "outputs": [
        {
          "internalType": "address",
          "name": "",
          "type": "address"
        }
      ],
      "stateMutability": "view",
      "type": "function"
    },
    {
      "inputs": [
        {
          "internalType": "uint256",
          "name": "",
          "type": "uint256"
        }
      ],
      "name": "poolAddress",
      "outputs": [
        {
          "internalType": "address",
          "name": "",
          "type": "address"
        }
      ],
      "stateMutability": "view",
      "type": "function"
    },
    {
      "inputs": [],
      "name": "poolUserShareRatio",
      "outputs": [
        {
          "internalType": "uint256",
          "name": "",
          "type": "uint256"
        }
      ],
      "stateMutability": "view",
      "type": "function"
    },
    {
      "inputs": [],
      "name": "pos_id_in_use",
      "outputs": [
        {
          "internalType": "uint256",
          "name": "",
          "type": "uint256"
        }
      ],
      "stateMutability": "view",
      "type": "function"
    },
    {
      "inputs": [],
      "name": "renounceOwnership",
      "outputs": [],
      "stateMutability": "nonpayable",
      "type": "function"
    },
    {
      "inputs": [],
      "name": "system_cfxinterests_temp",
      "outputs": [
        {
          "internalType": "uint256",
          "name": "",
          "type": "uint256"
        }
      ],
      "stateMutability": "view",
      "type": "function"
    },
    {
      "inputs": [
        {
          "internalType": "address",
          "name": "newOwner",
          "type": "address"
        }
      ],
      "name": "transferOwnership",
      "outputs": [],
      "stateMutability": "nonpayable",
      "type": "function"
    },
    {
      "inputs": [],
      "name": "xCFXAddress",
      "outputs": [
        {
          "internalType": "address",
          "name": "",
          "type": "address"
        }
      ],
      "stateMutability": "view",
      "type": "function"
    },
    {
      "stateMutability": "payable",
      "type": "receive"
    },
    {
      "inputs": [],
      "name": "initialize",
      "outputs": [],
      "stateMutability": "nonpayable",
      "type": "function"
    },
    {
      "inputs": [
        {
          "internalType": "address",
          "name": "_poolAddress",
          "type": "address"
        }
      ],
      "name": "addPoolAddress",
      "outputs": [],
      "stateMutability": "nonpayable",
      "type": "function"
    },
    {
      "inputs": [
        {
          "internalType": "address",
          "name": "_oldpoolAddress",
          "type": "address"
        },
        {
          "internalType": "address",
          "name": "_newpoolAddress",
          "type": "address"
        }
      ],
      "name": "changePoolAddress",
      "outputs": [],
      "stateMutability": "nonpayable",
      "type": "function"
    },
    {
      "inputs": [
        {
          "internalType": "address",
          "name": "_oldpoolAddress",
          "type": "address"
        }
      ],
      "name": "delePoolAddress",
      "outputs": [],
      "stateMutability": "nonpayable",
      "type": "function"
    },
    {
      "inputs": [
        {
          "internalType": "address",
          "name": "_eSpaceExroomAddress",
          "type": "address"
        }
      ],
      "name": "seteSpaceExroomAddress",
      "outputs": [],
      "stateMutability": "nonpayable",
      "type": "function"
    },
    {
      "inputs": [
        {
          "internalType": "address",
          "name": "_Address",
          "type": "address"
        },
        {
          "internalType": "bool",
          "name": "state",
          "type": "bool"
        }
      ],
      "name": "settrusted_trigers",
      "outputs": [],
      "stateMutability": "nonpayable",
      "type": "function"
    },
    {
      "inputs": [
        {
          "internalType": "address",
          "name": "_Address",
          "type": "address"
        }
      ],
      "name": "get_triger_state",
      "outputs": [
        {
          "internalType": "bool",
          "name": "",
          "type": "bool"
        }
      ],
      "stateMutability": "view",
      "type": "function"
    },
    {
      "inputs": [],
      "name": "getPoolAddress",
      "outputs": [
        {
          "internalType": "address[]",
          "name": "",
          "type": "address[]"
        }
      ],
      "stateMutability": "view",
      "type": "function"
    },
    {
      "inputs": [],
      "name": "queryespacexCFXincrease",
      "outputs": [
        {
          "internalType": "uint256",
          "name": "",
          "type": "uint256"
        }
      ],
      "stateMutability": "nonpayable",
      "type": "function"
    },
    {
      "inputs": [],
      "name": "queryUnstakeLen",
      "outputs": [
        {
          "internalType": "uint256",
          "name": "",
          "type": "uint256"
        }
      ],
      "stateMutability": "nonpayable",
      "type": "function"
    },
    {
      "inputs": [
        {
          "internalType": "uint256",
          "name": "_num",
          "type": "uint256"
        }
      ],
      "name": "queryInterest",
      "outputs": [
        {
          "internalType": "uint256",
          "name": "",
          "type": "uint256"
        }
      ],
      "stateMutability": "view",
      "type": "function"
    },
    {
      "inputs": [],
      "name": "syncALLwork",
      "outputs": [],
      "stateMutability": "nonpayable",
      "type": "function"
    },
    {
      "inputs": [],
      "name": "claimInterests",
      "outputs": [
        {
          "internalType": "uint256",
          "name": "",
          "type": "uint256"
        }
      ],
      "stateMutability": "nonpayable",
      "type": "function"
    },
    {
      "inputs": [],
      "name": "campounds",
      "outputs": [],
      "stateMutability": "nonpayable",
      "type": "function"
    },
    {
      "inputs": [],
      "name": "SyncValue",
      "outputs": [],
      "stateMutability": "nonpayable",
      "type": "function"
    },
    {
      "inputs": [],
      "name": "handleUnstake",
      "outputs": [],
      "stateMutability": "nonpayable",
      "type": "function"
    },
    {
      "inputs": [],
      "name": "withdrawVotes",
      "outputs": [],
      "stateMutability": "nonpayable",
      "type": "function"
    },
    {
      "inputs": [
        {
          "internalType": "address",
          "name": "addr",
          "type": "address"
        },
        {
          "internalType": "bytes",
          "name": "data",
          "type": "bytes"
        }
      ],
      "name": "callEVM",
      "outputs": [],
      "stateMutability": "nonpayable",
      "type": "function"
    },
    {
      "inputs": [
        {
          "internalType": "uint256",
          "name": "_identifier",
          "type": "uint256"
        }
      ],
      "name": "identifier_test",
      "outputs": [],
      "stateMutability": "nonpayable",
      "type": "function"
    }
  ],
  "bytecode": "0x60806040526123286002556103e8600355683635c9adc5dea000006004553480156200002a57600080fd5b506200004b6200003f6200006160201b60201c565b6200006960201b60201c565b6200005b6200012d60201b60201c565b62000184565b600033905090565b60008060009054906101000a900473ffffffffffffffffffffffffffffffffffffffff169050816000806101000a81548173ffffffffffffffffffffffffffffffffffffffff021916908373ffffffffffffffffffffffffffffffffffffffff1602179055508173ffffffffffffffffffffffffffffffffffffffff168173ffffffffffffffffffffffffffffffffffffffff167f8be0079c531659141344cd1fd0a4f28419497f9722a3daafe3b4186f6b6457e060405160405180910390a35050565b730888000000000000000000000000000000000006600160006101000a81548173ffffffffffffffffffffffffffffffffffffffff021916908373ffffffffffffffffffffffffffffffffffffffff160217905550565b61419980620001946000396000f3fe6080604052600436106101e75760003560e01c80637998a1c411610102578063b3569a1811610095578063da02d10011610064578063da02d10014610642578063da9da52614610659578063f2fde38b14610696578063f586c6d9146106bf576101ee565b8063b3569a1814610598578063b8a99b1f146105c1578063bb469110146105ec578063c2626b7d14610617576101ee565b8063983bf1bd116100d1578063983bf1bd146104f0578063986e08b61461051b5780639fa28e4814610532578063a0e86fd01461056f576101ee565b80637998a1c4146104585780638129fc1c146104835780638da5cb5b1461049a57806393e48e38146104c5576101ee565b8063588beea51161017a5780636a5bd69d116101495780636a5bd69d146103d6578063715018a6146103ff57806375eea4e214610416578063783b7c971461042d576101ee565b8063588beea51461032e57806363c312e51461036b57806365473c521461039457806367a1aa4f146103ab576101ee565b806340d5637f116101b657806340d5637f1461029857806343499844146102af5780634e141b4e146102d8578063505f53d414610303576101ee565b8063120063b0146101f05780632306092e14610219578063231da72f146102425780633e7321b51461026d576101ee565b366101ee57005b005b3480156101fc57600080fd5b5061021760048036038101906102129190613459565b6106ea565b005b34801561022557600080fd5b50610240600480360381019061023b9190613459565b6107aa565b005b34801561024e57600080fd5b50610257610a4c565b60405161026491906138a2565b60405180910390f35b34801561027957600080fd5b50610282610a72565b60405161028f91906138a2565b60405180910390f35b3480156102a457600080fd5b506102ad610a98565b005b3480156102bb57600080fd5b506102d660048036038101906102d19190613459565b610d2a565b005b3480156102e457600080fd5b506102ed610e0c565b6040516102fa91906138a2565b60405180910390f35b34801561030f57600080fd5b50610318610e32565b6040516103259190613ab7565b60405180910390f35b34801561033a57600080fd5b5061035560048036038101906103509190613459565b610fac565b60405161036291906138df565b60405180910390f35b34801561037757600080fd5b50610392600480360381019061038d91906135bc565b61107e565b005b3480156103a057600080fd5b506103a9611104565b005b3480156103b757600080fd5b506103c061171f565b6040516103cd9190613ab7565b60405180910390f35b3480156103e257600080fd5b506103fd60048036038101906103f891906134fa565b611725565b005b34801561040b57600080fd5b50610414611877565b005b34801561042257600080fd5b5061042b6118ff565b005b34801561043957600080fd5b50610442611efb565b60405161044f9190613ab7565b60405180910390f35b34801561046457600080fd5b5061046d611f01565b60405161047a9190613ab7565b60405180910390f35b34801561048f57600080fd5b50610498611f07565b005b3480156104a657600080fd5b506104af611f5e565b6040516104bc91906138a2565b60405180910390f35b3480156104d157600080fd5b506104da611f87565b6040516104e79190613ab7565b60405180910390f35b3480156104fc57600080fd5b50610505612101565b6040516105129190613ab7565b60405180910390f35b34801561052757600080fd5b506105306124ea565b005b34801561053e57600080fd5b50610559600480360381019061055491906135bc565b612624565b6040516105669190613ab7565b60405180910390f35b34801561057b57600080fd5b5061059660048036038101906105919190613482565b61271a565b005b3480156105a457600080fd5b506105bf60048036038101906105ba91906134be565b6128e0565b005b3480156105cd57600080fd5b506105d66129b7565b6040516105e391906138a2565b60405180910390f35b3480156105f857600080fd5b506106016129dd565b60405161060e91906138a2565b60405180910390f35b34801561062357600080fd5b5061062c612a03565b6040516106399190613ab7565b60405180910390f35b34801561064e57600080fd5b50610657612a09565b005b34801561066557600080fd5b50610680600480360381019061067b91906135bc565b612fd0565b60405161068d91906138a2565b60405180910390f35b3480156106a257600080fd5b506106bd60048036038101906106b89190613459565b61300f565b005b3480156106cb57600080fd5b506106d4613107565b6040516106e191906138bd565b60405180910390f35b6106f2613195565b73ffffffffffffffffffffffffffffffffffffffff16610710611f5e565b73ffffffffffffffffffffffffffffffffffffffff1614610766576040517f08c379a000000000000000000000000000000000000000000000000000000000815260040161075d90613a77565b60405180910390fd5b80600860006101000a81548173ffffffffffffffffffffffffffffffffffffffff021916908373ffffffffffffffffffffffffffffffffffffffff16021790555050565b6107b2613195565b73ffffffffffffffffffffffffffffffffffffffff166107d0611f5e565b73ffffffffffffffffffffffffffffffffffffffff1614610826576040517f08c379a000000000000000000000000000000000000000000000000000000000815260040161081d90613a77565b60405180910390fd5b6000600580549050905060005b81811015610a47578273ffffffffffffffffffffffffffffffffffffffff166005828154811061088c577f4e487b7100000000000000000000000000000000000000000000000000000000600052603260045260246000fd5b9060005260206000200160009054906101000a900473ffffffffffffffffffffffffffffffffffffffff1673ffffffffffffffffffffffffffffffffffffffff161415610a345760056001836108e29190613c8a565b81548110610919577f4e487b7100000000000000000000000000000000000000000000000000000000600052603260045260246000fd5b9060005260206000200160009054906101000a900473ffffffffffffffffffffffffffffffffffffffff166005828154811061097e577f4e487b7100000000000000000000000000000000000000000000000000000000600052603260045260246000fd5b9060005260206000200160006101000a81548173ffffffffffffffffffffffffffffffffffffffff021916908373ffffffffffffffffffffffffffffffffffffffff16021790555060058054806109fe577f4e487b7100000000000000000000000000000000000000000000000000000000600052603160045260246000fd5b6001900381819060005260206000200160006101000a81549073ffffffffffffffffffffffffffffffffffffffff021916905590555b8080610a3f90613db9565b915050610833565b505050565b600760009054906101000a900473ffffffffffffffffffffffffffffffffffffffff1681565b600860009054906101000a900473ffffffffffffffffffffffffffffffffffffffff1681565b6001600d6000828254610aab9190613ba9565b9250508190555060011515600e60003373ffffffffffffffffffffffffffffffffffffffff1673ffffffffffffffffffffffffffffffffffffffff16815260200190815260200160002060009054906101000a900460ff16151514610b45576040517f08c379a0000000000000000000000000000000000000000000000000000000008152600401610b3c90613a37565b60405180910390fd5b6005600d5414610b8a576040517f08c379a0000000000000000000000000000000000000000000000000000000008152600401610b81906139b7565b60405180910390fd5b6000600580549050905060008060005b83811015610d105760058181548110610bdc577f4e487b7100000000000000000000000000000000000000000000000000000000600052603260045260246000fd5b9060005260206000200160009054906101000a900473ffffffffffffffffffffffffffffffffffffffff16925060008373ffffffffffffffffffffffffffffffffffffffff16637571fcf66040518163ffffffff1660e01b815260040160e06040518083038186803b158015610c5157600080fd5b505afa158015610c65573d6000803e3d6000fd5b505050506040513d601f19601f82011682018060405250810190610c899190613593565b9050806080015192506000831115610cfc578373ffffffffffffffffffffffffffffffffffffffff1663bed9d8616040518163ffffffff1660e01b8152600401600060405180830381600087803b158015610ce357600080fd5b505af1158015610cf7573d6000803e3d6000fd5b505050505b508080610d0890613db9565b915050610b9a565b505050506005600d541415610d28576000600d819055505b565b610d32613195565b73ffffffffffffffffffffffffffffffffffffffff16610d50611f5e565b73ffffffffffffffffffffffffffffffffffffffff1614610da6576040517f08c379a0000000000000000000000000000000000000000000000000000000008152600401610d9d90613a77565b60405180910390fd5b6005819080600181540180825580915050600190039060005260206000200160009091909190916101000a81548173ffffffffffffffffffffffffffffffffffffffff021916908373ffffffffffffffffffffffffffffffffffffffff16021790555050565b600a60009054906101000a900473ffffffffffffffffffffffffffffffffffffffff1681565b600080600160009054906101000a900473ffffffffffffffffffffffffffffffffffffffff1673ffffffffffffffffffffffffffffffffffffffff1663bea05ee3600860009054906101000a900473ffffffffffffffffffffffffffffffffffffffff1660601b6040516024016040516020818303038152906040527fc7ff5d6e000000000000000000000000000000000000000000000000000000007bffffffffffffffffffffffffffffffffffffffffffffffffffffffff19166020820180517bffffffffffffffffffffffffffffffffffffffffffffffffffffffff83818316178352505050506040518363ffffffff1660e01b8152600401610f39929190613947565b600060405180830381600087803b158015610f5357600080fd5b505af1158015610f67573d6000803e3d6000fd5b505050506040513d6000823e3d601f19601f82011682018060405250810190610f909190613552565b905080806020019051810190610fa691906135e5565b91505090565b6000610fb6613195565b73ffffffffffffffffffffffffffffffffffffffff16610fd4611f5e565b73ffffffffffffffffffffffffffffffffffffffff161461102a576040517f08c379a000000000000000000000000000000000000000000000000000000000815260040161102190613a77565b60405180910390fd5b600e60008373ffffffffffffffffffffffffffffffffffffffff1673ffffffffffffffffffffffffffffffffffffffff16815260200190815260200160002060009054906101000a900460ff169050919050565b611086613195565b73ffffffffffffffffffffffffffffffffffffffff166110a4611f5e565b73ffffffffffffffffffffffffffffffffffffffff16146110fa576040517f08c379a00000000000000000000000000000000000000000000000000000000081526004016110f190613a77565b60405180910390fd5b80600d8190555050565b6001600d60008282546111179190613ba9565b9250508190555060011515600e60003373ffffffffffffffffffffffffffffffffffffffff1673ffffffffffffffffffffffffffffffffffffffff16815260200190815260200160002060009054906101000a900460ff161515146111b1576040517f08c379a00000000000000000000000000000000000000000000000000000000081526004016111a890613a37565b60405180910390fd5b6003600d54146111f6576040517f08c379a00000000000000000000000000000000000000000000000000000000081526004016111ed90613a17565b60405180910390fd5b6000600760009054906101000a900473ffffffffffffffffffffffffffffffffffffffff1673ffffffffffffffffffffffffffffffffffffffff166318160ddd6040518163ffffffff1660e01b815260040160206040518083038186803b15801561126057600080fd5b505afa158015611274573d6000803e3d6000fd5b505050506040513d601f19601f8201168201806040525081019061129891906135e5565b90506000600160009054906101000a900473ffffffffffffffffffffffffffffffffffffffff1673ffffffffffffffffffffffffffffffffffffffff1663bea05ee3600860009054906101000a900473ffffffffffffffffffffffffffffffffffffffff1660601b600960009054906101000a900473ffffffffffffffffffffffffffffffffffffffff1660405160240161133391906138a2565b6040516020818303038152906040527f048e1dcc000000000000000000000000000000000000000000000000000000007bffffffffffffffffffffffffffffffffffffffffffffffffffffffff19166020820180517bffffffffffffffffffffffffffffffffffffffffffffffffffffffff83818316178352505050506040518363ffffffff1660e01b81526004016113cd929190613947565b600060405180830381600087803b1580156113e757600080fd5b505af11580156113fb573d6000803e3d6000fd5b505050506040513d6000823e3d601f19601f820116820180604052508101906114249190613552565b905060008180602001905181019061143c91906135e5565b905060006005805490509050600080600090505b8281101561155e5760058181548110611492577f4e487b7100000000000000000000000000000000000000000000000000000000600052603260045260246000fd5b9060005260206000200160009054906101000a900473ffffffffffffffffffffffffffffffffffffffff1673ffffffffffffffffffffffffffffffffffffffff16637571fcf66040518163ffffffff1660e01b815260040160e06040518083038186803b15801561150257600080fd5b505afa158015611516573d6000803e3d6000fd5b505050506040513d601f19601f8201168201806040525081019061153a9190613593565b60000151826115499190613ba9565b9150808061155690613db9565b915050611450565b50600061159a8661158c61157d6004548661319d90919063ffffffff16565b876131b390919063ffffffff16565b6131c990919063ffffffff16565b9050600160009054906101000a900473ffffffffffffffffffffffffffffffffffffffff1673ffffffffffffffffffffffffffffffffffffffff1663bea05ee3600860009054906101000a900473ffffffffffffffffffffffffffffffffffffffff1660601b836040516024016116119190613ab7565b6040516020818303038152906040527f21e2f533000000000000000000000000000000000000000000000000000000007bffffffffffffffffffffffffffffffffffffffffffffffffffffffff19166020820180517bffffffffffffffffffffffffffffffffffffffffffffffffffffffff83818316178352505050506040518363ffffffff1660e01b81526004016116ab929190613947565b600060405180830381600087803b1580156116c557600080fd5b505af11580156116d9573d6000803e3d6000fd5b505050506040513d6000823e3d601f19601f820116820180604052508101906117029190613552565b505050505050506005600d54141561171d576000600d819055505b565b60025481565b60011515600e60003373ffffffffffffffffffffffffffffffffffffffff1673ffffffffffffffffffffffffffffffffffffffff16815260200190815260200160002060009054906101000a900460ff161515146117b8576040517f08c379a00000000000000000000000000000000000000000000000000000000081526004016117af90613a37565b60405180910390fd5b600160009054906101000a900473ffffffffffffffffffffffffffffffffffffffff1673ffffffffffffffffffffffffffffffffffffffff1663bea05ee38460601b84846040518463ffffffff1660e01b815260040161181a93929190613915565b600060405180830381600087803b15801561183457600080fd5b505af1158015611848573d6000803e3d6000fd5b505050506040513d6000823e3d601f19601f820116820180604052508101906118719190613552565b50505050565b61187f613195565b73ffffffffffffffffffffffffffffffffffffffff1661189d611f5e565b73ffffffffffffffffffffffffffffffffffffffff16146118f3576040517f08c379a00000000000000000000000000000000000000000000000000000000081526004016118ea90613a77565b60405180910390fd5b6118fd60006131df565b565b6001600d60008282546119129190613ba9565b9250508190555060011515600e60003373ffffffffffffffffffffffffffffffffffffffff1673ffffffffffffffffffffffffffffffffffffffff16815260200190815260200160002060009054906101000a900460ff161515146119ac576040517f08c379a00000000000000000000000000000000000000000000000000000000081526004016119a390613a37565b60405180910390fd5b6002600d54146119f1576040517f08c379a00000000000000000000000000000000000000000000000000000000081526004016119e890613a57565b60405180910390fd5b6000600c541415611a37576040517f08c379a0000000000000000000000000000000000000000000000000000000008152600401611a2e90613a97565b60405180910390fd5b6000600c549050600160009054906101000a900473ffffffffffffffffffffffffffffffffffffffff1673ffffffffffffffffffffffffffffffffffffffff1663bea05ee382600860009054906101000a900473ffffffffffffffffffffffffffffffffffffffff1660601b6040516024016040516020818303038152906040527f68eca7f9000000000000000000000000000000000000000000000000000000007bffffffffffffffffffffffffffffffffffffffffffffffffffffffff19166020820180517bffffffffffffffffffffffffffffffffffffffffffffffffffffffff83818316178352505050506040518463ffffffff1660e01b8152600401611b43929190613947565b6000604051808303818588803b158015611b5c57600080fd5b505af1158015611b70573d6000803e3d6000fd5b50505050506040513d6000823e3d601f19601f82011682018060405250810190611b9a9190613552565b506000600160009054906101000a900473ffffffffffffffffffffffffffffffffffffffff1673ffffffffffffffffffffffffffffffffffffffff1663bea05ee3600860009054906101000a900473ffffffffffffffffffffffffffffffffffffffff1660601b600960009054906101000a900473ffffffffffffffffffffffffffffffffffffffff16604051602401611c3491906138a2565b6040516020818303038152906040527f048e1dcc000000000000000000000000000000000000000000000000000000007bffffffffffffffffffffffffffffffffffffffffffffffffffffffff19166020820180517bffffffffffffffffffffffffffffffffffffffffffffffffffffffff83818316178352505050506040518363ffffffff1660e01b8152600401611cce929190613947565b600060405180830381600087803b158015611ce857600080fd5b505af1158015611cfc573d6000803e3d6000fd5b505050506040513d6000823e3d601f19601f82011682018060405250810190611d259190613552565b9050600081806020019051810190611d3d91906135e5565b90506000611d56600454836131c990919063ffffffff16565b905060008167ffffffffffffffff161115611ee157600160009054906101000a900473ffffffffffffffffffffffffffffffffffffffff1673ffffffffffffffffffffffffffffffffffffffff1663c23ef0316004548367ffffffffffffffff16611dc19190613c30565b6040518263ffffffff1660e01b8152600401611ddd9190613ab7565b600060405180830381600087803b158015611df757600080fd5b505af1158015611e0b573d6000803e3d6000fd5b50505050600560065481548110611e4b577f4e487b7100000000000000000000000000000000000000000000000000000000600052603260045260246000fd5b9060005260206000200160009054906101000a900473ffffffffffffffffffffffffffffffffffffffff1673ffffffffffffffffffffffffffffffffffffffff166309fecf7f826040518263ffffffff1660e01b8152600401611eae9190613ad2565b600060405180830381600087803b158015611ec857600080fd5b505af1158015611edc573d6000803e3d6000fd5b505050505b505050506005600d541415611ef9576000600d819055505b565b60065481565b600d5481565b730888000000000000000000000000000000000006600160006101000a81548173ffffffffffffffffffffffffffffffffffffffff021916908373ffffffffffffffffffffffffffffffffffffffff160217905550565b60008060009054906101000a900473ffffffffffffffffffffffffffffffffffffffff16905090565b600080600160009054906101000a900473ffffffffffffffffffffffffffffffffffffffff1673ffffffffffffffffffffffffffffffffffffffff1663bea05ee3600860009054906101000a900473ffffffffffffffffffffffffffffffffffffffff1660601b6040516024016040516020818303038152906040527f15cc421d000000000000000000000000000000000000000000000000000000007bffffffffffffffffffffffffffffffffffffffffffffffffffffffff19166020820180517bffffffffffffffffffffffffffffffffffffffffffffffffffffffff83818316178352505050506040518363ffffffff1660e01b815260040161208e929190613947565b600060405180830381600087803b1580156120a857600080fd5b505af11580156120bc573d6000803e3d6000fd5b505050506040513d6000823e3d601f19601f820116820180604052508101906120e59190613552565b9050808060200190518101906120fb91906135e5565b91505090565b60006001600d60008282546121169190613ba9565b9250508190555060011515600e60003373ffffffffffffffffffffffffffffffffffffffff1673ffffffffffffffffffffffffffffffffffffffff16815260200190815260200160002060009054906101000a900460ff161515146121b0576040517f08c379a00000000000000000000000000000000000000000000000000000000081526004016121a790613a37565b60405180910390fd5b6001600d54146121f5576040517f08c379a00000000000000000000000000000000000000000000000000000000081526004016121ec906139f7565b60405180910390fd5b6000600c541461223a576040517f08c379a0000000000000000000000000000000000000000000000000000000008152600401612231906139d7565b60405180910390fd5b6000600580549050905060008060005b838110156124ca576005818154811061228c577f4e487b7100000000000000000000000000000000000000000000000000000000600052603260045260246000fd5b9060005260206000200160009054906101000a900473ffffffffffffffffffffffffffffffffffffffff1692508273ffffffffffffffffffffffffffffffffffffffff1663e73e183b6040518163ffffffff1660e01b815260040160206040518083038186803b1580156122ff57600080fd5b505afa158015612313573d6000803e3d6000fd5b505050506040513d601f19601f8201168201806040525081019061233791906135e5565b915060008211156124b7578273ffffffffffffffffffffffffffffffffffffffff16638270512f6040518163ffffffff1660e01b8152600401602060405180830381600087803b15801561238a57600080fd5b505af115801561239e573d6000803e3d6000fd5b505050506040513d601f19601f820116820180604052508101906123c291906135e5565b915081600c60008282546123d69190613ba9565b92505081905550600160009054906101000a900473ffffffffffffffffffffffffffffffffffffffff1673ffffffffffffffffffffffffffffffffffffffff1663da8d5daf83600960009054906101000a900473ffffffffffffffffffffffffffffffffffffffff1660601b6040518363ffffffff1660e01b815260040161245e91906138fa565b6000604051808303818588803b15801561247757600080fd5b505af115801561248b573d6000803e3d6000fd5b50505050506040513d6000823e3d601f19601f820116820180604052508101906124b59190613552565b505b80806124c290613db9565b91505061224a565b50600c5493505050506005600d5414156124e7576000600d819055505b90565b6124f2613195565b73ffffffffffffffffffffffffffffffffffffffff16612510611f5e565b73ffffffffffffffffffffffffffffffffffffffff1614612566576040517f08c379a000000000000000000000000000000000000000000000000000000000815260040161255d90613a77565b60405180910390fd5b60011515600e60003373ffffffffffffffffffffffffffffffffffffffff1673ffffffffffffffffffffffffffffffffffffffff16815260200190815260200160002060009054906101000a900460ff161515146125f9576040517f08c379a00000000000000000000000000000000000000000000000000000000081526004016125f090613a37565b60405180910390fd5b612601612101565b5061260a6118ff565b612612611104565b61261a612a09565b612622610a98565b565b60008060058381548110612661577f4e487b7100000000000000000000000000000000000000000000000000000000600052603260045260246000fd5b9060005260206000200160009054906101000a900473ffffffffffffffffffffffffffffffffffffffff16905060008173ffffffffffffffffffffffffffffffffffffffff1663e73e183b6040518163ffffffff1660e01b815260040160206040518083038186803b1580156126d657600080fd5b505afa1580156126ea573d6000803e3d6000fd5b505050506040513d601f19601f8201168201806040525081019061270e91906135e5565b90508092505050919050565b612722613195565b73ffffffffffffffffffffffffffffffffffffffff16612740611f5e565b73ffffffffffffffffffffffffffffffffffffffff1614612796576040517f08c379a000000000000000000000000000000000000000000000000000000000815260040161278d90613a77565b60405180910390fd5b6000600580549050905060005b818110156128da578373ffffffffffffffffffffffffffffffffffffffff16600582815481106127fc577f4e487b7100000000000000000000000000000000000000000000000000000000600052603260045260246000fd5b9060005260206000200160009054906101000a900473ffffffffffffffffffffffffffffffffffffffff1673ffffffffffffffffffffffffffffffffffffffff1614156128c757826005828154811061287e577f4e487b7100000000000000000000000000000000000000000000000000000000600052603260045260246000fd5b9060005260206000200160006101000a81548173ffffffffffffffffffffffffffffffffffffffff021916908373ffffffffffffffffffffffffffffffffffffffff1602179055505b80806128d290613db9565b9150506127a3565b50505050565b6128e8613195565b73ffffffffffffffffffffffffffffffffffffffff16612906611f5e565b73ffffffffffffffffffffffffffffffffffffffff161461295c576040517f08c379a000000000000000000000000000000000000000000000000000000000815260040161295390613a77565b60405180910390fd5b80600e60008473ffffffffffffffffffffffffffffffffffffffff1673ffffffffffffffffffffffffffffffffffffffff16815260200190815260200160002060006101000a81548160ff0219169083151502179055505050565b600960009054906101000a900473ffffffffffffffffffffffffffffffffffffffff1681565b600b60009054906101000a900473ffffffffffffffffffffffffffffffffffffffff1681565b600c5481565b6001600d6000828254612a1c9190613ba9565b9250508190555060011515600e60003373ffffffffffffffffffffffffffffffffffffffff1673ffffffffffffffffffffffffffffffffffffffff16815260200190815260200160002060009054906101000a900460ff16151514612ab6576040517f08c379a0000000000000000000000000000000000000000000000000000000008152600401612aad90613a37565b60405180910390fd5b6004600d5414612afb576040517f08c379a0000000000000000000000000000000000000000000000000000000008152600401612af290613997565b60405180910390fd5b6000612b05610e32565b90506000811415612b165750612fba565b6032811115612b2457603290505b6000600560065481548110612b62577f4e487b7100000000000000000000000000000000000000000000000000000000600052603260045260246000fd5b9060005260206000200160009054906101000a900473ffffffffffffffffffffffffffffffffffffffff16905060008173ffffffffffffffffffffffffffffffffffffffff16637571fcf66040518163ffffffff1660e01b815260040160e06040518083038186803b158015612bd757600080fd5b505afa158015612beb573d6000803e3d6000fd5b505050506040513d601f19601f82011682018060405250810190612c0f9190613593565b90506000816000015190506060600080831415612c3157505050505050612fba565b60005b86811015612fb257600160009054906101000a900473ffffffffffffffffffffffffffffffffffffffff1673ffffffffffffffffffffffffffffffffffffffff1663bea05ee3600860009054906101000a900473ffffffffffffffffffffffffffffffffffffffff1660601b6040516024016040516020818303038152906040527f09fcd230000000000000000000000000000000000000000000000000000000007bffffffffffffffffffffffffffffffffffffffffffffffffffffffff19166020820180517bffffffffffffffffffffffffffffffffffffffffffffffffffffffff83818316178352505050506040518363ffffffff1660e01b8152600401612d40929190613947565b600060405180830381600087803b158015612d5a57600080fd5b505af1158015612d6e573d6000803e3d6000fd5b505050506040513d6000823e3d601f19601f82011682018060405250810190612d979190613552565b925082806020019051810190612dad91906135e5565b91506000821415612dbd57612fb2565b83821115612dca57612fb2565b8573ffffffffffffffffffffffffffffffffffffffff1663beb99c1e836040518263ffffffff1660e01b8152600401612e039190613ad2565b600060405180830381600087803b158015612e1d57600080fd5b505af1158015612e31573d6000803e3d6000fd5b50505050600160009054906101000a900473ffffffffffffffffffffffffffffffffffffffff1673ffffffffffffffffffffffffffffffffffffffff1663bea05ee3600860009054906101000a900473ffffffffffffffffffffffffffffffffffffffff1660601b6040516024016040516020818303038152906040527f84981986000000000000000000000000000000000000000000000000000000007bffffffffffffffffffffffffffffffffffffffffffffffffffffffff19166020820180517bffffffffffffffffffffffffffffffffffffffffffffffffffffffff83818316178352505050506040518363ffffffff1660e01b8152600401612f39929190613947565b600060405180830381600087803b158015612f5357600080fd5b505af1158015612f67573d6000803e3d6000fd5b505050506040513d6000823e3d601f19601f82011682018060405250810190612f909190613552565b508184612f9d9190613c8a565b93508080612faa90613db9565b915050612c34565b505050505050505b6005600d541415612fce576000600d819055505b565b60058181548110612fe057600080fd5b906000526020600020016000915054906101000a900473ffffffffffffffffffffffffffffffffffffffff1681565b613017613195565b73ffffffffffffffffffffffffffffffffffffffff16613035611f5e565b73ffffffffffffffffffffffffffffffffffffffff161461308b576040517f08c379a000000000000000000000000000000000000000000000000000000000815260040161308290613a77565b60405180910390fd5b600073ffffffffffffffffffffffffffffffffffffffff168173ffffffffffffffffffffffffffffffffffffffff1614156130fb576040517f08c379a00000000000000000000000000000000000000000000000000000000081526004016130f290613977565b60405180910390fd5b613104816131df565b50565b6060600580548060200260200160405190810160405280929190818152602001828054801561318b57602002820191906000526020600020905b8160009054906101000a900473ffffffffffffffffffffffffffffffffffffffff1673ffffffffffffffffffffffffffffffffffffffff1681526020019060010190808311613141575b5050505050905090565b600033905090565b600081836131ab9190613c30565b905092915050565b600081836131c19190613ba9565b905092915050565b600081836131d79190613bff565b905092915050565b60008060009054906101000a900473ffffffffffffffffffffffffffffffffffffffff169050816000806101000a81548173ffffffffffffffffffffffffffffffffffffffff021916908373ffffffffffffffffffffffffffffffffffffffff1602179055508173ffffffffffffffffffffffffffffffffffffffff168173ffffffffffffffffffffffffffffffffffffffff167f8be0079c531659141344cd1fd0a4f28419497f9722a3daafe3b4186f6b6457e060405160405180910390a35050565b60006132b66132b184613b12565b613aed565b9050828152602081018484840111156132ce57600080fd5b6132d9848285613d55565b509392505050565b6000813590506132f08161411e565b92915050565b60008135905061330581614135565b92915050565b60008083601f84011261331d57600080fd5b8235905067ffffffffffffffff81111561333657600080fd5b60208301915083600182028301111561334e57600080fd5b9250929050565b600082601f83011261336657600080fd5b81516133768482602086016132a3565b91505092915050565b600060e0828403121561339157600080fd5b61339b60e0613aed565b905060006133ab84828501613444565b60008301525060206133bf84828501613444565b60208301525060406133d384828501613444565b60408301525060606133e784828501613444565b60608301525060806133fb84828501613444565b60808301525060a061340f84828501613444565b60a08301525060c061342384828501613444565b60c08301525092915050565b60008135905061343e8161414c565b92915050565b6000815190506134538161414c565b92915050565b60006020828403121561346b57600080fd5b6000613479848285016132e1565b91505092915050565b6000806040838503121561349557600080fd5b60006134a3858286016132e1565b92505060206134b4858286016132e1565b9150509250929050565b600080604083850312156134d157600080fd5b60006134df858286016132e1565b92505060206134f0858286016132f6565b9150509250929050565b60008060006040848603121561350f57600080fd5b600061351d868287016132e1565b935050602084013567ffffffffffffffff81111561353a57600080fd5b6135468682870161330b565b92509250509250925092565b60006020828403121561356457600080fd5b600082015167ffffffffffffffff81111561357e57600080fd5b61358a84828501613355565b91505092915050565b600060e082840312156135a557600080fd5b60006135b38482850161337f565b91505092915050565b6000602082840312156135ce57600080fd5b60006135dc8482850161342f565b91505092915050565b6000602082840312156135f757600080fd5b600061360584828501613444565b91505092915050565b600061361a8383613626565b60208301905092915050565b61362f81613cbe565b82525050565b61363e81613cbe565b82525050565b600061364f82613b53565b6136598185613b76565b935061366483613b43565b8060005b8381101561369557815161367c888261360e565b975061368783613b69565b925050600181019050613668565b5085935050505092915050565b6136ab81613cd0565b82525050565b6136ba81613cdc565b82525050565b60006136cc8385613b87565b93506136d9838584613d46565b6136e283613e8f565b840190509392505050565b60006136f882613b5e565b6137028185613b87565b9350613712818560208601613d55565b61371b81613e8f565b840191505092915050565b6000613733602683613b98565b915061373e82613ea0565b604082019050919050565b6000613756602283613b98565b915061376182613eef565b604082019050919050565b6000613779602283613b98565b915061378482613f3e565b604082019050919050565b600061379c601f83613b98565b91506137a782613f8d565b602082019050919050565b60006137bf602283613b98565b91506137ca82613fb6565b604082019050919050565b60006137e2602283613b98565b91506137ed82614005565b604082019050919050565b6000613805601783613b98565b915061381082614054565b602082019050919050565b6000613828602283613b98565b91506138338261407d565b604082019050919050565b600061384b602083613b98565b9150613856826140cc565b602082019050919050565b600061386e601e83613b98565b9150613879826140f5565b602082019050919050565b61388d81613d28565b82525050565b61389c81613d32565b82525050565b60006020820190506138b76000830184613635565b92915050565b600060208201905081810360008301526138d78184613644565b905092915050565b60006020820190506138f460008301846136a2565b92915050565b600060208201905061390f60008301846136b1565b92915050565b600060408201905061392a60008301866136b1565b818103602083015261393d8184866136c0565b9050949350505050565b600060408201905061395c60008301856136b1565b818103602083015261396e81846136ed565b90509392505050565b6000602082019050818103600083015261399081613726565b9050919050565b600060208201905081810360008301526139b081613749565b9050919050565b600060208201905081810360008301526139d08161376c565b9050919050565b600060208201905081810360008301526139f08161378f565b9050919050565b60006020820190508181036000830152613a10816137b2565b9050919050565b60006020820190508181036000830152613a30816137d5565b9050919050565b60006020820190508181036000830152613a50816137f8565b9050919050565b60006020820190508181036000830152613a708161381b565b9050919050565b60006020820190508181036000830152613a908161383e565b9050919050565b60006020820190508181036000830152613ab081613861565b9050919050565b6000602082019050613acc6000830184613884565b92915050565b6000602082019050613ae76000830184613893565b92915050565b6000613af7613b08565b9050613b038282613d88565b919050565b6000604051905090565b600067ffffffffffffffff821115613b2d57613b2c613e60565b5b613b3682613e8f565b9050602081019050919050565b6000819050602082019050919050565b600081519050919050565b600081519050919050565b6000602082019050919050565b600082825260208201905092915050565b600082825260208201905092915050565b600082825260208201905092915050565b6000613bb482613d28565b9150613bbf83613d28565b9250827fffffffffffffffffffffffffffffffffffffffffffffffffffffffffffffffff03821115613bf457613bf3613e02565b5b828201905092915050565b6000613c0a82613d28565b9150613c1583613d28565b925082613c2557613c24613e31565b5b828204905092915050565b6000613c3b82613d28565b9150613c4683613d28565b9250817fffffffffffffffffffffffffffffffffffffffffffffffffffffffffffffffff0483118215151615613c7f57613c7e613e02565b5b828202905092915050565b6000613c9582613d28565b9150613ca083613d28565b925082821015613cb357613cb2613e02565b5b828203905092915050565b6000613cc982613d08565b9050919050565b60008115159050919050565b60007fffffffffffffffffffffffffffffffffffffffff00000000000000000000000082169050919050565b600073ffffffffffffffffffffffffffffffffffffffff82169050919050565b6000819050919050565b600067ffffffffffffffff82169050919050565b82818337600083830152505050565b60005b83811015613d73578082015181840152602081019050613d58565b83811115613d82576000848401525b50505050565b613d9182613e8f565b810181811067ffffffffffffffff82111715613db057613daf613e60565b5b80604052505050565b6000613dc482613d28565b91507fffffffffffffffffffffffffffffffffffffffffffffffffffffffffffffffff821415613df757613df6613e02565b5b600182019050919050565b7f4e487b7100000000000000000000000000000000000000000000000000000000600052601160045260246000fd5b7f4e487b7100000000000000000000000000000000000000000000000000000000600052601260045260246000fd5b7f4e487b7100000000000000000000000000000000000000000000000000000000600052604160045260246000fd5b6000601f19601f8301169050919050565b7f4f776e61626c653a206e6577206f776e657220697320746865207a65726f206160008201527f6464726573730000000000000000000000000000000000000000000000000000602082015250565b7f6964656e746966696572206973206e6f742072696768742c206e65656420626560008201527f2034000000000000000000000000000000000000000000000000000000000000602082015250565b7f6964656e746966696572206973206e6f742072696768742c206e65656420626560008201527f2035000000000000000000000000000000000000000000000000000000000000602082015250565b7f73797374656d5f636678696e74657265737473206e6f7420636c65616e656400600082015250565b7f6964656e746966696572206973206e6f742072696768742c206e65656420626560008201527f2031000000000000000000000000000000000000000000000000000000000000602082015250565b7f6964656e746966696572206973206e6f742072696768742c206e65656420626560008201527f2033000000000000000000000000000000000000000000000000000000000000602082015250565b7f74726967657273206d7573742062652074727573746564000000000000000000600082015250565b7f6964656e746966696572206973206e6f742072696768742c206e65656420626560008201527f2032000000000000000000000000000000000000000000000000000000000000602082015250565b7f4f776e61626c653a2063616c6c6572206973206e6f7420746865206f776e6572600082015250565b7f73797374656d5f636678696e7465726573747320697320636c65616e65640000600082015250565b61412781613cbe565b811461413257600080fd5b50565b61413e81613cd0565b811461414957600080fd5b50565b61415581613d28565b811461416057600080fd5b5056fea264697066735822122051a9de7f1ae89759610365882f975a66e6a4a62e4e5b9de82a13e4762cddcfb964736f6c63430008020033",
  "immutableReferences": {},
  "source": "//SPDX-License-Identifier: BUSL-1.1\r\npragma solidity ^0.8.0;\r\nimport \"@openzeppelin/contracts/utils/math/SafeMath.sol\";\r\nimport \"@openzeppelin/contracts/access/Ownable.sol\";\r\nimport \"@openzeppelin/contracts/token/ERC20/IERC20.sol\";\r\nimport \"../ICrossSpaceCall.sol\";\r\nimport \"../IExchange.sol\";\r\n///\r\n///  @title CoreBridge_multipool is a bridge to connect Conflux POS pools and Exchange rooms ,deployed in core;\r\n///  @dev This contract set the user share ratio, system share ratio, \r\n///  @dev compound the interests\r\n///  @notice Users cann't direct use this contract to participate Conflux PoS stake.\r\n///\r\ncontract CoreBridge_multipool is Ownable {\r\n  using SafeMath for uint256;\r\n  CrossSpaceCall internal crossSpaceCall;\r\n\r\n  uint256 private constant RATIO_BASE = 10000;\r\n  // ratio shared by user: 1-10000\r\n  uint256 public poolUserShareRatio = 9000;\r\n  uint256 CFX_COUNT_OF_ONE_VOTE = 1000;\r\n  uint256 CFX_VALUE_OF_ONE_VOTE = 1000 ether;\r\n\r\n  address[] public poolAddress;               // can use many pools, so here is an array\r\n  uint256   public pos_id_in_use;             // pos pool in use\r\n  //eSpace address\r\n  address   public xCFXAddress;               // xCFX addr in espace \r\n  address   public eSpaceExroomAddress;       //Exchange room Address in espace\r\n  address   public bridge_eSpaceAddress;       //address of bridge in espace\r\n  //Core Space address\r\n  address   public CoreExroomAddress;         //Exchange room Address in core\r\n  address   public ServicetreasuryAddress;    //Service treasury Address in core\r\n  uint256   public system_cfxinterests_temp; //pools cfx interests in temporary\r\n  //\r\n  uint256   public identifier;                //Execution number , should be private when use in main net\r\n  mapping(address=>bool) trusted_node_trigers;//     \r\n  // ======================== Struct definitions =========================\r\n  struct PoolSummary {\r\n    uint256 xCFXSUM;             // xCFX SUM (1 ether xCFX === 1 e18)\r\n    uint256 totalInterest;       // PoS pool interests for all xCFX\r\n    uint256 CFXbalances;         // CFX balances in bridge\r\n    uint256 historical_Interest ;// total historical interest of whole pools\r\n  }\r\n\r\n  constructor () {\r\n    initialize();\r\n  }\r\n  // ======================== Modifiers =========================\r\n\r\n  modifier Only_in_order() {\r\n    identifier += 1;\r\n    _;\r\n    if(identifier==5) identifier = 0;\r\n  }\r\n  modifier Only_trusted_trigers() {\r\n    require(trusted_node_trigers[msg.sender]==true,'trigers must be trusted');\r\n    _;\r\n  }\r\n  // ======================== Methods for core pos pools settings =========================\r\n\r\n  function initialize() public {\r\n    crossSpaceCall = CrossSpaceCall(0x0888000000000000000000000000000000000006);\r\n  }\r\n\r\n  function addPoolAddress(address _poolAddress) public onlyOwner {\r\n    poolAddress.push(_poolAddress);\r\n  }\r\n\r\n  function changePoolAddress(address _oldpoolAddress,address _newpoolAddress) public onlyOwner {\r\n    uint256 pool_sum = poolAddress.length;\r\n    for(uint256 i=0;i<pool_sum;i++)\r\n    {\r\n        if(poolAddress[i]==_oldpoolAddress)\r\n        {\r\n            poolAddress[i]=_newpoolAddress;\r\n        }\r\n    }\r\n  }\r\n  function delePoolAddress(address _oldpoolAddress) public onlyOwner {\r\n    uint256 pool_sum = poolAddress.length;\r\n    for(uint256 i=0;i<pool_sum;i++)\r\n    {\r\n        if(poolAddress[i]==_oldpoolAddress)\r\n        {\r\n            poolAddress[i]= poolAddress[pool_sum-1];\r\n            poolAddress.pop();\r\n        }\r\n    }\r\n  }\r\n\r\n  function seteSpaceExroomAddress(address _eSpaceExroomAddress) public onlyOwner {\r\n    eSpaceExroomAddress = _eSpaceExroomAddress;\r\n  }\r\n  function settrusted_trigers(address _Address,bool state) public onlyOwner {\r\n    trusted_node_trigers[_Address] = state;\r\n  }\r\n\r\n  function get_triger_state(address _Address) public view onlyOwner returns(bool){\r\n    return trusted_node_trigers[_Address];\r\n  }\r\n  function getPoolAddress() public view returns (address[] memory ) {\r\n    return poolAddress;\r\n  }\r\n  \r\n  // function ePoolAddrB20() public view returns (bytes20) {\r\n  //   return bytes20(address(this));\r\n  // }\r\n  //-----------------espace method-------------------------------------------------------------------------------------\r\n\r\n  function queryespacexCFXincrease() public returns (uint256) {\r\n    bytes memory rawCrossingVotes = crossSpaceCall.callEVM(bytes20(eSpaceExroomAddress), abi.encodeWithSignature(\"crossingVotes()\"));\r\n    return abi.decode(rawCrossingVotes, (uint256));\r\n  }\r\n\r\n  function queryUnstakeLen() public returns (uint256) {\r\n    bytes memory rawUnstakeLen = crossSpaceCall.callEVM(bytes20(eSpaceExroomAddress), abi.encodeWithSignature(\"unstakeLen()\"));\r\n    return abi.decode(rawUnstakeLen, (uint256));\r\n  }\r\n\r\n  //-----------------core pool method-------------------------------------------------------------------------------------\r\n  function queryInterest(uint256 _num) public view returns (uint256) {\r\n    IExchange posPool = IExchange(poolAddress[_num]);\r\n    uint256 interest = posPool.temp_Interest();\r\n    return interest;\r\n  }\r\n\r\n  //-----------------bridge method-------------------------------------------------------------------------------------\r\n  function syncALLwork() public onlyOwner Only_trusted_trigers {\r\n    claimInterests();\r\n\r\n    campounds();\r\n    SyncValue();\r\n\r\n    handleUnstake();\r\n    withdrawVotes();\r\n  }\r\n\r\n  function claimInterests() public Only_in_order Only_trusted_trigers returns(uint256){\r\n    require(identifier==1,\"identifier is not right, need be 1\");\r\n    require(system_cfxinterests_temp==0,'system_cfxinterests not cleaned');\r\n    uint256 pool_sum = poolAddress.length;\r\n    IExchange posPool;\r\n    uint256 interest;\r\n    \r\n    for(uint256 i=0;i<pool_sum;i++)\r\n    {\r\n      posPool = IExchange(poolAddress[i]);\r\n      interest = posPool.temp_Interest();\r\n      if (interest > 0) {\r\n        interest = posPool.claimAllInterest(); \r\n        system_cfxinterests_temp += interest;\r\n        crossSpaceCall.transferEVM{value: interest}(bytes20(bridge_eSpaceAddress));\r\n      }\r\n    }\r\n    return system_cfxinterests_temp;\r\n  }\r\n  function campounds() public Only_in_order Only_trusted_trigers {\r\n    require(identifier==2,\"identifier is not right, need be 2\");\r\n    require(system_cfxinterests_temp!=0,'system_cfxinterests is cleaned');\r\n    uint256 toxCFX = system_cfxinterests_temp;\r\n    system_cfxinterests_temp == 0;\r\n    crossSpaceCall.callEVM{value: toxCFX}(bytes20(eSpaceExroomAddress), abi.encodeWithSignature(\"CFX_exchange_XCFX()\"));\r\n    bytes memory rawbalance = crossSpaceCall.callEVM(bytes20(eSpaceExroomAddress), abi.encodeWithSignature(\"espacebalanceof(address)\", bridge_eSpaceAddress));\r\n    uint256 balanceinpool =  abi.decode(rawbalance, (uint256));\r\n    uint64 votePower = uint64(balanceinpool.div(CFX_VALUE_OF_ONE_VOTE));\r\n    if (votePower > 0){\r\n      crossSpaceCall.withdrawFromMapped(votePower*CFX_VALUE_OF_ONE_VOTE);\r\n      IExchange(poolAddress[pos_id_in_use]).increaseStake(votePower);\r\n    }\r\n  }\r\n\r\n  function SyncValue() public Only_in_order Only_trusted_trigers {\r\n    require(identifier==3,\"identifier is not right, need be 3\");\r\n    uint256 sum = IERC20(xCFXAddress).totalSupply() ; \r\n    bytes memory rawbalance = crossSpaceCall.callEVM(bytes20(eSpaceExroomAddress), abi.encodeWithSignature(\"espacebalanceof(address)\", bridge_eSpaceAddress));\r\n    uint256 balanceinpool =  abi.decode(rawbalance, (uint256));\r\n    uint256 pool_sum = poolAddress.length;\r\n    uint256 SUMvotes;\r\n    for(uint256 i=0;i<pool_sum;i++)\r\n    {\r\n        SUMvotes += IExchange(poolAddress[i]).poolSummary().totalvotes;\r\n    }\r\n    uint256 xCFXvalues =balanceinpool.add(SUMvotes.mul(CFX_VALUE_OF_ONE_VOTE)).div(sum);\r\n    crossSpaceCall.callEVM(bytes20(eSpaceExroomAddress), abi.encodeWithSignature(\"setxCFXValue(uint256)\", xCFXvalues));\r\n  }\r\n\r\n  function handleUnstake() public Only_in_order Only_trusted_trigers {\r\n    require(identifier==4,\"identifier is not right, need be 4\");\r\n    uint256 unstakeLen = queryUnstakeLen();\r\n    if (unstakeLen == 0) return;\r\n    if (unstakeLen > 50) unstakeLen = 50; // max 50 unstakes per call\r\n    IExchange posPool = IExchange(poolAddress[pos_id_in_use]);\r\n    IExchange.PoolSummary memory poolSummary = posPool.poolSummary();\r\n    uint256 available = poolSummary.totalvotes;\r\n    bytes memory rawFirstUnstakeVotes ;\r\n    uint256 firstUnstakeVotes;\r\n    if (available == 0) return;\r\n    for(uint256 i = 0; i < unstakeLen; i++) {\r\n      rawFirstUnstakeVotes = crossSpaceCall.callEVM(bytes20(eSpaceExroomAddress), abi.encodeWithSignature(\"firstUnstakeVotes()\"));\r\n      firstUnstakeVotes = abi.decode(rawFirstUnstakeVotes, (uint256));\r\n      if (firstUnstakeVotes == 0) break;\r\n      if (firstUnstakeVotes > available) break;\r\n      posPool.decreaseStake(uint64(firstUnstakeVotes));\r\n      crossSpaceCall.callEVM(bytes20(eSpaceExroomAddress), abi.encodeWithSignature(\"handleUnstakeTask()\"));\r\n      available -= firstUnstakeVotes;\r\n    }\r\n  }\r\n\r\n  function withdrawVotes() public Only_in_order Only_trusted_trigers {\r\n    require(identifier==5,\"identifier is not right, need be 5\");\r\n    uint256 pool_sum = poolAddress.length;\r\n    IExchange posPool;\r\n    uint256 temp_unlocked;\r\n    //uint256 transferValue;\r\n    for(uint256 i=0;i<pool_sum;i++)\r\n    {\r\n      posPool = IExchange(poolAddress[i]);\r\n      IExchange.PoolSummary memory poolSummary = posPool.poolSummary();\r\n      temp_unlocked = poolSummary.unlocked;\r\n      if (temp_unlocked > 0) \r\n      {\r\n        posPool.withdrawStake();\r\n        // transfer to eSpacePool and call method\r\n        //transferValue = temp_unlocked * 1000 ether;\r\n        //crossSpaceCall.callEVM{value: transferValue}(ePoolAddrB20(), abi.encodeWithSignature(\"handleUnlockedIncrease(uint256)\", userSummary.unlocked));\r\n      }\r\n    }\r\n  }\r\n\r\n  function callEVM(address addr, bytes calldata data) public Only_trusted_trigers {\r\n    crossSpaceCall.callEVM(bytes20(addr), data);\r\n  }\r\n\r\n  fallback() external payable {}\r\n  receive() external payable {}\r\n\r\n  //--------------------------------------temp-----------------------------------------------\r\n   function identifier_test(uint256 _identifier) public onlyOwner {identifier=_identifier; }\r\n  \r\n}",
  "sourcePath": "C:/Users/artii/Conflux Studio/minpos/contracts/eSpace/CoreBridge_multipool.sol",
  "compiler": {
    "name": "solc",
    "version": "0.8.2+commit.661d1103.Emscripten.clang"
  },
  "schemaVersion": "3.3.4",
  "updatedAt": "2022-08-23T09:19:07.924Z",
  "devdoc": {
    "details": "This contract set the user share ratio, system share ratio, compound the interests",
    "kind": "dev",
    "methods": {
      "owner()": {
        "details": "Returns the address of the current owner."
      },
      "renounceOwnership()": {
        "details": "Leaves the contract without owner. It will not be possible to call `onlyOwner` functions anymore. Can only be called by the current owner. NOTE: Renouncing ownership will leave the contract without an owner, thereby removing any functionality that is only available to the owner."
      },
      "transferOwnership(address)": {
        "details": "Transfers ownership of the contract to a new account (`newOwner`). Can only be called by the current owner."
      }
    },
    "title": "CoreBridge_multipool is a bridge to connect Conflux POS pools and Exchange rooms ,deployed in core;",
    "version": 1
  },
  "userdoc": {
    "kind": "user",
    "methods": {},
    "notice": "Users cann't direct use this contract to participate Conflux PoS stake.",
    "version": 1
  }
}