{
  "contractName": "CoreBridge_multipool",
  "abi": [
    {
      "inputs": [],
      "stateMutability": "nonpayable",
      "type": "constructor"
    },
    {
      "anonymous": false,
      "inputs": [
        {
          "indexed": true,
          "internalType": "address",
          "name": "previousOwner",
          "type": "address"
        },
        {
          "indexed": true,
          "internalType": "address",
          "name": "newOwner",
          "type": "address"
        }
      ],
      "name": "OwnershipTransferred",
      "type": "event"
    },
    {
      "stateMutability": "payable",
      "type": "fallback"
    },
    {
      "inputs": [],
      "name": "CoreExroomAddress",
      "outputs": [
        {
          "internalType": "address",
          "name": "",
          "type": "address"
        }
      ],
      "stateMutability": "view",
      "type": "function"
    },
    {
      "inputs": [],
      "name": "PosIDinuse",
      "outputs": [
        {
          "internalType": "uint256",
          "name": "",
          "type": "uint256"
        }
      ],
      "stateMutability": "view",
      "type": "function"
    },
    {
      "inputs": [],
      "name": "ServicetreasuryAddress",
      "outputs": [
        {
          "internalType": "address",
          "name": "",
          "type": "address"
        }
      ],
      "stateMutability": "view",
      "type": "function"
    },
    {
      "inputs": [],
      "name": "bridgeeSpaceAddress",
      "outputs": [
        {
          "internalType": "address",
          "name": "",
          "type": "address"
        }
      ],
      "stateMutability": "view",
      "type": "function"
    },
    {
      "inputs": [],
      "name": "eSpaceExroomAddress",
      "outputs": [
        {
          "internalType": "address",
          "name": "",
          "type": "address"
        }
      ],
      "stateMutability": "view",
      "type": "function"
    },
    {
      "inputs": [],
      "name": "owner",
      "outputs": [
        {
          "internalType": "address",
          "name": "",
          "type": "address"
        }
      ],
      "stateMutability": "view",
      "type": "function"
    },
    {
      "inputs": [
        {
          "internalType": "uint256",
          "name": "",
          "type": "uint256"
        }
      ],
      "name": "poolAddress",
      "outputs": [
        {
          "internalType": "address",
          "name": "",
          "type": "address"
        }
      ],
      "stateMutability": "view",
      "type": "function"
    },
    {
      "inputs": [],
      "name": "poolUserShareRatio",
      "outputs": [
        {
          "internalType": "uint256",
          "name": "",
          "type": "uint256"
        }
      ],
      "stateMutability": "view",
      "type": "function"
    },
    {
      "inputs": [],
      "name": "renounceOwnership",
      "outputs": [],
      "stateMutability": "nonpayable",
      "type": "function"
    },
    {
      "inputs": [
        {
          "internalType": "address",
          "name": "newOwner",
          "type": "address"
        }
      ],
      "name": "transferOwnership",
      "outputs": [],
      "stateMutability": "nonpayable",
      "type": "function"
    },
    {
      "inputs": [],
      "name": "xCFXAddress",
      "outputs": [
        {
          "internalType": "address",
          "name": "",
          "type": "address"
        }
      ],
      "stateMutability": "view",
      "type": "function"
    },
    {
      "stateMutability": "payable",
      "type": "receive"
    },
    {
      "inputs": [],
      "name": "initialize",
      "outputs": [],
      "stateMutability": "nonpayable",
      "type": "function"
    },
    {
      "inputs": [
        {
          "internalType": "address",
          "name": "_poolAddress",
          "type": "address"
        }
      ],
      "name": "_addPoolAddress",
      "outputs": [],
      "stateMutability": "nonpayable",
      "type": "function"
    },
    {
      "inputs": [
        {
          "internalType": "address",
          "name": "_oldpoolAddress",
          "type": "address"
        },
        {
          "internalType": "address",
          "name": "_newpoolAddress",
          "type": "address"
        }
      ],
      "name": "_changePoolAddress",
      "outputs": [],
      "stateMutability": "nonpayable",
      "type": "function"
    },
    {
      "inputs": [
        {
          "internalType": "address",
          "name": "_oldpoolAddress",
          "type": "address"
        }
      ],
      "name": "_delePoolAddress",
      "outputs": [],
      "stateMutability": "nonpayable",
      "type": "function"
    },
    {
      "inputs": [
        {
          "internalType": "address",
          "name": "_eSpaceExroomAddress",
          "type": "address"
        }
      ],
      "name": "_seteSpaceExroomAddress",
      "outputs": [],
      "stateMutability": "nonpayable",
      "type": "function"
    },
    {
      "inputs": [
        {
          "internalType": "address",
          "name": "_eSpacexCFXaddr",
          "type": "address"
        }
      ],
      "name": "_seteSpacexCFXAddress",
      "outputs": [],
      "stateMutability": "nonpayable",
      "type": "function"
    },
    {
      "inputs": [
        {
          "internalType": "address",
          "name": "_bridgeeSpaceAddress",
          "type": "address"
        }
      ],
      "name": "_seteSpacebridgeAddress",
      "outputs": [],
      "stateMutability": "nonpayable",
      "type": "function"
    },
    {
      "inputs": [
        {
          "internalType": "address",
          "name": "_ServicetreasuryAddress",
          "type": "address"
        }
      ],
      "name": "_seteServicetreasuryAddress",
      "outputs": [],
      "stateMutability": "nonpayable",
      "type": "function"
    },
    {
      "inputs": [
        {
          "internalType": "address",
          "name": "_Address",
          "type": "address"
        },
        {
          "internalType": "bool",
          "name": "state",
          "type": "bool"
        }
      ],
      "name": "_settrustedtrigers",
      "outputs": [],
      "stateMutability": "nonpayable",
      "type": "function"
    },
    {
      "inputs": [
        {
          "internalType": "uint256",
          "name": "count",
          "type": "uint256"
        }
      ],
      "name": "_setCfxCountOfOneVote",
      "outputs": [],
      "stateMutability": "nonpayable",
      "type": "function"
    },
    {
      "inputs": [
        {
          "internalType": "uint64",
          "name": "ratio",
          "type": "uint64"
        }
      ],
      "name": "_setPoolUserShareRatio",
      "outputs": [],
      "stateMutability": "nonpayable",
      "type": "function"
    },
    {
      "inputs": [
        {
          "internalType": "address",
          "name": "_Address",
          "type": "address"
        }
      ],
      "name": "gettrigerstate",
      "outputs": [
        {
          "internalType": "bool",
          "name": "",
          "type": "bool"
        }
      ],
      "stateMutability": "view",
      "type": "function"
    },
    {
      "inputs": [],
      "name": "getPoolAddress",
      "outputs": [
        {
          "internalType": "address[]",
          "name": "",
          "type": "address[]"
        }
      ],
      "stateMutability": "view",
      "type": "function"
    },
    {
      "inputs": [],
      "name": "_clearTheStates",
      "outputs": [],
      "stateMutability": "nonpayable",
      "type": "function"
    },
    {
      "inputs": [],
      "name": "queryUnstakeLen",
      "outputs": [
        {
          "internalType": "uint256",
          "name": "",
          "type": "uint256"
        }
      ],
      "stateMutability": "view",
      "type": "function"
    },
    {
      "inputs": [],
      "name": "syncALLwork",
      "outputs": [
        {
          "internalType": "uint256[11]",
          "name": "infos",
          "type": "uint256[11]"
        }
      ],
      "stateMutability": "nonpayable",
      "type": "function"
    }
  ],
  "bytecode": "0x60806040526123286002556103e8600355683635c9adc5dea000006004553480156200002a57600080fd5b506200004b6200003f6200006160201b60201c565b6200006960201b60201c565b6200005b6200012d60201b60201c565b6200032f565b600033905090565b60008060009054906101000a900473ffffffffffffffffffffffffffffffffffffffff169050816000806101000a81548173ffffffffffffffffffffffffffffffffffffffff021916908373ffffffffffffffffffffffffffffffffffffffff1602179055508173ffffffffffffffffffffffffffffffffffffffff168173ffffffffffffffffffffffffffffffffffffffff167f8be0079c531659141344cd1fd0a4f28419497f9722a3daafe3b4186f6b6457e060405160405180910390a35050565b600060159054906101000a900460ff1680620001565750600060149054906101000a900460ff16155b62000198576040517f08c379a00000000000000000000000000000000000000000000000000000000081526004016200018f90620002ad565b60405180910390fd5b60008060159054906101000a900460ff161590508015620001ea576001600060156101000a81548160ff0219169083151502179055506001600060146101000a81548160ff0219169083151502179055505b730888000000000000000000000000000000000006600160006101000a81548173ffffffffffffffffffffffffffffffffffffffff021916908373ffffffffffffffffffffffffffffffffffffffff1602179055506123286002819055506103e8600381905550683635c9adc5dea000006004819055508015620002835760008060156101000a81548160ff0219169083151502179055505b50565b600062000295602e83620002cf565b9150620002a282620002e0565b604082019050919050565b60006020820190508181036000830152620002c88162000286565b9050919050565b600082825260208201905092915050565b7f496e697469616c697a61626c653a20636f6e747261637420697320616c72656160008201527f647920696e697469616c697a6564000000000000000000000000000000000000602082015250565b6147c7806200033f6000396000f3fe6080604052600436106101a05760003560e01c806367a1aa4f116100ec578063af76e4ee1161008a578063da9da52611610064578063da9da5261461055c578063f2fde38b14610599578063f4f92cef146105c2578063f586c6d9146105d9576101a7565b8063af76e4ee146104df578063bb46911014610508578063d49d416d14610533576101a7565b80638cfe6b9a116100c65780638cfe6b9a146104375780638da5cb5b14610460578063986e08b61461048b578063a432506e146104b6576101a7565b806367a1aa4f146103de578063715018a6146104095780638129fc1c14610420576101a7565b806348a2a03f11610159578063513d038e11610133578063513d038e1461033857806358f4d48e146103615780635c4150c71461038a57806364233ba6146103b5576101a7565b806348a2a03f146102b95780634e141b4e146102e2578063505f53d41461030d576101a7565b8063175b80b2146101a95780631d2107a7146101d4578063231da72f146101fd5780633a7e2d9a146102285780633e7321b514610251578063438dd6471461027c576101a7565b366101a757005b005b3480156101b557600080fd5b506101be610604565b6040516101cb9190614128565b60405180910390f35b3480156101e057600080fd5b506101fb60048036038101906101f69190613b44565b61060a565b005b34801561020957600080fd5b506102126106ca565b60405161021f9190613f69565b60405180910390f35b34801561023457600080fd5b5061024f600480360381019061024a9190613c4f565b6106f0565b005b34801561025d57600080fd5b50610266610790565b6040516102739190613f69565b60405180910390f35b34801561028857600080fd5b506102a3600480360381019061029e9190613b44565b6107b6565b6040516102b09190613fc2565b60405180910390f35b3480156102c557600080fd5b506102e060048036038101906102db9190613b44565b61080c565b005b3480156102ee57600080fd5b506102f76108cc565b6040516103049190613f69565b60405180910390f35b34801561031957600080fd5b506103226108f2565b60405161032f9190614128565b60405180910390f35b34801561034457600080fd5b5061035f600480360381019061035a9190613b44565b610a6a565b005b34801561036d57600080fd5b5061038860048036038101906103839190613b44565b610b2a565b005b34801561039657600080fd5b5061039f610dcc565b6040516103ac9190613f69565b60405180910390f35b3480156103c157600080fd5b506103dc60048036038101906103d79190613b44565b610df2565b005b3480156103ea57600080fd5b506103f3610ed4565b6040516104009190614128565b60405180910390f35b34801561041557600080fd5b5061041e610eda565b005b34801561042c57600080fd5b50610435610f62565b005b34801561044357600080fd5b5061045e60048036038101906104599190613b6d565b6110b5565b005b34801561046c57600080fd5b5061047561127b565b6040516104829190613f69565b60405180910390f35b34801561049757600080fd5b506104a06112a4565b6040516104ad9190613fa6565b60405180910390f35b3480156104c257600080fd5b506104dd60048036038101906104d89190613b44565b611653565b005b3480156104eb57600080fd5b5061050660048036038101906105019190613ca1565b611713565b005b34801561051457600080fd5b5061051d611808565b60405161052a9190613f69565b60405180910390f35b34801561053f57600080fd5b5061055a60048036038101906105559190613ba9565b61182e565b005b34801561056857600080fd5b50610583600480360381019061057e9190613c4f565b611905565b6040516105909190613f69565b60405180910390f35b3480156105a557600080fd5b506105c060048036038101906105bb9190613b44565b611944565b005b3480156105ce57600080fd5b506105d7611a3c565b005b3480156105e557600080fd5b506105ee611ac2565b6040516105fb9190613f84565b60405180910390f35b60065481565b610612611b50565b73ffffffffffffffffffffffffffffffffffffffff1661063061127b565b73ffffffffffffffffffffffffffffffffffffffff1614610686576040517f08c379a000000000000000000000000000000000000000000000000000000000815260040161067d906140c8565b60405180910390fd5b80600760006101000a81548173ffffffffffffffffffffffffffffffffffffffff021916908373ffffffffffffffffffffffffffffffffffffffff16021790555050565b600760009054906101000a900473ffffffffffffffffffffffffffffffffffffffff1681565b6106f8611b50565b73ffffffffffffffffffffffffffffffffffffffff1661071661127b565b73ffffffffffffffffffffffffffffffffffffffff161461076c576040517f08c379a0000000000000000000000000000000000000000000000000000000008152600401610763906140c8565b60405180910390fd5b80600381905550670de0b6b3a76400008161078791906142ce565b60048190555050565b600860009054906101000a900473ffffffffffffffffffffffffffffffffffffffff1681565b6000600f60008373ffffffffffffffffffffffffffffffffffffffff1673ffffffffffffffffffffffffffffffffffffffff16815260200190815260200160002060009054906101000a900460ff169050919050565b610814611b50565b73ffffffffffffffffffffffffffffffffffffffff1661083261127b565b73ffffffffffffffffffffffffffffffffffffffff1614610888576040517f08c379a000000000000000000000000000000000000000000000000000000000815260040161087f906140c8565b60405180910390fd5b80600a60006101000a81548173ffffffffffffffffffffffffffffffffffffffff021916908373ffffffffffffffffffffffffffffffffffffffff16021790555050565b600b60009054906101000a900473ffffffffffffffffffffffffffffffffffffffff1681565b600080600160009054906101000a900473ffffffffffffffffffffffffffffffffffffffff1673ffffffffffffffffffffffffffffffffffffffff166330b4ef7d600860009054906101000a900473ffffffffffffffffffffffffffffffffffffffff1660601b6040516024016040516020818303038152906040527fc7ff5d6e000000000000000000000000000000000000000000000000000000007bffffffffffffffffffffffffffffffffffffffffffffffffffffffff19166020820180517bffffffffffffffffffffffffffffffffffffffffffffffffffffffff83818316178352505050506040518363ffffffff1660e01b81526004016109f9929190613ff8565b60006040518083038186803b158015610a1157600080fd5b505afa158015610a25573d6000803e3d6000fd5b505050506040513d6000823e3d601f19601f82011682018060405250810190610a4e9190613be5565b905080806020019051810190610a649190613c78565b91505090565b610a72611b50565b73ffffffffffffffffffffffffffffffffffffffff16610a9061127b565b73ffffffffffffffffffffffffffffffffffffffff1614610ae6576040517f08c379a0000000000000000000000000000000000000000000000000000000008152600401610add906140c8565b60405180910390fd5b80600960006101000a81548173ffffffffffffffffffffffffffffffffffffffff021916908373ffffffffffffffffffffffffffffffffffffffff16021790555050565b610b32611b50565b73ffffffffffffffffffffffffffffffffffffffff16610b5061127b565b73ffffffffffffffffffffffffffffffffffffffff1614610ba6576040517f08c379a0000000000000000000000000000000000000000000000000000000008152600401610b9d906140c8565b60405180910390fd5b6000600580549050905060005b81811015610dc7578273ffffffffffffffffffffffffffffffffffffffff1660058281548110610c0c577f4e487b7100000000000000000000000000000000000000000000000000000000600052603260045260246000fd5b9060005260206000200160009054906101000a900473ffffffffffffffffffffffffffffffffffffffff1673ffffffffffffffffffffffffffffffffffffffff161415610db4576005600183610c629190614328565b81548110610c99577f4e487b7100000000000000000000000000000000000000000000000000000000600052603260045260246000fd5b9060005260206000200160009054906101000a900473ffffffffffffffffffffffffffffffffffffffff1660058281548110610cfe577f4e487b7100000000000000000000000000000000000000000000000000000000600052603260045260246000fd5b9060005260206000200160006101000a81548173ffffffffffffffffffffffffffffffffffffffff021916908373ffffffffffffffffffffffffffffffffffffffff1602179055506005805480610d7e577f4e487b7100000000000000000000000000000000000000000000000000000000600052603160045260246000fd5b6001900381819060005260206000200160006101000a81549073ffffffffffffffffffffffffffffffffffffffff021916905590555b8080610dbf90614448565b915050610bb3565b505050565b600960009054906101000a900473ffffffffffffffffffffffffffffffffffffffff1681565b610dfa611b50565b73ffffffffffffffffffffffffffffffffffffffff16610e1861127b565b73ffffffffffffffffffffffffffffffffffffffff1614610e6e576040517f08c379a0000000000000000000000000000000000000000000000000000000008152600401610e65906140c8565b60405180910390fd5b6005819080600181540180825580915050600190039060005260206000200160009091909190916101000a81548173ffffffffffffffffffffffffffffffffffffffff021916908373ffffffffffffffffffffffffffffffffffffffff16021790555050565b60025481565b610ee2611b50565b73ffffffffffffffffffffffffffffffffffffffff16610f0061127b565b73ffffffffffffffffffffffffffffffffffffffff1614610f56576040517f08c379a0000000000000000000000000000000000000000000000000000000008152600401610f4d906140c8565b60405180910390fd5b610f606000611b58565b565b600060159054906101000a900460ff1680610f8a5750600060149054906101000a900460ff16155b610fc9576040517f08c379a0000000000000000000000000000000000000000000000000000000008152600401610fc090614088565b60405180910390fd5b60008060159054906101000a900460ff16159050801561101a576001600060156101000a81548160ff0219169083151502179055506001600060146101000a81548160ff0219169083151502179055505b730888000000000000000000000000000000000006600160006101000a81548173ffffffffffffffffffffffffffffffffffffffff021916908373ffffffffffffffffffffffffffffffffffffffff1602179055506123286002819055506103e8600381905550683635c9adc5dea0000060048190555080156110b25760008060156101000a81548160ff0219169083151502179055505b50565b6110bd611b50565b73ffffffffffffffffffffffffffffffffffffffff166110db61127b565b73ffffffffffffffffffffffffffffffffffffffff1614611131576040517f08c379a0000000000000000000000000000000000000000000000000000000008152600401611128906140c8565b60405180910390fd5b6000600580549050905060005b81811015611275578373ffffffffffffffffffffffffffffffffffffffff1660058281548110611197577f4e487b7100000000000000000000000000000000000000000000000000000000600052603260045260246000fd5b9060005260206000200160009054906101000a900473ffffffffffffffffffffffffffffffffffffffff1673ffffffffffffffffffffffffffffffffffffffff161415611262578260058281548110611219577f4e487b7100000000000000000000000000000000000000000000000000000000600052603260045260246000fd5b9060005260206000200160006101000a81548173ffffffffffffffffffffffffffffffffffffffff021916908373ffffffffffffffffffffffffffffffffffffffff1602179055505b808061126d90614448565b91505061113e565b50505050565b60008060009054906101000a900473ffffffffffffffffffffffffffffffffffffffff16905090565b6112ac6139a0565b60011515600f60003373ffffffffffffffffffffffffffffffffffffffff1673ffffffffffffffffffffffffffffffffffffffff16815260200190815260200160002060009054906101000a900460ff1615151461133f576040517f08c379a000000000000000000000000000000000000000000000000000000000815260040161133690614068565b60405180910390fd5b611347611c1c565b816000600b8110611381577f4e487b7100000000000000000000000000000000000000000000000000000000600052603260045260246000fd5b602002018181525050611392611eba565b826001600b81106113cc577f4e487b7100000000000000000000000000000000000000000000000000000000600052603260045260246000fd5b60200201836002600b811061140a577f4e487b7100000000000000000000000000000000000000000000000000000000600052603260045260246000fd5b6020020182815250828152505050611420612491565b826003600b811061145a577f4e487b7100000000000000000000000000000000000000000000000000000000600052603260045260246000fd5b60200201836004600b8110611498577f4e487b7100000000000000000000000000000000000000000000000000000000600052603260045260246000fd5b60200201828152508281525050506114ae612acf565b816005600b81106114e8577f4e487b7100000000000000000000000000000000000000000000000000000000600052603260045260246000fd5b6020020181815250506114f9612df4565b836006600b8110611533577f4e487b7100000000000000000000000000000000000000000000000000000000600052603260045260246000fd5b60200201846007600b8110611571577f4e487b7100000000000000000000000000000000000000000000000000000000600052603260045260246000fd5b60200201856008600b81106115af577f4e487b7100000000000000000000000000000000000000000000000000000000600052603260045260246000fd5b602002018381525083815250838152505050506115ca613654565b826009600b8110611604577f4e487b7100000000000000000000000000000000000000000000000000000000600052603260045260246000fd5b6020020183600a600b8110611642577f4e487b7100000000000000000000000000000000000000000000000000000000600052603260045260246000fd5b602002018281525082815250505090565b61165b611b50565b73ffffffffffffffffffffffffffffffffffffffff1661167961127b565b73ffffffffffffffffffffffffffffffffffffffff16146116cf576040517f08c379a00000000000000000000000000000000000000000000000000000000081526004016116c6906140c8565b60405180910390fd5b80600860006101000a81548173ffffffffffffffffffffffffffffffffffffffff021916908373ffffffffffffffffffffffffffffffffffffffff16021790555050565b61171b611b50565b73ffffffffffffffffffffffffffffffffffffffff1661173961127b565b73ffffffffffffffffffffffffffffffffffffffff161461178f576040517f08c379a0000000000000000000000000000000000000000000000000000000008152600401611786906140c8565b60405180910390fd5b60008167ffffffffffffffff161180156117b557506127108167ffffffffffffffff1611155b6117f4576040517f08c379a00000000000000000000000000000000000000000000000000000000081526004016117eb906140e8565b60405180910390fd5b8067ffffffffffffffff1660028190555050565b600a60009054906101000a900473ffffffffffffffffffffffffffffffffffffffff1681565b611836611b50565b73ffffffffffffffffffffffffffffffffffffffff1661185461127b565b73ffffffffffffffffffffffffffffffffffffffff16146118aa576040517f08c379a00000000000000000000000000000000000000000000000000000000081526004016118a1906140c8565b60405180910390fd5b80600f60008473ffffffffffffffffffffffffffffffffffffffff1673ffffffffffffffffffffffffffffffffffffffff16815260200190815260200160002060006101000a81548160ff0219169083151502179055505050565b6005818154811061191557600080fd5b906000526020600020016000915054906101000a900473ffffffffffffffffffffffffffffffffffffffff1681565b61194c611b50565b73ffffffffffffffffffffffffffffffffffffffff1661196a61127b565b73ffffffffffffffffffffffffffffffffffffffff16146119c0576040517f08c379a00000000000000000000000000000000000000000000000000000000081526004016119b7906140c8565b60405180910390fd5b600073ffffffffffffffffffffffffffffffffffffffff168173ffffffffffffffffffffffffffffffffffffffff161415611a30576040517f08c379a0000000000000000000000000000000000000000000000000000000008152600401611a2790614028565b60405180910390fd5b611a3981611b58565b50565b611a44611b50565b73ffffffffffffffffffffffffffffffffffffffff16611a6261127b565b73ffffffffffffffffffffffffffffffffffffffff1614611ab8576040517f08c379a0000000000000000000000000000000000000000000000000000000008152600401611aaf906140c8565b60405180910390fd5b6000600e81905550565b60606005805480602002602001604051908101604052809291908181526020018280548015611b4657602002820191906000526020600020905b8160009054906101000a900473ffffffffffffffffffffffffffffffffffffffff1673ffffffffffffffffffffffffffffffffffffffff1681526020019060010190808311611afc575b5050505050905090565b600033905090565b60008060009054906101000a900473ffffffffffffffffffffffffffffffffffffffff169050816000806101000a81548173ffffffffffffffffffffffffffffffffffffffff021916908373ffffffffffffffffffffffffffffffffffffffff1602179055508173ffffffffffffffffffffffffffffffffffffffff168173ffffffffffffffffffffffffffffffffffffffff167f8be0079c531659141344cd1fd0a4f28419497f9722a3daafe3b4186f6b6457e060405160405180910390a35050565b600060011515600f60003373ffffffffffffffffffffffffffffffffffffffff1673ffffffffffffffffffffffffffffffffffffffff16815260200190815260200160002060009054906101000a900460ff16151514611cb1576040517f08c379a0000000000000000000000000000000000000000000000000000000008152600401611ca890614068565b60405180910390fd5b60006005805490509050600080600080600090505b84811015611e5f5760058181548110611d08577f4e487b7100000000000000000000000000000000000000000000000000000000600052603260045260246000fd5b9060005260206000200160009054906101000a900473ffffffffffffffffffffffffffffffffffffffff1693508373ffffffffffffffffffffffffffffffffffffffff1663e73e183b6040518163ffffffff1660e01b815260040160206040518083038186803b158015611d7b57600080fd5b505afa158015611d8f573d6000803e3d6000fd5b505050506040513d601f19601f82011682018060405250810190611db39190613c78565b92506000831115611e4c578373ffffffffffffffffffffffffffffffffffffffff16638270512f6040518163ffffffff1660e01b8152600401602060405180830381600087803b158015611e0657600080fd5b505af1158015611e1a573d6000803e3d6000fd5b505050506040513d601f19601f82011682018060405250810190611e3e9190613c78565b82611e499190614247565b91505b8080611e5790614448565b915050611cc6565b50611e96612710611e88600254612710611e799190614328565b8561397490919063ffffffff16565b61398a90919063ffffffff16565b600c6000828254611ea79190614247565b92505081905550600c5494505050505090565b60008060011515600f60003373ffffffffffffffffffffffffffffffffffffffff1673ffffffffffffffffffffffffffffffffffffffff16815260200190815260200160002060009054906101000a900460ff16151514611f50576040517f08c379a0000000000000000000000000000000000000000000000000000000008152600401611f4790614068565b60405180910390fd5b6000600e5414611f95576040517f08c379a0000000000000000000000000000000000000000000000000000000008152600401611f8c90614108565b60405180910390fd5b6001600e819055506000600c549050600080600c81905550600082111561212e576000600160009054906101000a900473ffffffffffffffffffffffffffffffffffffffff1673ffffffffffffffffffffffffffffffffffffffff1663bea05ee384600860009054906101000a900473ffffffffffffffffffffffffffffffffffffffff1660601b6040516024016040516020818303038152906040527fc9d1e7f6000000000000000000000000000000000000000000000000000000007bffffffffffffffffffffffffffffffffffffffffffffffffffffffff19166020820180517bffffffffffffffffffffffffffffffffffffffffffffffffffffffff83818316178352505050506040518463ffffffff1660e01b81526004016120bd929190613ff8565b6000604051808303818588803b1580156120d657600080fd5b505af11580156120ea573d6000803e3d6000fd5b50505050506040513d6000823e3d601f19601f820116820180604052508101906121149190613be5565b90508080602001905181019061212a9190613c78565b9150505b6000600160009054906101000a900473ffffffffffffffffffffffffffffffffffffffff1673ffffffffffffffffffffffffffffffffffffffff1663bea05ee3600860009054906101000a900473ffffffffffffffffffffffffffffffffffffffff1660601b600960009054906101000a900473ffffffffffffffffffffffffffffffffffffffff166040516024016121c79190613f69565b6040516020818303038152906040527f048e1dcc000000000000000000000000000000000000000000000000000000007bffffffffffffffffffffffffffffffffffffffffffffffffffffffff19166020820180517bffffffffffffffffffffffffffffffffffffffffffffffffffffffff83818316178352505050506040518363ffffffff1660e01b8152600401612261929190613ff8565b600060405180830381600087803b15801561227b57600080fd5b505af115801561228f573d6000803e3d6000fd5b505050506040513d6000823e3d601f19601f820116820180604052508101906122b89190613be5565b90506000818060200190518101906122d09190613c78565b9050600160009054906101000a900473ffffffffffffffffffffffffffffffffffffffff1673ffffffffffffffffffffffffffffffffffffffff1663c23ef031826040518263ffffffff1660e01b815260040161232d9190614128565b600060405180830381600087803b15801561234757600080fd5b505af115801561235b573d6000803e3d6000fd5b5050505060006123766004544761398a90919063ffffffff16565b905060008167ffffffffffffffff161115612475576005600654815481106123c7577f4e487b7100000000000000000000000000000000000000000000000000000000600052603260045260246000fd5b9060005260206000200160009054906101000a900473ffffffffffffffffffffffffffffffffffffffff1673ffffffffffffffffffffffffffffffffffffffff166309fecf7f6004548367ffffffffffffffff1661242591906142ce565b836040518363ffffffff1660e01b81526004016124429190614143565b6000604051808303818588803b15801561245b57600080fd5b505af115801561246f573d6000803e3d6000fd5b50505050505b83818067ffffffffffffffff1690509650965050505050509091565b60008060011515600f60003373ffffffffffffffffffffffffffffffffffffffff1673ffffffffffffffffffffffffffffffffffffffff16815260200190815260200160002060009054906101000a900460ff16151514612527576040517f08c379a000000000000000000000000000000000000000000000000000000000815260040161251e90614068565b60405180910390fd5b6001600e541461256c576040517f08c379a000000000000000000000000000000000000000000000000000000000815260040161256390614048565b60405180910390fd5b6002600e81905550600061257e6108f2565b905060006005600654815481106125be577f4e487b7100000000000000000000000000000000000000000000000000000000600052603260045260246000fd5b9060005260206000200160009054906101000a900473ffffffffffffffffffffffffffffffffffffffff16905060008173ffffffffffffffffffffffffffffffffffffffff16637571fcf66040518163ffffffff1660e01b815260040160e06040518083038186803b15801561263357600080fd5b505afa158015612647573d6000803e3d6000fd5b505050506040513d601f19601f8201168201806040525081019061266b9190613c26565b90506000612688600454836000015161397490919063ffffffff16565b905060606000808314156126aa576000600d5497509750505050505050612acb565b600160009054906101000a900473ffffffffffffffffffffffffffffffffffffffff1673ffffffffffffffffffffffffffffffffffffffff1663bea05ee3600860009054906101000a900473ffffffffffffffffffffffffffffffffffffffff1660601b6040516024016040516020818303038152906040527fda02d100000000000000000000000000000000000000000000000000000000007bffffffffffffffffffffffffffffffffffffffffffffffffffffffff19166020820180517bffffffffffffffffffffffffffffffffffffffffffffffffffffffff83818316178352505050506040518363ffffffff1660e01b81526004016127ae929190613ff8565b600060405180830381600087803b1580156127c857600080fd5b505af11580156127dc573d6000803e3d6000fd5b505050506040513d6000823e3d601f19601f820116820180604052508101906128059190613be5565b91508180602001905181019061281b9190613c78565b905060008114156128385760008097509750505050505050612acb565b828111156128525760008097509750505050505050612acb565b80600d60008282546128649190614247565b92505081905550600160009054906101000a900473ffffffffffffffffffffffffffffffffffffffff1673ffffffffffffffffffffffffffffffffffffffff1663bea05ee3600860009054906101000a900473ffffffffffffffffffffffffffffffffffffffff1660601b6040516024016040516020818303038152906040527fea8503d7000000000000000000000000000000000000000000000000000000007bffffffffffffffffffffffffffffffffffffffffffffffffffffffff19166020820180517bffffffffffffffffffffffffffffffffffffffffffffffffffffffff83818316178352505050506040518363ffffffff1660e01b815260040161296f929190613ff8565b600060405180830381600087803b15801561298957600080fd5b505af115801561299d573d6000803e3d6000fd5b505050506040513d6000823e3d601f19601f820116820180604052508101906129c69190613be5565b50600454600d541115612abc578473ffffffffffffffffffffffffffffffffffffffff1663beb99c1e612a06600454600d5461398a90919063ffffffff16565b6040518263ffffffff1660e01b8152600401612a229190614143565b600060405180830381600087803b158015612a3c57600080fd5b505af1158015612a50573d6000803e3d6000fd5b50505050612a6b600454600d5461398a90919063ffffffff16565b83612a769190614328565b9250612aa3600454612a95600454600d5461398a90919063ffffffff16565b61397490919063ffffffff16565b600d6000828254612ab49190614328565b925050819055505b85600d54975097505050505050505b9091565b600060011515600f60003373ffffffffffffffffffffffffffffffffffffffff1673ffffffffffffffffffffffffffffffffffffffff16815260200190815260200160002060009054906101000a900460ff16151514612b64576040517f08c379a0000000000000000000000000000000000000000000000000000000008152600401612b5b90614068565b60405180910390fd5b60006005805490509050600080600090505b82811015612c845760058181548110612bb8577f4e487b7100000000000000000000000000000000000000000000000000000000600052603260045260246000fd5b9060005260206000200160009054906101000a900473ffffffffffffffffffffffffffffffffffffffff1673ffffffffffffffffffffffffffffffffffffffff16637571fcf66040518163ffffffff1660e01b815260040160e06040518083038186803b158015612c2857600080fd5b505afa158015612c3c573d6000803e3d6000fd5b505050506040513d601f19601f82011682018060405250810190612c609190613c26565b6040015182612c6f9190614247565b91508080612c7c90614448565b915050612b76565b50600160009054906101000a900473ffffffffffffffffffffffffffffffffffffffff1673ffffffffffffffffffffffffffffffffffffffff1663bea05ee3600860009054906101000a900473ffffffffffffffffffffffffffffffffffffffff1660601b83604051602401612cfa9190614128565b6040516020818303038152906040527f1864ec44000000000000000000000000000000000000000000000000000000007bffffffffffffffffffffffffffffffffffffffffffffffffffffffff19166020820180517bffffffffffffffffffffffffffffffffffffffffffffffffffffffff83818316178352505050506040518363ffffffff1660e01b8152600401612d94929190613ff8565b600060405180830381600087803b158015612dae57600080fd5b505af1158015612dc2573d6000803e3d6000fd5b505050506040513d6000823e3d601f19601f82011682018060405250810190612deb9190613be5565b50809250505090565b600080600060011515600f60003373ffffffffffffffffffffffffffffffffffffffff1673ffffffffffffffffffffffffffffffffffffffff16815260200190815260200160002060009054906101000a900460ff16151514612e8c576040517f08c379a0000000000000000000000000000000000000000000000000000000008152600401612e8390614068565b60405180910390fd5b6002600e5414612ed1576040517f08c379a0000000000000000000000000000000000000000000000000000000008152600401612ec8906140a8565b60405180910390fd5b6000600e819055506000600160009054906101000a900473ffffffffffffffffffffffffffffffffffffffff1673ffffffffffffffffffffffffffffffffffffffff1663bea05ee3600860009054906101000a900473ffffffffffffffffffffffffffffffffffffffff1660601b600960009054906101000a900473ffffffffffffffffffffffffffffffffffffffff16604051602401612f729190613f69565b6040516020818303038152906040527f048e1dcc000000000000000000000000000000000000000000000000000000007bffffffffffffffffffffffffffffffffffffffffffffffffffffffff19166020820180517bffffffffffffffffffffffffffffffffffffffffffffffffffffffff83818316178352505050506040518363ffffffff1660e01b815260040161300c929190613ff8565b600060405180830381600087803b15801561302657600080fd5b505af115801561303a573d6000803e3d6000fd5b505050506040513d6000823e3d601f19601f820116820180604052508101906130639190613be5565b905060008180602001905181019061307b9190613c78565b90506000600160009054906101000a900473ffffffffffffffffffffffffffffffffffffffff1673ffffffffffffffffffffffffffffffffffffffff1663bea05ee3600760009054906101000a900473ffffffffffffffffffffffffffffffffffffffff1660601b6040516024016040516020818303038152906040527f18160ddd000000000000000000000000000000000000000000000000000000007bffffffffffffffffffffffffffffffffffffffffffffffffffffffff19166020820180517bffffffffffffffffffffffffffffffffffffffffffffffffffffffff83818316178352505050506040518363ffffffff1660e01b8152600401613183929190613ff8565b600060405180830381600087803b15801561319d57600080fd5b505af11580156131b1573d6000803e3d6000fd5b505050506040513d6000823e3d601f19601f820116820180604052508101906131da9190613be5565b90506000818060200190518101906131f29190613c78565b9050600047846132029190614247565b905060006005805490509050600080600090505b828110156133245760058181548110613258577f4e487b7100000000000000000000000000000000000000000000000000000000600052603260045260246000fd5b9060005260206000200160009054906101000a900473ffffffffffffffffffffffffffffffffffffffff1673ffffffffffffffffffffffffffffffffffffffff16637571fcf66040518163ffffffff1660e01b815260040160e06040518083038186803b1580156132c857600080fd5b505afa1580156132dc573d6000803e3d6000fd5b505050506040513d601f19601f820116820180604052508101906133009190613c26565b600001518261330f9190614247565b9150808061331c90614448565b915050613216565b50600061337985670de0b6b3a7640000600d5461334c6004548761397490919063ffffffff16565b886133579190614247565b6133619190614328565b61336b91906142ce565b61398a90919063ffffffff16565b9050600160009054906101000a900473ffffffffffffffffffffffffffffffffffffffff1673ffffffffffffffffffffffffffffffffffffffff1663bea05ee3600860009054906101000a900473ffffffffffffffffffffffffffffffffffffffff1660601b836040516024016133f09190614128565b6040516020818303038152906040527f21e2f533000000000000000000000000000000000000000000000000000000007bffffffffffffffffffffffffffffffffffffffffffffffffffffffff19166020820180517bffffffffffffffffffffffffffffffffffffffffffffffffffffffff83818316178352505050506040518363ffffffff1660e01b815260040161348a929190613ff8565b600060405180830381600087803b1580156134a457600080fd5b505af11580156134b8573d6000803e3d6000fd5b505050506040513d6000823e3d601f19601f820116820180604052508101906134e19190613be5565b50600160009054906101000a900473ffffffffffffffffffffffffffffffffffffffff1673ffffffffffffffffffffffffffffffffffffffff1663bea05ee3600860009054906101000a900473ffffffffffffffffffffffffffffffffffffffff1660601b6040516024016040516020818303038152906040527f0e08e702000000000000000000000000000000000000000000000000000000007bffffffffffffffffffffffffffffffffffffffffffffffffffffffff19166020820180517bffffffffffffffffffffffffffffffffffffffffffffffffffffffff83818316178352505050506040518363ffffffff1660e01b81526004016135e6929190613ff8565b600060405180830381600087803b15801561360057600080fd5b505af1158015613614573d6000803e3d6000fd5b505050506040513d6000823e3d601f19601f8201168201806040525081019061363d9190613be5565b508382829a509a509a505050505050505050909192565b60008060011515600f60003373ffffffffffffffffffffffffffffffffffffffff1673ffffffffffffffffffffffffffffffffffffffff16815260200190815260200160002060009054906101000a900460ff161515146136ea576040517f08c379a00000000000000000000000000000000000000000000000000000000081526004016136e190614068565b60405180910390fd5b60006005805490509050600080600080600090505b848110156139655760058181548110613741577f4e487b7100000000000000000000000000000000000000000000000000000000600052603260045260246000fd5b9060005260206000200160009054906101000a900473ffffffffffffffffffffffffffffffffffffffff16935060008473ffffffffffffffffffffffffffffffffffffffff16637571fcf66040518163ffffffff1660e01b815260040160e06040518083038186803b1580156137b657600080fd5b505afa1580156137ca573d6000803e3d6000fd5b505050506040513d601f19601f820116820180604052508101906137ee9190613c26565b9050806080015193506000841115613951578473ffffffffffffffffffffffffffffffffffffffff1663bed9d8616040518163ffffffff1660e01b8152600401600060405180830381600087803b15801561384857600080fd5b505af115801561385c573d6000803e3d6000fd5b50505050683635c9adc5dea000008461387591906142ce565b9250600160009054906101000a900473ffffffffffffffffffffffffffffffffffffffff1673ffffffffffffffffffffffffffffffffffffffff1663da8d5daf84600860009054906101000a900473ffffffffffffffffffffffffffffffffffffffff1660601b6040518363ffffffff1660e01b81526004016138f89190613fdd565b6000604051808303818588803b15801561391157600080fd5b505af1158015613925573d6000803e3d6000fd5b50505050506040513d6000823e3d601f19601f8201168201806040525081019061394f9190613be5565b505b50808061395d90614448565b9150506136ff565b50818195509550505050509091565b6000818361398291906142ce565b905092915050565b60008183613998919061429d565b905092915050565b604051806101600160405280600b90602082028036833780820191505090505090565b60006139d66139d184614183565b61415e565b9050828152602081018484840111156139ee57600080fd5b6139f98482856143e4565b509392505050565b600081359050613a1081614735565b92915050565b600081359050613a258161474c565b92915050565b600082601f830112613a3c57600080fd5b8151613a4c8482602086016139c3565b91505092915050565b600060e08284031215613a6757600080fd5b613a7160e061415e565b90506000613a8184828501613b1a565b6000830152506020613a9584828501613b1a565b6020830152506040613aa984828501613b1a565b6040830152506060613abd84828501613b1a565b6060830152506080613ad184828501613b1a565b60808301525060a0613ae584828501613b1a565b60a08301525060c0613af984828501613b1a565b60c08301525092915050565b600081359050613b1481614763565b92915050565b600081519050613b2981614763565b92915050565b600081359050613b3e8161477a565b92915050565b600060208284031215613b5657600080fd5b6000613b6484828501613a01565b91505092915050565b60008060408385031215613b8057600080fd5b6000613b8e85828601613a01565b9250506020613b9f85828601613a01565b9150509250929050565b60008060408385031215613bbc57600080fd5b6000613bca85828601613a01565b9250506020613bdb85828601613a16565b9150509250929050565b600060208284031215613bf757600080fd5b600082015167ffffffffffffffff811115613c1157600080fd5b613c1d84828501613a2b565b91505092915050565b600060e08284031215613c3857600080fd5b6000613c4684828501613a55565b91505092915050565b600060208284031215613c6157600080fd5b6000613c6f84828501613b05565b91505092915050565b600060208284031215613c8a57600080fd5b6000613c9884828501613b1a565b91505092915050565b600060208284031215613cb357600080fd5b6000613cc184828501613b2f565b91505092915050565b6000613cd68383613cfa565b60208301905092915050565b6000613cee8383613f3c565b60208301905092915050565b613d038161435c565b82525050565b613d128161435c565b82525050565b6000613d23826141ce565b613d2d8185614209565b9350613d38836141b4565b8060005b83811015613d69578151613d508882613cca565b9750613d5b836141ef565b925050600181019050613d3c565b5085935050505092915050565b613d7f816141d9565b613d89818461421a565b9250613d94826141c4565b8060005b83811015613dc5578151613dac8782613ce2565b9650613db7836141fc565b925050600181019050613d98565b505050505050565b613dd68161436e565b82525050565b613de58161437a565b82525050565b6000613df6826141e4565b613e008185614225565b9350613e108185602086016143e4565b613e198161451e565b840191505092915050565b6000613e31602683614236565b9150613e3c8261452f565b604082019050919050565b6000613e54602283614236565b9150613e5f8261457e565b604082019050919050565b6000613e77601783614236565b9150613e82826145cd565b602082019050919050565b6000613e9a602e83614236565b9150613ea5826145f6565b604082019050919050565b6000613ebd602283614236565b9150613ec882614645565b604082019050919050565b6000613ee0602083614236565b9150613eeb82614694565b602082019050919050565b6000613f03601783614236565b9150613f0e826146bd565b602082019050919050565b6000613f26602283614236565b9150613f31826146e6565b604082019050919050565b613f45816143c6565b82525050565b613f54816143c6565b82525050565b613f63816143d0565b82525050565b6000602082019050613f7e6000830184613d09565b92915050565b60006020820190508181036000830152613f9e8184613d18565b905092915050565b600061016082019050613fbc6000830184613d76565b92915050565b6000602082019050613fd76000830184613dcd565b92915050565b6000602082019050613ff26000830184613ddc565b92915050565b600060408201905061400d6000830185613ddc565b818103602083015261401f8184613deb565b90509392505050565b6000602082019050818103600083015261404181613e24565b9050919050565b6000602082019050818103600083015261406181613e47565b9050919050565b6000602082019050818103600083015261408181613e6a565b9050919050565b600060208201905081810360008301526140a181613e8d565b9050919050565b600060208201905081810360008301526140c181613eb0565b9050919050565b600060208201905081810360008301526140e181613ed3565b9050919050565b6000602082019050818103600083015261410181613ef6565b9050919050565b6000602082019050818103600083015261412181613f19565b9050919050565b600060208201905061413d6000830184613f4b565b92915050565b60006020820190506141586000830184613f5a565b92915050565b6000614168614179565b90506141748282614417565b919050565b6000604051905090565b600067ffffffffffffffff82111561419e5761419d6144ef565b5b6141a78261451e565b9050602081019050919050565b6000819050602082019050919050565b6000819050919050565b600081519050919050565b6000600b9050919050565b600081519050919050565b6000602082019050919050565b6000602082019050919050565b600082825260208201905092915050565b600081905092915050565b600082825260208201905092915050565b600082825260208201905092915050565b6000614252826143c6565b915061425d836143c6565b9250827fffffffffffffffffffffffffffffffffffffffffffffffffffffffffffffffff0382111561429257614291614491565b5b828201905092915050565b60006142a8826143c6565b91506142b3836143c6565b9250826142c3576142c26144c0565b5b828204905092915050565b60006142d9826143c6565b91506142e4836143c6565b9250817fffffffffffffffffffffffffffffffffffffffffffffffffffffffffffffffff048311821515161561431d5761431c614491565b5b828202905092915050565b6000614333826143c6565b915061433e836143c6565b92508282101561435157614350614491565b5b828203905092915050565b6000614367826143a6565b9050919050565b60008115159050919050565b60007fffffffffffffffffffffffffffffffffffffffff00000000000000000000000082169050919050565b600073ffffffffffffffffffffffffffffffffffffffff82169050919050565b6000819050919050565b600067ffffffffffffffff82169050919050565b60005b838110156144025780820151818401526020810190506143e7565b83811115614411576000848401525b50505050565b6144208261451e565b810181811067ffffffffffffffff8211171561443f5761443e6144ef565b5b80604052505050565b6000614453826143c6565b91507fffffffffffffffffffffffffffffffffffffffffffffffffffffffffffffffff82141561448657614485614491565b5b600182019050919050565b7f4e487b7100000000000000000000000000000000000000000000000000000000600052601160045260246000fd5b7f4e487b7100000000000000000000000000000000000000000000000000000000600052601260045260246000fd5b7f4e487b7100000000000000000000000000000000000000000000000000000000600052604160045260246000fd5b6000601f19601f8301169050919050565b7f4f776e61626c653a206e6577206f776e657220697320746865207a65726f206160008201527f6464726573730000000000000000000000000000000000000000000000000000602082015250565b7f6964656e746966696572206973206e6f742072696768742c206e65656420626560008201527f2031000000000000000000000000000000000000000000000000000000000000602082015250565b7f74726967657273206d7573742062652074727573746564000000000000000000600082015250565b7f496e697469616c697a61626c653a20636f6e747261637420697320616c72656160008201527f647920696e697469616c697a6564000000000000000000000000000000000000602082015250565b7f6964656e746966696572206973206e6f742072696768742c206e65656420626560008201527f2032000000000000000000000000000000000000000000000000000000000000602082015250565b7f4f776e61626c653a2063616c6c6572206973206e6f7420746865206f776e6572600082015250565b7f726174696f2073686f756c6420626520312d3130303030000000000000000000600082015250565b7f6964656e746966696572206973206e6f742072696768742c206e65656420626560008201527f2030000000000000000000000000000000000000000000000000000000000000602082015250565b61473e8161435c565b811461474957600080fd5b50565b6147558161436e565b811461476057600080fd5b50565b61476c816143c6565b811461477757600080fd5b50565b614783816143d0565b811461478e57600080fd5b5056fea2646970667358221220356fb957d9aa47b4dc2cafd0a0ea8f03248b58a6f213d1497df852730b14b0ba64736f6c63430008020033",
  "immutableReferences": {},
  "source": "//SPDX-License-Identifier: BUSL-1.1\r\n// Licensor:            X-Dao.\r\n// Licensed Work:       NUCLEON 1.0\r\n\r\npragma solidity ^0.8.0;\r\nimport \"@openzeppelin/contracts/utils/math/SafeMath.sol\";\r\nimport \"@openzeppelin/contracts/access/Ownable.sol\";\r\nimport \"@openzeppelin/contracts/token/ERC20/IERC20.sol\";\r\nimport \"@openzeppelin/contracts/proxy/utils/Initializable.sol\";\r\nimport \"../ICrossSpaceCall.sol\";\r\nimport \"../IExchange.sol\";\r\n///\r\n///  @title CoreBridge_multipool is a bridge to connect Conflux POS pools and Exchange rooms ,deployed in core;\r\n///  @dev This contract set the user share ratio, system share ratio, \r\n///  @dev compound the interests\r\n///  @notice Users cann't direct use this contract to participate Conflux PoS stake.\r\n///\r\ncontract CoreBridge_multipool is Ownable, Initializable {\r\n  using SafeMath for uint256;\r\n  CrossSpaceCall internal crossSpaceCall;\r\n\r\n  uint256 private constant RATIO_BASE = 10000;\r\n  // ratio shared by user: 1-10000\r\n  uint256 public poolUserShareRatio = 9000;\r\n  uint256 CFX_COUNT_OF_ONE_VOTE = 1000;\r\n  uint256 CFX_VALUE_OF_ONE_VOTE = 1000 ether;\r\n\r\n  address[] public poolAddress;               //can use many pools, so here is an array\r\n  uint256   public PosIDinuse;                //pos pool in use\r\n  //eSpace address\r\n  address   public xCFXAddress;               //xCFX addr in espace \r\n  address   public eSpaceExroomAddress;       //Exchange room Address in espace\r\n  address   public bridgeeSpaceAddress;       //address of bridge in espace\r\n  address   public ServicetreasuryAddress;    //Service treasury Address in espace\r\n  //Core Space address\r\n  address   public CoreExroomAddress;         //Exchange room Address in core\r\n  uint256   private systemCFXInterestsTemp;    //pools cfx interests in temporary\r\n\r\n  uint256 Unstakebalanceinbridge;             //Unstaked balance\r\n  uint256 identifier;                         //compound and update order identifier\r\n\r\n  mapping(address=>bool) trusted_node_trigers;//     \r\n  // ======================== Struct definitions =========================\r\n  struct PoolSummary {\r\n    uint256 xCFXSUM;             // xCFX SUM (1 ether xCFX === 1 e18)\r\n    uint256 totalInterest;       // PoS pool interests for all xCFX\r\n    uint256 CFXbalances;         // CFX balances in bridge\r\n    uint256 historical_Interest ;// total historical interest of whole pools\r\n  }\r\n\r\n  constructor () {\r\n    initialize();\r\n  }\r\n  // ============================ Modifiers ===============================\r\n\r\n  modifier Only_trusted_trigers() {\r\n    require(trusted_node_trigers[msg.sender]==true,'trigers must be trusted');\r\n    _;\r\n  }\r\n  // ================== Methods for core pos pools settings ===============\r\n\r\n  function initialize() public initializer{\r\n    crossSpaceCall = CrossSpaceCall(0x0888000000000000000000000000000000000006);\r\n    poolUserShareRatio = 9000;\r\n    CFX_COUNT_OF_ONE_VOTE = 1000;\r\n    CFX_VALUE_OF_ONE_VOTE = 1000 ether;\r\n  }\r\n\r\n  function _addPoolAddress(address _poolAddress) public onlyOwner {\r\n    poolAddress.push(_poolAddress);\r\n  }\r\n\r\n  function _changePoolAddress(address _oldpoolAddress,address _newpoolAddress) public onlyOwner {\r\n    uint256 pool_sum = poolAddress.length;\r\n    for(uint256 i=0;i<pool_sum;i++)\r\n    {\r\n        if(poolAddress[i]==_oldpoolAddress)\r\n        {\r\n            poolAddress[i]=_newpoolAddress;\r\n        }\r\n    }\r\n  }\r\n  function _delePoolAddress(address _oldpoolAddress) public onlyOwner {\r\n    uint256 pool_sum = poolAddress.length;\r\n    for(uint256 i=0;i<pool_sum;i++)\r\n    {\r\n        if(poolAddress[i]==_oldpoolAddress)\r\n        {\r\n            poolAddress[i]= poolAddress[pool_sum-1];\r\n            poolAddress.pop();\r\n        }\r\n    }\r\n  }\r\n\r\n  function _seteSpaceExroomAddress(address _eSpaceExroomAddress) public onlyOwner {\r\n    eSpaceExroomAddress = _eSpaceExroomAddress;\r\n  }\r\n  function _seteSpacexCFXAddress(address _eSpacexCFXaddr) public onlyOwner {\r\n    xCFXAddress = _eSpacexCFXaddr;\r\n  }\r\n  function _seteSpacebridgeAddress(address _bridgeeSpaceAddress) public onlyOwner {\r\n    bridgeeSpaceAddress = _bridgeeSpaceAddress;\r\n  }\r\n  function _seteServicetreasuryAddress(address _ServicetreasuryAddress) public onlyOwner {\r\n    ServicetreasuryAddress = _ServicetreasuryAddress;\r\n  }\r\n  \r\n  function _settrustedtrigers(address _Address,bool state) public onlyOwner {\r\n    trusted_node_trigers[_Address] = state;\r\n  }\r\n\r\n  /// @param count Vote cfx count, unit is cfx\r\n  function _setCfxCountOfOneVote(uint256 count) public onlyOwner {\r\n    CFX_COUNT_OF_ONE_VOTE = count;\r\n    CFX_VALUE_OF_ONE_VOTE = count * 1 ether;\r\n  }\r\n\r\n  function _setPoolUserShareRatio(uint64 ratio) public onlyOwner {\r\n    require(ratio > 0 && ratio <= RATIO_BASE, \"ratio should be 1-10000\");\r\n    poolUserShareRatio = ratio;\r\n  }\r\n  function gettrigerstate(address _Address) public view returns(bool){\r\n    return trusted_node_trigers[_Address];\r\n  }\r\n  function getPoolAddress() public view returns (address[] memory ) {\r\n    return poolAddress;\r\n  }\r\n  function _clearTheStates() public onlyOwner {\r\n    identifier = 0;\r\n  }\r\n\r\n  //------------------------espace method---------------------------------\r\n\r\n  function queryespacexCFXincrease() internal returns (uint256) {\r\n    bytes memory rawCrossingVotes = crossSpaceCall.callEVM(bytes20(eSpaceExroomAddress), abi.encodeWithSignature(\"crossingVotes()\"));\r\n    return abi.decode(rawCrossingVotes, (uint256));\r\n  }\r\n\r\n  function queryUnstakeLen() public view returns (uint256) {\r\n    bytes memory rawUnstakeLen = crossSpaceCall.staticCallEVM(bytes20(eSpaceExroomAddress), abi.encodeWithSignature(\"unstakeLen()\"));\r\n    return abi.decode(rawUnstakeLen, (uint256));\r\n  }\r\n\r\n  //-------------------core pool method------------------------------------\r\n  function queryInterest(uint256 _num) internal view returns (uint256) {\r\n    IExchange posPool = IExchange(poolAddress[_num]);\r\n    uint256 interest = posPool.temp_Interest();\r\n    return interest;\r\n  }\r\n\r\n  //---------------------bridge method-------------------------------------\r\n  function syncALLwork() public Only_trusted_trigers returns(uint256[11] memory infos){\r\n    infos[0] = claimInterests();\r\n    (infos[1],infos[2]) = campounds();\r\n    (infos[3],infos[4]) = handleUnstake();\r\n    infos[5] = handleLockedvotesSUM();\r\n    (infos[6],infos[7],infos[8]) = SyncValue();\r\n    (infos[9],infos[10]) = withdrawVotes();\r\n    return infos;\r\n  }\r\n\r\n  function claimInterests() internal Only_trusted_trigers returns(uint256){\r\n    uint256 pool_sum = poolAddress.length;\r\n    IExchange posPool;\r\n    uint256 interest;\r\n    uint256 allinterest;\r\n    for(uint256 i=0;i<pool_sum;i++)\r\n    {\r\n      posPool = IExchange(poolAddress[i]);\r\n      interest = posPool.temp_Interest();\r\n      if (interest > 0) {\r\n        allinterest += posPool.claimAllInterest(); \r\n      }\r\n    }\r\n    systemCFXInterestsTemp += interest.mul(RATIO_BASE-poolUserShareRatio).div(RATIO_BASE);\r\n    return systemCFXInterestsTemp;\r\n  }\r\n  \r\n  function campounds() internal Only_trusted_trigers  returns(uint256,uint256){\r\n    require(identifier==0,\"identifier is not right, need be 0\");\r\n    identifier=1;\r\n\r\n    uint256 toxCFX = systemCFXInterestsTemp;\r\n    uint256 xCFXminted;\r\n    systemCFXInterestsTemp = 0;\r\n    if(toxCFX>0){\r\n      bytes memory rawxCFX = crossSpaceCall.callEVM{value: toxCFX}(bytes20(eSpaceExroomAddress), \r\n                                            abi.encodeWithSignature(\"handleCFXexchangeXCFX()\"));\r\n      xCFXminted =  abi.decode(rawxCFX, (uint256));\r\n    }\r\n    \r\n    bytes memory rawbalance = crossSpaceCall.callEVM(bytes20(eSpaceExroomAddress), abi.encodeWithSignature(\"espacebalanceof(address)\", bridgeeSpaceAddress));\r\n    uint256 balanceinpool =  abi.decode(rawbalance, (uint256));\r\n    crossSpaceCall.withdrawFromMapped(balanceinpool);\r\n    uint64 votePower = uint64(address(this).balance.div(CFX_VALUE_OF_ONE_VOTE));\r\n    if (votePower > 0){\r\n      IExchange(poolAddress[PosIDinuse]).increaseStake{value: votePower*CFX_VALUE_OF_ONE_VOTE}(votePower);\r\n    }\r\n    return (xCFXminted, votePower);\r\n  }\r\n\r\n  // function handleUnstakeSingle() public Only_trusted_trigers  returns(uint256,uint256,uint256){\r\n  //   require(queryUnstakeLen()>=40);\r\n  //   return handleUnstake();\r\n  // }\r\n\r\n  function handleUnstake() internal Only_trusted_trigers  returns(uint256,uint256){\r\n    require(identifier==1,\"identifier is not right, need be 1\");\r\n    identifier=2;\r\n    uint256 unstakeLen = queryUnstakeLen();\r\n    // if (unstakeLen == 0) return (0,Unstakebalanceinbridge,0);\r\n    // if (unstakeLen > 40) unstakeLen = 40; // max 40 unstakes per call\r\n    IExchange posPool = IExchange(poolAddress[PosIDinuse]);\r\n    IExchange.PoolSummary memory poolSummary = posPool.poolSummary();\r\n    uint256 available = poolSummary.totalvotes.mul(CFX_VALUE_OF_ONE_VOTE);\r\n    bytes memory rawFirstUnstakeVotes ;\r\n    uint256 firstUnstakeVotes;\r\n    if (available == 0) return (0,Unstakebalanceinbridge);\r\n    \r\n    rawFirstUnstakeVotes = crossSpaceCall.callEVM(bytes20(eSpaceExroomAddress), abi.encodeWithSignature(\"handleUnstake()\"));\r\n    firstUnstakeVotes = abi.decode(rawFirstUnstakeVotes, (uint256));\r\n    if (firstUnstakeVotes == 0) return (0,0);\r\n    if (firstUnstakeVotes > available) return (0,0);\r\n    Unstakebalanceinbridge += firstUnstakeVotes;\r\n    crossSpaceCall.callEVM(bytes20(eSpaceExroomAddress), abi.encodeWithSignature(\"handleAllUnstakeTask()\"));\r\n\r\n    if(Unstakebalanceinbridge > CFX_VALUE_OF_ONE_VOTE){\r\n      posPool.decreaseStake(uint64(Unstakebalanceinbridge.div(CFX_VALUE_OF_ONE_VOTE)));\r\n      available -= Unstakebalanceinbridge.div(CFX_VALUE_OF_ONE_VOTE);\r\n      Unstakebalanceinbridge -= Unstakebalanceinbridge.div(CFX_VALUE_OF_ONE_VOTE).mul(CFX_VALUE_OF_ONE_VOTE);\r\n    }\r\n    // uint256 pool_sum = poolAddress.length;\r\n    // uint256 poolLockedvotesSUM;\r\n    // for(uint256 i=0;i<pool_sum;i++)\r\n    // {\r\n    //     poolLockedvotesSUM += IExchange(poolAddress[i]).poolSummary().locked;\r\n    // }\r\n    // crossSpaceCall.callEVM(bytes20(eSpaceExroomAddress), abi.encodeWithSignature(\"setlockedvotes(uint256)\", poolLockedvotesSUM));\r\n    return (unstakeLen,Unstakebalanceinbridge);\r\n  }\r\n\r\n  function handleLockedvotesSUM() internal Only_trusted_trigers  returns(uint256){\r\n    uint256 pool_sum = poolAddress.length;\r\n    uint256 poolLockedvotesSUM;\r\n    for(uint256 i=0;i<pool_sum;i++)\r\n    {\r\n        poolLockedvotesSUM += IExchange(poolAddress[i]).poolSummary().locked;\r\n    }\r\n    crossSpaceCall.callEVM(bytes20(eSpaceExroomAddress), abi.encodeWithSignature(\"setlockedvotes(uint256)\", poolLockedvotesSUM));\r\n    return poolLockedvotesSUM;\r\n  }\r\n\r\n  function SyncValue() internal Only_trusted_trigers returns(uint256,uint256,uint256){\r\n    require(identifier==2,\"identifier is not right, need be 2\");\r\n    identifier=0;\r\n    bytes memory rawbalance = crossSpaceCall.callEVM(bytes20(eSpaceExroomAddress), abi.encodeWithSignature(\"espacebalanceof(address)\", bridgeeSpaceAddress));\r\n    uint256 balanceinpool =  abi.decode(rawbalance, (uint256));\r\n    bytes memory rawsum = crossSpaceCall.callEVM(bytes20(xCFXAddress), abi.encodeWithSignature(\"totalSupply()\"));\r\n    uint256 sum = abi.decode(rawsum, (uint256));\r\n    uint256 balanceinbridge = balanceinpool + address(this).balance; //crossSpaceCall.mappedBalance(bridgeeSpaceAddress)\r\n    uint256 pool_sum = poolAddress.length;\r\n    uint256 poolvotes_sum;\r\n    for(uint256 i=0;i<pool_sum;i++)\r\n    {\r\n        poolvotes_sum += IExchange(poolAddress[i]).poolSummary().totalvotes;\r\n    }\r\n    uint256 xCFXvalues =((balanceinbridge + poolvotes_sum.mul(CFX_VALUE_OF_ONE_VOTE) - Unstakebalanceinbridge) * 1 ether).div(sum);\r\n    crossSpaceCall.callEVM(bytes20(eSpaceExroomAddress), abi.encodeWithSignature(\"setxCFXValue(uint256)\", xCFXvalues));\r\n    crossSpaceCall.callEVM(bytes20(eSpaceExroomAddress), abi.encodeWithSignature(\"handlexCFXadd()\"));\r\n    return (balanceinbridge,poolvotes_sum,xCFXvalues);\r\n  }\r\n\r\n  function withdrawVotes() internal Only_trusted_trigers returns(uint256,uint256){\r\n    uint256 pool_sum = poolAddress.length;\r\n    IExchange posPool;\r\n    uint256 temp_unlocked;\r\n    uint256 transferValue;\r\n    for(uint256 i=0;i<pool_sum;i++)\r\n    {\r\n      posPool = IExchange(poolAddress[i]);\r\n      IExchange.PoolSummary memory poolSummary = posPool.poolSummary();\r\n      temp_unlocked = poolSummary.unlocked;\r\n      if (temp_unlocked > 0) \r\n      {\r\n        posPool.withdrawStake();\r\n        // transfer to eSpacePool and call method\r\n        transferValue = temp_unlocked * 1000 ether;\r\n        crossSpaceCall.transferEVM{value: transferValue}(bytes20(eSpaceExroomAddress));\r\n      }\r\n    }\r\n    return (temp_unlocked,transferValue);\r\n  }\r\n\r\n  fallback() external payable {}\r\n  receive() external payable {}\r\n  \r\n}",
  "sourcePath": "C:/Users/artii/Conflux Studio/minpos/contracts/eSpace/CoreBridge_multipool.sol",
  "compiler": {
    "name": "solc",
    "version": "0.8.2+commit.661d1103.Emscripten.clang"
  },
  "schemaVersion": "3.3.4",
  "updatedAt": "2022-10-12T01:45:49.594Z",
  "devdoc": {
    "details": "This contract set the user share ratio, system share ratio, compound the interests",
    "kind": "dev",
    "methods": {
      "_setCfxCountOfOneVote(uint256)": {
        "params": {
          "count": "Vote cfx count, unit is cfx"
        }
      },
      "owner()": {
        "details": "Returns the address of the current owner."
      },
      "renounceOwnership()": {
        "details": "Leaves the contract without owner. It will not be possible to call `onlyOwner` functions anymore. Can only be called by the current owner. NOTE: Renouncing ownership will leave the contract without an owner, thereby removing any functionality that is only available to the owner."
      },
      "transferOwnership(address)": {
        "details": "Transfers ownership of the contract to a new account (`newOwner`). Can only be called by the current owner."
      }
    },
    "title": "CoreBridge_multipool is a bridge to connect Conflux POS pools and Exchange rooms ,deployed in core;",
    "version": 1
  },
  "userdoc": {
    "kind": "user",
    "methods": {},
    "notice": "Users cann't direct use this contract to participate Conflux PoS stake.",
    "version": 1
  }
}