{
  "contractName": "CoreBridge_multipool",
  "abi": [
    {
      "inputs": [],
      "stateMutability": "nonpayable",
      "type": "constructor"
    },
    {
      "anonymous": false,
      "inputs": [
        {
          "indexed": true,
          "internalType": "address",
          "name": "previousOwner",
          "type": "address"
        },
        {
          "indexed": true,
          "internalType": "address",
          "name": "newOwner",
          "type": "address"
        }
      ],
      "name": "OwnershipTransferred",
      "type": "event"
    },
    {
      "stateMutability": "payable",
      "type": "fallback"
    },
    {
      "inputs": [],
      "name": "CoreExroomAddress",
      "outputs": [
        {
          "internalType": "address",
          "name": "",
          "type": "address"
        }
      ],
      "stateMutability": "view",
      "type": "function"
    },
    {
      "inputs": [],
      "name": "ServicetreasuryAddress",
      "outputs": [
        {
          "internalType": "address",
          "name": "",
          "type": "address"
        }
      ],
      "stateMutability": "view",
      "type": "function"
    },
    {
      "inputs": [],
      "name": "eSpaceExroomAddress",
      "outputs": [
        {
          "internalType": "bytes20",
          "name": "",
          "type": "bytes20"
        }
      ],
      "stateMutability": "view",
      "type": "function"
    },
    {
      "inputs": [],
      "name": "identifier",
      "outputs": [
        {
          "internalType": "uint256",
          "name": "",
          "type": "uint256"
        }
      ],
      "stateMutability": "view",
      "type": "function"
    },
    {
      "inputs": [],
      "name": "owner",
      "outputs": [
        {
          "internalType": "address",
          "name": "",
          "type": "address"
        }
      ],
      "stateMutability": "view",
      "type": "function"
    },
    {
      "inputs": [
        {
          "internalType": "uint256",
          "name": "",
          "type": "uint256"
        }
      ],
      "name": "poolAddress",
      "outputs": [
        {
          "internalType": "address",
          "name": "",
          "type": "address"
        }
      ],
      "stateMutability": "view",
      "type": "function"
    },
    {
      "inputs": [],
      "name": "poolUserShareRatio",
      "outputs": [
        {
          "internalType": "uint256",
          "name": "",
          "type": "uint256"
        }
      ],
      "stateMutability": "view",
      "type": "function"
    },
    {
      "inputs": [],
      "name": "pos_id_in_use",
      "outputs": [
        {
          "internalType": "uint256",
          "name": "",
          "type": "uint256"
        }
      ],
      "stateMutability": "view",
      "type": "function"
    },
    {
      "inputs": [],
      "name": "renounceOwnership",
      "outputs": [],
      "stateMutability": "nonpayable",
      "type": "function"
    },
    {
      "inputs": [],
      "name": "system_cfxinterests_temp",
      "outputs": [
        {
          "internalType": "uint256",
          "name": "",
          "type": "uint256"
        }
      ],
      "stateMutability": "view",
      "type": "function"
    },
    {
      "inputs": [
        {
          "internalType": "address",
          "name": "newOwner",
          "type": "address"
        }
      ],
      "name": "transferOwnership",
      "outputs": [],
      "stateMutability": "nonpayable",
      "type": "function"
    },
    {
      "inputs": [],
      "name": "xCFXAddress",
      "outputs": [
        {
          "internalType": "address",
          "name": "",
          "type": "address"
        }
      ],
      "stateMutability": "view",
      "type": "function"
    },
    {
      "stateMutability": "payable",
      "type": "receive"
    },
    {
      "inputs": [],
      "name": "initialize",
      "outputs": [],
      "stateMutability": "nonpayable",
      "type": "function"
    },
    {
      "inputs": [
        {
          "internalType": "address",
          "name": "_poolAddress",
          "type": "address"
        }
      ],
      "name": "addPoolAddress",
      "outputs": [],
      "stateMutability": "nonpayable",
      "type": "function"
    },
    {
      "inputs": [
        {
          "internalType": "address",
          "name": "_oldpoolAddress",
          "type": "address"
        },
        {
          "internalType": "address",
          "name": "_newpoolAddress",
          "type": "address"
        }
      ],
      "name": "changePoolAddress",
      "outputs": [],
      "stateMutability": "nonpayable",
      "type": "function"
    },
    {
      "inputs": [
        {
          "internalType": "address",
          "name": "_oldpoolAddress",
          "type": "address"
        }
      ],
      "name": "delePoolAddress",
      "outputs": [],
      "stateMutability": "nonpayable",
      "type": "function"
    },
    {
      "inputs": [
        {
          "internalType": "bytes20",
          "name": "_eSpaceExroomAddress",
          "type": "bytes20"
        }
      ],
      "name": "seteSpaceExroomAddress",
      "outputs": [],
      "stateMutability": "nonpayable",
      "type": "function"
    },
    {
      "inputs": [
        {
          "internalType": "address",
          "name": "_Address",
          "type": "address"
        },
        {
          "internalType": "bool",
          "name": "state",
          "type": "bool"
        }
      ],
      "name": "settrusted_trigers",
      "outputs": [],
      "stateMutability": "nonpayable",
      "type": "function"
    },
    {
      "inputs": [
        {
          "internalType": "address",
          "name": "_Address",
          "type": "address"
        }
      ],
      "name": "get_triger_state",
      "outputs": [
        {
          "internalType": "bool",
          "name": "",
          "type": "bool"
        }
      ],
      "stateMutability": "view",
      "type": "function"
    },
    {
      "inputs": [],
      "name": "getPoolAddress",
      "outputs": [
        {
          "internalType": "address[]",
          "name": "",
          "type": "address[]"
        }
      ],
      "stateMutability": "view",
      "type": "function"
    },
    {
      "inputs": [],
      "name": "ePoolAddrB20",
      "outputs": [
        {
          "internalType": "bytes20",
          "name": "",
          "type": "bytes20"
        }
      ],
      "stateMutability": "view",
      "type": "function"
    },
    {
      "inputs": [],
      "name": "queryespacexCFXincrease",
      "outputs": [
        {
          "internalType": "uint256",
          "name": "",
          "type": "uint256"
        }
      ],
      "stateMutability": "nonpayable",
      "type": "function"
    },
    {
      "inputs": [],
      "name": "queryUnstakeLen",
      "outputs": [
        {
          "internalType": "uint256",
          "name": "",
          "type": "uint256"
        }
      ],
      "stateMutability": "nonpayable",
      "type": "function"
    },
    {
      "inputs": [
        {
          "internalType": "uint256",
          "name": "_num",
          "type": "uint256"
        }
      ],
      "name": "queryInterest",
      "outputs": [
        {
          "internalType": "uint256",
          "name": "",
          "type": "uint256"
        }
      ],
      "stateMutability": "view",
      "type": "function"
    },
    {
      "inputs": [],
      "name": "syncALLwork",
      "outputs": [],
      "stateMutability": "nonpayable",
      "type": "function"
    },
    {
      "inputs": [],
      "name": "claimInterests",
      "outputs": [
        {
          "internalType": "uint256",
          "name": "",
          "type": "uint256"
        }
      ],
      "stateMutability": "nonpayable",
      "type": "function"
    },
    {
      "inputs": [],
      "name": "campounds",
      "outputs": [],
      "stateMutability": "nonpayable",
      "type": "function"
    },
    {
      "inputs": [],
      "name": "SyncValue",
      "outputs": [],
      "stateMutability": "nonpayable",
      "type": "function"
    },
    {
      "inputs": [],
      "name": "handleUnstake",
      "outputs": [],
      "stateMutability": "nonpayable",
      "type": "function"
    },
    {
      "inputs": [],
      "name": "withdrawVotes",
      "outputs": [],
      "stateMutability": "nonpayable",
      "type": "function"
    },
    {
      "inputs": [
        {
          "internalType": "address",
          "name": "addr",
          "type": "address"
        },
        {
          "internalType": "bytes",
          "name": "data",
          "type": "bytes"
        }
      ],
      "name": "callEVM",
      "outputs": [],
      "stateMutability": "nonpayable",
      "type": "function"
    },
    {
      "inputs": [
        {
          "internalType": "uint256",
          "name": "_identifier",
          "type": "uint256"
        }
      ],
      "name": "identifier_test",
      "outputs": [],
      "stateMutability": "nonpayable",
      "type": "function"
    }
  ],
  "bytecode": "0x60806040526123286002556103e8600355683635c9adc5dea000006004553480156200002a57600080fd5b506200004b6200003f6200006160201b60201c565b6200006960201b60201c565b6200005b6200012d60201b60201c565b62000184565b600033905090565b60008060009054906101000a900473ffffffffffffffffffffffffffffffffffffffff169050816000806101000a81548173ffffffffffffffffffffffffffffffffffffffff021916908373ffffffffffffffffffffffffffffffffffffffff1602179055508173ffffffffffffffffffffffffffffffffffffffff168173ffffffffffffffffffffffffffffffffffffffff167f8be0079c531659141344cd1fd0a4f28419497f9722a3daafe3b4186f6b6457e060405160405180910390a35050565b730888000000000000000000000000000000000006600160006101000a81548173ffffffffffffffffffffffffffffffffffffffff021916908373ffffffffffffffffffffffffffffffffffffffff160217905550565b613fcd80620001946000396000f3fe6080604052600436106101e75760003560e01c8063783b7c9711610102578063a0e86fd011610095578063da02d10011610064578063da02d10014610642578063da9da52614610659578063f2fde38b14610696578063f586c6d9146106bf576101ee565b8063a0e86fd01461059a578063b3569a18146105c3578063bb469110146105ec578063c2626b7d14610617576101ee565b806393e48e38116100d157806393e48e38146104f0578063983bf1bd1461051b578063986e08b6146105465780639fa28e481461055d576101ee565b8063783b7c97146104585780637998a1c4146104835780638129fc1c146104ae5780638da5cb5b146104c5576101ee565b8063505f53d41161017a57806367a1aa4f1161014957806367a1aa4f146103d65780636a5bd69d14610401578063715018a61461042a57806375eea4e214610441576101ee565b8063505f53d41461032e578063588beea51461035957806363c312e51461039657806365473c52146103bf576101ee565b80633e7321b5116101b65780633e7321b51461029857806340d5637f146102c357806343499844146102da5780634e141b4e14610303576101ee565b80632306092e146101f0578063231da72f146102195780632a547f36146102445780633b282f3a1461026d576101ee565b366101ee57005b005b3480156101fc57600080fd5b506102176004803603810190610212919061324d565b6106ea565b005b34801561022557600080fd5b5061022e61098c565b60405161023b91906136bf565b60405180910390f35b34801561025057600080fd5b5061026b60048036038101906102669190613346565b6109b2565b005b34801561027957600080fd5b50610282610a5f565b60405161028f9190613717565b60405180910390f35b3480156102a457600080fd5b506102ad610a6a565b6040516102ba9190613717565b60405180910390f35b3480156102cf57600080fd5b506102d8610a7d565b005b3480156102e657600080fd5b5061030160048036038101906102fc919061324d565b610d0f565b005b34801561030f57600080fd5b50610318610df1565b60405161032591906136bf565b60405180910390f35b34801561033a57600080fd5b50610343610e17565b60405161035091906138d4565b60405180910390f35b34801561036557600080fd5b50610380600480360381019061037b919061324d565b610f73565b60405161038d91906136fc565b60405180910390f35b3480156103a257600080fd5b506103bd60048036038101906103b891906133d9565b611045565b005b3480156103cb57600080fd5b506103d46110cb565b005b3480156103e257600080fd5b506103eb61168f565b6040516103f891906138d4565b60405180910390f35b34801561040d57600080fd5b50610428600480360381019061042391906132ee565b611695565b005b34801561043657600080fd5b5061043f6117e7565b005b34801561044d57600080fd5b5061045661186f565b005b34801561046457600080fd5b5061046d611d78565b60405161047a91906138d4565b60405180910390f35b34801561048f57600080fd5b50610498611d7e565b6040516104a591906138d4565b60405180910390f35b3480156104ba57600080fd5b506104c3611d84565b005b3480156104d157600080fd5b506104da611ddb565b6040516104e791906136bf565b60405180910390f35b3480156104fc57600080fd5b50610505611e04565b60405161051291906138d4565b60405180910390f35b34801561052757600080fd5b50610530611f60565b60405161053d91906138d4565b60405180910390f35b34801561055257600080fd5b5061055b61232b565b005b34801561056957600080fd5b50610584600480360381019061057f91906133d9565b612465565b60405161059191906138d4565b60405180910390f35b3480156105a657600080fd5b506105c160048036038101906105bc9190613276565b61255b565b005b3480156105cf57600080fd5b506105ea60048036038101906105e591906132b2565b612721565b005b3480156105f857600080fd5b506106016127f8565b60405161060e91906136bf565b60405180910390f35b34801561062357600080fd5b5061062c61281e565b60405161063991906138d4565b60405180910390f35b34801561064e57600080fd5b50610657612824565b005b34801561066557600080fd5b50610680600480360381019061067b91906133d9565b612daf565b60405161068d91906136bf565b60405180910390f35b3480156106a257600080fd5b506106bd60048036038101906106b8919061324d565b612dee565b005b3480156106cb57600080fd5b506106d4612ee6565b6040516106e191906136da565b60405180910390f35b6106f2612f74565b73ffffffffffffffffffffffffffffffffffffffff16610710611ddb565b73ffffffffffffffffffffffffffffffffffffffff1614610766576040517f08c379a000000000000000000000000000000000000000000000000000000000815260040161075d90613894565b60405180910390fd5b6000600580549050905060005b81811015610987578273ffffffffffffffffffffffffffffffffffffffff16600582815481106107cc577f4e487b7100000000000000000000000000000000000000000000000000000000600052603260045260246000fd5b9060005260206000200160009054906101000a900473ffffffffffffffffffffffffffffffffffffffff1673ffffffffffffffffffffffffffffffffffffffff1614156109745760056001836108229190613aa7565b81548110610859577f4e487b7100000000000000000000000000000000000000000000000000000000600052603260045260246000fd5b9060005260206000200160009054906101000a900473ffffffffffffffffffffffffffffffffffffffff16600582815481106108be577f4e487b7100000000000000000000000000000000000000000000000000000000600052603260045260246000fd5b9060005260206000200160006101000a81548173ffffffffffffffffffffffffffffffffffffffff021916908373ffffffffffffffffffffffffffffffffffffffff160217905550600580548061093e577f4e487b7100000000000000000000000000000000000000000000000000000000600052603160045260246000fd5b6001900381819060005260206000200160006101000a81549073ffffffffffffffffffffffffffffffffffffffff021916905590555b808061097f90613bd6565b915050610773565b505050565b600760009054906101000a900473ffffffffffffffffffffffffffffffffffffffff1681565b6109ba612f74565b73ffffffffffffffffffffffffffffffffffffffff166109d8611ddb565b73ffffffffffffffffffffffffffffffffffffffff1614610a2e576040517f08c379a0000000000000000000000000000000000000000000000000000000008152600401610a2590613894565b60405180910390fd5b80600860006101000a81548173ffffffffffffffffffffffffffffffffffffffff021916908360601c021790555050565b60003060601b905090565b600860009054906101000a900460601b81565b6001600c6000828254610a9091906139c6565b9250508190555060011515600d60003373ffffffffffffffffffffffffffffffffffffffff1673ffffffffffffffffffffffffffffffffffffffff16815260200190815260200160002060009054906101000a900460ff16151514610b2a576040517f08c379a0000000000000000000000000000000000000000000000000000000008152600401610b2190613854565b60405180910390fd5b6005600c5414610b6f576040517f08c379a0000000000000000000000000000000000000000000000000000000008152600401610b66906137d4565b60405180910390fd5b6000600580549050905060008060005b83811015610cf55760058181548110610bc1577f4e487b7100000000000000000000000000000000000000000000000000000000600052603260045260246000fd5b9060005260206000200160009054906101000a900473ffffffffffffffffffffffffffffffffffffffff16925060008373ffffffffffffffffffffffffffffffffffffffff16637571fcf66040518163ffffffff1660e01b815260040160e06040518083038186803b158015610c3657600080fd5b505afa158015610c4a573d6000803e3d6000fd5b505050506040513d601f19601f82011682018060405250810190610c6e91906133b0565b9050806080015192506000831115610ce1578373ffffffffffffffffffffffffffffffffffffffff1663bed9d8616040518163ffffffff1660e01b8152600401600060405180830381600087803b158015610cc857600080fd5b505af1158015610cdc573d6000803e3d6000fd5b505050505b508080610ced90613bd6565b915050610b7f565b505050506005600c541415610d0d576000600c819055505b565b610d17612f74565b73ffffffffffffffffffffffffffffffffffffffff16610d35611ddb565b73ffffffffffffffffffffffffffffffffffffffff1614610d8b576040517f08c379a0000000000000000000000000000000000000000000000000000000008152600401610d8290613894565b60405180910390fd5b6005819080600181540180825580915050600190039060005260206000200160009091909190916101000a81548173ffffffffffffffffffffffffffffffffffffffff021916908373ffffffffffffffffffffffffffffffffffffffff16021790555050565b600960009054906101000a900473ffffffffffffffffffffffffffffffffffffffff1681565b600080600160009054906101000a900473ffffffffffffffffffffffffffffffffffffffff1673ffffffffffffffffffffffffffffffffffffffff1663bea05ee3610e60610a5f565b6040516024016040516020818303038152906040527fc7ff5d6e000000000000000000000000000000000000000000000000000000007bffffffffffffffffffffffffffffffffffffffffffffffffffffffff19166020820180517bffffffffffffffffffffffffffffffffffffffffffffffffffffffff83818316178352505050506040518363ffffffff1660e01b8152600401610f00929190613764565b600060405180830381600087803b158015610f1a57600080fd5b505af1158015610f2e573d6000803e3d6000fd5b505050506040513d6000823e3d601f19601f82011682018060405250810190610f57919061336f565b905080806020019051810190610f6d9190613402565b91505090565b6000610f7d612f74565b73ffffffffffffffffffffffffffffffffffffffff16610f9b611ddb565b73ffffffffffffffffffffffffffffffffffffffff1614610ff1576040517f08c379a0000000000000000000000000000000000000000000000000000000008152600401610fe890613894565b60405180910390fd5b600d60008373ffffffffffffffffffffffffffffffffffffffff1673ffffffffffffffffffffffffffffffffffffffff16815260200190815260200160002060009054906101000a900460ff169050919050565b61104d612f74565b73ffffffffffffffffffffffffffffffffffffffff1661106b611ddb565b73ffffffffffffffffffffffffffffffffffffffff16146110c1576040517f08c379a00000000000000000000000000000000000000000000000000000000081526004016110b890613894565b60405180910390fd5b80600c8190555050565b6001600c60008282546110de91906139c6565b9250508190555060011515600d60003373ffffffffffffffffffffffffffffffffffffffff1673ffffffffffffffffffffffffffffffffffffffff16815260200190815260200160002060009054906101000a900460ff16151514611178576040517f08c379a000000000000000000000000000000000000000000000000000000000815260040161116f90613854565b60405180910390fd5b6003600c54146111bd576040517f08c379a00000000000000000000000000000000000000000000000000000000081526004016111b490613834565b60405180910390fd5b6000600760009054906101000a900473ffffffffffffffffffffffffffffffffffffffff1673ffffffffffffffffffffffffffffffffffffffff166318160ddd6040518163ffffffff1660e01b815260040160206040518083038186803b15801561122757600080fd5b505afa15801561123b573d6000803e3d6000fd5b505050506040513d601f19601f8201168201806040525081019061125f9190613402565b90506000600160009054906101000a900473ffffffffffffffffffffffffffffffffffffffff1673ffffffffffffffffffffffffffffffffffffffff1663bea05ee36112a9610a5f565b6112b1610a5f565b6040516024016112c19190613717565b6040516020818303038152906040527f6871410a000000000000000000000000000000000000000000000000000000007bffffffffffffffffffffffffffffffffffffffffffffffffffffffff19166020820180517bffffffffffffffffffffffffffffffffffffffffffffffffffffffff83818316178352505050506040518363ffffffff1660e01b815260040161135b929190613764565b600060405180830381600087803b15801561137557600080fd5b505af1158015611389573d6000803e3d6000fd5b505050506040513d6000823e3d601f19601f820116820180604052508101906113b2919061336f565b90506000818060200190518101906113ca9190613402565b905060006005805490509050600080600090505b828110156114ec5760058181548110611420577f4e487b7100000000000000000000000000000000000000000000000000000000600052603260045260246000fd5b9060005260206000200160009054906101000a900473ffffffffffffffffffffffffffffffffffffffff1673ffffffffffffffffffffffffffffffffffffffff16637571fcf66040518163ffffffff1660e01b815260040160e06040518083038186803b15801561149057600080fd5b505afa1580156114a4573d6000803e3d6000fd5b505050506040513d601f19601f820116820180604052508101906114c891906133b0565b60000151826114d791906139c6565b915080806114e490613bd6565b9150506113de565b5060006115288661151a61150b60045486612f7c90919063ffffffff16565b87612f9290919063ffffffff16565b612fa890919063ffffffff16565b9050600160009054906101000a900473ffffffffffffffffffffffffffffffffffffffff1673ffffffffffffffffffffffffffffffffffffffff1663bea05ee3611570610a5f565b8360405160240161158191906138d4565b6040516020818303038152906040527f21e2f533000000000000000000000000000000000000000000000000000000007bffffffffffffffffffffffffffffffffffffffffffffffffffffffff19166020820180517bffffffffffffffffffffffffffffffffffffffffffffffffffffffff83818316178352505050506040518363ffffffff1660e01b815260040161161b929190613764565b600060405180830381600087803b15801561163557600080fd5b505af1158015611649573d6000803e3d6000fd5b505050506040513d6000823e3d601f19601f82011682018060405250810190611672919061336f565b505050505050506005600c54141561168d576000600c819055505b565b60025481565b60011515600d60003373ffffffffffffffffffffffffffffffffffffffff1673ffffffffffffffffffffffffffffffffffffffff16815260200190815260200160002060009054906101000a900460ff16151514611728576040517f08c379a000000000000000000000000000000000000000000000000000000000815260040161171f90613854565b60405180910390fd5b600160009054906101000a900473ffffffffffffffffffffffffffffffffffffffff1673ffffffffffffffffffffffffffffffffffffffff1663bea05ee38460601b84846040518463ffffffff1660e01b815260040161178a93929190613732565b600060405180830381600087803b1580156117a457600080fd5b505af11580156117b8573d6000803e3d6000fd5b505050506040513d6000823e3d601f19601f820116820180604052508101906117e1919061336f565b50505050565b6117ef612f74565b73ffffffffffffffffffffffffffffffffffffffff1661180d611ddb565b73ffffffffffffffffffffffffffffffffffffffff1614611863576040517f08c379a000000000000000000000000000000000000000000000000000000000815260040161185a90613894565b60405180910390fd5b61186d6000612fbe565b565b6001600c600082825461188291906139c6565b9250508190555060011515600d60003373ffffffffffffffffffffffffffffffffffffffff1673ffffffffffffffffffffffffffffffffffffffff16815260200190815260200160002060009054906101000a900460ff1615151461191c576040517f08c379a000000000000000000000000000000000000000000000000000000000815260040161191390613854565b60405180910390fd5b6002600c5414611961576040517f08c379a000000000000000000000000000000000000000000000000000000000815260040161195890613874565b60405180910390fd5b6000600b5414156119a7576040517f08c379a000000000000000000000000000000000000000000000000000000000815260040161199e906138b4565b60405180910390fd5b6000600b549050600160009054906101000a900473ffffffffffffffffffffffffffffffffffffffff1673ffffffffffffffffffffffffffffffffffffffff1663bea05ee382600860009054906101000a900460601b6040516024016040516020818303038152906040527f68eca7f9000000000000000000000000000000000000000000000000000000007bffffffffffffffffffffffffffffffffffffffffffffffffffffffff19166020820180517bffffffffffffffffffffffffffffffffffffffffffffffffffffffff83818316178352505050506040518463ffffffff1660e01b8152600401611a9d929190613764565b6000604051808303818588803b158015611ab657600080fd5b505af1158015611aca573d6000803e3d6000fd5b50505050506040513d6000823e3d601f19601f82011682018060405250810190611af4919061336f565b506000600160009054906101000a900473ffffffffffffffffffffffffffffffffffffffff1673ffffffffffffffffffffffffffffffffffffffff1663bea05ee3611b3d610a5f565b611b45610a5f565b604051602401611b559190613717565b6040516020818303038152906040527f6871410a000000000000000000000000000000000000000000000000000000007bffffffffffffffffffffffffffffffffffffffffffffffffffffffff19166020820180517bffffffffffffffffffffffffffffffffffffffffffffffffffffffff83818316178352505050506040518363ffffffff1660e01b8152600401611bef929190613764565b600060405180830381600087803b158015611c0957600080fd5b505af1158015611c1d573d6000803e3d6000fd5b505050506040513d6000823e3d601f19601f82011682018060405250810190611c46919061336f565b9050600081806020019051810190611c5e9190613402565b90506000611c7760045483612fa890919063ffffffff16565b905060008167ffffffffffffffff161115611d5e57600560065481548110611cc8577f4e487b7100000000000000000000000000000000000000000000000000000000600052603260045260246000fd5b9060005260206000200160009054906101000a900473ffffffffffffffffffffffffffffffffffffffff1673ffffffffffffffffffffffffffffffffffffffff166309fecf7f826040518263ffffffff1660e01b8152600401611d2b91906138ef565b600060405180830381600087803b158015611d4557600080fd5b505af1158015611d59573d6000803e3d6000fd5b505050505b505050506005600c541415611d76576000600c819055505b565b60065481565b600c5481565b730888000000000000000000000000000000000006600160006101000a81548173ffffffffffffffffffffffffffffffffffffffff021916908373ffffffffffffffffffffffffffffffffffffffff160217905550565b60008060009054906101000a900473ffffffffffffffffffffffffffffffffffffffff16905090565b600080600160009054906101000a900473ffffffffffffffffffffffffffffffffffffffff1673ffffffffffffffffffffffffffffffffffffffff1663bea05ee3611e4d610a5f565b6040516024016040516020818303038152906040527f15cc421d000000000000000000000000000000000000000000000000000000007bffffffffffffffffffffffffffffffffffffffffffffffffffffffff19166020820180517bffffffffffffffffffffffffffffffffffffffffffffffffffffffff83818316178352505050506040518363ffffffff1660e01b8152600401611eed929190613764565b600060405180830381600087803b158015611f0757600080fd5b505af1158015611f1b573d6000803e3d6000fd5b505050506040513d6000823e3d601f19601f82011682018060405250810190611f44919061336f565b905080806020019051810190611f5a9190613402565b91505090565b60006001600c6000828254611f7591906139c6565b9250508190555060011515600d60003373ffffffffffffffffffffffffffffffffffffffff1673ffffffffffffffffffffffffffffffffffffffff16815260200190815260200160002060009054906101000a900460ff1615151461200f576040517f08c379a000000000000000000000000000000000000000000000000000000000815260040161200690613854565b60405180910390fd5b6001600c5414612054576040517f08c379a000000000000000000000000000000000000000000000000000000000815260040161204b90613814565b60405180910390fd5b6000600b5414612099576040517f08c379a0000000000000000000000000000000000000000000000000000000008152600401612090906137f4565b60405180910390fd5b6000600580549050905060008060005b8381101561230b57600581815481106120eb577f4e487b7100000000000000000000000000000000000000000000000000000000600052603260045260246000fd5b9060005260206000200160009054906101000a900473ffffffffffffffffffffffffffffffffffffffff1692508273ffffffffffffffffffffffffffffffffffffffff1663e73e183b6040518163ffffffff1660e01b815260040160206040518083038186803b15801561215e57600080fd5b505afa158015612172573d6000803e3d6000fd5b505050506040513d601f19601f820116820180604052508101906121969190613402565b915060008211156122f8578273ffffffffffffffffffffffffffffffffffffffff16638270512f6040518163ffffffff1660e01b8152600401602060405180830381600087803b1580156121e957600080fd5b505af11580156121fd573d6000803e3d6000fd5b505050506040513d601f19601f820116820180604052508101906122219190613402565b915081600b600082825461223591906139c6565b92505081905550600160009054906101000a900473ffffffffffffffffffffffffffffffffffffffff1673ffffffffffffffffffffffffffffffffffffffff1663da8d5daf83612283610a5f565b6040518363ffffffff1660e01b815260040161229f9190613717565b6000604051808303818588803b1580156122b857600080fd5b505af11580156122cc573d6000803e3d6000fd5b50505050506040513d6000823e3d601f19601f820116820180604052508101906122f6919061336f565b505b808061230390613bd6565b9150506120a9565b50600b5493505050506005600c541415612328576000600c819055505b90565b612333612f74565b73ffffffffffffffffffffffffffffffffffffffff16612351611ddb565b73ffffffffffffffffffffffffffffffffffffffff16146123a7576040517f08c379a000000000000000000000000000000000000000000000000000000000815260040161239e90613894565b60405180910390fd5b60011515600d60003373ffffffffffffffffffffffffffffffffffffffff1673ffffffffffffffffffffffffffffffffffffffff16815260200190815260200160002060009054906101000a900460ff1615151461243a576040517f08c379a000000000000000000000000000000000000000000000000000000000815260040161243190613854565b60405180910390fd5b612442611f60565b5061244b61186f565b6124536110cb565b61245b612824565b612463610a7d565b565b600080600583815481106124a2577f4e487b7100000000000000000000000000000000000000000000000000000000600052603260045260246000fd5b9060005260206000200160009054906101000a900473ffffffffffffffffffffffffffffffffffffffff16905060008173ffffffffffffffffffffffffffffffffffffffff1663e73e183b6040518163ffffffff1660e01b815260040160206040518083038186803b15801561251757600080fd5b505afa15801561252b573d6000803e3d6000fd5b505050506040513d601f19601f8201168201806040525081019061254f9190613402565b90508092505050919050565b612563612f74565b73ffffffffffffffffffffffffffffffffffffffff16612581611ddb565b73ffffffffffffffffffffffffffffffffffffffff16146125d7576040517f08c379a00000000000000000000000000000000000000000000000000000000081526004016125ce90613894565b60405180910390fd5b6000600580549050905060005b8181101561271b578373ffffffffffffffffffffffffffffffffffffffff166005828154811061263d577f4e487b7100000000000000000000000000000000000000000000000000000000600052603260045260246000fd5b9060005260206000200160009054906101000a900473ffffffffffffffffffffffffffffffffffffffff1673ffffffffffffffffffffffffffffffffffffffff1614156127085782600582815481106126bf577f4e487b7100000000000000000000000000000000000000000000000000000000600052603260045260246000fd5b9060005260206000200160006101000a81548173ffffffffffffffffffffffffffffffffffffffff021916908373ffffffffffffffffffffffffffffffffffffffff1602179055505b808061271390613bd6565b9150506125e4565b50505050565b612729612f74565b73ffffffffffffffffffffffffffffffffffffffff16612747611ddb565b73ffffffffffffffffffffffffffffffffffffffff161461279d576040517f08c379a000000000000000000000000000000000000000000000000000000000815260040161279490613894565b60405180910390fd5b80600d60008473ffffffffffffffffffffffffffffffffffffffff1673ffffffffffffffffffffffffffffffffffffffff16815260200190815260200160002060006101000a81548160ff0219169083151502179055505050565b600a60009054906101000a900473ffffffffffffffffffffffffffffffffffffffff1681565b600b5481565b6001600c600082825461283791906139c6565b9250508190555060011515600d60003373ffffffffffffffffffffffffffffffffffffffff1673ffffffffffffffffffffffffffffffffffffffff16815260200190815260200160002060009054906101000a900460ff161515146128d1576040517f08c379a00000000000000000000000000000000000000000000000000000000081526004016128c890613854565b60405180910390fd5b6004600c5414612916576040517f08c379a000000000000000000000000000000000000000000000000000000000815260040161290d906137b4565b60405180910390fd5b6000612920610e17565b905060008114156129315750612d99565b603281111561293f57603290505b600060056006548154811061297d577f4e487b7100000000000000000000000000000000000000000000000000000000600052603260045260246000fd5b9060005260206000200160009054906101000a900473ffffffffffffffffffffffffffffffffffffffff16905060008173ffffffffffffffffffffffffffffffffffffffff16637571fcf66040518163ffffffff1660e01b815260040160e06040518083038186803b1580156129f257600080fd5b505afa158015612a06573d6000803e3d6000fd5b505050506040513d601f19601f82011682018060405250810190612a2a91906133b0565b90506000816000015190506060600080831415612a4c57505050505050612d99565b60005b86811015612d9157600160009054906101000a900473ffffffffffffffffffffffffffffffffffffffff1673ffffffffffffffffffffffffffffffffffffffff1663bea05ee3612a9d610a5f565b6040516024016040516020818303038152906040527f09fcd230000000000000000000000000000000000000000000000000000000007bffffffffffffffffffffffffffffffffffffffffffffffffffffffff19166020820180517bffffffffffffffffffffffffffffffffffffffffffffffffffffffff83818316178352505050506040518363ffffffff1660e01b8152600401612b3d929190613764565b600060405180830381600087803b158015612b5757600080fd5b505af1158015612b6b573d6000803e3d6000fd5b505050506040513d6000823e3d601f19601f82011682018060405250810190612b94919061336f565b925082806020019051810190612baa9190613402565b91506000821415612bba57612d91565b83821115612bc757612d91565b8573ffffffffffffffffffffffffffffffffffffffff1663beb99c1e836040518263ffffffff1660e01b8152600401612c0091906138ef565b600060405180830381600087803b158015612c1a57600080fd5b505af1158015612c2e573d6000803e3d6000fd5b50505050600160009054906101000a900473ffffffffffffffffffffffffffffffffffffffff1673ffffffffffffffffffffffffffffffffffffffff1663bea05ee3612c78610a5f565b6040516024016040516020818303038152906040527f84981986000000000000000000000000000000000000000000000000000000007bffffffffffffffffffffffffffffffffffffffffffffffffffffffff19166020820180517bffffffffffffffffffffffffffffffffffffffffffffffffffffffff83818316178352505050506040518363ffffffff1660e01b8152600401612d18929190613764565b600060405180830381600087803b158015612d3257600080fd5b505af1158015612d46573d6000803e3d6000fd5b505050506040513d6000823e3d601f19601f82011682018060405250810190612d6f919061336f565b508184612d7c9190613aa7565b93508080612d8990613bd6565b915050612a4f565b505050505050505b6005600c541415612dad576000600c819055505b565b60058181548110612dbf57600080fd5b906000526020600020016000915054906101000a900473ffffffffffffffffffffffffffffffffffffffff1681565b612df6612f74565b73ffffffffffffffffffffffffffffffffffffffff16612e14611ddb565b73ffffffffffffffffffffffffffffffffffffffff1614612e6a576040517f08c379a0000000000000000000000000000000000000000000000000000000008152600401612e6190613894565b60405180910390fd5b600073ffffffffffffffffffffffffffffffffffffffff168173ffffffffffffffffffffffffffffffffffffffff161415612eda576040517f08c379a0000000000000000000000000000000000000000000000000000000008152600401612ed190613794565b60405180910390fd5b612ee381612fbe565b50565b60606005805480602002602001604051908101604052809291908181526020018280548015612f6a57602002820191906000526020600020905b8160009054906101000a900473ffffffffffffffffffffffffffffffffffffffff1673ffffffffffffffffffffffffffffffffffffffff1681526020019060010190808311612f20575b5050505050905090565b600033905090565b60008183612f8a9190613a4d565b905092915050565b60008183612fa091906139c6565b905092915050565b60008183612fb69190613a1c565b905092915050565b60008060009054906101000a900473ffffffffffffffffffffffffffffffffffffffff169050816000806101000a81548173ffffffffffffffffffffffffffffffffffffffff021916908373ffffffffffffffffffffffffffffffffffffffff1602179055508173ffffffffffffffffffffffffffffffffffffffff168173ffffffffffffffffffffffffffffffffffffffff167f8be0079c531659141344cd1fd0a4f28419497f9722a3daafe3b4186f6b6457e060405160405180910390a35050565b60006130956130908461392f565b61390a565b9050828152602081018484840111156130ad57600080fd5b6130b8848285613b72565b509392505050565b6000813590506130cf81613f3b565b92915050565b6000813590506130e481613f52565b92915050565b6000813590506130f981613f69565b92915050565b60008083601f84011261311157600080fd5b8235905067ffffffffffffffff81111561312a57600080fd5b60208301915083600182028301111561314257600080fd5b9250929050565b600082601f83011261315a57600080fd5b815161316a848260208601613082565b91505092915050565b600060e0828403121561318557600080fd5b61318f60e061390a565b9050600061319f84828501613238565b60008301525060206131b384828501613238565b60208301525060406131c784828501613238565b60408301525060606131db84828501613238565b60608301525060806131ef84828501613238565b60808301525060a061320384828501613238565b60a08301525060c061321784828501613238565b60c08301525092915050565b60008135905061323281613f80565b92915050565b60008151905061324781613f80565b92915050565b60006020828403121561325f57600080fd5b600061326d848285016130c0565b91505092915050565b6000806040838503121561328957600080fd5b6000613297858286016130c0565b92505060206132a8858286016130c0565b9150509250929050565b600080604083850312156132c557600080fd5b60006132d3858286016130c0565b92505060206132e4858286016130d5565b9150509250929050565b60008060006040848603121561330357600080fd5b6000613311868287016130c0565b935050602084013567ffffffffffffffff81111561332e57600080fd5b61333a868287016130ff565b92509250509250925092565b60006020828403121561335857600080fd5b6000613366848285016130ea565b91505092915050565b60006020828403121561338157600080fd5b600082015167ffffffffffffffff81111561339b57600080fd5b6133a784828501613149565b91505092915050565b600060e082840312156133c257600080fd5b60006133d084828501613173565b91505092915050565b6000602082840312156133eb57600080fd5b60006133f984828501613223565b91505092915050565b60006020828403121561341457600080fd5b600061342284828501613238565b91505092915050565b60006134378383613443565b60208301905092915050565b61344c81613adb565b82525050565b61345b81613adb565b82525050565b600061346c82613970565b6134768185613993565b935061348183613960565b8060005b838110156134b2578151613499888261342b565b97506134a483613986565b925050600181019050613485565b5085935050505092915050565b6134c881613aed565b82525050565b6134d781613af9565b82525050565b60006134e983856139a4565b93506134f6838584613b63565b6134ff83613cac565b840190509392505050565b60006135158261397b565b61351f81856139a4565b935061352f818560208601613b72565b61353881613cac565b840191505092915050565b60006135506026836139b5565b915061355b82613cbd565b604082019050919050565b60006135736022836139b5565b915061357e82613d0c565b604082019050919050565b60006135966022836139b5565b91506135a182613d5b565b604082019050919050565b60006135b9601f836139b5565b91506135c482613daa565b602082019050919050565b60006135dc6022836139b5565b91506135e782613dd3565b604082019050919050565b60006135ff6022836139b5565b915061360a82613e22565b604082019050919050565b60006136226017836139b5565b915061362d82613e71565b602082019050919050565b60006136456022836139b5565b915061365082613e9a565b604082019050919050565b60006136686020836139b5565b915061367382613ee9565b602082019050919050565b600061368b601e836139b5565b915061369682613f12565b602082019050919050565b6136aa81613b45565b82525050565b6136b981613b4f565b82525050565b60006020820190506136d46000830184613452565b92915050565b600060208201905081810360008301526136f48184613461565b905092915050565b600060208201905061371160008301846134bf565b92915050565b600060208201905061372c60008301846134ce565b92915050565b600060408201905061374760008301866134ce565b818103602083015261375a8184866134dd565b9050949350505050565b600060408201905061377960008301856134ce565b818103602083015261378b818461350a565b90509392505050565b600060208201905081810360008301526137ad81613543565b9050919050565b600060208201905081810360008301526137cd81613566565b9050919050565b600060208201905081810360008301526137ed81613589565b9050919050565b6000602082019050818103600083015261380d816135ac565b9050919050565b6000602082019050818103600083015261382d816135cf565b9050919050565b6000602082019050818103600083015261384d816135f2565b9050919050565b6000602082019050818103600083015261386d81613615565b9050919050565b6000602082019050818103600083015261388d81613638565b9050919050565b600060208201905081810360008301526138ad8161365b565b9050919050565b600060208201905081810360008301526138cd8161367e565b9050919050565b60006020820190506138e960008301846136a1565b92915050565b600060208201905061390460008301846136b0565b92915050565b6000613914613925565b90506139208282613ba5565b919050565b6000604051905090565b600067ffffffffffffffff82111561394a57613949613c7d565b5b61395382613cac565b9050602081019050919050565b6000819050602082019050919050565b600081519050919050565b600081519050919050565b6000602082019050919050565b600082825260208201905092915050565b600082825260208201905092915050565b600082825260208201905092915050565b60006139d182613b45565b91506139dc83613b45565b9250827fffffffffffffffffffffffffffffffffffffffffffffffffffffffffffffffff03821115613a1157613a10613c1f565b5b828201905092915050565b6000613a2782613b45565b9150613a3283613b45565b925082613a4257613a41613c4e565b5b828204905092915050565b6000613a5882613b45565b9150613a6383613b45565b9250817fffffffffffffffffffffffffffffffffffffffffffffffffffffffffffffffff0483118215151615613a9c57613a9b613c1f565b5b828202905092915050565b6000613ab282613b45565b9150613abd83613b45565b925082821015613ad057613acf613c1f565b5b828203905092915050565b6000613ae682613b25565b9050919050565b60008115159050919050565b60007fffffffffffffffffffffffffffffffffffffffff00000000000000000000000082169050919050565b600073ffffffffffffffffffffffffffffffffffffffff82169050919050565b6000819050919050565b600067ffffffffffffffff82169050919050565b82818337600083830152505050565b60005b83811015613b90578082015181840152602081019050613b75565b83811115613b9f576000848401525b50505050565b613bae82613cac565b810181811067ffffffffffffffff82111715613bcd57613bcc613c7d565b5b80604052505050565b6000613be182613b45565b91507fffffffffffffffffffffffffffffffffffffffffffffffffffffffffffffffff821415613c1457613c13613c1f565b5b600182019050919050565b7f4e487b7100000000000000000000000000000000000000000000000000000000600052601160045260246000fd5b7f4e487b7100000000000000000000000000000000000000000000000000000000600052601260045260246000fd5b7f4e487b7100000000000000000000000000000000000000000000000000000000600052604160045260246000fd5b6000601f19601f8301169050919050565b7f4f776e61626c653a206e6577206f776e657220697320746865207a65726f206160008201527f6464726573730000000000000000000000000000000000000000000000000000602082015250565b7f6964656e746966696572206973206e6f742072696768742c206e65656420626560008201527f2034000000000000000000000000000000000000000000000000000000000000602082015250565b7f6964656e746966696572206973206e6f742072696768742c206e65656420626560008201527f2035000000000000000000000000000000000000000000000000000000000000602082015250565b7f73797374656d5f636678696e74657265737473206e6f7420636c65616e656400600082015250565b7f6964656e746966696572206973206e6f742072696768742c206e65656420626560008201527f2031000000000000000000000000000000000000000000000000000000000000602082015250565b7f6964656e746966696572206973206e6f742072696768742c206e65656420626560008201527f2033000000000000000000000000000000000000000000000000000000000000602082015250565b7f74726967657273206d7573742062652074727573746564000000000000000000600082015250565b7f6964656e746966696572206973206e6f742072696768742c206e65656420626560008201527f2032000000000000000000000000000000000000000000000000000000000000602082015250565b7f4f776e61626c653a2063616c6c6572206973206e6f7420746865206f776e6572600082015250565b7f73797374656d5f636678696e7465726573747320697320636c65616e65640000600082015250565b613f4481613adb565b8114613f4f57600080fd5b50565b613f5b81613aed565b8114613f6657600080fd5b50565b613f7281613af9565b8114613f7d57600080fd5b50565b613f8981613b45565b8114613f9457600080fd5b5056fea26469706673582212206e472b6350e72dac3fc2b6f0a0f5559aad74deb5ef797dc8133f59506fcb947264736f6c63430008020033",
  "immutableReferences": {},
  "source": "//SPDX-License-Identifier: BUSL-1.1\r\npragma solidity ^0.8.0;\r\nimport \"@openzeppelin/contracts/utils/math/SafeMath.sol\";\r\nimport \"@openzeppelin/contracts/access/Ownable.sol\";\r\nimport \"@openzeppelin/contracts/token/ERC20/IERC20.sol\";\r\nimport \"../ICrossSpaceCall.sol\";\r\nimport \"../IExchange.sol\";\r\n///\r\n///  @title CoreBridge_multipool is a bridge to connect Conflux POS pools and Exchange rooms ,deployed in core;\r\n///  @dev This contract set the user share ratio, system share ratio, \r\n///  @dev compound the interests\r\n///  @notice Users cann't direct use this contract to participate Conflux PoS stake.\r\n///\r\ncontract CoreBridge_multipool is Ownable {\r\n  using SafeMath for uint256;\r\n  CrossSpaceCall internal crossSpaceCall;\r\n\r\n  uint256 private constant RATIO_BASE = 10000;\r\n  // ratio shared by user: 1-10000\r\n  uint256 public poolUserShareRatio = 9000;\r\n  uint256 CFX_COUNT_OF_ONE_VOTE = 1000;\r\n  uint256 CFX_VALUE_OF_ONE_VOTE = 1000 ether;\r\n\r\n  address[] public poolAddress;               // can use many pools, so here is an array\r\n  uint256   public pos_id_in_use;             // pos pool in use\r\n  address   public xCFXAddress;               // xCFX addr in espace \r\n  bytes20   public eSpaceExroomAddress;       //Exchange room Address in espace\r\n  address   public CoreExroomAddress;         //Exchange room Address in core\r\n  address   public ServicetreasuryAddress;    //Service treasury Address in core\r\n  uint256   public system_cfxinterests_temp; //pools cfx interests in temporary\r\n  uint256   public identifier;                //Execution number , should be private when use in main net\r\n  mapping(address=>bool) trusted_node_trigers;//     \r\n  // ======================== Struct definitions =========================\r\n  struct PoolSummary {\r\n    uint256 xCFXSUM;             // xCFX SUM (1 ether xCFX === 1 e18)\r\n    uint256 totalInterest;       // PoS pool interests for all xCFX\r\n    uint256 CFXbalances;         // CFX balances in bridge\r\n    uint256 historical_Interest ;// total historical interest of whole pools\r\n  }\r\n\r\n  constructor () {\r\n    initialize();\r\n  }\r\n  // ======================== Modifiers =========================\r\n\r\n  modifier Only_in_order() {\r\n    identifier += 1;\r\n    _;\r\n    if(identifier==5) identifier = 0;\r\n  }\r\n  modifier Only_trusted_trigers() {\r\n    require(trusted_node_trigers[msg.sender]==true,'trigers must be trusted');\r\n    _;\r\n  }\r\n  // ======================== Methods for core pos pools settings =========================\r\n\r\n  function initialize() public {\r\n    crossSpaceCall = CrossSpaceCall(0x0888000000000000000000000000000000000006);\r\n  }\r\n\r\n  function addPoolAddress(address _poolAddress) public onlyOwner {\r\n    poolAddress.push(_poolAddress);\r\n  }\r\n\r\n  function changePoolAddress(address _oldpoolAddress,address _newpoolAddress) public onlyOwner {\r\n    uint256 pool_sum = poolAddress.length;\r\n    for(uint256 i=0;i<pool_sum;i++)\r\n    {\r\n        if(poolAddress[i]==_oldpoolAddress)\r\n        {\r\n            poolAddress[i]=_newpoolAddress;\r\n        }\r\n    }\r\n  }\r\n  function delePoolAddress(address _oldpoolAddress) public onlyOwner {\r\n    uint256 pool_sum = poolAddress.length;\r\n    for(uint256 i=0;i<pool_sum;i++)\r\n    {\r\n        if(poolAddress[i]==_oldpoolAddress)\r\n        {\r\n            poolAddress[i]= poolAddress[pool_sum-1];\r\n            poolAddress.pop();\r\n        }\r\n    }\r\n  }\r\n\r\n  function seteSpaceExroomAddress(bytes20 _eSpaceExroomAddress) public onlyOwner {\r\n    eSpaceExroomAddress = _eSpaceExroomAddress;\r\n  }\r\n  function settrusted_trigers(address _Address,bool state) public onlyOwner {\r\n    trusted_node_trigers[_Address] = state;\r\n  }\r\n\r\n  function get_triger_state(address _Address) public view onlyOwner returns(bool){\r\n    return trusted_node_trigers[_Address];\r\n  }\r\n  function getPoolAddress() public view returns (address[] memory ) {\r\n    return poolAddress;\r\n  }\r\n  \r\n  function ePoolAddrB20() public view returns (bytes20) {\r\n    return bytes20(address(this));\r\n  }\r\n  //-----------------espace method-------------------------------------------------------------------------------------\r\n\r\n  function queryespacexCFXincrease() public returns (uint256) {\r\n    bytes memory rawCrossingVotes = crossSpaceCall.callEVM(ePoolAddrB20(), abi.encodeWithSignature(\"crossingVotes()\"));\r\n    return abi.decode(rawCrossingVotes, (uint256));\r\n  }\r\n\r\n  function queryUnstakeLen() public returns (uint256) {\r\n    bytes memory rawUnstakeLen = crossSpaceCall.callEVM(ePoolAddrB20(), abi.encodeWithSignature(\"unstakeLen()\"));\r\n    return abi.decode(rawUnstakeLen, (uint256));\r\n  }\r\n\r\n  //-----------------core pool method-------------------------------------------------------------------------------------\r\n  function queryInterest(uint256 _num) public view returns (uint256) {\r\n    IExchange posPool = IExchange(poolAddress[_num]);\r\n    uint256 interest = posPool.temp_Interest();\r\n    return interest;\r\n  }\r\n\r\n  //-----------------bridge method-------------------------------------------------------------------------------------\r\n  function syncALLwork() public onlyOwner Only_trusted_trigers {\r\n    claimInterests();\r\n\r\n    campounds();\r\n    SyncValue();\r\n\r\n    handleUnstake();\r\n    withdrawVotes();\r\n  }\r\n\r\n  function claimInterests() public Only_in_order Only_trusted_trigers returns(uint256){\r\n    require(identifier==1,\"identifier is not right, need be 1\");\r\n    require(system_cfxinterests_temp==0,'system_cfxinterests not cleaned');\r\n    uint256 pool_sum = poolAddress.length;\r\n    IExchange posPool;\r\n    uint256 interest;\r\n    for(uint256 i=0;i<pool_sum;i++)\r\n    {\r\n      posPool = IExchange(poolAddress[i]);\r\n      interest = posPool.temp_Interest();\r\n      if (interest > 0) {\r\n        interest = posPool.claimAllInterest();\r\n        system_cfxinterests_temp += interest;\r\n        crossSpaceCall.transferEVM{value: interest}(ePoolAddrB20());\r\n      }\r\n    }\r\n    return system_cfxinterests_temp;\r\n  }\r\n  function campounds() public Only_in_order Only_trusted_trigers {\r\n    require(identifier==2,\"identifier is not right, need be 2\");\r\n    require(system_cfxinterests_temp!=0,'system_cfxinterests is cleaned');\r\n    uint256 toxCFX = system_cfxinterests_temp;\r\n    system_cfxinterests_temp == 0;\r\n    crossSpaceCall.callEVM{value: toxCFX}(eSpaceExroomAddress, abi.encodeWithSignature(\"CFX_exchange_XCFX()\"));\r\n    bytes memory rawbalance = crossSpaceCall.callEVM(ePoolAddrB20(), abi.encodeWithSignature(\"espacebalanceof(bytes20)\", ePoolAddrB20()));\r\n    uint256 balanceinpool =  abi.decode(rawbalance, (uint256));\r\n    uint64 votePower = uint64(balanceinpool.div(CFX_VALUE_OF_ONE_VOTE));\r\n    if (votePower > 0){\r\n      IExchange(poolAddress[pos_id_in_use]).increaseStake(votePower);\r\n    }\r\n  }\r\n\r\n  function SyncValue() public Only_in_order Only_trusted_trigers {\r\n    require(identifier==3,\"identifier is not right, need be 3\");\r\n    uint256 sum = IERC20(xCFXAddress).totalSupply() ; \r\n    bytes memory rawbalance = crossSpaceCall.callEVM(ePoolAddrB20(), abi.encodeWithSignature(\"espacebalanceof(bytes20)\", ePoolAddrB20()));\r\n    uint256 balanceinpool =  abi.decode(rawbalance, (uint256));    uint256 pool_sum = poolAddress.length;\r\n    uint256 SUMvotes;\r\n    for(uint256 i=0;i<pool_sum;i++)\r\n    {\r\n        SUMvotes += IExchange(poolAddress[i]).poolSummary().totalvotes;\r\n    }\r\n    uint256 xCFXvalues =balanceinpool.add(SUMvotes.mul(CFX_VALUE_OF_ONE_VOTE)).div(sum);\r\n    crossSpaceCall.callEVM(ePoolAddrB20(), abi.encodeWithSignature(\"setxCFXValue(uint256)\", xCFXvalues));\r\n  }\r\n\r\n  function handleUnstake() public Only_in_order Only_trusted_trigers {\r\n    require(identifier==4,\"identifier is not right, need be 4\");\r\n    uint256 unstakeLen = queryUnstakeLen();\r\n    if (unstakeLen == 0) return;\r\n    if (unstakeLen > 50) unstakeLen = 50; // max 50 unstakes per call\r\n    IExchange posPool = IExchange(poolAddress[pos_id_in_use]);\r\n    IExchange.PoolSummary memory poolSummary = posPool.poolSummary();\r\n    uint256 available = poolSummary.totalvotes;\r\n    bytes memory rawFirstUnstakeVotes ;\r\n    uint256 firstUnstakeVotes;\r\n    if (available == 0) return;\r\n    for(uint256 i = 0; i < unstakeLen; i++) {\r\n      rawFirstUnstakeVotes = crossSpaceCall.callEVM(ePoolAddrB20(), abi.encodeWithSignature(\"firstUnstakeVotes()\"));\r\n      firstUnstakeVotes = abi.decode(rawFirstUnstakeVotes, (uint256));\r\n      if (firstUnstakeVotes == 0) break;\r\n      if (firstUnstakeVotes > available) break;\r\n      posPool.decreaseStake(uint64(firstUnstakeVotes));\r\n      crossSpaceCall.callEVM(ePoolAddrB20(), abi.encodeWithSignature(\"handleUnstakeTask()\"));\r\n      available -= firstUnstakeVotes;\r\n    }\r\n  }\r\n\r\n  function withdrawVotes() public Only_in_order Only_trusted_trigers {\r\n    require(identifier==5,\"identifier is not right, need be 5\");\r\n    uint256 pool_sum = poolAddress.length;\r\n    IExchange posPool;\r\n    uint256 temp_unlocked;\r\n    //uint256 transferValue;\r\n    for(uint256 i=0;i<pool_sum;i++)\r\n    {\r\n      posPool = IExchange(poolAddress[i]);\r\n      IExchange.PoolSummary memory poolSummary = posPool.poolSummary();\r\n      temp_unlocked = poolSummary.unlocked;\r\n      if (temp_unlocked > 0) \r\n      {\r\n        posPool.withdrawStake();\r\n        // transfer to eSpacePool and call method\r\n        //transferValue = temp_unlocked * 1000 ether;\r\n        //crossSpaceCall.callEVM{value: transferValue}(ePoolAddrB20(), abi.encodeWithSignature(\"handleUnlockedIncrease(uint256)\", userSummary.unlocked));\r\n      }\r\n    }\r\n  }\r\n\r\n  function callEVM(address addr, bytes calldata data) public Only_trusted_trigers {\r\n    crossSpaceCall.callEVM(bytes20(addr), data);\r\n  }\r\n\r\n  fallback() external payable {}\r\n  receive() external payable {}\r\n\r\n  //--------------------------------------temp-----------------------------------------------\r\n   function identifier_test(uint256 _identifier) public onlyOwner {identifier=_identifier; }\r\n  \r\n}",
  "sourcePath": "C:/Users/artii/Conflux Studio/minpos/contracts/eSpace/CoreBridge_multipool.sol",
  "compiler": {
    "name": "solc",
    "version": "0.8.2+commit.661d1103.Emscripten.clang"
  },
  "schemaVersion": "3.3.4",
  "updatedAt": "2022-08-19T23:40:06.823Z",
  "devdoc": {
    "details": "This contract set the user share ratio, system share ratio, compound the interests",
    "kind": "dev",
    "methods": {
      "owner()": {
        "details": "Returns the address of the current owner."
      },
      "renounceOwnership()": {
        "details": "Leaves the contract without owner. It will not be possible to call `onlyOwner` functions anymore. Can only be called by the current owner. NOTE: Renouncing ownership will leave the contract without an owner, thereby removing any functionality that is only available to the owner."
      },
      "transferOwnership(address)": {
        "details": "Transfers ownership of the contract to a new account (`newOwner`). Can only be called by the current owner."
      }
    },
    "title": "CoreBridge_multipool is a bridge to connect Conflux POS pools and Exchange rooms ,deployed in core;",
    "version": 1
  },
  "userdoc": {
    "kind": "user",
    "methods": {},
    "notice": "Users cann't direct use this contract to participate Conflux PoS stake.",
    "version": 1
  }
}