{
  "contractName": "CoreExchange",
  "abi": [
    {
      "anonymous": false,
      "inputs": [
        {
          "indexed": true,
          "internalType": "address",
          "name": "previousOwner",
          "type": "address"
        },
        {
          "indexed": true,
          "internalType": "address",
          "name": "newOwner",
          "type": "address"
        }
      ],
      "name": "OwnershipTransferred",
      "type": "event"
    },
    {
      "stateMutability": "payable",
      "type": "fallback"
    },
    {
      "inputs": [],
      "name": "_poolLockPeriod_fast",
      "outputs": [
        {
          "internalType": "uint256",
          "name": "",
          "type": "uint256"
        }
      ],
      "stateMutability": "view",
      "type": "function"
    },
    {
      "inputs": [],
      "name": "_poolLockPeriod_slow",
      "outputs": [
        {
          "internalType": "uint256",
          "name": "",
          "type": "uint256"
        }
      ],
      "stateMutability": "view",
      "type": "function"
    },
    {
      "inputs": [],
      "name": "owner",
      "outputs": [
        {
          "internalType": "address",
          "name": "",
          "type": "address"
        }
      ],
      "stateMutability": "view",
      "type": "function"
    },
    {
      "inputs": [],
      "name": "poolName",
      "outputs": [
        {
          "internalType": "string",
          "name": "",
          "type": "string"
        }
      ],
      "stateMutability": "view",
      "type": "function"
    },
    {
      "inputs": [],
      "name": "renounceOwnership",
      "outputs": [],
      "stateMutability": "nonpayable",
      "type": "function"
    },
    {
      "inputs": [
        {
          "internalType": "address",
          "name": "newOwner",
          "type": "address"
        }
      ],
      "name": "transferOwnership",
      "outputs": [],
      "stateMutability": "nonpayable",
      "type": "function"
    },
    {
      "stateMutability": "payable",
      "type": "receive"
    },
    {
      "inputs": [],
      "name": "initialize",
      "outputs": [],
      "stateMutability": "nonpayable",
      "type": "function"
    },
    {
      "inputs": [
        {
          "internalType": "uint64",
          "name": "_slow",
          "type": "uint64"
        },
        {
          "internalType": "uint64",
          "name": "_fast",
          "type": "uint64"
        }
      ],
      "name": "_setLockPeriod",
      "outputs": [],
      "stateMutability": "nonpayable",
      "type": "function"
    },
    {
      "inputs": [],
      "name": "_setstart",
      "outputs": [],
      "stateMutability": "nonpayable",
      "type": "function"
    },
    {
      "inputs": [
        {
          "internalType": "address",
          "name": "_eSpaceroomAddr",
          "type": "address"
        }
      ],
      "name": "_seteSpaceroomAddr",
      "outputs": [],
      "stateMutability": "nonpayable",
      "type": "function"
    },
    {
      "inputs": [
        {
          "internalType": "address",
          "name": "_xCFXeSpaceAddr",
          "type": "address"
        }
      ],
      "name": "_setxCFXeSpaceAddr",
      "outputs": [],
      "stateMutability": "nonpayable",
      "type": "function"
    },
    {
      "inputs": [
        {
          "internalType": "address",
          "name": "_storagebridgeAddr",
          "type": "address"
        }
      ],
      "name": "_setstoragebridgeAddr",
      "outputs": [],
      "stateMutability": "nonpayable",
      "type": "function"
    },
    {
      "inputs": [
        {
          "internalType": "address",
          "name": "_bridgeeSpacesideaddr",
          "type": "address"
        }
      ],
      "name": "_setbridgeeSpacesideaddr",
      "outputs": [],
      "stateMutability": "nonpayable",
      "type": "function"
    },
    {
      "inputs": [
        {
          "internalType": "address",
          "name": "_bridgeCoresideaddr",
          "type": "address"
        }
      ],
      "name": "_setbridgeCoresideaddr",
      "outputs": [],
      "stateMutability": "nonpayable",
      "type": "function"
    },
    {
      "inputs": [
        {
          "internalType": "address",
          "name": "_xCFXCoreAddr",
          "type": "address"
        }
      ],
      "name": "_setxCFXCoreAddr",
      "outputs": [],
      "stateMutability": "nonpayable",
      "type": "function"
    },
    {
      "inputs": [
        {
          "internalType": "uint256",
          "name": "_amount",
          "type": "uint256"
        }
      ],
      "name": "CFX_exchange_estim",
      "outputs": [
        {
          "internalType": "uint256",
          "name": "",
          "type": "uint256"
        }
      ],
      "stateMutability": "view",
      "type": "function"
    },
    {
      "inputs": [],
      "name": "CFX_exchange_XCFX",
      "outputs": [
        {
          "internalType": "uint256",
          "name": "",
          "type": "uint256"
        }
      ],
      "stateMutability": "payable",
      "type": "function"
    },
    {
      "inputs": [
        {
          "internalType": "uint256",
          "name": "_amount",
          "type": "uint256"
        }
      ],
      "name": "XCFX_burn_estim",
      "outputs": [
        {
          "internalType": "uint256",
          "name": "",
          "type": "uint256"
        }
      ],
      "stateMutability": "view",
      "type": "function"
    },
    {
      "inputs": [
        {
          "internalType": "uint256",
          "name": "_amount",
          "type": "uint256"
        }
      ],
      "name": "XCFX_burn",
      "outputs": [
        {
          "internalType": "uint256",
          "name": "",
          "type": "uint256"
        },
        {
          "internalType": "uint256",
          "name": "",
          "type": "uint256"
        }
      ],
      "stateMutability": "nonpayable",
      "type": "function"
    },
    {
      "inputs": [
        {
          "internalType": "uint256",
          "name": "_amount",
          "type": "uint256"
        }
      ],
      "name": "getback_CFX",
      "outputs": [],
      "stateMutability": "nonpayable",
      "type": "function"
    },
    {
      "inputs": [
        {
          "internalType": "address",
          "name": "_user",
          "type": "address"
        }
      ],
      "name": "userSummary",
      "outputs": [
        {
          "components": [
            {
              "internalType": "uint256",
              "name": "unlocking",
              "type": "uint256"
            },
            {
              "internalType": "uint256",
              "name": "unlocked",
              "type": "uint256"
            }
          ],
          "internalType": "struct CoreExchange.UserSummary",
          "name": "",
          "type": "tuple"
        }
      ],
      "stateMutability": "view",
      "type": "function"
    },
    {
      "inputs": [],
      "name": "Summary",
      "outputs": [
        {
          "components": [
            {
              "internalType": "uint256",
              "name": "totalxcfxs",
              "type": "uint256"
            },
            {
              "internalType": "uint256",
              "name": "xcfxvalues",
              "type": "uint256"
            },
            {
              "internalType": "uint256",
              "name": "alloflockedvotes",
              "type": "uint256"
            },
            {
              "internalType": "uint256",
              "name": "unlockingCFX",
              "type": "uint256"
            }
          ],
          "internalType": "struct CoreExchange.ExchangeSummary",
          "name": "",
          "type": "tuple"
        }
      ],
      "stateMutability": "view",
      "type": "function"
    },
    {
      "inputs": [
        {
          "internalType": "address",
          "name": "account",
          "type": "address"
        }
      ],
      "name": "userOutQueue",
      "outputs": [
        {
          "components": [
            {
              "internalType": "uint256",
              "name": "votePower",
              "type": "uint256"
            },
            {
              "internalType": "uint256",
              "name": "endBlock",
              "type": "uint256"
            }
          ],
          "internalType": "struct VotePowerQueue.QueueNode[]",
          "name": "",
          "type": "tuple[]"
        }
      ],
      "stateMutability": "view",
      "type": "function"
    }
  ],
  "bytecode": "0x6080604052600f6202a3006200001691906200012e565b60085560026202a3006200002b91906200012e565b6009553480156200003b57600080fd5b506200005c620000506200006260201b60201c565b6200006a60201b60201c565b620001c8565b600033905090565b60008060009054906101000a900473ffffffffffffffffffffffffffffffffffffffff169050816000806101000a81548173ffffffffffffffffffffffffffffffffffffffff021916908373ffffffffffffffffffffffffffffffffffffffff1602179055508173ffffffffffffffffffffffffffffffffffffffff168173ffffffffffffffffffffffffffffffffffffffff167f8be0079c531659141344cd1fd0a4f28419497f9722a3daafe3b4186f6b6457e060405160405180910390a35050565b60006200013b826200018f565b915062000148836200018f565b9250817fffffffffffffffffffffffffffffffffffffffffffffffffffffffffffffffff048311821515161562000184576200018362000199565b5b828202905092915050565b6000819050919050565b7f4e487b7100000000000000000000000000000000000000000000000000000000600052601160045260246000fd5b6135e380620001d86000396000f3fe6080604052600436106101435760003560e01c806384c07b5d116100b6578063b33af36a1161006f578063b33af36a1461041b578063c134e96514610444578063db51ffe41461046f578063e3d5b23314610498578063f2fde38b146104d5578063f3466dfa146104fe5761014a565b806384c07b5d1461030b5780638c355220146103485780638d294225146103715780638d5978591461039c5780638da5cb5b146103c7578063accd9295146103f25761014a565b806347108abc1161010857806347108abc1461022f57806366f355db1461026d57806368eca7f914610296578063715018a6146102b45780637ca5e0eb146102cb5780638129fc1c146102f45761014a565b80624eabac1461014c5780630ddf0ef11461017557806324a3bbe2146101b25780632e63edde146101ef578063388bfbda146102065761014a565b3661014a57005b005b34801561015857600080fd5b50610173600480360381019061016e9190612a9c565b610529565b005b34801561018157600080fd5b5061019c60048036038101906101979190612b2f565b6105e9565b6040516101a99190613044565b60405180910390f35b3480156101be57600080fd5b506101d960048036038101906101d49190612a9c565b610774565b6040516101e69190612efa565b60405180910390f35b3480156101fb57600080fd5b506102046107c4565b005b34801561021257600080fd5b5061022d60048036038101906102289190612a9c565b61085d565b005b34801561023b57600080fd5b5061025660048036038101906102519190612b2f565b61091d565b60405161026492919061305f565b60405180910390f35b34801561027957600080fd5b50610294600480360381019061028f9190612b2f565b6110b3565b005b61029e6114ec565b6040516102ab9190613044565b60405180910390f35b3480156102c057600080fd5b506102c9611a75565b005b3480156102d757600080fd5b506102f260048036038101906102ed9190612a9c565b611afd565b005b34801561030057600080fd5b50610309611bbd565b005b34801561031757600080fd5b50610332600480360381019061032d9190612b2f565b611d66565b60405161033f9190613044565b60405180910390f35b34801561035457600080fd5b5061036f600480360381019061036a9190612a9c565b611ef1565b005b34801561037d57600080fd5b50610386611fb1565b604051610393919061300e565b60405180910390f35b3480156103a857600080fd5b506103b1611ff3565b6040516103be9190613044565b60405180910390f35b3480156103d357600080fd5b506103dc611ff9565b6040516103e99190612e7f565b60405180910390f35b3480156103fe57600080fd5b5061041960048036038101906104149190612a9c565b612022565b005b34801561042757600080fd5b50610442600480360381019061043d9190612a9c565b6120e2565b005b34801561045057600080fd5b506104596121a2565b6040516104669190613044565b60405180910390f35b34801561047b57600080fd5b5061049660048036038101906104919190612bbd565b6121a8565b005b3480156104a457600080fd5b506104bf60048036038101906104ba9190612a9c565b61224a565b6040516104cc9190613029565b60405180910390f35b3480156104e157600080fd5b506104fc60048036038101906104f79190612a9c565b61233b565b005b34801561050a57600080fd5b50610513612433565b6040516105209190612f4c565b60405180910390f35b6105316124c1565b73ffffffffffffffffffffffffffffffffffffffff1661054f611ff9565b73ffffffffffffffffffffffffffffffffffffffff16146105a5576040517f08c379a000000000000000000000000000000000000000000000000000000000815260040161059c90612fce565b60405180910390fd5b80600660006101000a81548173ffffffffffffffffffffffffffffffffffffffff021916908373ffffffffffffffffffffffffffffffffffffffff16021790555050565b600080600160009054906101000a900473ffffffffffffffffffffffffffffffffffffffff1673ffffffffffffffffffffffffffffffffffffffff166330b4ef7d600260009054906101000a900473ffffffffffffffffffffffffffffffffffffffff1660601b856040516024016106619190613044565b6040516020818303038152906040527f0ddf0ef1000000000000000000000000000000000000000000000000000000007bffffffffffffffffffffffffffffffffffffffffffffffffffffffff19166020820180517bffffffffffffffffffffffffffffffffffffffffffffffffffffffff83818316178352505050506040518363ffffffff1660e01b81526004016106fb929190612f1c565b60006040518083038186803b15801561071357600080fd5b505afa158015610727573d6000803e3d6000fd5b505050506040513d6000823e3d601f19601f820116820180604052508101906107509190612aee565b90506000818060200190518101906107689190612b58565b90508092505050919050565b60606107bd601360008473ffffffffffffffffffffffffffffffffffffffff1673ffffffffffffffffffffffffffffffffffffffff1681526020019081526020016000206124c9565b9050919050565b6107cc6124c1565b73ffffffffffffffffffffffffffffffffffffffff166107ea611ff9565b73ffffffffffffffffffffffffffffffffffffffff1614610840576040517f08c379a000000000000000000000000000000000000000000000000000000000815260040161083790612fce565b60405180910390fd5b6001600760146101000a81548160ff021916908315150217905550565b6108656124c1565b73ffffffffffffffffffffffffffffffffffffffff16610883611ff9565b73ffffffffffffffffffffffffffffffffffffffff16146108d9576040517f08c379a00000000000000000000000000000000000000000000000000000000081526004016108d090612fce565b60405180910390fd5b80600260006101000a81548173ffffffffffffffffffffffffffffffffffffffff021916908373ffffffffffffffffffffffffffffffffffffffff16021790555050565b60008060011515600760149054906101000a900460ff16151514610976576040517f08c379a000000000000000000000000000000000000000000000000000000000815260040161096d90612fee565b60405180910390fd5b600660009054906101000a900473ffffffffffffffffffffffffffffffffffffffff1673ffffffffffffffffffffffffffffffffffffffff166323b872dd3330866040518463ffffffff1660e01b81526004016109d593929190612e9a565b602060405180830381600087803b1580156109ef57600080fd5b505af1158015610a03573d6000803e3d6000fd5b505050506040513d601f19601f82011682018060405250810190610a279190612ac5565b50600660009054906101000a900473ffffffffffffffffffffffffffffffffffffffff1673ffffffffffffffffffffffffffffffffffffffff1663095ea7b3600560009054906101000a900473ffffffffffffffffffffffffffffffffffffffff16856040518363ffffffff1660e01b8152600401610aa7929190612ed1565b602060405180830381600087803b158015610ac157600080fd5b505af1158015610ad5573d6000803e3d6000fd5b505050506040513d601f19601f82011682018060405250810190610af99190612ac5565b50600560009054906101000a900473ffffffffffffffffffffffffffffffffffffffff1673ffffffffffffffffffffffffffffffffffffffff16634f7acc4a600360009054906101000a900473ffffffffffffffffffffffffffffffffffffffff16600760009054906101000a900473ffffffffffffffffffffffffffffffffffffffff16866040518463ffffffff1660e01b8152600401610b9d93929190612e9a565b600060405180830381600087803b158015610bb757600080fd5b505af1158015610bcb573d6000803e3d6000fd5b505050506000600160009054906101000a900473ffffffffffffffffffffffffffffffffffffffff1673ffffffffffffffffffffffffffffffffffffffff1663bea05ee3600760009054906101000a900473ffffffffffffffffffffffffffffffffffffffff1660601b86604051602401610c469190613044565b6040516020818303038152906040527fcfcb5fac000000000000000000000000000000000000000000000000000000007bffffffffffffffffffffffffffffffffffffffffffffffffffffffff19166020820180517bffffffffffffffffffffffffffffffffffffffffffffffffffffffff83818316178352505050506040518363ffffffff1660e01b8152600401610ce0929190612f1c565b600060405180830381600087803b158015610cfa57600080fd5b505af1158015610d0e573d6000803e3d6000fd5b505050506040513d6000823e3d601f19601f82011682018060405250810190610d379190612aee565b905060008082806020019051810190610d509190612b81565b8092508193505050600660009054906101000a900473ffffffffffffffffffffffffffffffffffffffff1673ffffffffffffffffffffffffffffffffffffffff166318160ddd6040518163ffffffff1660e01b815260040160206040518083038186803b158015610dc057600080fd5b505afa158015610dd4573d6000803e3d6000fd5b505050506040513d601f19601f82011682018060405250810190610df89190612b58565b600b6000018190555081600b6003016000828254610e16919061314f565b9250508190555062018af5811415610ebd57610ea16040518060400160405280848152602001600954610e47612616565b610e51919061314f565b815250601360003373ffffffffffffffffffffffffffffffffffffffff1673ffffffffffffffffffffffffffffffffffffffff16815260200190815260200160002061261e90919063ffffffff16565b600954610eac612616565b610eb6919061314f565b9550610f4e565b610f366040518060400160405280848152602001600854610edc612616565b610ee6919061314f565b815250601360003373ffffffffffffffffffffffffffffffffffffffff1673ffffffffffffffffffffffffffffffffffffffff16815260200190815260200160002061261e90919063ffffffff16565b600854610f41612616565b610f4b919061314f565b95505b81601260003373ffffffffffffffffffffffffffffffffffffffff1673ffffffffffffffffffffffffffffffffffffffff1681526020019081526020016000206000016000828254610fa0919061314f565b925050819055506000610ff0601360003373ffffffffffffffffffffffffffffffffffffffff1673ffffffffffffffffffffffffffffffffffffffff168152602001908152602001600020612667565b905080601260003373ffffffffffffffffffffffffffffffffffffffff1673ffffffffffffffffffffffffffffffffffffffff1681526020019081526020016000206001016000828254611044919061314f565b9250508190555080601260003373ffffffffffffffffffffffffffffffffffffffff1673ffffffffffffffffffffffffffffffffffffffff168152602001908152602001600020600001600082825461109d91906131ff565b9250508190555082829550955050505050915091565b60011515600760149054906101000a900460ff16151514611109576040517f08c379a000000000000000000000000000000000000000000000000000000000815260040161110090612fee565b60405180910390fd5b6000611152601360003373ffffffffffffffffffffffffffffffffffffffff1673ffffffffffffffffffffffffffffffffffffffff168152602001908152602001600020612667565b905080601260003373ffffffffffffffffffffffffffffffffffffffff1673ffffffffffffffffffffffffffffffffffffffff16815260200190815260200160002060010160008282546111a6919061314f565b9250508190555080601260003373ffffffffffffffffffffffffffffffffffffffff1673ffffffffffffffffffffffffffffffffffffffff16815260200190815260200160002060000160008282546111ff91906131ff565b9250508190555081600b600301600082825461121b91906131ff565b9250508190555081601260003373ffffffffffffffffffffffffffffffffffffffff1673ffffffffffffffffffffffffffffffffffffffff1681526020019081526020016000206001015410156112a7576040517f08c379a000000000000000000000000000000000000000000000000000000000815260040161129e90612fae565b60405180910390fd5b600160009054906101000a900473ffffffffffffffffffffffffffffffffffffffff1673ffffffffffffffffffffffffffffffffffffffff1663bea05ee3600760009054906101000a900473ffffffffffffffffffffffffffffffffffffffff1660601b8460405160240161131c9190613044565b6040516020818303038152906040527f0c73ce4a000000000000000000000000000000000000000000000000000000007bffffffffffffffffffffffffffffffffffffffffffffffffffffffff19166020820180517bffffffffffffffffffffffffffffffffffffffffffffffffffffffff83818316178352505050506040518363ffffffff1660e01b81526004016113b6929190612f1c565b600060405180830381600087803b1580156113d057600080fd5b505af11580156113e4573d6000803e3d6000fd5b505050506040513d6000823e3d601f19601f8201168201806040525081019061140d9190612aee565b50600160009054906101000a900473ffffffffffffffffffffffffffffffffffffffff1673ffffffffffffffffffffffffffffffffffffffff1663c23ef031836040518263ffffffff1660e01b81526004016114699190613044565b600060405180830381600087803b15801561148357600080fd5b505af1158015611497573d6000803e3d6000fd5b5050505060003390508073ffffffffffffffffffffffffffffffffffffffff166108fc849081150290604051600060405180830381858888f193505050501580156114e6573d6000803e3d6000fd5b50505050565b600060011515600760149054906101000a900460ff16151514611544576040517f08c379a000000000000000000000000000000000000000000000000000000000815260040161153b90612fee565b60405180910390fd5b6000600160009054906101000a900473ffffffffffffffffffffffffffffffffffffffff1673ffffffffffffffffffffffffffffffffffffffff1663bea05ee334600260009054906101000a900473ffffffffffffffffffffffffffffffffffffffff1660601b6040516024016040516020818303038152906040527fc9d1e7f6000000000000000000000000000000000000000000000000000000007bffffffffffffffffffffffffffffffffffffffffffffffffffffffff19166020820180517bffffffffffffffffffffffffffffffffffffffffffffffffffffffff83818316178352505050506040518463ffffffff1660e01b815260040161164b929190612f1c565b6000604051808303818588803b15801561166457600080fd5b505af1158015611678573d6000803e3d6000fd5b50505050506040513d6000823e3d601f19601f820116820180604052508101906116a29190612aee565b90506000818060200190518101906116ba9190612b58565b9050600160009054906101000a900473ffffffffffffffffffffffffffffffffffffffff1673ffffffffffffffffffffffffffffffffffffffff1663bea05ee3600760009054906101000a900473ffffffffffffffffffffffffffffffffffffffff1660601b836040516024016117319190613044565b6040516020818303038152906040527f1c1ab777000000000000000000000000000000000000000000000000000000007bffffffffffffffffffffffffffffffffffffffffffffffffffffffff19166020820180517bffffffffffffffffffffffffffffffffffffffffffffffffffffffff83818316178352505050506040518363ffffffff1660e01b81526004016117cb929190612f1c565b600060405180830381600087803b1580156117e557600080fd5b505af11580156117f9573d6000803e3d6000fd5b505050506040513d6000823e3d601f19601f820116820180604052508101906118229190612aee565b9150818060200190518101906118389190612b58565b9050600560009054906101000a900473ffffffffffffffffffffffffffffffffffffffff1673ffffffffffffffffffffffffffffffffffffffff166357c0478c600360009054906101000a900473ffffffffffffffffffffffffffffffffffffffff16600760009054906101000a900473ffffffffffffffffffffffffffffffffffffffff16846040518463ffffffff1660e01b81526004016118dd93929190612e9a565b600060405180830381600087803b1580156118f757600080fd5b505af115801561190b573d6000803e3d6000fd5b50505050600660009054906101000a900473ffffffffffffffffffffffffffffffffffffffff1673ffffffffffffffffffffffffffffffffffffffff1663a9059cbb33836040518363ffffffff1660e01b815260040161196c929190612ed1565b602060405180830381600087803b15801561198657600080fd5b505af115801561199a573d6000803e3d6000fd5b505050506040513d601f19601f820116820180604052508101906119be9190612ac5565b50600660009054906101000a900473ffffffffffffffffffffffffffffffffffffffff1673ffffffffffffffffffffffffffffffffffffffff166318160ddd6040518163ffffffff1660e01b815260040160206040518083038186803b158015611a2757600080fd5b505afa158015611a3b573d6000803e3d6000fd5b505050506040513d601f19601f82011682018060405250810190611a5f9190612b58565b600b60000181905550600b600001549250505090565b611a7d6124c1565b73ffffffffffffffffffffffffffffffffffffffff16611a9b611ff9565b73ffffffffffffffffffffffffffffffffffffffff1614611af1576040517f08c379a0000000000000000000000000000000000000000000000000000000008152600401611ae890612fce565b60405180910390fd5b611afb60006126f6565b565b611b056124c1565b73ffffffffffffffffffffffffffffffffffffffff16611b23611ff9565b73ffffffffffffffffffffffffffffffffffffffff1614611b79576040517f08c379a0000000000000000000000000000000000000000000000000000000008152600401611b7090612fce565b60405180910390fd5b80600360006101000a81548173ffffffffffffffffffffffffffffffffffffffff021916908373ffffffffffffffffffffffffffffffffffffffff16021790555050565b600060159054906101000a900460ff1680611be55750600060149054906101000a900460ff16155b611c24576040517f08c379a0000000000000000000000000000000000000000000000000000000008152600401611c1b90612f8e565b60405180910390fd5b60008060159054906101000a900460ff161590508015611c75576001600060156101000a81548160ff0219169083151502179055506001600060146101000a81548160ff0219169083151502179055505b730888000000000000000000000000000000000006600160006101000a81548173ffffffffffffffffffffffffffffffffffffffff021916908373ffffffffffffffffffffffffffffffffffffffff160217905550600f6202a300611cda91906131a5565b60088190555060026202a300611cf091906131a5565b6009819055506040518060400160405280601081526020017f554e434c454f4e2048554220436f726500000000000000000000000000000000815250600a9080519060200190611d419291906128cc565b508015611d635760008060156101000a81548160ff0219169083151502179055505b50565b600080600160009054906101000a900473ffffffffffffffffffffffffffffffffffffffff1673ffffffffffffffffffffffffffffffffffffffff166330b4ef7d600260009054906101000a900473ffffffffffffffffffffffffffffffffffffffff1660601b85604051602401611dde9190613044565b6040516020818303038152906040527f84c07b5d000000000000000000000000000000000000000000000000000000007bffffffffffffffffffffffffffffffffffffffffffffffffffffffff19166020820180517bffffffffffffffffffffffffffffffffffffffffffffffffffffffff83818316178352505050506040518363ffffffff1660e01b8152600401611e78929190612f1c565b60006040518083038186803b158015611e9057600080fd5b505afa158015611ea4573d6000803e3d6000fd5b505050506040513d6000823e3d601f19601f82011682018060405250810190611ecd9190612aee565b9050600081806020019051810190611ee59190612b58565b90508092505050919050565b611ef96124c1565b73ffffffffffffffffffffffffffffffffffffffff16611f17611ff9565b73ffffffffffffffffffffffffffffffffffffffff1614611f6d576040517f08c379a0000000000000000000000000000000000000000000000000000000008152600401611f6490612fce565b60405180910390fd5b80600760006101000a81548173ffffffffffffffffffffffffffffffffffffffff021916908373ffffffffffffffffffffffffffffffffffffffff16021790555050565b611fb9612952565b600b604051806080016040529081600082015481526020016001820154815260200160028201548152602001600382015481525050905090565b60095481565b60008060009054906101000a900473ffffffffffffffffffffffffffffffffffffffff16905090565b61202a6124c1565b73ffffffffffffffffffffffffffffffffffffffff16612048611ff9565b73ffffffffffffffffffffffffffffffffffffffff161461209e576040517f08c379a000000000000000000000000000000000000000000000000000000000815260040161209590612fce565b60405180910390fd5b80600560006101000a81548173ffffffffffffffffffffffffffffffffffffffff021916908373ffffffffffffffffffffffffffffffffffffffff16021790555050565b6120ea6124c1565b73ffffffffffffffffffffffffffffffffffffffff16612108611ff9565b73ffffffffffffffffffffffffffffffffffffffff161461215e576040517f08c379a000000000000000000000000000000000000000000000000000000000815260040161215590612fce565b60405180910390fd5b80600460006101000a81548173ffffffffffffffffffffffffffffffffffffffff021916908373ffffffffffffffffffffffffffffffffffffffff16021790555050565b60085481565b6121b06124c1565b73ffffffffffffffffffffffffffffffffffffffff166121ce611ff9565b73ffffffffffffffffffffffffffffffffffffffff1614612224576040517f08c379a000000000000000000000000000000000000000000000000000000000815260040161221b90612fce565b60405180910390fd5b8167ffffffffffffffff166008819055508067ffffffffffffffff166009819055505050565b61225261297a565b6000601260008473ffffffffffffffffffffffffffffffffffffffff1673ffffffffffffffffffffffffffffffffffffffff16815260200190815260200160002060405180604001604052908160008201548152602001600182015481525050905060006122fd601360008673ffffffffffffffffffffffffffffffffffffffff1673ffffffffffffffffffffffffffffffffffffffff1681526020019081526020016000206127ba565b90508082602001818151612311919061314f565b91508181525050808260000181815161232a91906131ff565b915081815250508192505050919050565b6123436124c1565b73ffffffffffffffffffffffffffffffffffffffff16612361611ff9565b73ffffffffffffffffffffffffffffffffffffffff16146123b7576040517f08c379a00000000000000000000000000000000000000000000000000000000081526004016123ae90612fce565b60405180910390fd5b600073ffffffffffffffffffffffffffffffffffffffff168173ffffffffffffffffffffffffffffffffffffffff161415612427576040517f08c379a000000000000000000000000000000000000000000000000000000000815260040161241e90612f6e565b60405180910390fd5b612430816126f6565b50565b600a8054612440906132ee565b80601f016020809104026020016040519081016040528092919081815260200182805461246c906132ee565b80156124b95780601f1061248e576101008083540402835291602001916124b9565b820191906000526020600020905b81548152906001019060200180831161249c57829003601f168201915b505050505081565b600033905090565b60606000826000015483600101546124e191906131ff565b67ffffffffffffffff811115612520577f4e487b7100000000000000000000000000000000000000000000000000000000600052604160045260246000fd5b60405190808252806020026020018201604052801561255957816020015b612546612994565b81526020019060019003908161253e5790505b5090506000836000015490505b836001015481101561260c5783600201600082815260200190815260200160002060405180604001604052908160008201548152602001600182015481525050828560000154836125b791906131ff565b815181106125ee577f4e487b7100000000000000000000000000000000000000000000000000000000600052603260045260246000fd5b6020026020010181905250808061260490613351565b915050612566565b5080915050919050565b600043905090565b8082600201600084600101600081548092919061263a90613351565b91905055815260200190815260200160002060008201518160000155602082015181600101559050505050565b600080600090506000836000015490505b83600101548110156126ec57438460020160008381526020019081526020016000206001015411156126a9576126ec565b83600201600082815260200190815260200160002060000154826126cd919061314f565b91506126d88461283f565b5080806126e490613351565b915050612678565b5080915050919050565b60008060009054906101000a900473ffffffffffffffffffffffffffffffffffffffff169050816000806101000a81548173ffffffffffffffffffffffffffffffffffffffff021916908373ffffffffffffffffffffffffffffffffffffffff1602179055508173ffffffffffffffffffffffffffffffffffffffff168173ffffffffffffffffffffffffffffffffffffffff167f8be0079c531659141344cd1fd0a4f28419497f9722a3daafe3b4186f6b6457e060405160405180910390a35050565b600080600090506000836000015490505b836001015481101561283557438460020160008381526020019081526020016000206001015411156127fc57612835565b8360020160008281526020019081526020016000206000015482612820919061314f565b9150808061282d90613351565b9150506127cb565b5080915050919050565b612847612994565b60008260020160008460000154815260200190815260200160002060405180604001604052908160008201548152602001600182015481525050905082600201600084600001600081548092919061289e90613351565b9190505581526020019081526020016000206000808201600090556001820160009055505080915050919050565b8280546128d8906132ee565b90600052602060002090601f0160209004810192826128fa5760008555612941565b82601f1061291357805160ff1916838001178555612941565b82800160010185558215612941579182015b82811115612940578251825591602001919060010190612925565b5b50905061294e91906129ae565b5090565b6040518060800160405280600081526020016000815260200160008152602001600081525090565b604051806040016040528060008152602001600081525090565b604051806040016040528060008152602001600081525090565b5b808211156129c75760008160009055506001016129af565b5090565b60006129de6129d9846130ad565b613088565b9050828152602081018484840111156129f657600080fd5b612a018482856132bb565b509392505050565b600081359050612a1881613551565b92915050565b600081519050612a2d81613568565b92915050565b600082601f830112612a4457600080fd5b8151612a548482602086016129cb565b91505092915050565b600081359050612a6c8161357f565b92915050565b600081519050612a818161357f565b92915050565b600081359050612a9681613596565b92915050565b600060208284031215612aae57600080fd5b6000612abc84828501612a09565b91505092915050565b600060208284031215612ad757600080fd5b6000612ae584828501612a1e565b91505092915050565b600060208284031215612b0057600080fd5b600082015167ffffffffffffffff811115612b1a57600080fd5b612b2684828501612a33565b91505092915050565b600060208284031215612b4157600080fd5b6000612b4f84828501612a5d565b91505092915050565b600060208284031215612b6a57600080fd5b6000612b7884828501612a72565b91505092915050565b60008060408385031215612b9457600080fd5b6000612ba285828601612a72565b9250506020612bb385828601612a72565b9150509250929050565b60008060408385031215612bd057600080fd5b6000612bde85828601612a87565b9250506020612bef85828601612a87565b9150509250929050565b6000612c058383612e03565b60408301905092915050565b612c1a81613233565b82525050565b6000612c2b826130ee565b612c35818561311c565b9350612c40836130de565b8060005b83811015612c71578151612c588882612bf9565b9750612c638361310f565b925050600181019050612c44565b5085935050505092915050565b612c8781613251565b82525050565b6000612c98826130f9565b612ca2818561312d565b9350612cb28185602086016132bb565b612cbb81613427565b840191505092915050565b6000612cd182613104565b612cdb818561313e565b9350612ceb8185602086016132bb565b612cf481613427565b840191505092915050565b6000612d0c60268361313e565b9150612d1782613438565b604082019050919050565b6000612d2f602e8361313e565b9150612d3a82613487565b604082019050919050565b6000612d5260188361313e565b9150612d5d826134d6565b602082019050919050565b6000612d7560208361313e565b9150612d80826134ff565b602082019050919050565b6000612d9860148361313e565b9150612da382613528565b602082019050919050565b608082016000820151612dc46000850182612e61565b506020820151612dd76020850182612e61565b506040820151612dea6040850182612e61565b506060820151612dfd6060850182612e61565b50505050565b604082016000820151612e196000850182612e61565b506020820151612e2c6020850182612e61565b50505050565b604082016000820151612e486000850182612e61565b506020820151612e5b6020850182612e61565b50505050565b612e6a8161329d565b82525050565b612e798161329d565b82525050565b6000602082019050612e946000830184612c11565b92915050565b6000606082019050612eaf6000830186612c11565b612ebc6020830185612c11565b612ec96040830184612e70565b949350505050565b6000604082019050612ee66000830185612c11565b612ef36020830184612e70565b9392505050565b60006020820190508181036000830152612f148184612c20565b905092915050565b6000604082019050612f316000830185612c7e565b8181036020830152612f438184612c8d565b90509392505050565b60006020820190508181036000830152612f668184612cc6565b905092915050565b60006020820190508181036000830152612f8781612cff565b9050919050565b60006020820190508181036000830152612fa781612d22565b9050919050565b60006020820190508181036000830152612fc781612d45565b9050919050565b60006020820190508181036000830152612fe781612d68565b9050919050565b6000602082019050818103600083015261300781612d8b565b9050919050565b60006080820190506130236000830184612dae565b92915050565b600060408201905061303e6000830184612e32565b92915050565b60006020820190506130596000830184612e70565b92915050565b60006040820190506130746000830185612e70565b6130816020830184612e70565b9392505050565b60006130926130a3565b905061309e8282613320565b919050565b6000604051905090565b600067ffffffffffffffff8211156130c8576130c76133f8565b5b6130d182613427565b9050602081019050919050565b6000819050602082019050919050565b600081519050919050565b600081519050919050565b600081519050919050565b6000602082019050919050565b600082825260208201905092915050565b600082825260208201905092915050565b600082825260208201905092915050565b600061315a8261329d565b91506131658361329d565b9250827fffffffffffffffffffffffffffffffffffffffffffffffffffffffffffffffff0382111561319a5761319961339a565b5b828201905092915050565b60006131b08261329d565b91506131bb8361329d565b9250817fffffffffffffffffffffffffffffffffffffffffffffffffffffffffffffffff04831182151516156131f4576131f361339a565b5b828202905092915050565b600061320a8261329d565b91506132158361329d565b9250828210156132285761322761339a565b5b828203905092915050565b600061323e8261327d565b9050919050565b60008115159050919050565b60007fffffffffffffffffffffffffffffffffffffffff00000000000000000000000082169050919050565b600073ffffffffffffffffffffffffffffffffffffffff82169050919050565b6000819050919050565b600067ffffffffffffffff82169050919050565b60005b838110156132d95780820151818401526020810190506132be565b838111156132e8576000848401525b50505050565b6000600282049050600182168061330657607f821691505b6020821081141561331a576133196133c9565b5b50919050565b61332982613427565b810181811067ffffffffffffffff82111715613348576133476133f8565b5b80604052505050565b600061335c8261329d565b91507fffffffffffffffffffffffffffffffffffffffffffffffffffffffffffffffff82141561338f5761338e61339a565b5b600182019050919050565b7f4e487b7100000000000000000000000000000000000000000000000000000000600052601160045260246000fd5b7f4e487b7100000000000000000000000000000000000000000000000000000000600052602260045260246000fd5b7f4e487b7100000000000000000000000000000000000000000000000000000000600052604160045260246000fd5b6000601f19601f8301169050919050565b7f4f776e61626c653a206e6577206f776e657220697320746865207a65726f206160008201527f6464726573730000000000000000000000000000000000000000000000000000602082015250565b7f496e697469616c697a61626c653a20636f6e747261637420697320616c72656160008201527f647920696e697469616c697a6564000000000000000000000000000000000000602082015250565b7f5f616d6f756e742065786365656420617661696c61626c650000000000000000600082015250565b7f4f776e61626c653a2063616c6c6572206973206e6f7420746865206f776e6572600082015250565b7f73746172746564206d7573742062652074727565000000000000000000000000600082015250565b61355a81613233565b811461356557600080fd5b50565b61357181613245565b811461357c57600080fd5b50565b6135888161329d565b811461359357600080fd5b50565b61359f816132a7565b81146135aa57600080fd5b5056fea2646970667358221220495c40591854d675a9ebf06a8e38ae5efc91f5f4d02973f84502e4bdfd13f24264736f6c63430008020033",
  "immutableReferences": {},
  "source": "//SPDX-License-Identifier: BUSL-1.1\r\npragma solidity ^0.8.0;\r\nimport \"@openzeppelin/contracts/utils/math/SafeMath.sol\";\r\nimport \"@openzeppelin/contracts/access/Ownable.sol\";\r\nimport \"@openzeppelin/contracts/token/ERC20/IERC20.sol\";\r\nimport \"@openzeppelin/contracts/proxy/utils/Initializable.sol\";\r\nimport \"../VotePowerQueue.sol\";\r\nimport \"../ICrossSpaceCall.sol\";\r\ninterface IERC20crossInCore{\r\n    function crossFromEvm(address _evmToken, address _evmAccount,uint256 _amount) external;\r\n    function withdrawToEvm(address _evmToken, address _evmAccount,uint256 _amount)  external;\r\n}\r\n///\r\n///  @title Core Exchange is deployed in core;\r\n///  @dev This contract exchange CFX and xCFX in core, \r\n///  @dev This contract use the espace exchangeroom methods to do the work  \r\n///  @notice Users can use this contract to participate Conflux PoS stake.\r\n///\r\ncontract CoreExchange is Ownable, Initializable {\r\n  using SafeMath for uint256;\r\n  using VotePowerQueue for VotePowerQueue.InOutQueue;\r\n  uint256 private constant ONE_DAY_BLOCK_COUNT = 3600 * 24 * 2;\r\n\r\n  CrossSpaceCall internal crossSpaceCall;\r\n  address eSpaceroomAddr;         //espace address\r\n  address xCFXeSpaceAddr;         //espace address\r\n  // address CoreExchangeeSpaceaddr; //espace address\r\n  address bridgeeSpacesideaddr;   //espace address\r\n  address bridgeCoresideaddr;     //Core address\r\n  address xCFXCoreAddr;           //Core address\r\n  address storagebridge;          //espace address\r\n  bool started;\r\n\r\n  uint256 public _poolLockPeriod_slow = ONE_DAY_BLOCK_COUNT * 15;\r\n  uint256 public _poolLockPeriod_fast = ONE_DAY_BLOCK_COUNT * 2;\r\n  string public poolName; // = \"UNCLEON HUB\";\r\n  // ======================== Struct definitions =========================\r\n\r\n  /// @title ExchangeSummary\r\n  /// @custom:field totalxcfxs\r\n  /// @custom:field totalinterests\r\n  /// @custom:field cfxstillinstore\r\n  /// @custom:field remainedcfx\r\n  struct ExchangeSummary {\r\n    uint256 totalxcfxs;\r\n    uint256 xcfxvalues;\r\n    uint256 alloflockedvotes;\r\n    uint256 unlockingCFX;\r\n  }\r\n\r\n  /// @title UserSummary\r\n  /// @custom:field unlocking\r\n  /// @custom:field unlocked\r\n  struct UserSummary {\r\n    uint256 unlocking;\r\n    uint256 unlocked;\r\n  }\r\n  // ======================== Contract states ===========================\r\n  ExchangeSummary private _exchangeSummary;\r\n  VotePowerQueue.InOutQueue private Inqueues;\r\n  mapping(address => UserSummary) private userSummaries;\r\n  mapping(address => VotePowerQueue.InOutQueue) private userOutqueues;\r\n  //--------------------------------------Modifiers-----------------------------------------------\r\n  modifier Only_after_started() {\r\n    require(started==true,'started must be true');\r\n    _;\r\n  }\r\n  // ======================== Helpers ===================================\r\n  function _selfBalance() internal view virtual returns (uint256) {\r\n    return address(this).balance;\r\n  }\r\n\r\n  function _blockNumber() internal view virtual returns (uint256) {\r\n    return block.number;\r\n  }\r\n  //--------------------------------------settings-----------------------------------------------\r\n  function initialize() public initializer{\r\n    crossSpaceCall = CrossSpaceCall(0x0888000000000000000000000000000000000006);\r\n    _poolLockPeriod_slow = ONE_DAY_BLOCK_COUNT * 15;\r\n    _poolLockPeriod_fast = ONE_DAY_BLOCK_COUNT * 2;\r\n    poolName = \"UNCLEON HUB Core\";\r\n  }\r\n\r\n  function _setLockPeriod(uint64 _slow,uint64 _fast) public onlyOwner {\r\n    _poolLockPeriod_slow = _slow;\r\n    _poolLockPeriod_fast = _fast;\r\n  }\r\n  function _setstart() external onlyOwner {\r\n    started = true;\r\n  }\r\n  function _seteSpaceroomAddr(address _eSpaceroomAddr) external onlyOwner {\r\n        eSpaceroomAddr = _eSpaceroomAddr;\r\n  }\r\n  function _setxCFXeSpaceAddr(address _xCFXeSpaceAddr) external onlyOwner {\r\n        xCFXeSpaceAddr = _xCFXeSpaceAddr;\r\n  } \r\n  function _setstoragebridgeAddr(address _storagebridgeAddr) external onlyOwner {\r\n        storagebridge = _storagebridgeAddr;\r\n  } \r\n  // function _setCoreExchangeeSpaceaddr(address _CoreExchangeeSpaceaddr) external onlyOwner {\r\n  //       CoreExchangeeSpaceaddr = _CoreExchangeeSpaceaddr;\r\n  // }\r\n  function _setbridgeeSpacesideaddr(address _bridgeeSpacesideaddr) external onlyOwner {\r\n        bridgeeSpacesideaddr = _bridgeeSpacesideaddr;\r\n  }\r\n  function _setbridgeCoresideaddr(address _bridgeCoresideaddr) external onlyOwner {\r\n        bridgeCoresideaddr = _bridgeCoresideaddr;\r\n  }\r\n  function _setxCFXCoreAddr(address _xCFXCoreAddr) external onlyOwner {\r\n        xCFXCoreAddr = _xCFXCoreAddr;\r\n  }\r\n  \r\n  //--------------------------------------functions-----------------------------------------------\r\n  //  function CFX_exchange_estim(uint256 _amount) public view returns(uint256);\r\n  //  function CFX_exchange_XCFX() external payable returns(uint256)   return xcfx_exchange;\r\n  //  function XCFX_burn_estim(uint256 _amount) public view returns(uint256);\r\n  //  function XCFX_burn(uint256 _amount) public virtual onlyRegisted returns(uint256);\r\n  //  function getback_CFX(uint256 _amount) public virtual onlyRegisted ;\r\n  function CFX_exchange_estim(uint256 _amount) public view returns(uint256){\r\n    bytes memory rawdatas = crossSpaceCall.staticCallEVM(bytes20(eSpaceroomAddr), abi.encodeWithSignature(\"CFX_exchange_estim(uint256)\", _amount));\r\n    uint256 estimReturn = abi.decode(rawdatas, (uint256));\r\n    return estimReturn;\r\n  }\r\n\r\n  function CFX_exchange_XCFX() external payable Only_after_started returns(uint256){\r\n    bytes memory rawdatas = crossSpaceCall.callEVM{value: msg.value}(bytes20(eSpaceroomAddr), abi.encodeWithSignature(\"handleCFXexchangeXCFX()\"));\r\n    uint256 Amount = abi.decode(rawdatas, (uint256));\r\n    rawdatas = crossSpaceCall.callEVM(bytes20(storagebridge), \r\n                            abi.encodeWithSignature(\"handlelock(uint256)\", Amount));\r\n    Amount = abi.decode(rawdatas, (uint256));\r\n    IERC20crossInCore(bridgeCoresideaddr).crossFromEvm(xCFXeSpaceAddr, storagebridge, Amount);\r\n    IERC20(xCFXCoreAddr).transfer(msg.sender, Amount);\r\n    _exchangeSummary.totalxcfxs = IERC20(xCFXCoreAddr).totalSupply();\r\n    return _exchangeSummary.totalxcfxs;\r\n  }\r\n\r\n  function XCFX_burn_estim(uint256 _amount) public view returns(uint256){\r\n    bytes memory rawdatas = crossSpaceCall.staticCallEVM(bytes20(eSpaceroomAddr), abi.encodeWithSignature(\"XCFX_burn_estim(uint256)\", _amount));\r\n    uint256 estimReturn = abi.decode(rawdatas, (uint256));\r\n    return estimReturn;\r\n  }\r\n  \r\n  function XCFX_burn(uint256 _amount) external Only_after_started returns(uint256, uint256){\r\n    IERC20(xCFXCoreAddr).transferFrom(msg.sender, address(this),_amount);\r\n    IERC20(xCFXCoreAddr).approve(bridgeCoresideaddr,_amount);\r\n    IERC20crossInCore(bridgeCoresideaddr).withdrawToEvm(xCFXeSpaceAddr, storagebridge, _amount);\r\n    bytes memory rawdatas = crossSpaceCall.callEVM(bytes20(storagebridge), abi.encodeWithSignature(\"handlexCFXburn(uint256)\",_amount));\r\n    uint256 withdrawCFXs;\r\n    uint256 withdrawtimes;\r\n    (withdrawCFXs,withdrawtimes) = abi.decode(rawdatas, (uint256,uint256));\r\n    _exchangeSummary.totalxcfxs = IERC20(xCFXCoreAddr).totalSupply();\r\n    _exchangeSummary.unlockingCFX += withdrawCFXs;\r\n\r\n    if(withdrawtimes == 101109){\r\n      userOutqueues[msg.sender].enqueue(VotePowerQueue.QueueNode(withdrawCFXs, _blockNumber() + _poolLockPeriod_fast));\r\n      _amount = _blockNumber() + _poolLockPeriod_fast;\r\n      }\r\n    else{\r\n      userOutqueues[msg.sender].enqueue(VotePowerQueue.QueueNode(withdrawCFXs, _blockNumber() + _poolLockPeriod_slow));\r\n      _amount = _blockNumber() + _poolLockPeriod_slow;\r\n    }\r\n    \r\n    userSummaries[msg.sender].unlocking += withdrawCFXs;\r\n    \r\n    uint256 temp_amount = userOutqueues[msg.sender].collectEndedVotes();\r\n    userSummaries[msg.sender].unlocked += temp_amount;\r\n    userSummaries[msg.sender].unlocking -= temp_amount;\r\n    return (withdrawCFXs,withdrawtimes);\r\n  }\r\n\r\n  function getback_CFX(uint256 _amount) public virtual Only_after_started {\r\n    uint256 temp_amount = userOutqueues[msg.sender].collectEndedVotes();\r\n    userSummaries[msg.sender].unlocked += temp_amount;\r\n    userSummaries[msg.sender].unlocking -= temp_amount;\r\n    _exchangeSummary.unlockingCFX -= _amount;\r\n    require(userSummaries[msg.sender].unlocked>=_amount,'_amount exceed available');\r\n    crossSpaceCall.callEVM(bytes20(storagebridge), abi.encodeWithSignature(\"handlegetbackCFX(uint256 _amount)\",_amount));\r\n    crossSpaceCall.withdrawFromMapped(_amount);\r\n    address payable receiver = payable(msg.sender);\r\n    receiver.transfer(_amount);\r\n  }\r\n\r\n  // \r\n  // @notice Get user's pool summary\r\n  // @param _user The address of user to query\r\n  // @return User's summary\r\n  //\r\n  function userSummary(address _user) public view returns (UserSummary memory) {\r\n    UserSummary memory summary = userSummaries[_user];\r\n    uint256 temp_amount =userOutqueues[_user].sumEndedVotes();\r\n    summary.unlocked += temp_amount;\r\n    summary.unlocking -= temp_amount;\r\n    return summary;\r\n  }\r\n  // @title Summary() \r\n  // @dev get the pos pool Summary\r\n  function Summary() public view returns (ExchangeSummary memory) {\r\n    return _exchangeSummary;\r\n  }\r\n  // @title userOutQueue(address account)\r\n  // @dev get the user's OutQueue\r\n  function userOutQueue(address account) public view returns (VotePowerQueue.QueueNode[] memory) {\r\n    return userOutqueues[account].queueItems();\r\n  }\r\n\r\n  fallback() external payable {}\r\n  receive() external payable {}\r\n  \r\n}",
  "sourcePath": "C:/Users/artii/Conflux Studio/minpos/contracts/eSpace/CoreExchange.sol",
  "compiler": {
    "name": "solc",
    "version": "0.8.2+commit.661d1103.Emscripten.clang"
  },
  "schemaVersion": "3.3.4",
  "updatedAt": "2022-09-21T14:32:03.430Z",
  "devdoc": {
    "details": "This contract exchange CFX and xCFX in core, This contract use the espace exchangeroom methods to do the work  ",
    "kind": "dev",
    "methods": {
      "owner()": {
        "details": "Returns the address of the current owner."
      },
      "renounceOwnership()": {
        "details": "Leaves the contract without owner. It will not be possible to call `onlyOwner` functions anymore. Can only be called by the current owner. NOTE: Renouncing ownership will leave the contract without an owner, thereby removing any functionality that is only available to the owner."
      },
      "transferOwnership(address)": {
        "details": "Transfers ownership of the contract to a new account (`newOwner`). Can only be called by the current owner."
      }
    },
    "title": "Core Exchange is deployed in core;",
    "version": 1
  },
  "userdoc": {
    "kind": "user",
    "methods": {},
    "notice": "Users can use this contract to participate Conflux PoS stake.",
    "version": 1
  }
}