{
  "contractName": "CoreBridge_multipool",
  "abi": [
    {
      "inputs": [],
      "stateMutability": "nonpayable",
      "type": "constructor"
    },
    {
      "anonymous": false,
      "inputs": [
        {
          "indexed": true,
          "internalType": "address",
          "name": "previousOwner",
          "type": "address"
        },
        {
          "indexed": true,
          "internalType": "address",
          "name": "newOwner",
          "type": "address"
        }
      ],
      "name": "OwnershipTransferred",
      "type": "event"
    },
    {
      "stateMutability": "payable",
      "type": "fallback"
    },
    {
      "inputs": [],
      "name": "CoreExroomAddress",
      "outputs": [
        {
          "internalType": "address",
          "name": "",
          "type": "address"
        }
      ],
      "stateMutability": "view",
      "type": "function"
    },
    {
      "inputs": [],
      "name": "ServicetreasuryAddress",
      "outputs": [
        {
          "internalType": "address",
          "name": "",
          "type": "address"
        }
      ],
      "stateMutability": "view",
      "type": "function"
    },
    {
      "inputs": [],
      "name": "eSpaceExroomAddress",
      "outputs": [
        {
          "internalType": "address",
          "name": "",
          "type": "address"
        }
      ],
      "stateMutability": "view",
      "type": "function"
    },
    {
      "inputs": [],
      "name": "identifier",
      "outputs": [
        {
          "internalType": "uint256",
          "name": "",
          "type": "uint256"
        }
      ],
      "stateMutability": "view",
      "type": "function"
    },
    {
      "inputs": [],
      "name": "owner",
      "outputs": [
        {
          "internalType": "address",
          "name": "",
          "type": "address"
        }
      ],
      "stateMutability": "view",
      "type": "function"
    },
    {
      "inputs": [
        {
          "internalType": "uint256",
          "name": "",
          "type": "uint256"
        }
      ],
      "name": "poolAddress",
      "outputs": [
        {
          "internalType": "address",
          "name": "",
          "type": "address"
        }
      ],
      "stateMutability": "view",
      "type": "function"
    },
    {
      "inputs": [],
      "name": "poolUserShareRatio",
      "outputs": [
        {
          "internalType": "uint256",
          "name": "",
          "type": "uint256"
        }
      ],
      "stateMutability": "view",
      "type": "function"
    },
    {
      "inputs": [],
      "name": "pos_id_in_use",
      "outputs": [
        {
          "internalType": "uint256",
          "name": "",
          "type": "uint256"
        }
      ],
      "stateMutability": "view",
      "type": "function"
    },
    {
      "inputs": [],
      "name": "renounceOwnership",
      "outputs": [],
      "stateMutability": "nonpayable",
      "type": "function"
    },
    {
      "inputs": [
        {
          "internalType": "address",
          "name": "newOwner",
          "type": "address"
        }
      ],
      "name": "transferOwnership",
      "outputs": [],
      "stateMutability": "nonpayable",
      "type": "function"
    },
    {
      "inputs": [],
      "name": "xCFXAddress",
      "outputs": [
        {
          "internalType": "address",
          "name": "",
          "type": "address"
        }
      ],
      "stateMutability": "view",
      "type": "function"
    },
    {
      "stateMutability": "payable",
      "type": "receive"
    },
    {
      "inputs": [],
      "name": "initialize",
      "outputs": [],
      "stateMutability": "nonpayable",
      "type": "function"
    },
    {
      "inputs": [
        {
          "internalType": "address",
          "name": "_poolAddress",
          "type": "address"
        }
      ],
      "name": "addPoolAddress",
      "outputs": [],
      "stateMutability": "nonpayable",
      "type": "function"
    },
    {
      "inputs": [
        {
          "internalType": "address",
          "name": "_oldpoolAddress",
          "type": "address"
        },
        {
          "internalType": "address",
          "name": "_newpoolAddress",
          "type": "address"
        }
      ],
      "name": "changePoolAddress",
      "outputs": [],
      "stateMutability": "nonpayable",
      "type": "function"
    },
    {
      "inputs": [
        {
          "internalType": "address",
          "name": "_oldpoolAddress",
          "type": "address"
        }
      ],
      "name": "delePoolAddress",
      "outputs": [],
      "stateMutability": "nonpayable",
      "type": "function"
    },
    {
      "inputs": [
        {
          "internalType": "address",
          "name": "_eSpaceExroomAddress",
          "type": "address"
        }
      ],
      "name": "seteSpaceExroomAddress",
      "outputs": [],
      "stateMutability": "nonpayable",
      "type": "function"
    },
    {
      "inputs": [
        {
          "internalType": "address",
          "name": "_eSpaceExroomAddress",
          "type": "address"
        },
        {
          "internalType": "bool",
          "name": "state",
          "type": "bool"
        }
      ],
      "name": "settrusted_trigers",
      "outputs": [],
      "stateMutability": "nonpayable",
      "type": "function"
    },
    {
      "inputs": [
        {
          "internalType": "address",
          "name": "_eSpaceExroomAddress",
          "type": "address"
        }
      ],
      "name": "get_triger_state",
      "outputs": [
        {
          "internalType": "bool",
          "name": "",
          "type": "bool"
        }
      ],
      "stateMutability": "view",
      "type": "function"
    },
    {
      "inputs": [],
      "name": "getPoolAddress",
      "outputs": [
        {
          "internalType": "address[]",
          "name": "",
          "type": "address[]"
        }
      ],
      "stateMutability": "view",
      "type": "function"
    },
    {
      "inputs": [],
      "name": "ePoolAddrB20",
      "outputs": [
        {
          "internalType": "bytes20",
          "name": "",
          "type": "bytes20"
        }
      ],
      "stateMutability": "view",
      "type": "function"
    },
    {
      "inputs": [],
      "name": "queryespacexCFXincrease",
      "outputs": [
        {
          "internalType": "uint256",
          "name": "",
          "type": "uint256"
        }
      ],
      "stateMutability": "nonpayable",
      "type": "function"
    },
    {
      "inputs": [],
      "name": "queryUnstakeLen",
      "outputs": [
        {
          "internalType": "uint256",
          "name": "",
          "type": "uint256"
        }
      ],
      "stateMutability": "nonpayable",
      "type": "function"
    },
    {
      "inputs": [
        {
          "internalType": "uint256",
          "name": "_num",
          "type": "uint256"
        }
      ],
      "name": "queryInterest",
      "outputs": [
        {
          "internalType": "uint256",
          "name": "",
          "type": "uint256"
        }
      ],
      "stateMutability": "view",
      "type": "function"
    },
    {
      "inputs": [],
      "name": "syncALLwork",
      "outputs": [],
      "stateMutability": "nonpayable",
      "type": "function"
    },
    {
      "inputs": [],
      "name": "claimInterests",
      "outputs": [],
      "stateMutability": "nonpayable",
      "type": "function"
    },
    {
      "inputs": [],
      "name": "campounds",
      "outputs": [],
      "stateMutability": "nonpayable",
      "type": "function"
    },
    {
      "inputs": [],
      "name": "SyncValue",
      "outputs": [],
      "stateMutability": "nonpayable",
      "type": "function"
    },
    {
      "inputs": [],
      "name": "handleUnstake",
      "outputs": [],
      "stateMutability": "nonpayable",
      "type": "function"
    },
    {
      "inputs": [],
      "name": "withdrawVotes",
      "outputs": [],
      "stateMutability": "nonpayable",
      "type": "function"
    },
    {
      "inputs": [
        {
          "internalType": "address",
          "name": "addr",
          "type": "address"
        },
        {
          "internalType": "bytes",
          "name": "data",
          "type": "bytes"
        }
      ],
      "name": "callEVM",
      "outputs": [],
      "stateMutability": "nonpayable",
      "type": "function"
    }
  ],
  "bytecode": "0x60806040526123286002556103e8600355683635c9adc5dea000006004553480156200002a57600080fd5b506200004b6200003f6200006160201b60201c565b6200006960201b60201c565b6200005b6200012d60201b60201c565b62000184565b600033905090565b60008060009054906101000a900473ffffffffffffffffffffffffffffffffffffffff169050816000806101000a81548173ffffffffffffffffffffffffffffffffffffffff021916908373ffffffffffffffffffffffffffffffffffffffff1602179055508173ffffffffffffffffffffffffffffffffffffffff168173ffffffffffffffffffffffffffffffffffffffff167f8be0079c531659141344cd1fd0a4f28419497f9722a3daafe3b4186f6b6457e060405160405180910390a35050565b730888000000000000000000000000000000000006600160006101000a81548173ffffffffffffffffffffffffffffffffffffffff021916908373ffffffffffffffffffffffffffffffffffffffff160217905550565b613d1780620001946000396000f3fe6080604052600436106101d15760003560e01c8063783b7c97116100f75780639fa28e4811610095578063da02d10011610064578063da02d100146105c4578063da9da526146105db578063f2fde38b14610618578063f586c6d914610641576101d8565b80639fa28e481461050a578063a0e86fd014610547578063b3569a1814610570578063bb46911014610599576101d8565b80638da5cb5b116100d15780638da5cb5b1461048657806393e48e38146104b1578063983bf1bd146104dc578063986e08b6146104f3576101d8565b8063783b7c97146104195780637998a1c4146104445780638129fc1c1461046f576101d8565b80634e141b4e1161016f57806367a1aa4f1161013e57806367a1aa4f146103975780636a5bd69d146103c2578063715018a6146103eb57806375eea4e214610402576101d8565b80634e141b4e146102ed578063505f53d414610318578063588beea51461034357806365473c5214610380576101d8565b80633b282f3a116101ab5780633b282f3a146102575780633e7321b51461028257806340d5637f146102ad57806343499844146102c4576101d8565b8063120063b0146101da5780632306092e14610203578063231da72f1461022c576101d8565b366101d857005b005b3480156101e657600080fd5b5061020160048036038101906101fc9190612fd7565b61066c565b005b34801561020f57600080fd5b5061022a60048036038101906102259190612fd7565b61072c565b005b34801561023857600080fd5b506102416109ce565b60405161024e9190613420565b60405180910390f35b34801561026357600080fd5b5061026c6109f4565b6040516102799190613478565b60405180910390f35b34801561028e57600080fd5b50610297610a21565b6040516102a49190613420565b60405180910390f35b3480156102b957600080fd5b506102c2610a47565b005b3480156102d057600080fd5b506102eb60048036038101906102e69190612fd7565b610cd9565b005b3480156102f957600080fd5b50610302610dbb565b60405161030f9190613420565b60405180910390f35b34801561032457600080fd5b5061032d610de1565b60405161033a9190613635565b60405180910390f35b34801561034f57600080fd5b5061036a60048036038101906103659190612fd7565b610f3d565b604051610377919061345d565b60405180910390f35b34801561038c57600080fd5b5061039561100f565b005b3480156103a357600080fd5b506103ac611538565b6040516103b99190613635565b60405180910390f35b3480156103ce57600080fd5b506103e960048036038101906103e49190613078565b61153e565b005b3480156103f757600080fd5b50610400611690565b005b34801561040e57600080fd5b50610417611718565b005b34801561042557600080fd5b5061042e611b7e565b60405161043b9190613635565b60405180910390f35b34801561045057600080fd5b50610459611b84565b6040516104669190613635565b60405180910390f35b34801561047b57600080fd5b50610484611b8a565b005b34801561049257600080fd5b5061049b611be1565b6040516104a89190613420565b60405180910390f35b3480156104bd57600080fd5b506104c6611c0a565b6040516104d39190613635565b60405180910390f35b3480156104e857600080fd5b506104f1611d66565b005b3480156104ff57600080fd5b506105086120d1565b005b34801561051657600080fd5b50610531600480360381019061052c919061313a565b61220a565b60405161053e9190613635565b60405180910390f35b34801561055357600080fd5b5061056e60048036038101906105699190613000565b612300565b005b34801561057c57600080fd5b506105976004803603810190610592919061303c565b6124c6565b005b3480156105a557600080fd5b506105ae61259d565b6040516105bb9190613420565b60405180910390f35b3480156105d057600080fd5b506105d96125c3565b005b3480156105e757600080fd5b5061060260048036038101906105fd919061313a565b612b4e565b60405161060f9190613420565b60405180910390f35b34801561062457600080fd5b5061063f600480360381019061063a9190612fd7565b612b8d565b005b34801561064d57600080fd5b50610656612c85565b604051610663919061343b565b60405180910390f35b610674612d13565b73ffffffffffffffffffffffffffffffffffffffff16610692611be1565b73ffffffffffffffffffffffffffffffffffffffff16146106e8576040517f08c379a00000000000000000000000000000000000000000000000000000000081526004016106df906135f5565b60405180910390fd5b80600860006101000a81548173ffffffffffffffffffffffffffffffffffffffff021916908373ffffffffffffffffffffffffffffffffffffffff16021790555050565b610734612d13565b73ffffffffffffffffffffffffffffffffffffffff16610752611be1565b73ffffffffffffffffffffffffffffffffffffffff16146107a8576040517f08c379a000000000000000000000000000000000000000000000000000000000815260040161079f906135f5565b60405180910390fd5b6000600580549050905060005b818110156109c9578273ffffffffffffffffffffffffffffffffffffffff166005828154811061080e577f4e487b7100000000000000000000000000000000000000000000000000000000600052603260045260246000fd5b9060005260206000200160009054906101000a900473ffffffffffffffffffffffffffffffffffffffff1673ffffffffffffffffffffffffffffffffffffffff1614156109b65760056001836108649190613808565b8154811061089b577f4e487b7100000000000000000000000000000000000000000000000000000000600052603260045260246000fd5b9060005260206000200160009054906101000a900473ffffffffffffffffffffffffffffffffffffffff1660058281548110610900577f4e487b7100000000000000000000000000000000000000000000000000000000600052603260045260246000fd5b9060005260206000200160006101000a81548173ffffffffffffffffffffffffffffffffffffffff021916908373ffffffffffffffffffffffffffffffffffffffff1602179055506005805480610980577f4e487b7100000000000000000000000000000000000000000000000000000000600052603160045260246000fd5b6001900381819060005260206000200160006101000a81549073ffffffffffffffffffffffffffffffffffffffff021916905590555b80806109c190613937565b9150506107b5565b505050565b600760009054906101000a900473ffffffffffffffffffffffffffffffffffffffff1681565b6000600860009054906101000a900473ffffffffffffffffffffffffffffffffffffffff1660601b905090565b600860009054906101000a900473ffffffffffffffffffffffffffffffffffffffff1681565b6001600c6000828254610a5a9190613727565b9250508190555060011515600d60003373ffffffffffffffffffffffffffffffffffffffff1673ffffffffffffffffffffffffffffffffffffffff16815260200190815260200160002060009054906101000a900460ff16151514610af4576040517f08c379a0000000000000000000000000000000000000000000000000000000008152600401610aeb906135b5565b60405180910390fd5b6005600c5414610b39576040517f08c379a0000000000000000000000000000000000000000000000000000000008152600401610b3090613535565b60405180910390fd5b6000600580549050905060008060005b83811015610cbf5760058181548110610b8b577f4e487b7100000000000000000000000000000000000000000000000000000000600052603260045260246000fd5b9060005260206000200160009054906101000a900473ffffffffffffffffffffffffffffffffffffffff16925060008373ffffffffffffffffffffffffffffffffffffffff16637571fcf66040518163ffffffff1660e01b815260040160e06040518083038186803b158015610c0057600080fd5b505afa158015610c14573d6000803e3d6000fd5b505050506040513d601f19601f82011682018060405250810190610c389190613111565b9050806080015192506000831115610cab578373ffffffffffffffffffffffffffffffffffffffff1663bed9d8616040518163ffffffff1660e01b8152600401600060405180830381600087803b158015610c9257600080fd5b505af1158015610ca6573d6000803e3d6000fd5b505050505b508080610cb790613937565b915050610b49565b505050506005600c541415610cd7576000600c819055505b565b610ce1612d13565b73ffffffffffffffffffffffffffffffffffffffff16610cff611be1565b73ffffffffffffffffffffffffffffffffffffffff1614610d55576040517f08c379a0000000000000000000000000000000000000000000000000000000008152600401610d4c906135f5565b60405180910390fd5b6005819080600181540180825580915050600190039060005260206000200160009091909190916101000a81548173ffffffffffffffffffffffffffffffffffffffff021916908373ffffffffffffffffffffffffffffffffffffffff16021790555050565b600960009054906101000a900473ffffffffffffffffffffffffffffffffffffffff1681565b600080600160009054906101000a900473ffffffffffffffffffffffffffffffffffffffff1673ffffffffffffffffffffffffffffffffffffffff1663bea05ee3610e2a6109f4565b6040516024016040516020818303038152906040527fc7ff5d6e000000000000000000000000000000000000000000000000000000007bffffffffffffffffffffffffffffffffffffffffffffffffffffffff19166020820180517bffffffffffffffffffffffffffffffffffffffffffffffffffffffff83818316178352505050506040518363ffffffff1660e01b8152600401610eca9291906134c5565b600060405180830381600087803b158015610ee457600080fd5b505af1158015610ef8573d6000803e3d6000fd5b505050506040513d6000823e3d601f19601f82011682018060405250810190610f2191906130d0565b905080806020019051810190610f379190613163565b91505090565b6000610f47612d13565b73ffffffffffffffffffffffffffffffffffffffff16610f65611be1565b73ffffffffffffffffffffffffffffffffffffffff1614610fbb576040517f08c379a0000000000000000000000000000000000000000000000000000000008152600401610fb2906135f5565b60405180910390fd5b600d60008373ffffffffffffffffffffffffffffffffffffffff1673ffffffffffffffffffffffffffffffffffffffff16815260200190815260200160002060009054906101000a900460ff169050919050565b6001600c60008282546110229190613727565b9250508190555060011515600d60003373ffffffffffffffffffffffffffffffffffffffff1673ffffffffffffffffffffffffffffffffffffffff16815260200190815260200160002060009054906101000a900460ff161515146110bc576040517f08c379a00000000000000000000000000000000000000000000000000000000081526004016110b3906135b5565b60405180910390fd5b6003600c5414611101576040517f08c379a00000000000000000000000000000000000000000000000000000000081526004016110f890613595565b60405180910390fd5b6000600760009054906101000a900473ffffffffffffffffffffffffffffffffffffffff1673ffffffffffffffffffffffffffffffffffffffff166318160ddd6040518163ffffffff1660e01b815260040160206040518083038186803b15801561116b57600080fd5b505afa15801561117f573d6000803e3d6000fd5b505050506040513d601f19601f820116820180604052508101906111a39190613163565b90506000600160009054906101000a900473ffffffffffffffffffffffffffffffffffffffff1673ffffffffffffffffffffffffffffffffffffffff1663142b37c7600860009054906101000a900473ffffffffffffffffffffffffffffffffffffffff166040518263ffffffff1660e01b81526004016112249190613420565b60206040518083038186803b15801561123c57600080fd5b505afa158015611250573d6000803e3d6000fd5b505050506040513d601f19601f820116820180604052508101906112749190613163565b905060006005805490509050600080600090505b8281101561139657600581815481106112ca577f4e487b7100000000000000000000000000000000000000000000000000000000600052603260045260246000fd5b9060005260206000200160009054906101000a900473ffffffffffffffffffffffffffffffffffffffff1673ffffffffffffffffffffffffffffffffffffffff16637571fcf66040518163ffffffff1660e01b815260040160e06040518083038186803b15801561133a57600080fd5b505afa15801561134e573d6000803e3d6000fd5b505050506040513d601f19601f820116820180604052508101906113729190613111565b60000151826113819190613727565b9150808061138e90613937565b915050611288565b5060006113d2856113c46113b560045486612d1b90919063ffffffff16565b87612d3190919063ffffffff16565b612d4790919063ffffffff16565b9050600160009054906101000a900473ffffffffffffffffffffffffffffffffffffffff1673ffffffffffffffffffffffffffffffffffffffff1663bea05ee361141a6109f4565b8360405160240161142b9190613635565b6040516020818303038152906040527f21e2f533000000000000000000000000000000000000000000000000000000007bffffffffffffffffffffffffffffffffffffffffffffffffffffffff19166020820180517bffffffffffffffffffffffffffffffffffffffffffffffffffffffff83818316178352505050506040518363ffffffff1660e01b81526004016114c59291906134c5565b600060405180830381600087803b1580156114df57600080fd5b505af11580156114f3573d6000803e3d6000fd5b505050506040513d6000823e3d601f19601f8201168201806040525081019061151c91906130d0565b5050505050506005600c541415611536576000600c819055505b565b60025481565b60011515600d60003373ffffffffffffffffffffffffffffffffffffffff1673ffffffffffffffffffffffffffffffffffffffff16815260200190815260200160002060009054906101000a900460ff161515146115d1576040517f08c379a00000000000000000000000000000000000000000000000000000000081526004016115c8906135b5565b60405180910390fd5b600160009054906101000a900473ffffffffffffffffffffffffffffffffffffffff1673ffffffffffffffffffffffffffffffffffffffff1663bea05ee38460601b84846040518463ffffffff1660e01b815260040161163393929190613493565b600060405180830381600087803b15801561164d57600080fd5b505af1158015611661573d6000803e3d6000fd5b505050506040513d6000823e3d601f19601f8201168201806040525081019061168a91906130d0565b50505050565b611698612d13565b73ffffffffffffffffffffffffffffffffffffffff166116b6611be1565b73ffffffffffffffffffffffffffffffffffffffff161461170c576040517f08c379a0000000000000000000000000000000000000000000000000000000008152600401611703906135f5565b60405180910390fd5b6117166000612d5d565b565b6001600c600082825461172b9190613727565b9250508190555060011515600d60003373ffffffffffffffffffffffffffffffffffffffff1673ffffffffffffffffffffffffffffffffffffffff16815260200190815260200160002060009054906101000a900460ff161515146117c5576040517f08c379a00000000000000000000000000000000000000000000000000000000081526004016117bc906135b5565b60405180910390fd5b6002600c541461180a576040517f08c379a0000000000000000000000000000000000000000000000000000000008152600401611801906135d5565b60405180910390fd5b6000600b541415611850576040517f08c379a000000000000000000000000000000000000000000000000000000000815260040161184790613615565b60405180910390fd5b6000600b549050600160009054906101000a900473ffffffffffffffffffffffffffffffffffffffff1673ffffffffffffffffffffffffffffffffffffffff1663bea05ee38261189e6109f4565b6040516024016040516020818303038152906040527f68eca7f9000000000000000000000000000000000000000000000000000000007bffffffffffffffffffffffffffffffffffffffffffffffffffffffff19166020820180517bffffffffffffffffffffffffffffffffffffffffffffffffffffffff83818316178352505050506040518463ffffffff1660e01b815260040161193e9291906134c5565b6000604051808303818588803b15801561195757600080fd5b505af115801561196b573d6000803e3d6000fd5b50505050506040513d6000823e3d601f19601f8201168201806040525081019061199591906130d0565b506000600160009054906101000a900473ffffffffffffffffffffffffffffffffffffffff1673ffffffffffffffffffffffffffffffffffffffff1663142b37c7600860009054906101000a900473ffffffffffffffffffffffffffffffffffffffff166040518263ffffffff1660e01b8152600401611a159190613420565b60206040518083038186803b158015611a2d57600080fd5b505afa158015611a41573d6000803e3d6000fd5b505050506040513d601f19601f82011682018060405250810190611a659190613163565b90506000611a7e60045483612d4790919063ffffffff16565b905060008167ffffffffffffffff161115611b6557600560065481548110611acf577f4e487b7100000000000000000000000000000000000000000000000000000000600052603260045260246000fd5b9060005260206000200160009054906101000a900473ffffffffffffffffffffffffffffffffffffffff1673ffffffffffffffffffffffffffffffffffffffff166309fecf7f826040518263ffffffff1660e01b8152600401611b329190613650565b600060405180830381600087803b158015611b4c57600080fd5b505af1158015611b60573d6000803e3d6000fd5b505050505b5050506005600c541415611b7c576000600c819055505b565b60065481565b600c5481565b730888000000000000000000000000000000000006600160006101000a81548173ffffffffffffffffffffffffffffffffffffffff021916908373ffffffffffffffffffffffffffffffffffffffff160217905550565b60008060009054906101000a900473ffffffffffffffffffffffffffffffffffffffff16905090565b600080600160009054906101000a900473ffffffffffffffffffffffffffffffffffffffff1673ffffffffffffffffffffffffffffffffffffffff1663bea05ee3611c536109f4565b6040516024016040516020818303038152906040527f15cc421d000000000000000000000000000000000000000000000000000000007bffffffffffffffffffffffffffffffffffffffffffffffffffffffff19166020820180517bffffffffffffffffffffffffffffffffffffffffffffffffffffffff83818316178352505050506040518363ffffffff1660e01b8152600401611cf39291906134c5565b600060405180830381600087803b158015611d0d57600080fd5b505af1158015611d21573d6000803e3d6000fd5b505050506040513d6000823e3d601f19601f82011682018060405250810190611d4a91906130d0565b905080806020019051810190611d609190613163565b91505090565b6001600c6000828254611d799190613727565b9250508190555060011515600d60003373ffffffffffffffffffffffffffffffffffffffff1673ffffffffffffffffffffffffffffffffffffffff16815260200190815260200160002060009054906101000a900460ff16151514611e13576040517f08c379a0000000000000000000000000000000000000000000000000000000008152600401611e0a906135b5565b60405180910390fd5b6001600c5414611e58576040517f08c379a0000000000000000000000000000000000000000000000000000000008152600401611e4f90613575565b60405180910390fd5b6000600b5414611e9d576040517f08c379a0000000000000000000000000000000000000000000000000000000008152600401611e9490613555565b60405180910390fd5b6000600580549050905060008060005b838110156120b75760058181548110611eef577f4e487b7100000000000000000000000000000000000000000000000000000000600052603260045260246000fd5b9060005260206000200160009054906101000a900473ffffffffffffffffffffffffffffffffffffffff16925060008211156120a4578273ffffffffffffffffffffffffffffffffffffffff16638270512f6040518163ffffffff1660e01b8152600401602060405180830381600087803b158015611f6d57600080fd5b505af1158015611f81573d6000803e3d6000fd5b505050506040513d601f19601f82011682018060405250810190611fa59190613163565b9150611fd0612710611fc260025485612d1b90919063ffffffff16565b612d4790919063ffffffff16565b600b6000828254611fe19190613727565b92505081905550600160009054906101000a900473ffffffffffffffffffffffffffffffffffffffff1673ffffffffffffffffffffffffffffffffffffffff1663da8d5daf8361202f6109f4565b6040518363ffffffff1660e01b815260040161204b9190613478565b6000604051808303818588803b15801561206457600080fd5b505af1158015612078573d6000803e3d6000fd5b50505050506040513d6000823e3d601f19601f820116820180604052508101906120a291906130d0565b505b80806120af90613937565b915050611ead565b505050506005600c5414156120cf576000600c819055505b565b6120d9612d13565b73ffffffffffffffffffffffffffffffffffffffff166120f7611be1565b73ffffffffffffffffffffffffffffffffffffffff161461214d576040517f08c379a0000000000000000000000000000000000000000000000000000000008152600401612144906135f5565b60405180910390fd5b60011515600d60003373ffffffffffffffffffffffffffffffffffffffff1673ffffffffffffffffffffffffffffffffffffffff16815260200190815260200160002060009054906101000a900460ff161515146121e0576040517f08c379a00000000000000000000000000000000000000000000000000000000081526004016121d7906135b5565b60405180910390fd5b6121e8611d66565b6121f0611718565b6121f861100f565b6122006125c3565b612208610a47565b565b60008060058381548110612247577f4e487b7100000000000000000000000000000000000000000000000000000000600052603260045260246000fd5b9060005260206000200160009054906101000a900473ffffffffffffffffffffffffffffffffffffffff16905060008173ffffffffffffffffffffffffffffffffffffffff1663e73e183b6040518163ffffffff1660e01b815260040160206040518083038186803b1580156122bc57600080fd5b505afa1580156122d0573d6000803e3d6000fd5b505050506040513d601f19601f820116820180604052508101906122f49190613163565b90508092505050919050565b612308612d13565b73ffffffffffffffffffffffffffffffffffffffff16612326611be1565b73ffffffffffffffffffffffffffffffffffffffff161461237c576040517f08c379a0000000000000000000000000000000000000000000000000000000008152600401612373906135f5565b60405180910390fd5b6000600580549050905060005b818110156124c0578373ffffffffffffffffffffffffffffffffffffffff16600582815481106123e2577f4e487b7100000000000000000000000000000000000000000000000000000000600052603260045260246000fd5b9060005260206000200160009054906101000a900473ffffffffffffffffffffffffffffffffffffffff1673ffffffffffffffffffffffffffffffffffffffff1614156124ad578260058281548110612464577f4e487b7100000000000000000000000000000000000000000000000000000000600052603260045260246000fd5b9060005260206000200160006101000a81548173ffffffffffffffffffffffffffffffffffffffff021916908373ffffffffffffffffffffffffffffffffffffffff1602179055505b80806124b890613937565b915050612389565b50505050565b6124ce612d13565b73ffffffffffffffffffffffffffffffffffffffff166124ec611be1565b73ffffffffffffffffffffffffffffffffffffffff1614612542576040517f08c379a0000000000000000000000000000000000000000000000000000000008152600401612539906135f5565b60405180910390fd5b80600d60008473ffffffffffffffffffffffffffffffffffffffff1673ffffffffffffffffffffffffffffffffffffffff16815260200190815260200160002060006101000a81548160ff0219169083151502179055505050565b600a60009054906101000a900473ffffffffffffffffffffffffffffffffffffffff1681565b6001600c60008282546125d69190613727565b9250508190555060011515600d60003373ffffffffffffffffffffffffffffffffffffffff1673ffffffffffffffffffffffffffffffffffffffff16815260200190815260200160002060009054906101000a900460ff16151514612670576040517f08c379a0000000000000000000000000000000000000000000000000000000008152600401612667906135b5565b60405180910390fd5b6004600c54146126b5576040517f08c379a00000000000000000000000000000000000000000000000000000000081526004016126ac90613515565b60405180910390fd5b60006126bf610de1565b905060008114156126d05750612b38565b60328111156126de57603290505b600060056006548154811061271c577f4e487b7100000000000000000000000000000000000000000000000000000000600052603260045260246000fd5b9060005260206000200160009054906101000a900473ffffffffffffffffffffffffffffffffffffffff16905060008173ffffffffffffffffffffffffffffffffffffffff16637571fcf66040518163ffffffff1660e01b815260040160e06040518083038186803b15801561279157600080fd5b505afa1580156127a5573d6000803e3d6000fd5b505050506040513d601f19601f820116820180604052508101906127c99190613111565b905060008160000151905060606000808314156127eb57505050505050612b38565b60005b86811015612b3057600160009054906101000a900473ffffffffffffffffffffffffffffffffffffffff1673ffffffffffffffffffffffffffffffffffffffff1663bea05ee361283c6109f4565b6040516024016040516020818303038152906040527f09fcd230000000000000000000000000000000000000000000000000000000007bffffffffffffffffffffffffffffffffffffffffffffffffffffffff19166020820180517bffffffffffffffffffffffffffffffffffffffffffffffffffffffff83818316178352505050506040518363ffffffff1660e01b81526004016128dc9291906134c5565b600060405180830381600087803b1580156128f657600080fd5b505af115801561290a573d6000803e3d6000fd5b505050506040513d6000823e3d601f19601f8201168201806040525081019061293391906130d0565b9250828060200190518101906129499190613163565b9150600082141561295957612b30565b8382111561296657612b30565b8573ffffffffffffffffffffffffffffffffffffffff1663beb99c1e836040518263ffffffff1660e01b815260040161299f9190613650565b600060405180830381600087803b1580156129b957600080fd5b505af11580156129cd573d6000803e3d6000fd5b50505050600160009054906101000a900473ffffffffffffffffffffffffffffffffffffffff1673ffffffffffffffffffffffffffffffffffffffff1663bea05ee3612a176109f4565b6040516024016040516020818303038152906040527f84981986000000000000000000000000000000000000000000000000000000007bffffffffffffffffffffffffffffffffffffffffffffffffffffffff19166020820180517bffffffffffffffffffffffffffffffffffffffffffffffffffffffff83818316178352505050506040518363ffffffff1660e01b8152600401612ab79291906134c5565b600060405180830381600087803b158015612ad157600080fd5b505af1158015612ae5573d6000803e3d6000fd5b505050506040513d6000823e3d601f19601f82011682018060405250810190612b0e91906130d0565b508184612b1b9190613808565b93508080612b2890613937565b9150506127ee565b505050505050505b6005600c541415612b4c576000600c819055505b565b60058181548110612b5e57600080fd5b906000526020600020016000915054906101000a900473ffffffffffffffffffffffffffffffffffffffff1681565b612b95612d13565b73ffffffffffffffffffffffffffffffffffffffff16612bb3611be1565b73ffffffffffffffffffffffffffffffffffffffff1614612c09576040517f08c379a0000000000000000000000000000000000000000000000000000000008152600401612c00906135f5565b60405180910390fd5b600073ffffffffffffffffffffffffffffffffffffffff168173ffffffffffffffffffffffffffffffffffffffff161415612c79576040517f08c379a0000000000000000000000000000000000000000000000000000000008152600401612c70906134f5565b60405180910390fd5b612c8281612d5d565b50565b60606005805480602002602001604051908101604052809291908181526020018280548015612d0957602002820191906000526020600020905b8160009054906101000a900473ffffffffffffffffffffffffffffffffffffffff1673ffffffffffffffffffffffffffffffffffffffff1681526020019060010190808311612cbf575b5050505050905090565b600033905090565b60008183612d2991906137ae565b905092915050565b60008183612d3f9190613727565b905092915050565b60008183612d55919061377d565b905092915050565b60008060009054906101000a900473ffffffffffffffffffffffffffffffffffffffff169050816000806101000a81548173ffffffffffffffffffffffffffffffffffffffff021916908373ffffffffffffffffffffffffffffffffffffffff1602179055508173ffffffffffffffffffffffffffffffffffffffff168173ffffffffffffffffffffffffffffffffffffffff167f8be0079c531659141344cd1fd0a4f28419497f9722a3daafe3b4186f6b6457e060405160405180910390a35050565b6000612e34612e2f84613690565b61366b565b905082815260208101848484011115612e4c57600080fd5b612e578482856138d3565b509392505050565b600081359050612e6e81613c9c565b92915050565b600081359050612e8381613cb3565b92915050565b60008083601f840112612e9b57600080fd5b8235905067ffffffffffffffff811115612eb457600080fd5b602083019150836001820283011115612ecc57600080fd5b9250929050565b600082601f830112612ee457600080fd5b8151612ef4848260208601612e21565b91505092915050565b600060e08284031215612f0f57600080fd5b612f1960e061366b565b90506000612f2984828501612fc2565b6000830152506020612f3d84828501612fc2565b6020830152506040612f5184828501612fc2565b6040830152506060612f6584828501612fc2565b6060830152506080612f7984828501612fc2565b60808301525060a0612f8d84828501612fc2565b60a08301525060c0612fa184828501612fc2565b60c08301525092915050565b600081359050612fbc81613cca565b92915050565b600081519050612fd181613cca565b92915050565b600060208284031215612fe957600080fd5b6000612ff784828501612e5f565b91505092915050565b6000806040838503121561301357600080fd5b600061302185828601612e5f565b925050602061303285828601612e5f565b9150509250929050565b6000806040838503121561304f57600080fd5b600061305d85828601612e5f565b925050602061306e85828601612e74565b9150509250929050565b60008060006040848603121561308d57600080fd5b600061309b86828701612e5f565b935050602084013567ffffffffffffffff8111156130b857600080fd5b6130c486828701612e89565b92509250509250925092565b6000602082840312156130e257600080fd5b600082015167ffffffffffffffff8111156130fc57600080fd5b61310884828501612ed3565b91505092915050565b600060e0828403121561312357600080fd5b600061313184828501612efd565b91505092915050565b60006020828403121561314c57600080fd5b600061315a84828501612fad565b91505092915050565b60006020828403121561317557600080fd5b600061318384828501612fc2565b91505092915050565b600061319883836131a4565b60208301905092915050565b6131ad8161383c565b82525050565b6131bc8161383c565b82525050565b60006131cd826136d1565b6131d781856136f4565b93506131e2836136c1565b8060005b838110156132135781516131fa888261318c565b9750613205836136e7565b9250506001810190506131e6565b5085935050505092915050565b6132298161384e565b82525050565b6132388161385a565b82525050565b600061324a8385613705565b93506132578385846138c4565b61326083613a0d565b840190509392505050565b6000613276826136dc565b6132808185613705565b93506132908185602086016138d3565b61329981613a0d565b840191505092915050565b60006132b1602683613716565b91506132bc82613a1e565b604082019050919050565b60006132d4602283613716565b91506132df82613a6d565b604082019050919050565b60006132f7602283613716565b915061330282613abc565b604082019050919050565b600061331a601f83613716565b915061332582613b0b565b602082019050919050565b600061333d602283613716565b915061334882613b34565b604082019050919050565b6000613360602283613716565b915061336b82613b83565b604082019050919050565b6000613383601783613716565b915061338e82613bd2565b602082019050919050565b60006133a6602283613716565b91506133b182613bfb565b604082019050919050565b60006133c9602083613716565b91506133d482613c4a565b602082019050919050565b60006133ec601e83613716565b91506133f782613c73565b602082019050919050565b61340b816138a6565b82525050565b61341a816138b0565b82525050565b600060208201905061343560008301846131b3565b92915050565b6000602082019050818103600083015261345581846131c2565b905092915050565b60006020820190506134726000830184613220565b92915050565b600060208201905061348d600083018461322f565b92915050565b60006040820190506134a8600083018661322f565b81810360208301526134bb81848661323e565b9050949350505050565b60006040820190506134da600083018561322f565b81810360208301526134ec818461326b565b90509392505050565b6000602082019050818103600083015261350e816132a4565b9050919050565b6000602082019050818103600083015261352e816132c7565b9050919050565b6000602082019050818103600083015261354e816132ea565b9050919050565b6000602082019050818103600083015261356e8161330d565b9050919050565b6000602082019050818103600083015261358e81613330565b9050919050565b600060208201905081810360008301526135ae81613353565b9050919050565b600060208201905081810360008301526135ce81613376565b9050919050565b600060208201905081810360008301526135ee81613399565b9050919050565b6000602082019050818103600083015261360e816133bc565b9050919050565b6000602082019050818103600083015261362e816133df565b9050919050565b600060208201905061364a6000830184613402565b92915050565b60006020820190506136656000830184613411565b92915050565b6000613675613686565b90506136818282613906565b919050565b6000604051905090565b600067ffffffffffffffff8211156136ab576136aa6139de565b5b6136b482613a0d565b9050602081019050919050565b6000819050602082019050919050565b600081519050919050565b600081519050919050565b6000602082019050919050565b600082825260208201905092915050565b600082825260208201905092915050565b600082825260208201905092915050565b6000613732826138a6565b915061373d836138a6565b9250827fffffffffffffffffffffffffffffffffffffffffffffffffffffffffffffffff0382111561377257613771613980565b5b828201905092915050565b6000613788826138a6565b9150613793836138a6565b9250826137a3576137a26139af565b5b828204905092915050565b60006137b9826138a6565b91506137c4836138a6565b9250817fffffffffffffffffffffffffffffffffffffffffffffffffffffffffffffffff04831182151516156137fd576137fc613980565b5b828202905092915050565b6000613813826138a6565b915061381e836138a6565b92508282101561383157613830613980565b5b828203905092915050565b600061384782613886565b9050919050565b60008115159050919050565b60007fffffffffffffffffffffffffffffffffffffffff00000000000000000000000082169050919050565b600073ffffffffffffffffffffffffffffffffffffffff82169050919050565b6000819050919050565b600067ffffffffffffffff82169050919050565b82818337600083830152505050565b60005b838110156138f15780820151818401526020810190506138d6565b83811115613900576000848401525b50505050565b61390f82613a0d565b810181811067ffffffffffffffff8211171561392e5761392d6139de565b5b80604052505050565b6000613942826138a6565b91507fffffffffffffffffffffffffffffffffffffffffffffffffffffffffffffffff82141561397557613974613980565b5b600182019050919050565b7f4e487b7100000000000000000000000000000000000000000000000000000000600052601160045260246000fd5b7f4e487b7100000000000000000000000000000000000000000000000000000000600052601260045260246000fd5b7f4e487b7100000000000000000000000000000000000000000000000000000000600052604160045260246000fd5b6000601f19601f8301169050919050565b7f4f776e61626c653a206e6577206f776e657220697320746865207a65726f206160008201527f6464726573730000000000000000000000000000000000000000000000000000602082015250565b7f6964656e746966696572206973206e6f742072696768742c206e65656420626560008201527f2034000000000000000000000000000000000000000000000000000000000000602082015250565b7f6964656e746966696572206973206e6f742072696768742c206e65656420626560008201527f2035000000000000000000000000000000000000000000000000000000000000602082015250565b7f73797374656d5f636678696e74657265737473206e6f7420636c65616e656400600082015250565b7f6964656e746966696572206973206e6f742072696768742c206e65656420626560008201527f2031000000000000000000000000000000000000000000000000000000000000602082015250565b7f6964656e746966696572206973206e6f742072696768742c206e65656420626560008201527f2033000000000000000000000000000000000000000000000000000000000000602082015250565b7f74726967657273206d7573742062652074727573746564000000000000000000600082015250565b7f6964656e746966696572206973206e6f742072696768742c206e65656420626560008201527f2032000000000000000000000000000000000000000000000000000000000000602082015250565b7f4f776e61626c653a2063616c6c6572206973206e6f7420746865206f776e6572600082015250565b7f73797374656d5f636678696e7465726573747320697320636c65616e65640000600082015250565b613ca58161383c565b8114613cb057600080fd5b50565b613cbc8161384e565b8114613cc757600080fd5b50565b613cd3816138a6565b8114613cde57600080fd5b5056fea264697066735822122080131bb2b348c578506d6bbd8360b100d08daa9ece37c6ea97d6c889261d749864736f6c63430008020033",
  "immutableReferences": {},
  "source": "//SPDX-License-Identifier: BUSL-1.1\r\npragma solidity ^0.8.0;\r\nimport \"@openzeppelin/contracts/utils/math/SafeMath.sol\";\r\nimport \"@openzeppelin/contracts/access/Ownable.sol\";\r\nimport \"@openzeppelin/contracts/token/ERC20/IERC20.sol\";\r\nimport \"../ICrossSpaceCall.sol\";\r\nimport \"../IExchange.sol\";\r\n///\r\n///  @title CoreBridge_multipool is a bridge to connect Conflux POS pools and Exchange rooms ,deployed in core;\r\n///  @dev This contract set the user share ratio, system share ratio, \r\n///  @dev compound the interests\r\n///  @notice Users cann't direct use this contract to participate Conflux PoS stake.\r\n///\r\ncontract CoreBridge_multipool is Ownable {\r\n  using SafeMath for uint256;\r\n  CrossSpaceCall internal crossSpaceCall;\r\n\r\n  uint256 private constant RATIO_BASE = 10000;\r\n  // ratio shared by user: 1-10000\r\n  uint256 public poolUserShareRatio = 9000;\r\n  uint256 CFX_COUNT_OF_ONE_VOTE = 1000;\r\n  uint256 CFX_VALUE_OF_ONE_VOTE = 1000 ether;\r\n\r\n  address[] public poolAddress;               // can use many pools, so here is an array\r\n  uint256   public pos_id_in_use;             // pos pool in use\r\n  address   public xCFXAddress;               // xCFX addr in espace \r\n  address   public eSpaceExroomAddress;       //Exchange room Address in espace\r\n  address   public CoreExroomAddress;         //Exchange room Address in core\r\n  address   public ServicetreasuryAddress;    //Service treasury Address in core\r\n  uint256   private system_cfxinterests_temp; //pools cfx interests in temporary\r\n  uint256   public identifier;                //Execution number , should be private when use in main net\r\n  mapping(address=>bool) trusted_node_trigers;//     \r\n  // ======================== Struct definitions =========================\r\n  struct PoolSummary {\r\n    uint256 xCFXSUM;             // xCFX SUM (1 ether xCFX === 1 e18)\r\n    uint256 totalInterest;       // PoS pool interests for all xCFX\r\n    uint256 CFXbalances;         // CFX balances in bridge\r\n    uint256 historical_Interest ;// total historical interest of whole pools\r\n  }\r\n\r\n  constructor () {\r\n    initialize();\r\n  }\r\n  // ======================== Modifiers =========================\r\n\r\n  modifier Only_in_order() {\r\n    identifier += 1;\r\n    _;\r\n    if(identifier==5) identifier = 0;\r\n  }\r\n  modifier Only_trusted_trigers() {\r\n    require(trusted_node_trigers[msg.sender]==true,'trigers must be trusted');\r\n    _;\r\n  }\r\n  // ======================== Methods for core pos pools settings =========================\r\n\r\n  function initialize() public {\r\n    crossSpaceCall = CrossSpaceCall(0x0888000000000000000000000000000000000006);\r\n  }\r\n\r\n  function addPoolAddress(address _poolAddress) public onlyOwner {\r\n    poolAddress.push(_poolAddress);\r\n  }\r\n\r\n  function changePoolAddress(address _oldpoolAddress,address _newpoolAddress) public onlyOwner {\r\n    uint256 pool_sum = poolAddress.length;\r\n    for(uint256 i=0;i<pool_sum;i++)\r\n    {\r\n        if(poolAddress[i]==_oldpoolAddress)\r\n        {\r\n            poolAddress[i]=_newpoolAddress;\r\n        }\r\n    }\r\n  }\r\n  function delePoolAddress(address _oldpoolAddress) public onlyOwner {\r\n    uint256 pool_sum = poolAddress.length;\r\n    for(uint256 i=0;i<pool_sum;i++)\r\n    {\r\n        if(poolAddress[i]==_oldpoolAddress)\r\n        {\r\n            poolAddress[i]= poolAddress[pool_sum-1];\r\n            poolAddress.pop();\r\n        }\r\n    }\r\n  }\r\n\r\n  function seteSpaceExroomAddress(address _eSpaceExroomAddress) public onlyOwner {\r\n    eSpaceExroomAddress = _eSpaceExroomAddress;\r\n  }\r\n  function settrusted_trigers(address _eSpaceExroomAddress,bool state) public onlyOwner {\r\n    trusted_node_trigers[_eSpaceExroomAddress] = state;\r\n  }\r\n\r\n  function get_triger_state(address _eSpaceExroomAddress) public view onlyOwner returns(bool){\r\n    return trusted_node_trigers[_eSpaceExroomAddress];\r\n  }\r\n  function getPoolAddress() public view returns (address[] memory ) {\r\n    return poolAddress;\r\n  }\r\n  \r\n  function ePoolAddrB20() public view returns (bytes20) {\r\n    return bytes20(eSpaceExroomAddress);\r\n  }\r\n  //-----------------espace method-------------------------------------------------------------------------------------\r\n\r\n  function queryespacexCFXincrease() public returns (uint256) {\r\n    bytes memory rawCrossingVotes = crossSpaceCall.callEVM(ePoolAddrB20(), abi.encodeWithSignature(\"crossingVotes()\"));\r\n    return abi.decode(rawCrossingVotes, (uint256));\r\n  }\r\n\r\n  function queryUnstakeLen() public returns (uint256) {\r\n    bytes memory rawUnstakeLen = crossSpaceCall.callEVM(ePoolAddrB20(), abi.encodeWithSignature(\"unstakeLen()\"));\r\n    return abi.decode(rawUnstakeLen, (uint256));\r\n  }\r\n\r\n  //-----------------core pool method-------------------------------------------------------------------------------------\r\n  function queryInterest(uint256 _num) public view returns (uint256) {\r\n    IExchange posPool = IExchange(poolAddress[_num]);\r\n    uint256 interest = posPool.temp_Interest();\r\n    return interest;\r\n  }\r\n\r\n  //-----------------bridge method-------------------------------------------------------------------------------------\r\n  function syncALLwork() public onlyOwner Only_trusted_trigers {\r\n    claimInterests();\r\n\r\n    campounds();\r\n    SyncValue();\r\n\r\n    handleUnstake();\r\n    withdrawVotes();\r\n  }\r\n\r\n  function claimInterests() public Only_in_order Only_trusted_trigers {\r\n    require(identifier==1,\"identifier is not right, need be 1\");\r\n    require(system_cfxinterests_temp==0,'system_cfxinterests not cleaned');\r\n    uint256 pool_sum = poolAddress.length;\r\n    IExchange posPool;\r\n    uint256 interest;\r\n    for(uint256 i=0;i<pool_sum;i++)\r\n    {\r\n      posPool = IExchange(poolAddress[i]);\r\n      //interest = posPool.userInterest(address(this));\r\n      if (interest > 0) {\r\n        interest = posPool.claimAllInterest();\r\n        system_cfxinterests_temp += interest.mul(poolUserShareRatio).div(RATIO_BASE);\r\n        crossSpaceCall.transferEVM{value: interest}(ePoolAddrB20());\r\n      }\r\n    }\r\n  }\r\n  function campounds() public Only_in_order Only_trusted_trigers {\r\n    require(identifier==2,\"identifier is not right, need be 2\");\r\n    require(system_cfxinterests_temp!=0,'system_cfxinterests is cleaned');\r\n    uint256 toxCFX = system_cfxinterests_temp;\r\n    system_cfxinterests_temp == 0;\r\n    crossSpaceCall.callEVM{value: toxCFX}(ePoolAddrB20(), abi.encodeWithSignature(\"CFX_exchange_XCFX()\"));\r\n    uint256 balanceinpool = crossSpaceCall.mappedBalance(eSpaceExroomAddress);\r\n    uint64 votePower = uint64(balanceinpool.div(CFX_VALUE_OF_ONE_VOTE));\r\n    if (votePower > 0){\r\n      IExchange(poolAddress[pos_id_in_use]).increaseStake(votePower);\r\n    }\r\n  }\r\n\r\n  function SyncValue() public Only_in_order Only_trusted_trigers {\r\n    require(identifier==3,\"identifier is not right, need be 3\");\r\n    uint256 sum = IERC20(xCFXAddress).totalSupply() ; \r\n    uint256 balanceinpool = crossSpaceCall.mappedBalance(eSpaceExroomAddress);\r\n    uint256 pool_sum = poolAddress.length;\r\n    uint256 SUMvotes;\r\n    for(uint256 i=0;i<pool_sum;i++)\r\n    {\r\n        SUMvotes += IExchange(poolAddress[i]).poolSummary().totalvotes;\r\n    }\r\n    uint256 xCFXvalues =balanceinpool.add(SUMvotes.mul(CFX_VALUE_OF_ONE_VOTE)).div(sum);\r\n    crossSpaceCall.callEVM(ePoolAddrB20(), abi.encodeWithSignature(\"setxCFXValue(uint256)\", xCFXvalues));\r\n  }\r\n\r\n  function handleUnstake() public Only_in_order Only_trusted_trigers {\r\n    require(identifier==4,\"identifier is not right, need be 4\");\r\n    uint256 unstakeLen = queryUnstakeLen();\r\n    if (unstakeLen == 0) return;\r\n    if (unstakeLen > 50) unstakeLen = 50; // max 50 unstakes per call\r\n    IExchange posPool = IExchange(poolAddress[pos_id_in_use]);\r\n    IExchange.PoolSummary memory poolSummary = posPool.poolSummary();\r\n    uint256 available = poolSummary.totalvotes;\r\n    bytes memory rawFirstUnstakeVotes ;\r\n    uint256 firstUnstakeVotes;\r\n    if (available == 0) return;\r\n    for(uint256 i = 0; i < unstakeLen; i++) {\r\n      rawFirstUnstakeVotes = crossSpaceCall.callEVM(ePoolAddrB20(), abi.encodeWithSignature(\"firstUnstakeVotes()\"));\r\n      firstUnstakeVotes = abi.decode(rawFirstUnstakeVotes, (uint256));\r\n      if (firstUnstakeVotes == 0) break;\r\n      if (firstUnstakeVotes > available) break;\r\n      posPool.decreaseStake(uint64(firstUnstakeVotes));\r\n      crossSpaceCall.callEVM(ePoolAddrB20(), abi.encodeWithSignature(\"handleUnstakeTask()\"));\r\n      available -= firstUnstakeVotes;\r\n    }\r\n  }\r\n\r\n  function withdrawVotes() public Only_in_order Only_trusted_trigers {\r\n    require(identifier==5,\"identifier is not right, need be 5\");\r\n    uint256 pool_sum = poolAddress.length;\r\n    IExchange posPool;\r\n    uint256 temp_unlocked;\r\n    //uint256 transferValue;\r\n    for(uint256 i=0;i<pool_sum;i++)\r\n    {\r\n      posPool = IExchange(poolAddress[i]);\r\n      IExchange.PoolSummary memory poolSummary = posPool.poolSummary();\r\n      temp_unlocked = poolSummary.unlocked;\r\n      if (temp_unlocked > 0) \r\n      {\r\n        posPool.withdrawStake();\r\n        // transfer to eSpacePool and call method\r\n        //transferValue = temp_unlocked * 1000 ether;\r\n        //crossSpaceCall.callEVM{value: transferValue}(ePoolAddrB20(), abi.encodeWithSignature(\"handleUnlockedIncrease(uint256)\", userSummary.unlocked));\r\n      }\r\n    }\r\n  }\r\n\r\n  function callEVM(address addr, bytes calldata data) public Only_trusted_trigers {\r\n    crossSpaceCall.callEVM(bytes20(addr), data);\r\n  }\r\n\r\n  fallback() external payable {}\r\n  receive() external payable {}\r\n}",
  "sourcePath": "C:/Users/artii/Conflux Studio/minpos/contracts/eSpace/CoreBridge_multipool.sol",
  "compiler": {
    "name": "solc",
    "version": "0.8.2+commit.661d1103.Emscripten.clang"
  },
  "schemaVersion": "3.3.4",
  "updatedAt": "2022-08-16T16:28:11.631Z",
  "devdoc": {
    "details": "This contract set the user share ratio, system share ratio, compound the interests",
    "kind": "dev",
    "methods": {
      "owner()": {
        "details": "Returns the address of the current owner."
      },
      "renounceOwnership()": {
        "details": "Leaves the contract without owner. It will not be possible to call `onlyOwner` functions anymore. Can only be called by the current owner. NOTE: Renouncing ownership will leave the contract without an owner, thereby removing any functionality that is only available to the owner."
      },
      "transferOwnership(address)": {
        "details": "Transfers ownership of the contract to a new account (`newOwner`). Can only be called by the current owner."
      }
    },
    "title": "CoreBridge_multipool is a bridge to connect Conflux POS pools and Exchange rooms ,deployed in core;",
    "version": 1
  },
  "userdoc": {
    "kind": "user",
    "methods": {},
    "notice": "Users cann't direct use this contract to participate Conflux PoS stake.",
    "version": 1
  }
}