{
  "contractName": "CoreBridge_multipool",
  "abi": [
    {
      "inputs": [],
      "stateMutability": "nonpayable",
      "type": "constructor"
    },
    {
      "anonymous": false,
      "inputs": [
        {
          "indexed": true,
          "internalType": "address",
          "name": "previousOwner",
          "type": "address"
        },
        {
          "indexed": true,
          "internalType": "address",
          "name": "newOwner",
          "type": "address"
        }
      ],
      "name": "OwnershipTransferred",
      "type": "event"
    },
    {
      "stateMutability": "payable",
      "type": "fallback"
    },
    {
      "inputs": [],
      "name": "CoreExroomAddress",
      "outputs": [
        {
          "internalType": "address",
          "name": "",
          "type": "address"
        }
      ],
      "stateMutability": "view",
      "type": "function"
    },
    {
      "inputs": [],
      "name": "ServicetreasuryAddress",
      "outputs": [
        {
          "internalType": "address",
          "name": "",
          "type": "address"
        }
      ],
      "stateMutability": "view",
      "type": "function"
    },
    {
      "inputs": [],
      "name": "eSpaceExroomAddress",
      "outputs": [
        {
          "internalType": "address",
          "name": "",
          "type": "address"
        }
      ],
      "stateMutability": "view",
      "type": "function"
    },
    {
      "inputs": [],
      "name": "identifier",
      "outputs": [
        {
          "internalType": "uint256",
          "name": "",
          "type": "uint256"
        }
      ],
      "stateMutability": "view",
      "type": "function"
    },
    {
      "inputs": [],
      "name": "owner",
      "outputs": [
        {
          "internalType": "address",
          "name": "",
          "type": "address"
        }
      ],
      "stateMutability": "view",
      "type": "function"
    },
    {
      "inputs": [
        {
          "internalType": "uint256",
          "name": "",
          "type": "uint256"
        }
      ],
      "name": "poolAddress",
      "outputs": [
        {
          "internalType": "address",
          "name": "",
          "type": "address"
        }
      ],
      "stateMutability": "view",
      "type": "function"
    },
    {
      "inputs": [],
      "name": "poolUserShareRatio",
      "outputs": [
        {
          "internalType": "uint256",
          "name": "",
          "type": "uint256"
        }
      ],
      "stateMutability": "view",
      "type": "function"
    },
    {
      "inputs": [],
      "name": "pos_id_in_use",
      "outputs": [
        {
          "internalType": "uint256",
          "name": "",
          "type": "uint256"
        }
      ],
      "stateMutability": "view",
      "type": "function"
    },
    {
      "inputs": [],
      "name": "renounceOwnership",
      "outputs": [],
      "stateMutability": "nonpayable",
      "type": "function"
    },
    {
      "inputs": [],
      "name": "system_cfxinterests_temp",
      "outputs": [
        {
          "internalType": "uint256",
          "name": "",
          "type": "uint256"
        }
      ],
      "stateMutability": "view",
      "type": "function"
    },
    {
      "inputs": [
        {
          "internalType": "address",
          "name": "newOwner",
          "type": "address"
        }
      ],
      "name": "transferOwnership",
      "outputs": [],
      "stateMutability": "nonpayable",
      "type": "function"
    },
    {
      "inputs": [],
      "name": "xCFXAddress",
      "outputs": [
        {
          "internalType": "address",
          "name": "",
          "type": "address"
        }
      ],
      "stateMutability": "view",
      "type": "function"
    },
    {
      "stateMutability": "payable",
      "type": "receive"
    },
    {
      "inputs": [],
      "name": "initialize",
      "outputs": [],
      "stateMutability": "nonpayable",
      "type": "function"
    },
    {
      "inputs": [
        {
          "internalType": "address",
          "name": "_poolAddress",
          "type": "address"
        }
      ],
      "name": "addPoolAddress",
      "outputs": [],
      "stateMutability": "nonpayable",
      "type": "function"
    },
    {
      "inputs": [
        {
          "internalType": "address",
          "name": "_oldpoolAddress",
          "type": "address"
        },
        {
          "internalType": "address",
          "name": "_newpoolAddress",
          "type": "address"
        }
      ],
      "name": "changePoolAddress",
      "outputs": [],
      "stateMutability": "nonpayable",
      "type": "function"
    },
    {
      "inputs": [
        {
          "internalType": "address",
          "name": "_oldpoolAddress",
          "type": "address"
        }
      ],
      "name": "delePoolAddress",
      "outputs": [],
      "stateMutability": "nonpayable",
      "type": "function"
    },
    {
      "inputs": [
        {
          "internalType": "address",
          "name": "_eSpaceExroomAddress",
          "type": "address"
        }
      ],
      "name": "seteSpaceExroomAddress",
      "outputs": [],
      "stateMutability": "nonpayable",
      "type": "function"
    },
    {
      "inputs": [
        {
          "internalType": "address",
          "name": "_eSpaceExroomAddress",
          "type": "address"
        },
        {
          "internalType": "bool",
          "name": "state",
          "type": "bool"
        }
      ],
      "name": "settrusted_trigers",
      "outputs": [],
      "stateMutability": "nonpayable",
      "type": "function"
    },
    {
      "inputs": [
        {
          "internalType": "address",
          "name": "_eSpaceExroomAddress",
          "type": "address"
        }
      ],
      "name": "get_triger_state",
      "outputs": [
        {
          "internalType": "bool",
          "name": "",
          "type": "bool"
        }
      ],
      "stateMutability": "view",
      "type": "function"
    },
    {
      "inputs": [],
      "name": "getPoolAddress",
      "outputs": [
        {
          "internalType": "address[]",
          "name": "",
          "type": "address[]"
        }
      ],
      "stateMutability": "view",
      "type": "function"
    },
    {
      "inputs": [],
      "name": "ePoolAddrB20",
      "outputs": [
        {
          "internalType": "bytes20",
          "name": "",
          "type": "bytes20"
        }
      ],
      "stateMutability": "view",
      "type": "function"
    },
    {
      "inputs": [],
      "name": "queryespacexCFXincrease",
      "outputs": [
        {
          "internalType": "uint256",
          "name": "",
          "type": "uint256"
        }
      ],
      "stateMutability": "nonpayable",
      "type": "function"
    },
    {
      "inputs": [],
      "name": "queryUnstakeLen",
      "outputs": [
        {
          "internalType": "uint256",
          "name": "",
          "type": "uint256"
        }
      ],
      "stateMutability": "nonpayable",
      "type": "function"
    },
    {
      "inputs": [
        {
          "internalType": "uint256",
          "name": "_num",
          "type": "uint256"
        }
      ],
      "name": "queryInterest",
      "outputs": [
        {
          "internalType": "uint256",
          "name": "",
          "type": "uint256"
        }
      ],
      "stateMutability": "view",
      "type": "function"
    },
    {
      "inputs": [],
      "name": "syncALLwork",
      "outputs": [],
      "stateMutability": "nonpayable",
      "type": "function"
    },
    {
      "inputs": [],
      "name": "claimInterests",
      "outputs": [],
      "stateMutability": "nonpayable",
      "type": "function"
    },
    {
      "inputs": [],
      "name": "campounds",
      "outputs": [],
      "stateMutability": "nonpayable",
      "type": "function"
    },
    {
      "inputs": [],
      "name": "SyncValue",
      "outputs": [],
      "stateMutability": "nonpayable",
      "type": "function"
    },
    {
      "inputs": [],
      "name": "handleUnstake",
      "outputs": [],
      "stateMutability": "nonpayable",
      "type": "function"
    },
    {
      "inputs": [],
      "name": "withdrawVotes",
      "outputs": [],
      "stateMutability": "nonpayable",
      "type": "function"
    },
    {
      "inputs": [
        {
          "internalType": "address",
          "name": "addr",
          "type": "address"
        },
        {
          "internalType": "bytes",
          "name": "data",
          "type": "bytes"
        }
      ],
      "name": "callEVM",
      "outputs": [],
      "stateMutability": "nonpayable",
      "type": "function"
    },
    {
      "inputs": [
        {
          "internalType": "uint256",
          "name": "_identifier",
          "type": "uint256"
        }
      ],
      "name": "identifier_test",
      "outputs": [],
      "stateMutability": "nonpayable",
      "type": "function"
    }
  ],
  "bytecode": "0x60806040526123286002556103e8600355683635c9adc5dea000006004553480156200002a57600080fd5b506200004b6200003f6200006160201b60201c565b6200006960201b60201c565b6200005b6200012d60201b60201c565b62000184565b600033905090565b60008060009054906101000a900473ffffffffffffffffffffffffffffffffffffffff169050816000806101000a81548173ffffffffffffffffffffffffffffffffffffffff021916908373ffffffffffffffffffffffffffffffffffffffff1602179055508173ffffffffffffffffffffffffffffffffffffffff168173ffffffffffffffffffffffffffffffffffffffff167f8be0079c531659141344cd1fd0a4f28419497f9722a3daafe3b4186f6b6457e060405160405180910390a35050565b730888000000000000000000000000000000000006600160006101000a81548173ffffffffffffffffffffffffffffffffffffffff021916908373ffffffffffffffffffffffffffffffffffffffff160217905550565b613e8d80620001946000396000f3fe6080604052600436106101e75760003560e01c8063783b7c9711610102578063a0e86fd011610095578063da02d10011610064578063da02d1001461062e578063da9da52614610645578063f2fde38b14610682578063f586c6d9146106ab576101ee565b8063a0e86fd014610586578063b3569a18146105af578063bb469110146105d8578063c2626b7d14610603576101ee565b806393e48e38116100d157806393e48e38146104f0578063983bf1bd1461051b578063986e08b6146105325780639fa28e4814610549576101ee565b8063783b7c97146104585780637998a1c4146104835780638129fc1c146104ae5780638da5cb5b146104c5576101ee565b8063505f53d41161017a57806367a1aa4f1161014957806367a1aa4f146103d65780636a5bd69d14610401578063715018a61461042a57806375eea4e214610441576101ee565b8063505f53d41461032e578063588beea51461035957806363c312e51461039657806365473c52146103bf576101ee565b80633e7321b5116101b65780633e7321b51461029857806340d5637f146102c357806343499844146102da5780634e141b4e14610303576101ee565b8063120063b0146101f05780632306092e14610219578063231da72f146102425780633b282f3a1461026d576101ee565b366101ee57005b005b3480156101fc57600080fd5b506102176004803603810190610212919061314d565b6106d6565b005b34801561022557600080fd5b50610240600480360381019061023b919061314d565b610796565b005b34801561024e57600080fd5b50610257610a38565b6040516102649190613596565b60405180910390f35b34801561027957600080fd5b50610282610a5e565b60405161028f91906135ee565b60405180910390f35b3480156102a457600080fd5b506102ad610a8b565b6040516102ba9190613596565b60405180910390f35b3480156102cf57600080fd5b506102d8610ab1565b005b3480156102e657600080fd5b5061030160048036038101906102fc919061314d565b610d43565b005b34801561030f57600080fd5b50610318610e25565b6040516103259190613596565b60405180910390f35b34801561033a57600080fd5b50610343610e4b565b60405161035091906137ab565b60405180910390f35b34801561036557600080fd5b50610380600480360381019061037b919061314d565b610fa7565b60405161038d91906135d3565b60405180910390f35b3480156103a257600080fd5b506103bd60048036038101906103b891906132b0565b611079565b005b3480156103cb57600080fd5b506103d46110ff565b005b3480156103e257600080fd5b506103eb611628565b6040516103f891906137ab565b60405180910390f35b34801561040d57600080fd5b50610428600480360381019061042391906131ee565b61162e565b005b34801561043657600080fd5b5061043f611780565b005b34801561044d57600080fd5b50610456611808565b005b34801561046457600080fd5b5061046d611c6e565b60405161047a91906137ab565b60405180910390f35b34801561048f57600080fd5b50610498611c74565b6040516104a591906137ab565b60405180910390f35b3480156104ba57600080fd5b506104c3611c7a565b005b3480156104d157600080fd5b506104da611cd1565b6040516104e79190613596565b60405180910390f35b3480156104fc57600080fd5b50610505611cfa565b60405161051291906137ab565b60405180910390f35b34801561052757600080fd5b50610530611e56565b005b34801561053e57600080fd5b50610547612241565b005b34801561055557600080fd5b50610570600480360381019061056b91906132b0565b61237a565b60405161057d91906137ab565b60405180910390f35b34801561059257600080fd5b506105ad60048036038101906105a89190613176565b612470565b005b3480156105bb57600080fd5b506105d660048036038101906105d191906131b2565b612636565b005b3480156105e457600080fd5b506105ed61270d565b6040516105fa9190613596565b60405180910390f35b34801561060f57600080fd5b50610618612733565b60405161062591906137ab565b60405180910390f35b34801561063a57600080fd5b50610643612739565b005b34801561065157600080fd5b5061066c600480360381019061066791906132b0565b612cc4565b6040516106799190613596565b60405180910390f35b34801561068e57600080fd5b506106a960048036038101906106a4919061314d565b612d03565b005b3480156106b757600080fd5b506106c0612dfb565b6040516106cd91906135b1565b60405180910390f35b6106de612e89565b73ffffffffffffffffffffffffffffffffffffffff166106fc611cd1565b73ffffffffffffffffffffffffffffffffffffffff1614610752576040517f08c379a00000000000000000000000000000000000000000000000000000000081526004016107499061376b565b60405180910390fd5b80600860006101000a81548173ffffffffffffffffffffffffffffffffffffffff021916908373ffffffffffffffffffffffffffffffffffffffff16021790555050565b61079e612e89565b73ffffffffffffffffffffffffffffffffffffffff166107bc611cd1565b73ffffffffffffffffffffffffffffffffffffffff1614610812576040517f08c379a00000000000000000000000000000000000000000000000000000000081526004016108099061376b565b60405180910390fd5b6000600580549050905060005b81811015610a33578273ffffffffffffffffffffffffffffffffffffffff1660058281548110610878577f4e487b7100000000000000000000000000000000000000000000000000000000600052603260045260246000fd5b9060005260206000200160009054906101000a900473ffffffffffffffffffffffffffffffffffffffff1673ffffffffffffffffffffffffffffffffffffffff161415610a205760056001836108ce919061397e565b81548110610905577f4e487b7100000000000000000000000000000000000000000000000000000000600052603260045260246000fd5b9060005260206000200160009054906101000a900473ffffffffffffffffffffffffffffffffffffffff166005828154811061096a577f4e487b7100000000000000000000000000000000000000000000000000000000600052603260045260246000fd5b9060005260206000200160006101000a81548173ffffffffffffffffffffffffffffffffffffffff021916908373ffffffffffffffffffffffffffffffffffffffff16021790555060058054806109ea577f4e487b7100000000000000000000000000000000000000000000000000000000600052603160045260246000fd5b6001900381819060005260206000200160006101000a81549073ffffffffffffffffffffffffffffffffffffffff021916905590555b8080610a2b90613aad565b91505061081f565b505050565b600760009054906101000a900473ffffffffffffffffffffffffffffffffffffffff1681565b6000600860009054906101000a900473ffffffffffffffffffffffffffffffffffffffff1660601b905090565b600860009054906101000a900473ffffffffffffffffffffffffffffffffffffffff1681565b6001600c6000828254610ac4919061389d565b9250508190555060011515600d60003373ffffffffffffffffffffffffffffffffffffffff1673ffffffffffffffffffffffffffffffffffffffff16815260200190815260200160002060009054906101000a900460ff16151514610b5e576040517f08c379a0000000000000000000000000000000000000000000000000000000008152600401610b559061372b565b60405180910390fd5b6005600c5414610ba3576040517f08c379a0000000000000000000000000000000000000000000000000000000008152600401610b9a906136ab565b60405180910390fd5b6000600580549050905060008060005b83811015610d295760058181548110610bf5577f4e487b7100000000000000000000000000000000000000000000000000000000600052603260045260246000fd5b9060005260206000200160009054906101000a900473ffffffffffffffffffffffffffffffffffffffff16925060008373ffffffffffffffffffffffffffffffffffffffff16637571fcf66040518163ffffffff1660e01b815260040160e06040518083038186803b158015610c6a57600080fd5b505afa158015610c7e573d6000803e3d6000fd5b505050506040513d601f19601f82011682018060405250810190610ca29190613287565b9050806080015192506000831115610d15578373ffffffffffffffffffffffffffffffffffffffff1663bed9d8616040518163ffffffff1660e01b8152600401600060405180830381600087803b158015610cfc57600080fd5b505af1158015610d10573d6000803e3d6000fd5b505050505b508080610d2190613aad565b915050610bb3565b505050506005600c541415610d41576000600c819055505b565b610d4b612e89565b73ffffffffffffffffffffffffffffffffffffffff16610d69611cd1565b73ffffffffffffffffffffffffffffffffffffffff1614610dbf576040517f08c379a0000000000000000000000000000000000000000000000000000000008152600401610db69061376b565b60405180910390fd5b6005819080600181540180825580915050600190039060005260206000200160009091909190916101000a81548173ffffffffffffffffffffffffffffffffffffffff021916908373ffffffffffffffffffffffffffffffffffffffff16021790555050565b600960009054906101000a900473ffffffffffffffffffffffffffffffffffffffff1681565b600080600160009054906101000a900473ffffffffffffffffffffffffffffffffffffffff1673ffffffffffffffffffffffffffffffffffffffff1663bea05ee3610e94610a5e565b6040516024016040516020818303038152906040527fc7ff5d6e000000000000000000000000000000000000000000000000000000007bffffffffffffffffffffffffffffffffffffffffffffffffffffffff19166020820180517bffffffffffffffffffffffffffffffffffffffffffffffffffffffff83818316178352505050506040518363ffffffff1660e01b8152600401610f3492919061363b565b600060405180830381600087803b158015610f4e57600080fd5b505af1158015610f62573d6000803e3d6000fd5b505050506040513d6000823e3d601f19601f82011682018060405250810190610f8b9190613246565b905080806020019051810190610fa191906132d9565b91505090565b6000610fb1612e89565b73ffffffffffffffffffffffffffffffffffffffff16610fcf611cd1565b73ffffffffffffffffffffffffffffffffffffffff1614611025576040517f08c379a000000000000000000000000000000000000000000000000000000000815260040161101c9061376b565b60405180910390fd5b600d60008373ffffffffffffffffffffffffffffffffffffffff1673ffffffffffffffffffffffffffffffffffffffff16815260200190815260200160002060009054906101000a900460ff169050919050565b611081612e89565b73ffffffffffffffffffffffffffffffffffffffff1661109f611cd1565b73ffffffffffffffffffffffffffffffffffffffff16146110f5576040517f08c379a00000000000000000000000000000000000000000000000000000000081526004016110ec9061376b565b60405180910390fd5b80600c8190555050565b6001600c6000828254611112919061389d565b9250508190555060011515600d60003373ffffffffffffffffffffffffffffffffffffffff1673ffffffffffffffffffffffffffffffffffffffff16815260200190815260200160002060009054906101000a900460ff161515146111ac576040517f08c379a00000000000000000000000000000000000000000000000000000000081526004016111a39061372b565b60405180910390fd5b6003600c54146111f1576040517f08c379a00000000000000000000000000000000000000000000000000000000081526004016111e89061370b565b60405180910390fd5b6000600760009054906101000a900473ffffffffffffffffffffffffffffffffffffffff1673ffffffffffffffffffffffffffffffffffffffff166318160ddd6040518163ffffffff1660e01b815260040160206040518083038186803b15801561125b57600080fd5b505afa15801561126f573d6000803e3d6000fd5b505050506040513d601f19601f8201168201806040525081019061129391906132d9565b90506000600160009054906101000a900473ffffffffffffffffffffffffffffffffffffffff1673ffffffffffffffffffffffffffffffffffffffff1663142b37c7600860009054906101000a900473ffffffffffffffffffffffffffffffffffffffff166040518263ffffffff1660e01b81526004016113149190613596565b60206040518083038186803b15801561132c57600080fd5b505afa158015611340573d6000803e3d6000fd5b505050506040513d601f19601f8201168201806040525081019061136491906132d9565b905060006005805490509050600080600090505b8281101561148657600581815481106113ba577f4e487b7100000000000000000000000000000000000000000000000000000000600052603260045260246000fd5b9060005260206000200160009054906101000a900473ffffffffffffffffffffffffffffffffffffffff1673ffffffffffffffffffffffffffffffffffffffff16637571fcf66040518163ffffffff1660e01b815260040160e06040518083038186803b15801561142a57600080fd5b505afa15801561143e573d6000803e3d6000fd5b505050506040513d601f19601f820116820180604052508101906114629190613287565b6000015182611471919061389d565b9150808061147e90613aad565b915050611378565b5060006114c2856114b46114a560045486612e9190919063ffffffff16565b87612ea790919063ffffffff16565b612ebd90919063ffffffff16565b9050600160009054906101000a900473ffffffffffffffffffffffffffffffffffffffff1673ffffffffffffffffffffffffffffffffffffffff1663bea05ee361150a610a5e565b8360405160240161151b91906137ab565b6040516020818303038152906040527f21e2f533000000000000000000000000000000000000000000000000000000007bffffffffffffffffffffffffffffffffffffffffffffffffffffffff19166020820180517bffffffffffffffffffffffffffffffffffffffffffffffffffffffff83818316178352505050506040518363ffffffff1660e01b81526004016115b592919061363b565b600060405180830381600087803b1580156115cf57600080fd5b505af11580156115e3573d6000803e3d6000fd5b505050506040513d6000823e3d601f19601f8201168201806040525081019061160c9190613246565b5050505050506005600c541415611626576000600c819055505b565b60025481565b60011515600d60003373ffffffffffffffffffffffffffffffffffffffff1673ffffffffffffffffffffffffffffffffffffffff16815260200190815260200160002060009054906101000a900460ff161515146116c1576040517f08c379a00000000000000000000000000000000000000000000000000000000081526004016116b89061372b565b60405180910390fd5b600160009054906101000a900473ffffffffffffffffffffffffffffffffffffffff1673ffffffffffffffffffffffffffffffffffffffff1663bea05ee38460601b84846040518463ffffffff1660e01b815260040161172393929190613609565b600060405180830381600087803b15801561173d57600080fd5b505af1158015611751573d6000803e3d6000fd5b505050506040513d6000823e3d601f19601f8201168201806040525081019061177a9190613246565b50505050565b611788612e89565b73ffffffffffffffffffffffffffffffffffffffff166117a6611cd1565b73ffffffffffffffffffffffffffffffffffffffff16146117fc576040517f08c379a00000000000000000000000000000000000000000000000000000000081526004016117f39061376b565b60405180910390fd5b6118066000612ed3565b565b6001600c600082825461181b919061389d565b9250508190555060011515600d60003373ffffffffffffffffffffffffffffffffffffffff1673ffffffffffffffffffffffffffffffffffffffff16815260200190815260200160002060009054906101000a900460ff161515146118b5576040517f08c379a00000000000000000000000000000000000000000000000000000000081526004016118ac9061372b565b60405180910390fd5b6002600c54146118fa576040517f08c379a00000000000000000000000000000000000000000000000000000000081526004016118f19061374b565b60405180910390fd5b6000600b541415611940576040517f08c379a00000000000000000000000000000000000000000000000000000000081526004016119379061378b565b60405180910390fd5b6000600b549050600160009054906101000a900473ffffffffffffffffffffffffffffffffffffffff1673ffffffffffffffffffffffffffffffffffffffff1663bea05ee38261198e610a5e565b6040516024016040516020818303038152906040527f68eca7f9000000000000000000000000000000000000000000000000000000007bffffffffffffffffffffffffffffffffffffffffffffffffffffffff19166020820180517bffffffffffffffffffffffffffffffffffffffffffffffffffffffff83818316178352505050506040518463ffffffff1660e01b8152600401611a2e92919061363b565b6000604051808303818588803b158015611a4757600080fd5b505af1158015611a5b573d6000803e3d6000fd5b50505050506040513d6000823e3d601f19601f82011682018060405250810190611a859190613246565b506000600160009054906101000a900473ffffffffffffffffffffffffffffffffffffffff1673ffffffffffffffffffffffffffffffffffffffff1663142b37c7600860009054906101000a900473ffffffffffffffffffffffffffffffffffffffff166040518263ffffffff1660e01b8152600401611b059190613596565b60206040518083038186803b158015611b1d57600080fd5b505afa158015611b31573d6000803e3d6000fd5b505050506040513d601f19601f82011682018060405250810190611b5591906132d9565b90506000611b6e60045483612ebd90919063ffffffff16565b905060008167ffffffffffffffff161115611c5557600560065481548110611bbf577f4e487b7100000000000000000000000000000000000000000000000000000000600052603260045260246000fd5b9060005260206000200160009054906101000a900473ffffffffffffffffffffffffffffffffffffffff1673ffffffffffffffffffffffffffffffffffffffff166309fecf7f826040518263ffffffff1660e01b8152600401611c2291906137c6565b600060405180830381600087803b158015611c3c57600080fd5b505af1158015611c50573d6000803e3d6000fd5b505050505b5050506005600c541415611c6c576000600c819055505b565b60065481565b600c5481565b730888000000000000000000000000000000000006600160006101000a81548173ffffffffffffffffffffffffffffffffffffffff021916908373ffffffffffffffffffffffffffffffffffffffff160217905550565b60008060009054906101000a900473ffffffffffffffffffffffffffffffffffffffff16905090565b600080600160009054906101000a900473ffffffffffffffffffffffffffffffffffffffff1673ffffffffffffffffffffffffffffffffffffffff1663bea05ee3611d43610a5e565b6040516024016040516020818303038152906040527f15cc421d000000000000000000000000000000000000000000000000000000007bffffffffffffffffffffffffffffffffffffffffffffffffffffffff19166020820180517bffffffffffffffffffffffffffffffffffffffffffffffffffffffff83818316178352505050506040518363ffffffff1660e01b8152600401611de392919061363b565b600060405180830381600087803b158015611dfd57600080fd5b505af1158015611e11573d6000803e3d6000fd5b505050506040513d6000823e3d601f19601f82011682018060405250810190611e3a9190613246565b905080806020019051810190611e5091906132d9565b91505090565b6001600c6000828254611e69919061389d565b9250508190555060011515600d60003373ffffffffffffffffffffffffffffffffffffffff1673ffffffffffffffffffffffffffffffffffffffff16815260200190815260200160002060009054906101000a900460ff16151514611f03576040517f08c379a0000000000000000000000000000000000000000000000000000000008152600401611efa9061372b565b60405180910390fd5b6001600c5414611f48576040517f08c379a0000000000000000000000000000000000000000000000000000000008152600401611f3f906136eb565b60405180910390fd5b6000600b5414611f8d576040517f08c379a0000000000000000000000000000000000000000000000000000000008152600401611f84906136cb565b60405180910390fd5b6000600580549050905060008060005b838110156122275760058181548110611fdf577f4e487b7100000000000000000000000000000000000000000000000000000000600052603260045260246000fd5b9060005260206000200160009054906101000a900473ffffffffffffffffffffffffffffffffffffffff1692508273ffffffffffffffffffffffffffffffffffffffff1663e73e183b6040518163ffffffff1660e01b815260040160206040518083038186803b15801561205257600080fd5b505afa158015612066573d6000803e3d6000fd5b505050506040513d601f19601f8201168201806040525081019061208a91906132d9565b91506000821115612214578273ffffffffffffffffffffffffffffffffffffffff16638270512f6040518163ffffffff1660e01b8152600401602060405180830381600087803b1580156120dd57600080fd5b505af11580156120f1573d6000803e3d6000fd5b505050506040513d601f19601f8201168201806040525081019061211591906132d9565b915061214061271061213260025485612e9190919063ffffffff16565b612ebd90919063ffffffff16565b600b6000828254612151919061389d565b92505081905550600160009054906101000a900473ffffffffffffffffffffffffffffffffffffffff1673ffffffffffffffffffffffffffffffffffffffff1663da8d5daf8361219f610a5e565b6040518363ffffffff1660e01b81526004016121bb91906135ee565b6000604051808303818588803b1580156121d457600080fd5b505af11580156121e8573d6000803e3d6000fd5b50505050506040513d6000823e3d601f19601f820116820180604052508101906122129190613246565b505b808061221f90613aad565b915050611f9d565b505050506005600c54141561223f576000600c819055505b565b612249612e89565b73ffffffffffffffffffffffffffffffffffffffff16612267611cd1565b73ffffffffffffffffffffffffffffffffffffffff16146122bd576040517f08c379a00000000000000000000000000000000000000000000000000000000081526004016122b49061376b565b60405180910390fd5b60011515600d60003373ffffffffffffffffffffffffffffffffffffffff1673ffffffffffffffffffffffffffffffffffffffff16815260200190815260200160002060009054906101000a900460ff16151514612350576040517f08c379a00000000000000000000000000000000000000000000000000000000081526004016123479061372b565b60405180910390fd5b612358611e56565b612360611808565b6123686110ff565b612370612739565b612378610ab1565b565b600080600583815481106123b7577f4e487b7100000000000000000000000000000000000000000000000000000000600052603260045260246000fd5b9060005260206000200160009054906101000a900473ffffffffffffffffffffffffffffffffffffffff16905060008173ffffffffffffffffffffffffffffffffffffffff1663e73e183b6040518163ffffffff1660e01b815260040160206040518083038186803b15801561242c57600080fd5b505afa158015612440573d6000803e3d6000fd5b505050506040513d601f19601f8201168201806040525081019061246491906132d9565b90508092505050919050565b612478612e89565b73ffffffffffffffffffffffffffffffffffffffff16612496611cd1565b73ffffffffffffffffffffffffffffffffffffffff16146124ec576040517f08c379a00000000000000000000000000000000000000000000000000000000081526004016124e39061376b565b60405180910390fd5b6000600580549050905060005b81811015612630578373ffffffffffffffffffffffffffffffffffffffff1660058281548110612552577f4e487b7100000000000000000000000000000000000000000000000000000000600052603260045260246000fd5b9060005260206000200160009054906101000a900473ffffffffffffffffffffffffffffffffffffffff1673ffffffffffffffffffffffffffffffffffffffff16141561261d5782600582815481106125d4577f4e487b7100000000000000000000000000000000000000000000000000000000600052603260045260246000fd5b9060005260206000200160006101000a81548173ffffffffffffffffffffffffffffffffffffffff021916908373ffffffffffffffffffffffffffffffffffffffff1602179055505b808061262890613aad565b9150506124f9565b50505050565b61263e612e89565b73ffffffffffffffffffffffffffffffffffffffff1661265c611cd1565b73ffffffffffffffffffffffffffffffffffffffff16146126b2576040517f08c379a00000000000000000000000000000000000000000000000000000000081526004016126a99061376b565b60405180910390fd5b80600d60008473ffffffffffffffffffffffffffffffffffffffff1673ffffffffffffffffffffffffffffffffffffffff16815260200190815260200160002060006101000a81548160ff0219169083151502179055505050565b600a60009054906101000a900473ffffffffffffffffffffffffffffffffffffffff1681565b600b5481565b6001600c600082825461274c919061389d565b9250508190555060011515600d60003373ffffffffffffffffffffffffffffffffffffffff1673ffffffffffffffffffffffffffffffffffffffff16815260200190815260200160002060009054906101000a900460ff161515146127e6576040517f08c379a00000000000000000000000000000000000000000000000000000000081526004016127dd9061372b565b60405180910390fd5b6004600c541461282b576040517f08c379a00000000000000000000000000000000000000000000000000000000081526004016128229061368b565b60405180910390fd5b6000612835610e4b565b905060008114156128465750612cae565b603281111561285457603290505b6000600560065481548110612892577f4e487b7100000000000000000000000000000000000000000000000000000000600052603260045260246000fd5b9060005260206000200160009054906101000a900473ffffffffffffffffffffffffffffffffffffffff16905060008173ffffffffffffffffffffffffffffffffffffffff16637571fcf66040518163ffffffff1660e01b815260040160e06040518083038186803b15801561290757600080fd5b505afa15801561291b573d6000803e3d6000fd5b505050506040513d601f19601f8201168201806040525081019061293f9190613287565b9050600081600001519050606060008083141561296157505050505050612cae565b60005b86811015612ca657600160009054906101000a900473ffffffffffffffffffffffffffffffffffffffff1673ffffffffffffffffffffffffffffffffffffffff1663bea05ee36129b2610a5e565b6040516024016040516020818303038152906040527f09fcd230000000000000000000000000000000000000000000000000000000007bffffffffffffffffffffffffffffffffffffffffffffffffffffffff19166020820180517bffffffffffffffffffffffffffffffffffffffffffffffffffffffff83818316178352505050506040518363ffffffff1660e01b8152600401612a5292919061363b565b600060405180830381600087803b158015612a6c57600080fd5b505af1158015612a80573d6000803e3d6000fd5b505050506040513d6000823e3d601f19601f82011682018060405250810190612aa99190613246565b925082806020019051810190612abf91906132d9565b91506000821415612acf57612ca6565b83821115612adc57612ca6565b8573ffffffffffffffffffffffffffffffffffffffff1663beb99c1e836040518263ffffffff1660e01b8152600401612b1591906137c6565b600060405180830381600087803b158015612b2f57600080fd5b505af1158015612b43573d6000803e3d6000fd5b50505050600160009054906101000a900473ffffffffffffffffffffffffffffffffffffffff1673ffffffffffffffffffffffffffffffffffffffff1663bea05ee3612b8d610a5e565b6040516024016040516020818303038152906040527f84981986000000000000000000000000000000000000000000000000000000007bffffffffffffffffffffffffffffffffffffffffffffffffffffffff19166020820180517bffffffffffffffffffffffffffffffffffffffffffffffffffffffff83818316178352505050506040518363ffffffff1660e01b8152600401612c2d92919061363b565b600060405180830381600087803b158015612c4757600080fd5b505af1158015612c5b573d6000803e3d6000fd5b505050506040513d6000823e3d601f19601f82011682018060405250810190612c849190613246565b508184612c91919061397e565b93508080612c9e90613aad565b915050612964565b505050505050505b6005600c541415612cc2576000600c819055505b565b60058181548110612cd457600080fd5b906000526020600020016000915054906101000a900473ffffffffffffffffffffffffffffffffffffffff1681565b612d0b612e89565b73ffffffffffffffffffffffffffffffffffffffff16612d29611cd1565b73ffffffffffffffffffffffffffffffffffffffff1614612d7f576040517f08c379a0000000000000000000000000000000000000000000000000000000008152600401612d769061376b565b60405180910390fd5b600073ffffffffffffffffffffffffffffffffffffffff168173ffffffffffffffffffffffffffffffffffffffff161415612def576040517f08c379a0000000000000000000000000000000000000000000000000000000008152600401612de69061366b565b60405180910390fd5b612df881612ed3565b50565b60606005805480602002602001604051908101604052809291908181526020018280548015612e7f57602002820191906000526020600020905b8160009054906101000a900473ffffffffffffffffffffffffffffffffffffffff1673ffffffffffffffffffffffffffffffffffffffff1681526020019060010190808311612e35575b5050505050905090565b600033905090565b60008183612e9f9190613924565b905092915050565b60008183612eb5919061389d565b905092915050565b60008183612ecb91906138f3565b905092915050565b60008060009054906101000a900473ffffffffffffffffffffffffffffffffffffffff169050816000806101000a81548173ffffffffffffffffffffffffffffffffffffffff021916908373ffffffffffffffffffffffffffffffffffffffff1602179055508173ffffffffffffffffffffffffffffffffffffffff168173ffffffffffffffffffffffffffffffffffffffff167f8be0079c531659141344cd1fd0a4f28419497f9722a3daafe3b4186f6b6457e060405160405180910390a35050565b6000612faa612fa584613806565b6137e1565b905082815260208101848484011115612fc257600080fd5b612fcd848285613a49565b509392505050565b600081359050612fe481613e12565b92915050565b600081359050612ff981613e29565b92915050565b60008083601f84011261301157600080fd5b8235905067ffffffffffffffff81111561302a57600080fd5b60208301915083600182028301111561304257600080fd5b9250929050565b600082601f83011261305a57600080fd5b815161306a848260208601612f97565b91505092915050565b600060e0828403121561308557600080fd5b61308f60e06137e1565b9050600061309f84828501613138565b60008301525060206130b384828501613138565b60208301525060406130c784828501613138565b60408301525060606130db84828501613138565b60608301525060806130ef84828501613138565b60808301525060a061310384828501613138565b60a08301525060c061311784828501613138565b60c08301525092915050565b60008135905061313281613e40565b92915050565b60008151905061314781613e40565b92915050565b60006020828403121561315f57600080fd5b600061316d84828501612fd5565b91505092915050565b6000806040838503121561318957600080fd5b600061319785828601612fd5565b92505060206131a885828601612fd5565b9150509250929050565b600080604083850312156131c557600080fd5b60006131d385828601612fd5565b92505060206131e485828601612fea565b9150509250929050565b60008060006040848603121561320357600080fd5b600061321186828701612fd5565b935050602084013567ffffffffffffffff81111561322e57600080fd5b61323a86828701612fff565b92509250509250925092565b60006020828403121561325857600080fd5b600082015167ffffffffffffffff81111561327257600080fd5b61327e84828501613049565b91505092915050565b600060e0828403121561329957600080fd5b60006132a784828501613073565b91505092915050565b6000602082840312156132c257600080fd5b60006132d084828501613123565b91505092915050565b6000602082840312156132eb57600080fd5b60006132f984828501613138565b91505092915050565b600061330e838361331a565b60208301905092915050565b613323816139b2565b82525050565b613332816139b2565b82525050565b600061334382613847565b61334d818561386a565b935061335883613837565b8060005b838110156133895781516133708882613302565b975061337b8361385d565b92505060018101905061335c565b5085935050505092915050565b61339f816139c4565b82525050565b6133ae816139d0565b82525050565b60006133c0838561387b565b93506133cd838584613a3a565b6133d683613b83565b840190509392505050565b60006133ec82613852565b6133f6818561387b565b9350613406818560208601613a49565b61340f81613b83565b840191505092915050565b600061342760268361388c565b915061343282613b94565b604082019050919050565b600061344a60228361388c565b915061345582613be3565b604082019050919050565b600061346d60228361388c565b915061347882613c32565b604082019050919050565b6000613490601f8361388c565b915061349b82613c81565b602082019050919050565b60006134b360228361388c565b91506134be82613caa565b604082019050919050565b60006134d660228361388c565b91506134e182613cf9565b604082019050919050565b60006134f960178361388c565b915061350482613d48565b602082019050919050565b600061351c60228361388c565b915061352782613d71565b604082019050919050565b600061353f60208361388c565b915061354a82613dc0565b602082019050919050565b6000613562601e8361388c565b915061356d82613de9565b602082019050919050565b61358181613a1c565b82525050565b61359081613a26565b82525050565b60006020820190506135ab6000830184613329565b92915050565b600060208201905081810360008301526135cb8184613338565b905092915050565b60006020820190506135e86000830184613396565b92915050565b600060208201905061360360008301846133a5565b92915050565b600060408201905061361e60008301866133a5565b81810360208301526136318184866133b4565b9050949350505050565b600060408201905061365060008301856133a5565b818103602083015261366281846133e1565b90509392505050565b600060208201905081810360008301526136848161341a565b9050919050565b600060208201905081810360008301526136a48161343d565b9050919050565b600060208201905081810360008301526136c481613460565b9050919050565b600060208201905081810360008301526136e481613483565b9050919050565b60006020820190508181036000830152613704816134a6565b9050919050565b60006020820190508181036000830152613724816134c9565b9050919050565b60006020820190508181036000830152613744816134ec565b9050919050565b600060208201905081810360008301526137648161350f565b9050919050565b6000602082019050818103600083015261378481613532565b9050919050565b600060208201905081810360008301526137a481613555565b9050919050565b60006020820190506137c06000830184613578565b92915050565b60006020820190506137db6000830184613587565b92915050565b60006137eb6137fc565b90506137f78282613a7c565b919050565b6000604051905090565b600067ffffffffffffffff82111561382157613820613b54565b5b61382a82613b83565b9050602081019050919050565b6000819050602082019050919050565b600081519050919050565b600081519050919050565b6000602082019050919050565b600082825260208201905092915050565b600082825260208201905092915050565b600082825260208201905092915050565b60006138a882613a1c565b91506138b383613a1c565b9250827fffffffffffffffffffffffffffffffffffffffffffffffffffffffffffffffff038211156138e8576138e7613af6565b5b828201905092915050565b60006138fe82613a1c565b915061390983613a1c565b92508261391957613918613b25565b5b828204905092915050565b600061392f82613a1c565b915061393a83613a1c565b9250817fffffffffffffffffffffffffffffffffffffffffffffffffffffffffffffffff048311821515161561397357613972613af6565b5b828202905092915050565b600061398982613a1c565b915061399483613a1c565b9250828210156139a7576139a6613af6565b5b828203905092915050565b60006139bd826139fc565b9050919050565b60008115159050919050565b60007fffffffffffffffffffffffffffffffffffffffff00000000000000000000000082169050919050565b600073ffffffffffffffffffffffffffffffffffffffff82169050919050565b6000819050919050565b600067ffffffffffffffff82169050919050565b82818337600083830152505050565b60005b83811015613a67578082015181840152602081019050613a4c565b83811115613a76576000848401525b50505050565b613a8582613b83565b810181811067ffffffffffffffff82111715613aa457613aa3613b54565b5b80604052505050565b6000613ab882613a1c565b91507fffffffffffffffffffffffffffffffffffffffffffffffffffffffffffffffff821415613aeb57613aea613af6565b5b600182019050919050565b7f4e487b7100000000000000000000000000000000000000000000000000000000600052601160045260246000fd5b7f4e487b7100000000000000000000000000000000000000000000000000000000600052601260045260246000fd5b7f4e487b7100000000000000000000000000000000000000000000000000000000600052604160045260246000fd5b6000601f19601f8301169050919050565b7f4f776e61626c653a206e6577206f776e657220697320746865207a65726f206160008201527f6464726573730000000000000000000000000000000000000000000000000000602082015250565b7f6964656e746966696572206973206e6f742072696768742c206e65656420626560008201527f2034000000000000000000000000000000000000000000000000000000000000602082015250565b7f6964656e746966696572206973206e6f742072696768742c206e65656420626560008201527f2035000000000000000000000000000000000000000000000000000000000000602082015250565b7f73797374656d5f636678696e74657265737473206e6f7420636c65616e656400600082015250565b7f6964656e746966696572206973206e6f742072696768742c206e65656420626560008201527f2031000000000000000000000000000000000000000000000000000000000000602082015250565b7f6964656e746966696572206973206e6f742072696768742c206e65656420626560008201527f2033000000000000000000000000000000000000000000000000000000000000602082015250565b7f74726967657273206d7573742062652074727573746564000000000000000000600082015250565b7f6964656e746966696572206973206e6f742072696768742c206e65656420626560008201527f2032000000000000000000000000000000000000000000000000000000000000602082015250565b7f4f776e61626c653a2063616c6c6572206973206e6f7420746865206f776e6572600082015250565b7f73797374656d5f636678696e7465726573747320697320636c65616e65640000600082015250565b613e1b816139b2565b8114613e2657600080fd5b50565b613e32816139c4565b8114613e3d57600080fd5b50565b613e4981613a1c565b8114613e5457600080fd5b5056fea26469706673582212208e1f9977e9e4ea6be44699591a44ab5c5860c08e4c14d59802538203a1c6bb2664736f6c63430008020033",
  "immutableReferences": {},
  "source": "//SPDX-License-Identifier: BUSL-1.1\r\npragma solidity ^0.8.0;\r\nimport \"@openzeppelin/contracts/utils/math/SafeMath.sol\";\r\nimport \"@openzeppelin/contracts/access/Ownable.sol\";\r\nimport \"@openzeppelin/contracts/token/ERC20/IERC20.sol\";\r\nimport \"../ICrossSpaceCall.sol\";\r\nimport \"../IExchange.sol\";\r\n///\r\n///  @title CoreBridge_multipool is a bridge to connect Conflux POS pools and Exchange rooms ,deployed in core;\r\n///  @dev This contract set the user share ratio, system share ratio, \r\n///  @dev compound the interests\r\n///  @notice Users cann't direct use this contract to participate Conflux PoS stake.\r\n///\r\ncontract CoreBridge_multipool is Ownable {\r\n  using SafeMath for uint256;\r\n  CrossSpaceCall internal crossSpaceCall;\r\n\r\n  uint256 private constant RATIO_BASE = 10000;\r\n  // ratio shared by user: 1-10000\r\n  uint256 public poolUserShareRatio = 9000;\r\n  uint256 CFX_COUNT_OF_ONE_VOTE = 1000;\r\n  uint256 CFX_VALUE_OF_ONE_VOTE = 1000 ether;\r\n\r\n  address[] public poolAddress;               // can use many pools, so here is an array\r\n  uint256   public pos_id_in_use;             // pos pool in use\r\n  address   public xCFXAddress;               // xCFX addr in espace \r\n  address   public eSpaceExroomAddress;       //Exchange room Address in espace\r\n  address   public CoreExroomAddress;         //Exchange room Address in core\r\n  address   public ServicetreasuryAddress;    //Service treasury Address in core\r\n  uint256   public system_cfxinterests_temp; //pools cfx interests in temporary\r\n  uint256   public identifier;                //Execution number , should be private when use in main net\r\n  mapping(address=>bool) trusted_node_trigers;//     \r\n  // ======================== Struct definitions =========================\r\n  struct PoolSummary {\r\n    uint256 xCFXSUM;             // xCFX SUM (1 ether xCFX === 1 e18)\r\n    uint256 totalInterest;       // PoS pool interests for all xCFX\r\n    uint256 CFXbalances;         // CFX balances in bridge\r\n    uint256 historical_Interest ;// total historical interest of whole pools\r\n  }\r\n\r\n  constructor () {\r\n    initialize();\r\n  }\r\n  // ======================== Modifiers =========================\r\n\r\n  modifier Only_in_order() {\r\n    identifier += 1;\r\n    _;\r\n    if(identifier==5) identifier = 0;\r\n  }\r\n  modifier Only_trusted_trigers() {\r\n    require(trusted_node_trigers[msg.sender]==true,'trigers must be trusted');\r\n    _;\r\n  }\r\n  // ======================== Methods for core pos pools settings =========================\r\n\r\n  function initialize() public {\r\n    crossSpaceCall = CrossSpaceCall(0x0888000000000000000000000000000000000006);\r\n  }\r\n\r\n  function addPoolAddress(address _poolAddress) public onlyOwner {\r\n    poolAddress.push(_poolAddress);\r\n  }\r\n\r\n  function changePoolAddress(address _oldpoolAddress,address _newpoolAddress) public onlyOwner {\r\n    uint256 pool_sum = poolAddress.length;\r\n    for(uint256 i=0;i<pool_sum;i++)\r\n    {\r\n        if(poolAddress[i]==_oldpoolAddress)\r\n        {\r\n            poolAddress[i]=_newpoolAddress;\r\n        }\r\n    }\r\n  }\r\n  function delePoolAddress(address _oldpoolAddress) public onlyOwner {\r\n    uint256 pool_sum = poolAddress.length;\r\n    for(uint256 i=0;i<pool_sum;i++)\r\n    {\r\n        if(poolAddress[i]==_oldpoolAddress)\r\n        {\r\n            poolAddress[i]= poolAddress[pool_sum-1];\r\n            poolAddress.pop();\r\n        }\r\n    }\r\n  }\r\n\r\n  function seteSpaceExroomAddress(address _eSpaceExroomAddress) public onlyOwner {\r\n    eSpaceExroomAddress = _eSpaceExroomAddress;\r\n  }\r\n  function settrusted_trigers(address _eSpaceExroomAddress,bool state) public onlyOwner {\r\n    trusted_node_trigers[_eSpaceExroomAddress] = state;\r\n  }\r\n\r\n  function get_triger_state(address _eSpaceExroomAddress) public view onlyOwner returns(bool){\r\n    return trusted_node_trigers[_eSpaceExroomAddress];\r\n  }\r\n  function getPoolAddress() public view returns (address[] memory ) {\r\n    return poolAddress;\r\n  }\r\n  \r\n  function ePoolAddrB20() public view returns (bytes20) {\r\n    return bytes20(eSpaceExroomAddress);\r\n  }\r\n  //-----------------espace method-------------------------------------------------------------------------------------\r\n\r\n  function queryespacexCFXincrease() public returns (uint256) {\r\n    bytes memory rawCrossingVotes = crossSpaceCall.callEVM(ePoolAddrB20(), abi.encodeWithSignature(\"crossingVotes()\"));\r\n    return abi.decode(rawCrossingVotes, (uint256));\r\n  }\r\n\r\n  function queryUnstakeLen() public returns (uint256) {\r\n    bytes memory rawUnstakeLen = crossSpaceCall.callEVM(ePoolAddrB20(), abi.encodeWithSignature(\"unstakeLen()\"));\r\n    return abi.decode(rawUnstakeLen, (uint256));\r\n  }\r\n\r\n  //-----------------core pool method-------------------------------------------------------------------------------------\r\n  function queryInterest(uint256 _num) public view returns (uint256) {\r\n    IExchange posPool = IExchange(poolAddress[_num]);\r\n    uint256 interest = posPool.temp_Interest();\r\n    return interest;\r\n  }\r\n\r\n  //-----------------bridge method-------------------------------------------------------------------------------------\r\n  function syncALLwork() public onlyOwner Only_trusted_trigers {\r\n    claimInterests();\r\n\r\n    campounds();\r\n    SyncValue();\r\n\r\n    handleUnstake();\r\n    withdrawVotes();\r\n  }\r\n\r\n  function claimInterests() public Only_in_order Only_trusted_trigers {\r\n    require(identifier==1,\"identifier is not right, need be 1\");\r\n    require(system_cfxinterests_temp==0,'system_cfxinterests not cleaned');\r\n    uint256 pool_sum = poolAddress.length;\r\n    IExchange posPool;\r\n    uint256 interest;\r\n    for(uint256 i=0;i<pool_sum;i++)\r\n    {\r\n      posPool = IExchange(poolAddress[i]);\r\n      interest = posPool.temp_Interest();\r\n      if (interest > 0) {\r\n        interest = posPool.claimAllInterest();\r\n        system_cfxinterests_temp += interest.mul(poolUserShareRatio).div(RATIO_BASE);\r\n        crossSpaceCall.transferEVM{value: interest}(ePoolAddrB20());\r\n      }\r\n    }\r\n  }\r\n  function campounds() public Only_in_order Only_trusted_trigers {\r\n    require(identifier==2,\"identifier is not right, need be 2\");\r\n    require(system_cfxinterests_temp!=0,'system_cfxinterests is cleaned');\r\n    uint256 toxCFX = system_cfxinterests_temp;\r\n    system_cfxinterests_temp == 0;\r\n    crossSpaceCall.callEVM{value: toxCFX}(ePoolAddrB20(), abi.encodeWithSignature(\"CFX_exchange_XCFX()\"));\r\n    uint256 balanceinpool = crossSpaceCall.mappedBalance(eSpaceExroomAddress);\r\n    uint64 votePower = uint64(balanceinpool.div(CFX_VALUE_OF_ONE_VOTE));\r\n    if (votePower > 0){\r\n      IExchange(poolAddress[pos_id_in_use]).increaseStake(votePower);\r\n    }\r\n  }\r\n\r\n  function SyncValue() public Only_in_order Only_trusted_trigers {\r\n    require(identifier==3,\"identifier is not right, need be 3\");\r\n    uint256 sum = IERC20(xCFXAddress).totalSupply() ; \r\n    uint256 balanceinpool = crossSpaceCall.mappedBalance(eSpaceExroomAddress);\r\n    uint256 pool_sum = poolAddress.length;\r\n    uint256 SUMvotes;\r\n    for(uint256 i=0;i<pool_sum;i++)\r\n    {\r\n        SUMvotes += IExchange(poolAddress[i]).poolSummary().totalvotes;\r\n    }\r\n    uint256 xCFXvalues =balanceinpool.add(SUMvotes.mul(CFX_VALUE_OF_ONE_VOTE)).div(sum);\r\n    crossSpaceCall.callEVM(ePoolAddrB20(), abi.encodeWithSignature(\"setxCFXValue(uint256)\", xCFXvalues));\r\n  }\r\n\r\n  function handleUnstake() public Only_in_order Only_trusted_trigers {\r\n    require(identifier==4,\"identifier is not right, need be 4\");\r\n    uint256 unstakeLen = queryUnstakeLen();\r\n    if (unstakeLen == 0) return;\r\n    if (unstakeLen > 50) unstakeLen = 50; // max 50 unstakes per call\r\n    IExchange posPool = IExchange(poolAddress[pos_id_in_use]);\r\n    IExchange.PoolSummary memory poolSummary = posPool.poolSummary();\r\n    uint256 available = poolSummary.totalvotes;\r\n    bytes memory rawFirstUnstakeVotes ;\r\n    uint256 firstUnstakeVotes;\r\n    if (available == 0) return;\r\n    for(uint256 i = 0; i < unstakeLen; i++) {\r\n      rawFirstUnstakeVotes = crossSpaceCall.callEVM(ePoolAddrB20(), abi.encodeWithSignature(\"firstUnstakeVotes()\"));\r\n      firstUnstakeVotes = abi.decode(rawFirstUnstakeVotes, (uint256));\r\n      if (firstUnstakeVotes == 0) break;\r\n      if (firstUnstakeVotes > available) break;\r\n      posPool.decreaseStake(uint64(firstUnstakeVotes));\r\n      crossSpaceCall.callEVM(ePoolAddrB20(), abi.encodeWithSignature(\"handleUnstakeTask()\"));\r\n      available -= firstUnstakeVotes;\r\n    }\r\n  }\r\n\r\n  function withdrawVotes() public Only_in_order Only_trusted_trigers {\r\n    require(identifier==5,\"identifier is not right, need be 5\");\r\n    uint256 pool_sum = poolAddress.length;\r\n    IExchange posPool;\r\n    uint256 temp_unlocked;\r\n    //uint256 transferValue;\r\n    for(uint256 i=0;i<pool_sum;i++)\r\n    {\r\n      posPool = IExchange(poolAddress[i]);\r\n      IExchange.PoolSummary memory poolSummary = posPool.poolSummary();\r\n      temp_unlocked = poolSummary.unlocked;\r\n      if (temp_unlocked > 0) \r\n      {\r\n        posPool.withdrawStake();\r\n        // transfer to eSpacePool and call method\r\n        //transferValue = temp_unlocked * 1000 ether;\r\n        //crossSpaceCall.callEVM{value: transferValue}(ePoolAddrB20(), abi.encodeWithSignature(\"handleUnlockedIncrease(uint256)\", userSummary.unlocked));\r\n      }\r\n    }\r\n  }\r\n\r\n  function callEVM(address addr, bytes calldata data) public Only_trusted_trigers {\r\n    crossSpaceCall.callEVM(bytes20(addr), data);\r\n  }\r\n\r\n  fallback() external payable {}\r\n  receive() external payable {}\r\n\r\n  //--------------------------------------temp-----------------------------------------------\r\n   function identifier_test(uint256 _identifier) public onlyOwner {identifier=_identifier; }\r\n  \r\n}",
  "sourcePath": "C:/Users/artii/Conflux Studio/minpos/contracts/eSpace/CoreBridge_multipool.sol",
  "compiler": {
    "name": "solc",
    "version": "0.8.2+commit.661d1103.Emscripten.clang"
  },
  "schemaVersion": "3.3.4",
  "updatedAt": "2022-08-17T14:54:44.810Z",
  "devdoc": {
    "details": "This contract set the user share ratio, system share ratio, compound the interests",
    "kind": "dev",
    "methods": {
      "owner()": {
        "details": "Returns the address of the current owner."
      },
      "renounceOwnership()": {
        "details": "Leaves the contract without owner. It will not be possible to call `onlyOwner` functions anymore. Can only be called by the current owner. NOTE: Renouncing ownership will leave the contract without an owner, thereby removing any functionality that is only available to the owner."
      },
      "transferOwnership(address)": {
        "details": "Transfers ownership of the contract to a new account (`newOwner`). Can only be called by the current owner."
      }
    },
    "title": "CoreBridge_multipool is a bridge to connect Conflux POS pools and Exchange rooms ,deployed in core;",
    "version": 1
  },
  "userdoc": {
    "kind": "user",
    "methods": {},
    "notice": "Users cann't direct use this contract to participate Conflux PoS stake.",
    "version": 1
  }
}