{
  "contractName": "CoreBridge_multipool",
  "abi": [
    {
      "inputs": [],
      "stateMutability": "nonpayable",
      "type": "constructor"
    },
    {
      "anonymous": false,
      "inputs": [
        {
          "indexed": true,
          "internalType": "address",
          "name": "previousOwner",
          "type": "address"
        },
        {
          "indexed": true,
          "internalType": "address",
          "name": "newOwner",
          "type": "address"
        }
      ],
      "name": "OwnershipTransferred",
      "type": "event"
    },
    {
      "stateMutability": "payable",
      "type": "fallback"
    },
    {
      "inputs": [],
      "name": "CoreExroomAddress",
      "outputs": [
        {
          "internalType": "address",
          "name": "",
          "type": "address"
        }
      ],
      "stateMutability": "view",
      "type": "function"
    },
    {
      "inputs": [],
      "name": "ServicetreasuryAddress",
      "outputs": [
        {
          "internalType": "address",
          "name": "",
          "type": "address"
        }
      ],
      "stateMutability": "view",
      "type": "function"
    },
    {
      "inputs": [],
      "name": "eSpaceExroomAddress",
      "outputs": [
        {
          "internalType": "address",
          "name": "",
          "type": "address"
        }
      ],
      "stateMutability": "view",
      "type": "function"
    },
    {
      "inputs": [],
      "name": "owner",
      "outputs": [
        {
          "internalType": "address",
          "name": "",
          "type": "address"
        }
      ],
      "stateMutability": "view",
      "type": "function"
    },
    {
      "inputs": [
        {
          "internalType": "uint256",
          "name": "",
          "type": "uint256"
        }
      ],
      "name": "poolAddress",
      "outputs": [
        {
          "internalType": "address",
          "name": "",
          "type": "address"
        }
      ],
      "stateMutability": "view",
      "type": "function"
    },
    {
      "inputs": [],
      "name": "poolUserShareRatio",
      "outputs": [
        {
          "internalType": "uint256",
          "name": "",
          "type": "uint256"
        }
      ],
      "stateMutability": "view",
      "type": "function"
    },
    {
      "inputs": [],
      "name": "pos_id_in_use",
      "outputs": [
        {
          "internalType": "uint256",
          "name": "",
          "type": "uint256"
        }
      ],
      "stateMutability": "view",
      "type": "function"
    },
    {
      "inputs": [],
      "name": "renounceOwnership",
      "outputs": [],
      "stateMutability": "nonpayable",
      "type": "function"
    },
    {
      "inputs": [
        {
          "internalType": "address",
          "name": "newOwner",
          "type": "address"
        }
      ],
      "name": "transferOwnership",
      "outputs": [],
      "stateMutability": "nonpayable",
      "type": "function"
    },
    {
      "inputs": [],
      "name": "xCFXAddress",
      "outputs": [
        {
          "internalType": "address",
          "name": "",
          "type": "address"
        }
      ],
      "stateMutability": "view",
      "type": "function"
    },
    {
      "stateMutability": "payable",
      "type": "receive"
    },
    {
      "inputs": [],
      "name": "initialize",
      "outputs": [],
      "stateMutability": "nonpayable",
      "type": "function"
    },
    {
      "inputs": [
        {
          "internalType": "address",
          "name": "_poolAddress",
          "type": "address"
        }
      ],
      "name": "addPoolAddress",
      "outputs": [],
      "stateMutability": "nonpayable",
      "type": "function"
    },
    {
      "inputs": [
        {
          "internalType": "address",
          "name": "_oldpoolAddress",
          "type": "address"
        },
        {
          "internalType": "address",
          "name": "_newpoolAddress",
          "type": "address"
        }
      ],
      "name": "changePoolAddress",
      "outputs": [],
      "stateMutability": "nonpayable",
      "type": "function"
    },
    {
      "inputs": [
        {
          "internalType": "address",
          "name": "_oldpoolAddress",
          "type": "address"
        }
      ],
      "name": "delePoolAddress",
      "outputs": [],
      "stateMutability": "nonpayable",
      "type": "function"
    },
    {
      "inputs": [
        {
          "internalType": "address",
          "name": "_eSpaceExroomAddress",
          "type": "address"
        }
      ],
      "name": "seteSpaceExroomAddress",
      "outputs": [],
      "stateMutability": "nonpayable",
      "type": "function"
    },
    {
      "inputs": [
        {
          "internalType": "address",
          "name": "_eSpaceExroomAddress",
          "type": "address"
        },
        {
          "internalType": "bool",
          "name": "state",
          "type": "bool"
        }
      ],
      "name": "settrusted_trigers",
      "outputs": [],
      "stateMutability": "nonpayable",
      "type": "function"
    },
    {
      "inputs": [
        {
          "internalType": "address",
          "name": "_eSpaceExroomAddress",
          "type": "address"
        }
      ],
      "name": "get_triger_state",
      "outputs": [
        {
          "internalType": "bool",
          "name": "",
          "type": "bool"
        }
      ],
      "stateMutability": "view",
      "type": "function"
    },
    {
      "inputs": [],
      "name": "getPoolAddress",
      "outputs": [
        {
          "internalType": "address[]",
          "name": "",
          "type": "address[]"
        }
      ],
      "stateMutability": "view",
      "type": "function"
    },
    {
      "inputs": [],
      "name": "ePoolAddrB20",
      "outputs": [
        {
          "internalType": "bytes20",
          "name": "",
          "type": "bytes20"
        }
      ],
      "stateMutability": "view",
      "type": "function"
    },
    {
      "inputs": [],
      "name": "queryespacexCFXincrease",
      "outputs": [
        {
          "internalType": "uint256",
          "name": "",
          "type": "uint256"
        }
      ],
      "stateMutability": "nonpayable",
      "type": "function"
    },
    {
      "inputs": [],
      "name": "queryUnstakeLen",
      "outputs": [
        {
          "internalType": "uint256",
          "name": "",
          "type": "uint256"
        }
      ],
      "stateMutability": "nonpayable",
      "type": "function"
    },
    {
      "inputs": [
        {
          "internalType": "uint256",
          "name": "_num",
          "type": "uint256"
        }
      ],
      "name": "queryInterest",
      "outputs": [
        {
          "internalType": "uint256",
          "name": "",
          "type": "uint256"
        }
      ],
      "stateMutability": "view",
      "type": "function"
    },
    {
      "inputs": [],
      "name": "syncALLwork",
      "outputs": [],
      "stateMutability": "nonpayable",
      "type": "function"
    },
    {
      "inputs": [],
      "name": "claimInterests",
      "outputs": [],
      "stateMutability": "nonpayable",
      "type": "function"
    },
    {
      "inputs": [],
      "name": "campounds",
      "outputs": [],
      "stateMutability": "nonpayable",
      "type": "function"
    },
    {
      "inputs": [],
      "name": "SyncValue",
      "outputs": [],
      "stateMutability": "nonpayable",
      "type": "function"
    },
    {
      "inputs": [],
      "name": "handleUnstake",
      "outputs": [],
      "stateMutability": "nonpayable",
      "type": "function"
    },
    {
      "inputs": [],
      "name": "withdrawVotes",
      "outputs": [],
      "stateMutability": "nonpayable",
      "type": "function"
    },
    {
      "inputs": [
        {
          "internalType": "address",
          "name": "addr",
          "type": "address"
        },
        {
          "internalType": "bytes",
          "name": "data",
          "type": "bytes"
        }
      ],
      "name": "callEVM",
      "outputs": [],
      "stateMutability": "nonpayable",
      "type": "function"
    }
  ],
  "bytecode": "0x60806040526123286002556103e8600355683635c9adc5dea000006004553480156200002a57600080fd5b506200004b6200003f6200006160201b60201c565b6200006960201b60201c565b6200005b6200012d60201b60201c565b62000184565b600033905090565b60008060009054906101000a900473ffffffffffffffffffffffffffffffffffffffff169050816000806101000a81548173ffffffffffffffffffffffffffffffffffffffff021916908373ffffffffffffffffffffffffffffffffffffffff1602179055508173ffffffffffffffffffffffffffffffffffffffff168173ffffffffffffffffffffffffffffffffffffffff167f8be0079c531659141344cd1fd0a4f28419497f9722a3daafe3b4186f6b6457e060405160405180910390a35050565b730888000000000000000000000000000000000006600160006101000a81548173ffffffffffffffffffffffffffffffffffffffff021916908373ffffffffffffffffffffffffffffffffffffffff160217905550565b613fde80620001946000396000f3fe6080604052600436106101c65760003560e01c806375eea4e2116100f75780639fa28e4811610095578063da02d10011610064578063da02d1001461058e578063da9da526146105a5578063f2fde38b146105e2578063f586c6d91461060b576101cd565b80639fa28e48146104d4578063a0e86fd014610511578063b3569a181461053a578063bb46911014610563576101cd565b80638da5cb5b116100d15780638da5cb5b1461045057806393e48e381461047b578063983bf1bd146104a6578063986e08b6146104bd576101cd565b806375eea4e2146103f7578063783b7c971461040e5780638129fc1c14610439576101cd565b80634e141b4e1161016457806365473c521161013e57806365473c521461037557806367a1aa4f1461038c5780636a5bd69d146103b7578063715018a6146103e0576101cd565b80634e141b4e146102e2578063505f53d41461030d578063588beea514610338576101cd565b80633b282f3a116101a05780633b282f3a1461024c5780633e7321b51461027757806340d5637f146102a257806343499844146102b9576101cd565b8063120063b0146101cf5780632306092e146101f8578063231da72f14610221576101cd565b366101cd57005b005b3480156101db57600080fd5b506101f660048036038101906101f19190613206565b610636565b005b34801561020457600080fd5b5061021f600480360381019061021a9190613206565b6106f6565b005b34801561022d57600080fd5b50610236610998565b6040516102439190613678565b60405180910390f35b34801561025857600080fd5b506102616109be565b60405161026e91906136d0565b60405180910390f35b34801561028357600080fd5b5061028c6109eb565b6040516102999190613678565b60405180910390f35b3480156102ae57600080fd5b506102b7610a11565b005b3480156102c557600080fd5b506102e060048036038101906102db9190613206565b610e48565b005b3480156102ee57600080fd5b506102f7610f2a565b6040516103049190613678565b60405180910390f35b34801561031957600080fd5b50610322610f50565b60405161032f919061388d565b60405180910390f35b34801561034457600080fd5b5061035f600480360381019061035a9190613206565b6110ac565b60405161036c91906136b5565b60405180910390f35b34801561038157600080fd5b5061038a61117e565b005b34801561039857600080fd5b506103a16116a7565b6040516103ae919061388d565b60405180910390f35b3480156103c357600080fd5b506103de60048036038101906103d991906132a7565b6116ad565b005b3480156103ec57600080fd5b506103f56117ff565b005b34801561040357600080fd5b5061040c611887565b005b34801561041a57600080fd5b50610423611ced565b604051610430919061388d565b60405180910390f35b34801561044557600080fd5b5061044e611cf3565b005b34801561045c57600080fd5b50610465611d4a565b6040516104729190613678565b60405180910390f35b34801561048757600080fd5b50610490611d73565b60405161049d919061388d565b60405180910390f35b3480156104b257600080fd5b506104bb611ecf565b005b3480156104c957600080fd5b506104d261223a565b005b3480156104e057600080fd5b506104fb60048036038101906104f69190613392565b612373565b604051610508919061388d565b60405180910390f35b34801561051d57600080fd5b506105386004803603810190610533919061322f565b612469565b005b34801561054657600080fd5b50610561600480360381019061055c919061326b565b61262f565b005b34801561056f57600080fd5b50610578612706565b6040516105859190613678565b60405180910390f35b34801561059a57600080fd5b506105a361272c565b005b3480156105b157600080fd5b506105cc60048036038101906105c79190613392565b612ccc565b6040516105d99190613678565b60405180910390f35b3480156105ee57600080fd5b5061060960048036038101906106049190613206565b612d0b565b005b34801561061757600080fd5b50610620612e03565b60405161062d9190613693565b60405180910390f35b61063e612e91565b73ffffffffffffffffffffffffffffffffffffffff1661065c611d4a565b73ffffffffffffffffffffffffffffffffffffffff16146106b2576040517f08c379a00000000000000000000000000000000000000000000000000000000081526004016106a99061384d565b60405180910390fd5b80600860006101000a81548173ffffffffffffffffffffffffffffffffffffffff021916908373ffffffffffffffffffffffffffffffffffffffff16021790555050565b6106fe612e91565b73ffffffffffffffffffffffffffffffffffffffff1661071c611d4a565b73ffffffffffffffffffffffffffffffffffffffff1614610772576040517f08c379a00000000000000000000000000000000000000000000000000000000081526004016107699061384d565b60405180910390fd5b6000600580549050905060005b81811015610993578273ffffffffffffffffffffffffffffffffffffffff16600582815481106107d8577f4e487b7100000000000000000000000000000000000000000000000000000000600052603260045260246000fd5b9060005260206000200160009054906101000a900473ffffffffffffffffffffffffffffffffffffffff1673ffffffffffffffffffffffffffffffffffffffff16141561098057600560018361082e9190613aa3565b81548110610865577f4e487b7100000000000000000000000000000000000000000000000000000000600052603260045260246000fd5b9060005260206000200160009054906101000a900473ffffffffffffffffffffffffffffffffffffffff16600582815481106108ca577f4e487b7100000000000000000000000000000000000000000000000000000000600052603260045260246000fd5b9060005260206000200160006101000a81548173ffffffffffffffffffffffffffffffffffffffff021916908373ffffffffffffffffffffffffffffffffffffffff160217905550600580548061094a577f4e487b7100000000000000000000000000000000000000000000000000000000600052603160045260246000fd5b6001900381819060005260206000200160006101000a81549073ffffffffffffffffffffffffffffffffffffffff021916905590555b808061098b90613be7565b91505061077f565b505050565b600760009054906101000a900473ffffffffffffffffffffffffffffffffffffffff1681565b6000600860009054906101000a900473ffffffffffffffffffffffffffffffffffffffff1660601b905090565b600860009054906101000a900473ffffffffffffffffffffffffffffffffffffffff1681565b6001600c6000828254610a24919061397f565b9250508190555060011515600d60003373ffffffffffffffffffffffffffffffffffffffff1673ffffffffffffffffffffffffffffffffffffffff16815260200190815260200160002060009054906101000a900460ff16151514610abe576040517f08c379a0000000000000000000000000000000000000000000000000000000008152600401610ab59061380d565b60405180910390fd5b6005600c5414610b03576040517f08c379a0000000000000000000000000000000000000000000000000000000008152600401610afa9061378d565b60405180910390fd5b60006005805490509050600080600080600090505b84811015610e2d5760058181548110610b5a577f4e487b7100000000000000000000000000000000000000000000000000000000600052603260045260246000fd5b9060005260206000200160009054906101000a900473ffffffffffffffffffffffffffffffffffffffff16935060008473ffffffffffffffffffffffffffffffffffffffff1663e3d5b233306040518263ffffffff1660e01b8152600401610bc29190613678565b60c06040518083038186803b158015610bda57600080fd5b505afa158015610bee573d6000803e3d6000fd5b505050506040513d601f19601f82011682018060405250810190610c129190613369565b90506000816060015167ffffffffffffffff161115610e19578473ffffffffffffffffffffffffffffffffffffffff16632ce7777f82606001516040518263ffffffff1660e01b8152600401610c6891906138a8565b600060405180830381600087803b158015610c8257600080fd5b505af1158015610c96573d6000803e3d6000fd5b50505050683635c9adc5dea00000816060015167ffffffffffffffff16610cbd9190613a60565b68ffffffffffffffffff169250600160009054906101000a900473ffffffffffffffffffffffffffffffffffffffff1673ffffffffffffffffffffffffffffffffffffffff1663bea05ee384610d116109be565b8460600151604051602401610d2691906138a8565b6040516020818303038152906040527f17f78871000000000000000000000000000000000000000000000000000000007bffffffffffffffffffffffffffffffffffffffffffffffffffffffff19166020820180517bffffffffffffffffffffffffffffffffffffffffffffffffffffffff83818316178352505050506040518463ffffffff1660e01b8152600401610dc092919061371d565b6000604051808303818588803b158015610dd957600080fd5b505af1158015610ded573d6000803e3d6000fd5b50505050506040513d6000823e3d601f19601f82011682018060405250810190610e1791906132ff565b505b508080610e2590613be7565b915050610b18565b50505050506005600c541415610e46576000600c819055505b565b610e50612e91565b73ffffffffffffffffffffffffffffffffffffffff16610e6e611d4a565b73ffffffffffffffffffffffffffffffffffffffff1614610ec4576040517f08c379a0000000000000000000000000000000000000000000000000000000008152600401610ebb9061384d565b60405180910390fd5b6005819080600181540180825580915050600190039060005260206000200160009091909190916101000a81548173ffffffffffffffffffffffffffffffffffffffff021916908373ffffffffffffffffffffffffffffffffffffffff16021790555050565b600960009054906101000a900473ffffffffffffffffffffffffffffffffffffffff1681565b600080600160009054906101000a900473ffffffffffffffffffffffffffffffffffffffff1673ffffffffffffffffffffffffffffffffffffffff1663bea05ee3610f996109be565b6040516024016040516020818303038152906040527fc7ff5d6e000000000000000000000000000000000000000000000000000000007bffffffffffffffffffffffffffffffffffffffffffffffffffffffff19166020820180517bffffffffffffffffffffffffffffffffffffffffffffffffffffffff83818316178352505050506040518363ffffffff1660e01b815260040161103992919061371d565b600060405180830381600087803b15801561105357600080fd5b505af1158015611067573d6000803e3d6000fd5b505050506040513d6000823e3d601f19601f8201168201806040525081019061109091906132ff565b9050808060200190518101906110a691906133bb565b91505090565b60006110b6612e91565b73ffffffffffffffffffffffffffffffffffffffff166110d4611d4a565b73ffffffffffffffffffffffffffffffffffffffff161461112a576040517f08c379a00000000000000000000000000000000000000000000000000000000081526004016111219061384d565b60405180910390fd5b600d60008373ffffffffffffffffffffffffffffffffffffffff1673ffffffffffffffffffffffffffffffffffffffff16815260200190815260200160002060009054906101000a900460ff169050919050565b6001600c6000828254611191919061397f565b9250508190555060011515600d60003373ffffffffffffffffffffffffffffffffffffffff1673ffffffffffffffffffffffffffffffffffffffff16815260200190815260200160002060009054906101000a900460ff1615151461122b576040517f08c379a00000000000000000000000000000000000000000000000000000000081526004016112229061380d565b60405180910390fd5b6003600c5414611270576040517f08c379a0000000000000000000000000000000000000000000000000000000008152600401611267906137ed565b60405180910390fd5b6000600760009054906101000a900473ffffffffffffffffffffffffffffffffffffffff1673ffffffffffffffffffffffffffffffffffffffff166318160ddd6040518163ffffffff1660e01b815260040160206040518083038186803b1580156112da57600080fd5b505afa1580156112ee573d6000803e3d6000fd5b505050506040513d601f19601f8201168201806040525081019061131291906133bb565b90506000600160009054906101000a900473ffffffffffffffffffffffffffffffffffffffff1673ffffffffffffffffffffffffffffffffffffffff1663142b37c7600860009054906101000a900473ffffffffffffffffffffffffffffffffffffffff166040518263ffffffff1660e01b81526004016113939190613678565b60206040518083038186803b1580156113ab57600080fd5b505afa1580156113bf573d6000803e3d6000fd5b505050506040513d601f19601f820116820180604052508101906113e391906133bb565b905060006005805490509050600080600090505b828110156115055760058181548110611439577f4e487b7100000000000000000000000000000000000000000000000000000000600052603260045260246000fd5b9060005260206000200160009054906101000a900473ffffffffffffffffffffffffffffffffffffffff1673ffffffffffffffffffffffffffffffffffffffff16637571fcf66040518163ffffffff1660e01b815260040160e06040518083038186803b1580156114a957600080fd5b505afa1580156114bd573d6000803e3d6000fd5b505050506040513d601f19601f820116820180604052508101906114e19190613340565b60000151826114f0919061397f565b915080806114fd90613be7565b9150506113f7565b5060006115418561153361152460045486612e9990919063ffffffff16565b87612eaf90919063ffffffff16565b612ec590919063ffffffff16565b9050600160009054906101000a900473ffffffffffffffffffffffffffffffffffffffff1673ffffffffffffffffffffffffffffffffffffffff1663bea05ee36115896109be565b8360405160240161159a919061388d565b6040516020818303038152906040527f21e2f533000000000000000000000000000000000000000000000000000000007bffffffffffffffffffffffffffffffffffffffffffffffffffffffff19166020820180517bffffffffffffffffffffffffffffffffffffffffffffffffffffffff83818316178352505050506040518363ffffffff1660e01b815260040161163492919061371d565b600060405180830381600087803b15801561164e57600080fd5b505af1158015611662573d6000803e3d6000fd5b505050506040513d6000823e3d601f19601f8201168201806040525081019061168b91906132ff565b5050505050506005600c5414156116a5576000600c819055505b565b60025481565b60011515600d60003373ffffffffffffffffffffffffffffffffffffffff1673ffffffffffffffffffffffffffffffffffffffff16815260200190815260200160002060009054906101000a900460ff16151514611740576040517f08c379a00000000000000000000000000000000000000000000000000000000081526004016117379061380d565b60405180910390fd5b600160009054906101000a900473ffffffffffffffffffffffffffffffffffffffff1673ffffffffffffffffffffffffffffffffffffffff1663bea05ee38460601b84846040518463ffffffff1660e01b81526004016117a2939291906136eb565b600060405180830381600087803b1580156117bc57600080fd5b505af11580156117d0573d6000803e3d6000fd5b505050506040513d6000823e3d601f19601f820116820180604052508101906117f991906132ff565b50505050565b611807612e91565b73ffffffffffffffffffffffffffffffffffffffff16611825611d4a565b73ffffffffffffffffffffffffffffffffffffffff161461187b576040517f08c379a00000000000000000000000000000000000000000000000000000000081526004016118729061384d565b60405180910390fd5b6118856000612edb565b565b6001600c600082825461189a919061397f565b9250508190555060011515600d60003373ffffffffffffffffffffffffffffffffffffffff1673ffffffffffffffffffffffffffffffffffffffff16815260200190815260200160002060009054906101000a900460ff16151514611934576040517f08c379a000000000000000000000000000000000000000000000000000000000815260040161192b9061380d565b60405180910390fd5b6002600c5414611979576040517f08c379a00000000000000000000000000000000000000000000000000000000081526004016119709061382d565b60405180910390fd5b6000600b5414156119bf576040517f08c379a00000000000000000000000000000000000000000000000000000000081526004016119b69061386d565b60405180910390fd5b6000600b549050600160009054906101000a900473ffffffffffffffffffffffffffffffffffffffff1673ffffffffffffffffffffffffffffffffffffffff1663bea05ee382611a0d6109be565b6040516024016040516020818303038152906040527f68eca7f9000000000000000000000000000000000000000000000000000000007bffffffffffffffffffffffffffffffffffffffffffffffffffffffff19166020820180517bffffffffffffffffffffffffffffffffffffffffffffffffffffffff83818316178352505050506040518463ffffffff1660e01b8152600401611aad92919061371d565b6000604051808303818588803b158015611ac657600080fd5b505af1158015611ada573d6000803e3d6000fd5b50505050506040513d6000823e3d601f19601f82011682018060405250810190611b0491906132ff565b506000600160009054906101000a900473ffffffffffffffffffffffffffffffffffffffff1673ffffffffffffffffffffffffffffffffffffffff1663142b37c7600860009054906101000a900473ffffffffffffffffffffffffffffffffffffffff166040518263ffffffff1660e01b8152600401611b849190613678565b60206040518083038186803b158015611b9c57600080fd5b505afa158015611bb0573d6000803e3d6000fd5b505050506040513d601f19601f82011682018060405250810190611bd491906133bb565b90506000611bed60045483612ec590919063ffffffff16565b905060008167ffffffffffffffff161115611cd457600560065481548110611c3e577f4e487b7100000000000000000000000000000000000000000000000000000000600052603260045260246000fd5b9060005260206000200160009054906101000a900473ffffffffffffffffffffffffffffffffffffffff1673ffffffffffffffffffffffffffffffffffffffff166309fecf7f826040518263ffffffff1660e01b8152600401611ca191906138a8565b600060405180830381600087803b158015611cbb57600080fd5b505af1158015611ccf573d6000803e3d6000fd5b505050505b5050506005600c541415611ceb576000600c819055505b565b60065481565b730888000000000000000000000000000000000006600160006101000a81548173ffffffffffffffffffffffffffffffffffffffff021916908373ffffffffffffffffffffffffffffffffffffffff160217905550565b60008060009054906101000a900473ffffffffffffffffffffffffffffffffffffffff16905090565b600080600160009054906101000a900473ffffffffffffffffffffffffffffffffffffffff1673ffffffffffffffffffffffffffffffffffffffff1663bea05ee3611dbc6109be565b6040516024016040516020818303038152906040527f15cc421d000000000000000000000000000000000000000000000000000000007bffffffffffffffffffffffffffffffffffffffffffffffffffffffff19166020820180517bffffffffffffffffffffffffffffffffffffffffffffffffffffffff83818316178352505050506040518363ffffffff1660e01b8152600401611e5c92919061371d565b600060405180830381600087803b158015611e7657600080fd5b505af1158015611e8a573d6000803e3d6000fd5b505050506040513d6000823e3d601f19601f82011682018060405250810190611eb391906132ff565b905080806020019051810190611ec991906133bb565b91505090565b6001600c6000828254611ee2919061397f565b9250508190555060011515600d60003373ffffffffffffffffffffffffffffffffffffffff1673ffffffffffffffffffffffffffffffffffffffff16815260200190815260200160002060009054906101000a900460ff16151514611f7c576040517f08c379a0000000000000000000000000000000000000000000000000000000008152600401611f739061380d565b60405180910390fd5b6001600c5414611fc1576040517f08c379a0000000000000000000000000000000000000000000000000000000008152600401611fb8906137cd565b60405180910390fd5b6000600b5414612006576040517f08c379a0000000000000000000000000000000000000000000000000000000008152600401611ffd906137ad565b60405180910390fd5b6000600580549050905060008060005b838110156122205760058181548110612058577f4e487b7100000000000000000000000000000000000000000000000000000000600052603260045260246000fd5b9060005260206000200160009054906101000a900473ffffffffffffffffffffffffffffffffffffffff169250600082111561220d578273ffffffffffffffffffffffffffffffffffffffff16638270512f6040518163ffffffff1660e01b8152600401602060405180830381600087803b1580156120d657600080fd5b505af11580156120ea573d6000803e3d6000fd5b505050506040513d601f19601f8201168201806040525081019061210e91906133bb565b915061213961271061212b60025485612e9990919063ffffffff16565b612ec590919063ffffffff16565b600b600082825461214a919061397f565b92505081905550600160009054906101000a900473ffffffffffffffffffffffffffffffffffffffff1673ffffffffffffffffffffffffffffffffffffffff1663da8d5daf836121986109be565b6040518363ffffffff1660e01b81526004016121b491906136d0565b6000604051808303818588803b1580156121cd57600080fd5b505af11580156121e1573d6000803e3d6000fd5b50505050506040513d6000823e3d601f19601f8201168201806040525081019061220b91906132ff565b505b808061221890613be7565b915050612016565b505050506005600c541415612238576000600c819055505b565b612242612e91565b73ffffffffffffffffffffffffffffffffffffffff16612260611d4a565b73ffffffffffffffffffffffffffffffffffffffff16146122b6576040517f08c379a00000000000000000000000000000000000000000000000000000000081526004016122ad9061384d565b60405180910390fd5b60011515600d60003373ffffffffffffffffffffffffffffffffffffffff1673ffffffffffffffffffffffffffffffffffffffff16815260200190815260200160002060009054906101000a900460ff16151514612349576040517f08c379a00000000000000000000000000000000000000000000000000000000081526004016123409061380d565b60405180910390fd5b612351611ecf565b612359611887565b61236161117e565b61236961272c565b612371610a11565b565b600080600583815481106123b0577f4e487b7100000000000000000000000000000000000000000000000000000000600052603260045260246000fd5b9060005260206000200160009054906101000a900473ffffffffffffffffffffffffffffffffffffffff16905060008173ffffffffffffffffffffffffffffffffffffffff1663e73e183b6040518163ffffffff1660e01b815260040160206040518083038186803b15801561242557600080fd5b505afa158015612439573d6000803e3d6000fd5b505050506040513d601f19601f8201168201806040525081019061245d91906133bb565b90508092505050919050565b612471612e91565b73ffffffffffffffffffffffffffffffffffffffff1661248f611d4a565b73ffffffffffffffffffffffffffffffffffffffff16146124e5576040517f08c379a00000000000000000000000000000000000000000000000000000000081526004016124dc9061384d565b60405180910390fd5b6000600580549050905060005b81811015612629578373ffffffffffffffffffffffffffffffffffffffff166005828154811061254b577f4e487b7100000000000000000000000000000000000000000000000000000000600052603260045260246000fd5b9060005260206000200160009054906101000a900473ffffffffffffffffffffffffffffffffffffffff1673ffffffffffffffffffffffffffffffffffffffff1614156126165782600582815481106125cd577f4e487b7100000000000000000000000000000000000000000000000000000000600052603260045260246000fd5b9060005260206000200160006101000a81548173ffffffffffffffffffffffffffffffffffffffff021916908373ffffffffffffffffffffffffffffffffffffffff1602179055505b808061262190613be7565b9150506124f2565b50505050565b612637612e91565b73ffffffffffffffffffffffffffffffffffffffff16612655611d4a565b73ffffffffffffffffffffffffffffffffffffffff16146126ab576040517f08c379a00000000000000000000000000000000000000000000000000000000081526004016126a29061384d565b60405180910390fd5b80600d60008473ffffffffffffffffffffffffffffffffffffffff1673ffffffffffffffffffffffffffffffffffffffff16815260200190815260200160002060006101000a81548160ff0219169083151502179055505050565b600a60009054906101000a900473ffffffffffffffffffffffffffffffffffffffff1681565b6001600c600082825461273f919061397f565b9250508190555060011515600d60003373ffffffffffffffffffffffffffffffffffffffff1673ffffffffffffffffffffffffffffffffffffffff16815260200190815260200160002060009054906101000a900460ff161515146127d9576040517f08c379a00000000000000000000000000000000000000000000000000000000081526004016127d09061380d565b60405180910390fd5b6004600c541461281e576040517f08c379a00000000000000000000000000000000000000000000000000000000081526004016128159061376d565b60405180910390fd5b6000612828610f50565b905060008114156128395750612cb6565b603281111561284757603290505b6000600560065481548110612885577f4e487b7100000000000000000000000000000000000000000000000000000000600052603260045260246000fd5b9060005260206000200160009054906101000a900473ffffffffffffffffffffffffffffffffffffffff16905060008173ffffffffffffffffffffffffffffffffffffffff1663e3d5b233306040518263ffffffff1660e01b81526004016128ed9190613678565b60c06040518083038186803b15801561290557600080fd5b505afa158015612919573d6000803e3d6000fd5b505050506040513d601f19601f8201168201806040525081019061293d9190613369565b90506000816040015167ffffffffffffffff169050606060008083141561296957505050505050612cb6565b60005b86811015612cae57600160009054906101000a900473ffffffffffffffffffffffffffffffffffffffff1673ffffffffffffffffffffffffffffffffffffffff1663bea05ee36129ba6109be565b6040516024016040516020818303038152906040527f09fcd230000000000000000000000000000000000000000000000000000000007bffffffffffffffffffffffffffffffffffffffffffffffffffffffff19166020820180517bffffffffffffffffffffffffffffffffffffffffffffffffffffffff83818316178352505050506040518363ffffffff1660e01b8152600401612a5a92919061371d565b600060405180830381600087803b158015612a7457600080fd5b505af1158015612a88573d6000803e3d6000fd5b505050506040513d6000823e3d601f19601f82011682018060405250810190612ab191906132ff565b925082806020019051810190612ac791906133bb565b91506000821415612ad757612cae565b83821115612ae457612cae565b8573ffffffffffffffffffffffffffffffffffffffff1663beb99c1e836040518263ffffffff1660e01b8152600401612b1d91906138a8565b600060405180830381600087803b158015612b3757600080fd5b505af1158015612b4b573d6000803e3d6000fd5b50505050600160009054906101000a900473ffffffffffffffffffffffffffffffffffffffff1673ffffffffffffffffffffffffffffffffffffffff1663bea05ee3612b956109be565b6040516024016040516020818303038152906040527f84981986000000000000000000000000000000000000000000000000000000007bffffffffffffffffffffffffffffffffffffffffffffffffffffffff19166020820180517bffffffffffffffffffffffffffffffffffffffffffffffffffffffff83818316178352505050506040518363ffffffff1660e01b8152600401612c3592919061371d565b600060405180830381600087803b158015612c4f57600080fd5b505af1158015612c63573d6000803e3d6000fd5b505050506040513d6000823e3d601f19601f82011682018060405250810190612c8c91906132ff565b508184612c999190613aa3565b93508080612ca690613be7565b91505061296c565b505050505050505b6005600c541415612cca576000600c819055505b565b60058181548110612cdc57600080fd5b906000526020600020016000915054906101000a900473ffffffffffffffffffffffffffffffffffffffff1681565b612d13612e91565b73ffffffffffffffffffffffffffffffffffffffff16612d31611d4a565b73ffffffffffffffffffffffffffffffffffffffff1614612d87576040517f08c379a0000000000000000000000000000000000000000000000000000000008152600401612d7e9061384d565b60405180910390fd5b600073ffffffffffffffffffffffffffffffffffffffff168173ffffffffffffffffffffffffffffffffffffffff161415612df7576040517f08c379a0000000000000000000000000000000000000000000000000000000008152600401612dee9061374d565b60405180910390fd5b612e0081612edb565b50565b60606005805480602002602001604051908101604052809291908181526020018280548015612e8757602002820191906000526020600020905b8160009054906101000a900473ffffffffffffffffffffffffffffffffffffffff1673ffffffffffffffffffffffffffffffffffffffff1681526020019060010190808311612e3d575b5050505050905090565b600033905090565b60008183612ea79190613a06565b905092915050565b60008183612ebd919061397f565b905092915050565b60008183612ed391906139d5565b905092915050565b60008060009054906101000a900473ffffffffffffffffffffffffffffffffffffffff169050816000806101000a81548173ffffffffffffffffffffffffffffffffffffffff021916908373ffffffffffffffffffffffffffffffffffffffff1602179055508173ffffffffffffffffffffffffffffffffffffffff168173ffffffffffffffffffffffffffffffffffffffff167f8be0079c531659141344cd1fd0a4f28419497f9722a3daafe3b4186f6b6457e060405160405180910390a35050565b6000612fb2612fad846138e8565b6138c3565b905082815260208101848484011115612fca57600080fd5b612fd5848285613b83565b509392505050565b600081359050612fec81613f4c565b92915050565b60008135905061300181613f63565b92915050565b60008083601f84011261301957600080fd5b8235905067ffffffffffffffff81111561303257600080fd5b60208301915083600182028301111561304a57600080fd5b9250929050565b600082601f83011261306257600080fd5b8151613072848260208601612f9f565b91505092915050565b600060e0828403121561308d57600080fd5b61309760e06138c3565b905060006130a7848285016131dc565b60008301525060206130bb848285016131dc565b60208301525060406130cf848285016131dc565b60408301525060606130e3848285016131dc565b60608301525060806130f7848285016131dc565b60808301525060a061310b848285016131dc565b60a08301525060c061311f848285016131dc565b60c08301525092915050565b600060c0828403121561313d57600080fd5b61314760c06138c3565b90506000613157848285016131f1565b600083015250602061316b848285016131f1565b602083015250604061317f848285016131f1565b6040830152506060613193848285016131f1565b60608301525060806131a7848285016131dc565b60808301525060a06131bb848285016131dc565b60a08301525092915050565b6000813590506131d681613f7a565b92915050565b6000815190506131eb81613f7a565b92915050565b60008151905061320081613f91565b92915050565b60006020828403121561321857600080fd5b600061322684828501612fdd565b91505092915050565b6000806040838503121561324257600080fd5b600061325085828601612fdd565b925050602061326185828601612fdd565b9150509250929050565b6000806040838503121561327e57600080fd5b600061328c85828601612fdd565b925050602061329d85828601612ff2565b9150509250929050565b6000806000604084860312156132bc57600080fd5b60006132ca86828701612fdd565b935050602084013567ffffffffffffffff8111156132e757600080fd5b6132f386828701613007565b92509250509250925092565b60006020828403121561331157600080fd5b600082015167ffffffffffffffff81111561332b57600080fd5b61333784828501613051565b91505092915050565b600060e0828403121561335257600080fd5b60006133608482850161307b565b91505092915050565b600060c0828403121561337b57600080fd5b60006133898482850161312b565b91505092915050565b6000602082840312156133a457600080fd5b60006133b2848285016131c7565b91505092915050565b6000602082840312156133cd57600080fd5b60006133db848285016131dc565b91505092915050565b60006133f083836133fc565b60208301905092915050565b61340581613ad7565b82525050565b61341481613ad7565b82525050565b600061342582613929565b61342f818561394c565b935061343a83613919565b8060005b8381101561346b57815161345288826133e4565b975061345d8361393f565b92505060018101905061343e565b5085935050505092915050565b61348181613ae9565b82525050565b61349081613af5565b82525050565b60006134a2838561395d565b93506134af838584613b74565b6134b883613cbd565b840190509392505050565b60006134ce82613934565b6134d8818561395d565b93506134e8818560208601613b83565b6134f181613cbd565b840191505092915050565b600061350960268361396e565b915061351482613cce565b604082019050919050565b600061352c60228361396e565b915061353782613d1d565b604082019050919050565b600061354f60228361396e565b915061355a82613d6c565b604082019050919050565b6000613572601f8361396e565b915061357d82613dbb565b602082019050919050565b600061359560228361396e565b91506135a082613de4565b604082019050919050565b60006135b860228361396e565b91506135c382613e33565b604082019050919050565b60006135db60178361396e565b91506135e682613e82565b602082019050919050565b60006135fe60228361396e565b915061360982613eab565b604082019050919050565b600061362160208361396e565b915061362c82613efa565b602082019050919050565b6000613644601e8361396e565b915061364f82613f23565b602082019050919050565b61366381613b41565b82525050565b61367281613b4b565b82525050565b600060208201905061368d600083018461340b565b92915050565b600060208201905081810360008301526136ad818461341a565b905092915050565b60006020820190506136ca6000830184613478565b92915050565b60006020820190506136e56000830184613487565b92915050565b60006040820190506137006000830186613487565b8181036020830152613713818486613496565b9050949350505050565b60006040820190506137326000830185613487565b818103602083015261374481846134c3565b90509392505050565b60006020820190508181036000830152613766816134fc565b9050919050565b600060208201905081810360008301526137868161351f565b9050919050565b600060208201905081810360008301526137a681613542565b9050919050565b600060208201905081810360008301526137c681613565565b9050919050565b600060208201905081810360008301526137e681613588565b9050919050565b60006020820190508181036000830152613806816135ab565b9050919050565b60006020820190508181036000830152613826816135ce565b9050919050565b60006020820190508181036000830152613846816135f1565b9050919050565b6000602082019050818103600083015261386681613614565b9050919050565b6000602082019050818103600083015261388681613637565b9050919050565b60006020820190506138a2600083018461365a565b92915050565b60006020820190506138bd6000830184613669565b92915050565b60006138cd6138de565b90506138d98282613bb6565b919050565b6000604051905090565b600067ffffffffffffffff82111561390357613902613c8e565b5b61390c82613cbd565b9050602081019050919050565b6000819050602082019050919050565b600081519050919050565b600081519050919050565b6000602082019050919050565b600082825260208201905092915050565b600082825260208201905092915050565b600082825260208201905092915050565b600061398a82613b41565b915061399583613b41565b9250827fffffffffffffffffffffffffffffffffffffffffffffffffffffffffffffffff038211156139ca576139c9613c30565b5b828201905092915050565b60006139e082613b41565b91506139eb83613b41565b9250826139fb576139fa613c5f565b5b828204905092915050565b6000613a1182613b41565b9150613a1c83613b41565b9250817fffffffffffffffffffffffffffffffffffffffffffffffffffffffffffffffff0483118215151615613a5557613a54613c30565b5b828202905092915050565b6000613a6b82613b5f565b9150613a7683613b5f565b92508168ffffffffffffffffff0483118215151615613a9857613a97613c30565b5b828202905092915050565b6000613aae82613b41565b9150613ab983613b41565b925082821015613acc57613acb613c30565b5b828203905092915050565b6000613ae282613b21565b9050919050565b60008115159050919050565b60007fffffffffffffffffffffffffffffffffffffffff00000000000000000000000082169050919050565b600073ffffffffffffffffffffffffffffffffffffffff82169050919050565b6000819050919050565b600067ffffffffffffffff82169050919050565b600068ffffffffffffffffff82169050919050565b82818337600083830152505050565b60005b83811015613ba1578082015181840152602081019050613b86565b83811115613bb0576000848401525b50505050565b613bbf82613cbd565b810181811067ffffffffffffffff82111715613bde57613bdd613c8e565b5b80604052505050565b6000613bf282613b41565b91507fffffffffffffffffffffffffffffffffffffffffffffffffffffffffffffffff821415613c2557613c24613c30565b5b600182019050919050565b7f4e487b7100000000000000000000000000000000000000000000000000000000600052601160045260246000fd5b7f4e487b7100000000000000000000000000000000000000000000000000000000600052601260045260246000fd5b7f4e487b7100000000000000000000000000000000000000000000000000000000600052604160045260246000fd5b6000601f19601f8301169050919050565b7f4f776e61626c653a206e6577206f776e657220697320746865207a65726f206160008201527f6464726573730000000000000000000000000000000000000000000000000000602082015250565b7f6964656e746966696572206973206e6f742072696768742c206e65656420626560008201527f2034000000000000000000000000000000000000000000000000000000000000602082015250565b7f6964656e746966696572206973206e6f742072696768742c206e65656420626560008201527f2035000000000000000000000000000000000000000000000000000000000000602082015250565b7f73797374656d5f636678696e74657265737473206e6f7420636c65616e656400600082015250565b7f6964656e746966696572206973206e6f742072696768742c206e65656420626560008201527f2031000000000000000000000000000000000000000000000000000000000000602082015250565b7f6964656e746966696572206973206e6f742072696768742c206e65656420626560008201527f2033000000000000000000000000000000000000000000000000000000000000602082015250565b7f74726967657273206d7573742062652074727573746564000000000000000000600082015250565b7f6964656e746966696572206973206e6f742072696768742c206e65656420626560008201527f2032000000000000000000000000000000000000000000000000000000000000602082015250565b7f4f776e61626c653a2063616c6c6572206973206e6f7420746865206f776e6572600082015250565b7f73797374656d5f636678696e7465726573747320697320636c65616e65640000600082015250565b613f5581613ad7565b8114613f6057600080fd5b50565b613f6c81613ae9565b8114613f7757600080fd5b50565b613f8381613b41565b8114613f8e57600080fd5b50565b613f9a81613b4b565b8114613fa557600080fd5b5056fea26469706673582212202b01074e883ded3105de4813a23289bd708deeca20b171d550419ee718545f2864736f6c63430008020033",
  "immutableReferences": {},
  "source": "//SPDX-License-Identifier: BUSL-1.1\npragma solidity ^0.8.0;\nimport \"@openzeppelin/contracts/utils/math/SafeMath.sol\";\nimport \"@openzeppelin/contracts/access/Ownable.sol\";\nimport \"@openzeppelin/contracts/token/ERC20/IERC20.sol\";\nimport \"../ICrossSpaceCall.sol\";\nimport \"../IExchange.sol\";\n///\n///  @title CoreBridge_multipool is a bridge to connect Conflux POS pools and Exchange rooms ,deployed in core;\n///  @dev This contract set the user share ratio, system share ratio, \n///  @dev compound the interests\n///  @notice Users cann't direct use this contract to participate Conflux PoS stake.\n///\ncontract CoreBridge_multipool is Ownable {\n  using SafeMath for uint256;\n  CrossSpaceCall internal crossSpaceCall;\n\n  uint256 private constant RATIO_BASE = 10000;\n  // ratio shared by user: 1-10000\n  uint256 public poolUserShareRatio = 9000;\n  uint256 CFX_COUNT_OF_ONE_VOTE = 1000;\n  uint256 CFX_VALUE_OF_ONE_VOTE = 1000 ether;\n\n  address[] public poolAddress;               // can use many pools, so here is an array\n  uint256   public pos_id_in_use;             // pos pool in use\n  address   public xCFXAddress;               // xCFX addr in espace \n  address   public eSpaceExroomAddress;       //Exchange room Address in espace\n  address   public CoreExroomAddress;         //Exchange room Address in core\n  address   public ServicetreasuryAddress;    //Service treasury Address in core\n  uint256   private system_cfxinterests_temp; //pools cfx interests in temporary\n  uint256   private identifier;               //Execution number\n  mapping(address=>bool) trusted_node_trigers;//     \n  // ======================== Struct definitions =========================\n  struct PoolSummary {\n    uint256 xCFXSUM;             // xCFX SUM (1 ether xCFX === 1 e18)\n    uint256 totalInterest;       // PoS pool interests for all xCFX\n    uint256 CFXbalances;         // CFX balances in bridge\n    uint256 historical_Interest ;// total historical interest of whole pools\n  }\n\n  // struct Pool_info {\n  //   uint256 availableVotes;  //\n  //   uint256 stakingVotes; // \n  //   uint256 stakedVotes;  //\n  //   uint256 unstakingVotes; // \n  //   uint256 unstakedVotes; \n  // }\n\n  constructor () {\n    initialize();\n  }\n  // ======================== Modifiers =========================\n\n  // modifier Only_Multi_sign() {\n  //   for(uint i=0;i<Multi_sign_num;i++){\n  //     require(Multi_signs[i]==1, \"Multi_sign is not ALL Signed!\");\n  //   }\n  //   _;\n  // }\n  modifier Only_in_order() {\n    identifier += 1;\n    _;\n    if(identifier==5) identifier = 0;\n  }\n  modifier Only_trusted_trigers() {\n    require(trusted_node_trigers[msg.sender]==true,'trigers must be trusted');\n    _;\n  }\n  // ======================== Methods for core pos pools settings =========================\n\n  function initialize() public {\n    crossSpaceCall = CrossSpaceCall(0x0888000000000000000000000000000000000006);\n  }\n\n  function addPoolAddress(address _poolAddress) public onlyOwner {\n    poolAddress.push(_poolAddress);\n  }\n\n  function changePoolAddress(address _oldpoolAddress,address _newpoolAddress) public onlyOwner {\n    uint256 pool_sum = poolAddress.length;\n    for(uint256 i=0;i<pool_sum;i++)\n    {\n        if(poolAddress[i]==_oldpoolAddress)\n        {\n            poolAddress[i]=_newpoolAddress;\n        }\n    }\n  }\n  function delePoolAddress(address _oldpoolAddress) public onlyOwner {\n    uint256 pool_sum = poolAddress.length;\n    for(uint256 i=0;i<pool_sum;i++)\n    {\n        if(poolAddress[i]==_oldpoolAddress)\n        {\n            poolAddress[i]= poolAddress[pool_sum-1];\n            poolAddress.pop();\n        }\n    }\n  }\n\n  function seteSpaceExroomAddress(address _eSpaceExroomAddress) public onlyOwner {\n    eSpaceExroomAddress = _eSpaceExroomAddress;\n  }\n  function settrusted_trigers(address _eSpaceExroomAddress,bool state) public onlyOwner {\n    trusted_node_trigers[_eSpaceExroomAddress] = state;\n  }\n\n  function get_triger_state(address _eSpaceExroomAddress) public view onlyOwner returns(bool){\n    return trusted_node_trigers[_eSpaceExroomAddress];\n  }\n  function getPoolAddress() public view returns (address[] memory ) {\n    return poolAddress;\n  }\n  \n  function ePoolAddrB20() public view returns (bytes20) {\n    return bytes20(eSpaceExroomAddress);\n  }\n  //-----------------espace method-------------------------------------------------------------------------------------\n\n  function queryespacexCFXincrease() public returns (uint256) {\n    bytes memory rawCrossingVotes = crossSpaceCall.callEVM(ePoolAddrB20(), abi.encodeWithSignature(\"crossingVotes()\"));\n    return abi.decode(rawCrossingVotes, (uint256));\n  }\n\n  function queryUnstakeLen() public returns (uint256) {\n    bytes memory rawUnstakeLen = crossSpaceCall.callEVM(ePoolAddrB20(), abi.encodeWithSignature(\"unstakeLen()\"));\n    return abi.decode(rawUnstakeLen, (uint256));\n  }\n\n  //-----------------core pool method-------------------------------------------------------------------------------------\n  function queryInterest(uint256 _num) public view returns (uint256) {\n    IExchange posPool = IExchange(poolAddress[_num]);\n    uint256 interest = posPool.temp_Interest();\n    return interest;\n  }\n\n  //-----------------bridge method-------------------------------------------------------------------------------------\n  function syncALLwork() public onlyOwner Only_trusted_trigers {\n    claimInterests();\n\n    campounds();\n    SyncValue();\n\n    handleUnstake();\n    withdrawVotes();\n  }\n\n  function claimInterests() public Only_in_order Only_trusted_trigers {\n    require(identifier==1,\"identifier is not right, need be 1\");\n    require(system_cfxinterests_temp==0,'system_cfxinterests not cleaned');\n    uint256 pool_sum = poolAddress.length;\n    IExchange posPool;\n    uint256 interest;\n    for(uint256 i=0;i<pool_sum;i++)\n    {\n      posPool = IExchange(poolAddress[i]);\n      //interest = posPool.userInterest(address(this));\n      if (interest > 0) {\n        interest = posPool.claimAllInterest();\n        system_cfxinterests_temp += interest.mul(poolUserShareRatio).div(RATIO_BASE);\n        crossSpaceCall.transferEVM{value: interest}(ePoolAddrB20());\n      }\n    }\n  }\n  function campounds() public Only_in_order Only_trusted_trigers {\n    require(identifier==2,\"identifier is not right, need be 2\");\n    require(system_cfxinterests_temp!=0,'system_cfxinterests is cleaned');\n    uint256 toxCFX = system_cfxinterests_temp;\n    system_cfxinterests_temp == 0;\n    crossSpaceCall.callEVM{value: toxCFX}(ePoolAddrB20(), abi.encodeWithSignature(\"CFX_exchange_XCFX()\"));\n    uint256 balanceinpool = crossSpaceCall.mappedBalance(eSpaceExroomAddress);\n    uint64 votePower = uint64(balanceinpool.div(CFX_VALUE_OF_ONE_VOTE));\n    if (votePower > 0){\n      IExchange(poolAddress[pos_id_in_use]).increaseStake(votePower);\n    }\n  }\n\n  function SyncValue() public Only_in_order Only_trusted_trigers {\n    require(identifier==3,\"identifier is not right, need be 3\");\n    uint256 sum = IERC20(xCFXAddress).totalSupply() ; \n    uint256 balanceinpool = crossSpaceCall.mappedBalance(eSpaceExroomAddress);\n    uint256 pool_sum = poolAddress.length;\n    uint256 SUMvotes;\n    for(uint256 i=0;i<pool_sum;i++)\n    {\n        SUMvotes += IExchange(poolAddress[i]).poolSummary().totalvotes;\n    }\n    uint256 xCFXvalues =balanceinpool.add(SUMvotes.mul(CFX_VALUE_OF_ONE_VOTE)).div(sum);\n    crossSpaceCall.callEVM(ePoolAddrB20(), abi.encodeWithSignature(\"setxCFXValue(uint256)\", xCFXvalues));\n  }\n\n  function handleUnstake() public Only_in_order Only_trusted_trigers {\n    require(identifier==4,\"identifier is not right, need be 4\");\n    uint256 unstakeLen = queryUnstakeLen();\n    if (unstakeLen == 0) return;\n    if (unstakeLen > 50) unstakeLen = 50; // max 50 unstakes per call\n    IExchange posPool = IExchange(poolAddress[pos_id_in_use]);\n    IExchange.UserSummary memory userSummary = posPool.userSummary(address(this));\n    uint256 available = userSummary.locked;\n    bytes memory rawFirstUnstakeVotes ;\n    uint256 firstUnstakeVotes;\n    if (available == 0) return;\n    for(uint256 i = 0; i < unstakeLen; i++) {\n      rawFirstUnstakeVotes = crossSpaceCall.callEVM(ePoolAddrB20(), abi.encodeWithSignature(\"firstUnstakeVotes()\"));\n      firstUnstakeVotes = abi.decode(rawFirstUnstakeVotes, (uint256));\n      if (firstUnstakeVotes == 0) break;\n      if (firstUnstakeVotes > available) break;\n      posPool.decreaseStake(uint64(firstUnstakeVotes));\n      crossSpaceCall.callEVM(ePoolAddrB20(), abi.encodeWithSignature(\"handleUnstakeTask()\"));\n      available -= firstUnstakeVotes;\n    }\n  }\n\n  function withdrawVotes() public Only_in_order Only_trusted_trigers {\n    require(identifier==5,\"identifier is not right, need be 5\");\n    uint256 pool_sum = poolAddress.length;\n    IExchange posPool;\n    uint256 interest;\n    uint256 transferValue;\n    for(uint256 i=0;i<pool_sum;i++)\n    {\n      posPool = IExchange(poolAddress[i]);\n      IExchange.UserSummary memory userSummary = posPool.userSummary(address(this));\n      if (userSummary.unlocked > 0) \n      {\n        posPool.withdrawStake(userSummary.unlocked);\n        // transfer to eSpacePool and call method\n        transferValue = userSummary.unlocked * 1000 ether;\n        crossSpaceCall.callEVM{value: transferValue}(ePoolAddrB20(), abi.encodeWithSignature(\"handleUnlockedIncrease(uint256)\", userSummary.unlocked));\n      }\n    }\n  }\n\n  function callEVM(address addr, bytes calldata data) public Only_trusted_trigers {\n    crossSpaceCall.callEVM(bytes20(addr), data);\n  }\n\n  fallback() external payable {}\n  receive() external payable {}\n}",
  "sourcePath": "C:/Users/artii/Conflux Studio/minpos/contracts/eSpace/CoreBridge_multipool.sol",
  "compiler": {
    "name": "solc",
    "version": "0.8.2+commit.661d1103.Emscripten.clang"
  },
  "schemaVersion": "3.3.4",
  "updatedAt": "2022-08-14T09:42:47.140Z",
  "devdoc": {
    "details": "This contract set the user share ratio, system share ratio, compound the interests",
    "kind": "dev",
    "methods": {
      "owner()": {
        "details": "Returns the address of the current owner."
      },
      "renounceOwnership()": {
        "details": "Leaves the contract without owner. It will not be possible to call `onlyOwner` functions anymore. Can only be called by the current owner. NOTE: Renouncing ownership will leave the contract without an owner, thereby removing any functionality that is only available to the owner."
      },
      "transferOwnership(address)": {
        "details": "Transfers ownership of the contract to a new account (`newOwner`). Can only be called by the current owner."
      }
    },
    "title": "CoreBridge_multipool is a bridge to connect Conflux POS pools and Exchange rooms ,deployed in core;",
    "version": 1
  },
  "userdoc": {
    "kind": "user",
    "methods": {},
    "notice": "Users cann't direct use this contract to participate Conflux PoS stake.",
    "version": 1
  }
}