{
  "contractName": "CoreBridge_multipool",
  "abi": [
    {
      "inputs": [],
      "stateMutability": "nonpayable",
      "type": "constructor"
    },
    {
      "anonymous": false,
      "inputs": [
        {
          "indexed": true,
          "internalType": "address",
          "name": "previousOwner",
          "type": "address"
        },
        {
          "indexed": true,
          "internalType": "address",
          "name": "newOwner",
          "type": "address"
        }
      ],
      "name": "OwnershipTransferred",
      "type": "event"
    },
    {
      "stateMutability": "payable",
      "type": "fallback"
    },
    {
      "inputs": [],
      "name": "CoreExroomAddress",
      "outputs": [
        {
          "internalType": "address",
          "name": "",
          "type": "address"
        }
      ],
      "stateMutability": "view",
      "type": "function"
    },
    {
      "inputs": [],
      "name": "PosIDinuse",
      "outputs": [
        {
          "internalType": "uint256",
          "name": "",
          "type": "uint256"
        }
      ],
      "stateMutability": "view",
      "type": "function"
    },
    {
      "inputs": [],
      "name": "ServicetreasuryAddress",
      "outputs": [
        {
          "internalType": "address",
          "name": "",
          "type": "address"
        }
      ],
      "stateMutability": "view",
      "type": "function"
    },
    {
      "inputs": [],
      "name": "bridge_eSpaceAddress",
      "outputs": [
        {
          "internalType": "address",
          "name": "",
          "type": "address"
        }
      ],
      "stateMutability": "view",
      "type": "function"
    },
    {
      "inputs": [],
      "name": "eSpaceExroomAddress",
      "outputs": [
        {
          "internalType": "address",
          "name": "",
          "type": "address"
        }
      ],
      "stateMutability": "view",
      "type": "function"
    },
    {
      "inputs": [],
      "name": "owner",
      "outputs": [
        {
          "internalType": "address",
          "name": "",
          "type": "address"
        }
      ],
      "stateMutability": "view",
      "type": "function"
    },
    {
      "inputs": [
        {
          "internalType": "uint256",
          "name": "",
          "type": "uint256"
        }
      ],
      "name": "poolAddress",
      "outputs": [
        {
          "internalType": "address",
          "name": "",
          "type": "address"
        }
      ],
      "stateMutability": "view",
      "type": "function"
    },
    {
      "inputs": [],
      "name": "poolUserShareRatio",
      "outputs": [
        {
          "internalType": "uint256",
          "name": "",
          "type": "uint256"
        }
      ],
      "stateMutability": "view",
      "type": "function"
    },
    {
      "inputs": [],
      "name": "renounceOwnership",
      "outputs": [],
      "stateMutability": "nonpayable",
      "type": "function"
    },
    {
      "inputs": [],
      "name": "systemCFXInterestsTemp",
      "outputs": [
        {
          "internalType": "uint256",
          "name": "",
          "type": "uint256"
        }
      ],
      "stateMutability": "view",
      "type": "function"
    },
    {
      "inputs": [
        {
          "internalType": "address",
          "name": "newOwner",
          "type": "address"
        }
      ],
      "name": "transferOwnership",
      "outputs": [],
      "stateMutability": "nonpayable",
      "type": "function"
    },
    {
      "inputs": [],
      "name": "xCFXAddress",
      "outputs": [
        {
          "internalType": "address",
          "name": "",
          "type": "address"
        }
      ],
      "stateMutability": "view",
      "type": "function"
    },
    {
      "stateMutability": "payable",
      "type": "receive"
    },
    {
      "inputs": [],
      "name": "initialize",
      "outputs": [],
      "stateMutability": "nonpayable",
      "type": "function"
    },
    {
      "inputs": [
        {
          "internalType": "address",
          "name": "_poolAddress",
          "type": "address"
        }
      ],
      "name": "addPoolAddress",
      "outputs": [],
      "stateMutability": "nonpayable",
      "type": "function"
    },
    {
      "inputs": [
        {
          "internalType": "address",
          "name": "_oldpoolAddress",
          "type": "address"
        },
        {
          "internalType": "address",
          "name": "_newpoolAddress",
          "type": "address"
        }
      ],
      "name": "changePoolAddress",
      "outputs": [],
      "stateMutability": "nonpayable",
      "type": "function"
    },
    {
      "inputs": [
        {
          "internalType": "address",
          "name": "_oldpoolAddress",
          "type": "address"
        }
      ],
      "name": "delePoolAddress",
      "outputs": [],
      "stateMutability": "nonpayable",
      "type": "function"
    },
    {
      "inputs": [
        {
          "internalType": "address",
          "name": "_eSpaceExroomAddress",
          "type": "address"
        }
      ],
      "name": "seteSpaceExroomAddress",
      "outputs": [],
      "stateMutability": "nonpayable",
      "type": "function"
    },
    {
      "inputs": [
        {
          "internalType": "address",
          "name": "_eSpacexCFXaddr",
          "type": "address"
        }
      ],
      "name": "seteSpacexCFXAddress",
      "outputs": [],
      "stateMutability": "nonpayable",
      "type": "function"
    },
    {
      "inputs": [
        {
          "internalType": "address",
          "name": "_bridge_eSpaceAddress",
          "type": "address"
        }
      ],
      "name": "seteSpacebridgeAddress",
      "outputs": [],
      "stateMutability": "nonpayable",
      "type": "function"
    },
    {
      "inputs": [
        {
          "internalType": "address",
          "name": "_Address",
          "type": "address"
        },
        {
          "internalType": "bool",
          "name": "state",
          "type": "bool"
        }
      ],
      "name": "settrusted_trigers",
      "outputs": [],
      "stateMutability": "nonpayable",
      "type": "function"
    },
    {
      "inputs": [
        {
          "internalType": "address",
          "name": "_Address",
          "type": "address"
        }
      ],
      "name": "get_triger_state",
      "outputs": [
        {
          "internalType": "bool",
          "name": "",
          "type": "bool"
        }
      ],
      "stateMutability": "view",
      "type": "function"
    },
    {
      "inputs": [],
      "name": "getPoolAddress",
      "outputs": [
        {
          "internalType": "address[]",
          "name": "",
          "type": "address[]"
        }
      ],
      "stateMutability": "view",
      "type": "function"
    },
    {
      "inputs": [
        {
          "internalType": "uint256",
          "name": "count",
          "type": "uint256"
        }
      ],
      "name": "_setCfxCountOfOneVote",
      "outputs": [],
      "stateMutability": "nonpayable",
      "type": "function"
    },
    {
      "inputs": [
        {
          "internalType": "uint64",
          "name": "ratio",
          "type": "uint64"
        }
      ],
      "name": "setPoolUserShareRatio",
      "outputs": [],
      "stateMutability": "nonpayable",
      "type": "function"
    },
    {
      "inputs": [],
      "name": "queryespacexCFXincrease",
      "outputs": [
        {
          "internalType": "uint256",
          "name": "",
          "type": "uint256"
        }
      ],
      "stateMutability": "nonpayable",
      "type": "function"
    },
    {
      "inputs": [],
      "name": "queryUnstakeLen",
      "outputs": [
        {
          "internalType": "uint256",
          "name": "",
          "type": "uint256"
        }
      ],
      "stateMutability": "nonpayable",
      "type": "function"
    },
    {
      "inputs": [
        {
          "internalType": "uint256",
          "name": "_num",
          "type": "uint256"
        }
      ],
      "name": "queryInterest",
      "outputs": [
        {
          "internalType": "uint256",
          "name": "",
          "type": "uint256"
        }
      ],
      "stateMutability": "view",
      "type": "function"
    },
    {
      "inputs": [],
      "name": "syncALLwork",
      "outputs": [],
      "stateMutability": "nonpayable",
      "type": "function"
    },
    {
      "inputs": [],
      "name": "claimInterests",
      "outputs": [
        {
          "internalType": "uint256",
          "name": "",
          "type": "uint256"
        }
      ],
      "stateMutability": "nonpayable",
      "type": "function"
    },
    {
      "inputs": [],
      "name": "campounds",
      "outputs": [
        {
          "internalType": "uint256",
          "name": "",
          "type": "uint256"
        }
      ],
      "stateMutability": "nonpayable",
      "type": "function"
    },
    {
      "inputs": [],
      "name": "SyncValue",
      "outputs": [
        {
          "internalType": "uint256",
          "name": "",
          "type": "uint256"
        }
      ],
      "stateMutability": "nonpayable",
      "type": "function"
    },
    {
      "inputs": [],
      "name": "handleUnstake",
      "outputs": [],
      "stateMutability": "nonpayable",
      "type": "function"
    },
    {
      "inputs": [],
      "name": "withdrawVotes",
      "outputs": [],
      "stateMutability": "nonpayable",
      "type": "function"
    },
    {
      "inputs": [
        {
          "internalType": "address",
          "name": "addr",
          "type": "address"
        },
        {
          "internalType": "bytes",
          "name": "data",
          "type": "bytes"
        }
      ],
      "name": "callEVM",
      "outputs": [],
      "stateMutability": "nonpayable",
      "type": "function"
    },
    {
      "inputs": [
        {
          "internalType": "uint256",
          "name": "_i",
          "type": "uint256"
        }
      ],
      "name": "systemCFXInterestsTemp_set",
      "outputs": [],
      "stateMutability": "nonpayable",
      "type": "function"
    }
  ],
  "bytecode": "0x60806040526123286002556103e8600355683635c9adc5dea000006004553480156200002a57600080fd5b506200004b6200003f6200006160201b60201c565b6200006960201b60201c565b6200005b6200012d60201b60201c565b620001a6565b600033905090565b60008060009054906101000a900473ffffffffffffffffffffffffffffffffffffffff169050816000806101000a81548173ffffffffffffffffffffffffffffffffffffffff021916908373ffffffffffffffffffffffffffffffffffffffff1602179055508173ffffffffffffffffffffffffffffffffffffffff168173ffffffffffffffffffffffffffffffffffffffff167f8be0079c531659141344cd1fd0a4f28419497f9722a3daafe3b4186f6b6457e060405160405180910390a35050565b730888000000000000000000000000000000000006600160006101000a81548173ffffffffffffffffffffffffffffffffffffffff021916908373ffffffffffffffffffffffffffffffffffffffff1602179055506123286002819055506103e8600381905550683635c9adc5dea00000600481905550565b61446d80620001b66000396000f3fe6080604052600436106102085760003560e01c80638129fc1c11610118578063b8a99b1f116100a0578063da9da5261161006f578063da9da526146106c7578063e307279a14610704578063f0d8fc661461072f578063f2fde38b14610758578063f586c6d9146107815761020f565b8063b8a99b1f14610631578063bb4691101461065c578063c3b8eba014610687578063da02d100146106b05761020f565b8063986e08b6116100e7578063986e08b6146105625780639fa28e4814610579578063a0e86fd0146105b6578063a5d3416a146105df578063b3569a18146106085761020f565b80638129fc1c146104ca5780638da5cb5b146104e157806393e48e381461050c578063983bf1bd146105375761020f565b80634e141b4e1161019b57806365473c521161016a57806365473c521461040957806367a1aa4f146104345780636a5bd69d1461045f578063715018a61461048857806375eea4e21461049f5761020f565b80634e141b4e1461034d578063505f53d414610378578063588beea5146103a35780635d1834fe146103e05761020f565b80633a7e2d9a116101d75780633a7e2d9a146102b95780633e7321b5146102e257806340d5637f1461030d57806343499844146103245761020f565b8063120063b014610211578063175b80b21461023a5780632306092e14610265578063231da72f1461028e5761020f565b3661020f57005b005b34801561021d57600080fd5b50610238600480360381019061023391906138ef565b6107ac565b005b34801561024657600080fd5b5061024f61086c565b60405161025c9190613ead565b60405180910390f35b34801561027157600080fd5b5061028c600480360381019061028791906138ef565b610872565b005b34801561029a57600080fd5b506102a3610b14565b6040516102b09190613cf8565b60405180910390f35b3480156102c557600080fd5b506102e060048036038101906102db9190613a52565b610b3a565b005b3480156102ee57600080fd5b506102f7610bda565b6040516103049190613cf8565b60405180910390f35b34801561031957600080fd5b50610322610c00565b005b34801561033057600080fd5b5061034b600480360381019061034691906138ef565b610f15565b005b34801561035957600080fd5b50610362610ff7565b60405161036f9190613cf8565b60405180910390f35b34801561038457600080fd5b5061038d61101d565b60405161039a9190613ead565b60405180910390f35b3480156103af57600080fd5b506103ca60048036038101906103c591906138ef565b611197565b6040516103d79190613d35565b60405180910390f35b3480156103ec57600080fd5b5061040760048036038101906104029190613a52565b611269565b005b34801561041557600080fd5b5061041e6112ef565b60405161042b9190613ead565b60405180910390f35b34801561044057600080fd5b50610449611a36565b6040516104569190613ead565b60405180910390f35b34801561046b57600080fd5b5061048660048036038101906104819190613990565b611a3c565b005b34801561049457600080fd5b5061049d611b8e565b005b3480156104ab57600080fd5b506104b4611c16565b6040516104c19190613ead565b60405180910390f35b3480156104d657600080fd5b506104df6121a0565b005b3480156104ed57600080fd5b506104f6612219565b6040516105039190613cf8565b60405180910390f35b34801561051857600080fd5b50610521612242565b60405161052e9190613ead565b60405180910390f35b34801561054357600080fd5b5061054c6123bc565b6040516105599190613ead565b60405180910390f35b34801561056e57600080fd5b506105776126d2565b005b34801561058557600080fd5b506105a0600480360381019061059b9190613a52565b61280e565b6040516105ad9190613ead565b60405180910390f35b3480156105c257600080fd5b506105dd60048036038101906105d89190613918565b612904565b005b3480156105eb57600080fd5b50610606600480360381019061060191906138ef565b612aca565b005b34801561061457600080fd5b5061062f600480360381019061062a9190613954565b612b8a565b005b34801561063d57600080fd5b50610646612c61565b6040516106539190613cf8565b60405180910390f35b34801561066857600080fd5b50610671612c87565b60405161067e9190613cf8565b60405180910390f35b34801561069357600080fd5b506106ae60048036038101906106a99190613aa4565b612cad565b005b3480156106bc57600080fd5b506106c5612da2565b005b3480156106d357600080fd5b506106ee60048036038101906106e99190613a52565b6133a1565b6040516106fb9190613cf8565b60405180910390f35b34801561071057600080fd5b506107196133e0565b6040516107269190613ead565b60405180910390f35b34801561073b57600080fd5b50610756600480360381019061075191906138ef565b6133e6565b005b34801561076457600080fd5b5061077f600480360381019061077a91906138ef565b6134a6565b005b34801561078d57600080fd5b5061079661359e565b6040516107a39190613d13565b60405180910390f35b6107b461362c565b73ffffffffffffffffffffffffffffffffffffffff166107d2612219565b73ffffffffffffffffffffffffffffffffffffffff1614610828576040517f08c379a000000000000000000000000000000000000000000000000000000000815260040161081f90613e2d565b60405180910390fd5b80600860006101000a81548173ffffffffffffffffffffffffffffffffffffffff021916908373ffffffffffffffffffffffffffffffffffffffff16021790555050565b60065481565b61087a61362c565b73ffffffffffffffffffffffffffffffffffffffff16610898612219565b73ffffffffffffffffffffffffffffffffffffffff16146108ee576040517f08c379a00000000000000000000000000000000000000000000000000000000081526004016108e590613e2d565b60405180910390fd5b6000600580549050905060005b81811015610b0f578273ffffffffffffffffffffffffffffffffffffffff1660058281548110610954577f4e487b7100000000000000000000000000000000000000000000000000000000600052603260045260246000fd5b9060005260206000200160009054906101000a900473ffffffffffffffffffffffffffffffffffffffff1673ffffffffffffffffffffffffffffffffffffffff161415610afc5760056001836109aa9190614080565b815481106109e1577f4e487b7100000000000000000000000000000000000000000000000000000000600052603260045260246000fd5b9060005260206000200160009054906101000a900473ffffffffffffffffffffffffffffffffffffffff1660058281548110610a46577f4e487b7100000000000000000000000000000000000000000000000000000000600052603260045260246000fd5b9060005260206000200160006101000a81548173ffffffffffffffffffffffffffffffffffffffff021916908373ffffffffffffffffffffffffffffffffffffffff1602179055506005805480610ac6577f4e487b7100000000000000000000000000000000000000000000000000000000600052603160045260246000fd5b6001900381819060005260206000200160006101000a81549073ffffffffffffffffffffffffffffffffffffffff021916905590555b8080610b07906141af565b9150506108fb565b505050565b600760009054906101000a900473ffffffffffffffffffffffffffffffffffffffff1681565b610b4261362c565b73ffffffffffffffffffffffffffffffffffffffff16610b60612219565b73ffffffffffffffffffffffffffffffffffffffff1614610bb6576040517f08c379a0000000000000000000000000000000000000000000000000000000008152600401610bad90613e2d565b60405180910390fd5b80600381905550670de0b6b3a764000081610bd19190614026565b60048190555050565b600860009054906101000a900473ffffffffffffffffffffffffffffffffffffffff1681565b60011515600d60003373ffffffffffffffffffffffffffffffffffffffff1673ffffffffffffffffffffffffffffffffffffffff16815260200190815260200160002060009054906101000a900460ff16151514610c93576040517f08c379a0000000000000000000000000000000000000000000000000000000008152600401610c8a90613e0d565b60405180910390fd5b60006005805490509050600080600080600090505b84811015610f0e5760058181548110610cea577f4e487b7100000000000000000000000000000000000000000000000000000000600052603260045260246000fd5b9060005260206000200160009054906101000a900473ffffffffffffffffffffffffffffffffffffffff16935060008473ffffffffffffffffffffffffffffffffffffffff16637571fcf66040518163ffffffff1660e01b815260040160e06040518083038186803b158015610d5f57600080fd5b505afa158015610d73573d6000803e3d6000fd5b505050506040513d601f19601f82011682018060405250810190610d979190613a29565b9050806080015193506000841115610efa578473ffffffffffffffffffffffffffffffffffffffff1663bed9d8616040518163ffffffff1660e01b8152600401600060405180830381600087803b158015610df157600080fd5b505af1158015610e05573d6000803e3d6000fd5b50505050683635c9adc5dea0000084610e1e9190614026565b9250600160009054906101000a900473ffffffffffffffffffffffffffffffffffffffff1673ffffffffffffffffffffffffffffffffffffffff1663da8d5daf84600860009054906101000a900473ffffffffffffffffffffffffffffffffffffffff1660601b6040518363ffffffff1660e01b8152600401610ea19190613d50565b6000604051808303818588803b158015610eba57600080fd5b505af1158015610ece573d6000803e3d6000fd5b50505050506040513d6000823e3d601f19601f82011682018060405250810190610ef891906139e8565b505b508080610f06906141af565b915050610ca8565b5050505050565b610f1d61362c565b73ffffffffffffffffffffffffffffffffffffffff16610f3b612219565b73ffffffffffffffffffffffffffffffffffffffff1614610f91576040517f08c379a0000000000000000000000000000000000000000000000000000000008152600401610f8890613e2d565b60405180910390fd5b6005819080600181540180825580915050600190039060005260206000200160009091909190916101000a81548173ffffffffffffffffffffffffffffffffffffffff021916908373ffffffffffffffffffffffffffffffffffffffff16021790555050565b600a60009054906101000a900473ffffffffffffffffffffffffffffffffffffffff1681565b600080600160009054906101000a900473ffffffffffffffffffffffffffffffffffffffff1673ffffffffffffffffffffffffffffffffffffffff1663bea05ee3600860009054906101000a900473ffffffffffffffffffffffffffffffffffffffff1660601b6040516024016040516020818303038152906040527fc7ff5d6e000000000000000000000000000000000000000000000000000000007bffffffffffffffffffffffffffffffffffffffffffffffffffffffff19166020820180517bffffffffffffffffffffffffffffffffffffffffffffffffffffffff83818316178352505050506040518363ffffffff1660e01b8152600401611124929190613d9d565b600060405180830381600087803b15801561113e57600080fd5b505af1158015611152573d6000803e3d6000fd5b505050506040513d6000823e3d601f19601f8201168201806040525081019061117b91906139e8565b9050808060200190518101906111919190613a7b565b91505090565b60006111a161362c565b73ffffffffffffffffffffffffffffffffffffffff166111bf612219565b73ffffffffffffffffffffffffffffffffffffffff1614611215576040517f08c379a000000000000000000000000000000000000000000000000000000000815260040161120c90613e2d565b60405180910390fd5b600d60008373ffffffffffffffffffffffffffffffffffffffff1673ffffffffffffffffffffffffffffffffffffffff16815260200190815260200160002060009054906101000a900460ff169050919050565b61127161362c565b73ffffffffffffffffffffffffffffffffffffffff1661128f612219565b73ffffffffffffffffffffffffffffffffffffffff16146112e5576040517f08c379a00000000000000000000000000000000000000000000000000000000081526004016112dc90613e2d565b60405180910390fd5b80600c8190555050565b600060011515600d60003373ffffffffffffffffffffffffffffffffffffffff1673ffffffffffffffffffffffffffffffffffffffff16815260200190815260200160002060009054906101000a900460ff16151514611384576040517f08c379a000000000000000000000000000000000000000000000000000000000815260040161137b90613e0d565b60405180910390fd5b6000600160009054906101000a900473ffffffffffffffffffffffffffffffffffffffff1673ffffffffffffffffffffffffffffffffffffffff1663bea05ee3600760009054906101000a900473ffffffffffffffffffffffffffffffffffffffff1660601b6040516024016040516020818303038152906040527f18160ddd000000000000000000000000000000000000000000000000000000007bffffffffffffffffffffffffffffffffffffffffffffffffffffffff19166020820180517bffffffffffffffffffffffffffffffffffffffffffffffffffffffff83818316178352505050506040518363ffffffff1660e01b815260040161148a929190613d9d565b600060405180830381600087803b1580156114a457600080fd5b505af11580156114b8573d6000803e3d6000fd5b505050506040513d6000823e3d601f19601f820116820180604052508101906114e191906139e8565b90506000818060200190518101906114f99190613a7b565b905060004790506000600580549050905060008060005b838110156117115760058181548110611552577f4e487b7100000000000000000000000000000000000000000000000000000000600052603260045260246000fd5b9060005260206000200160009054906101000a900473ffffffffffffffffffffffffffffffffffffffff1673ffffffffffffffffffffffffffffffffffffffff16637571fcf66040518163ffffffff1660e01b815260040160e06040518083038186803b1580156115c257600080fd5b505afa1580156115d6573d6000803e3d6000fd5b505050506040513d601f19601f820116820180604052508101906115fa9190613a29565b60000151836116099190613f9f565b925060058181548110611645577f4e487b7100000000000000000000000000000000000000000000000000000000600052603260045260246000fd5b9060005260206000200160009054906101000a900473ffffffffffffffffffffffffffffffffffffffff1673ffffffffffffffffffffffffffffffffffffffff16637571fcf66040518163ffffffff1660e01b815260040160e06040518083038186803b1580156116b557600080fd5b505afa1580156116c9573d6000803e3d6000fd5b505050506040513d601f19601f820116820180604052508101906116ed9190613a29565b60400151826116fc9190613f9f565b91508080611709906141af565b915050611510565b50600061175986670de0b6b3a76400006117366004548761363490919063ffffffff16565b886117419190613f9f565b61174b9190614026565b61364a90919063ffffffff16565b9050600160009054906101000a900473ffffffffffffffffffffffffffffffffffffffff1673ffffffffffffffffffffffffffffffffffffffff1663bea05ee3600860009054906101000a900473ffffffffffffffffffffffffffffffffffffffff1660601b836040516024016117d09190613ead565b6040516020818303038152906040527f21e2f533000000000000000000000000000000000000000000000000000000007bffffffffffffffffffffffffffffffffffffffffffffffffffffffff19166020820180517bffffffffffffffffffffffffffffffffffffffffffffffffffffffff83818316178352505050506040518363ffffffff1660e01b815260040161186a929190613d9d565b600060405180830381600087803b15801561188457600080fd5b505af1158015611898573d6000803e3d6000fd5b505050506040513d6000823e3d601f19601f820116820180604052508101906118c191906139e8565b50600160009054906101000a900473ffffffffffffffffffffffffffffffffffffffff1673ffffffffffffffffffffffffffffffffffffffff1663bea05ee3600860009054906101000a900473ffffffffffffffffffffffffffffffffffffffff1660601b836040516024016119379190613ead565b6040516020818303038152906040527f1864ec44000000000000000000000000000000000000000000000000000000007bffffffffffffffffffffffffffffffffffffffffffffffffffffffff19166020820180517bffffffffffffffffffffffffffffffffffffffffffffffffffffffff83818316178352505050506040518363ffffffff1660e01b81526004016119d1929190613d9d565b600060405180830381600087803b1580156119eb57600080fd5b505af11580156119ff573d6000803e3d6000fd5b505050506040513d6000823e3d601f19601f82011682018060405250810190611a2891906139e8565b508097505050505050505090565b60025481565b60011515600d60003373ffffffffffffffffffffffffffffffffffffffff1673ffffffffffffffffffffffffffffffffffffffff16815260200190815260200160002060009054906101000a900460ff16151514611acf576040517f08c379a0000000000000000000000000000000000000000000000000000000008152600401611ac690613e0d565b60405180910390fd5b600160009054906101000a900473ffffffffffffffffffffffffffffffffffffffff1673ffffffffffffffffffffffffffffffffffffffff1663bea05ee38460601b84846040518463ffffffff1660e01b8152600401611b3193929190613d6b565b600060405180830381600087803b158015611b4b57600080fd5b505af1158015611b5f573d6000803e3d6000fd5b505050506040513d6000823e3d601f19601f82011682018060405250810190611b8891906139e8565b50505050565b611b9661362c565b73ffffffffffffffffffffffffffffffffffffffff16611bb4612219565b73ffffffffffffffffffffffffffffffffffffffff1614611c0a576040517f08c379a0000000000000000000000000000000000000000000000000000000008152600401611c0190613e2d565b60405180910390fd5b611c146000613660565b565b600060011515600d60003373ffffffffffffffffffffffffffffffffffffffff1673ffffffffffffffffffffffffffffffffffffffff16815260200190815260200160002060009054906101000a900460ff16151514611cab576040517f08c379a0000000000000000000000000000000000000000000000000000000008152600401611ca290613e0d565b60405180910390fd5b6000600c541415611cf1576040517f08c379a0000000000000000000000000000000000000000000000000000000008152600401611ce890613e8d565b60405180910390fd5b6000600c5490506000600c81905550600160009054906101000a900473ffffffffffffffffffffffffffffffffffffffff1673ffffffffffffffffffffffffffffffffffffffff1663bea05ee382600860009054906101000a900473ffffffffffffffffffffffffffffffffffffffff1660601b6040516024016040516020818303038152906040527f68eca7f9000000000000000000000000000000000000000000000000000000007bffffffffffffffffffffffffffffffffffffffffffffffffffffffff19166020820180517bffffffffffffffffffffffffffffffffffffffffffffffffffffffff83818316178352505050506040518463ffffffff1660e01b8152600401611e05929190613d9d565b6000604051808303818588803b158015611e1e57600080fd5b505af1158015611e32573d6000803e3d6000fd5b50505050506040513d6000823e3d601f19601f82011682018060405250810190611e5c91906139e8565b506000600160009054906101000a900473ffffffffffffffffffffffffffffffffffffffff1673ffffffffffffffffffffffffffffffffffffffff1663bea05ee3600860009054906101000a900473ffffffffffffffffffffffffffffffffffffffff1660601b600960009054906101000a900473ffffffffffffffffffffffffffffffffffffffff16604051602401611ef69190613cf8565b6040516020818303038152906040527f048e1dcc000000000000000000000000000000000000000000000000000000007bffffffffffffffffffffffffffffffffffffffffffffffffffffffff19166020820180517bffffffffffffffffffffffffffffffffffffffffffffffffffffffff83818316178352505050506040518363ffffffff1660e01b8152600401611f90929190613d9d565b600060405180830381600087803b158015611faa57600080fd5b505af1158015611fbe573d6000803e3d6000fd5b505050506040513d6000823e3d601f19601f82011682018060405250810190611fe791906139e8565b9050600081806020019051810190611fff9190613a7b565b9050600160009054906101000a900473ffffffffffffffffffffffffffffffffffffffff1673ffffffffffffffffffffffffffffffffffffffff1663c23ef031826040518263ffffffff1660e01b815260040161205c9190613ead565b600060405180830381600087803b15801561207657600080fd5b505af115801561208a573d6000803e3d6000fd5b5050505060006120a56004544761364a90919063ffffffff16565b905060008167ffffffffffffffff16111561218c576005600654815481106120f6577f4e487b7100000000000000000000000000000000000000000000000000000000600052603260045260246000fd5b9060005260206000200160009054906101000a900473ffffffffffffffffffffffffffffffffffffffff1673ffffffffffffffffffffffffffffffffffffffff166309fecf7f826040518263ffffffff1660e01b81526004016121599190613ec8565b600060405180830381600087803b15801561217357600080fd5b505af1158015612187573d6000803e3d6000fd5b505050505b8067ffffffffffffffff1694505050505090565b730888000000000000000000000000000000000006600160006101000a81548173ffffffffffffffffffffffffffffffffffffffff021916908373ffffffffffffffffffffffffffffffffffffffff1602179055506123286002819055506103e8600381905550683635c9adc5dea00000600481905550565b60008060009054906101000a900473ffffffffffffffffffffffffffffffffffffffff16905090565b600080600160009054906101000a900473ffffffffffffffffffffffffffffffffffffffff1673ffffffffffffffffffffffffffffffffffffffff1663bea05ee3600860009054906101000a900473ffffffffffffffffffffffffffffffffffffffff1660601b6040516024016040516020818303038152906040527f15cc421d000000000000000000000000000000000000000000000000000000007bffffffffffffffffffffffffffffffffffffffffffffffffffffffff19166020820180517bffffffffffffffffffffffffffffffffffffffffffffffffffffffff83818316178352505050506040518363ffffffff1660e01b8152600401612349929190613d9d565b600060405180830381600087803b15801561236357600080fd5b505af1158015612377573d6000803e3d6000fd5b505050506040513d6000823e3d601f19601f820116820180604052508101906123a091906139e8565b9050808060200190518101906123b69190613a7b565b91505090565b600060011515600d60003373ffffffffffffffffffffffffffffffffffffffff1673ffffffffffffffffffffffffffffffffffffffff16815260200190815260200160002060009054906101000a900460ff16151514612451576040517f08c379a000000000000000000000000000000000000000000000000000000000815260040161244890613e0d565b60405180910390fd5b6000600c5414612496576040517f08c379a000000000000000000000000000000000000000000000000000000000815260040161248d90613ded565b60405180910390fd5b60006005805490509050600080600080600090505b8481101561264457600581815481106124ed577f4e487b7100000000000000000000000000000000000000000000000000000000600052603260045260246000fd5b9060005260206000200160009054906101000a900473ffffffffffffffffffffffffffffffffffffffff1693508373ffffffffffffffffffffffffffffffffffffffff1663e73e183b6040518163ffffffff1660e01b815260040160206040518083038186803b15801561256057600080fd5b505afa158015612574573d6000803e3d6000fd5b505050506040513d601f19601f820116820180604052508101906125989190613a7b565b92506000831115612631578373ffffffffffffffffffffffffffffffffffffffff16638270512f6040518163ffffffff1660e01b8152600401602060405180830381600087803b1580156125eb57600080fd5b505af11580156125ff573d6000803e3d6000fd5b505050506040513d601f19601f820116820180604052508101906126239190613a7b565b8261262e9190613f9f565b91505b808061263c906141af565b9150506124ab565b5061267b61271061266d60025461271061265e9190614080565b8561363490919063ffffffff16565b61364a90919063ffffffff16565b600c819055506000600c54116126c6576040517f08c379a00000000000000000000000000000000000000000000000000000000081526004016126bd90613e6d565b60405180910390fd5b600c5494505050505090565b6126da61362c565b73ffffffffffffffffffffffffffffffffffffffff166126f8612219565b73ffffffffffffffffffffffffffffffffffffffff161461274e576040517f08c379a000000000000000000000000000000000000000000000000000000000815260040161274590613e2d565b60405180910390fd5b60011515600d60003373ffffffffffffffffffffffffffffffffffffffff1673ffffffffffffffffffffffffffffffffffffffff16815260200190815260200160002060009054906101000a900460ff161515146127e1576040517f08c379a00000000000000000000000000000000000000000000000000000000081526004016127d890613e0d565b60405180910390fd5b6127e96123bc565b506127f2611c16565b506127fb6112ef565b50612804612da2565b61280c610c00565b565b6000806005838154811061284b577f4e487b7100000000000000000000000000000000000000000000000000000000600052603260045260246000fd5b9060005260206000200160009054906101000a900473ffffffffffffffffffffffffffffffffffffffff16905060008173ffffffffffffffffffffffffffffffffffffffff1663e73e183b6040518163ffffffff1660e01b815260040160206040518083038186803b1580156128c057600080fd5b505afa1580156128d4573d6000803e3d6000fd5b505050506040513d601f19601f820116820180604052508101906128f89190613a7b565b90508092505050919050565b61290c61362c565b73ffffffffffffffffffffffffffffffffffffffff1661292a612219565b73ffffffffffffffffffffffffffffffffffffffff1614612980576040517f08c379a000000000000000000000000000000000000000000000000000000000815260040161297790613e2d565b60405180910390fd5b6000600580549050905060005b81811015612ac4578373ffffffffffffffffffffffffffffffffffffffff16600582815481106129e6577f4e487b7100000000000000000000000000000000000000000000000000000000600052603260045260246000fd5b9060005260206000200160009054906101000a900473ffffffffffffffffffffffffffffffffffffffff1673ffffffffffffffffffffffffffffffffffffffff161415612ab1578260058281548110612a68577f4e487b7100000000000000000000000000000000000000000000000000000000600052603260045260246000fd5b9060005260206000200160006101000a81548173ffffffffffffffffffffffffffffffffffffffff021916908373ffffffffffffffffffffffffffffffffffffffff1602179055505b8080612abc906141af565b91505061298d565b50505050565b612ad261362c565b73ffffffffffffffffffffffffffffffffffffffff16612af0612219565b73ffffffffffffffffffffffffffffffffffffffff1614612b46576040517f08c379a0000000000000000000000000000000000000000000000000000000008152600401612b3d90613e2d565b60405180910390fd5b80600960006101000a81548173ffffffffffffffffffffffffffffffffffffffff021916908373ffffffffffffffffffffffffffffffffffffffff16021790555050565b612b9261362c565b73ffffffffffffffffffffffffffffffffffffffff16612bb0612219565b73ffffffffffffffffffffffffffffffffffffffff1614612c06576040517f08c379a0000000000000000000000000000000000000000000000000000000008152600401612bfd90613e2d565b60405180910390fd5b80600d60008473ffffffffffffffffffffffffffffffffffffffff1673ffffffffffffffffffffffffffffffffffffffff16815260200190815260200160002060006101000a81548160ff0219169083151502179055505050565b600960009054906101000a900473ffffffffffffffffffffffffffffffffffffffff1681565b600b60009054906101000a900473ffffffffffffffffffffffffffffffffffffffff1681565b612cb561362c565b73ffffffffffffffffffffffffffffffffffffffff16612cd3612219565b73ffffffffffffffffffffffffffffffffffffffff1614612d29576040517f08c379a0000000000000000000000000000000000000000000000000000000008152600401612d2090613e2d565b60405180910390fd5b60008167ffffffffffffffff16118015612d4f57506127108167ffffffffffffffff1611155b612d8e576040517f08c379a0000000000000000000000000000000000000000000000000000000008152600401612d8590613e4d565b60405180910390fd5b8067ffffffffffffffff1660028190555050565b60011515600d60003373ffffffffffffffffffffffffffffffffffffffff1673ffffffffffffffffffffffffffffffffffffffff16815260200190815260200160002060009054906101000a900460ff16151514612e35576040517f08c379a0000000000000000000000000000000000000000000000000000000008152600401612e2c90613e0d565b60405180910390fd5b6000612e3f61101d565b90506000811415612e50575061339f565b611388811115612e605761138890505b6000600560065481548110612e9e577f4e487b7100000000000000000000000000000000000000000000000000000000600052603260045260246000fd5b9060005260206000200160009054906101000a900473ffffffffffffffffffffffffffffffffffffffff16905060008173ffffffffffffffffffffffffffffffffffffffff16637571fcf66040518163ffffffff1660e01b815260040160e06040518083038186803b158015612f1357600080fd5b505afa158015612f27573d6000803e3d6000fd5b505050506040513d601f19601f82011682018060405250810190612f4b9190613a29565b90506000612f68600454836000015161363490919063ffffffff16565b90506060600080831415612f815750505050505061339f565b60005b868110156132a257600160009054906101000a900473ffffffffffffffffffffffffffffffffffffffff1673ffffffffffffffffffffffffffffffffffffffff1663bea05ee3600860009054906101000a900473ffffffffffffffffffffffffffffffffffffffff1660601b6040516024016040516020818303038152906040527f09fcd230000000000000000000000000000000000000000000000000000000007bffffffffffffffffffffffffffffffffffffffffffffffffffffffff19166020820180517bffffffffffffffffffffffffffffffffffffffffffffffffffffffff83818316178352505050506040518363ffffffff1660e01b8152600401613090929190613d9d565b600060405180830381600087803b1580156130aa57600080fd5b505af11580156130be573d6000803e3d6000fd5b505050506040513d6000823e3d601f19601f820116820180604052508101906130e791906139e8565b9250828060200190518101906130fd9190613a7b565b9150600082141561310d576132a2565b8382111561311a576132a2565b81600e600082825461312c9190613f9f565b92505081905550600160009054906101000a900473ffffffffffffffffffffffffffffffffffffffff1673ffffffffffffffffffffffffffffffffffffffff1663bea05ee3600860009054906101000a900473ffffffffffffffffffffffffffffffffffffffff1660601b6040516024016040516020818303038152906040527f84981986000000000000000000000000000000000000000000000000000000007bffffffffffffffffffffffffffffffffffffffffffffffffffffffff19166020820180517bffffffffffffffffffffffffffffffffffffffffffffffffffffffff83818316178352505050506040518363ffffffff1660e01b8152600401613237929190613d9d565b600060405180830381600087803b15801561325157600080fd5b505af1158015613265573d6000803e3d6000fd5b505050506040513d6000823e3d601f19601f8201168201806040525081019061328e91906139e8565b50808061329a906141af565b915050612f84565b50600454600e541115613398578473ffffffffffffffffffffffffffffffffffffffff1663beb99c1e6132e2600454600e5461364a90919063ffffffff16565b6040518263ffffffff1660e01b81526004016132fe9190613ec8565b600060405180830381600087803b15801561331857600080fd5b505af115801561332c573d6000803e3d6000fd5b50505050613347600454600e5461364a90919063ffffffff16565b836133529190614080565b925061337f600454613371600454600e5461364a90919063ffffffff16565b61363490919063ffffffff16565b600e60008282546133909190614080565b925050819055505b5050505050505b565b600581815481106133b157600080fd5b906000526020600020016000915054906101000a900473ffffffffffffffffffffffffffffffffffffffff1681565b600c5481565b6133ee61362c565b73ffffffffffffffffffffffffffffffffffffffff1661340c612219565b73ffffffffffffffffffffffffffffffffffffffff1614613462576040517f08c379a000000000000000000000000000000000000000000000000000000000815260040161345990613e2d565b60405180910390fd5b80600760006101000a81548173ffffffffffffffffffffffffffffffffffffffff021916908373ffffffffffffffffffffffffffffffffffffffff16021790555050565b6134ae61362c565b73ffffffffffffffffffffffffffffffffffffffff166134cc612219565b73ffffffffffffffffffffffffffffffffffffffff1614613522576040517f08c379a000000000000000000000000000000000000000000000000000000000815260040161351990613e2d565b60405180910390fd5b600073ffffffffffffffffffffffffffffffffffffffff168173ffffffffffffffffffffffffffffffffffffffff161415613592576040517f08c379a000000000000000000000000000000000000000000000000000000000815260040161358990613dcd565b60405180910390fd5b61359b81613660565b50565b6060600580548060200260200160405190810160405280929190818152602001828054801561362257602002820191906000526020600020905b8160009054906101000a900473ffffffffffffffffffffffffffffffffffffffff1673ffffffffffffffffffffffffffffffffffffffff16815260200190600101908083116135d8575b5050505050905090565b600033905090565b600081836136429190614026565b905092915050565b600081836136589190613ff5565b905092915050565b60008060009054906101000a900473ffffffffffffffffffffffffffffffffffffffff169050816000806101000a81548173ffffffffffffffffffffffffffffffffffffffff021916908373ffffffffffffffffffffffffffffffffffffffff1602179055508173ffffffffffffffffffffffffffffffffffffffff168173ffffffffffffffffffffffffffffffffffffffff167f8be0079c531659141344cd1fd0a4f28419497f9722a3daafe3b4186f6b6457e060405160405180910390a35050565b600061373761373284613f08565b613ee3565b90508281526020810184848401111561374f57600080fd5b61375a84828561414b565b509392505050565b600081359050613771816143db565b92915050565b600081359050613786816143f2565b92915050565b60008083601f84011261379e57600080fd5b8235905067ffffffffffffffff8111156137b757600080fd5b6020830191508360018202830111156137cf57600080fd5b9250929050565b600082601f8301126137e757600080fd5b81516137f7848260208601613724565b91505092915050565b600060e0828403121561381257600080fd5b61381c60e0613ee3565b9050600061382c848285016138c5565b6000830152506020613840848285016138c5565b6020830152506040613854848285016138c5565b6040830152506060613868848285016138c5565b606083015250608061387c848285016138c5565b60808301525060a0613890848285016138c5565b60a08301525060c06138a4848285016138c5565b60c08301525092915050565b6000813590506138bf81614409565b92915050565b6000815190506138d481614409565b92915050565b6000813590506138e981614420565b92915050565b60006020828403121561390157600080fd5b600061390f84828501613762565b91505092915050565b6000806040838503121561392b57600080fd5b600061393985828601613762565b925050602061394a85828601613762565b9150509250929050565b6000806040838503121561396757600080fd5b600061397585828601613762565b925050602061398685828601613777565b9150509250929050565b6000806000604084860312156139a557600080fd5b60006139b386828701613762565b935050602084013567ffffffffffffffff8111156139d057600080fd5b6139dc8682870161378c565b92509250509250925092565b6000602082840312156139fa57600080fd5b600082015167ffffffffffffffff811115613a1457600080fd5b613a20848285016137d6565b91505092915050565b600060e08284031215613a3b57600080fd5b6000613a4984828501613800565b91505092915050565b600060208284031215613a6457600080fd5b6000613a72848285016138b0565b91505092915050565b600060208284031215613a8d57600080fd5b6000613a9b848285016138c5565b91505092915050565b600060208284031215613ab657600080fd5b6000613ac4848285016138da565b91505092915050565b6000613ad98383613ae5565b60208301905092915050565b613aee816140b4565b82525050565b613afd816140b4565b82525050565b6000613b0e82613f49565b613b188185613f6c565b9350613b2383613f39565b8060005b83811015613b54578151613b3b8882613acd565b9750613b4683613f5f565b925050600181019050613b27565b5085935050505092915050565b613b6a816140c6565b82525050565b613b79816140d2565b82525050565b6000613b8b8385613f7d565b9350613b9883858461413c565b613ba183614285565b840190509392505050565b6000613bb782613f54565b613bc18185613f7d565b9350613bd181856020860161414b565b613bda81614285565b840191505092915050565b6000613bf2602683613f8e565b9150613bfd82614296565b604082019050919050565b6000613c15601f83613f8e565b9150613c20826142e5565b602082019050919050565b6000613c38601783613f8e565b9150613c438261430e565b602082019050919050565b6000613c5b602083613f8e565b9150613c6682614337565b602082019050919050565b6000613c7e601783613f8e565b9150613c8982614360565b602082019050919050565b6000613ca1601d83613f8e565b9150613cac82614389565b602082019050919050565b6000613cc4601e83613f8e565b9150613ccf826143b2565b602082019050919050565b613ce38161411e565b82525050565b613cf281614128565b82525050565b6000602082019050613d0d6000830184613af4565b92915050565b60006020820190508181036000830152613d2d8184613b03565b905092915050565b6000602082019050613d4a6000830184613b61565b92915050565b6000602082019050613d656000830184613b70565b92915050565b6000604082019050613d806000830186613b70565b8181036020830152613d93818486613b7f565b9050949350505050565b6000604082019050613db26000830185613b70565b8181036020830152613dc48184613bac565b90509392505050565b60006020820190508181036000830152613de681613be5565b9050919050565b60006020820190508181036000830152613e0681613c08565b9050919050565b60006020820190508181036000830152613e2681613c2b565b9050919050565b60006020820190508181036000830152613e4681613c4e565b9050919050565b60006020820190508181036000830152613e6681613c71565b9050919050565b60006020820190508181036000830152613e8681613c94565b9050919050565b60006020820190508181036000830152613ea681613cb7565b9050919050565b6000602082019050613ec26000830184613cda565b92915050565b6000602082019050613edd6000830184613ce9565b92915050565b6000613eed613efe565b9050613ef9828261417e565b919050565b6000604051905090565b600067ffffffffffffffff821115613f2357613f22614256565b5b613f2c82614285565b9050602081019050919050565b6000819050602082019050919050565b600081519050919050565b600081519050919050565b6000602082019050919050565b600082825260208201905092915050565b600082825260208201905092915050565b600082825260208201905092915050565b6000613faa8261411e565b9150613fb58361411e565b9250827fffffffffffffffffffffffffffffffffffffffffffffffffffffffffffffffff03821115613fea57613fe96141f8565b5b828201905092915050565b60006140008261411e565b915061400b8361411e565b92508261401b5761401a614227565b5b828204905092915050565b60006140318261411e565b915061403c8361411e565b9250817fffffffffffffffffffffffffffffffffffffffffffffffffffffffffffffffff0483118215151615614075576140746141f8565b5b828202905092915050565b600061408b8261411e565b91506140968361411e565b9250828210156140a9576140a86141f8565b5b828203905092915050565b60006140bf826140fe565b9050919050565b60008115159050919050565b60007fffffffffffffffffffffffffffffffffffffffff00000000000000000000000082169050919050565b600073ffffffffffffffffffffffffffffffffffffffff82169050919050565b6000819050919050565b600067ffffffffffffffff82169050919050565b82818337600083830152505050565b60005b8381101561416957808201518184015260208101905061414e565b83811115614178576000848401525b50505050565b61418782614285565b810181811067ffffffffffffffff821117156141a6576141a5614256565b5b80604052505050565b60006141ba8261411e565b91507fffffffffffffffffffffffffffffffffffffffffffffffffffffffffffffffff8214156141ed576141ec6141f8565b5b600182019050919050565b7f4e487b7100000000000000000000000000000000000000000000000000000000600052601160045260246000fd5b7f4e487b7100000000000000000000000000000000000000000000000000000000600052601260045260246000fd5b7f4e487b7100000000000000000000000000000000000000000000000000000000600052604160045260246000fd5b6000601f19601f8301169050919050565b7f4f776e61626c653a206e6577206f776e657220697320746865207a65726f206160008201527f6464726573730000000000000000000000000000000000000000000000000000602082015250565b7f73797374656d5f636678696e74657265737473206e6f7420636c65616e656400600082015250565b7f74726967657273206d7573742062652074727573746564000000000000000000600082015250565b7f4f776e61626c653a2063616c6c6572206973206e6f7420746865206f776e6572600082015250565b7f726174696f2073686f756c6420626520312d3130303030000000000000000000600082015250565b7f696e7465726573747320696e20616c6c20706f6f6c206973207a65726f000000600082015250565b7f73797374656d5f636678696e7465726573747320697320636c65616e65640000600082015250565b6143e4816140b4565b81146143ef57600080fd5b50565b6143fb816140c6565b811461440657600080fd5b50565b6144128161411e565b811461441d57600080fd5b50565b61442981614128565b811461443457600080fd5b5056fea264697066735822122016de627a6574026c170fa63a00b57f1918780eeb0dd0da1a3e79f3f858a0d1ac64736f6c63430008020033",
  "immutableReferences": {},
  "source": "//SPDX-License-Identifier: BUSL-1.1\r\npragma solidity ^0.8.0;\r\nimport \"@openzeppelin/contracts/utils/math/SafeMath.sol\";\r\nimport \"@openzeppelin/contracts/access/Ownable.sol\";\r\nimport \"@openzeppelin/contracts/token/ERC20/IERC20.sol\";\r\nimport \"../ICrossSpaceCall.sol\";\r\nimport \"../IExchange.sol\";\r\n///\r\n///  @title CoreBridge_multipool is a bridge to connect Conflux POS pools and Exchange rooms ,deployed in core;\r\n///  @dev This contract set the user share ratio, system share ratio, \r\n///  @dev compound the interests\r\n///  @notice Users cann't direct use this contract to participate Conflux PoS stake.\r\n///\r\ncontract CoreBridge_multipool is Ownable {\r\n  using SafeMath for uint256;\r\n  CrossSpaceCall internal crossSpaceCall;\r\n\r\n  uint256 private constant RATIO_BASE = 10000;\r\n  // ratio shared by user: 1-10000\r\n  uint256 public poolUserShareRatio = 9000;\r\n  uint256 CFX_COUNT_OF_ONE_VOTE = 1000;\r\n  uint256 CFX_VALUE_OF_ONE_VOTE = 1000 ether;\r\n\r\n  address[] public poolAddress;               // can use many pools, so here is an array\r\n  uint256   public PosIDinuse;             // pos pool in use\r\n  //eSpace address\r\n  address   public xCFXAddress;               // xCFX addr in espace \r\n  address   public eSpaceExroomAddress;       //Exchange room Address in espace\r\n  address   public bridge_eSpaceAddress;       //address of bridge in espace\r\n  //Core Space address\r\n  address   public CoreExroomAddress;         //Exchange room Address in core\r\n  address   public ServicetreasuryAddress;    //Service treasury Address in core\r\n  uint256   public systemCFXInterestsTemp; //pools cfx interests in temporary\r\n  //\r\n  //uint256   public identifier;                //Execution number , should be private when use in main net\r\n  mapping(address=>bool) trusted_node_trigers;//     \r\n  // ======================== Struct definitions =========================\r\n  struct PoolSummary {\r\n    uint256 xCFXSUM;             // xCFX SUM (1 ether xCFX === 1 e18)\r\n    uint256 totalInterest;       // PoS pool interests for all xCFX\r\n    uint256 CFXbalances;         // CFX balances in bridge\r\n    uint256 historical_Interest ;// total historical interest of whole pools\r\n  }\r\n\r\n  constructor () {\r\n    initialize();\r\n  }\r\n  // ======================== Modifiers =========================\r\n\r\n  // modifier Only_in_order() {\r\n  //   identifier += 1;\r\n  //   _;\r\n  //   if(identifier==5) identifier = 0;\r\n  // }\r\n  modifier Only_trusted_trigers() {\r\n    require(trusted_node_trigers[msg.sender]==true,'trigers must be trusted');\r\n    _;\r\n  }\r\n  // ======================== Methods for core pos pools settings =========================\r\n\r\n  function initialize() public {\r\n    crossSpaceCall = CrossSpaceCall(0x0888000000000000000000000000000000000006);\r\n    poolUserShareRatio = 9000;\r\n    CFX_COUNT_OF_ONE_VOTE = 1000;\r\n    CFX_VALUE_OF_ONE_VOTE = 1000 ether;\r\n  }\r\n\r\n  function addPoolAddress(address _poolAddress) public onlyOwner {\r\n    poolAddress.push(_poolAddress);\r\n  }\r\n\r\n  function changePoolAddress(address _oldpoolAddress,address _newpoolAddress) public onlyOwner {\r\n    uint256 pool_sum = poolAddress.length;\r\n    for(uint256 i=0;i<pool_sum;i++)\r\n    {\r\n        if(poolAddress[i]==_oldpoolAddress)\r\n        {\r\n            poolAddress[i]=_newpoolAddress;\r\n        }\r\n    }\r\n  }\r\n  function delePoolAddress(address _oldpoolAddress) public onlyOwner {\r\n    uint256 pool_sum = poolAddress.length;\r\n    for(uint256 i=0;i<pool_sum;i++)\r\n    {\r\n        if(poolAddress[i]==_oldpoolAddress)\r\n        {\r\n            poolAddress[i]= poolAddress[pool_sum-1];\r\n            poolAddress.pop();\r\n        }\r\n    }\r\n  }\r\n\r\n  function seteSpaceExroomAddress(address _eSpaceExroomAddress) public onlyOwner {\r\n    eSpaceExroomAddress = _eSpaceExroomAddress;\r\n  }\r\n  function seteSpacexCFXAddress(address _eSpacexCFXaddr) public onlyOwner {\r\n    xCFXAddress = _eSpacexCFXaddr;\r\n  }\r\n  function seteSpacebridgeAddress(address _bridge_eSpaceAddress) public onlyOwner {\r\n    bridge_eSpaceAddress = _bridge_eSpaceAddress;\r\n  }\r\n  function settrusted_trigers(address _Address,bool state) public onlyOwner {\r\n    trusted_node_trigers[_Address] = state;\r\n  }\r\n\r\n  function get_triger_state(address _Address) public view onlyOwner returns(bool){\r\n    return trusted_node_trigers[_Address];\r\n  }\r\n  function getPoolAddress() public view returns (address[] memory ) {\r\n    return poolAddress;\r\n  }\r\n\r\n  /// @param count Vote cfx count, unit is cfx\r\n  function _setCfxCountOfOneVote(uint256 count) public onlyOwner {\r\n    CFX_COUNT_OF_ONE_VOTE = count;\r\n    CFX_VALUE_OF_ONE_VOTE = count * 1 ether;\r\n  }\r\n\r\n  function setPoolUserShareRatio(uint64 ratio) public onlyOwner {\r\n    require(ratio > 0 && ratio <= RATIO_BASE, \"ratio should be 1-10000\");\r\n    poolUserShareRatio = ratio;\r\n  }\r\n\r\n  //-----------------espace method-------------------------------------------------------------------------------------\r\n\r\n  function queryespacexCFXincrease() public returns (uint256) {\r\n    bytes memory rawCrossingVotes = crossSpaceCall.callEVM(bytes20(eSpaceExroomAddress), abi.encodeWithSignature(\"crossingVotes()\"));\r\n    return abi.decode(rawCrossingVotes, (uint256));\r\n  }\r\n\r\n  function queryUnstakeLen() public returns (uint256) {\r\n    bytes memory rawUnstakeLen = crossSpaceCall.callEVM(bytes20(eSpaceExroomAddress), abi.encodeWithSignature(\"unstakeLen()\"));\r\n    return abi.decode(rawUnstakeLen, (uint256));\r\n  }\r\n\r\n  //-----------------core pool method-------------------------------------------------------------------------------------\r\n  function queryInterest(uint256 _num) public view returns (uint256) {\r\n    IExchange posPool = IExchange(poolAddress[_num]);\r\n    uint256 interest = posPool.temp_Interest();\r\n    return interest;\r\n  }\r\n\r\n  //-----------------bridge method-------------------------------------------------------------------------------------\r\n  function syncALLwork() public onlyOwner Only_trusted_trigers {\r\n    claimInterests();\r\n\r\n    campounds();\r\n    SyncValue();\r\n\r\n    handleUnstake();\r\n    withdrawVotes();\r\n  }\r\n\r\n  function claimInterests() public Only_trusted_trigers returns(uint256){\r\n    //require(identifier==1,\"identifier is not right, need be 1\");\r\n    require(systemCFXInterestsTemp==0,'system_cfxinterests not cleaned');\r\n    uint256 pool_sum = poolAddress.length;\r\n    IExchange posPool;\r\n    uint256 interest;\r\n    uint256 allinterest;\r\n    for(uint256 i=0;i<pool_sum;i++)\r\n    {\r\n      posPool = IExchange(poolAddress[i]);\r\n      interest = posPool.temp_Interest();\r\n      if (interest > 0) {\r\n        allinterest += posPool.claimAllInterest(); \r\n      }\r\n    }\r\n    systemCFXInterestsTemp = interest.mul(RATIO_BASE-poolUserShareRatio).div(RATIO_BASE);\r\n    require(systemCFXInterestsTemp > 0,\"interests in all pool is zero\");\r\n    return systemCFXInterestsTemp;\r\n  }\r\n  function campounds() public Only_trusted_trigers  returns(uint256){\r\n    //require(identifier==2,\"identifier is not right, need be 2\");\r\n    require(systemCFXInterestsTemp!=0,'system_cfxinterests is cleaned');\r\n    uint256 toxCFX = systemCFXInterestsTemp;\r\n    systemCFXInterestsTemp = 0;\r\n    crossSpaceCall.callEVM{value: toxCFX}(bytes20(eSpaceExroomAddress), abi.encodeWithSignature(\"CFX_exchange_XCFX()\"));\r\n    bytes memory rawbalance = crossSpaceCall.callEVM(bytes20(eSpaceExroomAddress), abi.encodeWithSignature(\"espacebalanceof(address)\", bridge_eSpaceAddress));\r\n    uint256 balanceinpool =  abi.decode(rawbalance, (uint256));\r\n    crossSpaceCall.withdrawFromMapped(balanceinpool);\r\n    uint64 votePower = uint64(address(this).balance.div(CFX_VALUE_OF_ONE_VOTE));\r\n    if (votePower > 0){\r\n      IExchange(poolAddress[PosIDinuse]).increaseStake(votePower);\r\n    }\r\n    return votePower;\r\n  }\r\n\r\n  function SyncValue() public Only_trusted_trigers returns(uint256){\r\n    //require(identifier==3,\"identifier is not right, need be 3\");\r\n    \r\n    bytes memory rawsum = crossSpaceCall.callEVM(bytes20(xCFXAddress), abi.encodeWithSignature(\"totalSupply()\"));\r\n    uint256 sum = abi.decode(rawsum, (uint256));\r\n    uint256 balanceinbridge =  address(this).balance;\r\n    uint256 pool_sum = poolAddress.length;\r\n    uint256 poolvotes_sum;\r\n    uint256 poolLockedvotesSUM;\r\n    for(uint256 i=0;i<pool_sum;i++)\r\n    {\r\n        poolvotes_sum += IExchange(poolAddress[i]).poolSummary().totalvotes;\r\n        poolLockedvotesSUM += IExchange(poolAddress[i]).poolSummary().locked;\r\n    }\r\n    uint256 xCFXvalues =((balanceinbridge+poolvotes_sum.mul(CFX_VALUE_OF_ONE_VOTE)) * 1 ether ).div(sum);\r\n    crossSpaceCall.callEVM(bytes20(eSpaceExroomAddress), abi.encodeWithSignature(\"setxCFXValue(uint256)\", xCFXvalues));\r\n    crossSpaceCall.callEVM(bytes20(eSpaceExroomAddress), abi.encodeWithSignature(\"setlockedvotes(uint256)\", xCFXvalues));\r\n    return xCFXvalues;\r\n  }\r\n  uint256 Unstakebalanceinbridge;\r\n  function handleUnstake() public Only_trusted_trigers {\r\n    //require(identifier==4,\"identifier is not right, need be 4\");\r\n    uint256 unstakeLen = queryUnstakeLen();\r\n    if (unstakeLen == 0) return;\r\n    if (unstakeLen > 5000) unstakeLen = 5000; // max 1000 unstakes per call\r\n    IExchange posPool = IExchange(poolAddress[PosIDinuse]);\r\n    IExchange.PoolSummary memory poolSummary = posPool.poolSummary();\r\n    uint256 available = poolSummary.totalvotes.mul(CFX_VALUE_OF_ONE_VOTE);\r\n    bytes memory rawFirstUnstakeVotes ;\r\n    uint256 firstUnstakeVotes;\r\n    if (available == 0) return;\r\n    for(uint256 i = 0; i < unstakeLen; i++) {\r\n      rawFirstUnstakeVotes = crossSpaceCall.callEVM(bytes20(eSpaceExroomAddress), abi.encodeWithSignature(\"firstUnstakeVotes()\"));\r\n      firstUnstakeVotes = abi.decode(rawFirstUnstakeVotes, (uint256));\r\n      if (firstUnstakeVotes == 0) break;\r\n      if (firstUnstakeVotes > available) break;\r\n      Unstakebalanceinbridge += firstUnstakeVotes;\r\n\r\n      //posPool.decreaseStake(uint64(firstUnstakeVotes));\r\n      crossSpaceCall.callEVM(bytes20(eSpaceExroomAddress), abi.encodeWithSignature(\"handleUnstakeTask()\"));\r\n      //available -= firstUnstakeVotes;\r\n    }\r\n    if(Unstakebalanceinbridge > CFX_VALUE_OF_ONE_VOTE){\r\n      posPool.decreaseStake(uint64(Unstakebalanceinbridge.div(CFX_VALUE_OF_ONE_VOTE)));\r\n      available -= Unstakebalanceinbridge.div(CFX_VALUE_OF_ONE_VOTE);\r\n      Unstakebalanceinbridge -= Unstakebalanceinbridge.div(CFX_VALUE_OF_ONE_VOTE).mul(CFX_VALUE_OF_ONE_VOTE);\r\n    }\r\n  }\r\n\r\n  function withdrawVotes() public Only_trusted_trigers {\r\n    //require(identifier==5,\"identifier is not right, need be 5\");\r\n    uint256 pool_sum = poolAddress.length;\r\n    IExchange posPool;\r\n    uint256 temp_unlocked;\r\n    uint256 transferValue;\r\n    for(uint256 i=0;i<pool_sum;i++)\r\n    {\r\n      posPool = IExchange(poolAddress[i]);\r\n      IExchange.PoolSummary memory poolSummary = posPool.poolSummary();\r\n      temp_unlocked = poolSummary.unlocked;\r\n      if (temp_unlocked > 0) \r\n      {\r\n        posPool.withdrawStake();\r\n        // transfer to eSpacePool and call method\r\n        transferValue = temp_unlocked * 1000 ether;\r\n        crossSpaceCall.transferEVM{value: transferValue}(bytes20(eSpaceExroomAddress));\r\n        // crossSpaceCall.callEVM{value: transferValue}(ePoolAddrB20(), abi.encodeWithSignature(\"handleUnlockedIncrease(uint256)\", userSummary.unlocked));\r\n      }\r\n    }\r\n  }\r\n\r\n  function callEVM(address addr, bytes calldata data) public Only_trusted_trigers {\r\n    crossSpaceCall.callEVM(bytes20(addr), data);\r\n  }\r\n\r\n  fallback() external payable {}\r\n  receive() external payable {}\r\n\r\n  //--------------------------------------temp-----------------------------------------------\r\n   //function identifier_test(uint256 _identifier) public onlyOwner {identifier=_identifier; }\r\n   function systemCFXInterestsTemp_set(uint256 _i) public onlyOwner {systemCFXInterestsTemp=_i; }\r\n  \r\n}",
  "sourcePath": "C:/Users/artii/Conflux Studio/minpos/contracts/eSpace/CoreBridge_multipool.sol",
  "compiler": {
    "name": "solc",
    "version": "0.8.2+commit.661d1103.Emscripten.clang"
  },
  "schemaVersion": "3.3.4",
  "updatedAt": "2022-09-01T08:30:19.370Z",
  "devdoc": {
    "details": "This contract set the user share ratio, system share ratio, compound the interests",
    "kind": "dev",
    "methods": {
      "_setCfxCountOfOneVote(uint256)": {
        "params": {
          "count": "Vote cfx count, unit is cfx"
        }
      },
      "owner()": {
        "details": "Returns the address of the current owner."
      },
      "renounceOwnership()": {
        "details": "Leaves the contract without owner. It will not be possible to call `onlyOwner` functions anymore. Can only be called by the current owner. NOTE: Renouncing ownership will leave the contract without an owner, thereby removing any functionality that is only available to the owner."
      },
      "transferOwnership(address)": {
        "details": "Transfers ownership of the contract to a new account (`newOwner`). Can only be called by the current owner."
      }
    },
    "title": "CoreBridge_multipool is a bridge to connect Conflux POS pools and Exchange rooms ,deployed in core;",
    "version": 1
  },
  "userdoc": {
    "kind": "user",
    "methods": {},
    "notice": "Users cann't direct use this contract to participate Conflux PoS stake.",
    "version": 1
  }
}