{
  "contractName": "Exchangeroom",
  "abi": [
    {
      "anonymous": false,
      "inputs": [
        {
          "indexed": true,
          "internalType": "address",
          "name": "user",
          "type": "address"
        },
        {
          "indexed": false,
          "internalType": "uint256",
          "name": "votePower",
          "type": "uint256"
        }
      ],
      "name": "DecreasePoSStake",
      "type": "event"
    },
    {
      "anonymous": false,
      "inputs": [
        {
          "indexed": true,
          "internalType": "address",
          "name": "user",
          "type": "address"
        },
        {
          "indexed": false,
          "internalType": "uint256",
          "name": "votePower",
          "type": "uint256"
        }
      ],
      "name": "IncreasePoSStake",
      "type": "event"
    },
    {
      "anonymous": false,
      "inputs": [
        {
          "indexed": true,
          "internalType": "address",
          "name": "previousOwner",
          "type": "address"
        },
        {
          "indexed": true,
          "internalType": "address",
          "name": "newOwner",
          "type": "address"
        }
      ],
      "name": "OwnershipTransferred",
      "type": "event"
    },
    {
      "anonymous": false,
      "inputs": [
        {
          "indexed": true,
          "internalType": "address",
          "name": "user",
          "type": "address"
        },
        {
          "indexed": false,
          "internalType": "uint256",
          "name": "votePower",
          "type": "uint256"
        }
      ],
      "name": "WithdrawStake",
      "type": "event"
    },
    {
      "stateMutability": "payable",
      "type": "fallback"
    },
    {
      "inputs": [],
      "name": "_poolLockPeriod_fast",
      "outputs": [
        {
          "internalType": "uint256",
          "name": "",
          "type": "uint256"
        }
      ],
      "stateMutability": "view",
      "type": "function"
    },
    {
      "inputs": [],
      "name": "_poolLockPeriod_slow",
      "outputs": [
        {
          "internalType": "uint256",
          "name": "",
          "type": "uint256"
        }
      ],
      "stateMutability": "view",
      "type": "function"
    },
    {
      "inputs": [],
      "name": "admin_addr",
      "outputs": [
        {
          "internalType": "address",
          "name": "",
          "type": "address"
        }
      ],
      "stateMutability": "view",
      "type": "function"
    },
    {
      "inputs": [],
      "name": "birdgeAddrSetted",
      "outputs": [
        {
          "internalType": "bool",
          "name": "",
          "type": "bool"
        }
      ],
      "stateMutability": "view",
      "type": "function"
    },
    {
      "inputs": [],
      "name": "owner",
      "outputs": [
        {
          "internalType": "address",
          "name": "",
          "type": "address"
        }
      ],
      "stateMutability": "view",
      "type": "function"
    },
    {
      "inputs": [],
      "name": "owner_addr",
      "outputs": [
        {
          "internalType": "address",
          "name": "",
          "type": "address"
        }
      ],
      "stateMutability": "view",
      "type": "function"
    },
    {
      "inputs": [],
      "name": "poolName",
      "outputs": [
        {
          "internalType": "string",
          "name": "",
          "type": "string"
        }
      ],
      "stateMutability": "view",
      "type": "function"
    },
    {
      "inputs": [],
      "name": "renounceOwnership",
      "outputs": [],
      "stateMutability": "nonpayable",
      "type": "function"
    },
    {
      "inputs": [
        {
          "internalType": "address",
          "name": "newOwner",
          "type": "address"
        }
      ],
      "name": "transferOwnership",
      "outputs": [],
      "stateMutability": "nonpayable",
      "type": "function"
    },
    {
      "inputs": [],
      "name": "unstakeQueue",
      "outputs": [
        {
          "internalType": "uint256",
          "name": "start",
          "type": "uint256"
        },
        {
          "internalType": "uint256",
          "name": "end",
          "type": "uint256"
        }
      ],
      "stateMutability": "view",
      "type": "function"
    },
    {
      "stateMutability": "payable",
      "type": "receive"
    },
    {
      "inputs": [],
      "name": "initialize",
      "outputs": [],
      "stateMutability": "nonpayable",
      "type": "function"
    },
    {
      "inputs": [
        {
          "internalType": "address",
          "name": "_XCFX_addr",
          "type": "address"
        },
        {
          "internalType": "address",
          "name": "_S_addr",
          "type": "address"
        }
      ],
      "name": "set_Settings",
      "outputs": [],
      "stateMutability": "nonpayable",
      "type": "function"
    },
    {
      "inputs": [],
      "name": "get_Settings",
      "outputs": [
        {
          "internalType": "address",
          "name": "",
          "type": "address"
        },
        {
          "internalType": "address",
          "name": "",
          "type": "address"
        }
      ],
      "stateMutability": "view",
      "type": "function"
    },
    {
      "inputs": [
        {
          "internalType": "uint256",
          "name": "_amount",
          "type": "uint256"
        }
      ],
      "name": "CFX_exchange_estim",
      "outputs": [
        {
          "internalType": "uint256",
          "name": "",
          "type": "uint256"
        }
      ],
      "stateMutability": "view",
      "type": "function"
    },
    {
      "inputs": [],
      "name": "CFX_exchange_XCFX",
      "outputs": [],
      "stateMutability": "payable",
      "type": "function"
    },
    {
      "inputs": [
        {
          "internalType": "uint256",
          "name": "_amount",
          "type": "uint256"
        }
      ],
      "name": "XCFX_burn_estim",
      "outputs": [
        {
          "internalType": "uint256",
          "name": "",
          "type": "uint256"
        }
      ],
      "stateMutability": "view",
      "type": "function"
    },
    {
      "inputs": [
        {
          "internalType": "uint256",
          "name": "_amount",
          "type": "uint256"
        }
      ],
      "name": "XCFX_burn",
      "outputs": [
        {
          "internalType": "uint256",
          "name": "",
          "type": "uint256"
        }
      ],
      "stateMutability": "nonpayable",
      "type": "function"
    },
    {
      "inputs": [
        {
          "internalType": "uint256",
          "name": "_amount",
          "type": "uint256"
        }
      ],
      "name": "getback_CFX",
      "outputs": [],
      "stateMutability": "nonpayable",
      "type": "function"
    },
    {
      "inputs": [
        {
          "internalType": "address",
          "name": "_user",
          "type": "address"
        }
      ],
      "name": "userSummary",
      "outputs": [
        {
          "components": [
            {
              "internalType": "uint256",
              "name": "unlocking",
              "type": "uint256"
            },
            {
              "internalType": "uint256",
              "name": "unlocked",
              "type": "uint256"
            }
          ],
          "internalType": "struct Exchangeroom.UserSummary",
          "name": "",
          "type": "tuple"
        }
      ],
      "stateMutability": "view",
      "type": "function"
    },
    {
      "inputs": [],
      "name": "Summary",
      "outputs": [
        {
          "components": [
            {
              "internalType": "uint256",
              "name": "totalxcfxs",
              "type": "uint256"
            },
            {
              "internalType": "uint256",
              "name": "xcfxvalues",
              "type": "uint256"
            },
            {
              "internalType": "uint256",
              "name": "alloflockedvotes",
              "type": "uint256"
            },
            {
              "internalType": "uint256",
              "name": "xCFXincrease",
              "type": "uint256"
            },
            {
              "internalType": "uint256",
              "name": "unlockingCFX",
              "type": "uint256"
            }
          ],
          "internalType": "struct Exchangeroom.ExchangeSummary",
          "name": "",
          "type": "tuple"
        }
      ],
      "stateMutability": "view",
      "type": "function"
    },
    {
      "inputs": [
        {
          "internalType": "address",
          "name": "account",
          "type": "address"
        }
      ],
      "name": "userOutQueue",
      "outputs": [
        {
          "components": [
            {
              "internalType": "uint256",
              "name": "votePower",
              "type": "uint256"
            },
            {
              "internalType": "uint256",
              "name": "endBlock",
              "type": "uint256"
            }
          ],
          "internalType": "struct VotePowerQueue.QueueNode[]",
          "name": "",
          "type": "tuple[]"
        }
      ],
      "stateMutability": "view",
      "type": "function"
    },
    {
      "inputs": [
        {
          "internalType": "uint64",
          "name": "_a",
          "type": "uint64"
        },
        {
          "internalType": "uint64",
          "name": "_b",
          "type": "uint64"
        }
      ],
      "name": "setLockPeriod",
      "outputs": [],
      "stateMutability": "nonpayable",
      "type": "function"
    },
    {
      "inputs": [
        {
          "internalType": "uint256",
          "name": "count",
          "type": "uint256"
        }
      ],
      "name": "setCfxCountOfOneVote",
      "outputs": [],
      "stateMutability": "nonpayable",
      "type": "function"
    },
    {
      "inputs": [
        {
          "internalType": "address",
          "name": "bridgeAddress",
          "type": "address"
        }
      ],
      "name": "setBridge",
      "outputs": [],
      "stateMutability": "nonpayable",
      "type": "function"
    },
    {
      "inputs": [],
      "name": "getBridge",
      "outputs": [
        {
          "internalType": "address",
          "name": "",
          "type": "address"
        }
      ],
      "stateMutability": "view",
      "type": "function"
    },
    {
      "inputs": [
        {
          "internalType": "string",
          "name": "name",
          "type": "string"
        }
      ],
      "name": "setPoolName",
      "outputs": [],
      "stateMutability": "nonpayable",
      "type": "function"
    },
    {
      "inputs": [],
      "name": "handlexCFXadd",
      "outputs": [
        {
          "internalType": "uint256",
          "name": "",
          "type": "uint256"
        }
      ],
      "stateMutability": "nonpayable",
      "type": "function"
    },
    {
      "inputs": [],
      "name": "handleUnstake",
      "outputs": [
        {
          "internalType": "uint256",
          "name": "",
          "type": "uint256"
        }
      ],
      "stateMutability": "nonpayable",
      "type": "function"
    },
    {
      "inputs": [],
      "name": "unstakeLen",
      "outputs": [
        {
          "internalType": "uint256",
          "name": "",
          "type": "uint256"
        }
      ],
      "stateMutability": "view",
      "type": "function"
    },
    {
      "inputs": [],
      "name": "firstUnstakeVotes",
      "outputs": [
        {
          "internalType": "uint256",
          "name": "",
          "type": "uint256"
        }
      ],
      "stateMutability": "view",
      "type": "function"
    },
    {
      "inputs": [
        {
          "internalType": "uint256",
          "name": "_cfxvalue",
          "type": "uint256"
        }
      ],
      "name": "setxCFXValue",
      "outputs": [
        {
          "internalType": "uint256",
          "name": "",
          "type": "uint256"
        }
      ],
      "stateMutability": "nonpayable",
      "type": "function"
    },
    {
      "inputs": [],
      "name": "receiveInterest",
      "outputs": [],
      "stateMutability": "payable",
      "type": "function"
    }
  ],
  "bytecode": "0x60806040526103e8600155683635c9adc5dea00000600255600e6201518062000029919062000183565b6004556002620151806200003e919062000183565b6005556000600b60006101000a81548173ffffffffffffffffffffffffffffffffffffffff021916908373ffffffffffffffffffffffffffffffffffffffff1602179055503480156200009057600080fd5b50620000b1620000a5620000b760201b60201c565b620000bf60201b60201c565b6200021d565b600033905090565b60008060009054906101000a900473ffffffffffffffffffffffffffffffffffffffff169050816000806101000a81548173ffffffffffffffffffffffffffffffffffffffff021916908373ffffffffffffffffffffffffffffffffffffffff1602179055508173ffffffffffffffffffffffffffffffffffffffff168173ffffffffffffffffffffffffffffffffffffffff167f8be0079c531659141344cd1fd0a4f28419497f9722a3daafe3b4186f6b6457e060405160405180910390a35050565b60006200019082620001e4565b91506200019d83620001e4565b9250817fffffffffffffffffffffffffffffffffffffffffffffffffffffffffffffffff0483118215151615620001d957620001d8620001ee565b5b828202905092915050565b6000819050919050565b7f4e487b7100000000000000000000000000000000000000000000000000000000600052601160045260246000fd5b6134c3806200022d6000396000f3fe6080604052600436106101e75760003560e01c806384c07b5d11610102578063c134e96511610095578063da02d10011610064578063da02d1001461068a578063e3d5b233146106b5578063f2fde38b146106f2578063f3466dfa1461071b576101ee565b8063c134e965146105dd578063c7ff5d6e14610608578063c805354214610633578063d43af51c1461065f576101ee565b80638dd14802116100d15780638dd148021461053757806396b6b59d14610560578063ac177df114610589578063b295ad2b146105b4576101ee565b806384c07b5d146104795780638d294225146104b65780638d597859146104e15780638da5cb5b1461050c576101ee565b80634a990ba91161017a578063715018a611610149578063715018a6146103f957806372b654241461041057806377c9d593146104395780638129fc1c14610462576101ee565b80634a990ba91461036f5780636283c50b1461039b57806366f355db146103c657806368eca7f9146103ef576101ee565b806321e2f533116101b657806321e2f533146102ae57806324a3bbe2146102eb5780634337e4bf1461032857806347108abc14610332576101ee565b806309fcd230146101f05780630ddf0ef11461021b5780630e08e702146102585780630fffbaf314610283576101ee565b366101ee57005b005b3480156101fc57600080fd5b50610205610746565b6040516102129190612df5565b60405180910390f35b34801561022757600080fd5b50610242600480360381019061023d9190612790565b610788565b60405161024f9190612df5565b60405180910390f35b34801561026457600080fd5b5061026d6107a9565b60405161027a9190612df5565b60405180910390f35b34801561028f57600080fd5b5061029861089a565b6040516102a59190612b73565b60405180910390f35b3480156102ba57600080fd5b506102d560048036038101906102d09190612790565b6108c4565b6040516102e29190612df5565b60405180910390f35b3480156102f757600080fd5b50610312600480360381019061030d91906126ea565b61096d565b60405161031f9190612be0565b60405180910390f35b6103306109bd565b005b34801561033e57600080fd5b5061035960048036038101906103549190612790565b610a4f565b6040516103669190612df5565b60405180910390f35b34801561037b57600080fd5b50610384611091565b604051610392929190612e10565b60405180910390f35b3480156103a757600080fd5b506103b06110a3565b6040516103bd9190612c02565b60405180910390f35b3480156103d257600080fd5b506103ed60048036038101906103e89190612790565b6110b6565b005b6103f7611111565b005b34801561040557600080fd5b5061040e611391565b005b34801561041c57600080fd5b506104376004803603810190610432919061274f565b611419565b005b34801561044557600080fd5b50610460600480360381019061045b91906127e2565b6114af565b005b34801561046e57600080fd5b50610477611551565b005b34801561048557600080fd5b506104a0600480360381019061049b9190612790565b6116be565b6040516104ad9190612df5565b60405180910390f35b3480156104c257600080fd5b506104cb6116df565b6040516104d89190612dbf565b60405180910390f35b3480156104ed57600080fd5b506104f661172b565b6040516105039190612df5565b60405180910390f35b34801561051857600080fd5b50610521611731565b60405161052e9190612b73565b60405180910390f35b34801561054357600080fd5b5061055e600480360381019061055991906126ea565b61175a565b005b34801561056c57600080fd5b5061058760048036038101906105829190612790565b611835565b005b34801561059557600080fd5b5061059e6118d5565b6040516105ab9190612b73565b60405180910390f35b3480156105c057600080fd5b506105db60048036038101906105d69190612713565b6118fb565b005b3480156105e957600080fd5b506105f26119fd565b6040516105ff9190612df5565b60405180910390f35b34801561061457600080fd5b5061061d611a03565b60405161062a9190612df5565b60405180910390f35b34801561063f57600080fd5b50610648611a20565b604051610656929190612b8e565b60405180910390f35b34801561066b57600080fd5b50610674611a71565b6040516106819190612b73565b60405180910390f35b34801561069657600080fd5b5061069f611a97565b6040516106ac9190612df5565b60405180910390f35b3480156106c157600080fd5b506106dc60048036038101906106d791906126ea565b611b88565b6040516106e99190612dda565b60405180910390f35b3480156106fe57600080fd5b50610719600480360381019061071491906126ea565b611c79565b005b34801561072757600080fd5b50610730611d71565b60405161073d9190612c1d565b60405180910390f35b600060156000015460156001015414156107635760009050610785565b6015600201600060156000015481526020019081526020016000206000015490505b90565b60006107a2600c6001015483611dff90919063ffffffff16565b9050919050565b6000600360019054906101000a900473ffffffffffffffffffffffffffffffffffffffff1673ffffffffffffffffffffffffffffffffffffffff163373ffffffffffffffffffffffffffffffffffffffff161461083b576040517f08c379a000000000000000000000000000000000000000000000000000000000815260040161083290612d9f565b60405180910390fd5b6000600c60030154905060008111610888576040517f08c379a000000000000000000000000000000000000000000000000000000000815260040161087f90612cdf565b60405180910390fd5b6000600c600301819055508091505090565b6000600360019054906101000a900473ffffffffffffffffffffffffffffffffffffffff16905090565b6000600360019054906101000a900473ffffffffffffffffffffffffffffffffffffffff1673ffffffffffffffffffffffffffffffffffffffff163373ffffffffffffffffffffffffffffffffffffffff1614610956576040517f08c379a000000000000000000000000000000000000000000000000000000000815260040161094d90612d9f565b60405180910390fd5b81600c60010181905550600c600101549050919050565b60606109b6601860008473ffffffffffffffffffffffffffffffffffffffff1673ffffffffffffffffffffffffffffffffffffffff168152602001908152602001600020611e15565b9050919050565b600360019054906101000a900473ffffffffffffffffffffffffffffffffffffffff1673ffffffffffffffffffffffffffffffffffffffff163373ffffffffffffffffffffffffffffffffffffffff1614610a4d576040517f08c379a0000000000000000000000000000000000000000000000000000000008152600401610a4490612d9f565b60405180910390fd5b565b6000600360009054906101000a900460ff16610aa0576040517f08c379a0000000000000000000000000000000000000000000000000000000008152600401610a9790612cbf565b60405180910390fd5b600960009054906101000a900473ffffffffffffffffffffffffffffffffffffffff1673ffffffffffffffffffffffffffffffffffffffff166370a08231336040518263ffffffff1660e01b8152600401610afb9190612b73565b60206040518083038186803b158015610b1357600080fd5b505afa158015610b27573d6000803e3d6000fd5b505050506040513d601f19601f82011682018060405250810190610b4b91906127b9565b821115610b8d576040517f08c379a0000000000000000000000000000000000000000000000000000000008152600401610b8490612c9f565b60405180910390fd5b600960009054906101000a900473ffffffffffffffffffffffffffffffffffffffff1673ffffffffffffffffffffffffffffffffffffffff166318160ddd6040518163ffffffff1660e01b815260040160206040518083038186803b158015610bf557600080fd5b505afa158015610c09573d6000803e3d6000fd5b505050506040513d601f19601f82011682018060405250810190610c2d91906127b9565b600c60000181905550600080610c42846116be565b9050610c88600c600401546002610c599190612f6b565b610c7a683635c9adc5dea00000600c60020154611f6290919063ffffffff16565b611dff90919063ffffffff16565b8111610c975760019150610cfb565b610cb8683635c9adc5dea00000600c60000154611f6290919063ffffffff16565b811115610cfa576040517f08c379a0000000000000000000000000000000000000000000000000000000008152600401610cf190612d3f565b60405180910390fd5b5b83600c6000016000828254610d109190612fc5565b9250508190555080600c6004016000828254610d2c9190612ee4565b92505081905550610d556040518060200160405280838152506015611f7890919063ffffffff16565b600960009054906101000a900473ffffffffffffffffffffffffffffffffffffffff1673ffffffffffffffffffffffffffffffffffffffff16630d1118ce33866040518363ffffffff1660e01b8152600401610db2929190612bb7565b600060405180830381600087803b158015610dcc57600080fd5b505af1158015610de0573d6000803e3d6000fd5b505050506001821415610e6b57610e666040518060400160405280838152602001600554610e0c611fb7565b610e169190612ee4565b815250601860003373ffffffffffffffffffffffffffffffffffffffff1673ffffffffffffffffffffffffffffffffffffffff168152602001908152602001600020611fbf90919063ffffffff16565b610ee5565b610ee46040518060400160405280838152602001600454610e8a611fb7565b610e949190612ee4565b815250601860003373ffffffffffffffffffffffffffffffffffffffff1673ffffffffffffffffffffffffffffffffffffffff168152602001908152602001600020611fbf90919063ffffffff16565b5b80601160003373ffffffffffffffffffffffffffffffffffffffff1673ffffffffffffffffffffffffffffffffffffffff1681526020019081526020016000206000016000828254610f379190612ee4565b925050819055506000610f87601860003373ffffffffffffffffffffffffffffffffffffffff1673ffffffffffffffffffffffffffffffffffffffff168152602001908152602001600020612008565b905080601160003373ffffffffffffffffffffffffffffffffffffffff1673ffffffffffffffffffffffffffffffffffffffff1681526020019081526020016000206001016000828254610fdb9190612ee4565b9250508190555080601160003373ffffffffffffffffffffffffffffffffffffffff1673ffffffffffffffffffffffffffffffffffffffff16815260200190815260200160002060000160008282546110349190612fc5565b925050819055503373ffffffffffffffffffffffffffffffffffffffff167fd81524ca5b038be9f98b286808a6f46f99c8700bce9ab4793dc12a2dbaa4f2d8866040516110819190612df5565b60405180910390a2505050919050565b60158060000154908060010154905082565b600360009054906101000a900460ff1681565b600360009054906101000a900460ff16611105576040517f08c379a00000000000000000000000000000000000000000000000000000000081526004016110fc90612cbf565b60405180910390fd5b61110e81612097565b50565b60003411611154576040517f08c379a000000000000000000000000000000000000000000000000000000000815260040161114b90612d7f565b60405180910390fd5b600960009054906101000a900473ffffffffffffffffffffffffffffffffffffffff1673ffffffffffffffffffffffffffffffffffffffff166318160ddd6040518163ffffffff1660e01b815260040160206040518083038186803b1580156111bc57600080fd5b505afa1580156111d0573d6000803e3d6000fd5b505050506040513d601f19601f820116820180604052508101906111f491906127b9565b600c600001819055506000600360019054906101000a900473ffffffffffffffffffffffffffffffffffffffff1690508073ffffffffffffffffffffffffffffffffffffffff166108fc349081150290604051600060405180830381858888f1935050505015801561126a573d6000803e3d6000fd5b50600061127634610788565b9050600960009054906101000a900473ffffffffffffffffffffffffffffffffffffffff1673ffffffffffffffffffffffffffffffffffffffff16636039fbdb33836040518363ffffffff1660e01b81526004016112d5929190612bb7565b600060405180830381600087803b1580156112ef57600080fd5b505af1158015611303573d6000803e3d6000fd5b5050505080600c600001600082825461131c9190612ee4565b9250508190555080600c60030160008282546113389190612ee4565b925050819055503373ffffffffffffffffffffffffffffffffffffffff167ff5ebfcde71acb15a758233f0c9ab25632209399b90a9209a4f2379ec5fcee89f346040516113859190612df5565b60405180910390a25050565b61139961234a565b73ffffffffffffffffffffffffffffffffffffffff166113b7611731565b73ffffffffffffffffffffffffffffffffffffffff161461140d576040517f08c379a000000000000000000000000000000000000000000000000000000000815260040161140490612d1f565b60405180910390fd5b6114176000612352565b565b61142161234a565b73ffffffffffffffffffffffffffffffffffffffff1661143f611731565b73ffffffffffffffffffffffffffffffffffffffff1614611495576040517f08c379a000000000000000000000000000000000000000000000000000000000815260040161148c90612d1f565b60405180910390fd5b80600690805190602001906114ab929190612528565b5050565b6114b761234a565b73ffffffffffffffffffffffffffffffffffffffff166114d5611731565b73ffffffffffffffffffffffffffffffffffffffff161461152b576040517f08c379a000000000000000000000000000000000000000000000000000000000815260040161152290612d1f565b60405180910390fd5b8167ffffffffffffffff166004819055508067ffffffffffffffff166005819055505050565b600060159054906101000a900460ff16806115795750600060149054906101000a900460ff16155b6115b8576040517f08c379a00000000000000000000000000000000000000000000000000000000081526004016115af90612cff565b60405180910390fd5b60008060159054906101000a900460ff161590508015611609576001600060156101000a81548160ff0219169083151502179055506001600060146101000a81548160ff0219169083151502179055505b6103e8600181905550683635c9adc5dea0000060028190555033600760006101000a81548173ffffffffffffffffffffffffffffffffffffffff021916908373ffffffffffffffffffffffffffffffffffffffff1602179055506001600c60010181905550600e6201518061167e9190612f6b565b6004819055506002620151806116949190612f6b565b60058190555080156116bb5760008060156101000a81548160ff0219169083151502179055505b50565b60006116d8600c6001015483611f6290919063ffffffff16565b9050919050565b6116e76125ae565b600c6040518060a001604052908160008201548152602001600182015481526020016002820154815260200160038201548152602001600482015481525050905090565b60055481565b60008060009054906101000a900473ffffffffffffffffffffffffffffffffffffffff16905090565b61176261234a565b73ffffffffffffffffffffffffffffffffffffffff16611780611731565b73ffffffffffffffffffffffffffffffffffffffff16146117d6576040517f08c379a00000000000000000000000000000000000000000000000000000000081526004016117cd90612d1f565b60405180910390fd5b80600360016101000a81548173ffffffffffffffffffffffffffffffffffffffff021916908373ffffffffffffffffffffffffffffffffffffffff1602179055506001600360006101000a81548160ff02191690831515021790555050565b61183d61234a565b73ffffffffffffffffffffffffffffffffffffffff1661185b611731565b73ffffffffffffffffffffffffffffffffffffffff16146118b1576040517f08c379a00000000000000000000000000000000000000000000000000000000081526004016118a890612d1f565b60405180910390fd5b80600181905550670de0b6b3a7640000816118cc9190612f6b565b60028190555050565b600860009054906101000a900473ffffffffffffffffffffffffffffffffffffffff1681565b61190361234a565b73ffffffffffffffffffffffffffffffffffffffff16611921611731565b73ffffffffffffffffffffffffffffffffffffffff1614611977576040517f08c379a000000000000000000000000000000000000000000000000000000000815260040161196e90612d1f565b60405180910390fd5b81600960006101000a81548173ffffffffffffffffffffffffffffffffffffffff021916908373ffffffffffffffffffffffffffffffffffffffff16021790555080600a60006101000a81548173ffffffffffffffffffffffffffffffffffffffff021916908373ffffffffffffffffffffffffffffffffffffffff1602179055505050565b60045481565b6000601560000154601560010154611a1b9190612fc5565b905090565b600080600960009054906101000a900473ffffffffffffffffffffffffffffffffffffffff16600a60009054906101000a900473ffffffffffffffffffffffffffffffffffffffff16915091509091565b600760009054906101000a900473ffffffffffffffffffffffffffffffffffffffff1681565b6000600360019054906101000a900473ffffffffffffffffffffffffffffffffffffffff1673ffffffffffffffffffffffffffffffffffffffff163373ffffffffffffffffffffffffffffffffffffffff1614611b29576040517f08c379a0000000000000000000000000000000000000000000000000000000008152600401611b2090612d9f565b60405180910390fd5b6000600c60040154905060008111611b76576040517f08c379a0000000000000000000000000000000000000000000000000000000008152600401611b6d90612d5f565b60405180910390fd5b6000600c600401819055508091505090565b611b906125dd565b6000601160008473ffffffffffffffffffffffffffffffffffffffff1673ffffffffffffffffffffffffffffffffffffffff1681526020019081526020016000206040518060400160405290816000820154815260200160018201548152505090506000611c3b601860008673ffffffffffffffffffffffffffffffffffffffff1673ffffffffffffffffffffffffffffffffffffffff168152602001908152602001600020612416565b90508082602001818151611c4f9190612ee4565b915081815250508082600001818151611c689190612fc5565b915081815250508192505050919050565b611c8161234a565b73ffffffffffffffffffffffffffffffffffffffff16611c9f611731565b73ffffffffffffffffffffffffffffffffffffffff1614611cf5576040517f08c379a0000000000000000000000000000000000000000000000000000000008152600401611cec90612d1f565b60405180910390fd5b600073ffffffffffffffffffffffffffffffffffffffff168173ffffffffffffffffffffffffffffffffffffffff161415611d65576040517f08c379a0000000000000000000000000000000000000000000000000000000008152600401611d5c90612c5f565b60405180910390fd5b611d6e81612352565b50565b60068054611d7e90613097565b80601f0160208091040260200160405190810160405280929190818152602001828054611daa90613097565b8015611df75780601f10611dcc57610100808354040283529160200191611df7565b820191906000526020600020905b815481529060010190602001808311611dda57829003601f168201915b505050505081565b60008183611e0d9190612f3a565b905092915050565b6060600082600001548360010154611e2d9190612fc5565b67ffffffffffffffff811115611e6c577f4e487b7100000000000000000000000000000000000000000000000000000000600052604160045260246000fd5b604051908082528060200260200182016040528015611ea557816020015b611e926125f7565b815260200190600190039081611e8a5790505b5090506000836000015490505b8360010154811015611f58578360020160008281526020019081526020016000206040518060400160405290816000820154815260200160018201548152505082856000015483611f039190612fc5565b81518110611f3a577f4e487b7100000000000000000000000000000000000000000000000000000000600052603260045260246000fd5b60200260200101819052508080611f50906130fa565b915050611eb2565b5080915050919050565b60008183611f709190612f6b565b905092915050565b80826002016000846001016000815480929190611f94906130fa565b919050558152602001908152602001600020600082015181600001559050505050565b600043905090565b80826002016000846001016000815480929190611fdb906130fa565b91905055815260200190815260200160002060008201518160000155602082015181600101559050505050565b600080600090506000836000015490505b836001015481101561208d574384600201600083815260200190815260200160002060010154111561204a5761208d565b836002016000828152602001908152602001600020600001548261206e9190612ee4565b91506120798461249b565b508080612085906130fa565b915050612019565b5080915050919050565b600360009054906101000a900460ff166120e6576040517f08c379a00000000000000000000000000000000000000000000000000000000081526004016120dd90612cbf565b60405180910390fd5b80471015612129576040517f08c379a000000000000000000000000000000000000000000000000000000000815260040161212090612c7f565b60405180910390fd5b6000612172601860003373ffffffffffffffffffffffffffffffffffffffff1673ffffffffffffffffffffffffffffffffffffffff168152602001908152602001600020612008565b905080601160003373ffffffffffffffffffffffffffffffffffffffff1673ffffffffffffffffffffffffffffffffffffffff16815260200190815260200160002060010160008282546121c69190612ee4565b9250508190555080601160003373ffffffffffffffffffffffffffffffffffffffff1673ffffffffffffffffffffffffffffffffffffffff168152602001908152602001600020600001600082825461221f9190612fc5565b9250508190555081601160003373ffffffffffffffffffffffffffffffffffffffff1673ffffffffffffffffffffffffffffffffffffffff1681526020019081526020016000206001015410156122ab576040517f08c379a00000000000000000000000000000000000000000000000000000000081526004016122a290612c3f565b60405180910390fd5b60003390508073ffffffffffffffffffffffffffffffffffffffff166108fc849081150290604051600060405180830381858888f193505050501580156122f6573d6000803e3d6000fd5b503373ffffffffffffffffffffffffffffffffffffffff167f141ef67c4a6d3ec2adfb2f66d33c2b11de5b4f34344757554d430570b18a92ec8460405161233d9190612df5565b60405180910390a2505050565b600033905090565b60008060009054906101000a900473ffffffffffffffffffffffffffffffffffffffff169050816000806101000a81548173ffffffffffffffffffffffffffffffffffffffff021916908373ffffffffffffffffffffffffffffffffffffffff1602179055508173ffffffffffffffffffffffffffffffffffffffff168173ffffffffffffffffffffffffffffffffffffffff167f8be0079c531659141344cd1fd0a4f28419497f9722a3daafe3b4186f6b6457e060405160405180910390a35050565b600080600090506000836000015490505b8360010154811015612491574384600201600083815260200190815260200160002060010154111561245857612491565b836002016000828152602001908152602001600020600001548261247c9190612ee4565b91508080612489906130fa565b915050612427565b5080915050919050565b6124a36125f7565b6000826002016000846000015481526020019081526020016000206040518060400160405290816000820154815260200160018201548152505090508260020160008460000160008154809291906124fa906130fa565b9190505581526020019081526020016000206000808201600090556001820160009055505080915050919050565b82805461253490613097565b90600052602060002090601f016020900481019282612556576000855561259d565b82601f1061256f57805160ff191683800117855561259d565b8280016001018555821561259d579182015b8281111561259c578251825591602001919060010190612581565b5b5090506125aa9190612611565b5090565b6040518060a0016040528060008152602001600081526020016000815260200160008152602001600081525090565b604051806040016040528060008152602001600081525090565b604051806040016040528060008152602001600081525090565b5b8082111561262a576000816000905550600101612612565b5090565b600061264161263c84612e5e565b612e39565b90508281526020810184848401111561265957600080fd5b612664848285613055565b509392505050565b60008135905061267b81613448565b92915050565b600082601f83011261269257600080fd5b81356126a284826020860161262e565b91505092915050565b6000813590506126ba8161345f565b92915050565b6000815190506126cf8161345f565b92915050565b6000813590506126e481613476565b92915050565b6000602082840312156126fc57600080fd5b600061270a8482850161266c565b91505092915050565b6000806040838503121561272657600080fd5b60006127348582860161266c565b92505060206127458582860161266c565b9150509250929050565b60006020828403121561276157600080fd5b600082013567ffffffffffffffff81111561277b57600080fd5b61278784828501612681565b91505092915050565b6000602082840312156127a257600080fd5b60006127b0848285016126ab565b91505092915050565b6000602082840312156127cb57600080fd5b60006127d9848285016126c0565b91505092915050565b600080604083850312156127f557600080fd5b6000612803858286016126d5565b9250506020612814858286016126d5565b9150509250929050565b600061282a8383612af7565b60408301905092915050565b61283f81612ff9565b82525050565b600061285082612e9f565b61285a8185612ec2565b935061286583612e8f565b8060005b8381101561289657815161287d888261281e565b975061288883612eb5565b925050600181019050612869565b5085935050505092915050565b6128ac8161300b565b82525050565b60006128bd82612eaa565b6128c78185612ed3565b93506128d7818560208601613064565b6128e0816131ff565b840191505092915050565b60006128f8601f83612ed3565b915061290382613210565b602082019050919050565b600061291b602683612ed3565b915061292682613239565b604082019050919050565b600061293e601f83612ed3565b915061294982613288565b602082019050919050565b6000612961601883612ed3565b915061296c826132b1565b602082019050919050565b6000612984601283612ed3565b915061298f826132da565b602082019050919050565b60006129a7601683612ed3565b91506129b282613303565b602082019050919050565b60006129ca602e83612ed3565b91506129d58261332c565b604082019050919050565b60006129ed602083612ed3565b91506129f88261337b565b602082019050919050565b6000612a10601583612ed3565b9150612a1b826133a4565b602082019050919050565b6000612a33601583612ed3565b9150612a3e826133cd565b602082019050919050565b6000612a56600883612ed3565b9150612a61826133f6565b602082019050919050565b6000612a79601683612ed3565b9150612a848261341f565b602082019050919050565b60a082016000820151612aa56000850182612b55565b506020820151612ab86020850182612b55565b506040820151612acb6040850182612b55565b506060820151612ade6060850182612b55565b506080820151612af16080850182612b55565b50505050565b604082016000820151612b0d6000850182612b55565b506020820151612b206020850182612b55565b50505050565b604082016000820151612b3c6000850182612b55565b506020820151612b4f6020850182612b55565b50505050565b612b5e81613037565b82525050565b612b6d81613037565b82525050565b6000602082019050612b886000830184612836565b92915050565b6000604082019050612ba36000830185612836565b612bb06020830184612836565b9392505050565b6000604082019050612bcc6000830185612836565b612bd96020830184612b64565b9392505050565b60006020820190508181036000830152612bfa8184612845565b905092915050565b6000602082019050612c1760008301846128a3565b92915050565b60006020820190508181036000830152612c3781846128b2565b905092915050565b60006020820190508181036000830152612c58816128eb565b9050919050565b60006020820190508181036000830152612c788161290e565b9050919050565b60006020820190508181036000830152612c9881612931565b9050919050565b60006020820190508181036000830152612cb881612954565b9050919050565b60006020820190508181036000830152612cd881612977565b9050919050565b60006020820190508181036000830152612cf88161299a565b9050919050565b60006020820190508181036000830152612d18816129bd565b9050919050565b60006020820190508181036000830152612d38816129e0565b9050919050565b60006020820190508181036000830152612d5881612a03565b9050919050565b60006020820190508181036000830152612d7881612a26565b9050919050565b60006020820190508181036000830152612d9881612a49565b9050919050565b60006020820190508181036000830152612db881612a6c565b9050919050565b600060a082019050612dd46000830184612a8f565b92915050565b6000604082019050612def6000830184612b26565b92915050565b6000602082019050612e0a6000830184612b64565b92915050565b6000604082019050612e256000830185612b64565b612e326020830184612b64565b9392505050565b6000612e43612e54565b9050612e4f82826130c9565b919050565b6000604051905090565b600067ffffffffffffffff821115612e7957612e786131d0565b5b612e82826131ff565b9050602081019050919050565b6000819050602082019050919050565b600081519050919050565b600081519050919050565b6000602082019050919050565b600082825260208201905092915050565b600082825260208201905092915050565b6000612eef82613037565b9150612efa83613037565b9250827fffffffffffffffffffffffffffffffffffffffffffffffffffffffffffffffff03821115612f2f57612f2e613143565b5b828201905092915050565b6000612f4582613037565b9150612f5083613037565b925082612f6057612f5f613172565b5b828204905092915050565b6000612f7682613037565b9150612f8183613037565b9250817fffffffffffffffffffffffffffffffffffffffffffffffffffffffffffffffff0483118215151615612fba57612fb9613143565b5b828202905092915050565b6000612fd082613037565b9150612fdb83613037565b925082821015612fee57612fed613143565b5b828203905092915050565b600061300482613017565b9050919050565b60008115159050919050565b600073ffffffffffffffffffffffffffffffffffffffff82169050919050565b6000819050919050565b600067ffffffffffffffff82169050919050565b82818337600083830152505050565b60005b83811015613082578082015181840152602081019050613067565b83811115613091576000848401525b50505050565b600060028204905060018216806130af57607f821691505b602082108114156130c3576130c26131a1565b5b50919050565b6130d2826131ff565b810181811067ffffffffffffffff821117156130f1576130f06131d0565b5b80604052505050565b600061310582613037565b91507fffffffffffffffffffffffffffffffffffffffffffffffffffffffffffffffff82141561313857613137613143565b5b600182019050919050565b7f4e487b7100000000000000000000000000000000000000000000000000000000600052601160045260246000fd5b7f4e487b7100000000000000000000000000000000000000000000000000000000600052601260045260246000fd5b7f4e487b7100000000000000000000000000000000000000000000000000000000600052602260045260246000fd5b7f4e487b7100000000000000000000000000000000000000000000000000000000600052604160045260246000fd5b6000601f19601f8301169050919050565b7f796f757220556e6c6f636b656420434658206973206e6f7420656e6f75676800600082015250565b7f4f776e61626c653a206e6577206f776e657220697320746865207a65726f206160008201527f6464726573730000000000000000000000000000000000000000000000000000602082015250565b7f706f6f6c20556e6c6f636b656420434658206973206e6f7420656e6f75676800600082015250565b7f45786365656420796f757220784346582062616c616e63650000000000000000600082015250565b7f506f6f6c206973206e6f74207365747465640000000000000000000000000000600082015250565b7f784346582068617665206e6f7420696e63726561736500000000000000000000600082015250565b7f496e697469616c697a61626c653a20636f6e747261637420697320616c72656160008201527f647920696e697469616c697a6564000000000000000000000000000000000000602082015250565b7f4f776e61626c653a2063616c6c6572206973206e6f7420746865206f776e6572600082015250565b7f4578636565642065786368616e6765206c696d69740000000000000000000000600082015250565b7f4346582068617665206e6f742064656372656173650000000000000000000000600082015250565b7f6d757374203e2030000000000000000000000000000000000000000000000000600082015250565b7f4f6e6c792062726964676520697320616c6c6f77656400000000000000000000600082015250565b61345181612ff9565b811461345c57600080fd5b50565b61346881613037565b811461347357600080fd5b50565b61347f81613041565b811461348a57600080fd5b5056fea2646970667358221220aeb08f5e159f341ce6af90d1174554b4f5680b9bdfbe0f34222618b615c188cc64736f6c63430008020033",
  "immutableReferences": {},
  "source": "//SPDX-License-Identifier: BUSL-1.1\r\n\r\npragma solidity ^0.8.0;\r\n\r\nimport \"@openzeppelin/contracts/token/ERC20/ERC20.sol\";\r\nimport \"@openzeppelin/contracts/access/Ownable.sol\";\r\nimport \"@openzeppelin/contracts/utils/math/SafeMath.sol\";\r\nimport \"@openzeppelin/contracts/utils/structs/EnumerableSet.sol\";\r\nimport \"@openzeppelin/contracts/proxy/utils/Initializable.sol\";\r\nimport \"../VotePowerQueue.sol\";\r\nimport \"./UnstakeQueueCFX.sol\";\r\ninterface XCFXExchange{\r\n    function addTokens(address _to, uint256 _value) external;\r\n    function burnTokens(address account, uint256 amount) external;\r\n    function balanceOf(address account) external view returns(uint256);\r\n    function totalSupply() external view returns(uint256);\r\n}\r\n\r\n///\r\n///  @title Exchange room\r\n///\r\ncontract Exchangeroom is Ownable,Initializable {\r\n  using SafeMath for uint256;\r\n  using EnumerableSet for EnumerableSet.AddressSet;\r\n  using VotePowerQueue for VotePowerQueue.InOutQueue;\r\n  using UnstakeQueueCFX for UnstakeQueueCFX.Queue;\r\n\r\n  uint256 private constant RATIO_BASE = 10000;\r\n  uint256 private constant ONE_DAY_BLOCK_COUNT = 3600 * 24;\r\n  uint256 private CFX_COUNT_OF_ONE_VOTE = 1000;\r\n  uint256 private CFX_VALUE_OF_ONE_VOTE = 1000 ether;\r\n  \r\n  \r\n  // ======================== Pool config =========================\r\n  // wheter this poolContract registed in PoS\r\n  bool public birdgeAddrSetted;\r\n  address private _bridgeAddress;\r\n\r\n  // lock period: 14 days\r\n  uint256 public _poolLockPeriod_slow = ONE_DAY_BLOCK_COUNT * 14;\r\n  uint256 public _poolLockPeriod_fast = ONE_DAY_BLOCK_COUNT * 2;\r\n  string public poolName; // = \"UNCLEON HUB\";\r\n   // ======================== xCFX use ===================================\r\n  address public owner_addr;\r\n  address public admin_addr;\r\n\r\n  address XCFX_address;\r\n  address Storage_addr;\r\n\r\n  address zero_addr=address(0x0000000000000000000000000000000000000000);\r\n\r\n  // ======================== Struct definitions =========================\r\n\r\n  /// @title ExchangeSummary\r\n  /// @custom:field totalxcfxs\r\n  /// @custom:field totalinterests\r\n  /// @custom:field cfxstillinstore\r\n  /// @custom:field remainedcfx\r\n  struct ExchangeSummary {\r\n    uint256 totalxcfxs;\r\n    uint256 xcfxvalues;\r\n    uint256 alloflockedvotes;\r\n    uint256 xCFXincrease;\r\n    uint256 unlockingCFX;\r\n  }\r\n\r\n  /// @title UserSummary\r\n  /// @custom:field unlocking\r\n  /// @custom:field unlocked\r\n  struct UserSummary {\r\n    uint256 unlocking;\r\n    uint256 unlocked;\r\n  }\r\n\r\n  // ======================== Contract states =========================\r\n  ExchangeSummary private _exchangeSummary;\r\n  //PoolAccounts private _poolAccounts;\r\n  mapping(address => UserSummary) private userSummaries;\r\n  \r\n  VotePowerQueue.InOutQueue private Inqueues;\r\n  //VotePowerQueue.InOutQueue private Outqueues;\r\n  // Unstake votes queue\r\n  UnstakeQueueCFX.Queue public unstakeQueue;  //private--debug\r\n\r\n  mapping(address => VotePowerQueue.InOutQueue) private userOutqueues;\r\n\r\n  // ======================== Modifiers =========================\r\n  modifier onlyRegisted() {\r\n    require(birdgeAddrSetted, \"Pool is not setted\");\r\n    _;\r\n  }\r\n  modifier onlyBridge() {\r\n    //require(isContract(msg.sender),\"bridge is contracts\");\r\n    require(msg.sender == _bridgeAddress, \"Only bridge is allowed\");\r\n    _;\r\n  }\r\n  // ======================== Helpers =========================\r\n  function _selfBalance() internal view virtual returns (uint256) {\r\n    return address(this).balance;\r\n  }\r\n\r\n  function _blockNumber() internal view virtual returns (uint256) {\r\n    return block.number;\r\n  }\r\n  // ======================== Events =========================\r\n\r\n  event IncreasePoSStake(address indexed user, uint256 votePower);\r\n\r\n  event DecreasePoSStake(address indexed user, uint256 votePower);\r\n\r\n  event WithdrawStake(address indexed user, uint256 votePower);\r\n\r\n  // ======================== Init methods =========================\r\n\r\n  // call this method when depoly the 1967 proxy contract\r\n  function initialize() public initializer {\r\n    CFX_COUNT_OF_ONE_VOTE = 1000;\r\n    CFX_VALUE_OF_ONE_VOTE = 1000 ether;\r\n    //poolUserShareRatio = 9000;\r\n    owner_addr = msg.sender;\r\n    _exchangeSummary.xcfxvalues = 1;\r\n    _poolLockPeriod_slow = ONE_DAY_BLOCK_COUNT * 14;\r\n    _poolLockPeriod_fast = ONE_DAY_BLOCK_COUNT * 2;\r\n  }\r\n\r\n  // ======================== Contract methods =========================\r\n\r\n  function set_Settings(address _XCFX_addr,address _S_addr) external onlyOwner {\r\n        XCFX_address = _XCFX_addr;\r\n        Storage_addr = _S_addr;\r\n    }  \r\n\r\n  function get_Settings() external view returns(address,address){\r\n    return (XCFX_address,Storage_addr);\r\n    }\r\n\r\n  //\r\n  // @title CFX_exchange_estim\r\n  // @dev _amount The amount of CFX to stake\r\n  // return xCFX numbers can get\r\n  function CFX_exchange_estim(uint256 _amount) public view returns(uint256){\r\n    return _amount.div(_exchangeSummary.xcfxvalues);\r\n    }\r\n\r\n  function CFX_exchange_XCFX() external payable {\r\n    require(msg.value>0 , 'must > 0');\r\n    _exchangeSummary.totalxcfxs = XCFXExchange(XCFX_address).totalSupply();\r\n\r\n    address payable receiver = payable(_bridgeAddress);\r\n    receiver.transfer(msg.value);\r\n    uint256 xcfx_exchange = CFX_exchange_estim(msg.value);\r\n    XCFXExchange(XCFX_address).addTokens(msg.sender, xcfx_exchange);\r\n\r\n    _exchangeSummary.totalxcfxs += xcfx_exchange;\r\n    _exchangeSummary.xCFXincrease += xcfx_exchange;\r\n    emit IncreasePoSStake(msg.sender, msg.value);\r\n  }\r\n\r\n  function XCFX_burn_estim(uint256 _amount) public view returns(uint256){\r\n    return _amount.mul(_exchangeSummary.xcfxvalues);\r\n    }\r\n\r\n  function XCFX_burn(uint256 _amount) public virtual onlyRegisted returns(uint256){\r\n    require(_amount<=XCFXExchange(XCFX_address).balanceOf(msg.sender),\"Exceed your xCFX balance\");\r\n    _exchangeSummary.totalxcfxs = XCFXExchange(XCFX_address).totalSupply();\r\n    uint256 _mode = 0;\r\n    uint256 cfx_back = XCFX_burn_estim(_amount);\r\n    if(cfx_back<=_exchangeSummary.alloflockedvotes.mul(1000 ether).div(2*_exchangeSummary.unlockingCFX)){\r\n      _mode=1;\r\n    }\r\n    else {\r\n      require(cfx_back<=_exchangeSummary.totalxcfxs.mul(1000 ether),\"Exceed exchange limit\");\r\n    }\r\n    _exchangeSummary.totalxcfxs -= _amount;\r\n    _exchangeSummary.unlockingCFX += cfx_back;\r\n    unstakeQueue.enqueue(UnstakeQueueCFX.Node(cfx_back));\r\n    XCFXExchange(XCFX_address).burnTokens(msg.sender, _amount);\r\n\r\n    //uint256 unstakeVotePowers;\r\n    if(_mode == 1){\r\n      userOutqueues[msg.sender].enqueue(VotePowerQueue.QueueNode(cfx_back, _blockNumber() + _poolLockPeriod_fast));\r\n      //Outqueues[msg.sender].enqueue(VotePowerQueue.QueueNode(_amount, _blockNumber() + _poolLockPeriod_fast));\r\n      }\r\n    else{\r\n      userOutqueues[msg.sender].enqueue(VotePowerQueue.QueueNode(cfx_back, _blockNumber() + _poolLockPeriod_slow));\r\n      //Outqueues[msg.sender].enqueue(VotePowerQueue.QueueNode(_amount, _blockNumber() + _poolLockPeriod_slow));\r\n    }\r\n    \r\n    userSummaries[msg.sender].unlocking += cfx_back;\r\n    \r\n    uint256 temp_amount = userOutqueues[msg.sender].collectEndedVotes();\r\n    userSummaries[msg.sender].unlocked += temp_amount;\r\n    userSummaries[msg.sender].unlocking -= temp_amount;\r\n\r\n    emit DecreasePoSStake(msg.sender, _amount);\r\n  }\r\n\r\n  function getback_CFX(uint256 _amount) public virtual onlyRegisted {\r\n     withdraw(_amount);\r\n  }\r\n\r\n  ///\r\n  /// @notice Withdraw CFX\r\n  /// @param _amount The amount of CFX to withdraw\r\n  ///\r\n  function withdraw(uint256 _amount) private onlyRegisted {\r\n    require(address(this).balance>=_amount,\"pool Unlocked CFX is not enough\");\r\n    uint256 temp_amount = userOutqueues[msg.sender].collectEndedVotes();\r\n    userSummaries[msg.sender].unlocked += temp_amount;\r\n    userSummaries[msg.sender].unlocking -= temp_amount;\r\n\r\n    require(userSummaries[msg.sender].unlocked >= _amount, \"your Unlocked CFX is not enough\");\r\n    \r\n    address payable receiver = payable(msg.sender);\r\n    receiver.transfer(_amount);\r\n    emit WithdrawStake(msg.sender, _amount);\r\n  }\r\n\r\n  /// \r\n  /// @notice Get user's pool summary\r\n  /// @param _user The address of user to query\r\n  /// @return User's summary\r\n  ///\r\n  function userSummary(address _user) public view returns (UserSummary memory) {\r\n    UserSummary memory summary = userSummaries[_user];\r\n    uint256 temp_amount =userOutqueues[_user].sumEndedVotes();\r\n    summary.unlocked += temp_amount;\r\n    summary.unlocking -= temp_amount;\r\n    return summary;\r\n  }\r\n\r\n  function Summary() public view returns (ExchangeSummary memory) {\r\n    return _exchangeSummary;\r\n  }\r\n\r\n  function userOutQueue(address account) public view returns (VotePowerQueue.QueueNode[] memory) {\r\n    return userOutqueues[account].queueItems();\r\n  }\r\n\r\n  // ======================== admin methods =====================\r\n\r\n  /// \r\n  /// @notice Enable admin to set the lock and unlock period\r\n  /// @dev Only admin can do this\r\n  ///\r\n  function setLockPeriod(uint64 _a,uint64 _b) public onlyOwner {\r\n    _poolLockPeriod_slow = _a;\r\n    _poolLockPeriod_fast = _b;\r\n  }\r\n\r\n  /// @param count Vote cfx count, unit is cfx\r\n  function setCfxCountOfOneVote(uint256 count) public onlyOwner {\r\n    CFX_COUNT_OF_ONE_VOTE = count;\r\n    CFX_VALUE_OF_ONE_VOTE = count * 1 ether;\r\n  }\r\n\r\n  function setBridge(address bridgeAddress) public onlyOwner {\r\n    _bridgeAddress = bridgeAddress;\r\n    birdgeAddrSetted = true;\r\n  }\r\n  function getBridge() public view returns(address){\r\n    return _bridgeAddress;\r\n  }\r\n\r\n  function setPoolName(string memory name) public onlyOwner {\r\n    poolName = name;\r\n  }\r\n\r\n  // ======================== cross space bridge methods =====================\r\n  \r\n  function handlexCFXadd() public onlyBridge returns(uint256 ){\r\n    uint256 temp_stake = _exchangeSummary.xCFXincrease ;\r\n    require( temp_stake > 0, \"xCFX have not increase\");\r\n     _exchangeSummary.xCFXincrease = 0;\r\n     return temp_stake;\r\n  }\r\n\r\n  function handleUnstake() public onlyBridge returns (uint256) {\r\n    uint256 temp_unstake = _exchangeSummary.unlockingCFX;\r\n    require( temp_unstake > 0, \"CFX have not decrease\");\r\n     _exchangeSummary.unlockingCFX = 0;\r\n     return temp_unstake;\r\n  }\r\n\r\n  function unstakeLen() public view returns (uint256) {\r\n    return unstakeQueue.end - unstakeQueue.start;\r\n  }\r\n\r\n  function firstUnstakeVotes() public view returns (uint256) {\r\n    if (unstakeQueue.end == unstakeQueue.start) {\r\n      return 0;\r\n    }\r\n    return unstakeQueue.items[unstakeQueue.start].CFXs;\r\n  }\r\n\r\n  function setxCFXValue(uint256 _cfxvalue) public onlyBridge returns (uint256){\r\n    _exchangeSummary.xcfxvalues = _cfxvalue;\r\n    // struct ExchangeSummary {\r\n    // uint256 totalxcfxs;\r\n    // uint256 xcfxvalues;\r\n    // uint256 alloflockedvotes;\r\n    // uint256 xCFXincrease;\r\n    // uint256 unlockingCFX;\r\n    // }\r\n    return  _exchangeSummary.xcfxvalues;\r\n  }\r\n\r\n  function isContract(address account) internal view returns (bool) {\r\n        // This method relies on extcodesize/address.code.length, which returns 0\r\n        // for contracts in construction, since the code is only stored at the end\r\n        // of the constructor execution.\r\n\r\n        return account.code.length > 0;\r\n  }\r\n\r\n  // receive interest\r\n  function receiveInterest() public payable onlyBridge {}\r\n\r\n  fallback() external payable {}\r\n  receive() external payable {}\r\n\r\n}",
  "sourcePath": "C:/Users/artii/Conflux Studio/minpos/contracts/eSpace/eSpacePoSPoolmini.sol",
  "compiler": {
    "name": "solc",
    "version": "0.8.2+commit.661d1103.Emscripten.clang"
  },
  "schemaVersion": "3.3.4",
  "updatedAt": "2022-08-14T15:54:49.126Z",
  "devdoc": {
    "kind": "dev",
    "methods": {
      "owner()": {
        "details": "Returns the address of the current owner."
      },
      "renounceOwnership()": {
        "details": "Leaves the contract without owner. It will not be possible to call `onlyOwner` functions anymore. Can only be called by the current owner. NOTE: Renouncing ownership will leave the contract without an owner, thereby removing any functionality that is only available to the owner."
      },
      "setCfxCountOfOneVote(uint256)": {
        "params": {
          "count": "Vote cfx count, unit is cfx"
        }
      },
      "setLockPeriod(uint64,uint64)": {
        "details": "Only admin can do this"
      },
      "transferOwnership(address)": {
        "details": "Transfers ownership of the contract to a new account (`newOwner`). Can only be called by the current owner."
      },
      "userSummary(address)": {
        "params": {
          "_user": "The address of user to query"
        },
        "returns": {
          "_0": "User's summary"
        }
      }
    },
    "title": "Exchange room",
    "version": 1
  },
  "userdoc": {
    "kind": "user",
    "methods": {
      "setLockPeriod(uint64,uint64)": {
        "notice": "Enable admin to set the lock and unlock period"
      },
      "userSummary(address)": {
        "notice": "Get user's pool summary"
      }
    },
    "version": 1
  }
}