{
  "contractName": "interests_storage",
  "abi": [
    {
      "anonymous": false,
      "inputs": [
        {
          "indexed": true,
          "internalType": "address",
          "name": "previousOwner",
          "type": "address"
        },
        {
          "indexed": true,
          "internalType": "address",
          "name": "newOwner",
          "type": "address"
        }
      ],
      "name": "OwnershipTransferred",
      "type": "event"
    },
    {
      "stateMutability": "payable",
      "type": "fallback"
    },
    {
      "inputs": [],
      "name": "owner",
      "outputs": [
        {
          "internalType": "address",
          "name": "",
          "type": "address"
        }
      ],
      "stateMutability": "view",
      "type": "function"
    },
    {
      "inputs": [],
      "name": "renounceOwnership",
      "outputs": [],
      "stateMutability": "nonpayable",
      "type": "function"
    },
    {
      "inputs": [
        {
          "internalType": "address",
          "name": "newOwner",
          "type": "address"
        }
      ],
      "name": "transferOwnership",
      "outputs": [],
      "stateMutability": "nonpayable",
      "type": "function"
    },
    {
      "stateMutability": "payable",
      "type": "receive"
    },
    {
      "inputs": [
        {
          "internalType": "address",
          "name": "_addr",
          "type": "address"
        }
      ],
      "name": "tranferto",
      "outputs": [],
      "stateMutability": "payable",
      "type": "function"
    },
    {
      "inputs": [
        {
          "internalType": "address",
          "name": "_addr",
          "type": "address"
        }
      ],
      "name": "setbridge",
      "outputs": [],
      "stateMutability": "nonpayable",
      "type": "function"
    },
    {
      "inputs": [
        {
          "internalType": "address",
          "name": "_addr",
          "type": "address"
        }
      ],
      "name": "setinterest",
      "outputs": [],
      "stateMutability": "nonpayable",
      "type": "function"
    }
  ],
  "bytecode": "0x608060405234801561001057600080fd5b5061002d61002261003260201b60201c565b61003a60201b60201c565b6100fe565b600033905090565b60008060009054906101000a900473ffffffffffffffffffffffffffffffffffffffff169050816000806101000a81548173ffffffffffffffffffffffffffffffffffffffff021916908373ffffffffffffffffffffffffffffffffffffffff1602179055508173ffffffffffffffffffffffffffffffffffffffff168173ffffffffffffffffffffffffffffffffffffffff167f8be0079c531659141344cd1fd0a4f28419497f9722a3daafe3b4186f6b6457e060405160405180910390a35050565b6108948061010d6000396000f3fe6080604052600436106100595760003560e01c806322e2a9eb14610062578063715018a61461007e57806388e09c01146100955780638da5cb5b146100be578063c77ec6d0146100e9578063f2fde38b1461011257610060565b3661006057005b005b61007c60048036038101906100779190610647565b61013b565b005b34801561008a57600080fd5b5061009361023d565b005b3480156100a157600080fd5b506100bc60048036038101906100b79190610647565b6102c5565b005b3480156100ca57600080fd5b506100d3610385565b6040516100e091906106e8565b60405180910390f35b3480156100f557600080fd5b50610110600480360381019061010b9190610647565b6103ae565b005b34801561011e57600080fd5b5061013960048036038101906101349190610647565b61046e565b005b600160009054906101000a900473ffffffffffffffffffffffffffffffffffffffff1673ffffffffffffffffffffffffffffffffffffffff163373ffffffffffffffffffffffffffffffffffffffff16146101cb576040517f08c379a00000000000000000000000000000000000000000000000000000000081526004016101c290610743565b60405180910390fd5b6000600260009054906101000a900473ffffffffffffffffffffffffffffffffffffffff1690508073ffffffffffffffffffffffffffffffffffffffff166108fc349081150290604051600060405180830381858888f19350505050158015610238573d6000803e3d6000fd5b505050565b610245610566565b73ffffffffffffffffffffffffffffffffffffffff16610263610385565b73ffffffffffffffffffffffffffffffffffffffff16146102b9576040517f08c379a00000000000000000000000000000000000000000000000000000000081526004016102b090610723565b60405180910390fd5b6102c3600061056e565b565b6102cd610566565b73ffffffffffffffffffffffffffffffffffffffff166102eb610385565b73ffffffffffffffffffffffffffffffffffffffff1614610341576040517f08c379a000000000000000000000000000000000000000000000000000000000815260040161033890610723565b60405180910390fd5b80600260006101000a81548173ffffffffffffffffffffffffffffffffffffffff021916908373ffffffffffffffffffffffffffffffffffffffff16021790555050565b60008060009054906101000a900473ffffffffffffffffffffffffffffffffffffffff16905090565b6103b6610566565b73ffffffffffffffffffffffffffffffffffffffff166103d4610385565b73ffffffffffffffffffffffffffffffffffffffff161461042a576040517f08c379a000000000000000000000000000000000000000000000000000000000815260040161042190610723565b60405180910390fd5b80600160006101000a81548173ffffffffffffffffffffffffffffffffffffffff021916908373ffffffffffffffffffffffffffffffffffffffff16021790555050565b610476610566565b73ffffffffffffffffffffffffffffffffffffffff16610494610385565b73ffffffffffffffffffffffffffffffffffffffff16146104ea576040517f08c379a00000000000000000000000000000000000000000000000000000000081526004016104e190610723565b60405180910390fd5b600073ffffffffffffffffffffffffffffffffffffffff168173ffffffffffffffffffffffffffffffffffffffff16141561055a576040517f08c379a000000000000000000000000000000000000000000000000000000000815260040161055190610703565b60405180910390fd5b6105638161056e565b50565b600033905090565b60008060009054906101000a900473ffffffffffffffffffffffffffffffffffffffff169050816000806101000a81548173ffffffffffffffffffffffffffffffffffffffff021916908373ffffffffffffffffffffffffffffffffffffffff1602179055508173ffffffffffffffffffffffffffffffffffffffff168173ffffffffffffffffffffffffffffffffffffffff167f8be0079c531659141344cd1fd0a4f28419497f9722a3daafe3b4186f6b6457e060405160405180910390a35050565b60008135905061064181610847565b92915050565b60006020828403121561065957600080fd5b600061066784828501610632565b91505092915050565b61067981610774565b82525050565b600061068c602683610763565b9150610697826107a6565b604082019050919050565b60006106af602083610763565b91506106ba826107f5565b602082019050919050565b60006106d2601683610763565b91506106dd8261081e565b602082019050919050565b60006020820190506106fd6000830184610670565b92915050565b6000602082019050818103600083015261071c8161067f565b9050919050565b6000602082019050818103600083015261073c816106a2565b9050919050565b6000602082019050818103600083015261075c816106c5565b9050919050565b600082825260208201905092915050565b600061077f82610786565b9050919050565b600073ffffffffffffffffffffffffffffffffffffffff82169050919050565b7f4f776e61626c653a206e6577206f776e657220697320746865207a65726f206160008201527f6464726573730000000000000000000000000000000000000000000000000000602082015250565b7f4f776e61626c653a2063616c6c6572206973206e6f7420746865206f776e6572600082015250565b7f4f6e6c792062726964676520697320616c6c6f77656400000000000000000000600082015250565b61085081610774565b811461085b57600080fd5b5056fea2646970667358221220ec1a640c4184f0dffe2ea6e2511e9f0c06ee8fa5f3c1de6f4c4d76a9146ba97c64736f6c63430008020033",
  "immutableReferences": {},
  "source": "//SPDX-License-Identifier: BUSL-1.1\r\npragma solidity ^0.8.0;\r\n//import \"@openzeppelin/contracts/utils/math/SafeMath.sol\";\r\nimport \"@openzeppelin/contracts/access/Ownable.sol\";\r\nimport \"../ICrossSpaceCall.sol\";\r\nimport \"../IPoSPool.sol\";\r\n\r\ncontract interests_storage is Ownable {\r\n  address _bridgeAddress;\r\n  address _interestAddress;\r\n  modifier onlyBridge() {\r\n    require(msg.sender == _bridgeAddress, \"Only bridge is allowed\");\r\n    _;\r\n  }\r\n  \r\n  function tranferto(address _addr) payable external onlyBridge{\r\n    address payable receiver = payable(_interestAddress);\r\n    receiver.transfer(msg.value);\r\n\r\n  }\r\n  function setbridge(address _addr) public onlyOwner{\r\n    _bridgeAddress = _addr;\r\n  }\r\n  function setinterest(address _addr) public onlyOwner{\r\n    _interestAddress = _addr;\r\n  }\r\n  fallback() external payable {}\r\n  receive() external payable {}\r\n}",
  "sourcePath": "C:/Users/artii/Conflux Studio/minpos/contracts/eSpace/bridge_storage_interests.sol",
  "compiler": {
    "name": "solc",
    "version": "0.8.2+commit.661d1103.Emscripten.clang"
  },
  "schemaVersion": "3.3.4",
  "updatedAt": "2022-08-14T15:54:48.939Z",
  "devdoc": {
    "kind": "dev",
    "methods": {
      "owner()": {
        "details": "Returns the address of the current owner."
      },
      "renounceOwnership()": {
        "details": "Leaves the contract without owner. It will not be possible to call `onlyOwner` functions anymore. Can only be called by the current owner. NOTE: Renouncing ownership will leave the contract without an owner, thereby removing any functionality that is only available to the owner."
      },
      "transferOwnership(address)": {
        "details": "Transfers ownership of the contract to a new account (`newOwner`). Can only be called by the current owner."
      }
    },
    "version": 1
  },
  "userdoc": {
    "kind": "user",
    "methods": {},
    "version": 1
  }
}