{
  "contractName": "MockStaking",
  "abi": [
    {
      "inputs": [],
      "stateMutability": "nonpayable",
      "type": "constructor"
    },
    {
      "inputs": [
        {
          "internalType": "address",
          "name": "user",
          "type": "address"
        }
      ],
      "name": "getStakingBalance",
      "outputs": [
        {
          "internalType": "uint256",
          "name": "",
          "type": "uint256"
        }
      ],
      "stateMutability": "view",
      "type": "function"
    },
    {
      "inputs": [
        {
          "internalType": "uint256",
          "name": "amount",
          "type": "uint256"
        }
      ],
      "name": "deposit",
      "outputs": [],
      "stateMutability": "payable",
      "type": "function"
    },
    {
      "inputs": [
        {
          "internalType": "uint256",
          "name": "amount",
          "type": "uint256"
        }
      ],
      "name": "withdraw",
      "outputs": [],
      "stateMutability": "nonpayable",
      "type": "function"
    },
    {
      "inputs": [
        {
          "internalType": "address",
          "name": "user",
          "type": "address"
        },
        {
          "internalType": "uint256",
          "name": "blockNumber",
          "type": "uint256"
        }
      ],
      "name": "getLockedStakingBalance",
      "outputs": [
        {
          "internalType": "uint256",
          "name": "",
          "type": "uint256"
        }
      ],
      "stateMutability": "pure",
      "type": "function"
    },
    {
      "inputs": [
        {
          "internalType": "address",
          "name": "user",
          "type": "address"
        },
        {
          "internalType": "uint256",
          "name": "blockNumber",
          "type": "uint256"
        }
      ],
      "name": "getVotePower",
      "outputs": [
        {
          "internalType": "uint256",
          "name": "",
          "type": "uint256"
        }
      ],
      "stateMutability": "pure",
      "type": "function"
    },
    {
      "inputs": [
        {
          "internalType": "uint256",
          "name": "amount",
          "type": "uint256"
        },
        {
          "internalType": "uint256",
          "name": "unlockBlockNumber",
          "type": "uint256"
        }
      ],
      "name": "voteLock",
      "outputs": [],
      "stateMutability": "nonpayable",
      "type": "function"
    },
    {
      "inputs": [],
      "name": "_addInterest",
      "outputs": [],
      "stateMutability": "payable",
      "type": "function"
    },
    {
      "inputs": [
        {
          "internalType": "address",
          "name": "_user",
          "type": "address"
        },
        {
          "internalType": "uint256",
          "name": "_value",
          "type": "uint256"
        }
      ],
      "name": "_sendUserInterest",
      "outputs": [],
      "stateMutability": "payable",
      "type": "function"
    }
  ],
  "bytecode": "0x608060405234801561001057600080fd5b50336000806101000a81548173ffffffffffffffffffffffffffffffffffffffff021916908373ffffffffffffffffffffffffffffffffffffffff160217905550610bd8806100606000396000f3fe60806040526004361061007b5760003560e01c8063b3657ee71161004e578063b3657ee71461012b578063b6b55f2514610168578063c90abac814610184578063ffd6c7c3146101c15761007b565b80632e1a7d4d1461008057806344a51d6d146100a95780637317141a146100d2578063b04ef9c2146100ee575b600080fd5b34801561008c57600080fd5b506100a760048036038101906100a29190610769565b6101cb565b005b3480156100b557600080fd5b506100d060048036038101906100cb9190610792565b610332565b005b6100ec60048036038101906100e7919061072d565b610377565b005b3480156100fa57600080fd5b5061011560048036038101906101109190610704565b6104eb565b604051610122919061092c565b60405180910390f35b34801561013757600080fd5b50610152600480360381019061014d919061072d565b610534565b60405161015f919061092c565b60405180910390f35b610182600480360381019061017d9190610769565b61053c565b005b34801561019057600080fd5b506101ab60048036038101906101a6919061072d565b610616565b6040516101b8919061092c565b60405180910390f35b6101c961061e565b005b80600160003373ffffffffffffffffffffffffffffffffffffffff1673ffffffffffffffffffffffffffffffffffffffff16815260200190815260200160002054101561024d576040517f08c379a0000000000000000000000000000000000000000000000000000000008152600401610244906108ac565b60405180910390fd5b61029f81600160003373ffffffffffffffffffffffffffffffffffffffff1673ffffffffffffffffffffffffffffffffffffffff168152602001908152602001600020546106ae90919063ffffffff16565b600160003373ffffffffffffffffffffffffffffffffffffffff1673ffffffffffffffffffffffffffffffffffffffff1681526020019081526020016000208190555060003390508073ffffffffffffffffffffffffffffffffffffffff166108fc839081150290604051600060405180830381858888f1935050505015801561032d573d6000803e3d6000fd5b505050565b6000610373576040517f08c379a000000000000000000000000000000000000000000000000000000000815260040161036a906108cc565b60405180910390fd5b5050565b60008054906101000a900473ffffffffffffffffffffffffffffffffffffffff1673ffffffffffffffffffffffffffffffffffffffff163373ffffffffffffffffffffffffffffffffffffffff1614610405576040517f08c379a00000000000000000000000000000000000000000000000000000000081526004016103fc9061090c565b60405180910390fd5b6000600160008473ffffffffffffffffffffffffffffffffffffffff1673ffffffffffffffffffffffffffffffffffffffff1681526020019081526020016000205411610487576040517f08c379a000000000000000000000000000000000000000000000000000000000815260040161047e9061088c565b60405180910390fd5b60008290508073ffffffffffffffffffffffffffffffffffffffff166108fc670de0b6b3a7640000846104ba91906109ae565b9081150290604051600060405180830381858888f193505050501580156104e5573d6000803e3d6000fd5b50505050565b6000600160008373ffffffffffffffffffffffffffffffffffffffff1673ffffffffffffffffffffffffffffffffffffffff168152602001908152602001600020549050919050565b600092915050565b80341461057e576040517f08c379a0000000000000000000000000000000000000000000000000000000008152600401610575906108ec565b60405180910390fd5b6105d081600160003373ffffffffffffffffffffffffffffffffffffffff1673ffffffffffffffffffffffffffffffffffffffff168152602001908152602001600020546106c490919063ffffffff16565b600160003373ffffffffffffffffffffffffffffffffffffffff1673ffffffffffffffffffffffffffffffffffffffff1681526020019081526020016000208190555050565b600092915050565b60008054906101000a900473ffffffffffffffffffffffffffffffffffffffff1673ffffffffffffffffffffffffffffffffffffffff163373ffffffffffffffffffffffffffffffffffffffff16146106ac576040517f08c379a00000000000000000000000000000000000000000000000000000000081526004016106a39061090c565b60405180910390fd5b565b600081836106bc9190610a08565b905092915050565b600081836106d29190610958565b905092915050565b6000813590506106e981610b74565b92915050565b6000813590506106fe81610b8b565b92915050565b60006020828403121561071657600080fd5b6000610724848285016106da565b91505092915050565b6000806040838503121561074057600080fd5b600061074e858286016106da565b925050602061075f858286016106ef565b9150509250929050565b60006020828403121561077b57600080fd5b6000610789848285016106ef565b91505092915050565b600080604083850312156107a557600080fd5b60006107b3858286016106ef565b92505060206107c4858286016106ef565b9150509250929050565b60006107db601b83610947565b91506107e682610aa7565b602082019050919050565b60006107fe601483610947565b915061080982610ad0565b602082019050919050565b6000610821600f83610947565b915061082c82610af9565b602082019050919050565b6000610844600d83610947565b915061084f82610b22565b602082019050919050565b6000610867601b83610947565b915061087282610b4b565b602082019050919050565b61088681610a6e565b82525050565b600060208201905081810360008301526108a5816107ce565b9050919050565b600060208201905081810360008301526108c5816107f1565b9050919050565b600060208201905081810360008301526108e581610814565b9050919050565b6000602082019050818103600083015261090581610837565b9050919050565b600060208201905081810360008301526109258161085a565b9050919050565b6000602082019050610941600083018461087d565b92915050565b600082825260208201905092915050565b600061096382610a6e565b915061096e83610a6e565b9250827fffffffffffffffffffffffffffffffffffffffffffffffffffffffffffffffff038211156109a3576109a2610a78565b5b828201905092915050565b60006109b982610a6e565b91506109c483610a6e565b9250817fffffffffffffffffffffffffffffffffffffffffffffffffffffffffffffffff04831182151516156109fd576109fc610a78565b5b828202905092915050565b6000610a1382610a6e565b9150610a1e83610a6e565b925082821015610a3157610a30610a78565b5b828203905092915050565b6000610a4782610a4e565b9050919050565b600073ffffffffffffffffffffffffffffffffffffffff82169050919050565b6000819050919050565b7f4e487b7100000000000000000000000000000000000000000000000000000000600052601160045260246000fd5b7f5573657220686173206e6f207374616b696e672062616c616e63650000000000600082015250565b7f496e73756666696369656e742062616c616e6365000000000000000000000000600082015250565b7f4e6f7420696d706c656d656e7465640000000000000000000000000000000000600082015250565b7f496e76616c69642076616c756500000000000000000000000000000000000000600082015250565b7f4f6e6c792061646d696e2063616e2061646420696e7465726573740000000000600082015250565b610b7d81610a3c565b8114610b8857600080fd5b50565b610b9481610a6e565b8114610b9f57600080fd5b5056fea2646970667358221220a82710dd3e53b547e8ba3ae62460c98234e235d33018bbc013b75e454ab3c54064736f6c63430008020033",
  "immutableReferences": {},
  "source": "// SPDX-License-Identifier: MIT\r\npragma solidity >=0.8.0;\r\n\r\nimport \"@openzeppelin/contracts/utils/math/SafeMath.sol\";\r\n\r\ncontract MockStaking {\r\n    using SafeMath for uint256;\r\n\r\n    address private _admin;\r\n    mapping(address => uint256) private _userStakes;\r\n\r\n    constructor() {\r\n      _admin = msg.sender;\r\n    }\r\n\r\n    /*** Query Functions ***/\r\n    /**\r\n     * @dev get user's staking balance\r\n     * @param user The address of specific user\r\n     */\r\n    function getStakingBalance(address user) public view returns (uint256) {\r\n      return _userStakes[user];\r\n    }\r\n\r\n    // NOTE: need send ether when call this method\r\n    function deposit(uint256 amount) public payable {\r\n      require(msg.value == amount, \"Invalid value\");\r\n      _userStakes[msg.sender] = _userStakes[msg.sender].add(amount);\r\n    }\r\n\r\n    function withdraw(uint256 amount) public {\r\n      require(_userStakes[msg.sender] >= amount, \"Insufficient balance\");\r\n      _userStakes[msg.sender] = _userStakes[msg.sender].sub(amount);\r\n      address payable receiver = payable(msg.sender);\r\n      receiver.transfer(amount);\r\n    }\r\n\r\n    /**\r\n     * @dev get user's locked staking balance at given blockNumber\r\n     * @param user The address of specific user\r\n     * @param blockNumber The blockNumber as index.\r\n     */\r\n    function getLockedStakingBalance(address user, uint256 blockNumber) public pure returns (uint256) {\r\n      // TODO implement\r\n      return 0;\r\n    }\r\n\r\n    /**\r\n     * @dev get user's vote power staking balance at given blockNumber\r\n     * @param user The address of specific user\r\n     * @param blockNumber The blockNumber as index.\r\n     */\r\n    function getVotePower(address user, uint256 blockNumber) public pure returns (uint256) {\r\n      // TODO implement\r\n      return 0;\r\n    }\r\n\r\n    function voteLock(uint256 amount, uint256 unlockBlockNumber) external {\r\n      require(false, \"Not implemented\");\r\n      // TODO\r\n    }\r\n\r\n    // =================== Debug method ========================\r\n\r\n    function _addInterest() public payable {\r\n      require(msg.sender == _admin, \"Only admin can add interest\");\r\n    }\r\n\r\n    // send one user's interest\r\n    /* function _sendUserInterest(address _user) public payable {\r\n      require(msg.sender == _admin, \"Only admin can add interest\");\r\n      require(_userStakes[_user] > 0, \"User has no staking balance\");\r\n\r\n      uint256 interest = _userStakes[_user].mul(400).div(10000);  // TODO use a more realistic interest rate\r\n      address payable receiver = payable(_user);\r\n      receiver.transfer(interest);\r\n    } */\r\n\r\n    function _sendUserInterest(address _user, uint256 _value) public payable {\r\n      require(msg.sender == _admin, \"Only admin can add interest\");\r\n      require(_userStakes[_user] > 0, \"User has no staking balance\");\r\n\r\n      address payable receiver = payable(_user);\r\n      receiver.transfer(_value * 1 ether);\r\n    }\r\n}\r\n",
  "sourcePath": "C:\\Users\\artii\\Conflux Studio\\minpos\\contracts\\mocks\\Staking.sol",
  "compiler": {
    "name": "solc",
    "version": "0.8.2+commit.661d1103.Emscripten.clang"
  },
  "schemaVersion": "3.3.4",
  "updatedAt": "2022-08-14T15:54:49.203Z",
  "devdoc": {
    "kind": "dev",
    "methods": {
      "getLockedStakingBalance(address,uint256)": {
        "details": "get user's locked staking balance at given blockNumber",
        "params": {
          "blockNumber": "The blockNumber as index.",
          "user": "The address of specific user"
        }
      },
      "getStakingBalance(address)": {
        "details": "get user's staking balance",
        "params": {
          "user": "The address of specific user"
        }
      },
      "getVotePower(address,uint256)": {
        "details": "get user's vote power staking balance at given blockNumber",
        "params": {
          "blockNumber": "The blockNumber as index.",
          "user": "The address of specific user"
        }
      }
    },
    "version": 1
  },
  "userdoc": {
    "kind": "user",
    "methods": {},
    "version": 1
  }
}