{
  "contractName": "PoSPoolmini",
  "abi": [
    {
      "anonymous": false,
      "inputs": [
        {
          "indexed": true,
          "internalType": "address",
          "name": "user",
          "type": "address"
        },
        {
          "indexed": false,
          "internalType": "uint256",
          "name": "amount",
          "type": "uint256"
        }
      ],
      "name": "ClaimInterest",
      "type": "event"
    },
    {
      "anonymous": false,
      "inputs": [
        {
          "indexed": true,
          "internalType": "address",
          "name": "user",
          "type": "address"
        },
        {
          "indexed": false,
          "internalType": "uint256",
          "name": "votePower",
          "type": "uint256"
        }
      ],
      "name": "DecreasePoSStake",
      "type": "event"
    },
    {
      "anonymous": false,
      "inputs": [
        {
          "indexed": true,
          "internalType": "address",
          "name": "user",
          "type": "address"
        },
        {
          "indexed": false,
          "internalType": "uint256",
          "name": "votePower",
          "type": "uint256"
        }
      ],
      "name": "IncreasePoSStake",
      "type": "event"
    },
    {
      "anonymous": false,
      "inputs": [
        {
          "indexed": true,
          "internalType": "address",
          "name": "previousOwner",
          "type": "address"
        },
        {
          "indexed": true,
          "internalType": "address",
          "name": "newOwner",
          "type": "address"
        }
      ],
      "name": "OwnershipTransferred",
      "type": "event"
    },
    {
      "anonymous": false,
      "inputs": [
        {
          "indexed": true,
          "internalType": "address",
          "name": "user",
          "type": "address"
        },
        {
          "indexed": false,
          "internalType": "uint256",
          "name": "votePower",
          "type": "uint256"
        }
      ],
      "name": "WithdrawStake",
      "type": "event"
    },
    {
      "stateMutability": "payable",
      "type": "fallback"
    },
    {
      "inputs": [],
      "name": "_poolLockPeriod_in",
      "outputs": [
        {
          "internalType": "uint256",
          "name": "",
          "type": "uint256"
        }
      ],
      "stateMutability": "view",
      "type": "function"
    },
    {
      "inputs": [],
      "name": "_poolLockPeriod_out",
      "outputs": [
        {
          "internalType": "uint256",
          "name": "",
          "type": "uint256"
        }
      ],
      "stateMutability": "view",
      "type": "function"
    },
    {
      "inputs": [],
      "name": "_poolRegisted",
      "outputs": [
        {
          "internalType": "bool",
          "name": "",
          "type": "bool"
        }
      ],
      "stateMutability": "view",
      "type": "function"
    },
    {
      "inputs": [],
      "name": "owner",
      "outputs": [
        {
          "internalType": "address",
          "name": "",
          "type": "address"
        }
      ],
      "stateMutability": "view",
      "type": "function"
    },
    {
      "inputs": [],
      "name": "poolName",
      "outputs": [
        {
          "internalType": "string",
          "name": "",
          "type": "string"
        }
      ],
      "stateMutability": "view",
      "type": "function"
    },
    {
      "inputs": [],
      "name": "renounceOwnership",
      "outputs": [],
      "stateMutability": "nonpayable",
      "type": "function"
    },
    {
      "inputs": [
        {
          "internalType": "address",
          "name": "newOwner",
          "type": "address"
        }
      ],
      "name": "transferOwnership",
      "outputs": [],
      "stateMutability": "nonpayable",
      "type": "function"
    },
    {
      "stateMutability": "payable",
      "type": "receive"
    },
    {
      "inputs": [],
      "name": "initialize",
      "outputs": [],
      "stateMutability": "nonpayable",
      "type": "function"
    },
    {
      "inputs": [
        {
          "internalType": "bytes32",
          "name": "indentifier",
          "type": "bytes32"
        },
        {
          "internalType": "uint64",
          "name": "votePower",
          "type": "uint64"
        },
        {
          "internalType": "bytes",
          "name": "blsPubKey",
          "type": "bytes"
        },
        {
          "internalType": "bytes",
          "name": "vrfPubKey",
          "type": "bytes"
        },
        {
          "internalType": "bytes[2]",
          "name": "blsPubKeyProof",
          "type": "bytes[2]"
        }
      ],
      "name": "register",
      "outputs": [],
      "stateMutability": "payable",
      "type": "function"
    },
    {
      "inputs": [
        {
          "internalType": "uint64",
          "name": "votePower",
          "type": "uint64"
        }
      ],
      "name": "increaseStake",
      "outputs": [],
      "stateMutability": "payable",
      "type": "function"
    },
    {
      "inputs": [
        {
          "internalType": "uint64",
          "name": "votePower",
          "type": "uint64"
        }
      ],
      "name": "decreaseStake",
      "outputs": [],
      "stateMutability": "nonpayable",
      "type": "function"
    },
    {
      "inputs": [],
      "name": "withdrawStake",
      "outputs": [],
      "stateMutability": "nonpayable",
      "type": "function"
    },
    {
      "inputs": [],
      "name": "claimAllInterest",
      "outputs": [
        {
          "internalType": "uint256",
          "name": "",
          "type": "uint256"
        }
      ],
      "stateMutability": "nonpayable",
      "type": "function"
    },
    {
      "inputs": [],
      "name": "temp_Interest",
      "outputs": [
        {
          "internalType": "uint256",
          "name": "",
          "type": "uint256"
        }
      ],
      "stateMutability": "view",
      "type": "function"
    },
    {
      "inputs": [],
      "name": "poolSummary",
      "outputs": [
        {
          "components": [
            {
              "internalType": "uint256",
              "name": "totalvotes",
              "type": "uint256"
            },
            {
              "internalType": "uint256",
              "name": "locking",
              "type": "uint256"
            },
            {
              "internalType": "uint256",
              "name": "locked",
              "type": "uint256"
            },
            {
              "internalType": "uint256",
              "name": "unlocking",
              "type": "uint256"
            },
            {
              "internalType": "uint256",
              "name": "unlocked",
              "type": "uint256"
            },
            {
              "internalType": "uint256",
              "name": "totalInterest",
              "type": "uint256"
            },
            {
              "internalType": "uint256",
              "name": "claimedInterest",
              "type": "uint256"
            }
          ],
          "internalType": "struct PoSPoolmini.PoolSummary",
          "name": "",
          "type": "tuple"
        }
      ],
      "stateMutability": "view",
      "type": "function"
    },
    {
      "inputs": [],
      "name": "getInQueue",
      "outputs": [
        {
          "components": [
            {
              "internalType": "uint256",
              "name": "votePower",
              "type": "uint256"
            },
            {
              "internalType": "uint256",
              "name": "endBlock",
              "type": "uint256"
            }
          ],
          "internalType": "struct VotePowerQueue.QueueNode[]",
          "name": "",
          "type": "tuple[]"
        }
      ],
      "stateMutability": "view",
      "type": "function"
    },
    {
      "inputs": [],
      "name": "getOutQueue",
      "outputs": [
        {
          "components": [
            {
              "internalType": "uint256",
              "name": "votePower",
              "type": "uint256"
            },
            {
              "internalType": "uint256",
              "name": "endBlock",
              "type": "uint256"
            }
          ],
          "internalType": "struct VotePowerQueue.QueueNode[]",
          "name": "",
          "type": "tuple[]"
        }
      ],
      "stateMutability": "view",
      "type": "function"
    },
    {
      "inputs": [
        {
          "internalType": "address",
          "name": "_bridge",
          "type": "address"
        },
        {
          "internalType": "address",
          "name": "_withdraw",
          "type": "address"
        },
        {
          "internalType": "address",
          "name": "_storage",
          "type": "address"
        }
      ],
      "name": "_set_bridges",
      "outputs": [],
      "stateMutability": "nonpayable",
      "type": "function"
    },
    {
      "inputs": [
        {
          "internalType": "uint64",
          "name": "_in",
          "type": "uint64"
        },
        {
          "internalType": "uint64",
          "name": "_out",
          "type": "uint64"
        }
      ],
      "name": "_setLockPeriod",
      "outputs": [],
      "stateMutability": "nonpayable",
      "type": "function"
    },
    {
      "inputs": [
        {
          "internalType": "string",
          "name": "name",
          "type": "string"
        }
      ],
      "name": "_setPoolName",
      "outputs": [],
      "stateMutability": "nonpayable",
      "type": "function"
    },
    {
      "inputs": [
        {
          "internalType": "uint256",
          "name": "count",
          "type": "uint256"
        }
      ],
      "name": "_setCfxCountOfOneVote",
      "outputs": [],
      "stateMutability": "nonpayable",
      "type": "function"
    },
    {
      "inputs": [
        {
          "internalType": "uint64",
          "name": "votePower",
          "type": "uint64"
        }
      ],
      "name": "_reStake",
      "outputs": [],
      "stateMutability": "nonpayable",
      "type": "function"
    }
  ],
  "bytecode": "0x60806040526103e8600155683635c9adc5dea000006002556202a300600355600e6003546200002f9190620001b2565b6008556130e86001600354620000469190620001b2565b62000052919062000155565b6009553480156200006257600080fd5b5062000083620000776200008960201b60201c565b6200009160201b60201c565b6200024c565b600033905090565b60008060009054906101000a900473ffffffffffffffffffffffffffffffffffffffff169050816000806101000a81548173ffffffffffffffffffffffffffffffffffffffff021916908373ffffffffffffffffffffffffffffffffffffffff1602179055508173ffffffffffffffffffffffffffffffffffffffff168173ffffffffffffffffffffffffffffffffffffffff167f8be0079c531659141344cd1fd0a4f28419497f9722a3daafe3b4186f6b6457e060405160405180910390a35050565b6000620001628262000213565b91506200016f8362000213565b9250827fffffffffffffffffffffffffffffffffffffffffffffffffffffffffffffffff03821115620001a757620001a66200021d565b5b828201905092915050565b6000620001bf8262000213565b9150620001cc8362000213565b9250817fffffffffffffffffffffffffffffffffffffffffffffffffffffffffffffffff04831182151516156200020857620002076200021d565b5b828202905092915050565b6000819050919050565b7f4e487b7100000000000000000000000000000000000000000000000000000000600052601160045260246000fd5b613341806200025c6000396000f3fe6080604052600436106101395760003560e01c80639bdeb5aa116100ab578063e335b4511161006f578063e335b4511461039d578063e73e183b146103b9578063e7c81603146103e4578063f2fde38b1461040f578063f313afaf14610438578063f3466dfa1461046157610140565b80639bdeb5aa146102e0578063adcb49821461030b578063beb99c1e14610334578063bed9d8611461035d578063db51ffe41461037457610140565b80634db88eff116100fd5780634db88eff14610206578063715018a6146102315780637571fcf6146102485780638129fc1c146102735780638270512f1461028a5780638da5cb5b146102b557610140565b806309fecf7f1461014257806332d5d7a51461015e57806336c52949146101895780633a7e2d9a146101b25780634b1b45e6146101db57610140565b3661014057005b005b61015c6004803603810190610157919061240d565b61048c565b005b34801561016a57600080fd5b50610173610733565b6040516101809190612918565b60405180910390f35b34801561019557600080fd5b506101b060048036038101906101ab91906123a3565b610744565b005b3480156101be57600080fd5b506101d960048036038101906101d491906123e4565b6107da565b005b3480156101e757600080fd5b506101f061087a565b6040516101fd919061293a565b60405180910390f35b34801561021257600080fd5b5061021b61088d565b6040516102289190612b9e565b60405180910390f35b34801561023d57600080fd5b50610246610893565b005b34801561025457600080fd5b5061025d61091b565b60405161026a9190612b83565b60405180910390f35b34801561027f57600080fd5b506102886109c5565b005b34801561029657600080fd5b5061029f610b47565b6040516102ac9190612b9e565b60405180910390f35b3480156102c157600080fd5b506102ca610ced565b6040516102d791906128fd565b60405180910390f35b3480156102ec57600080fd5b506102f5610d16565b6040516103029190612b9e565b60405180910390f35b34801561031757600080fd5b50610332600480360381019061032d919061228c565b610d1c565b005b34801561034057600080fd5b5061035b6004803603810190610356919061240d565b610e60565b005b34801561036957600080fd5b506103726111ca565b005b34801561038057600080fd5b5061039b60048036038101906103969190612436565b611430565b005b6103b760048036038101906103b291906122db565b6114d2565b005b3480156103c557600080fd5b506103ce61173f565b6040516103db9190612b9e565b60405180910390f35b3480156103f057600080fd5b506103f961179d565b6040516104069190612918565b60405180910390f35b34801561041b57600080fd5b5061043660048036038101906104319190612263565b6117ae565b005b34801561044457600080fd5b5061045f600480360381019061045a919061240d565b6118a6565b005b34801561046d57600080fd5b5061047661192e565b60405161048391906129c1565b60405180910390f35b600560009054906101000a900460ff166104db576040517f08c379a00000000000000000000000000000000000000000000000000000000081526004016104d290612aa3565b60405180910390fd5b600560019054906101000a900473ffffffffffffffffffffffffffffffffffffffff1673ffffffffffffffffffffffffffffffffffffffff163373ffffffffffffffffffffffffffffffffffffffff161461056b576040517f08c379a000000000000000000000000000000000000000000000000000000000815260040161056290612a03565b60405180910390fd5b60008167ffffffffffffffff16116105b8576040517f08c379a00000000000000000000000000000000000000000000000000000000081526004016105af90612ae3565b60405180910390fd5b6002548167ffffffffffffffff166105d09190612d96565b3414610611576040517f08c379a0000000000000000000000000000000000000000000000000000000008152600401610608906129e3565b60405180910390fd5b61061a346119bc565b61062381611a3e565b3373ffffffffffffffffffffffffffffffffffffffff167ff5ebfcde71acb15a758233f0c9ab25632209399b90a9209a4f2379ec5fcee89f826040516106699190612bb9565b60405180910390a28067ffffffffffffffff16600a60000160008282546106909190612d40565b925050819055508067ffffffffffffffff16600a60010160008282546106b69190612d40565b9250508190555061070360405180604001604052808367ffffffffffffffff1681526020016008546106e6611ac0565b6106f09190612d40565b8152506011611ac890919063ffffffff16565b61070d6011611b11565b600a60020160008282546107219190612d40565b92505081905550610730611ba0565b50565b606061073f6011611bd3565b905090565b61074c611d20565b73ffffffffffffffffffffffffffffffffffffffff1661076a610ced565b73ffffffffffffffffffffffffffffffffffffffff16146107c0576040517f08c379a00000000000000000000000000000000000000000000000000000000081526004016107b790612ac3565b60405180910390fd5b80600490805190602001906107d6929190612045565b5050565b6107e2611d20565b73ffffffffffffffffffffffffffffffffffffffff16610800610ced565b73ffffffffffffffffffffffffffffffffffffffff1614610856576040517f08c379a000000000000000000000000000000000000000000000000000000000815260040161084d90612ac3565b60405180910390fd5b80600181905550670de0b6b3a7640000816108719190612d96565b60028190555050565b600560009054906101000a900460ff1681565b60085481565b61089b611d20565b73ffffffffffffffffffffffffffffffffffffffff166108b9610ced565b73ffffffffffffffffffffffffffffffffffffffff161461090f576040517f08c379a000000000000000000000000000000000000000000000000000000000815260040161090690612ac3565b60405180910390fd5b6109196000611d28565b565b6109236120cb565b6000600a6040518060e00160405290816000820154815260200160018201548152602001600282015481526020016003820154815260200160048201548152602001600582015481526020016006820154815250509050600061099b60176001015461098d611dec565b611df490919063ffffffff16565b90506109b4818360a00151611e0a90919063ffffffff16565b8260a0018181525050819250505090565b600060159054906101000a900460ff16806109ed5750600060149054906101000a900460ff16155b610a2c576040517f08c379a0000000000000000000000000000000000000000000000000000000008152600401610a2390612a83565b60405180910390fd5b60008060159054906101000a900460ff161590508015610a7d576001600060156101000a81548160ff0219169083151502179055506001600060146101000a81548160ff0219169083151502179055505b6103e8600181905550683635c9adc5dea000006002819055506202a300600381905550600e600354610aaf9190612d96565b6008819055506130e86001600354610ac79190612d96565b610ad19190612d40565b6009819055506040518060400160405280601b81526020017f4e75636c656f6e20436f6e666c757820506f7320506f6f6c203031000000000081525060049080519060200190610b22929190612045565b508015610b445760008060156101000a81548160ff0219169083151502179055505b50565b6000600560009054906101000a900460ff16610b98576040517f08c379a0000000000000000000000000000000000000000000000000000000008152600401610b8f90612aa3565b60405180910390fd5b600560019054906101000a900473ffffffffffffffffffffffffffffffffffffffff1673ffffffffffffffffffffffffffffffffffffffff163373ffffffffffffffffffffffffffffffffffffffff1614610c28576040517f08c379a0000000000000000000000000000000000000000000000000000000008152600401610c1f90612a03565b60405180910390fd5b6000610c32611dec565b905060008111610c77576040517f08c379a0000000000000000000000000000000000000000000000000000000008152600401610c6e90612b03565b60405180910390fd5b6000600760009054906101000a900473ffffffffffffffffffffffffffffffffffffffff1690508073ffffffffffffffffffffffffffffffffffffffff166108fc839081150290604051600060405180830381858888f19350505050158015610ce4573d6000803e3d6000fd5b50819250505090565b60008060009054906101000a900473ffffffffffffffffffffffffffffffffffffffff16905090565b60095481565b610d24611d20565b73ffffffffffffffffffffffffffffffffffffffff16610d42610ced565b73ffffffffffffffffffffffffffffffffffffffff1614610d98576040517f08c379a0000000000000000000000000000000000000000000000000000000008152600401610d8f90612ac3565b60405180910390fd5b82600560016101000a81548173ffffffffffffffffffffffffffffffffffffffff021916908373ffffffffffffffffffffffffffffffffffffffff16021790555081600660006101000a81548173ffffffffffffffffffffffffffffffffffffffff021916908373ffffffffffffffffffffffffffffffffffffffff16021790555080600760006101000a81548173ffffffffffffffffffffffffffffffffffffffff021916908373ffffffffffffffffffffffffffffffffffffffff160217905550505050565b600560009054906101000a900460ff16610eaf576040517f08c379a0000000000000000000000000000000000000000000000000000000008152600401610ea690612aa3565b60405180910390fd5b600560019054906101000a900473ffffffffffffffffffffffffffffffffffffffff1673ffffffffffffffffffffffffffffffffffffffff163373ffffffffffffffffffffffffffffffffffffffff1614610f3f576040517f08c379a0000000000000000000000000000000000000000000000000000000008152600401610f3690612a03565b60405180910390fd5b6000610f4b6011611b11565b600a6002016000828254610f5f9190612d40565b925050819055508167ffffffffffffffff16600a600001541015610fb8576040517f08c379a0000000000000000000000000000000000000000000000000000000008152600401610faf90612a63565b60405180910390fd5b610fc182611e20565b3373ffffffffffffffffffffffffffffffffffffffff167fd81524ca5b038be9f98b286808a6f46f99c8700bce9ab4793dc12a2dbaa4f2d8836040516110079190612bb9565b60405180910390a28167ffffffffffffffff16600a600001600082825461102e9190612df0565b925050819055508167ffffffffffffffff16600a60030160008282546110549190612d40565b92505081905550600a600201548267ffffffffffffffff16116110e2578167ffffffffffffffff16600a60020160008282546110909190612df0565b925050819055506110dd60405180604001604052808467ffffffffffffffff1681526020016009546110c0611ac0565b6110ca9190612d40565b8152506014611ac890919063ffffffff16565b61117a565b600a600201548267ffffffffffffffff166110fd9190612df0565b90506000600a6002018190555080600a600101600082825461111f9190612df0565b9250508190555061117960405180604001604052808467ffffffffffffffff168152602001600954600854611152611ac0565b61115c9190612d40565b6111669190612d40565b8152506014611ac890919063ffffffff16565b5b6111846014611b11565b905080600a600301600082825461119b9190612df0565b9250508190555080600a60040160008282546111b79190612d40565b925050819055506111c6611ba0565b5050565b600560009054906101000a900460ff16611219576040517f08c379a000000000000000000000000000000000000000000000000000000000815260040161121090612aa3565b60405180910390fd5b600560019054906101000a900473ffffffffffffffffffffffffffffffffffffffff1673ffffffffffffffffffffffffffffffffffffffff163373ffffffffffffffffffffffffffffffffffffffff16146112a9576040517f08c379a00000000000000000000000000000000000000000000000000000000081526004016112a090612a03565b60405180910390fd5b60006112b56014611b11565b905080600a60030160008282546112cc9190612df0565b9250508190555080600a60040160008282546112e89190612d40565b925050819055506000600a600401541015611338576040517f08c379a000000000000000000000000000000000000000000000000000000000815260040161132f90612b63565b60405180910390fd5b611353600254600a6004015461134e9190612d96565b611ea2565b6000600660009054906101000a900473ffffffffffffffffffffffffffffffffffffffff1690508073ffffffffffffffffffffffffffffffffffffffff166108fc600254600a600401546113a79190612d96565b9081150290604051600060405180830381858888f193505050501580156113d2573d6000803e3d6000fd5b506000600a600401819055503373ffffffffffffffffffffffffffffffffffffffff167f141ef67c4a6d3ec2adfb2f66d33c2b11de5b4f34344757554d430570b18a92ec836040516114249190612b9e565b60405180910390a25050565b611438611d20565b73ffffffffffffffffffffffffffffffffffffffff16611456610ced565b73ffffffffffffffffffffffffffffffffffffffff16146114ac576040517f08c379a00000000000000000000000000000000000000000000000000000000081526004016114a390612ac3565b60405180910390fd5b8167ffffffffffffffff166008819055508067ffffffffffffffff166009819055505050565b6114da611d20565b73ffffffffffffffffffffffffffffffffffffffff166114f8610ced565b73ffffffffffffffffffffffffffffffffffffffff161461154e576040517f08c379a000000000000000000000000000000000000000000000000000000000815260040161154590612ac3565b60405180910390fd5b600560009054906101000a900460ff161561159e576040517f08c379a000000000000000000000000000000000000000000000000000000000815260040161159590612b23565b60405180910390fd5b60018667ffffffffffffffff16146115eb576040517f08c379a00000000000000000000000000000000000000000000000000000000081526004016115e290612b43565b60405180910390fd5b6002548667ffffffffffffffff166116039190612d96565b3414611644576040517f08c379a000000000000000000000000000000000000000000000000000000000815260040161163b90612a43565b60405180910390fd5b61164d346119bc565b61165c87878787878787611f24565b6001600560006101000a81548160ff0219169083151502179055508567ffffffffffffffff16600a60000160008282546116969190612d40565b925050819055508567ffffffffffffffff16600a60010160008282546116bc9190612d40565b9250508190555061170960405180604001604052808867ffffffffffffffff1681526020016008546116ec611ac0565b6116f69190612d40565b8152506011611ac890919063ffffffff16565b6117136011611b11565b600a60020160008282546117279190612d40565b92505081905550611736611ba0565b50505050505050565b6000600560009054906101000a900460ff16611790576040517f08c379a000000000000000000000000000000000000000000000000000000000815260040161178790612aa3565b60405180910390fd5b611798611dec565b905090565b60606117a96014611bd3565b905090565b6117b6611d20565b73ffffffffffffffffffffffffffffffffffffffff166117d4610ced565b73ffffffffffffffffffffffffffffffffffffffff161461182a576040517f08c379a000000000000000000000000000000000000000000000000000000000815260040161182190612ac3565b60405180910390fd5b600073ffffffffffffffffffffffffffffffffffffffff168173ffffffffffffffffffffffffffffffffffffffff16141561189a576040517f08c379a000000000000000000000000000000000000000000000000000000000815260040161189190612a23565b60405180910390fd5b6118a381611d28565b50565b6118ae611d20565b73ffffffffffffffffffffffffffffffffffffffff166118cc610ced565b73ffffffffffffffffffffffffffffffffffffffff1614611922576040517f08c379a000000000000000000000000000000000000000000000000000000000815260040161191990612ac3565b60405180910390fd5b61192b81611a3e565b50565b6004805461193b90612ede565b80601f016020809104026020016040519081016040528092919081815260200182805461196790612ede565b80156119b45780601f10611989576101008083540402835291602001916119b4565b820191906000526020600020905b81548152906001019060200180831161199757829003601f168201915b505050505081565b73088800000000000000000000000000000000000273ffffffffffffffffffffffffffffffffffffffff1663b6b55f25826040518263ffffffff1660e01b8152600401611a099190612b9e565b600060405180830381600087803b158015611a2357600080fd5b505af1158015611a37573d6000803e3d6000fd5b5050505050565b73088800000000000000000000000000000000000573ffffffffffffffffffffffffffffffffffffffff166309fecf7f826040518263ffffffff1660e01b8152600401611a8b9190612bd4565b600060405180830381600087803b158015611aa557600080fd5b505af1158015611ab9573d6000803e3d6000fd5b5050505050565b600043905090565b80826002016000846001016000815480929190611ae490612f41565b91905055815260200190815260200160002060008201518160000155602082015181600101559050505050565b600080600090506000836000015490505b8360010154811015611b965743846002016000838152602001908152602001600020600101541115611b5357611b96565b8360020160008281526020019081526020016000206000015482611b779190612d40565b9150611b8284611fb8565b508080611b8e90612f41565b915050611b22565b5080915050919050565b600a60000154601760000181905550611bb7611dec565b601760010181905550611bc8611ac0565b601760020181905550565b6060600082600001548360010154611beb9190612df0565b67ffffffffffffffff811115611c2a577f4e487b7100000000000000000000000000000000000000000000000000000000600052604160045260246000fd5b604051908082528060200260200182016040528015611c6357816020015b611c50612108565b815260200190600190039081611c485790505b5090506000836000015490505b8360010154811015611d16578360020160008281526020019081526020016000206040518060400160405290816000820154815260200160018201548152505082856000015483611cc19190612df0565b81518110611cf8577f4e487b7100000000000000000000000000000000000000000000000000000000600052603260045260246000fd5b60200260200101819052508080611d0e90612f41565b915050611c70565b5080915050919050565b600033905090565b60008060009054906101000a900473ffffffffffffffffffffffffffffffffffffffff169050816000806101000a81548173ffffffffffffffffffffffffffffffffffffffff021916908373ffffffffffffffffffffffffffffffffffffffff1602179055508173ffffffffffffffffffffffffffffffffffffffff168173ffffffffffffffffffffffffffffffffffffffff167f8be0079c531659141344cd1fd0a4f28419497f9722a3daafe3b4186f6b6457e060405160405180910390a35050565b600047905090565b60008183611e029190612df0565b905092915050565b60008183611e189190612d40565b905092915050565b73088800000000000000000000000000000000000573ffffffffffffffffffffffffffffffffffffffff1663f49d0638826040518263ffffffff1660e01b8152600401611e6d9190612bd4565b600060405180830381600087803b158015611e8757600080fd5b505af1158015611e9b573d6000803e3d6000fd5b5050505050565b73088800000000000000000000000000000000000273ffffffffffffffffffffffffffffffffffffffff16632e1a7d4d826040518263ffffffff1660e01b8152600401611eef9190612b9e565b600060405180830381600087803b158015611f0957600080fd5b505af1158015611f1d573d6000803e3d6000fd5b5050505050565b73088800000000000000000000000000000000000573ffffffffffffffffffffffffffffffffffffffff1663e335b451888888888888886040518863ffffffff1660e01b8152600401611f7d9796959493929190612955565b600060405180830381600087803b158015611f9757600080fd5b505af1158015611fab573d6000803e3d6000fd5b5050505050505050505050565b611fc0612108565b60008260020160008460000154815260200190815260200160002060405180604001604052908160008201548152602001600182015481525050905082600201600084600001600081548092919061201790612f41565b9190505581526020019081526020016000206000808201600090556001820160009055505080915050919050565b82805461205190612ede565b90600052602060002090601f01602090048101928261207357600085556120ba565b82601f1061208c57805160ff19168380011785556120ba565b828001600101855582156120ba579182015b828111156120b957825182559160200191906001019061209e565b5b5090506120c79190612122565b5090565b6040518060e00160405280600081526020016000815260200160008152602001600081526020016000815260200160008152602001600081525090565b604051806040016040528060008152602001600081525090565b5b8082111561213b576000816000905550600101612123565b5090565b600061215261214d84612c14565b612bef565b90508281526020810184848401111561216a57600080fd5b612175848285612e9c565b509392505050565b60008135905061218c816132af565b92915050565b6000819050826020600202820111156121aa57600080fd5b92915050565b6000813590506121bf816132c6565b92915050565b60008083601f8401126121d757600080fd5b8235905067ffffffffffffffff8111156121f057600080fd5b60208301915083600182028301111561220857600080fd5b9250929050565b600082601f83011261222057600080fd5b813561223084826020860161213f565b91505092915050565b600081359050612248816132dd565b92915050565b60008135905061225d816132f4565b92915050565b60006020828403121561227557600080fd5b60006122838482850161217d565b91505092915050565b6000806000606084860312156122a157600080fd5b60006122af8682870161217d565b93505060206122c08682870161217d565b92505060406122d18682870161217d565b9150509250925092565b600080600080600080600060a0888a0312156122f657600080fd5b60006123048a828b016121b0565b97505060206123158a828b0161224e565b965050604088013567ffffffffffffffff81111561233257600080fd5b61233e8a828b016121c5565b9550955050606088013567ffffffffffffffff81111561235d57600080fd5b6123698a828b016121c5565b9350935050608088013567ffffffffffffffff81111561238857600080fd5b6123948a828b01612192565b91505092959891949750929550565b6000602082840312156123b557600080fd5b600082013567ffffffffffffffff8111156123cf57600080fd5b6123db8482850161220f565b91505092915050565b6000602082840312156123f657600080fd5b600061240484828501612239565b91505092915050565b60006020828403121561241f57600080fd5b600061242d8482850161224e565b91505092915050565b6000806040838503121561244957600080fd5b60006124578582860161224e565b92505060206124688582860161224e565b9150509250929050565b600061247f8484846125aa565b90509392505050565b60006124948383612892565b60408301905092915050565b6124a981612e24565b82525050565b60006124ba82612c5f565b6124c48185612c9a565b9350836020820285016124d685612c45565b8060005b8581101561251c5784840389526124f18284612ce9565b6124fc868284612472565b955061250784612c80565b935060208b019a5050506001810190506124da565b50829750879550505050505092915050565b600061253982612c6a565b6125438185612ca5565b935061254e83612c4f565b8060005b8381101561257f5781516125668882612488565b975061257183612c8d565b925050600181019050612552565b5085935050505092915050565b61259581612e36565b82525050565b6125a481612e42565b82525050565b60006125b68385612cb6565b93506125c3838584612e9c565b6125cc83613017565b840190509392505050565b60006125e38385612cc7565b93506125f0838584612e9c565b6125f983613017565b840190509392505050565b600061260f82612c75565b6126198185612cd8565b9350612629818560208601612eab565b61263281613017565b840191505092915050565b600061264a602a83612cd8565b915061265582613028565b604082019050919050565b600061266d601883612cd8565b915061267882613077565b602082019050919050565b6000612690602683612cd8565b915061269b826130a0565b604082019050919050565b60006126b3601c83612cd8565b91506126be826130ef565b602082019050919050565b60006126d6601383612cd8565b91506126e182613118565b602082019050919050565b60006126f9602e83612cd8565b915061270482613141565b604082019050919050565b600061271c601483612cd8565b915061272782613190565b602082019050919050565b600061273f602083612cd8565b915061274a826131b9565b602082019050919050565b6000612762601683612cd8565b915061276d826131e2565b602082019050919050565b6000612785601583612cd8565b91506127908261320b565b602082019050919050565b60006127a8601883612cd8565b91506127b382613234565b602082019050919050565b60006127cb601583612cd8565b91506127d68261325d565b602082019050919050565b60006127ee601683612cd8565b91506127f982613286565b602082019050919050565b60e08201600082015161281a60008501826128c1565b50602082015161282d60208501826128c1565b50604082015161284060408501826128c1565b50606082015161285360608501826128c1565b50608082015161286660808501826128c1565b5060a082015161287960a08501826128c1565b5060c082015161288c60c08501826128c1565b50505050565b6040820160008201516128a860008501826128c1565b5060208201516128bb60208501826128c1565b50505050565b6128ca81612e6c565b82525050565b6128d981612e6c565b82525050565b6128e881612e8a565b82525050565b6128f781612e76565b82525050565b600060208201905061291260008301846124a0565b92915050565b60006020820190508181036000830152612932818461252e565b905092915050565b600060208201905061294f600083018461258c565b92915050565b600060a08201905061296a600083018a61259b565b61297760208301896128ee565b818103604083015261298a8187896125d7565b9050818103606083015261299f8185876125d7565b905081810360808301526129b381846124af565b905098975050505050505050565b600060208201905081810360008301526129db8184612604565b905092915050565b600060208201905081810360008301526129fc8161263d565b9050919050565b60006020820190508181036000830152612a1c81612660565b9050919050565b60006020820190508181036000830152612a3c81612683565b9050919050565b60006020820190508181036000830152612a5c816126a6565b9050919050565b60006020820190508181036000830152612a7c816126c9565b9050919050565b60006020820190508181036000830152612a9c816126ec565b9050919050565b60006020820190508181036000830152612abc8161270f565b9050919050565b60006020820190508181036000830152612adc81612732565b9050919050565b60006020820190508181036000830152612afc81612755565b9050919050565b60006020820190508181036000830152612b1c81612778565b9050919050565b60006020820190508181036000830152612b3c8161279b565b9050919050565b60006020820190508181036000830152612b5c816127be565b9050919050565b60006020820190508181036000830152612b7c816127e1565b9050919050565b600060e082019050612b986000830184612804565b92915050565b6000602082019050612bb360008301846128d0565b92915050565b6000602082019050612bce60008301846128df565b92915050565b6000602082019050612be960008301846128ee565b92915050565b6000612bf9612c0a565b9050612c058282612f10565b919050565b6000604051905090565b600067ffffffffffffffff821115612c2f57612c2e612fe8565b5b612c3882613017565b9050602081019050919050565b6000819050919050565b6000819050602082019050919050565b600060029050919050565b600081519050919050565b600081519050919050565b6000602082019050919050565b6000602082019050919050565b600081905092915050565b600082825260208201905092915050565b600082825260208201905092915050565b600082825260208201905092915050565b600082825260208201905092915050565b60008083356001602003843603038112612d0257600080fd5b83810192508235915060208301925067ffffffffffffffff821115612d2657600080fd5b600182023603841315612d3857600080fd5b509250929050565b6000612d4b82612e6c565b9150612d5683612e6c565b9250827fffffffffffffffffffffffffffffffffffffffffffffffffffffffffffffffff03821115612d8b57612d8a612f8a565b5b828201905092915050565b6000612da182612e6c565b9150612dac83612e6c565b9250817fffffffffffffffffffffffffffffffffffffffffffffffffffffffffffffffff0483118215151615612de557612de4612f8a565b5b828202905092915050565b6000612dfb82612e6c565b9150612e0683612e6c565b925082821015612e1957612e18612f8a565b5b828203905092915050565b6000612e2f82612e4c565b9050919050565b60008115159050919050565b6000819050919050565b600073ffffffffffffffffffffffffffffffffffffffff82169050919050565b6000819050919050565b600067ffffffffffffffff82169050919050565b6000612e9582612e76565b9050919050565b82818337600083830152505050565b60005b83811015612ec9578082015181840152602081019050612eae565b83811115612ed8576000848401525b50505050565b60006002820490506001821680612ef657607f821691505b60208210811415612f0a57612f09612fb9565b5b50919050565b612f1982613017565b810181811067ffffffffffffffff82111715612f3857612f37612fe8565b5b80604052505050565b6000612f4c82612e6c565b91507fffffffffffffffffffffffffffffffffffffffffffffffffffffffffffffffff821415612f7f57612f7e612f8a565b5b600182019050919050565b7f4e487b7100000000000000000000000000000000000000000000000000000000600052601160045260246000fd5b7f4e487b7100000000000000000000000000000000000000000000000000000000600052602260045260246000fd5b7f4e487b7100000000000000000000000000000000000000000000000000000000600052604160045260246000fd5b6000601f19601f8301169050919050565b7f6d73672e76616c75652073686f756c6420626520766f7465506f776572202a2060008201527f3130303020657468657200000000000000000000000000000000000000000000602082015250565b7f6d73672e73656e646572206973206e6f74206272696467650000000000000000600082015250565b7f4f776e61626c653a206e6577206f776e657220697320746865207a65726f206160008201527f6464726573730000000000000000000000000000000000000000000000000000602082015250565b7f6d73672e76616c75652073686f756c6420626520313030302043465800000000600082015250565b7f566f746573206973206e6f7420656e6f75676800000000000000000000000000600082015250565b7f496e697469616c697a61626c653a20636f6e747261637420697320616c72656160008201527f647920696e697469616c697a6564000000000000000000000000000000000000602082015250565b7f506f6f6c206973206e6f74207265676973746564000000000000000000000000600082015250565b7f4f776e61626c653a2063616c6c6572206973206e6f7420746865206f776e6572600082015250565b7f4d696e696d616c20766f7465506f776572206973203100000000000000000000600082015250565b7f4e6f20636c61696d61626c6520696e7465726573740000000000000000000000600082015250565b7f506f6f6c20697320616c72656164792072656769737465640000000000000000600082015250565b7f766f7465506f7765722073686f756c6420626520310000000000000000000000600082015250565b7f556e6c6f636b6564206973206e6f7420656e6f75676800000000000000000000600082015250565b6132b881612e24565b81146132c357600080fd5b50565b6132cf81612e42565b81146132da57600080fd5b50565b6132e681612e6c565b81146132f157600080fd5b50565b6132fd81612e76565b811461330857600080fd5b5056fea2646970667358221220f155da0278ab5c094fb5c666eac110a11db769f3d5aaabe685fc31ce8601d4cc64736f6c63430008020033",
  "immutableReferences": {},
  "source": "//SPDX-License-Identifier: BUSL-1.1\r\n// Licensor:            X-Dao.\r\n// Licensed Work:       NUCLEON 1.0\r\n\r\npragma solidity ^0.8.0;\r\n\r\nimport \"@openzeppelin/contracts/access/Ownable.sol\";\r\nimport \"@openzeppelin/contracts/utils/math/SafeMath.sol\";\r\nimport \"@openzeppelin/contracts/utils/structs/EnumerableSet.sol\";\r\nimport \"@openzeppelin/contracts/proxy/utils/Initializable.sol\";\r\nimport \"./PoolContext.sol\";\r\nimport \"./VotePowerQueue.sol\";\r\nimport \"./PoolAPY.sol\";\r\n\r\n///\r\n///  @title PoSPoolmini is a small Conflux POS pool cantract with the basic usages \r\n///  @dev This is Conflux PoS pool contract, the contract only be used by the bridge\r\n///  @notice bridge use this contract to participate Conflux PoS.\r\n///\r\ncontract PoSPoolmini is PoolContext, Ownable, Initializable {\r\n  using SafeMath for uint256;\r\n  using EnumerableSet for EnumerableSet.AddressSet;\r\n  using VotePowerQueue for VotePowerQueue.InOutQueue;\r\n  using PoolAPY for PoolAPY.ApyQueue;\r\n\r\n  uint256 private CFX_COUNT_OF_ONE_VOTE = 1000;\r\n  uint256 private CFX_VALUE_OF_ONE_VOTE = 1000 ether;\r\n  uint256 private ONE_DAY_BLOCK_COUNT = 2 * 3600 * 24;\r\n  \r\n  // ======================== Pool config =========================\r\n\r\n  string public poolName;\r\n  // wheter this poolContract registed in PoS\r\n  bool public _poolRegisted;\r\n  // ratio shared by user: 1-10000\r\n  address bridge_contract;\r\n  address bridge_withdraw;\r\n  address bridge_storage;\r\n\r\n  // lock period: 13 days + 1 day\r\n  uint256 public _poolLockPeriod_in = ONE_DAY_BLOCK_COUNT * 14; \r\n  uint256 public _poolLockPeriod_out = ONE_DAY_BLOCK_COUNT * 1 + 12520; \r\n\r\n  // ======================== Struct definitions =========================\r\n\r\n  /// @title PoolSummary\r\n  /// @custom:field totalvotes Pool's total votes in use\r\n  /// @custom:field locking Pool's locking votes\r\n  /// @custom:field locked\r\n  /// @custom:field unlocking votes\r\n  /// @custom:field unlocked votes\r\n  /// @custom:field totalInterest,total interest of whole pools\r\n  /// @custom:field claimedInterest\r\n\r\n  struct PoolSummary {\r\n    uint256 totalvotes;\r\n    uint256 locking;\r\n    uint256 locked;\r\n    uint256 unlocking;\r\n    uint256 unlocked;\r\n    uint256 totalInterest; \r\n    uint256 claimedInterest;\r\n  }\r\n\r\n  struct PoolShot {\r\n    uint256 available;\r\n    uint256 balance;\r\n    uint256 blockNumber;\r\n  } \r\n\r\n  // ======================== Contract states ====================\r\n\r\n  PoolSummary private _poolSummary;\r\n  VotePowerQueue.InOutQueue private Inqueues;\r\n  VotePowerQueue.InOutQueue private Outqueues;\r\n\r\n  PoolShot internal lastPoolShot;\r\n\r\n  // ======================== Modifiers ==========================\r\n  modifier onlyRegisted() {\r\n    require(_poolRegisted, \"Pool is not registed\");\r\n    _;\r\n  }\r\n  modifier onlybridge() {\r\n    require(msg.sender==bridge_contract, \"msg.sender is not bridge\");\r\n    _;\r\n  }\r\n  // ======================== Helpers ============================\r\n\r\n  // used to update lastPoolShot after _poolSummary.available changed \r\n  function _updatePoolShot() private {\r\n    lastPoolShot.available = _poolSummary.totalvotes;\r\n    lastPoolShot.balance = _selfBalance();\r\n    lastPoolShot.blockNumber = _blockNumber();\r\n  }\r\n\r\n  // ======================== Events ==============================\r\n\r\n  event IncreasePoSStake(address indexed user, uint256 votePower);\r\n\r\n  event DecreasePoSStake(address indexed user, uint256 votePower);\r\n\r\n  event WithdrawStake(address indexed user, uint256 votePower);\r\n\r\n  event ClaimInterest(address indexed user, uint256 amount);\r\n\r\n  // ======================== Init methods =========================\r\n  // call this method when depoly the 1967 proxy contract\r\n  function initialize() public initializer {\r\n    CFX_COUNT_OF_ONE_VOTE = 1000;\r\n    CFX_VALUE_OF_ONE_VOTE = 1000 ether;\r\n    ONE_DAY_BLOCK_COUNT = 2 * 3600 * 24;\r\n    _poolLockPeriod_in = ONE_DAY_BLOCK_COUNT * 14; \r\n    _poolLockPeriod_out = ONE_DAY_BLOCK_COUNT * 1 + 12520;\r\n    poolName = \"Nucleon Conflux Pos Pool 01\";\r\n  }\r\n  \r\n  ///\r\n  /// @notice Regist the pool contract in PoS internal contract \r\n  /// @dev Only admin can do this\r\n  /// @param indentifier The identifier of PoS node\r\n  /// @param votePower The vote power when register\r\n  /// @param blsPubKey The bls public key of PoS node\r\n  /// @param vrfPubKey The vrf public key of PoS node\r\n  /// @param blsPubKeyProof The bls public key proof of PoS node\r\n  ///\r\n  function register(\r\n    bytes32 indentifier,\r\n    uint64 votePower,\r\n    bytes calldata blsPubKey,\r\n    bytes calldata vrfPubKey,\r\n    bytes[2] calldata blsPubKeyProof\r\n  ) public virtual payable onlyOwner {\r\n    require(!_poolRegisted, \"Pool is already registed\");\r\n    require(votePower == 1, \"votePower should be 1\");\r\n    require(msg.value == votePower * CFX_VALUE_OF_ONE_VOTE, \"msg.value should be 1000 CFX\");\r\n    _stakingDeposit(msg.value);\r\n    _posRegisterRegister(indentifier, votePower, blsPubKey, vrfPubKey, blsPubKeyProof);\r\n    _poolRegisted = true;\r\n\r\n    // update pool info\r\n    _poolSummary.totalvotes += votePower;\r\n    _poolSummary.locking += votePower;\r\n    Inqueues.enqueue(VotePowerQueue.QueueNode(votePower, _blockNumber() + _poolLockPeriod_in));\r\n    _poolSummary.locked += Inqueues.collectEndedVotes();\r\n    _updatePoolShot();\r\n  }\r\n\r\n  // ======================== Contract methods , Only bridge can use =========================\r\n\r\n  ///\r\n  /// @notice Increase PoS vote power\r\n  /// @param votePower The number of vote power to increase\r\n  ///\r\n  function increaseStake(uint64 votePower) public virtual payable onlyRegisted onlybridge{\r\n    require(votePower > 0, \"Minimal votePower is 1\");\r\n    require(msg.value == votePower * CFX_VALUE_OF_ONE_VOTE, \"msg.value should be votePower * 1000 ether\");\r\n    _stakingDeposit(msg.value);\r\n    _posRegisterIncreaseStake(votePower);\r\n    emit IncreasePoSStake(msg.sender, votePower);\r\n\r\n    // update pool info\r\n    _poolSummary.totalvotes += votePower;\r\n    _poolSummary.locking += votePower;\r\n    Inqueues.enqueue(VotePowerQueue.QueueNode(votePower, _blockNumber() + _poolLockPeriod_in));\r\n    _poolSummary.locked += Inqueues.collectEndedVotes();\r\n    _updatePoolShot();\r\n  }\r\n\r\n  ///\r\n  /// @notice Decrease PoS vote power\r\n  /// @param votePower The number of vote power to decrease\r\n  ///\r\n  function decreaseStake(uint64 votePower) public virtual onlyRegisted onlybridge{\r\n    uint256 tempvotes;\r\n    _poolSummary.locked += Inqueues.collectEndedVotes();\r\n    require(_poolSummary.totalvotes >= votePower, \"Votes is not enough\");\r\n    _posRegisterRetire(votePower);\r\n    emit DecreasePoSStake(msg.sender, votePower);\r\n\r\n    // update pool info\r\n    _poolSummary.totalvotes -= votePower;\r\n    _poolSummary.unlocking += votePower;\r\n    if(votePower<=_poolSummary.locked){\r\n      _poolSummary.locked -= votePower;\r\n      Outqueues.enqueue(VotePowerQueue.QueueNode(votePower, _blockNumber() + _poolLockPeriod_out));\r\n    }else {\r\n      tempvotes = votePower - _poolSummary.locked;\r\n      _poolSummary.locked = 0;\r\n      _poolSummary.locking -= tempvotes;\r\n      Outqueues.enqueue(VotePowerQueue.QueueNode(votePower, _blockNumber() + _poolLockPeriod_in + _poolLockPeriod_out));\r\n    }\r\n    tempvotes = Outqueues.collectEndedVotes();\r\n    _poolSummary.unlocking -= tempvotes;\r\n    _poolSummary.unlocked += tempvotes;\r\n    _updatePoolShot();\r\n  }\r\n\r\n  ///\r\n  /// @notice Withdraw PoS vote power\r\n  /// @dev  The number of vote power to withdraw\r\n  ///\r\n  function withdrawStake() public onlyRegisted onlybridge{\r\n    uint256 temp_out_cEndVotes = Outqueues.collectEndedVotes();\r\n    _poolSummary.unlocking -= temp_out_cEndVotes;\r\n    _poolSummary.unlocked += temp_out_cEndVotes;\r\n    require(_poolSummary.unlocked >= 0, \"Unlocked is not enough\");\r\n\r\n    _stakingWithdraw(_poolSummary.unlocked * CFX_VALUE_OF_ONE_VOTE);\r\n    address payable receiver = payable(bridge_withdraw);// withdraw CFX to bridgecoreaddr\r\n    receiver.transfer(_poolSummary.unlocked * CFX_VALUE_OF_ONE_VOTE);\r\n    _poolSummary.unlocked = 0;\r\n    emit WithdrawStake(msg.sender, temp_out_cEndVotes);\r\n  }\r\n\r\n  ///\r\n  /// @notice Claim all interest in pool\r\n  ///\r\n  function claimAllInterest() public onlyRegisted onlybridge returns (uint256){\r\n    uint claimableInterest = _selfBalance();\r\n    require(claimableInterest > 0, \"No claimable interest\");\r\n    address payable receiver = payable(bridge_storage);\r\n    receiver.transfer(claimableInterest);\r\n    return claimableInterest;\r\n  }\r\n\r\n  function temp_Interest() public view onlyRegisted returns (uint256){\r\n    return _selfBalance() ;\r\n  }\r\n  // ======================== Contract view methods interface use =========================\r\n  /// \r\n  /// @notice Get  pool summary\r\n  /// @return pool's summary\r\n  ///\r\n  function poolSummary() public view returns (PoolSummary memory) {\r\n    PoolSummary memory summary = _poolSummary;\r\n    uint256 _latestReward = _selfBalance().sub(lastPoolShot.balance);\r\n    summary.totalInterest = summary.totalInterest.add(_latestReward);\r\n    return summary;\r\n  }\r\n\r\n  function getInQueue() public view returns (VotePowerQueue.QueueNode[] memory) {\r\n    return Inqueues.queueItems();\r\n  }\r\n\r\n  function getOutQueue() public view returns (VotePowerQueue.QueueNode[] memory) {\r\n    return Outqueues.queueItems();\r\n  }\r\n\r\n  // ======================== admin methods =====================\r\n\r\n  ///\r\n  /// @notice Enable admin to set the user share ratio\r\n  /// @dev description\r\n  /// @param _withdraw  description\r\n  /// @param _storage description\r\n  ///\r\n  function _set_bridges(address _bridge, address _withdraw, address _storage) public onlyOwner {\r\n    bridge_contract = _bridge;\r\n    bridge_withdraw = _withdraw;\r\n    bridge_storage = _storage;\r\n  }\r\n\r\n  /// \r\n  /// @notice Enable admin to set the lock and unlock period\r\n  /// @dev Only admin can do this\r\n  /// @param _in The lock period in in block number, default is seven day's block count\r\n  /// @param _out The lock period out in block number, default is seven day's block count\r\n  ///\r\n  function _setLockPeriod(uint64 _in,uint64 _out) public onlyOwner {\r\n    _poolLockPeriod_in = _in;\r\n    _poolLockPeriod_out = _out;\r\n  }\r\n\r\n  /// \r\n  /// @notice Enable admin to set the pool name\r\n  ///\r\n  function _setPoolName(string memory name) public onlyOwner {\r\n    poolName = name;\r\n  }\r\n\r\n  /// @param count Vote cfx count, unit is cfx\r\n  function _setCfxCountOfOneVote(uint256 count) public onlyOwner {\r\n    CFX_COUNT_OF_ONE_VOTE = count;\r\n    CFX_VALUE_OF_ONE_VOTE = count * 1 ether;\r\n  }\r\n\r\n  // Used to bring account's retired votes back to work\r\n  // reStake _poolSummary.available\r\n  function _reStake(uint64 votePower) public onlyOwner {\r\n    _posRegisterIncreaseStake(votePower);\r\n  }\r\n\r\n  // ======================== contract base methods =====================\r\n  fallback() external payable {}\r\n  receive() external payable {}\r\n\r\n}",
  "sourcePath": "C:/Users/artii/Conflux Studio/minpos/contracts/PoSPoolmini.sol",
  "compiler": {
    "name": "solc",
    "version": "0.8.2+commit.661d1103.Emscripten.clang"
  },
  "schemaVersion": "3.3.4",
  "updatedAt": "2022-09-18T00:06:33.973Z",
  "devdoc": {
    "details": "This is Conflux PoS pool contract, the contract only be used by the bridge",
    "kind": "dev",
    "methods": {
      "_setCfxCountOfOneVote(uint256)": {
        "params": {
          "count": "Vote cfx count, unit is cfx"
        }
      },
      "_setLockPeriod(uint64,uint64)": {
        "details": "Only admin can do this",
        "params": {
          "_in": "The lock period in in block number, default is seven day's block count",
          "_out": "The lock period out in block number, default is seven day's block count"
        }
      },
      "_set_bridges(address,address,address)": {
        "details": "description",
        "params": {
          "_storage": "description",
          "_withdraw": "description"
        }
      },
      "decreaseStake(uint64)": {
        "params": {
          "votePower": "The number of vote power to decrease"
        }
      },
      "increaseStake(uint64)": {
        "params": {
          "votePower": "The number of vote power to increase"
        }
      },
      "owner()": {
        "details": "Returns the address of the current owner."
      },
      "poolSummary()": {
        "returns": {
          "_0": "pool's summary"
        }
      },
      "register(bytes32,uint64,bytes,bytes,bytes[2])": {
        "details": "Only admin can do this",
        "params": {
          "blsPubKey": "The bls public key of PoS node",
          "blsPubKeyProof": "The bls public key proof of PoS node",
          "indentifier": "The identifier of PoS node",
          "votePower": "The vote power when register",
          "vrfPubKey": "The vrf public key of PoS node"
        }
      },
      "renounceOwnership()": {
        "details": "Leaves the contract without owner. It will not be possible to call `onlyOwner` functions anymore. Can only be called by the current owner. NOTE: Renouncing ownership will leave the contract without an owner, thereby removing any functionality that is only available to the owner."
      },
      "transferOwnership(address)": {
        "details": "Transfers ownership of the contract to a new account (`newOwner`). Can only be called by the current owner."
      },
      "withdrawStake()": {
        "details": "The number of vote power to withdraw"
      }
    },
    "title": "PoSPoolmini is a small Conflux POS pool cantract with the basic usages ",
    "version": 1
  },
  "userdoc": {
    "kind": "user",
    "methods": {
      "_setLockPeriod(uint64,uint64)": {
        "notice": "Enable admin to set the lock and unlock period"
      },
      "_setPoolName(string)": {
        "notice": "Enable admin to set the pool name"
      },
      "_set_bridges(address,address,address)": {
        "notice": "Enable admin to set the user share ratio"
      },
      "claimAllInterest()": {
        "notice": "Claim all interest in pool"
      },
      "decreaseStake(uint64)": {
        "notice": "Decrease PoS vote power"
      },
      "increaseStake(uint64)": {
        "notice": "Increase PoS vote power"
      },
      "poolSummary()": {
        "notice": "Get  pool summary"
      },
      "register(bytes32,uint64,bytes,bytes,bytes[2])": {
        "notice": "Regist the pool contract in PoS internal contract "
      },
      "withdrawStake()": {
        "notice": "Withdraw PoS vote power"
      }
    },
    "notice": "bridge use this contract to participate Conflux PoS.",
    "version": 1
  }
}