{
  "contractName": "PoSPoolmini",
  "abi": [
    {
      "anonymous": false,
      "inputs": [
        {
          "indexed": true,
          "internalType": "address",
          "name": "user",
          "type": "address"
        },
        {
          "indexed": false,
          "internalType": "uint256",
          "name": "amount",
          "type": "uint256"
        }
      ],
      "name": "ClaimInterest",
      "type": "event"
    },
    {
      "anonymous": false,
      "inputs": [
        {
          "indexed": true,
          "internalType": "address",
          "name": "user",
          "type": "address"
        },
        {
          "indexed": false,
          "internalType": "uint256",
          "name": "votePower",
          "type": "uint256"
        }
      ],
      "name": "DecreasePoSStake",
      "type": "event"
    },
    {
      "anonymous": false,
      "inputs": [
        {
          "indexed": true,
          "internalType": "address",
          "name": "user",
          "type": "address"
        },
        {
          "indexed": false,
          "internalType": "uint256",
          "name": "votePower",
          "type": "uint256"
        }
      ],
      "name": "IncreasePoSStake",
      "type": "event"
    },
    {
      "anonymous": false,
      "inputs": [
        {
          "indexed": true,
          "internalType": "address",
          "name": "previousOwner",
          "type": "address"
        },
        {
          "indexed": true,
          "internalType": "address",
          "name": "newOwner",
          "type": "address"
        }
      ],
      "name": "OwnershipTransferred",
      "type": "event"
    },
    {
      "anonymous": false,
      "inputs": [
        {
          "indexed": true,
          "internalType": "address",
          "name": "user",
          "type": "address"
        },
        {
          "indexed": false,
          "internalType": "uint256",
          "name": "votePower",
          "type": "uint256"
        }
      ],
      "name": "WithdrawStake",
      "type": "event"
    },
    {
      "stateMutability": "payable",
      "type": "fallback"
    },
    {
      "inputs": [],
      "name": "_poolLockPeriod_in",
      "outputs": [
        {
          "internalType": "uint256",
          "name": "",
          "type": "uint256"
        }
      ],
      "stateMutability": "view",
      "type": "function"
    },
    {
      "inputs": [],
      "name": "_poolLockPeriod_out",
      "outputs": [
        {
          "internalType": "uint256",
          "name": "",
          "type": "uint256"
        }
      ],
      "stateMutability": "view",
      "type": "function"
    },
    {
      "inputs": [],
      "name": "_poolRegisted",
      "outputs": [
        {
          "internalType": "bool",
          "name": "",
          "type": "bool"
        }
      ],
      "stateMutability": "view",
      "type": "function"
    },
    {
      "inputs": [],
      "name": "owner",
      "outputs": [
        {
          "internalType": "address",
          "name": "",
          "type": "address"
        }
      ],
      "stateMutability": "view",
      "type": "function"
    },
    {
      "inputs": [],
      "name": "poolName",
      "outputs": [
        {
          "internalType": "string",
          "name": "",
          "type": "string"
        }
      ],
      "stateMutability": "view",
      "type": "function"
    },
    {
      "inputs": [],
      "name": "renounceOwnership",
      "outputs": [],
      "stateMutability": "nonpayable",
      "type": "function"
    },
    {
      "inputs": [
        {
          "internalType": "address",
          "name": "newOwner",
          "type": "address"
        }
      ],
      "name": "transferOwnership",
      "outputs": [],
      "stateMutability": "nonpayable",
      "type": "function"
    },
    {
      "stateMutability": "payable",
      "type": "receive"
    },
    {
      "inputs": [],
      "name": "initialize",
      "outputs": [],
      "stateMutability": "nonpayable",
      "type": "function"
    },
    {
      "inputs": [
        {
          "internalType": "bytes32",
          "name": "indentifier",
          "type": "bytes32"
        },
        {
          "internalType": "uint64",
          "name": "votePower",
          "type": "uint64"
        },
        {
          "internalType": "bytes",
          "name": "blsPubKey",
          "type": "bytes"
        },
        {
          "internalType": "bytes",
          "name": "vrfPubKey",
          "type": "bytes"
        },
        {
          "internalType": "bytes[2]",
          "name": "blsPubKeyProof",
          "type": "bytes[2]"
        }
      ],
      "name": "register",
      "outputs": [],
      "stateMutability": "payable",
      "type": "function"
    },
    {
      "inputs": [
        {
          "internalType": "uint64",
          "name": "votePower",
          "type": "uint64"
        }
      ],
      "name": "increaseStake",
      "outputs": [],
      "stateMutability": "payable",
      "type": "function"
    },
    {
      "inputs": [
        {
          "internalType": "uint64",
          "name": "votePower",
          "type": "uint64"
        }
      ],
      "name": "decreaseStake",
      "outputs": [],
      "stateMutability": "nonpayable",
      "type": "function"
    },
    {
      "inputs": [],
      "name": "withdrawStake",
      "outputs": [],
      "stateMutability": "nonpayable",
      "type": "function"
    },
    {
      "inputs": [],
      "name": "claimAllInterest",
      "outputs": [
        {
          "internalType": "uint256",
          "name": "",
          "type": "uint256"
        }
      ],
      "stateMutability": "nonpayable",
      "type": "function"
    },
    {
      "inputs": [],
      "name": "temp_Interest",
      "outputs": [
        {
          "internalType": "uint256",
          "name": "",
          "type": "uint256"
        }
      ],
      "stateMutability": "view",
      "type": "function"
    },
    {
      "inputs": [],
      "name": "poolSummary",
      "outputs": [
        {
          "components": [
            {
              "internalType": "uint256",
              "name": "totalvotes",
              "type": "uint256"
            },
            {
              "internalType": "uint256",
              "name": "locking",
              "type": "uint256"
            },
            {
              "internalType": "uint256",
              "name": "locked",
              "type": "uint256"
            },
            {
              "internalType": "uint256",
              "name": "unlocking",
              "type": "uint256"
            },
            {
              "internalType": "uint256",
              "name": "unlocked",
              "type": "uint256"
            },
            {
              "internalType": "uint256",
              "name": "totalInterest",
              "type": "uint256"
            },
            {
              "internalType": "uint256",
              "name": "claimedInterest",
              "type": "uint256"
            }
          ],
          "internalType": "struct PoSPoolmini.PoolSummary",
          "name": "",
          "type": "tuple"
        }
      ],
      "stateMutability": "view",
      "type": "function"
    },
    {
      "inputs": [],
      "name": "posAddress",
      "outputs": [
        {
          "internalType": "bytes32",
          "name": "",
          "type": "bytes32"
        }
      ],
      "stateMutability": "view",
      "type": "function"
    },
    {
      "inputs": [],
      "name": "getInQueue",
      "outputs": [
        {
          "components": [
            {
              "internalType": "uint256",
              "name": "votePower",
              "type": "uint256"
            },
            {
              "internalType": "uint256",
              "name": "endBlock",
              "type": "uint256"
            }
          ],
          "internalType": "struct VotePowerQueue.QueueNode[]",
          "name": "",
          "type": "tuple[]"
        }
      ],
      "stateMutability": "view",
      "type": "function"
    },
    {
      "inputs": [],
      "name": "getOutQueue",
      "outputs": [
        {
          "components": [
            {
              "internalType": "uint256",
              "name": "votePower",
              "type": "uint256"
            },
            {
              "internalType": "uint256",
              "name": "endBlock",
              "type": "uint256"
            }
          ],
          "internalType": "struct VotePowerQueue.QueueNode[]",
          "name": "",
          "type": "tuple[]"
        }
      ],
      "stateMutability": "view",
      "type": "function"
    },
    {
      "inputs": [
        {
          "internalType": "address",
          "name": "_bridge",
          "type": "address"
        },
        {
          "internalType": "address",
          "name": "_withdraw",
          "type": "address"
        },
        {
          "internalType": "address",
          "name": "_storage",
          "type": "address"
        }
      ],
      "name": "_set_bridges",
      "outputs": [],
      "stateMutability": "nonpayable",
      "type": "function"
    },
    {
      "inputs": [
        {
          "internalType": "uint64",
          "name": "_in",
          "type": "uint64"
        },
        {
          "internalType": "uint64",
          "name": "_out",
          "type": "uint64"
        }
      ],
      "name": "_setLockPeriod",
      "outputs": [],
      "stateMutability": "nonpayable",
      "type": "function"
    },
    {
      "inputs": [
        {
          "internalType": "string",
          "name": "name",
          "type": "string"
        }
      ],
      "name": "_setPoolName",
      "outputs": [],
      "stateMutability": "nonpayable",
      "type": "function"
    },
    {
      "inputs": [
        {
          "internalType": "uint256",
          "name": "count",
          "type": "uint256"
        }
      ],
      "name": "_setCfxCountOfOneVote",
      "outputs": [],
      "stateMutability": "nonpayable",
      "type": "function"
    },
    {
      "inputs": [
        {
          "internalType": "uint64",
          "name": "votePower",
          "type": "uint64"
        }
      ],
      "name": "_reStake",
      "outputs": [],
      "stateMutability": "nonpayable",
      "type": "function"
    },
    {
      "inputs": [
        {
          "internalType": "bool",
          "name": "_mode",
          "type": "bool"
        }
      ],
      "name": "register_test",
      "outputs": [],
      "stateMutability": "nonpayable",
      "type": "function"
    }
  ],
  "bytecode": "0x60806040526103e8600155683635c9adc5dea000006002556202a30060035562018e70600d600354620000339190620001c2565b6200003f919062000165565b600855611c206001600354620000569190620001c2565b62000062919062000165565b6009553480156200007257600080fd5b5062000093620000876200009960201b60201c565b620000a160201b60201c565b6200025c565b600033905090565b60008060009054906101000a900473ffffffffffffffffffffffffffffffffffffffff169050816000806101000a81548173ffffffffffffffffffffffffffffffffffffffff021916908373ffffffffffffffffffffffffffffffffffffffff1602179055508173ffffffffffffffffffffffffffffffffffffffff168173ffffffffffffffffffffffffffffffffffffffff167f8be0079c531659141344cd1fd0a4f28419497f9722a3daafe3b4186f6b6457e060405160405180910390a35050565b6000620001728262000223565b91506200017f8362000223565b9250827fffffffffffffffffffffffffffffffffffffffffffffffffffffffffffffffff03821115620001b757620001b66200022d565b5b828201905092915050565b6000620001cf8262000223565b9150620001dc8362000223565b9250817fffffffffffffffffffffffffffffffffffffffffffffffffffffffffffffffff04831182151516156200021857620002176200022d565b5b828202905092915050565b6000819050919050565b7f4e487b7100000000000000000000000000000000000000000000000000000000600052601160045260246000fd5b6135aa806200026c6000396000f3fe60806040526004361061014f5760003560e01c80639bdeb5aa116100b6578063e335b4511161006f578063e335b45114610407578063e73e183b14610423578063e7c816031461044e578063f2fde38b14610479578063f313afaf146104a2578063f3466dfa146104cb57610156565b80639bdeb5aa14610321578063adcb49821461034c578063beb99c1e14610375578063bed9d8611461039e578063db51ffe4146103b5578063e1458b54146103de57610156565b80634db88eff116101085780634db88eff14610247578063715018a6146102725780637571fcf6146102895780638129fc1c146102b45780638270512f146102cb5780638da5cb5b146102f657610156565b806309fecf7f146101585780631764618c1461017457806332d5d7a51461019f57806336c52949146101ca5780633a7e2d9a146101f35780634b1b45e61461021c57610156565b3661015657005b005b610172600480360381019061016d9190612644565b6104f6565b005b34801561018057600080fd5b5061018961079d565b6040516101969190612b8c565b60405180910390f35b3480156101ab57600080fd5b506101b46107fc565b6040516101c19190612b4f565b60405180910390f35b3480156101d657600080fd5b506101f160048036038101906101ec91906125da565b61080d565b005b3480156101ff57600080fd5b5061021a6004803603810190610215919061261b565b6108a3565b005b34801561022857600080fd5b50610231610943565b60405161023e9190612b71565b60405180910390f35b34801561025357600080fd5b5061025c610956565b6040516102699190612df0565b60405180910390f35b34801561027e57600080fd5b5061028761095c565b005b34801561029557600080fd5b5061029e6109e4565b6040516102ab9190612dd5565b60405180910390f35b3480156102c057600080fd5b506102c9610a8e565b005b3480156102d757600080fd5b506102e0610bd1565b6040516102ed9190612df0565b60405180910390f35b34801561030257600080fd5b5061030b610d70565b6040516103189190612b34565b60405180910390f35b34801561032d57600080fd5b50610336610d99565b6040516103439190612df0565b60405180910390f35b34801561035857600080fd5b50610373600480360381019061036e9190612471565b610d9f565b005b34801561038157600080fd5b5061039c60048036038101906103979190612644565b610ee3565b005b3480156103aa57600080fd5b506103b361124d565b005b3480156103c157600080fd5b506103dc60048036038101906103d7919061266d565b6114b3565b005b3480156103ea57600080fd5b50610405600480360381019061040091906124c0565b611555565b005b610421600480360381019061041c9190612512565b6115ee565b005b34801561042f57600080fd5b5061043861185b565b6040516104459190612df0565b60405180910390f35b34801561045a57600080fd5b506104636118b2565b6040516104709190612b4f565b60405180910390f35b34801561048557600080fd5b506104a0600480360381019061049b9190612448565b6118c3565b005b3480156104ae57600080fd5b506104c960048036038101906104c49190612644565b6119bb565b005b3480156104d757600080fd5b506104e0611a43565b6040516104ed9190612c13565b60405180910390f35b600560009054906101000a900460ff16610545576040517f08c379a000000000000000000000000000000000000000000000000000000000815260040161053c90612cf5565b60405180910390fd5b600560019054906101000a900473ffffffffffffffffffffffffffffffffffffffff1673ffffffffffffffffffffffffffffffffffffffff163373ffffffffffffffffffffffffffffffffffffffff16146105d5576040517f08c379a00000000000000000000000000000000000000000000000000000000081526004016105cc90612c55565b60405180910390fd5b60008167ffffffffffffffff1611610622576040517f08c379a000000000000000000000000000000000000000000000000000000000815260040161061990612d35565b60405180910390fd5b6002548167ffffffffffffffff1661063a9190612fe8565b341461067b576040517f08c379a000000000000000000000000000000000000000000000000000000000815260040161067290612c35565b60405180910390fd5b61068434611ad1565b61068d81611b53565b3373ffffffffffffffffffffffffffffffffffffffff167ff5ebfcde71acb15a758233f0c9ab25632209399b90a9209a4f2379ec5fcee89f826040516106d39190612e0b565b60405180910390a28067ffffffffffffffff16600a60000160008282546106fa9190612f92565b925050819055508067ffffffffffffffff16600a60010160008282546107209190612f92565b9250508190555061076d60405180604001604052808367ffffffffffffffff168152602001600854610750611bd5565b61075a9190612f92565b8152506011611bdd90919063ffffffff16565b6107776011611c26565b600a600201600082825461078b9190612f92565b9250508190555061079a611cb5565b50565b6000600560009054906101000a900460ff166107ee576040517f08c379a00000000000000000000000000000000000000000000000000000000081526004016107e590612cf5565b60405180910390fd5b6107f730611ce8565b905090565b60606108086011611d8e565b905090565b610815611edb565b73ffffffffffffffffffffffffffffffffffffffff16610833610d70565b73ffffffffffffffffffffffffffffffffffffffff1614610889576040517f08c379a000000000000000000000000000000000000000000000000000000000815260040161088090612d15565b60405180910390fd5b806004908051906020019061089f929190612200565b5050565b6108ab611edb565b73ffffffffffffffffffffffffffffffffffffffff166108c9610d70565b73ffffffffffffffffffffffffffffffffffffffff161461091f576040517f08c379a000000000000000000000000000000000000000000000000000000000815260040161091690612d15565b60405180910390fd5b80600181905550670de0b6b3a76400008161093a9190612fe8565b60028190555050565b600560009054906101000a900460ff1681565b60085481565b610964611edb565b73ffffffffffffffffffffffffffffffffffffffff16610982610d70565b73ffffffffffffffffffffffffffffffffffffffff16146109d8576040517f08c379a00000000000000000000000000000000000000000000000000000000081526004016109cf90612d15565b60405180910390fd5b6109e26000611ee3565b565b6109ec612286565b6000600a6040518060e001604052908160008201548152602001600182015481526020016002820154815260200160038201548152602001600482015481526020016005820154815260200160068201548152505090506000610a64601760010154610a56611fa7565b611faf90919063ffffffff16565b9050610a7d818360a00151611fc590919063ffffffff16565b8260a0018181525050819250505090565b600060159054906101000a900460ff1680610ab65750600060149054906101000a900460ff16155b610af5576040517f08c379a0000000000000000000000000000000000000000000000000000000008152600401610aec90612cd5565b60405180910390fd5b60008060159054906101000a900460ff161590508015610b46576001600060156101000a81548160ff0219169083151502179055506001600060146101000a81548160ff0219169083151502179055505b6103e8600181905550683635c9adc5dea000006002819055506202a300600381905550610e10600d600354610b7b9190612fe8565b610b859190612f92565b600881905550610e106001600354610b9d9190612fe8565b610ba79190612f92565b6009819055508015610bce5760008060156101000a81548160ff0219169083151502179055505b50565b6000600560009054906101000a900460ff16610c22576040517f08c379a0000000000000000000000000000000000000000000000000000000008152600401610c1990612cf5565b60405180910390fd5b600560019054906101000a900473ffffffffffffffffffffffffffffffffffffffff1673ffffffffffffffffffffffffffffffffffffffff163373ffffffffffffffffffffffffffffffffffffffff1614610cb2576040517f08c379a0000000000000000000000000000000000000000000000000000000008152600401610ca990612c55565b60405180910390fd5b600047905060008111610cfa576040517f08c379a0000000000000000000000000000000000000000000000000000000008152600401610cf190612d55565b60405180910390fd5b6000600760009054906101000a900473ffffffffffffffffffffffffffffffffffffffff1690508073ffffffffffffffffffffffffffffffffffffffff166108fc839081150290604051600060405180830381858888f19350505050158015610d67573d6000803e3d6000fd5b50819250505090565b60008060009054906101000a900473ffffffffffffffffffffffffffffffffffffffff16905090565b60095481565b610da7611edb565b73ffffffffffffffffffffffffffffffffffffffff16610dc5610d70565b73ffffffffffffffffffffffffffffffffffffffff1614610e1b576040517f08c379a0000000000000000000000000000000000000000000000000000000008152600401610e1290612d15565b60405180910390fd5b82600560016101000a81548173ffffffffffffffffffffffffffffffffffffffff021916908373ffffffffffffffffffffffffffffffffffffffff16021790555081600660006101000a81548173ffffffffffffffffffffffffffffffffffffffff021916908373ffffffffffffffffffffffffffffffffffffffff16021790555080600760006101000a81548173ffffffffffffffffffffffffffffffffffffffff021916908373ffffffffffffffffffffffffffffffffffffffff160217905550505050565b600560009054906101000a900460ff16610f32576040517f08c379a0000000000000000000000000000000000000000000000000000000008152600401610f2990612cf5565b60405180910390fd5b600560019054906101000a900473ffffffffffffffffffffffffffffffffffffffff1673ffffffffffffffffffffffffffffffffffffffff163373ffffffffffffffffffffffffffffffffffffffff1614610fc2576040517f08c379a0000000000000000000000000000000000000000000000000000000008152600401610fb990612c55565b60405180910390fd5b6000610fce6011611c26565b600a6002016000828254610fe29190612f92565b925050819055508167ffffffffffffffff16600a60000154101561103b576040517f08c379a000000000000000000000000000000000000000000000000000000000815260040161103290612cb5565b60405180910390fd5b61104482611fdb565b3373ffffffffffffffffffffffffffffffffffffffff167fd81524ca5b038be9f98b286808a6f46f99c8700bce9ab4793dc12a2dbaa4f2d88360405161108a9190612e0b565b60405180910390a28167ffffffffffffffff16600a60000160008282546110b19190613042565b925050819055508167ffffffffffffffff16600a60030160008282546110d79190612f92565b92505081905550600a600201548267ffffffffffffffff1611611165578167ffffffffffffffff16600a60020160008282546111139190613042565b9250508190555061116060405180604001604052808467ffffffffffffffff168152602001600954611143611bd5565b61114d9190612f92565b8152506014611bdd90919063ffffffff16565b6111fd565b600a600201548267ffffffffffffffff166111809190613042565b90506000600a6002018190555080600a60010160008282546111a29190613042565b925050819055506111fc60405180604001604052808467ffffffffffffffff1681526020016009546008546111d5611bd5565b6111df9190612f92565b6111e99190612f92565b8152506014611bdd90919063ffffffff16565b5b6112076014611c26565b905080600a600301600082825461121e9190613042565b9250508190555080600a600401600082825461123a9190612f92565b92505081905550611249611cb5565b5050565b600560009054906101000a900460ff1661129c576040517f08c379a000000000000000000000000000000000000000000000000000000000815260040161129390612cf5565b60405180910390fd5b600560019054906101000a900473ffffffffffffffffffffffffffffffffffffffff1673ffffffffffffffffffffffffffffffffffffffff163373ffffffffffffffffffffffffffffffffffffffff161461132c576040517f08c379a000000000000000000000000000000000000000000000000000000000815260040161132390612c55565b60405180910390fd5b60006113386014611c26565b905080600a600301600082825461134f9190613042565b9250508190555080600a600401600082825461136b9190612f92565b925050819055506000600a6004015410156113bb576040517f08c379a00000000000000000000000000000000000000000000000000000000081526004016113b290612db5565b60405180910390fd5b6113d6600254600a600401546113d19190612fe8565b61205d565b6000600660009054906101000a900473ffffffffffffffffffffffffffffffffffffffff1690508073ffffffffffffffffffffffffffffffffffffffff166108fc600254600a6004015461142a9190612fe8565b9081150290604051600060405180830381858888f19350505050158015611455573d6000803e3d6000fd5b506000600a600401819055503373ffffffffffffffffffffffffffffffffffffffff167f141ef67c4a6d3ec2adfb2f66d33c2b11de5b4f34344757554d430570b18a92ec836040516114a79190612df0565b60405180910390a25050565b6114bb611edb565b73ffffffffffffffffffffffffffffffffffffffff166114d9610d70565b73ffffffffffffffffffffffffffffffffffffffff161461152f576040517f08c379a000000000000000000000000000000000000000000000000000000000815260040161152690612d15565b60405180910390fd5b8167ffffffffffffffff166008819055508067ffffffffffffffff166009819055505050565b61155d611edb565b73ffffffffffffffffffffffffffffffffffffffff1661157b610d70565b73ffffffffffffffffffffffffffffffffffffffff16146115d1576040517f08c379a00000000000000000000000000000000000000000000000000000000081526004016115c890612d15565b60405180910390fd5b80600560006101000a81548160ff02191690831515021790555050565b6115f6611edb565b73ffffffffffffffffffffffffffffffffffffffff16611614610d70565b73ffffffffffffffffffffffffffffffffffffffff161461166a576040517f08c379a000000000000000000000000000000000000000000000000000000000815260040161166190612d15565b60405180910390fd5b600560009054906101000a900460ff16156116ba576040517f08c379a00000000000000000000000000000000000000000000000000000000081526004016116b190612d75565b60405180910390fd5b60018667ffffffffffffffff1614611707576040517f08c379a00000000000000000000000000000000000000000000000000000000081526004016116fe90612d95565b60405180910390fd5b6002548667ffffffffffffffff1661171f9190612fe8565b3414611760576040517f08c379a000000000000000000000000000000000000000000000000000000000815260040161175790612c95565b60405180910390fd5b61176934611ad1565b611778878787878787876120df565b6001600560006101000a81548160ff0219169083151502179055508567ffffffffffffffff16600a60000160008282546117b29190612f92565b925050819055508567ffffffffffffffff16600a60010160008282546117d89190612f92565b9250508190555061182560405180604001604052808867ffffffffffffffff168152602001600854611808611bd5565b6118129190612f92565b8152506011611bdd90919063ffffffff16565b61182f6011611c26565b600a60020160008282546118439190612f92565b92505081905550611852611cb5565b50505050505050565b6000600560009054906101000a900460ff166118ac576040517f08c379a00000000000000000000000000000000000000000000000000000000081526004016118a390612cf5565b60405180910390fd5b47905090565b60606118be6014611d8e565b905090565b6118cb611edb565b73ffffffffffffffffffffffffffffffffffffffff166118e9610d70565b73ffffffffffffffffffffffffffffffffffffffff161461193f576040517f08c379a000000000000000000000000000000000000000000000000000000000815260040161193690612d15565b60405180910390fd5b600073ffffffffffffffffffffffffffffffffffffffff168173ffffffffffffffffffffffffffffffffffffffff1614156119af576040517f08c379a00000000000000000000000000000000000000000000000000000000081526004016119a690612c75565b60405180910390fd5b6119b881611ee3565b50565b6119c3611edb565b73ffffffffffffffffffffffffffffffffffffffff166119e1610d70565b73ffffffffffffffffffffffffffffffffffffffff1614611a37576040517f08c379a0000000000000000000000000000000000000000000000000000000008152600401611a2e90612d15565b60405180910390fd5b611a4081611b53565b50565b60048054611a5090613130565b80601f0160208091040260200160405190810160405280929190818152602001828054611a7c90613130565b8015611ac95780601f10611a9e57610100808354040283529160200191611ac9565b820191906000526020600020905b815481529060010190602001808311611aac57829003601f168201915b505050505081565b73088800000000000000000000000000000000000273ffffffffffffffffffffffffffffffffffffffff1663b6b55f25826040518263ffffffff1660e01b8152600401611b1e9190612df0565b600060405180830381600087803b158015611b3857600080fd5b505af1158015611b4c573d6000803e3d6000fd5b5050505050565b73088800000000000000000000000000000000000573ffffffffffffffffffffffffffffffffffffffff166309fecf7f826040518263ffffffff1660e01b8152600401611ba09190612e26565b600060405180830381600087803b158015611bba57600080fd5b505af1158015611bce573d6000803e3d6000fd5b5050505050565b600043905090565b80826002016000846001016000815480929190611bf990613193565b91905055815260200190815260200160002060008201518160000155602082015181600101559050505050565b600080600090506000836000015490505b8360010154811015611cab5743846002016000838152602001908152602001600020600101541115611c6857611cab565b8360020160008281526020019081526020016000206000015482611c8c9190612f92565b9150611c9784612173565b508080611ca390613193565b915050611c37565b5080915050919050565b600a60000154601760000181905550611ccc611fa7565b601760010181905550611cdd611bd5565b601760020181905550565b600073088800000000000000000000000000000000000573ffffffffffffffffffffffffffffffffffffffff16636a06ea96836040518263ffffffff1660e01b8152600401611d379190612b34565b60206040518083038186803b158015611d4f57600080fd5b505afa158015611d63573d6000803e3d6000fd5b505050506040513d601f19601f82011682018060405250810190611d8791906124e9565b9050919050565b6060600082600001548360010154611da69190613042565b67ffffffffffffffff811115611de5577f4e487b7100000000000000000000000000000000000000000000000000000000600052604160045260246000fd5b604051908082528060200260200182016040528015611e1e57816020015b611e0b6122c3565b815260200190600190039081611e035790505b5090506000836000015490505b8360010154811015611ed1578360020160008281526020019081526020016000206040518060400160405290816000820154815260200160018201548152505082856000015483611e7c9190613042565b81518110611eb3577f4e487b7100000000000000000000000000000000000000000000000000000000600052603260045260246000fd5b60200260200101819052508080611ec990613193565b915050611e2b565b5080915050919050565b600033905090565b60008060009054906101000a900473ffffffffffffffffffffffffffffffffffffffff169050816000806101000a81548173ffffffffffffffffffffffffffffffffffffffff021916908373ffffffffffffffffffffffffffffffffffffffff1602179055508173ffffffffffffffffffffffffffffffffffffffff168173ffffffffffffffffffffffffffffffffffffffff167f8be0079c531659141344cd1fd0a4f28419497f9722a3daafe3b4186f6b6457e060405160405180910390a35050565b600047905090565b60008183611fbd9190613042565b905092915050565b60008183611fd39190612f92565b905092915050565b73088800000000000000000000000000000000000573ffffffffffffffffffffffffffffffffffffffff1663f49d0638826040518263ffffffff1660e01b81526004016120289190612e26565b600060405180830381600087803b15801561204257600080fd5b505af1158015612056573d6000803e3d6000fd5b5050505050565b73088800000000000000000000000000000000000273ffffffffffffffffffffffffffffffffffffffff16632e1a7d4d826040518263ffffffff1660e01b81526004016120aa9190612df0565b600060405180830381600087803b1580156120c457600080fd5b505af11580156120d8573d6000803e3d6000fd5b5050505050565b73088800000000000000000000000000000000000573ffffffffffffffffffffffffffffffffffffffff1663e335b451888888888888886040518863ffffffff1660e01b81526004016121389796959493929190612ba7565b600060405180830381600087803b15801561215257600080fd5b505af1158015612166573d6000803e3d6000fd5b5050505050505050505050565b61217b6122c3565b6000826002016000846000015481526020019081526020016000206040518060400160405290816000820154815260200160018201548152505090508260020160008460000160008154809291906121d290613193565b9190505581526020019081526020016000206000808201600090556001820160009055505080915050919050565b82805461220c90613130565b90600052602060002090601f01602090048101928261222e5760008555612275565b82601f1061224757805160ff1916838001178555612275565b82800160010185558215612275579182015b82811115612274578251825591602001919060010190612259565b5b50905061228291906122dd565b5090565b6040518060e00160405280600081526020016000815260200160008152602001600081526020016000815260200160008152602001600081525090565b604051806040016040528060008152602001600081525090565b5b808211156122f65760008160009055506001016122de565b5090565b600061230d61230884612e66565b612e41565b90508281526020810184848401111561232557600080fd5b6123308482856130ee565b509392505050565b60008135905061234781613501565b92915050565b60008190508260206002028201111561236557600080fd5b92915050565b60008135905061237a81613518565b92915050565b60008135905061238f8161352f565b92915050565b6000815190506123a48161352f565b92915050565b60008083601f8401126123bc57600080fd5b8235905067ffffffffffffffff8111156123d557600080fd5b6020830191508360018202830111156123ed57600080fd5b9250929050565b600082601f83011261240557600080fd5b81356124158482602086016122fa565b91505092915050565b60008135905061242d81613546565b92915050565b6000813590506124428161355d565b92915050565b60006020828403121561245a57600080fd5b600061246884828501612338565b91505092915050565b60008060006060848603121561248657600080fd5b600061249486828701612338565b93505060206124a586828701612338565b92505060406124b686828701612338565b9150509250925092565b6000602082840312156124d257600080fd5b60006124e08482850161236b565b91505092915050565b6000602082840312156124fb57600080fd5b600061250984828501612395565b91505092915050565b600080600080600080600060a0888a03121561252d57600080fd5b600061253b8a828b01612380565b975050602061254c8a828b01612433565b965050604088013567ffffffffffffffff81111561256957600080fd5b6125758a828b016123aa565b9550955050606088013567ffffffffffffffff81111561259457600080fd5b6125a08a828b016123aa565b9350935050608088013567ffffffffffffffff8111156125bf57600080fd5b6125cb8a828b0161234d565b91505092959891949750929550565b6000602082840312156125ec57600080fd5b600082013567ffffffffffffffff81111561260657600080fd5b612612848285016123f4565b91505092915050565b60006020828403121561262d57600080fd5b600061263b8482850161241e565b91505092915050565b60006020828403121561265657600080fd5b600061266484828501612433565b91505092915050565b6000806040838503121561268057600080fd5b600061268e85828601612433565b925050602061269f85828601612433565b9150509250929050565b60006126b68484846127e1565b90509392505050565b60006126cb8383612ac9565b60408301905092915050565b6126e081613076565b82525050565b60006126f182612eb1565b6126fb8185612eec565b93508360208202850161270d85612e97565b8060005b858110156127535784840389526127288284612f3b565b6127338682846126a9565b955061273e84612ed2565b935060208b019a505050600181019050612711565b50829750879550505050505092915050565b600061277082612ebc565b61277a8185612ef7565b935061278583612ea1565b8060005b838110156127b657815161279d88826126bf565b97506127a883612edf565b925050600181019050612789565b5085935050505092915050565b6127cc81613088565b82525050565b6127db81613094565b82525050565b60006127ed8385612f08565b93506127fa8385846130ee565b61280383613269565b840190509392505050565b600061281a8385612f19565b93506128278385846130ee565b61283083613269565b840190509392505050565b600061284682612ec7565b6128508185612f2a565b93506128608185602086016130fd565b61286981613269565b840191505092915050565b6000612881602a83612f2a565b915061288c8261327a565b604082019050919050565b60006128a4601883612f2a565b91506128af826132c9565b602082019050919050565b60006128c7602683612f2a565b91506128d2826132f2565b604082019050919050565b60006128ea601c83612f2a565b91506128f582613341565b602082019050919050565b600061290d601383612f2a565b91506129188261336a565b602082019050919050565b6000612930602e83612f2a565b915061293b82613393565b604082019050919050565b6000612953601483612f2a565b915061295e826133e2565b602082019050919050565b6000612976602083612f2a565b91506129818261340b565b602082019050919050565b6000612999601683612f2a565b91506129a482613434565b602082019050919050565b60006129bc601583612f2a565b91506129c78261345d565b602082019050919050565b60006129df601883612f2a565b91506129ea82613486565b602082019050919050565b6000612a02601583612f2a565b9150612a0d826134af565b602082019050919050565b6000612a25601683612f2a565b9150612a30826134d8565b602082019050919050565b60e082016000820151612a516000850182612af8565b506020820151612a646020850182612af8565b506040820151612a776040850182612af8565b506060820151612a8a6060850182612af8565b506080820151612a9d6080850182612af8565b5060a0820151612ab060a0850182612af8565b5060c0820151612ac360c0850182612af8565b50505050565b604082016000820151612adf6000850182612af8565b506020820151612af26020850182612af8565b50505050565b612b01816130be565b82525050565b612b10816130be565b82525050565b612b1f816130dc565b82525050565b612b2e816130c8565b82525050565b6000602082019050612b4960008301846126d7565b92915050565b60006020820190508181036000830152612b698184612765565b905092915050565b6000602082019050612b8660008301846127c3565b92915050565b6000602082019050612ba160008301846127d2565b92915050565b600060a082019050612bbc600083018a6127d2565b612bc96020830189612b25565b8181036040830152612bdc81878961280e565b90508181036060830152612bf181858761280e565b90508181036080830152612c0581846126e6565b905098975050505050505050565b60006020820190508181036000830152612c2d818461283b565b905092915050565b60006020820190508181036000830152612c4e81612874565b9050919050565b60006020820190508181036000830152612c6e81612897565b9050919050565b60006020820190508181036000830152612c8e816128ba565b9050919050565b60006020820190508181036000830152612cae816128dd565b9050919050565b60006020820190508181036000830152612cce81612900565b9050919050565b60006020820190508181036000830152612cee81612923565b9050919050565b60006020820190508181036000830152612d0e81612946565b9050919050565b60006020820190508181036000830152612d2e81612969565b9050919050565b60006020820190508181036000830152612d4e8161298c565b9050919050565b60006020820190508181036000830152612d6e816129af565b9050919050565b60006020820190508181036000830152612d8e816129d2565b9050919050565b60006020820190508181036000830152612dae816129f5565b9050919050565b60006020820190508181036000830152612dce81612a18565b9050919050565b600060e082019050612dea6000830184612a3b565b92915050565b6000602082019050612e056000830184612b07565b92915050565b6000602082019050612e206000830184612b16565b92915050565b6000602082019050612e3b6000830184612b25565b92915050565b6000612e4b612e5c565b9050612e578282613162565b919050565b6000604051905090565b600067ffffffffffffffff821115612e8157612e8061323a565b5b612e8a82613269565b9050602081019050919050565b6000819050919050565b6000819050602082019050919050565b600060029050919050565b600081519050919050565b600081519050919050565b6000602082019050919050565b6000602082019050919050565b600081905092915050565b600082825260208201905092915050565b600082825260208201905092915050565b600082825260208201905092915050565b600082825260208201905092915050565b60008083356001602003843603038112612f5457600080fd5b83810192508235915060208301925067ffffffffffffffff821115612f7857600080fd5b600182023603841315612f8a57600080fd5b509250929050565b6000612f9d826130be565b9150612fa8836130be565b9250827fffffffffffffffffffffffffffffffffffffffffffffffffffffffffffffffff03821115612fdd57612fdc6131dc565b5b828201905092915050565b6000612ff3826130be565b9150612ffe836130be565b9250817fffffffffffffffffffffffffffffffffffffffffffffffffffffffffffffffff0483118215151615613037576130366131dc565b5b828202905092915050565b600061304d826130be565b9150613058836130be565b92508282101561306b5761306a6131dc565b5b828203905092915050565b60006130818261309e565b9050919050565b60008115159050919050565b6000819050919050565b600073ffffffffffffffffffffffffffffffffffffffff82169050919050565b6000819050919050565b600067ffffffffffffffff82169050919050565b60006130e7826130c8565b9050919050565b82818337600083830152505050565b60005b8381101561311b578082015181840152602081019050613100565b8381111561312a576000848401525b50505050565b6000600282049050600182168061314857607f821691505b6020821081141561315c5761315b61320b565b5b50919050565b61316b82613269565b810181811067ffffffffffffffff8211171561318a5761318961323a565b5b80604052505050565b600061319e826130be565b91507fffffffffffffffffffffffffffffffffffffffffffffffffffffffffffffffff8214156131d1576131d06131dc565b5b600182019050919050565b7f4e487b7100000000000000000000000000000000000000000000000000000000600052601160045260246000fd5b7f4e487b7100000000000000000000000000000000000000000000000000000000600052602260045260246000fd5b7f4e487b7100000000000000000000000000000000000000000000000000000000600052604160045260246000fd5b6000601f19601f8301169050919050565b7f6d73672e76616c75652073686f756c6420626520766f7465506f776572202a2060008201527f3130303020657468657200000000000000000000000000000000000000000000602082015250565b7f6d73672e73656e646572206973206e6f74206272696467650000000000000000600082015250565b7f4f776e61626c653a206e6577206f776e657220697320746865207a65726f206160008201527f6464726573730000000000000000000000000000000000000000000000000000602082015250565b7f6d73672e76616c75652073686f756c6420626520313030302043465800000000600082015250565b7f566f746573206973206e6f7420656e6f75676800000000000000000000000000600082015250565b7f496e697469616c697a61626c653a20636f6e747261637420697320616c72656160008201527f647920696e697469616c697a6564000000000000000000000000000000000000602082015250565b7f506f6f6c206973206e6f74207265676973746564000000000000000000000000600082015250565b7f4f776e61626c653a2063616c6c6572206973206e6f7420746865206f776e6572600082015250565b7f4d696e696d616c20766f7465506f776572206973203100000000000000000000600082015250565b7f4e6f20636c61696d61626c6520696e7465726573740000000000000000000000600082015250565b7f506f6f6c20697320616c72656164792072656769737465640000000000000000600082015250565b7f766f7465506f7765722073686f756c6420626520310000000000000000000000600082015250565b7f556e6c6f636b6564206973206e6f7420656e6f75676800000000000000000000600082015250565b61350a81613076565b811461351557600080fd5b50565b61352181613088565b811461352c57600080fd5b50565b61353881613094565b811461354357600080fd5b50565b61354f816130be565b811461355a57600080fd5b50565b613566816130c8565b811461357157600080fd5b5056fea2646970667358221220ab847da68e5c9da5ceaf495fb47aebde4437c36831d082e4fee672d88d39037e64736f6c63430008020033",
  "immutableReferences": {},
  "source": "//SPDX-License-Identifier: BUSL-1.1\r\npragma solidity ^0.8.0;\r\n\r\nimport \"@openzeppelin/contracts/access/Ownable.sol\";\r\nimport \"@openzeppelin/contracts/utils/math/SafeMath.sol\";\r\nimport \"@openzeppelin/contracts/utils/structs/EnumerableSet.sol\";\r\nimport \"@openzeppelin/contracts/proxy/utils/Initializable.sol\";\r\nimport \"./PoolContext.sol\";\r\nimport \"./VotePowerQueue.sol\";\r\nimport \"./PoolAPY.sol\";\r\n\r\n///\r\n///  @title PoSPoolmini is a small Conflux POS pool cantract with the basic usages \r\n///  @dev This is Conflux PoS pool contract, the contract didn't have user\r\n///  @notice Users can use this contract to participate Conflux PoS without running a PoS node.\r\n///\r\ncontract PoSPoolmini is PoolContext, Ownable, Initializable {\r\n  using SafeMath for uint256;\r\n  using EnumerableSet for EnumerableSet.AddressSet;\r\n  using VotePowerQueue for VotePowerQueue.InOutQueue;\r\n  using PoolAPY for PoolAPY.ApyQueue;\r\n\r\n  uint256 private CFX_COUNT_OF_ONE_VOTE = 1000;\r\n  uint256 private CFX_VALUE_OF_ONE_VOTE = 1000 ether;\r\n  uint256 private ONE_DAY_BLOCK_COUNT = 2 * 3600 * 24;\r\n  \r\n  // ======================== Pool config =========================\r\n\r\n  string public poolName;\r\n  // wheter this poolContract registed in PoS\r\n  bool public _poolRegisted;\r\n  // ratio shared by user: 1-10000\r\n  address bridge_contract;\r\n  address bridge_withdraw;\r\n  address bridge_storage;\r\n\r\n  // lock period: 13 days + 1 day\r\n  uint256 public _poolLockPeriod_in = ONE_DAY_BLOCK_COUNT * 13 + 102000; \r\n  uint256 public _poolLockPeriod_out = ONE_DAY_BLOCK_COUNT * 1 + 7200; \r\n\r\n  // ======================== Struct definitions =========================\r\n\r\n  /// @title PoolSummary\r\n  /// @custom:field totalvotes Pool's total votes\r\n  /// @custom:field locking Pool's locking votes\r\n  /// @custom:field locked\r\n  /// @custom:field unlocking\r\n  /// @custom:field unlocked\r\n  /// @custom:field totalInterest,total interest of whole pools\r\n  /// @custom:field claimedInterest\r\n\r\n  struct PoolSummary {\r\n    uint256 totalvotes;\r\n    uint256 locking;\r\n    uint256 locked;\r\n    uint256 unlocking;\r\n    uint256 unlocked;\r\n    uint256 totalInterest; \r\n    uint256 claimedInterest;\r\n  }\r\n\r\n  struct PoolShot {\r\n    uint256 available;\r\n    uint256 balance;\r\n    uint256 blockNumber;\r\n  } \r\n\r\n  // ======================== Contract states ====================\r\n\r\n  PoolSummary private _poolSummary;\r\n  VotePowerQueue.InOutQueue private Inqueues;\r\n  VotePowerQueue.InOutQueue private Outqueues;\r\n\r\n  PoolShot internal lastPoolShot;\r\n\r\n  // ======================== Modifiers ==========================\r\n  modifier onlyRegisted() {\r\n    require(_poolRegisted, \"Pool is not registed\");\r\n    _;\r\n  }\r\n  modifier onlybridge() {\r\n    require(msg.sender==bridge_contract, \"msg.sender is not bridge\");\r\n    _;\r\n  }\r\n  // ======================== Helpers ============================\r\n\r\n  // used to update lastPoolShot after _poolSummary.available changed \r\n  function _updatePoolShot() private {\r\n    lastPoolShot.available = _poolSummary.totalvotes;\r\n    lastPoolShot.balance = _selfBalance();\r\n    lastPoolShot.blockNumber = _blockNumber();\r\n  }\r\n\r\n  // ======================== Events ==============================\r\n\r\n  event IncreasePoSStake(address indexed user, uint256 votePower);\r\n\r\n  event DecreasePoSStake(address indexed user, uint256 votePower);\r\n\r\n  event WithdrawStake(address indexed user, uint256 votePower);\r\n\r\n  event ClaimInterest(address indexed user, uint256 amount);\r\n\r\n  // ======================== Init methods =========================\r\n  // call this method when depoly the 1967 proxy contract\r\n  function initialize() public initializer {\r\n    CFX_COUNT_OF_ONE_VOTE = 1000;\r\n    CFX_VALUE_OF_ONE_VOTE = 1000 ether;\r\n    ONE_DAY_BLOCK_COUNT = 2 * 3600 * 24;\r\n    _poolLockPeriod_in = ONE_DAY_BLOCK_COUNT * 13 + 3600;\r\n    _poolLockPeriod_out = ONE_DAY_BLOCK_COUNT * 1 + 3600;\r\n  }\r\n  \r\n  ///\r\n  /// @notice Regist the pool contract in PoS internal contract \r\n  /// @dev Only admin can do this\r\n  /// @param indentifier The identifier of PoS node\r\n  /// @param votePower The vote power when register\r\n  /// @param blsPubKey The bls public key of PoS node\r\n  /// @param vrfPubKey The vrf public key of PoS node\r\n  /// @param blsPubKeyProof The bls public key proof of PoS node\r\n  ///\r\n  function register(\r\n    bytes32 indentifier,\r\n    uint64 votePower,\r\n    bytes calldata blsPubKey,\r\n    bytes calldata vrfPubKey,\r\n    bytes[2] calldata blsPubKeyProof\r\n  ) public virtual payable onlyOwner {\r\n    require(!_poolRegisted, \"Pool is already registed\");\r\n    require(votePower == 1, \"votePower should be 1\");\r\n    require(msg.value == votePower * CFX_VALUE_OF_ONE_VOTE, \"msg.value should be 1000 CFX\");\r\n    _stakingDeposit(msg.value);\r\n    _posRegisterRegister(indentifier, votePower, blsPubKey, vrfPubKey, blsPubKeyProof);\r\n    _poolRegisted = true;\r\n\r\n    // update pool info\r\n    _poolSummary.totalvotes += votePower;\r\n    _poolSummary.locking += votePower;\r\n    Inqueues.enqueue(VotePowerQueue.QueueNode(votePower, _blockNumber() + _poolLockPeriod_in));\r\n    _poolSummary.locked += Inqueues.collectEndedVotes();\r\n    _updatePoolShot();\r\n  }\r\n\r\n  // ======================== Contract methods , Only bridge can use =========================\r\n\r\n  ///\r\n  /// @notice Increase PoS vote power\r\n  /// @param votePower The number of vote power to increase\r\n  ///\r\n  function increaseStake(uint64 votePower) public virtual payable onlyRegisted onlybridge{\r\n    require(votePower > 0, \"Minimal votePower is 1\");\r\n    require(msg.value == votePower * CFX_VALUE_OF_ONE_VOTE, \"msg.value should be votePower * 1000 ether\");\r\n    _stakingDeposit(msg.value);\r\n    _posRegisterIncreaseStake(votePower);\r\n    emit IncreasePoSStake(msg.sender, votePower);\r\n\r\n    // update pool info\r\n    _poolSummary.totalvotes += votePower;\r\n    _poolSummary.locking += votePower;\r\n    Inqueues.enqueue(VotePowerQueue.QueueNode(votePower, _blockNumber() + _poolLockPeriod_in));\r\n    _poolSummary.locked += Inqueues.collectEndedVotes();\r\n    _updatePoolShot();\r\n  }\r\n\r\n  ///\r\n  /// @notice Decrease PoS vote power\r\n  /// @param votePower The number of vote power to decrease\r\n  ///\r\n  function decreaseStake(uint64 votePower) public virtual onlyRegisted onlybridge{\r\n    uint256 tempvotes;\r\n    _poolSummary.locked += Inqueues.collectEndedVotes();\r\n    require(_poolSummary.totalvotes >= votePower, \"Votes is not enough\");\r\n    _posRegisterRetire(votePower);\r\n    emit DecreasePoSStake(msg.sender, votePower);\r\n\r\n    // update pool info\r\n    _poolSummary.totalvotes -= votePower;\r\n    _poolSummary.unlocking += votePower;\r\n    if(votePower<=_poolSummary.locked){\r\n      _poolSummary.locked -= votePower;\r\n      Outqueues.enqueue(VotePowerQueue.QueueNode(votePower, _blockNumber() + _poolLockPeriod_out));\r\n    }else {\r\n      tempvotes = votePower - _poolSummary.locked;\r\n      _poolSummary.locked = 0;\r\n      _poolSummary.locking -= tempvotes;\r\n      Outqueues.enqueue(VotePowerQueue.QueueNode(votePower, _blockNumber() + _poolLockPeriod_in + _poolLockPeriod_out));\r\n    }\r\n    tempvotes = Outqueues.collectEndedVotes();\r\n    _poolSummary.unlocking -= tempvotes;\r\n    _poolSummary.unlocked += tempvotes;\r\n    _updatePoolShot();\r\n  }\r\n\r\n  ///\r\n  /// @notice Withdraw PoS vote power\r\n  /// @dev  The number of vote power to withdraw\r\n  ///\r\n  function withdrawStake() public onlyRegisted onlybridge{\r\n    uint256 temp_out_cEndVotes = Outqueues.collectEndedVotes();\r\n    //require(temp_out_cEndVotes>0,\"No new unlocked\");\r\n    _poolSummary.unlocking -= temp_out_cEndVotes;\r\n    _poolSummary.unlocked += temp_out_cEndVotes;\r\n    require(_poolSummary.unlocked >= 0, \"Unlocked is not enough\");\r\n\r\n    _stakingWithdraw(_poolSummary.unlocked * CFX_VALUE_OF_ONE_VOTE);\r\n    address payable receiver = payable(bridge_withdraw);// withdraw CFX to bridgecoreaddr\r\n    receiver.transfer(_poolSummary.unlocked * CFX_VALUE_OF_ONE_VOTE);\r\n    _poolSummary.unlocked = 0;\r\n    emit WithdrawStake(msg.sender, temp_out_cEndVotes);\r\n  }\r\n\r\n  ///\r\n  /// @notice Claim all interest in pool\r\n  ///\r\n  function claimAllInterest() public onlyRegisted onlybridge returns (uint256){\r\n    uint claimableInterest = address(this).balance;\r\n    require(claimableInterest > 0, \"No claimable interest\");\r\n    address payable receiver = payable(bridge_storage);\r\n    receiver.transfer(claimableInterest);\r\n    return claimableInterest;\r\n  }\r\n  // function test_transfer() public onlyRegisted onlybridge returns (uint256){\r\n  //   uint claimableInterest = address(this).balance;\r\n  //   //require(claimableInterest > 0, \"No claimable interest\");\r\n  //   address payable receiver = payable(msg.sender);\r\n  //   transferCFX( receiver,  claimableInterest);\r\n  //   //receiver.transfer(claimableInterest);\r\n  //   return claimableInterest;\r\n  // }\r\n\r\n  // function transferCFX(address _address, uint256 _value) internal{\r\n  //       (bool res, ) = address(uint160(_address)).call{value:_value}(\"\");\r\n  //       require(res,\"TRANSFER ETH ERROR\");\r\n  // }\r\n\r\n  function temp_Interest() public view onlyRegisted returns (uint256){\r\n    return address(this).balance;\r\n  }\r\n  // ======================== Contract view methods interface use =========================\r\n  /// \r\n  /// @notice Get  pool summary\r\n  /// @return pool's summary\r\n  ///\r\n  function poolSummary() public view returns (PoolSummary memory) {\r\n    PoolSummary memory summary = _poolSummary;\r\n    uint256 _latestReward = _selfBalance().sub(lastPoolShot.balance);\r\n    summary.totalInterest = summary.totalInterest.add(_latestReward);\r\n    return summary;\r\n  }\r\n\r\n  /// \r\n  /// @notice Query pools contract address\r\n  /// @return Pool's PoS address\r\n  ///\r\n  function posAddress() public view onlyRegisted returns (bytes32) {\r\n    return _posAddressToIdentifier(address(this));\r\n  }\r\n\r\n  function getInQueue() public view returns (VotePowerQueue.QueueNode[] memory) {\r\n    return Inqueues.queueItems();\r\n  }\r\n\r\n  function getOutQueue() public view returns (VotePowerQueue.QueueNode[] memory) {\r\n    return Outqueues.queueItems();\r\n  }\r\n\r\n  // ======================== admin methods =====================\r\n\r\n  ///\r\n  /// @notice Enable admin to set the user share ratio\r\n  /// @dev description\r\n  /// @param _withdraw  description\r\n  /// @param _storage description\r\n  ///\r\n  function _set_bridges(address _bridge, address _withdraw, address _storage) public onlyOwner {\r\n    bridge_contract = _bridge;\r\n    bridge_withdraw = _withdraw;\r\n    bridge_storage = _storage;\r\n  }\r\n\r\n  /// \r\n  /// @notice Enable admin to set the lock and unlock period\r\n  /// @dev Only admin can do this\r\n  /// @param _in The lock period in in block number, default is seven day's block count\r\n  /// @param _out The lock period out in block number, default is seven day's block count\r\n  ///\r\n  function _setLockPeriod(uint64 _in,uint64 _out) public onlyOwner {\r\n    _poolLockPeriod_in = _in;\r\n    _poolLockPeriod_out = _out;\r\n  }\r\n\r\n  /// \r\n  /// @notice Enable admin to set the pool name\r\n  ///\r\n  function _setPoolName(string memory name) public onlyOwner {\r\n    poolName = name;\r\n  }\r\n\r\n  /// @param count Vote cfx count, unit is cfx\r\n  function _setCfxCountOfOneVote(uint256 count) public onlyOwner {\r\n    CFX_COUNT_OF_ONE_VOTE = count;\r\n    CFX_VALUE_OF_ONE_VOTE = count * 1 ether;\r\n  }\r\n\r\n  // Used to bring account's retired votes back to work\r\n  // reStake _poolSummary.available\r\n  function _reStake(uint64 votePower) public onlyOwner {\r\n    _posRegisterIncreaseStake(votePower);\r\n  }\r\n\r\n  // ======================== contract base methods =====================\r\n  fallback() external payable {}\r\n  receive() external payable {}\r\n\r\n  //---------------------------test methods,dele when used----------------\r\n  function register_test(bool _mode) public onlyOwner {_poolRegisted=_mode; }\r\n\r\n}",
  "sourcePath": "C:/Users/artii/Conflux Studio/minpos/contracts/PoSPoolmini.sol",
  "compiler": {
    "name": "solc",
    "version": "0.8.2+commit.661d1103.Emscripten.clang"
  },
  "schemaVersion": "3.3.4",
  "updatedAt": "2022-08-17T14:24:11.913Z",
  "devdoc": {
    "details": "This is Conflux PoS pool contract, the contract didn't have user",
    "kind": "dev",
    "methods": {
      "_setCfxCountOfOneVote(uint256)": {
        "params": {
          "count": "Vote cfx count, unit is cfx"
        }
      },
      "_setLockPeriod(uint64,uint64)": {
        "details": "Only admin can do this",
        "params": {
          "_in": "The lock period in in block number, default is seven day's block count",
          "_out": "The lock period out in block number, default is seven day's block count"
        }
      },
      "_set_bridges(address,address,address)": {
        "details": "description",
        "params": {
          "_storage": "description",
          "_withdraw": "description"
        }
      },
      "decreaseStake(uint64)": {
        "params": {
          "votePower": "The number of vote power to decrease"
        }
      },
      "increaseStake(uint64)": {
        "params": {
          "votePower": "The number of vote power to increase"
        }
      },
      "owner()": {
        "details": "Returns the address of the current owner."
      },
      "poolSummary()": {
        "returns": {
          "_0": "pool's summary"
        }
      },
      "posAddress()": {
        "returns": {
          "_0": "Pool's PoS address"
        }
      },
      "register(bytes32,uint64,bytes,bytes,bytes[2])": {
        "details": "Only admin can do this",
        "params": {
          "blsPubKey": "The bls public key of PoS node",
          "blsPubKeyProof": "The bls public key proof of PoS node",
          "indentifier": "The identifier of PoS node",
          "votePower": "The vote power when register",
          "vrfPubKey": "The vrf public key of PoS node"
        }
      },
      "renounceOwnership()": {
        "details": "Leaves the contract without owner. It will not be possible to call `onlyOwner` functions anymore. Can only be called by the current owner. NOTE: Renouncing ownership will leave the contract without an owner, thereby removing any functionality that is only available to the owner."
      },
      "transferOwnership(address)": {
        "details": "Transfers ownership of the contract to a new account (`newOwner`). Can only be called by the current owner."
      },
      "withdrawStake()": {
        "details": "The number of vote power to withdraw"
      }
    },
    "title": "PoSPoolmini is a small Conflux POS pool cantract with the basic usages ",
    "version": 1
  },
  "userdoc": {
    "kind": "user",
    "methods": {
      "_setLockPeriod(uint64,uint64)": {
        "notice": "Enable admin to set the lock and unlock period"
      },
      "_setPoolName(string)": {
        "notice": "Enable admin to set the pool name"
      },
      "_set_bridges(address,address,address)": {
        "notice": "Enable admin to set the user share ratio"
      },
      "claimAllInterest()": {
        "notice": "Claim all interest in pool"
      },
      "decreaseStake(uint64)": {
        "notice": "Decrease PoS vote power"
      },
      "increaseStake(uint64)": {
        "notice": "Increase PoS vote power"
      },
      "poolSummary()": {
        "notice": "Get  pool summary"
      },
      "posAddress()": {
        "notice": "Query pools contract address"
      },
      "register(bytes32,uint64,bytes,bytes,bytes[2])": {
        "notice": "Regist the pool contract in PoS internal contract "
      },
      "withdrawStake()": {
        "notice": "Withdraw PoS vote power"
      }
    },
    "notice": "Users can use this contract to participate Conflux PoS without running a PoS node.",
    "version": 1
  }
}