{
  "contractName": "PoSPoolmini",
  "abi": [
    {
      "anonymous": false,
      "inputs": [
        {
          "indexed": true,
          "internalType": "address",
          "name": "user",
          "type": "address"
        },
        {
          "indexed": false,
          "internalType": "uint256",
          "name": "amount",
          "type": "uint256"
        }
      ],
      "name": "ClaimInterest",
      "type": "event"
    },
    {
      "anonymous": false,
      "inputs": [
        {
          "indexed": true,
          "internalType": "address",
          "name": "user",
          "type": "address"
        },
        {
          "indexed": false,
          "internalType": "uint256",
          "name": "votePower",
          "type": "uint256"
        }
      ],
      "name": "DecreasePoSStake",
      "type": "event"
    },
    {
      "anonymous": false,
      "inputs": [
        {
          "indexed": true,
          "internalType": "address",
          "name": "user",
          "type": "address"
        },
        {
          "indexed": false,
          "internalType": "uint256",
          "name": "votePower",
          "type": "uint256"
        }
      ],
      "name": "IncreasePoSStake",
      "type": "event"
    },
    {
      "anonymous": false,
      "inputs": [
        {
          "indexed": true,
          "internalType": "address",
          "name": "previousOwner",
          "type": "address"
        },
        {
          "indexed": true,
          "internalType": "address",
          "name": "newOwner",
          "type": "address"
        }
      ],
      "name": "OwnershipTransferred",
      "type": "event"
    },
    {
      "anonymous": false,
      "inputs": [
        {
          "indexed": true,
          "internalType": "address",
          "name": "user",
          "type": "address"
        },
        {
          "indexed": false,
          "internalType": "uint256",
          "name": "votePower",
          "type": "uint256"
        }
      ],
      "name": "WithdrawStake",
      "type": "event"
    },
    {
      "stateMutability": "payable",
      "type": "fallback"
    },
    {
      "inputs": [],
      "name": "_poolLockPeriod_in",
      "outputs": [
        {
          "internalType": "uint256",
          "name": "",
          "type": "uint256"
        }
      ],
      "stateMutability": "view",
      "type": "function"
    },
    {
      "inputs": [],
      "name": "_poolLockPeriod_out",
      "outputs": [
        {
          "internalType": "uint256",
          "name": "",
          "type": "uint256"
        }
      ],
      "stateMutability": "view",
      "type": "function"
    },
    {
      "inputs": [],
      "name": "_poolRegisted",
      "outputs": [
        {
          "internalType": "bool",
          "name": "",
          "type": "bool"
        }
      ],
      "stateMutability": "view",
      "type": "function"
    },
    {
      "inputs": [],
      "name": "owner",
      "outputs": [
        {
          "internalType": "address",
          "name": "",
          "type": "address"
        }
      ],
      "stateMutability": "view",
      "type": "function"
    },
    {
      "inputs": [],
      "name": "poolName",
      "outputs": [
        {
          "internalType": "string",
          "name": "",
          "type": "string"
        }
      ],
      "stateMutability": "view",
      "type": "function"
    },
    {
      "inputs": [],
      "name": "renounceOwnership",
      "outputs": [],
      "stateMutability": "nonpayable",
      "type": "function"
    },
    {
      "inputs": [
        {
          "internalType": "address",
          "name": "newOwner",
          "type": "address"
        }
      ],
      "name": "transferOwnership",
      "outputs": [],
      "stateMutability": "nonpayable",
      "type": "function"
    },
    {
      "stateMutability": "payable",
      "type": "receive"
    },
    {
      "inputs": [],
      "name": "initialize",
      "outputs": [],
      "stateMutability": "nonpayable",
      "type": "function"
    },
    {
      "inputs": [
        {
          "internalType": "bytes32",
          "name": "indentifier",
          "type": "bytes32"
        },
        {
          "internalType": "uint64",
          "name": "votePower",
          "type": "uint64"
        },
        {
          "internalType": "bytes",
          "name": "blsPubKey",
          "type": "bytes"
        },
        {
          "internalType": "bytes",
          "name": "vrfPubKey",
          "type": "bytes"
        },
        {
          "internalType": "bytes[2]",
          "name": "blsPubKeyProof",
          "type": "bytes[2]"
        }
      ],
      "name": "register",
      "outputs": [],
      "stateMutability": "payable",
      "type": "function"
    },
    {
      "inputs": [
        {
          "internalType": "uint64",
          "name": "votePower",
          "type": "uint64"
        }
      ],
      "name": "increaseStake",
      "outputs": [],
      "stateMutability": "payable",
      "type": "function"
    },
    {
      "inputs": [
        {
          "internalType": "uint64",
          "name": "votePower",
          "type": "uint64"
        }
      ],
      "name": "decreaseStake",
      "outputs": [],
      "stateMutability": "nonpayable",
      "type": "function"
    },
    {
      "inputs": [],
      "name": "withdrawStake",
      "outputs": [],
      "stateMutability": "nonpayable",
      "type": "function"
    },
    {
      "inputs": [],
      "name": "claimAllInterest",
      "outputs": [
        {
          "internalType": "uint256",
          "name": "",
          "type": "uint256"
        }
      ],
      "stateMutability": "nonpayable",
      "type": "function"
    },
    {
      "inputs": [],
      "name": "temp_Interest",
      "outputs": [
        {
          "internalType": "uint256",
          "name": "",
          "type": "uint256"
        }
      ],
      "stateMutability": "view",
      "type": "function"
    },
    {
      "inputs": [],
      "name": "poolSummary",
      "outputs": [
        {
          "components": [
            {
              "internalType": "uint256",
              "name": "totalvotes",
              "type": "uint256"
            },
            {
              "internalType": "uint256",
              "name": "locking",
              "type": "uint256"
            },
            {
              "internalType": "uint256",
              "name": "locked",
              "type": "uint256"
            },
            {
              "internalType": "uint256",
              "name": "unlocking",
              "type": "uint256"
            },
            {
              "internalType": "uint256",
              "name": "unlocked",
              "type": "uint256"
            },
            {
              "internalType": "uint256",
              "name": "totalInterest",
              "type": "uint256"
            },
            {
              "internalType": "uint256",
              "name": "claimedInterest",
              "type": "uint256"
            }
          ],
          "internalType": "struct PoSPoolmini.PoolSummary",
          "name": "",
          "type": "tuple"
        }
      ],
      "stateMutability": "view",
      "type": "function"
    },
    {
      "inputs": [],
      "name": "posAddress",
      "outputs": [
        {
          "internalType": "bytes32",
          "name": "",
          "type": "bytes32"
        }
      ],
      "stateMutability": "view",
      "type": "function"
    },
    {
      "inputs": [],
      "name": "getInQueue",
      "outputs": [
        {
          "components": [
            {
              "internalType": "uint256",
              "name": "votePower",
              "type": "uint256"
            },
            {
              "internalType": "uint256",
              "name": "endBlock",
              "type": "uint256"
            }
          ],
          "internalType": "struct VotePowerQueue.QueueNode[]",
          "name": "",
          "type": "tuple[]"
        }
      ],
      "stateMutability": "view",
      "type": "function"
    },
    {
      "inputs": [],
      "name": "getOutQueue",
      "outputs": [
        {
          "components": [
            {
              "internalType": "uint256",
              "name": "votePower",
              "type": "uint256"
            },
            {
              "internalType": "uint256",
              "name": "endBlock",
              "type": "uint256"
            }
          ],
          "internalType": "struct VotePowerQueue.QueueNode[]",
          "name": "",
          "type": "tuple[]"
        }
      ],
      "stateMutability": "view",
      "type": "function"
    },
    {
      "inputs": [
        {
          "internalType": "address",
          "name": "_bridge",
          "type": "address"
        },
        {
          "internalType": "address",
          "name": "_withdraw",
          "type": "address"
        },
        {
          "internalType": "address",
          "name": "_storage",
          "type": "address"
        }
      ],
      "name": "_set_bridges",
      "outputs": [],
      "stateMutability": "nonpayable",
      "type": "function"
    },
    {
      "inputs": [
        {
          "internalType": "uint64",
          "name": "_in",
          "type": "uint64"
        },
        {
          "internalType": "uint64",
          "name": "_out",
          "type": "uint64"
        }
      ],
      "name": "_setLockPeriod",
      "outputs": [],
      "stateMutability": "nonpayable",
      "type": "function"
    },
    {
      "inputs": [
        {
          "internalType": "string",
          "name": "name",
          "type": "string"
        }
      ],
      "name": "_setPoolName",
      "outputs": [],
      "stateMutability": "nonpayable",
      "type": "function"
    },
    {
      "inputs": [
        {
          "internalType": "uint256",
          "name": "count",
          "type": "uint256"
        }
      ],
      "name": "_setCfxCountOfOneVote",
      "outputs": [],
      "stateMutability": "nonpayable",
      "type": "function"
    },
    {
      "inputs": [
        {
          "internalType": "uint64",
          "name": "votePower",
          "type": "uint64"
        }
      ],
      "name": "_reStake",
      "outputs": [],
      "stateMutability": "nonpayable",
      "type": "function"
    }
  ],
  "bytecode": "0x60806040526103e8600155683635c9adc5dea000006002556202a30060035562018e70600d600354620000339190620001c2565b6200003f919062000165565b600855611c206001600354620000569190620001c2565b62000062919062000165565b6009553480156200007257600080fd5b5062000093620000876200009960201b60201c565b620000a160201b60201c565b6200025c565b600033905090565b60008060009054906101000a900473ffffffffffffffffffffffffffffffffffffffff169050816000806101000a81548173ffffffffffffffffffffffffffffffffffffffff021916908373ffffffffffffffffffffffffffffffffffffffff1602179055508173ffffffffffffffffffffffffffffffffffffffff168173ffffffffffffffffffffffffffffffffffffffff167f8be0079c531659141344cd1fd0a4f28419497f9722a3daafe3b4186f6b6457e060405160405180910390a35050565b6000620001728262000223565b91506200017f8362000223565b9250827fffffffffffffffffffffffffffffffffffffffffffffffffffffffffffffffff03821115620001b757620001b66200022d565b5b828201905092915050565b6000620001cf8262000223565b9150620001dc8362000223565b9250817fffffffffffffffffffffffffffffffffffffffffffffffffffffffffffffffff04831182151516156200021857620002176200022d565b5b828202905092915050565b6000819050919050565b7f4e487b7100000000000000000000000000000000000000000000000000000000600052601160045260246000fd5b613488806200026c6000396000f3fe6080604052600436106101445760003560e01c80638da5cb5b116100b6578063e335b4511161006f578063e335b451146103d3578063e73e183b146103ef578063e7c816031461041a578063f2fde38b14610445578063f313afaf1461046e578063f3466dfa146104975761014b565b80638da5cb5b146102eb5780639bdeb5aa14610316578063adcb498214610341578063beb99c1e1461036a578063bed9d86114610393578063db51ffe4146103aa5761014b565b80634b1b45e6116101085780634b1b45e6146102115780634db88eff1461023c578063715018a6146102675780637571fcf61461027e5780638129fc1c146102a95780638270512f146102c05761014b565b806309fecf7f1461014d5780631764618c1461016957806332d5d7a51461019457806336c52949146101bf5780633a7e2d9a146101e85761014b565b3661014b57005b005b61016760048036038101906101629190612539565b6104c2565b005b34801561017557600080fd5b5061017e610769565b60405161018b9190612a81565b60405180910390f35b3480156101a057600080fd5b506101a96107c8565b6040516101b69190612a44565b60405180910390f35b3480156101cb57600080fd5b506101e660048036038101906101e191906124cf565b6107d9565b005b3480156101f457600080fd5b5061020f600480360381019061020a9190612510565b61086f565b005b34801561021d57600080fd5b5061022661090f565b6040516102339190612a66565b60405180910390f35b34801561024857600080fd5b50610251610922565b60405161025e9190612ce5565b60405180910390f35b34801561027357600080fd5b5061027c610928565b005b34801561028a57600080fd5b506102936109b0565b6040516102a09190612cca565b60405180910390f35b3480156102b557600080fd5b506102be610a5a565b005b3480156102cc57600080fd5b506102d5610b9d565b6040516102e29190612ce5565b60405180910390f35b3480156102f757600080fd5b50610300610d3c565b60405161030d9190612a29565b60405180910390f35b34801561032257600080fd5b5061032b610d65565b6040516103389190612ce5565b60405180910390f35b34801561034d57600080fd5b506103686004803603810190610363919061238f565b610d6b565b005b34801561037657600080fd5b50610391600480360381019061038c9190612539565b610eaf565b005b34801561039f57600080fd5b506103a8611219565b005b3480156103b657600080fd5b506103d160048036038101906103cc9190612562565b61147f565b005b6103ed60048036038101906103e89190612407565b611521565b005b3480156103fb57600080fd5b5061040461178e565b6040516104119190612ce5565b60405180910390f35b34801561042657600080fd5b5061042f6117e5565b60405161043c9190612a44565b60405180910390f35b34801561045157600080fd5b5061046c60048036038101906104679190612366565b6117f6565b005b34801561047a57600080fd5b5061049560048036038101906104909190612539565b6118ee565b005b3480156104a357600080fd5b506104ac611976565b6040516104b99190612b08565b60405180910390f35b600560009054906101000a900460ff16610511576040517f08c379a000000000000000000000000000000000000000000000000000000000815260040161050890612bea565b60405180910390fd5b600560019054906101000a900473ffffffffffffffffffffffffffffffffffffffff1673ffffffffffffffffffffffffffffffffffffffff163373ffffffffffffffffffffffffffffffffffffffff16146105a1576040517f08c379a000000000000000000000000000000000000000000000000000000000815260040161059890612b4a565b60405180910390fd5b60008167ffffffffffffffff16116105ee576040517f08c379a00000000000000000000000000000000000000000000000000000000081526004016105e590612c2a565b60405180910390fd5b6002548167ffffffffffffffff166106069190612edd565b3414610647576040517f08c379a000000000000000000000000000000000000000000000000000000000815260040161063e90612b2a565b60405180910390fd5b61065034611a04565b61065981611a86565b3373ffffffffffffffffffffffffffffffffffffffff167ff5ebfcde71acb15a758233f0c9ab25632209399b90a9209a4f2379ec5fcee89f8260405161069f9190612d00565b60405180910390a28067ffffffffffffffff16600a60000160008282546106c69190612e87565b925050819055508067ffffffffffffffff16600a60010160008282546106ec9190612e87565b9250508190555061073960405180604001604052808367ffffffffffffffff16815260200160085461071c611b08565b6107269190612e87565b8152506011611b1090919063ffffffff16565b6107436011611b59565b600a60020160008282546107579190612e87565b92505081905550610766611be8565b50565b6000600560009054906101000a900460ff166107ba576040517f08c379a00000000000000000000000000000000000000000000000000000000081526004016107b190612bea565b60405180910390fd5b6107c330611c1b565b905090565b60606107d46011611cc1565b905090565b6107e1611e0e565b73ffffffffffffffffffffffffffffffffffffffff166107ff610d3c565b73ffffffffffffffffffffffffffffffffffffffff1614610855576040517f08c379a000000000000000000000000000000000000000000000000000000000815260040161084c90612c0a565b60405180910390fd5b806004908051906020019061086b929190612133565b5050565b610877611e0e565b73ffffffffffffffffffffffffffffffffffffffff16610895610d3c565b73ffffffffffffffffffffffffffffffffffffffff16146108eb576040517f08c379a00000000000000000000000000000000000000000000000000000000081526004016108e290612c0a565b60405180910390fd5b80600181905550670de0b6b3a7640000816109069190612edd565b60028190555050565b600560009054906101000a900460ff1681565b60085481565b610930611e0e565b73ffffffffffffffffffffffffffffffffffffffff1661094e610d3c565b73ffffffffffffffffffffffffffffffffffffffff16146109a4576040517f08c379a000000000000000000000000000000000000000000000000000000000815260040161099b90612c0a565b60405180910390fd5b6109ae6000611e16565b565b6109b86121b9565b6000600a6040518060e001604052908160008201548152602001600182015481526020016002820154815260200160038201548152602001600482015481526020016005820154815260200160068201548152505090506000610a30601760010154610a22611eda565b611ee290919063ffffffff16565b9050610a49818360a00151611ef890919063ffffffff16565b8260a0018181525050819250505090565b600060159054906101000a900460ff1680610a825750600060149054906101000a900460ff16155b610ac1576040517f08c379a0000000000000000000000000000000000000000000000000000000008152600401610ab890612bca565b60405180910390fd5b60008060159054906101000a900460ff161590508015610b12576001600060156101000a81548160ff0219169083151502179055506001600060146101000a81548160ff0219169083151502179055505b6103e8600181905550683635c9adc5dea000006002819055506202a300600381905550610e106007600354610b479190612edd565b610b519190612e87565b600881905550610e106007600354610b699190612edd565b610b739190612e87565b6009819055508015610b9a5760008060156101000a81548160ff0219169083151502179055505b50565b6000600560009054906101000a900460ff16610bee576040517f08c379a0000000000000000000000000000000000000000000000000000000008152600401610be590612bea565b60405180910390fd5b600560019054906101000a900473ffffffffffffffffffffffffffffffffffffffff1673ffffffffffffffffffffffffffffffffffffffff163373ffffffffffffffffffffffffffffffffffffffff1614610c7e576040517f08c379a0000000000000000000000000000000000000000000000000000000008152600401610c7590612b4a565b60405180910390fd5b600047905060008111610cc6576040517f08c379a0000000000000000000000000000000000000000000000000000000008152600401610cbd90612c4a565b60405180910390fd5b6000600760009054906101000a900473ffffffffffffffffffffffffffffffffffffffff1690508073ffffffffffffffffffffffffffffffffffffffff166108fc839081150290604051600060405180830381858888f19350505050158015610d33573d6000803e3d6000fd5b50819250505090565b60008060009054906101000a900473ffffffffffffffffffffffffffffffffffffffff16905090565b60095481565b610d73611e0e565b73ffffffffffffffffffffffffffffffffffffffff16610d91610d3c565b73ffffffffffffffffffffffffffffffffffffffff1614610de7576040517f08c379a0000000000000000000000000000000000000000000000000000000008152600401610dde90612c0a565b60405180910390fd5b82600560016101000a81548173ffffffffffffffffffffffffffffffffffffffff021916908373ffffffffffffffffffffffffffffffffffffffff16021790555081600660006101000a81548173ffffffffffffffffffffffffffffffffffffffff021916908373ffffffffffffffffffffffffffffffffffffffff16021790555080600760006101000a81548173ffffffffffffffffffffffffffffffffffffffff021916908373ffffffffffffffffffffffffffffffffffffffff160217905550505050565b600560009054906101000a900460ff16610efe576040517f08c379a0000000000000000000000000000000000000000000000000000000008152600401610ef590612bea565b60405180910390fd5b600560019054906101000a900473ffffffffffffffffffffffffffffffffffffffff1673ffffffffffffffffffffffffffffffffffffffff163373ffffffffffffffffffffffffffffffffffffffff1614610f8e576040517f08c379a0000000000000000000000000000000000000000000000000000000008152600401610f8590612b4a565b60405180910390fd5b6000610f9a6011611b59565b600a6002016000828254610fae9190612e87565b925050819055508167ffffffffffffffff16600a600001541015611007576040517f08c379a0000000000000000000000000000000000000000000000000000000008152600401610ffe90612baa565b60405180910390fd5b61101082611f0e565b3373ffffffffffffffffffffffffffffffffffffffff167fd81524ca5b038be9f98b286808a6f46f99c8700bce9ab4793dc12a2dbaa4f2d8836040516110569190612d00565b60405180910390a28167ffffffffffffffff16600a600001600082825461107d9190612f37565b925050819055508167ffffffffffffffff16600a60030160008282546110a39190612e87565b92505081905550600a600201548267ffffffffffffffff1611611131578167ffffffffffffffff16600a60020160008282546110df9190612f37565b9250508190555061112c60405180604001604052808467ffffffffffffffff16815260200160095461110f611b08565b6111199190612e87565b8152506014611b1090919063ffffffff16565b6111c9565b600a600201548267ffffffffffffffff1661114c9190612f37565b90506000600a6002018190555080600a600101600082825461116e9190612f37565b925050819055506111c860405180604001604052808467ffffffffffffffff1681526020016009546008546111a1611b08565b6111ab9190612e87565b6111b59190612e87565b8152506014611b1090919063ffffffff16565b5b6111d36014611b59565b905080600a60030160008282546111ea9190612f37565b9250508190555080600a60040160008282546112069190612e87565b92505081905550611215611be8565b5050565b600560009054906101000a900460ff16611268576040517f08c379a000000000000000000000000000000000000000000000000000000000815260040161125f90612bea565b60405180910390fd5b600560019054906101000a900473ffffffffffffffffffffffffffffffffffffffff1673ffffffffffffffffffffffffffffffffffffffff163373ffffffffffffffffffffffffffffffffffffffff16146112f8576040517f08c379a00000000000000000000000000000000000000000000000000000000081526004016112ef90612b4a565b60405180910390fd5b60006113046014611b59565b905080600a600301600082825461131b9190612f37565b9250508190555080600a60040160008282546113379190612e87565b925050819055506000600a600401541015611387576040517f08c379a000000000000000000000000000000000000000000000000000000000815260040161137e90612caa565b60405180910390fd5b6113a2600254600a6004015461139d9190612edd565b611f90565b6000600660009054906101000a900473ffffffffffffffffffffffffffffffffffffffff1690508073ffffffffffffffffffffffffffffffffffffffff166108fc600254600a600401546113f69190612edd565b9081150290604051600060405180830381858888f19350505050158015611421573d6000803e3d6000fd5b506000600a600401819055503373ffffffffffffffffffffffffffffffffffffffff167f141ef67c4a6d3ec2adfb2f66d33c2b11de5b4f34344757554d430570b18a92ec836040516114739190612ce5565b60405180910390a25050565b611487611e0e565b73ffffffffffffffffffffffffffffffffffffffff166114a5610d3c565b73ffffffffffffffffffffffffffffffffffffffff16146114fb576040517f08c379a00000000000000000000000000000000000000000000000000000000081526004016114f290612c0a565b60405180910390fd5b8167ffffffffffffffff166008819055508067ffffffffffffffff166009819055505050565b611529611e0e565b73ffffffffffffffffffffffffffffffffffffffff16611547610d3c565b73ffffffffffffffffffffffffffffffffffffffff161461159d576040517f08c379a000000000000000000000000000000000000000000000000000000000815260040161159490612c0a565b60405180910390fd5b600560009054906101000a900460ff16156115ed576040517f08c379a00000000000000000000000000000000000000000000000000000000081526004016115e490612c6a565b60405180910390fd5b60018667ffffffffffffffff161461163a576040517f08c379a000000000000000000000000000000000000000000000000000000000815260040161163190612c8a565b60405180910390fd5b6002548667ffffffffffffffff166116529190612edd565b3414611693576040517f08c379a000000000000000000000000000000000000000000000000000000000815260040161168a90612b8a565b60405180910390fd5b61169c34611a04565b6116ab87878787878787612012565b6001600560006101000a81548160ff0219169083151502179055508567ffffffffffffffff16600a60000160008282546116e59190612e87565b925050819055508567ffffffffffffffff16600a600101600082825461170b9190612e87565b9250508190555061175860405180604001604052808867ffffffffffffffff16815260200160085461173b611b08565b6117459190612e87565b8152506011611b1090919063ffffffff16565b6117626011611b59565b600a60020160008282546117769190612e87565b92505081905550611785611be8565b50505050505050565b6000600560009054906101000a900460ff166117df576040517f08c379a00000000000000000000000000000000000000000000000000000000081526004016117d690612bea565b60405180910390fd5b47905090565b60606117f16014611cc1565b905090565b6117fe611e0e565b73ffffffffffffffffffffffffffffffffffffffff1661181c610d3c565b73ffffffffffffffffffffffffffffffffffffffff1614611872576040517f08c379a000000000000000000000000000000000000000000000000000000000815260040161186990612c0a565b60405180910390fd5b600073ffffffffffffffffffffffffffffffffffffffff168173ffffffffffffffffffffffffffffffffffffffff1614156118e2576040517f08c379a00000000000000000000000000000000000000000000000000000000081526004016118d990612b6a565b60405180910390fd5b6118eb81611e16565b50565b6118f6611e0e565b73ffffffffffffffffffffffffffffffffffffffff16611914610d3c565b73ffffffffffffffffffffffffffffffffffffffff161461196a576040517f08c379a000000000000000000000000000000000000000000000000000000000815260040161196190612c0a565b60405180910390fd5b61197381611a86565b50565b6004805461198390613025565b80601f01602080910402602001604051908101604052809291908181526020018280546119af90613025565b80156119fc5780601f106119d1576101008083540402835291602001916119fc565b820191906000526020600020905b8154815290600101906020018083116119df57829003601f168201915b505050505081565b73088800000000000000000000000000000000000273ffffffffffffffffffffffffffffffffffffffff1663b6b55f25826040518263ffffffff1660e01b8152600401611a519190612ce5565b600060405180830381600087803b158015611a6b57600080fd5b505af1158015611a7f573d6000803e3d6000fd5b5050505050565b73088800000000000000000000000000000000000573ffffffffffffffffffffffffffffffffffffffff166309fecf7f826040518263ffffffff1660e01b8152600401611ad39190612d1b565b600060405180830381600087803b158015611aed57600080fd5b505af1158015611b01573d6000803e3d6000fd5b5050505050565b600043905090565b80826002016000846001016000815480929190611b2c90613088565b91905055815260200190815260200160002060008201518160000155602082015181600101559050505050565b600080600090506000836000015490505b8360010154811015611bde5743846002016000838152602001908152602001600020600101541115611b9b57611bde565b8360020160008281526020019081526020016000206000015482611bbf9190612e87565b9150611bca846120a6565b508080611bd690613088565b915050611b6a565b5080915050919050565b600a60000154601760000181905550611bff611eda565b601760010181905550611c10611b08565b601760020181905550565b600073088800000000000000000000000000000000000573ffffffffffffffffffffffffffffffffffffffff16636a06ea96836040518263ffffffff1660e01b8152600401611c6a9190612a29565b60206040518083038186803b158015611c8257600080fd5b505afa158015611c96573d6000803e3d6000fd5b505050506040513d601f19601f82011682018060405250810190611cba91906123de565b9050919050565b6060600082600001548360010154611cd99190612f37565b67ffffffffffffffff811115611d18577f4e487b7100000000000000000000000000000000000000000000000000000000600052604160045260246000fd5b604051908082528060200260200182016040528015611d5157816020015b611d3e6121f6565b815260200190600190039081611d365790505b5090506000836000015490505b8360010154811015611e04578360020160008281526020019081526020016000206040518060400160405290816000820154815260200160018201548152505082856000015483611daf9190612f37565b81518110611de6577f4e487b7100000000000000000000000000000000000000000000000000000000600052603260045260246000fd5b60200260200101819052508080611dfc90613088565b915050611d5e565b5080915050919050565b600033905090565b60008060009054906101000a900473ffffffffffffffffffffffffffffffffffffffff169050816000806101000a81548173ffffffffffffffffffffffffffffffffffffffff021916908373ffffffffffffffffffffffffffffffffffffffff1602179055508173ffffffffffffffffffffffffffffffffffffffff168173ffffffffffffffffffffffffffffffffffffffff167f8be0079c531659141344cd1fd0a4f28419497f9722a3daafe3b4186f6b6457e060405160405180910390a35050565b600047905090565b60008183611ef09190612f37565b905092915050565b60008183611f069190612e87565b905092915050565b73088800000000000000000000000000000000000573ffffffffffffffffffffffffffffffffffffffff1663f49d0638826040518263ffffffff1660e01b8152600401611f5b9190612d1b565b600060405180830381600087803b158015611f7557600080fd5b505af1158015611f89573d6000803e3d6000fd5b5050505050565b73088800000000000000000000000000000000000273ffffffffffffffffffffffffffffffffffffffff16632e1a7d4d826040518263ffffffff1660e01b8152600401611fdd9190612ce5565b600060405180830381600087803b158015611ff757600080fd5b505af115801561200b573d6000803e3d6000fd5b5050505050565b73088800000000000000000000000000000000000573ffffffffffffffffffffffffffffffffffffffff1663e335b451888888888888886040518863ffffffff1660e01b815260040161206b9796959493929190612a9c565b600060405180830381600087803b15801561208557600080fd5b505af1158015612099573d6000803e3d6000fd5b5050505050505050505050565b6120ae6121f6565b60008260020160008460000154815260200190815260200160002060405180604001604052908160008201548152602001600182015481525050905082600201600084600001600081548092919061210590613088565b9190505581526020019081526020016000206000808201600090556001820160009055505080915050919050565b82805461213f90613025565b90600052602060002090601f01602090048101928261216157600085556121a8565b82601f1061217a57805160ff19168380011785556121a8565b828001600101855582156121a8579182015b828111156121a757825182559160200191906001019061218c565b5b5090506121b59190612210565b5090565b6040518060e00160405280600081526020016000815260200160008152602001600081526020016000815260200160008152602001600081525090565b604051806040016040528060008152602001600081525090565b5b80821115612229576000816000905550600101612211565b5090565b600061224061223b84612d5b565b612d36565b90508281526020810184848401111561225857600080fd5b612263848285612fe3565b509392505050565b60008135905061227a816133f6565b92915050565b60008190508260206002028201111561229857600080fd5b92915050565b6000813590506122ad8161340d565b92915050565b6000815190506122c28161340d565b92915050565b60008083601f8401126122da57600080fd5b8235905067ffffffffffffffff8111156122f357600080fd5b60208301915083600182028301111561230b57600080fd5b9250929050565b600082601f83011261232357600080fd5b813561233384826020860161222d565b91505092915050565b60008135905061234b81613424565b92915050565b6000813590506123608161343b565b92915050565b60006020828403121561237857600080fd5b60006123868482850161226b565b91505092915050565b6000806000606084860312156123a457600080fd5b60006123b28682870161226b565b93505060206123c38682870161226b565b92505060406123d48682870161226b565b9150509250925092565b6000602082840312156123f057600080fd5b60006123fe848285016122b3565b91505092915050565b600080600080600080600060a0888a03121561242257600080fd5b60006124308a828b0161229e565b97505060206124418a828b01612351565b965050604088013567ffffffffffffffff81111561245e57600080fd5b61246a8a828b016122c8565b9550955050606088013567ffffffffffffffff81111561248957600080fd5b6124958a828b016122c8565b9350935050608088013567ffffffffffffffff8111156124b457600080fd5b6124c08a828b01612280565b91505092959891949750929550565b6000602082840312156124e157600080fd5b600082013567ffffffffffffffff8111156124fb57600080fd5b61250784828501612312565b91505092915050565b60006020828403121561252257600080fd5b60006125308482850161233c565b91505092915050565b60006020828403121561254b57600080fd5b600061255984828501612351565b91505092915050565b6000806040838503121561257557600080fd5b600061258385828601612351565b925050602061259485828601612351565b9150509250929050565b60006125ab8484846126d6565b90509392505050565b60006125c083836129be565b60408301905092915050565b6125d581612f6b565b82525050565b60006125e682612da6565b6125f08185612de1565b93508360208202850161260285612d8c565b8060005b8581101561264857848403895261261d8284612e30565b61262886828461259e565b955061263384612dc7565b935060208b019a505050600181019050612606565b50829750879550505050505092915050565b600061266582612db1565b61266f8185612dec565b935061267a83612d96565b8060005b838110156126ab57815161269288826125b4565b975061269d83612dd4565b92505060018101905061267e565b5085935050505092915050565b6126c181612f7d565b82525050565b6126d081612f89565b82525050565b60006126e28385612dfd565b93506126ef838584612fe3565b6126f88361315e565b840190509392505050565b600061270f8385612e0e565b935061271c838584612fe3565b6127258361315e565b840190509392505050565b600061273b82612dbc565b6127458185612e1f565b9350612755818560208601612ff2565b61275e8161315e565b840191505092915050565b6000612776602a83612e1f565b91506127818261316f565b604082019050919050565b6000612799601883612e1f565b91506127a4826131be565b602082019050919050565b60006127bc602683612e1f565b91506127c7826131e7565b604082019050919050565b60006127df601c83612e1f565b91506127ea82613236565b602082019050919050565b6000612802601383612e1f565b915061280d8261325f565b602082019050919050565b6000612825602e83612e1f565b915061283082613288565b604082019050919050565b6000612848601483612e1f565b9150612853826132d7565b602082019050919050565b600061286b602083612e1f565b915061287682613300565b602082019050919050565b600061288e601683612e1f565b915061289982613329565b602082019050919050565b60006128b1601583612e1f565b91506128bc82613352565b602082019050919050565b60006128d4601883612e1f565b91506128df8261337b565b602082019050919050565b60006128f7601583612e1f565b9150612902826133a4565b602082019050919050565b600061291a601683612e1f565b9150612925826133cd565b602082019050919050565b60e08201600082015161294660008501826129ed565b50602082015161295960208501826129ed565b50604082015161296c60408501826129ed565b50606082015161297f60608501826129ed565b50608082015161299260808501826129ed565b5060a08201516129a560a08501826129ed565b5060c08201516129b860c08501826129ed565b50505050565b6040820160008201516129d460008501826129ed565b5060208201516129e760208501826129ed565b50505050565b6129f681612fb3565b82525050565b612a0581612fb3565b82525050565b612a1481612fd1565b82525050565b612a2381612fbd565b82525050565b6000602082019050612a3e60008301846125cc565b92915050565b60006020820190508181036000830152612a5e818461265a565b905092915050565b6000602082019050612a7b60008301846126b8565b92915050565b6000602082019050612a9660008301846126c7565b92915050565b600060a082019050612ab1600083018a6126c7565b612abe6020830189612a1a565b8181036040830152612ad1818789612703565b90508181036060830152612ae6818587612703565b90508181036080830152612afa81846125db565b905098975050505050505050565b60006020820190508181036000830152612b228184612730565b905092915050565b60006020820190508181036000830152612b4381612769565b9050919050565b60006020820190508181036000830152612b638161278c565b9050919050565b60006020820190508181036000830152612b83816127af565b9050919050565b60006020820190508181036000830152612ba3816127d2565b9050919050565b60006020820190508181036000830152612bc3816127f5565b9050919050565b60006020820190508181036000830152612be381612818565b9050919050565b60006020820190508181036000830152612c038161283b565b9050919050565b60006020820190508181036000830152612c238161285e565b9050919050565b60006020820190508181036000830152612c4381612881565b9050919050565b60006020820190508181036000830152612c63816128a4565b9050919050565b60006020820190508181036000830152612c83816128c7565b9050919050565b60006020820190508181036000830152612ca3816128ea565b9050919050565b60006020820190508181036000830152612cc38161290d565b9050919050565b600060e082019050612cdf6000830184612930565b92915050565b6000602082019050612cfa60008301846129fc565b92915050565b6000602082019050612d156000830184612a0b565b92915050565b6000602082019050612d306000830184612a1a565b92915050565b6000612d40612d51565b9050612d4c8282613057565b919050565b6000604051905090565b600067ffffffffffffffff821115612d7657612d7561312f565b5b612d7f8261315e565b9050602081019050919050565b6000819050919050565b6000819050602082019050919050565b600060029050919050565b600081519050919050565b600081519050919050565b6000602082019050919050565b6000602082019050919050565b600081905092915050565b600082825260208201905092915050565b600082825260208201905092915050565b600082825260208201905092915050565b600082825260208201905092915050565b60008083356001602003843603038112612e4957600080fd5b83810192508235915060208301925067ffffffffffffffff821115612e6d57600080fd5b600182023603841315612e7f57600080fd5b509250929050565b6000612e9282612fb3565b9150612e9d83612fb3565b9250827fffffffffffffffffffffffffffffffffffffffffffffffffffffffffffffffff03821115612ed257612ed16130d1565b5b828201905092915050565b6000612ee882612fb3565b9150612ef383612fb3565b9250817fffffffffffffffffffffffffffffffffffffffffffffffffffffffffffffffff0483118215151615612f2c57612f2b6130d1565b5b828202905092915050565b6000612f4282612fb3565b9150612f4d83612fb3565b925082821015612f6057612f5f6130d1565b5b828203905092915050565b6000612f7682612f93565b9050919050565b60008115159050919050565b6000819050919050565b600073ffffffffffffffffffffffffffffffffffffffff82169050919050565b6000819050919050565b600067ffffffffffffffff82169050919050565b6000612fdc82612fbd565b9050919050565b82818337600083830152505050565b60005b83811015613010578082015181840152602081019050612ff5565b8381111561301f576000848401525b50505050565b6000600282049050600182168061303d57607f821691505b6020821081141561305157613050613100565b5b50919050565b6130608261315e565b810181811067ffffffffffffffff8211171561307f5761307e61312f565b5b80604052505050565b600061309382612fb3565b91507fffffffffffffffffffffffffffffffffffffffffffffffffffffffffffffffff8214156130c6576130c56130d1565b5b600182019050919050565b7f4e487b7100000000000000000000000000000000000000000000000000000000600052601160045260246000fd5b7f4e487b7100000000000000000000000000000000000000000000000000000000600052602260045260246000fd5b7f4e487b7100000000000000000000000000000000000000000000000000000000600052604160045260246000fd5b6000601f19601f8301169050919050565b7f6d73672e76616c75652073686f756c6420626520766f7465506f776572202a2060008201527f3130303020657468657200000000000000000000000000000000000000000000602082015250565b7f6d73672e73656e646572206973206e6f74206272696467650000000000000000600082015250565b7f4f776e61626c653a206e6577206f776e657220697320746865207a65726f206160008201527f6464726573730000000000000000000000000000000000000000000000000000602082015250565b7f6d73672e76616c75652073686f756c6420626520313030302043465800000000600082015250565b7f566f746573206973206e6f7420656e6f75676800000000000000000000000000600082015250565b7f496e697469616c697a61626c653a20636f6e747261637420697320616c72656160008201527f647920696e697469616c697a6564000000000000000000000000000000000000602082015250565b7f506f6f6c206973206e6f74207265676973746564000000000000000000000000600082015250565b7f4f776e61626c653a2063616c6c6572206973206e6f7420746865206f776e6572600082015250565b7f4d696e696d616c20766f7465506f776572206973203100000000000000000000600082015250565b7f4e6f20636c61696d61626c6520696e7465726573740000000000000000000000600082015250565b7f506f6f6c20697320616c72656164792072656769737465640000000000000000600082015250565b7f766f7465506f7765722073686f756c6420626520310000000000000000000000600082015250565b7f556e6c6f636b6564206973206e6f7420656e6f75676800000000000000000000600082015250565b6133ff81612f6b565b811461340a57600080fd5b50565b61341681612f89565b811461342157600080fd5b50565b61342d81612fb3565b811461343857600080fd5b50565b61344481612fbd565b811461344f57600080fd5b5056fea2646970667358221220a291c8b1a2f29b3ea052f5974f7c79b6ae33234af2162cb13c16fc58790bbd5564736f6c63430008020033",
  "immutableReferences": {},
  "source": "//SPDX-License-Identifier: BUSL-1.1\r\npragma solidity ^0.8.0;\r\n\r\nimport \"@openzeppelin/contracts/access/Ownable.sol\";\r\nimport \"@openzeppelin/contracts/utils/math/SafeMath.sol\";\r\nimport \"@openzeppelin/contracts/utils/structs/EnumerableSet.sol\";\r\nimport \"@openzeppelin/contracts/proxy/utils/Initializable.sol\";\r\nimport \"./PoolContext.sol\";\r\nimport \"./VotePowerQueue.sol\";\r\nimport \"./PoolAPY.sol\";\r\n\r\n///\r\n///  @title PoSPoolmini is a small Conflux POS pool cantract with the basic usages \r\n///  @dev This is Conflux PoS pool contract, the contract didn't have user\r\n///  @notice Users can use this contract to participate Conflux PoS without running a PoS node.\r\n///\r\ncontract PoSPoolmini is PoolContext, Ownable, Initializable {\r\n  using SafeMath for uint256;\r\n  using EnumerableSet for EnumerableSet.AddressSet;\r\n  using VotePowerQueue for VotePowerQueue.InOutQueue;\r\n  using PoolAPY for PoolAPY.ApyQueue;\r\n\r\n  uint256 private CFX_COUNT_OF_ONE_VOTE = 1000;\r\n  uint256 private CFX_VALUE_OF_ONE_VOTE = 1000 ether;\r\n  uint256 private ONE_DAY_BLOCK_COUNT = 2 * 3600 * 24;\r\n  \r\n  // ======================== Pool config =========================\r\n\r\n  string public poolName;\r\n  // wheter this poolContract registed in PoS\r\n  bool public _poolRegisted;\r\n  // ratio shared by user: 1-10000\r\n  address bridge_contract;\r\n  address bridge_withdraw;\r\n  address bridge_storage;\r\n\r\n  // lock period: 13 days + 1 day\r\n  uint256 public _poolLockPeriod_in = ONE_DAY_BLOCK_COUNT * 13 + 102000; \r\n  uint256 public _poolLockPeriod_out = ONE_DAY_BLOCK_COUNT * 1 + 7200; \r\n\r\n  // ======================== Struct definitions =========================\r\n\r\n  /// @title PoolSummary\r\n  /// @custom:field totalvotes Pool's total votes\r\n  /// @custom:field locking Pool's locking votes\r\n  /// @custom:field locked\r\n  /// @custom:field unlocking\r\n  /// @custom:field unlocked\r\n  /// @custom:field totalInterest,total interest of whole pools\r\n  /// @custom:field claimedInterest\r\n\r\n  struct PoolSummary {\r\n    uint256 totalvotes;\r\n    uint256 locking;\r\n    uint256 locked;\r\n    uint256 unlocking;\r\n    uint256 unlocked;\r\n    uint256 totalInterest; \r\n    uint256 claimedInterest;\r\n  }\r\n\r\n  struct PoolShot {\r\n    uint256 available;\r\n    uint256 balance;\r\n    uint256 blockNumber;\r\n  } \r\n\r\n  // ======================== Contract states ====================\r\n\r\n  PoolSummary private _poolSummary;\r\n  VotePowerQueue.InOutQueue private Inqueues;\r\n  VotePowerQueue.InOutQueue private Outqueues;\r\n\r\n  PoolShot internal lastPoolShot;\r\n\r\n  // ======================== Modifiers ==========================\r\n  modifier onlyRegisted() {\r\n    require(_poolRegisted, \"Pool is not registed\");\r\n    _;\r\n  }\r\n  modifier onlybridge() {\r\n    require(msg.sender==bridge_contract, \"msg.sender is not bridge\");\r\n    _;\r\n  }\r\n  // ======================== Helpers ============================\r\n\r\n  // used to update lastPoolShot after _poolSummary.available changed \r\n  function _updatePoolShot() private {\r\n    lastPoolShot.available = _poolSummary.totalvotes;\r\n    lastPoolShot.balance = _selfBalance();\r\n    lastPoolShot.blockNumber = _blockNumber();\r\n  }\r\n\r\n  // ======================== Events ==============================\r\n\r\n  event IncreasePoSStake(address indexed user, uint256 votePower);\r\n\r\n  event DecreasePoSStake(address indexed user, uint256 votePower);\r\n\r\n  event WithdrawStake(address indexed user, uint256 votePower);\r\n\r\n  event ClaimInterest(address indexed user, uint256 amount);\r\n\r\n  // ======================== Init methods =========================\r\n  // call this method when depoly the 1967 proxy contract\r\n  function initialize() public initializer {\r\n    CFX_COUNT_OF_ONE_VOTE = 1000;\r\n    CFX_VALUE_OF_ONE_VOTE = 1000 ether;\r\n    ONE_DAY_BLOCK_COUNT = 2 * 3600 * 24;\r\n    _poolLockPeriod_in = ONE_DAY_BLOCK_COUNT * 7 + 3600;\r\n    _poolLockPeriod_out = ONE_DAY_BLOCK_COUNT * 7 + 3600;\r\n  }\r\n  \r\n  ///\r\n  /// @notice Regist the pool contract in PoS internal contract \r\n  /// @dev Only admin can do this\r\n  /// @param indentifier The identifier of PoS node\r\n  /// @param votePower The vote power when register\r\n  /// @param blsPubKey The bls public key of PoS node\r\n  /// @param vrfPubKey The vrf public key of PoS node\r\n  /// @param blsPubKeyProof The bls public key proof of PoS node\r\n  ///\r\n  function register(\r\n    bytes32 indentifier,\r\n    uint64 votePower,\r\n    bytes calldata blsPubKey,\r\n    bytes calldata vrfPubKey,\r\n    bytes[2] calldata blsPubKeyProof\r\n  ) public virtual payable onlyOwner {\r\n    require(!_poolRegisted, \"Pool is already registed\");\r\n    require(votePower == 1, \"votePower should be 1\");\r\n    require(msg.value == votePower * CFX_VALUE_OF_ONE_VOTE, \"msg.value should be 1000 CFX\");\r\n    _stakingDeposit(msg.value);\r\n    _posRegisterRegister(indentifier, votePower, blsPubKey, vrfPubKey, blsPubKeyProof);\r\n    _poolRegisted = true;\r\n\r\n    // update pool info\r\n    _poolSummary.totalvotes += votePower;\r\n    _poolSummary.locking += votePower;\r\n    Inqueues.enqueue(VotePowerQueue.QueueNode(votePower, _blockNumber() + _poolLockPeriod_in));\r\n    _poolSummary.locked += Inqueues.collectEndedVotes();\r\n    _updatePoolShot();\r\n  }\r\n\r\n  // ======================== Contract methods , Only bridge can use =========================\r\n\r\n  ///\r\n  /// @notice Increase PoS vote power\r\n  /// @param votePower The number of vote power to increase\r\n  ///\r\n  function increaseStake(uint64 votePower) public virtual payable onlyRegisted onlybridge{\r\n    require(votePower > 0, \"Minimal votePower is 1\");\r\n    require(msg.value == votePower * CFX_VALUE_OF_ONE_VOTE, \"msg.value should be votePower * 1000 ether\");\r\n    _stakingDeposit(msg.value);\r\n    _posRegisterIncreaseStake(votePower);\r\n    emit IncreasePoSStake(msg.sender, votePower);\r\n\r\n    // update pool info\r\n    _poolSummary.totalvotes += votePower;\r\n    _poolSummary.locking += votePower;\r\n    Inqueues.enqueue(VotePowerQueue.QueueNode(votePower, _blockNumber() + _poolLockPeriod_in));\r\n    _poolSummary.locked += Inqueues.collectEndedVotes();\r\n    _updatePoolShot();\r\n  }\r\n\r\n  ///\r\n  /// @notice Decrease PoS vote power\r\n  /// @param votePower The number of vote power to decrease\r\n  ///\r\n  function decreaseStake(uint64 votePower) public virtual onlyRegisted onlybridge{\r\n    uint256 tempvotes;\r\n    _poolSummary.locked += Inqueues.collectEndedVotes();\r\n    require(_poolSummary.totalvotes >= votePower, \"Votes is not enough\");\r\n    _posRegisterRetire(votePower);\r\n    emit DecreasePoSStake(msg.sender, votePower);\r\n\r\n    // update pool info\r\n    _poolSummary.totalvotes -= votePower;\r\n    _poolSummary.unlocking += votePower;\r\n    if(votePower<=_poolSummary.locked){\r\n      _poolSummary.locked -= votePower;\r\n      Outqueues.enqueue(VotePowerQueue.QueueNode(votePower, _blockNumber() + _poolLockPeriod_out));\r\n    }else {\r\n      tempvotes = votePower - _poolSummary.locked;\r\n      _poolSummary.locked = 0;\r\n      _poolSummary.locking -= tempvotes;\r\n      Outqueues.enqueue(VotePowerQueue.QueueNode(votePower, _blockNumber() + _poolLockPeriod_in + _poolLockPeriod_out));\r\n    }\r\n    tempvotes = Outqueues.collectEndedVotes();\r\n    _poolSummary.unlocking -= tempvotes;\r\n    _poolSummary.unlocked += tempvotes;\r\n    _updatePoolShot();\r\n  }\r\n\r\n  ///\r\n  /// @notice Withdraw PoS vote power\r\n  /// @dev  The number of vote power to withdraw\r\n  ///\r\n  function withdrawStake() public onlyRegisted onlybridge{\r\n    uint256 temp_out_cEndVotes = Outqueues.collectEndedVotes();\r\n    //require(temp_out_cEndVotes>0,\"No new unlocked\");\r\n    _poolSummary.unlocking -= temp_out_cEndVotes;\r\n    _poolSummary.unlocked += temp_out_cEndVotes;\r\n    require(_poolSummary.unlocked >= 0, \"Unlocked is not enough\");\r\n\r\n    _stakingWithdraw(_poolSummary.unlocked * CFX_VALUE_OF_ONE_VOTE);\r\n    address payable receiver = payable(bridge_withdraw);// withdraw CFX to bridgecoreaddr\r\n    receiver.transfer(_poolSummary.unlocked * CFX_VALUE_OF_ONE_VOTE);\r\n    _poolSummary.unlocked = 0;\r\n    emit WithdrawStake(msg.sender, temp_out_cEndVotes);\r\n  }\r\n\r\n  ///\r\n  /// @notice Claim all interest in pool\r\n  ///\r\n  function claimAllInterest() public onlyRegisted onlybridge returns (uint256){\r\n    uint claimableInterest = address(this).balance;\r\n    require(claimableInterest > 0, \"No claimable interest\");\r\n    address payable receiver = payable(bridge_storage);\r\n    receiver.transfer(claimableInterest);\r\n    return claimableInterest;\r\n  }\r\n  // function test_transfer() public onlyRegisted onlybridge returns (uint256){\r\n  //   uint claimableInterest = address(this).balance;\r\n  //   //require(claimableInterest > 0, \"No claimable interest\");\r\n  //   address payable receiver = payable(msg.sender);\r\n  //   transferCFX( receiver,  claimableInterest);\r\n  //   //receiver.transfer(claimableInterest);\r\n  //   return claimableInterest;\r\n  // }\r\n\r\n  // function transferCFX(address _address, uint256 _value) internal{\r\n  //       (bool res, ) = address(uint160(_address)).call{value:_value}(\"\");\r\n  //       require(res,\"TRANSFER ETH ERROR\");\r\n  // }\r\n\r\n  function temp_Interest() public view onlyRegisted returns (uint256){\r\n    return address(this).balance;\r\n  }\r\n  // ======================== Contract view methods interface use =========================\r\n  /// \r\n  /// @notice Get  pool summary\r\n  /// @return pool's summary\r\n  ///\r\n  function poolSummary() public view returns (PoolSummary memory) {\r\n    PoolSummary memory summary = _poolSummary;\r\n    uint256 _latestReward = _selfBalance().sub(lastPoolShot.balance);\r\n    summary.totalInterest = summary.totalInterest.add(_latestReward);\r\n    return summary;\r\n  }\r\n\r\n  /// \r\n  /// @notice Query pools contract address\r\n  /// @return Pool's PoS address\r\n  ///\r\n  function posAddress() public view onlyRegisted returns (bytes32) {\r\n    return _posAddressToIdentifier(address(this));\r\n  }\r\n\r\n  function getInQueue() public view returns (VotePowerQueue.QueueNode[] memory) {\r\n    return Inqueues.queueItems();\r\n  }\r\n\r\n  function getOutQueue() public view returns (VotePowerQueue.QueueNode[] memory) {\r\n    return Outqueues.queueItems();\r\n  }\r\n\r\n  // ======================== admin methods =====================\r\n\r\n  ///\r\n  /// @notice Enable admin to set the user share ratio\r\n  /// @dev description\r\n  /// @param _withdraw  description\r\n  /// @param _storage description\r\n  ///\r\n  function _set_bridges(address _bridge, address _withdraw, address _storage) public onlyOwner {\r\n    bridge_contract = _bridge;\r\n    bridge_withdraw = _withdraw;\r\n    bridge_storage = _storage;\r\n  }\r\n\r\n  /// \r\n  /// @notice Enable admin to set the lock and unlock period\r\n  /// @dev Only admin can do this\r\n  /// @param _in The lock period in in block number, default is seven day's block count\r\n  /// @param _out The lock period out in block number, default is seven day's block count\r\n  ///\r\n  function _setLockPeriod(uint64 _in,uint64 _out) public onlyOwner {\r\n    _poolLockPeriod_in = _in;\r\n    _poolLockPeriod_out = _out;\r\n  }\r\n\r\n  /// \r\n  /// @notice Enable admin to set the pool name\r\n  ///\r\n  function _setPoolName(string memory name) public onlyOwner {\r\n    poolName = name;\r\n  }\r\n\r\n  /// @param count Vote cfx count, unit is cfx\r\n  function _setCfxCountOfOneVote(uint256 count) public onlyOwner {\r\n    CFX_COUNT_OF_ONE_VOTE = count;\r\n    CFX_VALUE_OF_ONE_VOTE = count * 1 ether;\r\n  }\r\n\r\n  // Used to bring account's retired votes back to work\r\n  // reStake _poolSummary.available\r\n  function _reStake(uint64 votePower) public onlyOwner {\r\n    _posRegisterIncreaseStake(votePower);\r\n  }\r\n\r\n  // ======================== contract base methods =====================\r\n  fallback() external payable {}\r\n  receive() external payable {}\r\n\r\n}",
  "sourcePath": "C:/Users/artii/Conflux Studio/minpos/contracts/PoSPoolmini.sol",
  "compiler": {
    "name": "solc",
    "version": "0.8.2+commit.661d1103.Emscripten.clang"
  },
  "schemaVersion": "3.3.4",
  "updatedAt": "2022-08-16T16:27:32.843Z",
  "devdoc": {
    "details": "This is Conflux PoS pool contract, the contract didn't have user",
    "kind": "dev",
    "methods": {
      "_setCfxCountOfOneVote(uint256)": {
        "params": {
          "count": "Vote cfx count, unit is cfx"
        }
      },
      "_setLockPeriod(uint64,uint64)": {
        "details": "Only admin can do this",
        "params": {
          "_in": "The lock period in in block number, default is seven day's block count",
          "_out": "The lock period out in block number, default is seven day's block count"
        }
      },
      "_set_bridges(address,address,address)": {
        "details": "description",
        "params": {
          "_storage": "description",
          "_withdraw": "description"
        }
      },
      "decreaseStake(uint64)": {
        "params": {
          "votePower": "The number of vote power to decrease"
        }
      },
      "increaseStake(uint64)": {
        "params": {
          "votePower": "The number of vote power to increase"
        }
      },
      "owner()": {
        "details": "Returns the address of the current owner."
      },
      "poolSummary()": {
        "returns": {
          "_0": "pool's summary"
        }
      },
      "posAddress()": {
        "returns": {
          "_0": "Pool's PoS address"
        }
      },
      "register(bytes32,uint64,bytes,bytes,bytes[2])": {
        "details": "Only admin can do this",
        "params": {
          "blsPubKey": "The bls public key of PoS node",
          "blsPubKeyProof": "The bls public key proof of PoS node",
          "indentifier": "The identifier of PoS node",
          "votePower": "The vote power when register",
          "vrfPubKey": "The vrf public key of PoS node"
        }
      },
      "renounceOwnership()": {
        "details": "Leaves the contract without owner. It will not be possible to call `onlyOwner` functions anymore. Can only be called by the current owner. NOTE: Renouncing ownership will leave the contract without an owner, thereby removing any functionality that is only available to the owner."
      },
      "transferOwnership(address)": {
        "details": "Transfers ownership of the contract to a new account (`newOwner`). Can only be called by the current owner."
      },
      "withdrawStake()": {
        "details": "The number of vote power to withdraw"
      }
    },
    "title": "PoSPoolmini is a small Conflux POS pool cantract with the basic usages ",
    "version": 1
  },
  "userdoc": {
    "kind": "user",
    "methods": {
      "_setLockPeriod(uint64,uint64)": {
        "notice": "Enable admin to set the lock and unlock period"
      },
      "_setPoolName(string)": {
        "notice": "Enable admin to set the pool name"
      },
      "_set_bridges(address,address,address)": {
        "notice": "Enable admin to set the user share ratio"
      },
      "claimAllInterest()": {
        "notice": "Claim all interest in pool"
      },
      "decreaseStake(uint64)": {
        "notice": "Decrease PoS vote power"
      },
      "increaseStake(uint64)": {
        "notice": "Increase PoS vote power"
      },
      "poolSummary()": {
        "notice": "Get  pool summary"
      },
      "posAddress()": {
        "notice": "Query pools contract address"
      },
      "register(bytes32,uint64,bytes,bytes,bytes[2])": {
        "notice": "Regist the pool contract in PoS internal contract "
      },
      "withdrawStake()": {
        "notice": "Withdraw PoS vote power"
      }
    },
    "notice": "Users can use this contract to participate Conflux PoS without running a PoS node.",
    "version": 1
  }
}