{
  "contractName": "PoSPoolmini",
  "abi": [
    {
      "anonymous": false,
      "inputs": [
        {
          "indexed": true,
          "internalType": "address",
          "name": "user",
          "type": "address"
        },
        {
          "indexed": false,
          "internalType": "uint256",
          "name": "amount",
          "type": "uint256"
        }
      ],
      "name": "ClaimInterest",
      "type": "event"
    },
    {
      "anonymous": false,
      "inputs": [
        {
          "indexed": true,
          "internalType": "address",
          "name": "user",
          "type": "address"
        },
        {
          "indexed": false,
          "internalType": "uint256",
          "name": "votePower",
          "type": "uint256"
        }
      ],
      "name": "DecreasePoSStake",
      "type": "event"
    },
    {
      "anonymous": false,
      "inputs": [
        {
          "indexed": true,
          "internalType": "address",
          "name": "user",
          "type": "address"
        },
        {
          "indexed": false,
          "internalType": "uint256",
          "name": "votePower",
          "type": "uint256"
        }
      ],
      "name": "IncreasePoSStake",
      "type": "event"
    },
    {
      "anonymous": false,
      "inputs": [
        {
          "indexed": true,
          "internalType": "address",
          "name": "previousOwner",
          "type": "address"
        },
        {
          "indexed": true,
          "internalType": "address",
          "name": "newOwner",
          "type": "address"
        }
      ],
      "name": "OwnershipTransferred",
      "type": "event"
    },
    {
      "anonymous": false,
      "inputs": [
        {
          "indexed": true,
          "internalType": "address",
          "name": "user",
          "type": "address"
        },
        {
          "indexed": false,
          "internalType": "uint256",
          "name": "votePower",
          "type": "uint256"
        }
      ],
      "name": "WithdrawStake",
      "type": "event"
    },
    {
      "stateMutability": "payable",
      "type": "fallback"
    },
    {
      "inputs": [],
      "name": "_poolLockPeriod_in",
      "outputs": [
        {
          "internalType": "uint256",
          "name": "",
          "type": "uint256"
        }
      ],
      "stateMutability": "view",
      "type": "function"
    },
    {
      "inputs": [],
      "name": "_poolLockPeriod_out",
      "outputs": [
        {
          "internalType": "uint256",
          "name": "",
          "type": "uint256"
        }
      ],
      "stateMutability": "view",
      "type": "function"
    },
    {
      "inputs": [],
      "name": "_poolRegisted",
      "outputs": [
        {
          "internalType": "bool",
          "name": "",
          "type": "bool"
        }
      ],
      "stateMutability": "view",
      "type": "function"
    },
    {
      "inputs": [],
      "name": "owner",
      "outputs": [
        {
          "internalType": "address",
          "name": "",
          "type": "address"
        }
      ],
      "stateMutability": "view",
      "type": "function"
    },
    {
      "inputs": [],
      "name": "poolName",
      "outputs": [
        {
          "internalType": "string",
          "name": "",
          "type": "string"
        }
      ],
      "stateMutability": "view",
      "type": "function"
    },
    {
      "inputs": [],
      "name": "renounceOwnership",
      "outputs": [],
      "stateMutability": "nonpayable",
      "type": "function"
    },
    {
      "inputs": [
        {
          "internalType": "address",
          "name": "newOwner",
          "type": "address"
        }
      ],
      "name": "transferOwnership",
      "outputs": [],
      "stateMutability": "nonpayable",
      "type": "function"
    },
    {
      "stateMutability": "payable",
      "type": "receive"
    },
    {
      "inputs": [],
      "name": "initialize",
      "outputs": [],
      "stateMutability": "nonpayable",
      "type": "function"
    },
    {
      "inputs": [
        {
          "internalType": "bytes32",
          "name": "indentifier",
          "type": "bytes32"
        },
        {
          "internalType": "uint64",
          "name": "votePower",
          "type": "uint64"
        },
        {
          "internalType": "bytes",
          "name": "blsPubKey",
          "type": "bytes"
        },
        {
          "internalType": "bytes",
          "name": "vrfPubKey",
          "type": "bytes"
        },
        {
          "internalType": "bytes[2]",
          "name": "blsPubKeyProof",
          "type": "bytes[2]"
        }
      ],
      "name": "register",
      "outputs": [],
      "stateMutability": "payable",
      "type": "function"
    },
    {
      "inputs": [
        {
          "internalType": "uint64",
          "name": "votePower",
          "type": "uint64"
        }
      ],
      "name": "increaseStake",
      "outputs": [],
      "stateMutability": "payable",
      "type": "function"
    },
    {
      "inputs": [
        {
          "internalType": "uint64",
          "name": "votePower",
          "type": "uint64"
        }
      ],
      "name": "decreaseStake",
      "outputs": [],
      "stateMutability": "nonpayable",
      "type": "function"
    },
    {
      "inputs": [],
      "name": "withdrawStake",
      "outputs": [],
      "stateMutability": "nonpayable",
      "type": "function"
    },
    {
      "inputs": [],
      "name": "claimAllInterest",
      "outputs": [
        {
          "internalType": "uint256",
          "name": "",
          "type": "uint256"
        }
      ],
      "stateMutability": "nonpayable",
      "type": "function"
    },
    {
      "inputs": [],
      "name": "test_transfer",
      "outputs": [
        {
          "internalType": "uint256",
          "name": "",
          "type": "uint256"
        }
      ],
      "stateMutability": "nonpayable",
      "type": "function"
    },
    {
      "inputs": [],
      "name": "temp_Interest",
      "outputs": [
        {
          "internalType": "uint256",
          "name": "",
          "type": "uint256"
        }
      ],
      "stateMutability": "view",
      "type": "function"
    },
    {
      "inputs": [],
      "name": "poolSummary",
      "outputs": [
        {
          "components": [
            {
              "internalType": "uint256",
              "name": "totalvotes",
              "type": "uint256"
            },
            {
              "internalType": "uint256",
              "name": "locking",
              "type": "uint256"
            },
            {
              "internalType": "uint256",
              "name": "locked",
              "type": "uint256"
            },
            {
              "internalType": "uint256",
              "name": "unlocking",
              "type": "uint256"
            },
            {
              "internalType": "uint256",
              "name": "unlocked",
              "type": "uint256"
            },
            {
              "internalType": "uint256",
              "name": "totalInterest",
              "type": "uint256"
            },
            {
              "internalType": "uint256",
              "name": "claimedInterest",
              "type": "uint256"
            }
          ],
          "internalType": "struct PoSPoolmini.PoolSummary",
          "name": "",
          "type": "tuple"
        }
      ],
      "stateMutability": "view",
      "type": "function"
    },
    {
      "inputs": [],
      "name": "posAddress",
      "outputs": [
        {
          "internalType": "bytes32",
          "name": "",
          "type": "bytes32"
        }
      ],
      "stateMutability": "view",
      "type": "function"
    },
    {
      "inputs": [],
      "name": "getInQueue",
      "outputs": [
        {
          "components": [
            {
              "internalType": "uint256",
              "name": "votePower",
              "type": "uint256"
            },
            {
              "internalType": "uint256",
              "name": "endBlock",
              "type": "uint256"
            }
          ],
          "internalType": "struct VotePowerQueue.QueueNode[]",
          "name": "",
          "type": "tuple[]"
        }
      ],
      "stateMutability": "view",
      "type": "function"
    },
    {
      "inputs": [],
      "name": "getOutQueue",
      "outputs": [
        {
          "components": [
            {
              "internalType": "uint256",
              "name": "votePower",
              "type": "uint256"
            },
            {
              "internalType": "uint256",
              "name": "endBlock",
              "type": "uint256"
            }
          ],
          "internalType": "struct VotePowerQueue.QueueNode[]",
          "name": "",
          "type": "tuple[]"
        }
      ],
      "stateMutability": "view",
      "type": "function"
    },
    {
      "inputs": [
        {
          "internalType": "address",
          "name": "_bridge",
          "type": "address"
        },
        {
          "internalType": "address",
          "name": "_withdraw",
          "type": "address"
        },
        {
          "internalType": "address",
          "name": "_storage",
          "type": "address"
        }
      ],
      "name": "_set_bridges",
      "outputs": [],
      "stateMutability": "nonpayable",
      "type": "function"
    },
    {
      "inputs": [
        {
          "internalType": "uint64",
          "name": "_in",
          "type": "uint64"
        },
        {
          "internalType": "uint64",
          "name": "_out",
          "type": "uint64"
        }
      ],
      "name": "_setLockPeriod",
      "outputs": [],
      "stateMutability": "nonpayable",
      "type": "function"
    },
    {
      "inputs": [
        {
          "internalType": "string",
          "name": "name",
          "type": "string"
        }
      ],
      "name": "_setPoolName",
      "outputs": [],
      "stateMutability": "nonpayable",
      "type": "function"
    },
    {
      "inputs": [
        {
          "internalType": "uint256",
          "name": "count",
          "type": "uint256"
        }
      ],
      "name": "_setCfxCountOfOneVote",
      "outputs": [],
      "stateMutability": "nonpayable",
      "type": "function"
    },
    {
      "inputs": [
        {
          "internalType": "uint64",
          "name": "votePower",
          "type": "uint64"
        }
      ],
      "name": "_reStake",
      "outputs": [],
      "stateMutability": "nonpayable",
      "type": "function"
    }
  ],
  "bytecode": "0x60806040526103e8600155683635c9adc5dea000006002556202a30060035562018e70600d600354620000339190620001c2565b6200003f919062000165565b600855611c206001600354620000569190620001c2565b62000062919062000165565b6009553480156200007257600080fd5b5062000093620000876200009960201b60201c565b620000a160201b60201c565b6200025c565b600033905090565b60008060009054906101000a900473ffffffffffffffffffffffffffffffffffffffff169050816000806101000a81548173ffffffffffffffffffffffffffffffffffffffff021916908373ffffffffffffffffffffffffffffffffffffffff1602179055508173ffffffffffffffffffffffffffffffffffffffff168173ffffffffffffffffffffffffffffffffffffffff167f8be0079c531659141344cd1fd0a4f28419497f9722a3daafe3b4186f6b6457e060405160405180910390a35050565b6000620001728262000223565b91506200017f8362000223565b9250827fffffffffffffffffffffffffffffffffffffffffffffffffffffffffffffffff03821115620001b757620001b66200022d565b5b828201905092915050565b6000620001cf8262000223565b9150620001dc8362000223565b9250817fffffffffffffffffffffffffffffffffffffffffffffffffffffffffffffffff04831182151516156200021857620002176200022d565b5b828202905092915050565b6000819050919050565b7f4e487b7100000000000000000000000000000000000000000000000000000000600052601160045260246000fd5b613708806200026c6000396000f3fe60806040526004361061014f5760003560e01c80639bdeb5aa116100b6578063e335b4511161006f578063e335b45114610409578063e73e183b14610425578063e7c8160314610450578063f2fde38b1461047b578063f313afaf146104a4578063f3466dfa146104cd57610156565b80639bdeb5aa146103215780639c45706d1461034c578063adcb498214610377578063beb99c1e146103a0578063bed9d861146103c9578063db51ffe4146103e057610156565b80634db88eff116101085780634db88eff14610247578063715018a6146102725780637571fcf6146102895780638129fc1c146102b45780638270512f146102cb5780638da5cb5b146102f657610156565b806309fecf7f146101585780631764618c1461017457806332d5d7a51461019f57806336c52949146101ca5780633a7e2d9a146101f35780634b1b45e61461021c57610156565b3661015657005b005b610172600480360381019061016d9190612707565b6104f8565b005b34801561018057600080fd5b5061018961079f565b6040516101969190612caa565b60405180910390f35b3480156101ab57600080fd5b506101b46107fe565b6040516101c19190612c6d565b60405180910390f35b3480156101d657600080fd5b506101f160048036038101906101ec919061269d565b61080f565b005b3480156101ff57600080fd5b5061021a600480360381019061021591906126de565b6108a5565b005b34801561022857600080fd5b50610231610945565b60405161023e9190612c8f565b60405180910390f35b34801561025357600080fd5b5061025c610958565b6040516102699190612f2e565b60405180910390f35b34801561027e57600080fd5b5061028761095e565b005b34801561029557600080fd5b5061029e6109e6565b6040516102ab9190612f13565b60405180910390f35b3480156102c057600080fd5b506102c9610a90565b005b3480156102d757600080fd5b506102e0610bd3565b6040516102ed9190612f2e565b60405180910390f35b34801561030257600080fd5b5061030b610d72565b6040516103189190612c52565b60405180910390f35b34801561032d57600080fd5b50610336610d9b565b6040516103439190612f2e565b60405180910390f35b34801561035857600080fd5b50610361610da1565b60405161036e9190612f2e565b60405180910390f35b34801561038357600080fd5b5061039e6004803603810190610399919061255d565b610e9e565b005b3480156103ac57600080fd5b506103c760048036038101906103c29190612707565b610fe2565b005b3480156103d557600080fd5b506103de61134c565b005b3480156103ec57600080fd5b5061040760048036038101906104029190612730565b61159c565b005b610423600480360381019061041e91906125d5565b61163e565b005b34801561043157600080fd5b5061043a6118ab565b6040516104479190612f2e565b60405180910390f35b34801561045c57600080fd5b50610465611902565b6040516104729190612c6d565b60405180910390f35b34801561048757600080fd5b506104a2600480360381019061049d9190612534565b611913565b005b3480156104b057600080fd5b506104cb60048036038101906104c69190612707565b611a0b565b005b3480156104d957600080fd5b506104e2611a93565b6040516104ef9190612d31565b60405180910390f35b600560009054906101000a900460ff16610547576040517f08c379a000000000000000000000000000000000000000000000000000000000815260040161053e90612e33565b60405180910390fd5b600560019054906101000a900473ffffffffffffffffffffffffffffffffffffffff1673ffffffffffffffffffffffffffffffffffffffff163373ffffffffffffffffffffffffffffffffffffffff16146105d7576040517f08c379a00000000000000000000000000000000000000000000000000000000081526004016105ce90612d73565b60405180910390fd5b60008167ffffffffffffffff1611610624576040517f08c379a000000000000000000000000000000000000000000000000000000000815260040161061b90612e73565b60405180910390fd5b6002548167ffffffffffffffff1661063c9190613131565b341461067d576040517f08c379a000000000000000000000000000000000000000000000000000000000815260040161067490612d53565b60405180910390fd5b61068634611b21565b61068f81611ba3565b3373ffffffffffffffffffffffffffffffffffffffff167ff5ebfcde71acb15a758233f0c9ab25632209399b90a9209a4f2379ec5fcee89f826040516106d59190612f49565b60405180910390a28067ffffffffffffffff16600a60000160008282546106fc91906130db565b925050819055508067ffffffffffffffff16600a600101600082825461072291906130db565b9250508190555061076f60405180604001604052808367ffffffffffffffff168152602001600854610752611c25565b61075c91906130db565b8152506011611c2d90919063ffffffff16565b6107796011611c76565b600a600201600082825461078d91906130db565b9250508190555061079c611d05565b50565b6000600560009054906101000a900460ff166107f0576040517f08c379a00000000000000000000000000000000000000000000000000000000081526004016107e790612e33565b60405180910390fd5b6107f930611d38565b905090565b606061080a6011611dde565b905090565b610817611f2b565b73ffffffffffffffffffffffffffffffffffffffff16610835610d72565b73ffffffffffffffffffffffffffffffffffffffff161461088b576040517f08c379a000000000000000000000000000000000000000000000000000000000815260040161088290612e53565b60405180910390fd5b80600490805190602001906108a1929190612301565b5050565b6108ad611f2b565b73ffffffffffffffffffffffffffffffffffffffff166108cb610d72565b73ffffffffffffffffffffffffffffffffffffffff1614610921576040517f08c379a000000000000000000000000000000000000000000000000000000000815260040161091890612e53565b60405180910390fd5b80600181905550670de0b6b3a76400008161093c9190613131565b60028190555050565b600560009054906101000a900460ff1681565b60085481565b610966611f2b565b73ffffffffffffffffffffffffffffffffffffffff16610984610d72565b73ffffffffffffffffffffffffffffffffffffffff16146109da576040517f08c379a00000000000000000000000000000000000000000000000000000000081526004016109d190612e53565b60405180910390fd5b6109e46000611f33565b565b6109ee612387565b6000600a6040518060e001604052908160008201548152602001600182015481526020016002820154815260200160038201548152602001600482015481526020016005820154815260200160068201548152505090506000610a66601760010154610a58611ff7565b611fff90919063ffffffff16565b9050610a7f818360a0015161201590919063ffffffff16565b8260a0018181525050819250505090565b600060159054906101000a900460ff1680610ab85750600060149054906101000a900460ff16155b610af7576040517f08c379a0000000000000000000000000000000000000000000000000000000008152600401610aee90612e13565b60405180910390fd5b60008060159054906101000a900460ff161590508015610b48576001600060156101000a81548160ff0219169083151502179055506001600060146101000a81548160ff0219169083151502179055505b6103e8600181905550683635c9adc5dea000006002819055506202a300600381905550610e106007600354610b7d9190613131565b610b8791906130db565b600881905550610e106007600354610b9f9190613131565b610ba991906130db565b6009819055508015610bd05760008060156101000a81548160ff0219169083151502179055505b50565b6000600560009054906101000a900460ff16610c24576040517f08c379a0000000000000000000000000000000000000000000000000000000008152600401610c1b90612e33565b60405180910390fd5b600560019054906101000a900473ffffffffffffffffffffffffffffffffffffffff1673ffffffffffffffffffffffffffffffffffffffff163373ffffffffffffffffffffffffffffffffffffffff1614610cb4576040517f08c379a0000000000000000000000000000000000000000000000000000000008152600401610cab90612d73565b60405180910390fd5b600047905060008111610cfc576040517f08c379a0000000000000000000000000000000000000000000000000000000008152600401610cf390612e93565b60405180910390fd5b6000600760009054906101000a900473ffffffffffffffffffffffffffffffffffffffff1690508073ffffffffffffffffffffffffffffffffffffffff166108fc839081150290604051600060405180830381858888f19350505050158015610d69573d6000803e3d6000fd5b50819250505090565b60008060009054906101000a900473ffffffffffffffffffffffffffffffffffffffff16905090565b60095481565b6000600560009054906101000a900460ff16610df2576040517f08c379a0000000000000000000000000000000000000000000000000000000008152600401610de990612e33565b60405180910390fd5b600560019054906101000a900473ffffffffffffffffffffffffffffffffffffffff1673ffffffffffffffffffffffffffffffffffffffff163373ffffffffffffffffffffffffffffffffffffffff1614610e82576040517f08c379a0000000000000000000000000000000000000000000000000000000008152600401610e7990612d73565b60405180910390fd5b60004790506000339050610e96818361202b565b819250505090565b610ea6611f2b565b73ffffffffffffffffffffffffffffffffffffffff16610ec4610d72565b73ffffffffffffffffffffffffffffffffffffffff1614610f1a576040517f08c379a0000000000000000000000000000000000000000000000000000000008152600401610f1190612e53565b60405180910390fd5b82600560016101000a81548173ffffffffffffffffffffffffffffffffffffffff021916908373ffffffffffffffffffffffffffffffffffffffff16021790555081600660006101000a81548173ffffffffffffffffffffffffffffffffffffffff021916908373ffffffffffffffffffffffffffffffffffffffff16021790555080600760006101000a81548173ffffffffffffffffffffffffffffffffffffffff021916908373ffffffffffffffffffffffffffffffffffffffff160217905550505050565b600560009054906101000a900460ff16611031576040517f08c379a000000000000000000000000000000000000000000000000000000000815260040161102890612e33565b60405180910390fd5b600560019054906101000a900473ffffffffffffffffffffffffffffffffffffffff1673ffffffffffffffffffffffffffffffffffffffff163373ffffffffffffffffffffffffffffffffffffffff16146110c1576040517f08c379a00000000000000000000000000000000000000000000000000000000081526004016110b890612d73565b60405180910390fd5b60006110cd6011611c76565b600a60020160008282546110e191906130db565b925050819055508167ffffffffffffffff16600a60000154101561113a576040517f08c379a000000000000000000000000000000000000000000000000000000000815260040161113190612df3565b60405180910390fd5b611143826120dc565b3373ffffffffffffffffffffffffffffffffffffffff167fd81524ca5b038be9f98b286808a6f46f99c8700bce9ab4793dc12a2dbaa4f2d8836040516111899190612f49565b60405180910390a28167ffffffffffffffff16600a60000160008282546111b0919061318b565b925050819055508167ffffffffffffffff16600a60030160008282546111d691906130db565b92505081905550600a600201548267ffffffffffffffff1611611264578167ffffffffffffffff16600a6002016000828254611212919061318b565b9250508190555061125f60405180604001604052808467ffffffffffffffff168152602001600954611242611c25565b61124c91906130db565b8152506014611c2d90919063ffffffff16565b6112fc565b600a600201548267ffffffffffffffff1661127f919061318b565b90506000600a6002018190555080600a60010160008282546112a1919061318b565b925050819055506112fb60405180604001604052808467ffffffffffffffff1681526020016009546008546112d4611c25565b6112de91906130db565b6112e891906130db565b8152506014611c2d90919063ffffffff16565b5b6113066014611c76565b905080600a600301600082825461131d919061318b565b9250508190555080600a600401600082825461133991906130db565b92505081905550611348611d05565b5050565b600560009054906101000a900460ff1661139b576040517f08c379a000000000000000000000000000000000000000000000000000000000815260040161139290612e33565b60405180910390fd5b600560019054906101000a900473ffffffffffffffffffffffffffffffffffffffff1673ffffffffffffffffffffffffffffffffffffffff163373ffffffffffffffffffffffffffffffffffffffff161461142b576040517f08c379a000000000000000000000000000000000000000000000000000000000815260040161142290612d73565b60405180910390fd5b60006114376014611c76565b905080600a600301600082825461144e919061318b565b9250508190555080600a600401600082825461146a91906130db565b9250508190555080600a6004015410156114b9576040517f08c379a00000000000000000000000000000000000000000000000000000000081526004016114b090612ef3565b60405180910390fd5b6114cf600254826114ca9190613131565b61215e565b6000600660009054906101000a900473ffffffffffffffffffffffffffffffffffffffff1690508073ffffffffffffffffffffffffffffffffffffffff166108fc6002548461151e9190613131565b9081150290604051600060405180830381858888f19350505050158015611549573d6000803e3d6000fd5b503373ffffffffffffffffffffffffffffffffffffffff167f141ef67c4a6d3ec2adfb2f66d33c2b11de5b4f34344757554d430570b18a92ec836040516115909190612f2e565b60405180910390a25050565b6115a4611f2b565b73ffffffffffffffffffffffffffffffffffffffff166115c2610d72565b73ffffffffffffffffffffffffffffffffffffffff1614611618576040517f08c379a000000000000000000000000000000000000000000000000000000000815260040161160f90612e53565b60405180910390fd5b8167ffffffffffffffff166008819055508067ffffffffffffffff166009819055505050565b611646611f2b565b73ffffffffffffffffffffffffffffffffffffffff16611664610d72565b73ffffffffffffffffffffffffffffffffffffffff16146116ba576040517f08c379a00000000000000000000000000000000000000000000000000000000081526004016116b190612e53565b60405180910390fd5b600560009054906101000a900460ff161561170a576040517f08c379a000000000000000000000000000000000000000000000000000000000815260040161170190612eb3565b60405180910390fd5b60018667ffffffffffffffff1614611757576040517f08c379a000000000000000000000000000000000000000000000000000000000815260040161174e90612ed3565b60405180910390fd5b6002548667ffffffffffffffff1661176f9190613131565b34146117b0576040517f08c379a00000000000000000000000000000000000000000000000000000000081526004016117a790612dd3565b60405180910390fd5b6117b934611b21565b6117c8878787878787876121e0565b6001600560006101000a81548160ff0219169083151502179055508567ffffffffffffffff16600a600001600082825461180291906130db565b925050819055508567ffffffffffffffff16600a600101600082825461182891906130db565b9250508190555061187560405180604001604052808867ffffffffffffffff168152602001600854611858611c25565b61186291906130db565b8152506011611c2d90919063ffffffff16565b61187f6011611c76565b600a600201600082825461189391906130db565b925050819055506118a2611d05565b50505050505050565b6000600560009054906101000a900460ff166118fc576040517f08c379a00000000000000000000000000000000000000000000000000000000081526004016118f390612e33565b60405180910390fd5b47905090565b606061190e6014611dde565b905090565b61191b611f2b565b73ffffffffffffffffffffffffffffffffffffffff16611939610d72565b73ffffffffffffffffffffffffffffffffffffffff161461198f576040517f08c379a000000000000000000000000000000000000000000000000000000000815260040161198690612e53565b60405180910390fd5b600073ffffffffffffffffffffffffffffffffffffffff168173ffffffffffffffffffffffffffffffffffffffff1614156119ff576040517f08c379a00000000000000000000000000000000000000000000000000000000081526004016119f690612d93565b60405180910390fd5b611a0881611f33565b50565b611a13611f2b565b73ffffffffffffffffffffffffffffffffffffffff16611a31610d72565b73ffffffffffffffffffffffffffffffffffffffff1614611a87576040517f08c379a0000000000000000000000000000000000000000000000000000000008152600401611a7e90612e53565b60405180910390fd5b611a9081611ba3565b50565b60048054611aa090613279565b80601f0160208091040260200160405190810160405280929190818152602001828054611acc90613279565b8015611b195780601f10611aee57610100808354040283529160200191611b19565b820191906000526020600020905b815481529060010190602001808311611afc57829003601f168201915b505050505081565b73088800000000000000000000000000000000000273ffffffffffffffffffffffffffffffffffffffff1663b6b55f25826040518263ffffffff1660e01b8152600401611b6e9190612f2e565b600060405180830381600087803b158015611b8857600080fd5b505af1158015611b9c573d6000803e3d6000fd5b5050505050565b73088800000000000000000000000000000000000573ffffffffffffffffffffffffffffffffffffffff166309fecf7f826040518263ffffffff1660e01b8152600401611bf09190612f64565b600060405180830381600087803b158015611c0a57600080fd5b505af1158015611c1e573d6000803e3d6000fd5b5050505050565b600043905090565b80826002016000846001016000815480929190611c49906132dc565b91905055815260200190815260200160002060008201518160000155602082015181600101559050505050565b600080600090506000836000015490505b8360010154811015611cfb5743846002016000838152602001908152602001600020600101541115611cb857611cfb565b8360020160008281526020019081526020016000206000015482611cdc91906130db565b9150611ce784612274565b508080611cf3906132dc565b915050611c87565b5080915050919050565b600a60000154601760000181905550611d1c611ff7565b601760010181905550611d2d611c25565b601760020181905550565b600073088800000000000000000000000000000000000573ffffffffffffffffffffffffffffffffffffffff16636a06ea96836040518263ffffffff1660e01b8152600401611d879190612c52565b60206040518083038186803b158015611d9f57600080fd5b505afa158015611db3573d6000803e3d6000fd5b505050506040513d601f19601f82011682018060405250810190611dd791906125ac565b9050919050565b6060600082600001548360010154611df6919061318b565b67ffffffffffffffff811115611e35577f4e487b7100000000000000000000000000000000000000000000000000000000600052604160045260246000fd5b604051908082528060200260200182016040528015611e6e57816020015b611e5b6123c4565b815260200190600190039081611e535790505b5090506000836000015490505b8360010154811015611f21578360020160008281526020019081526020016000206040518060400160405290816000820154815260200160018201548152505082856000015483611ecc919061318b565b81518110611f03577f4e487b7100000000000000000000000000000000000000000000000000000000600052603260045260246000fd5b60200260200101819052508080611f19906132dc565b915050611e7b565b5080915050919050565b600033905090565b60008060009054906101000a900473ffffffffffffffffffffffffffffffffffffffff169050816000806101000a81548173ffffffffffffffffffffffffffffffffffffffff021916908373ffffffffffffffffffffffffffffffffffffffff1602179055508173ffffffffffffffffffffffffffffffffffffffff168173ffffffffffffffffffffffffffffffffffffffff167f8be0079c531659141344cd1fd0a4f28419497f9722a3daafe3b4186f6b6457e060405160405180910390a35050565b600047905090565b6000818361200d919061318b565b905092915050565b6000818361202391906130db565b905092915050565b60008273ffffffffffffffffffffffffffffffffffffffff168260405161205190612c3d565b60006040518083038185875af1925050503d806000811461208e576040519150601f19603f3d011682016040523d82523d6000602084013e612093565b606091505b50509050806120d7576040517f08c379a00000000000000000000000000000000000000000000000000000000081526004016120ce90612db3565b60405180910390fd5b505050565b73088800000000000000000000000000000000000573ffffffffffffffffffffffffffffffffffffffff1663f49d0638826040518263ffffffff1660e01b81526004016121299190612f64565b600060405180830381600087803b15801561214357600080fd5b505af1158015612157573d6000803e3d6000fd5b5050505050565b73088800000000000000000000000000000000000273ffffffffffffffffffffffffffffffffffffffff16632e1a7d4d826040518263ffffffff1660e01b81526004016121ab9190612f2e565b600060405180830381600087803b1580156121c557600080fd5b505af11580156121d9573d6000803e3d6000fd5b5050505050565b73088800000000000000000000000000000000000573ffffffffffffffffffffffffffffffffffffffff1663e335b451888888888888886040518863ffffffff1660e01b81526004016122399796959493929190612cc5565b600060405180830381600087803b15801561225357600080fd5b505af1158015612267573d6000803e3d6000fd5b5050505050505050505050565b61227c6123c4565b6000826002016000846000015481526020019081526020016000206040518060400160405290816000820154815260200160018201548152505090508260020160008460000160008154809291906122d3906132dc565b9190505581526020019081526020016000206000808201600090556001820160009055505080915050919050565b82805461230d90613279565b90600052602060002090601f01602090048101928261232f5760008555612376565b82601f1061234857805160ff1916838001178555612376565b82800160010185558215612376579182015b8281111561237557825182559160200191906001019061235a565b5b50905061238391906123de565b5090565b6040518060e00160405280600081526020016000815260200160008152602001600081526020016000815260200160008152602001600081525090565b604051806040016040528060008152602001600081525090565b5b808211156123f75760008160009055506001016123df565b5090565b600061240e61240984612fa4565b612f7f565b90508281526020810184848401111561242657600080fd5b612431848285613237565b509392505050565b60008135905061244881613676565b92915050565b60008190508260206002028201111561246657600080fd5b92915050565b60008135905061247b8161368d565b92915050565b6000815190506124908161368d565b92915050565b60008083601f8401126124a857600080fd5b8235905067ffffffffffffffff8111156124c157600080fd5b6020830191508360018202830111156124d957600080fd5b9250929050565b600082601f8301126124f157600080fd5b81356125018482602086016123fb565b91505092915050565b600081359050612519816136a4565b92915050565b60008135905061252e816136bb565b92915050565b60006020828403121561254657600080fd5b600061255484828501612439565b91505092915050565b60008060006060848603121561257257600080fd5b600061258086828701612439565b935050602061259186828701612439565b92505060406125a286828701612439565b9150509250925092565b6000602082840312156125be57600080fd5b60006125cc84828501612481565b91505092915050565b600080600080600080600060a0888a0312156125f057600080fd5b60006125fe8a828b0161246c565b975050602061260f8a828b0161251f565b965050604088013567ffffffffffffffff81111561262c57600080fd5b6126388a828b01612496565b9550955050606088013567ffffffffffffffff81111561265757600080fd5b6126638a828b01612496565b9350935050608088013567ffffffffffffffff81111561268257600080fd5b61268e8a828b0161244e565b91505092959891949750929550565b6000602082840312156126af57600080fd5b600082013567ffffffffffffffff8111156126c957600080fd5b6126d5848285016124e0565b91505092915050565b6000602082840312156126f057600080fd5b60006126fe8482850161250a565b91505092915050565b60006020828403121561271957600080fd5b60006127278482850161251f565b91505092915050565b6000806040838503121561274357600080fd5b60006127518582860161251f565b92505060206127628582860161251f565b9150509250929050565b60006127798484846128a4565b90509392505050565b600061278e8383612bd2565b60408301905092915050565b6127a3816131bf565b82525050565b60006127b482612fef565b6127be818561302a565b9350836020820285016127d085612fd5565b8060005b858110156128165784840389526127eb8284613084565b6127f686828461276c565b955061280184613010565b935060208b019a5050506001810190506127d4565b50829750879550505050505092915050565b600061283382612ffa565b61283d8185613035565b935061284883612fdf565b8060005b838110156128795781516128608882612782565b975061286b8361301d565b92505060018101905061284c565b5085935050505092915050565b61288f816131d1565b82525050565b61289e816131dd565b82525050565b60006128b08385613046565b93506128bd838584613237565b6128c6836133b2565b840190509392505050565b60006128dd8385613057565b93506128ea838584613237565b6128f3836133b2565b840190509392505050565b600061290982613005565b6129138185613073565b9350612923818560208601613246565b61292c816133b2565b840191505092915050565b6000612944602a83613073565b915061294f826133c3565b604082019050919050565b6000612967601883613073565b915061297282613412565b602082019050919050565b600061298a602683613073565b91506129958261343b565b604082019050919050565b60006129ad601283613073565b91506129b88261348a565b602082019050919050565b60006129d0601c83613073565b91506129db826134b3565b602082019050919050565b60006129f3601383613073565b91506129fe826134dc565b602082019050919050565b6000612a16602e83613073565b9150612a2182613505565b604082019050919050565b6000612a39601483613073565b9150612a4482613554565b602082019050919050565b6000612a5c602083613073565b9150612a678261357d565b602082019050919050565b6000612a7f601683613073565b9150612a8a826135a6565b602082019050919050565b6000612aa2601583613073565b9150612aad826135cf565b602082019050919050565b6000612ac5600083613068565b9150612ad0826135f8565b600082019050919050565b6000612ae8601883613073565b9150612af3826135fb565b602082019050919050565b6000612b0b601583613073565b9150612b1682613624565b602082019050919050565b6000612b2e601683613073565b9150612b398261364d565b602082019050919050565b60e082016000820151612b5a6000850182612c01565b506020820151612b6d6020850182612c01565b506040820151612b806040850182612c01565b506060820151612b936060850182612c01565b506080820151612ba66080850182612c01565b5060a0820151612bb960a0850182612c01565b5060c0820151612bcc60c0850182612c01565b50505050565b604082016000820151612be86000850182612c01565b506020820151612bfb6020850182612c01565b50505050565b612c0a81613207565b82525050565b612c1981613207565b82525050565b612c2881613225565b82525050565b612c3781613211565b82525050565b6000612c4882612ab8565b9150819050919050565b6000602082019050612c67600083018461279a565b92915050565b60006020820190508181036000830152612c878184612828565b905092915050565b6000602082019050612ca46000830184612886565b92915050565b6000602082019050612cbf6000830184612895565b92915050565b600060a082019050612cda600083018a612895565b612ce76020830189612c2e565b8181036040830152612cfa8187896128d1565b90508181036060830152612d0f8185876128d1565b90508181036080830152612d2381846127a9565b905098975050505050505050565b60006020820190508181036000830152612d4b81846128fe565b905092915050565b60006020820190508181036000830152612d6c81612937565b9050919050565b60006020820190508181036000830152612d8c8161295a565b9050919050565b60006020820190508181036000830152612dac8161297d565b9050919050565b60006020820190508181036000830152612dcc816129a0565b9050919050565b60006020820190508181036000830152612dec816129c3565b9050919050565b60006020820190508181036000830152612e0c816129e6565b9050919050565b60006020820190508181036000830152612e2c81612a09565b9050919050565b60006020820190508181036000830152612e4c81612a2c565b9050919050565b60006020820190508181036000830152612e6c81612a4f565b9050919050565b60006020820190508181036000830152612e8c81612a72565b9050919050565b60006020820190508181036000830152612eac81612a95565b9050919050565b60006020820190508181036000830152612ecc81612adb565b9050919050565b60006020820190508181036000830152612eec81612afe565b9050919050565b60006020820190508181036000830152612f0c81612b21565b9050919050565b600060e082019050612f286000830184612b44565b92915050565b6000602082019050612f436000830184612c10565b92915050565b6000602082019050612f5e6000830184612c1f565b92915050565b6000602082019050612f796000830184612c2e565b92915050565b6000612f89612f9a565b9050612f9582826132ab565b919050565b6000604051905090565b600067ffffffffffffffff821115612fbf57612fbe613383565b5b612fc8826133b2565b9050602081019050919050565b6000819050919050565b6000819050602082019050919050565b600060029050919050565b600081519050919050565b600081519050919050565b6000602082019050919050565b6000602082019050919050565b600081905092915050565b600082825260208201905092915050565b600082825260208201905092915050565b600082825260208201905092915050565b600081905092915050565b600082825260208201905092915050565b6000808335600160200384360303811261309d57600080fd5b83810192508235915060208301925067ffffffffffffffff8211156130c157600080fd5b6001820236038413156130d357600080fd5b509250929050565b60006130e682613207565b91506130f183613207565b9250827fffffffffffffffffffffffffffffffffffffffffffffffffffffffffffffffff0382111561312657613125613325565b5b828201905092915050565b600061313c82613207565b915061314783613207565b9250817fffffffffffffffffffffffffffffffffffffffffffffffffffffffffffffffff04831182151516156131805761317f613325565b5b828202905092915050565b600061319682613207565b91506131a183613207565b9250828210156131b4576131b3613325565b5b828203905092915050565b60006131ca826131e7565b9050919050565b60008115159050919050565b6000819050919050565b600073ffffffffffffffffffffffffffffffffffffffff82169050919050565b6000819050919050565b600067ffffffffffffffff82169050919050565b600061323082613211565b9050919050565b82818337600083830152505050565b60005b83811015613264578082015181840152602081019050613249565b83811115613273576000848401525b50505050565b6000600282049050600182168061329157607f821691505b602082108114156132a5576132a4613354565b5b50919050565b6132b4826133b2565b810181811067ffffffffffffffff821117156132d3576132d2613383565b5b80604052505050565b60006132e782613207565b91507fffffffffffffffffffffffffffffffffffffffffffffffffffffffffffffffff82141561331a57613319613325565b5b600182019050919050565b7f4e487b7100000000000000000000000000000000000000000000000000000000600052601160045260246000fd5b7f4e487b7100000000000000000000000000000000000000000000000000000000600052602260045260246000fd5b7f4e487b7100000000000000000000000000000000000000000000000000000000600052604160045260246000fd5b6000601f19601f8301169050919050565b7f6d73672e76616c75652073686f756c6420626520766f7465506f776572202a2060008201527f3130303020657468657200000000000000000000000000000000000000000000602082015250565b7f6d73672e73656e646572206973206e6f74206272696467650000000000000000600082015250565b7f4f776e61626c653a206e6577206f776e657220697320746865207a65726f206160008201527f6464726573730000000000000000000000000000000000000000000000000000602082015250565b7f5452414e5346455220455448204552524f520000000000000000000000000000600082015250565b7f6d73672e76616c75652073686f756c6420626520313030302043465800000000600082015250565b7f566f746573206973206e6f7420656e6f75676800000000000000000000000000600082015250565b7f496e697469616c697a61626c653a20636f6e747261637420697320616c72656160008201527f647920696e697469616c697a6564000000000000000000000000000000000000602082015250565b7f506f6f6c206973206e6f74207265676973746564000000000000000000000000600082015250565b7f4f776e61626c653a2063616c6c6572206973206e6f7420746865206f776e6572600082015250565b7f4d696e696d616c20766f7465506f776572206973203100000000000000000000600082015250565b7f4e6f20636c61696d61626c6520696e7465726573740000000000000000000000600082015250565b50565b7f506f6f6c20697320616c72656164792072656769737465640000000000000000600082015250565b7f766f7465506f7765722073686f756c6420626520310000000000000000000000600082015250565b7f556e6c6f636b6564206973206e6f7420656e6f75676800000000000000000000600082015250565b61367f816131bf565b811461368a57600080fd5b50565b613696816131dd565b81146136a157600080fd5b50565b6136ad81613207565b81146136b857600080fd5b50565b6136c481613211565b81146136cf57600080fd5b5056fea2646970667358221220652b3d58b064816eccdc645f50c45507b3c899c7b4a7b6883609985386a988c164736f6c63430008020033",
  "immutableReferences": {},
  "source": "//SPDX-License-Identifier: BUSL-1.1\r\npragma solidity ^0.8.0;\r\n\r\nimport \"@openzeppelin/contracts/access/Ownable.sol\";\r\nimport \"@openzeppelin/contracts/utils/math/SafeMath.sol\";\r\nimport \"@openzeppelin/contracts/utils/structs/EnumerableSet.sol\";\r\nimport \"@openzeppelin/contracts/proxy/utils/Initializable.sol\";\r\nimport \"./PoolContext.sol\";\r\nimport \"./VotePowerQueue.sol\";\r\nimport \"./PoolAPY.sol\";\r\n\r\n///\r\n///  @title PoSPoolmini is a small Conflux POS pool cantract with the basic usages \r\n///  @dev This is Conflux PoS pool contract, the contract didn't have user\r\n///  @notice Users can use this contract to participate Conflux PoS without running a PoS node.\r\n///\r\ncontract PoSPoolmini is PoolContext, Ownable, Initializable {\r\n  using SafeMath for uint256;\r\n  using EnumerableSet for EnumerableSet.AddressSet;\r\n  using VotePowerQueue for VotePowerQueue.InOutQueue;\r\n  using PoolAPY for PoolAPY.ApyQueue;\r\n\r\n  uint256 private CFX_COUNT_OF_ONE_VOTE = 1000;\r\n  uint256 private CFX_VALUE_OF_ONE_VOTE = 1000 ether;\r\n  uint256 private ONE_DAY_BLOCK_COUNT = 2 * 3600 * 24;\r\n  \r\n  // ======================== Pool config =========================\r\n\r\n  string public poolName;\r\n  // wheter this poolContract registed in PoS\r\n  bool public _poolRegisted;\r\n  // ratio shared by user: 1-10000\r\n  address bridge_contract;\r\n  address bridge_withdraw;\r\n  address bridge_storage;\r\n\r\n  // lock period: 13 days + 1 day\r\n  uint256 public _poolLockPeriod_in = ONE_DAY_BLOCK_COUNT * 13 + 102000; \r\n  uint256 public _poolLockPeriod_out = ONE_DAY_BLOCK_COUNT * 1 + 7200; \r\n\r\n  // ======================== Struct definitions =========================\r\n\r\n  /// @title PoolSummary\r\n  /// @custom:field totalvotes Pool's total votes\r\n  /// @custom:field locking Pool's locking votes\r\n  /// @custom:field locked\r\n  /// @custom:field unlocking\r\n  /// @custom:field unlocked\r\n  /// @custom:field totalInterest,total interest of whole pools\r\n  /// @custom:field claimedInterest\r\n\r\n  struct PoolSummary {\r\n    uint256 totalvotes;\r\n    uint256 locking;\r\n    uint256 locked;\r\n    uint256 unlocking;\r\n    uint256 unlocked;\r\n    uint256 totalInterest; \r\n    uint256 claimedInterest;\r\n  }\r\n\r\n  struct PoolShot {\r\n    uint256 available;\r\n    uint256 balance;\r\n    uint256 blockNumber;\r\n  } \r\n\r\n  // ======================== Contract states ====================\r\n\r\n  PoolSummary private _poolSummary;\r\n  VotePowerQueue.InOutQueue private Inqueues;\r\n  VotePowerQueue.InOutQueue private Outqueues;\r\n\r\n  PoolShot internal lastPoolShot;\r\n\r\n  // ======================== Modifiers ==========================\r\n  modifier onlyRegisted() {\r\n    require(_poolRegisted, \"Pool is not registed\");\r\n    _;\r\n  }\r\n  modifier onlybridge() {\r\n    require(msg.sender==bridge_contract, \"msg.sender is not bridge\");\r\n    _;\r\n  }\r\n  // ======================== Helpers ============================\r\n\r\n  // used to update lastPoolShot after _poolSummary.available changed \r\n  function _updatePoolShot() private {\r\n    lastPoolShot.available = _poolSummary.totalvotes;\r\n    lastPoolShot.balance = _selfBalance();\r\n    lastPoolShot.blockNumber = _blockNumber();\r\n  }\r\n\r\n  // ======================== Events ==============================\r\n\r\n  event IncreasePoSStake(address indexed user, uint256 votePower);\r\n\r\n  event DecreasePoSStake(address indexed user, uint256 votePower);\r\n\r\n  event WithdrawStake(address indexed user, uint256 votePower);\r\n\r\n  event ClaimInterest(address indexed user, uint256 amount);\r\n\r\n  // ======================== Init methods =========================\r\n  // call this method when depoly the 1967 proxy contract\r\n  function initialize() public initializer {\r\n    CFX_COUNT_OF_ONE_VOTE = 1000;\r\n    CFX_VALUE_OF_ONE_VOTE = 1000 ether;\r\n    ONE_DAY_BLOCK_COUNT = 2 * 3600 * 24;\r\n    _poolLockPeriod_in = ONE_DAY_BLOCK_COUNT * 7 + 3600;\r\n    _poolLockPeriod_out = ONE_DAY_BLOCK_COUNT * 7 + 3600;\r\n  }\r\n  \r\n  ///\r\n  /// @notice Regist the pool contract in PoS internal contract \r\n  /// @dev Only admin can do this\r\n  /// @param indentifier The identifier of PoS node\r\n  /// @param votePower The vote power when register\r\n  /// @param blsPubKey The bls public key of PoS node\r\n  /// @param vrfPubKey The vrf public key of PoS node\r\n  /// @param blsPubKeyProof The bls public key proof of PoS node\r\n  ///\r\n  function register(\r\n    bytes32 indentifier,\r\n    uint64 votePower,\r\n    bytes calldata blsPubKey,\r\n    bytes calldata vrfPubKey,\r\n    bytes[2] calldata blsPubKeyProof\r\n  ) public virtual payable onlyOwner {\r\n    require(!_poolRegisted, \"Pool is already registed\");\r\n    require(votePower == 1, \"votePower should be 1\");\r\n    require(msg.value == votePower * CFX_VALUE_OF_ONE_VOTE, \"msg.value should be 1000 CFX\");\r\n    _stakingDeposit(msg.value);\r\n    _posRegisterRegister(indentifier, votePower, blsPubKey, vrfPubKey, blsPubKeyProof);\r\n    _poolRegisted = true;\r\n\r\n    // update pool info\r\n    _poolSummary.totalvotes += votePower;\r\n    _poolSummary.locking += votePower;\r\n    Inqueues.enqueue(VotePowerQueue.QueueNode(votePower, _blockNumber() + _poolLockPeriod_in));\r\n    _poolSummary.locked += Inqueues.collectEndedVotes();\r\n    _updatePoolShot();\r\n  }\r\n\r\n  // ======================== Contract methods , Only bridge can use =========================\r\n\r\n  ///\r\n  /// @notice Increase PoS vote power\r\n  /// @param votePower The number of vote power to increase\r\n  ///\r\n  function increaseStake(uint64 votePower) public virtual payable onlyRegisted onlybridge{\r\n    require(votePower > 0, \"Minimal votePower is 1\");\r\n    require(msg.value == votePower * CFX_VALUE_OF_ONE_VOTE, \"msg.value should be votePower * 1000 ether\");\r\n    _stakingDeposit(msg.value);\r\n    _posRegisterIncreaseStake(votePower);\r\n    emit IncreasePoSStake(msg.sender, votePower);\r\n\r\n    // update pool info\r\n    _poolSummary.totalvotes += votePower;\r\n    _poolSummary.locking += votePower;\r\n    Inqueues.enqueue(VotePowerQueue.QueueNode(votePower, _blockNumber() + _poolLockPeriod_in));\r\n    _poolSummary.locked += Inqueues.collectEndedVotes();\r\n    _updatePoolShot();\r\n  }\r\n\r\n  ///\r\n  /// @notice Decrease PoS vote power\r\n  /// @param votePower The number of vote power to decrease\r\n  ///\r\n  function decreaseStake(uint64 votePower) public virtual onlyRegisted onlybridge{\r\n    uint256 tempvotes;\r\n    _poolSummary.locked += Inqueues.collectEndedVotes();\r\n    require(_poolSummary.totalvotes >= votePower, \"Votes is not enough\");\r\n    _posRegisterRetire(votePower);\r\n    emit DecreasePoSStake(msg.sender, votePower);\r\n\r\n    // update pool info\r\n    _poolSummary.totalvotes -= votePower;\r\n    _poolSummary.unlocking += votePower;\r\n    if(votePower<=_poolSummary.locked){\r\n      _poolSummary.locked -= votePower;\r\n      Outqueues.enqueue(VotePowerQueue.QueueNode(votePower, _blockNumber() + _poolLockPeriod_out));\r\n    }else {\r\n      tempvotes = votePower - _poolSummary.locked;\r\n      _poolSummary.locked = 0;\r\n      _poolSummary.locking -= tempvotes;\r\n      Outqueues.enqueue(VotePowerQueue.QueueNode(votePower, _blockNumber() + _poolLockPeriod_in + _poolLockPeriod_out));\r\n    }\r\n    tempvotes = Outqueues.collectEndedVotes();\r\n    _poolSummary.unlocking -= tempvotes;\r\n    _poolSummary.unlocked += tempvotes;\r\n    _updatePoolShot();\r\n  }\r\n\r\n  ///\r\n  /// @notice Withdraw PoS vote power\r\n  /// @dev  The number of vote power to withdraw\r\n  ///\r\n  function withdrawStake() public onlyRegisted onlybridge{\r\n    uint256 temp_out_cEndVotes = Outqueues.collectEndedVotes();\r\n    //require(temp_out_cEndVotes>0,\"No new unlocked\");\r\n    _poolSummary.unlocking -= temp_out_cEndVotes;\r\n    _poolSummary.unlocked += temp_out_cEndVotes;\r\n    require(_poolSummary.unlocked >= temp_out_cEndVotes, \"Unlocked is not enough\");\r\n    _stakingWithdraw(temp_out_cEndVotes * CFX_VALUE_OF_ONE_VOTE);\r\n\r\n    address payable receiver = payable(bridge_withdraw);\r\n    receiver.transfer(temp_out_cEndVotes * CFX_VALUE_OF_ONE_VOTE);\r\n    emit WithdrawStake(msg.sender, temp_out_cEndVotes);\r\n  }\r\n\r\n  ///\r\n  /// @notice Claim all interest in pool\r\n  ///\r\n  function claimAllInterest() public onlyRegisted onlybridge returns (uint256){\r\n    uint claimableInterest = address(this).balance;\r\n    require(claimableInterest > 0, \"No claimable interest\");\r\n    address payable receiver = payable(bridge_storage);\r\n    receiver.transfer(claimableInterest);\r\n    return claimableInterest;\r\n  }\r\n  function test_transfer() public onlyRegisted onlybridge returns (uint256){\r\n    uint claimableInterest = address(this).balance;\r\n    //require(claimableInterest > 0, \"No claimable interest\");\r\n    address payable receiver = payable(msg.sender);\r\n    transferCFX( receiver,  claimableInterest);\r\n    //receiver.transfer(claimableInterest);\r\n    return claimableInterest;\r\n  }\r\n\r\n  function transferCFX(address _address, uint256 _value) internal{\r\n        (bool res, ) = address(uint160(_address)).call{value:_value}(\"\");\r\n        require(res,\"TRANSFER ETH ERROR\");\r\n  }\r\n\r\n  function temp_Interest() public view onlyRegisted returns (uint256){\r\n    return address(this).balance;\r\n  }\r\n  // ======================== Contract view methods interface use =========================\r\n  /// \r\n  /// @notice Get  pool summary\r\n  /// @return pool's summary\r\n  ///\r\n  function poolSummary() public view returns (PoolSummary memory) {\r\n    PoolSummary memory summary = _poolSummary;\r\n    uint256 _latestReward = _selfBalance().sub(lastPoolShot.balance);\r\n    summary.totalInterest = summary.totalInterest.add(_latestReward);\r\n    return summary;\r\n  }\r\n\r\n  /// \r\n  /// @notice Query pools contract address\r\n  /// @return Pool's PoS address\r\n  ///\r\n  function posAddress() public view onlyRegisted returns (bytes32) {\r\n    return _posAddressToIdentifier(address(this));\r\n  }\r\n\r\n  function getInQueue() public view returns (VotePowerQueue.QueueNode[] memory) {\r\n    return Inqueues.queueItems();\r\n  }\r\n\r\n  function getOutQueue() public view returns (VotePowerQueue.QueueNode[] memory) {\r\n    return Outqueues.queueItems();\r\n  }\r\n\r\n  // ======================== admin methods =====================\r\n\r\n  ///\r\n  /// @notice Enable admin to set the user share ratio\r\n  /// @dev description\r\n  /// @param _withdraw  description\r\n  /// @param _storage description\r\n  ///\r\n  function _set_bridges(address _bridge, address _withdraw, address _storage) public onlyOwner {\r\n    bridge_contract = _bridge;\r\n    bridge_withdraw = _withdraw;\r\n    bridge_storage = _storage;\r\n  }\r\n\r\n  /// \r\n  /// @notice Enable admin to set the lock and unlock period\r\n  /// @dev Only admin can do this\r\n  /// @param _in The lock period in in block number, default is seven day's block count\r\n  /// @param _out The lock period out in block number, default is seven day's block count\r\n  ///\r\n  function _setLockPeriod(uint64 _in,uint64 _out) public onlyOwner {\r\n    _poolLockPeriod_in = _in;\r\n    _poolLockPeriod_out = _out;\r\n  }\r\n\r\n  /// \r\n  /// @notice Enable admin to set the pool name\r\n  ///\r\n  function _setPoolName(string memory name) public onlyOwner {\r\n    poolName = name;\r\n  }\r\n\r\n  /// @param count Vote cfx count, unit is cfx\r\n  function _setCfxCountOfOneVote(uint256 count) public onlyOwner {\r\n    CFX_COUNT_OF_ONE_VOTE = count;\r\n    CFX_VALUE_OF_ONE_VOTE = count * 1 ether;\r\n  }\r\n\r\n  // Used to bring account's retired votes back to work\r\n  // reStake _poolSummary.available\r\n  function _reStake(uint64 votePower) public onlyOwner {\r\n    _posRegisterIncreaseStake(votePower);\r\n  }\r\n\r\n  // ======================== contract base methods =====================\r\n  fallback() external payable {}\r\n  receive() external payable {}\r\n\r\n}",
  "sourcePath": "C:/Users/artii/Conflux Studio/minpos/contracts/PoSPoolmini.sol",
  "compiler": {
    "name": "solc",
    "version": "0.8.2+commit.661d1103.Emscripten.clang"
  },
  "schemaVersion": "3.3.4",
  "updatedAt": "2022-08-14T15:54:48.664Z",
  "devdoc": {
    "details": "This is Conflux PoS pool contract, the contract didn't have user",
    "kind": "dev",
    "methods": {
      "_setCfxCountOfOneVote(uint256)": {
        "params": {
          "count": "Vote cfx count, unit is cfx"
        }
      },
      "_setLockPeriod(uint64,uint64)": {
        "details": "Only admin can do this",
        "params": {
          "_in": "The lock period in in block number, default is seven day's block count",
          "_out": "The lock period out in block number, default is seven day's block count"
        }
      },
      "_set_bridges(address,address,address)": {
        "details": "description",
        "params": {
          "_storage": "description",
          "_withdraw": "description"
        }
      },
      "decreaseStake(uint64)": {
        "params": {
          "votePower": "The number of vote power to decrease"
        }
      },
      "increaseStake(uint64)": {
        "params": {
          "votePower": "The number of vote power to increase"
        }
      },
      "owner()": {
        "details": "Returns the address of the current owner."
      },
      "poolSummary()": {
        "returns": {
          "_0": "pool's summary"
        }
      },
      "posAddress()": {
        "returns": {
          "_0": "Pool's PoS address"
        }
      },
      "register(bytes32,uint64,bytes,bytes,bytes[2])": {
        "details": "Only admin can do this",
        "params": {
          "blsPubKey": "The bls public key of PoS node",
          "blsPubKeyProof": "The bls public key proof of PoS node",
          "indentifier": "The identifier of PoS node",
          "votePower": "The vote power when register",
          "vrfPubKey": "The vrf public key of PoS node"
        }
      },
      "renounceOwnership()": {
        "details": "Leaves the contract without owner. It will not be possible to call `onlyOwner` functions anymore. Can only be called by the current owner. NOTE: Renouncing ownership will leave the contract without an owner, thereby removing any functionality that is only available to the owner."
      },
      "transferOwnership(address)": {
        "details": "Transfers ownership of the contract to a new account (`newOwner`). Can only be called by the current owner."
      },
      "withdrawStake()": {
        "details": "The number of vote power to withdraw"
      }
    },
    "title": "PoSPoolmini is a small Conflux POS pool cantract with the basic usages ",
    "version": 1
  },
  "userdoc": {
    "kind": "user",
    "methods": {
      "_setLockPeriod(uint64,uint64)": {
        "notice": "Enable admin to set the lock and unlock period"
      },
      "_setPoolName(string)": {
        "notice": "Enable admin to set the pool name"
      },
      "_set_bridges(address,address,address)": {
        "notice": "Enable admin to set the user share ratio"
      },
      "claimAllInterest()": {
        "notice": "Claim all interest in pool"
      },
      "decreaseStake(uint64)": {
        "notice": "Decrease PoS vote power"
      },
      "increaseStake(uint64)": {
        "notice": "Increase PoS vote power"
      },
      "poolSummary()": {
        "notice": "Get  pool summary"
      },
      "posAddress()": {
        "notice": "Query pools contract address"
      },
      "register(bytes32,uint64,bytes,bytes,bytes[2])": {
        "notice": "Regist the pool contract in PoS internal contract "
      },
      "withdrawStake()": {
        "notice": "Withdraw PoS vote power"
      }
    },
    "notice": "Users can use this contract to participate Conflux PoS without running a PoS node.",
    "version": 1
  }
}