{
  "contractName": "Proxy1967",
  "abi": [
    {
      "inputs": [
        {
          "internalType": "address",
          "name": "logic",
          "type": "address"
        },
        {
          "internalType": "bytes",
          "name": "data",
          "type": "bytes"
        }
      ],
      "stateMutability": "nonpayable",
      "type": "constructor"
    },
    {
      "anonymous": false,
      "inputs": [
        {
          "indexed": false,
          "internalType": "address",
          "name": "previousAdmin",
          "type": "address"
        },
        {
          "indexed": false,
          "internalType": "address",
          "name": "newAdmin",
          "type": "address"
        }
      ],
      "name": "AdminChanged",
      "type": "event"
    },
    {
      "anonymous": false,
      "inputs": [
        {
          "indexed": true,
          "internalType": "address",
          "name": "beacon",
          "type": "address"
        }
      ],
      "name": "BeaconUpgraded",
      "type": "event"
    },
    {
      "anonymous": false,
      "inputs": [
        {
          "indexed": true,
          "internalType": "address",
          "name": "previousOwner",
          "type": "address"
        },
        {
          "indexed": true,
          "internalType": "address",
          "name": "newOwner",
          "type": "address"
        }
      ],
      "name": "OwnershipTransferred",
      "type": "event"
    },
    {
      "anonymous": false,
      "inputs": [
        {
          "indexed": true,
          "internalType": "address",
          "name": "implementation",
          "type": "address"
        }
      ],
      "name": "Upgraded",
      "type": "event"
    },
    {
      "stateMutability": "payable",
      "type": "fallback"
    },
    {
      "inputs": [],
      "name": "owner",
      "outputs": [
        {
          "internalType": "address",
          "name": "",
          "type": "address"
        }
      ],
      "stateMutability": "view",
      "type": "function"
    },
    {
      "inputs": [],
      "name": "renounceOwnership",
      "outputs": [],
      "stateMutability": "nonpayable",
      "type": "function"
    },
    {
      "inputs": [
        {
          "internalType": "address",
          "name": "newOwner",
          "type": "address"
        }
      ],
      "name": "transferOwnership",
      "outputs": [],
      "stateMutability": "nonpayable",
      "type": "function"
    },
    {
      "stateMutability": "payable",
      "type": "receive"
    },
    {
      "inputs": [],
      "name": "implementation",
      "outputs": [
        {
          "internalType": "address",
          "name": "",
          "type": "address"
        }
      ],
      "stateMutability": "view",
      "type": "function"
    },
    {
      "inputs": [
        {
          "internalType": "address",
          "name": "newImplementation",
          "type": "address"
        }
      ],
      "name": "upgradeTo",
      "outputs": [],
      "stateMutability": "nonpayable",
      "type": "function"
    }
  ],
  "bytecode": "0x60806040523480156200001157600080fd5b506040516200158b3803806200158b83398181016040528101906200003791906200056d565b818160017f360894a13ba1a3210667c828492db98dca3e2076cc3735a920a3ca505d382bbd60001c6200006b91906200079f565b60001b7f360894a13ba1a3210667c828492db98dca3e2076cc3735a920a3ca505d382bbc60001b14620000c7577f4e487b7100000000000000000000000000000000000000000000000000000000600052600160045260246000fd5b620000db828260006200010560201b60201c565b5050620000fd620000f16200014860201b60201c565b6200015060201b60201c565b5050620009ab565b62000116836200021460201b60201c565b600082511180620001245750805b1562000143576200014183836200026b60201b620003801760201c565b505b505050565b600033905090565b60008060009054906101000a900473ffffffffffffffffffffffffffffffffffffffff169050816000806101000a81548173ffffffffffffffffffffffffffffffffffffffff021916908373ffffffffffffffffffffffffffffffffffffffff1602179055508173ffffffffffffffffffffffffffffffffffffffff168173ffffffffffffffffffffffffffffffffffffffff167f8be0079c531659141344cd1fd0a4f28419497f9722a3daafe3b4186f6b6457e060405160405180910390a35050565b6200022581620002a160201b60201c565b8073ffffffffffffffffffffffffffffffffffffffff167fbc7cd75a20ee27fd9adebab32041f755214dbc6bffa90cc0225b39da2e5c2d3b60405160405180910390a250565b606062000299838360405180606001604052806027815260200162001564602791396200037760201b60201c565b905092915050565b620002b7816200045b60201b620003ad1760201c565b620002f9576040517f08c379a0000000000000000000000000000000000000000000000000000000008152600401620002f090620006ca565b60405180910390fd5b80620003337f360894a13ba1a3210667c828492db98dca3e2076cc3735a920a3ca505d382bbc60001b6200046e60201b620003c01760201c565b60000160006101000a81548173ffffffffffffffffffffffffffffffffffffffff021916908373ffffffffffffffffffffffffffffffffffffffff16021790555050565b60606200038a846200045b60201b60201c565b620003cc576040517f08c379a0000000000000000000000000000000000000000000000000000000008152600401620003c390620006ec565b60405180910390fd5b6000808573ffffffffffffffffffffffffffffffffffffffff1685604051620003f691906200068d565b600060405180830381855af49150503d806000811462000433576040519150601f19603f3d011682016040523d82523d6000602084013e62000438565b606091505b5091509150620004508282866200047860201b60201c565b925050509392505050565b600080823b905060008111915050919050565b6000819050919050565b606083156200048a57829050620004dd565b6000835111156200049e5782518084602001fd5b816040517f08c379a0000000000000000000000000000000000000000000000000000000008152600401620004d49190620006a6565b60405180910390fd5b9392505050565b6000620004fb620004f58462000737565b6200070e565b9050828152602081018484840111156200051457600080fd5b6200052184828562000818565b509392505050565b6000815190506200053a8162000991565b92915050565b600082601f8301126200055257600080fd5b815162000564848260208601620004e4565b91505092915050565b600080604083850312156200058157600080fd5b6000620005918582860162000529565b925050602083015167ffffffffffffffff811115620005af57600080fd5b620005bd8582860162000540565b9150509250929050565b6000620005d4826200076d565b620005e0818562000783565b9350620005f281856020860162000818565b80840191505092915050565b60006200060b8262000778565b6200061781856200078e565b93506200062981856020860162000818565b6200063481620008e2565b840191505092915050565b60006200064e602d836200078e565b91506200065b82620008f3565b604082019050919050565b6000620006756026836200078e565b9150620006828262000942565b604082019050919050565b60006200069b8284620005c7565b915081905092915050565b60006020820190508181036000830152620006c28184620005fe565b905092915050565b60006020820190508181036000830152620006e5816200063f565b9050919050565b60006020820190508181036000830152620007078162000666565b9050919050565b60006200071a6200072d565b90506200072882826200084e565b919050565b6000604051905090565b600067ffffffffffffffff821115620007555762000754620008b3565b5b6200076082620008e2565b9050602081019050919050565b600081519050919050565b600081519050919050565b600081905092915050565b600082825260208201905092915050565b6000620007ac826200080e565b9150620007b9836200080e565b925082821015620007cf57620007ce62000884565b5b828203905092915050565b6000620007e782620007ee565b9050919050565b600073ffffffffffffffffffffffffffffffffffffffff82169050919050565b6000819050919050565b60005b83811015620008385780820151818401526020810190506200081b565b8381111562000848576000848401525b50505050565b6200085982620008e2565b810181811067ffffffffffffffff821117156200087b576200087a620008b3565b5b80604052505050565b7f4e487b7100000000000000000000000000000000000000000000000000000000600052601160045260246000fd5b7f4e487b7100000000000000000000000000000000000000000000000000000000600052604160045260246000fd5b6000601f19601f8301169050919050565b7f455243313936373a206e657720696d706c656d656e746174696f6e206973206e60008201527f6f74206120636f6e747261637400000000000000000000000000000000000000602082015250565b7f416464726573733a2064656c65676174652063616c6c20746f206e6f6e2d636f60008201527f6e74726163740000000000000000000000000000000000000000000000000000602082015250565b6200099c81620007da565b8114620009a857600080fd5b50565b610ba980620009bb6000396000f3fe60806040526004361061004e5760003560e01c80633659cfe6146100675780635c60da1b14610090578063715018a6146100bb5780638da5cb5b146100d2578063f2fde38b146100fd5761005d565b3661005d5761005b610126565b005b610065610126565b005b34801561007357600080fd5b5061008e60048036038101906100899190610775565b610140565b005b34801561009c57600080fd5b506100a56101c8565b6040516100b291906108ba565b60405180910390f35b3480156100c757600080fd5b506100d06101d7565b005b3480156100de57600080fd5b506100e761025f565b6040516100f491906108ba565b60405180910390f35b34801561010957600080fd5b50610124600480360381019061011f9190610775565b610288565b005b61012e6103ca565b61013e6101396103cc565b6103db565b565b610148610401565b73ffffffffffffffffffffffffffffffffffffffff1661016661025f565b73ffffffffffffffffffffffffffffffffffffffff16146101bc576040517f08c379a00000000000000000000000000000000000000000000000000000000081526004016101b390610937565b60405180910390fd5b6101c581610409565b50565b60006101d26103cc565b905090565b6101df610401565b73ffffffffffffffffffffffffffffffffffffffff166101fd61025f565b73ffffffffffffffffffffffffffffffffffffffff1614610253576040517f08c379a000000000000000000000000000000000000000000000000000000000815260040161024a90610937565b60405180910390fd5b61025d6000610458565b565b60008060009054906101000a900473ffffffffffffffffffffffffffffffffffffffff16905090565b610290610401565b73ffffffffffffffffffffffffffffffffffffffff166102ae61025f565b73ffffffffffffffffffffffffffffffffffffffff1614610304576040517f08c379a00000000000000000000000000000000000000000000000000000000081526004016102fb90610937565b60405180910390fd5b600073ffffffffffffffffffffffffffffffffffffffff168173ffffffffffffffffffffffffffffffffffffffff161415610374576040517f08c379a000000000000000000000000000000000000000000000000000000000815260040161036b906108f7565b60405180910390fd5b61037d81610458565b50565b60606103a58383604051806060016040528060278152602001610b4d6027913961051c565b905092915050565b600080823b905060008111915050919050565b6000819050919050565b565b60006103d66105e9565b905090565b3660008037600080366000845af43d6000803e80600081146103fc573d6000f35b3d6000fd5b600033905090565b61041281610640565b8073ffffffffffffffffffffffffffffffffffffffff167fbc7cd75a20ee27fd9adebab32041f755214dbc6bffa90cc0225b39da2e5c2d3b60405160405180910390a250565b60008060009054906101000a900473ffffffffffffffffffffffffffffffffffffffff169050816000806101000a81548173ffffffffffffffffffffffffffffffffffffffff021916908373ffffffffffffffffffffffffffffffffffffffff1602179055508173ffffffffffffffffffffffffffffffffffffffff168173ffffffffffffffffffffffffffffffffffffffff167f8be0079c531659141344cd1fd0a4f28419497f9722a3daafe3b4186f6b6457e060405160405180910390a35050565b6060610527846103ad565b610566576040517f08c379a000000000000000000000000000000000000000000000000000000000815260040161055d90610957565b60405180910390fd5b6000808573ffffffffffffffffffffffffffffffffffffffff168560405161058e91906108a3565b600060405180830381855af49150503d80600081146105c9576040519150601f19603f3d011682016040523d82523d6000602084013e6105ce565b606091505b50915091506105de8282866106f9565b925050509392505050565b60006106177f360894a13ba1a3210667c828492db98dca3e2076cc3735a920a3ca505d382bbc60001b6103c0565b60000160009054906101000a900473ffffffffffffffffffffffffffffffffffffffff16905090565b610649816103ad565b610688576040517f08c379a000000000000000000000000000000000000000000000000000000000815260040161067f90610917565b60405180910390fd5b806106b57f360894a13ba1a3210667c828492db98dca3e2076cc3735a920a3ca505d382bbc60001b6103c0565b60000160006101000a81548173ffffffffffffffffffffffffffffffffffffffff021916908373ffffffffffffffffffffffffffffffffffffffff16021790555050565b6060831561070957829050610759565b60008351111561071c5782518084602001fd5b816040517f08c379a000000000000000000000000000000000000000000000000000000000815260040161075091906108d5565b60405180910390fd5b9392505050565b60008135905061076f81610b35565b92915050565b60006020828403121561078757600080fd5b600061079584828501610760565b91505092915050565b6107a7816109a9565b82525050565b60006107b882610977565b6107c2818561098d565b93506107d28185602086016109db565b80840191505092915050565b60006107e982610982565b6107f38185610998565b93506108038185602086016109db565b61080c81610a0e565b840191505092915050565b6000610824602683610998565b915061082f82610a1f565b604082019050919050565b6000610847602d83610998565b915061085282610a6e565b604082019050919050565b600061086a602083610998565b915061087582610abd565b602082019050919050565b600061088d602683610998565b915061089882610ae6565b604082019050919050565b60006108af82846107ad565b915081905092915050565b60006020820190506108cf600083018461079e565b92915050565b600060208201905081810360008301526108ef81846107de565b905092915050565b6000602082019050818103600083015261091081610817565b9050919050565b600060208201905081810360008301526109308161083a565b9050919050565b600060208201905081810360008301526109508161085d565b9050919050565b6000602082019050818103600083015261097081610880565b9050919050565b600081519050919050565b600081519050919050565b600081905092915050565b600082825260208201905092915050565b60006109b4826109bb565b9050919050565b600073ffffffffffffffffffffffffffffffffffffffff82169050919050565b60005b838110156109f95780820151818401526020810190506109de565b83811115610a08576000848401525b50505050565b6000601f19601f8301169050919050565b7f4f776e61626c653a206e6577206f776e657220697320746865207a65726f206160008201527f6464726573730000000000000000000000000000000000000000000000000000602082015250565b7f455243313936373a206e657720696d706c656d656e746174696f6e206973206e60008201527f6f74206120636f6e747261637400000000000000000000000000000000000000602082015250565b7f4f776e61626c653a2063616c6c6572206973206e6f7420746865206f776e6572600082015250565b7f416464726573733a2064656c65676174652063616c6c20746f206e6f6e2d636f60008201527f6e74726163740000000000000000000000000000000000000000000000000000602082015250565b610b3e816109a9565b8114610b4957600080fd5b5056fe416464726573733a206c6f772d6c6576656c2064656c65676174652063616c6c206661696c6564a2646970667358221220a3061d2633c5cdf593004c2e3d016b3d1a9ab483adaaa49e83fef23a8fdd414e64736f6c63430008020033416464726573733a206c6f772d6c6576656c2064656c65676174652063616c6c206661696c6564",
  "immutableReferences": {},
  "source": "//SPDX-License-Identifier: Unlicense\r\npragma solidity ^0.8.0;\r\nimport \"@openzeppelin/contracts/proxy/ERC1967/ERC1967Proxy.sol\";\r\nimport \"@openzeppelin/contracts/access/Ownable.sol\";\r\n\r\ncontract Proxy1967 is ERC1967Proxy, Ownable  {\r\n  // initialize() - \"0x8129fc1c\"\r\n  constructor(address logic, bytes memory data) ERC1967Proxy(logic, data) {}\r\n\r\n  function implementation() public view returns (address) {\r\n    return _implementation();\r\n  }\r\n\r\n  function upgradeTo(address newImplementation) public onlyOwner {\r\n    _upgradeTo(newImplementation);\r\n  }\r\n}",
  "sourcePath": "C:/Users/artii/Conflux Studio/minpos/contracts/eSpace/Proxy1967.sol",
  "compiler": {
    "name": "solc",
    "version": "0.8.2+commit.661d1103.Emscripten.clang"
  },
  "schemaVersion": "3.3.4",
  "updatedAt": "2022-08-14T15:54:48.879Z",
  "devdoc": {
    "kind": "dev",
    "methods": {
      "owner()": {
        "details": "Returns the address of the current owner."
      },
      "renounceOwnership()": {
        "details": "Leaves the contract without owner. It will not be possible to call `onlyOwner` functions anymore. Can only be called by the current owner. NOTE: Renouncing ownership will leave the contract without an owner, thereby removing any functionality that is only available to the owner."
      },
      "transferOwnership(address)": {
        "details": "Transfers ownership of the contract to a new account (`newOwner`). Can only be called by the current owner."
      }
    },
    "version": 1
  },
  "userdoc": {
    "kind": "user",
    "methods": {},
    "version": 1
  }
}