{
  "contractName": "XETdistribute",
  "abi": [
    {
      "anonymous": false,
      "inputs": [
        {
          "indexed": true,
          "internalType": "address",
          "name": "previousOwner",
          "type": "address"
        },
        {
          "indexed": true,
          "internalType": "address",
          "name": "newOwner",
          "type": "address"
        }
      ],
      "name": "OwnershipTransferred",
      "type": "event"
    },
    {
      "inputs": [],
      "name": "owner",
      "outputs": [
        {
          "internalType": "address",
          "name": "",
          "type": "address"
        }
      ],
      "stateMutability": "view",
      "type": "function"
    },
    {
      "inputs": [],
      "name": "renounceOwnership",
      "outputs": [],
      "stateMutability": "nonpayable",
      "type": "function"
    },
    {
      "inputs": [
        {
          "internalType": "address",
          "name": "newOwner",
          "type": "address"
        }
      ],
      "name": "transferOwnership",
      "outputs": [],
      "stateMutability": "nonpayable",
      "type": "function"
    },
    {
      "inputs": [
        {
          "internalType": "address",
          "name": "_xpool",
          "type": "address"
        },
        {
          "internalType": "address",
          "name": "_XET",
          "type": "address"
        },
        {
          "internalType": "address",
          "name": "_Sto",
          "type": "address"
        }
      ],
      "name": "set_useful_addrs",
      "outputs": [
        {
          "internalType": "address",
          "name": "",
          "type": "address"
        }
      ],
      "stateMutability": "nonpayable",
      "type": "function"
    },
    {
      "inputs": [],
      "name": "get_useful_addrs",
      "outputs": [
        {
          "internalType": "address",
          "name": "",
          "type": "address"
        },
        {
          "internalType": "address",
          "name": "",
          "type": "address"
        },
        {
          "internalType": "address",
          "name": "",
          "type": "address"
        }
      ],
      "stateMutability": "view",
      "type": "function"
    },
    {
      "inputs": [
        {
          "internalType": "uint256",
          "name": "_msgvalue",
          "type": "uint256"
        }
      ],
      "name": "estimate_in",
      "outputs": [
        {
          "internalType": "uint256",
          "name": "",
          "type": "uint256"
        }
      ],
      "stateMutability": "view",
      "type": "function"
    },
    {
      "inputs": [
        {
          "internalType": "address",
          "name": "_address",
          "type": "address"
        },
        {
          "internalType": "uint256",
          "name": "_msgvalue",
          "type": "uint256"
        }
      ],
      "name": "distribute_in",
      "outputs": [],
      "stateMutability": "nonpayable",
      "type": "function"
    },
    {
      "inputs": [
        {
          "internalType": "uint256",
          "name": "_msgvalue",
          "type": "uint256"
        }
      ],
      "name": "estimate_out",
      "outputs": [
        {
          "internalType": "uint256",
          "name": "",
          "type": "uint256"
        }
      ],
      "stateMutability": "view",
      "type": "function"
    },
    {
      "inputs": [
        {
          "internalType": "address",
          "name": "_address",
          "type": "address"
        },
        {
          "internalType": "uint256",
          "name": "_msgvalue",
          "type": "uint256"
        }
      ],
      "name": "distribute_out",
      "outputs": [],
      "stateMutability": "nonpayable",
      "type": "function"
    }
  ],
  "bytecode": "0x608060405234801561001057600080fd5b5061002d61002261003260201b60201c565b61003a60201b60201c565b6100fe565b600033905090565b60008060009054906101000a900473ffffffffffffffffffffffffffffffffffffffff169050816000806101000a81548173ffffffffffffffffffffffffffffffffffffffff021916908373ffffffffffffffffffffffffffffffffffffffff1602179055508173ffffffffffffffffffffffffffffffffffffffff168173ffffffffffffffffffffffffffffffffffffffff167f8be0079c531659141344cd1fd0a4f28419497f9722a3daafe3b4186f6b6457e060405160405180910390a35050565b6116fa8061010d6000396000f3fe608060405234801561001057600080fd5b50600436106100925760003560e01c8063715018a611610066578063715018a6146101335780638da5cb5b1461013d5780639dd040cb1461015b578063b82d50351461018b578063f2fde38b146101a757610092565b8062a85bec146100975780630f59a493146100b35780630f7c59f7146100e357806313fcc16f14610103575b600080fd5b6100b160048036038101906100ac9190611017565b6101c3565b005b6100cd60048036038101906100c8919061107c565b6104b9565b6040516100da9190611230565b60405180910390f35b6100eb6105ae565b6040516100fa93929190611170565b60405180910390f35b61011d60048036038101906101189190610fc8565b610627565b60405161012a9190611155565b60405180910390f35b61013b61076f565b005b6101456107f7565b6040516101529190611155565b60405180910390f35b6101756004803603810190610170919061107c565b610820565b6040516101829190611230565b60405180910390f35b6101a560048036038101906101a09190611017565b610c0f565b005b6101c160048036038101906101bc9190610f9f565b610d5b565b005b600160009054906101000a900473ffffffffffffffffffffffffffffffffffffffff1673ffffffffffffffffffffffffffffffffffffffff163373ffffffffffffffffffffffffffffffffffffffff1614610253576040517f08c379a000000000000000000000000000000000000000000000000000000000815260040161024a906111f0565b60405180910390fd5b6000600260009054906101000a900473ffffffffffffffffffffffffffffffffffffffff1673ffffffffffffffffffffffffffffffffffffffff166370a08231306040518263ffffffff1660e01b81526004016102b09190611155565b60206040518083038186803b1580156102c857600080fd5b505afa1580156102dc573d6000803e3d6000fd5b505050506040513d601f19601f8201168201806040525081019061030091906110a5565b9050692a5a058fc295ed0000008111156103fc57600260009054906101000a900473ffffffffffffffffffffffffffffffffffffffff1673ffffffffffffffffffffffffffffffffffffffff1663a9059cbb600360009054906101000a900473ffffffffffffffffffffffffffffffffffffffff16692a5a058fc295ed0000008461038b91906114ae565b6040518363ffffffff1660e01b81526004016103a89291906111a7565b602060405180830381600087803b1580156103c257600080fd5b505af11580156103d6573d6000803e3d6000fd5b505050506040513d601f19601f820116820180604052508101906103fa9190611053565b505b600260009054906101000a900473ffffffffffffffffffffffffffffffffffffffff1673ffffffffffffffffffffffffffffffffffffffff1663a9059cbb8461044485610820565b6040518363ffffffff1660e01b81526004016104619291906111a7565b602060405180830381600087803b15801561047b57600080fd5b505af115801561048f573d6000803e3d6000fd5b505050506040513d601f19601f820116820180604052508101906104b39190611053565b50505050565b600080600260009054906101000a900473ffffffffffffffffffffffffffffffffffffffff1673ffffffffffffffffffffffffffffffffffffffff166370a08231306040518263ffffffff1660e01b81526004016105179190611155565b60206040518083038186803b15801561052f57600080fd5b505afa158015610543573d6000803e3d6000fd5b505050506040513d601f19601f8201168201806040525081019061056791906110a5565b9050600061057f606485610e5390919063ffffffff16565b9050808211156105935780925050506105a9565b60008211156105a65781925050506105a9565b50505b919050565b6000806000600160009054906101000a900473ffffffffffffffffffffffffffffffffffffffff16600260009054906101000a900473ffffffffffffffffffffffffffffffffffffffff16600360009054906101000a900473ffffffffffffffffffffffffffffffffffffffff16925092509250909192565b6000610631610e69565b73ffffffffffffffffffffffffffffffffffffffff1661064f6107f7565b73ffffffffffffffffffffffffffffffffffffffff16146106a5576040517f08c379a000000000000000000000000000000000000000000000000000000000815260040161069c90611210565b60405180910390fd5b83600160006101000a81548173ffffffffffffffffffffffffffffffffffffffff021916908373ffffffffffffffffffffffffffffffffffffffff16021790555082600260006101000a81548173ffffffffffffffffffffffffffffffffffffffff021916908373ffffffffffffffffffffffffffffffffffffffff16021790555081600360006101000a81548173ffffffffffffffffffffffffffffffffffffffff021916908373ffffffffffffffffffffffffffffffffffffffff1602179055509392505050565b610777610e69565b73ffffffffffffffffffffffffffffffffffffffff166107956107f7565b73ffffffffffffffffffffffffffffffffffffffff16146107eb576040517f08c379a00000000000000000000000000000000000000000000000000000000081526004016107e290611210565b60405180910390fd5b6107f56000610e71565b565b60008060009054906101000a900473ffffffffffffffffffffffffffffffffffffffff16905090565b600080600260009054906101000a900473ffffffffffffffffffffffffffffffffffffffff1673ffffffffffffffffffffffffffffffffffffffff166370a08231306040518263ffffffff1660e01b815260040161087e9190611155565b60206040518083038186803b15801561089657600080fd5b505afa1580156108aa573d6000803e3d6000fd5b505050506040513d601f19601f820116820180604052508101906108ce91906110a5565b9050692a5a058fc295ed0000008111156108f057692a5a058fc295ed00000090505b600061092b69021e19e0c9bab240000061091d69021e19e0c9bab240000085610e5390919063ffffffff16565b610f3590919063ffffffff16565b8261093691906114ae565b9050600061096269021e19e0c9bab24000008684610954919061125c565b610e5390919063ffffffff16565b9050600080600080841115610a125761098e69021e19e0c9bab240000086610f3590919063ffffffff16565b69021e19e0c9bab24000006109a391906114ae565b9150610a006109e569021e19e0c9bab24000008589692a5a058fc295ed0000006109cd91906114ae565b6109d791906114ae565b610e5390919063ffffffff16565b600a6109f19190611336565b83610e5390919063ffffffff16565b83610a0b919061125c565b9250610a88565b610a6d610a5269021e19e0c9bab24000008589692a5a058fc295ed000000610a3a91906114ae565b610a4491906114ae565b610e5390919063ffffffff16565b600a610a5e9190611336565b89610e5390919063ffffffff16565b83610a78919061125c565b9250829650505050505050610c0a565b60005b848111610bd55784811015610b105769021e19e0c9bab24000009150610b02610ae769021e19e0c9bab2400000868a692a5a058fc295ed000000610acf91906114ae565b610ad991906114ae565b610e5390919063ffffffff16565b600a610af39190611336565b83610e5390919063ffffffff16565b84610b0d919061125c565b93505b84811415610bc257610b4169021e19e0c9bab2400000600187610b3391906114ae565b610f3590919063ffffffff16565b868a610b4d91906114ae565b610b5791906114ae565b9150610bb4610b9969021e19e0c9bab2400000868a692a5a058fc295ed000000610b8191906114ae565b610b8b91906114ae565b610e5390919063ffffffff16565b600a610ba59190611336565b83610e5390919063ffffffff16565b84610bbf919061125c565b93505b8080610bcd9061152a565b915050610a8b565b5082861115610bec57829650505050505050610c0a565b6000861115610c0357859650505050505050610c0a565b5050505050505b919050565b600160009054906101000a900473ffffffffffffffffffffffffffffffffffffffff1673ffffffffffffffffffffffffffffffffffffffff163373ffffffffffffffffffffffffffffffffffffffff1614610c9f576040517f08c379a0000000000000000000000000000000000000000000000000000000008152600401610c96906111f0565b60405180910390fd5b600260009054906101000a900473ffffffffffffffffffffffffffffffffffffffff1673ffffffffffffffffffffffffffffffffffffffff1663a9059cbb83610ce7846104b9565b6040518363ffffffff1660e01b8152600401610d049291906111a7565b602060405180830381600087803b158015610d1e57600080fd5b505af1158015610d32573d6000803e3d6000fd5b505050506040513d601f19601f82011682018060405250810190610d569190611053565b505050565b610d63610e69565b73ffffffffffffffffffffffffffffffffffffffff16610d816107f7565b73ffffffffffffffffffffffffffffffffffffffff1614610dd7576040517f08c379a0000000000000000000000000000000000000000000000000000000008152600401610dce90611210565b60405180910390fd5b600073ffffffffffffffffffffffffffffffffffffffff168173ffffffffffffffffffffffffffffffffffffffff161415610e47576040517f08c379a0000000000000000000000000000000000000000000000000000000008152600401610e3e906111d0565b60405180910390fd5b610e5081610e71565b50565b60008183610e6191906112b2565b905092915050565b600033905090565b60008060009054906101000a900473ffffffffffffffffffffffffffffffffffffffff169050816000806101000a81548173ffffffffffffffffffffffffffffffffffffffff021916908373ffffffffffffffffffffffffffffffffffffffff1602179055508173ffffffffffffffffffffffffffffffffffffffff168173ffffffffffffffffffffffffffffffffffffffff167f8be0079c531659141344cd1fd0a4f28419497f9722a3daafe3b4186f6b6457e060405160405180910390a35050565b60008183610f439190611454565b905092915050565b600081359050610f5a8161167f565b92915050565b600081519050610f6f81611696565b92915050565b600081359050610f84816116ad565b92915050565b600081519050610f99816116ad565b92915050565b600060208284031215610fb157600080fd5b6000610fbf84828501610f4b565b91505092915050565b600080600060608486031215610fdd57600080fd5b6000610feb86828701610f4b565b9350506020610ffc86828701610f4b565b925050604061100d86828701610f4b565b9150509250925092565b6000806040838503121561102a57600080fd5b600061103885828601610f4b565b925050602061104985828601610f75565b9150509250929050565b60006020828403121561106557600080fd5b600061107384828501610f60565b91505092915050565b60006020828403121561108e57600080fd5b600061109c84828501610f75565b91505092915050565b6000602082840312156110b757600080fd5b60006110c584828501610f8a565b91505092915050565b6110d7816114e2565b82525050565b60006110ea60268361124b565b91506110f5826115de565b604082019050919050565b600061110d600e8361124b565b91506111188261162d565b602082019050919050565b600061113060208361124b565b915061113b82611656565b602082019050919050565b61114f81611520565b82525050565b600060208201905061116a60008301846110ce565b92915050565b600060608201905061118560008301866110ce565b61119260208301856110ce565b61119f60408301846110ce565b949350505050565b60006040820190506111bc60008301856110ce565b6111c96020830184611146565b9392505050565b600060208201905081810360008301526111e9816110dd565b9050919050565b6000602082019050818103600083015261120981611100565b9050919050565b6000602082019050818103600083015261122981611123565b9050919050565b60006020820190506112456000830184611146565b92915050565b600082825260208201905092915050565b600061126782611520565b915061127283611520565b9250827fffffffffffffffffffffffffffffffffffffffffffffffffffffffffffffffff038211156112a7576112a6611573565b5b828201905092915050565b60006112bd82611520565b91506112c883611520565b9250826112d8576112d76115a2565b5b828204905092915050565b6000808291508390505b600185111561132d5780860481111561130957611308611573565b5b60018516156113185780820291505b8081029050611326856115d1565b94506112ed565b94509492505050565b600061134182611520565b915061134c83611520565b92506113797fffffffffffffffffffffffffffffffffffffffffffffffffffffffffffffffff8484611381565b905092915050565b600082611391576001905061144d565b8161139f576000905061144d565b81600181146113b557600281146113bf576113ee565b600191505061144d565b60ff8411156113d1576113d0611573565b5b8360020a9150848211156113e8576113e7611573565b5b5061144d565b5060208310610133831016604e8410600b84101617156114235782820a90508381111561141e5761141d611573565b5b61144d565b61143084848460016112e3565b9250905081840481111561144757611446611573565b5b81810290505b9392505050565b600061145f82611520565b915061146a83611520565b9250817fffffffffffffffffffffffffffffffffffffffffffffffffffffffffffffffff04831182151516156114a3576114a2611573565b5b828202905092915050565b60006114b982611520565b91506114c483611520565b9250828210156114d7576114d6611573565b5b828203905092915050565b60006114ed82611500565b9050919050565b60008115159050919050565b600073ffffffffffffffffffffffffffffffffffffffff82169050919050565b6000819050919050565b600061153582611520565b91507fffffffffffffffffffffffffffffffffffffffffffffffffffffffffffffffff82141561156857611567611573565b5b600182019050919050565b7f4e487b7100000000000000000000000000000000000000000000000000000000600052601160045260246000fd5b7f4e487b7100000000000000000000000000000000000000000000000000000000600052601260045260246000fd5b60008160011c9050919050565b7f4f776e61626c653a206e6577206f776e657220697320746865207a65726f206160008201527f6464726573730000000000000000000000000000000000000000000000000000602082015250565b7f4f6e6c792078706f6f6c20757365000000000000000000000000000000000000600082015250565b7f4f776e61626c653a2063616c6c6572206973206e6f7420746865206f776e6572600082015250565b611688816114e2565b811461169357600080fd5b50565b61169f816114f4565b81146116aa57600080fd5b50565b6116b681611520565b81146116c157600080fd5b5056fea2646970667358221220123f96cdb2fe1464c7825f732851fc6f9a920d65a62ae634edaa60d4ab22602664736f6c63430008020033",
  "immutableReferences": {},
  "source": "//SPDX-License-Identifier: BUSL-1.1\r\n\r\npragma solidity ^0.8.2;\r\nimport \"@openzeppelin/contracts/token/ERC20/ERC20.sol\";\r\nimport \"@openzeppelin/contracts/utils/math/SafeMath.sol\";\r\nimport \"@openzeppelin/contracts/access/Ownable.sol\";\r\n\r\ncontract XETdistribute is Ownable{\r\n    address xpool_addr;\r\n    address XET_address;\r\n    address Storage_room_addr;\r\n    using SafeMath for uint256;\r\n\r\n    modifier only_xpool() {\r\n        require(msg.sender == xpool_addr, \"Only xpool use\");\r\n        _;\r\n    }\r\n\r\n    function set_useful_addrs(address _xpool,address _XET, address _Sto) public onlyOwner returns (address) {\r\n        xpool_addr = _xpool;\r\n        XET_address = _XET;\r\n        Storage_room_addr = _Sto;\r\n    }\r\n    function get_useful_addrs() external view returns (address,address,address) {\r\n        //require(_address==msg.sender,'1');\r\n        return (xpool_addr,XET_address,Storage_room_addr);\r\n    }\r\n\r\n    function estimate_in(uint256 _msgvalue) public view returns(uint256){\r\n        uint256 temp_XET_num = ERC20(XET_address).balanceOf(address(this));\r\n        if (temp_XET_num > 200000 ether) {\r\n            temp_XET_num = 200000 ether;\r\n            //ERC20(XET_address).transfer(Storage_room_addr, temp_XET_num - 200000 ether);\r\n        }\r\n        uint256 temp_XET_stage = temp_XET_num-temp_XET_num.div(10000 ether).mul(10000 ether);\r\n        uint256 totalstage = (temp_XET_stage + _msgvalue).div(10000 ether);\r\n        uint256 XET_num_out;\r\n        uint256 temp_value;\r\n        uint256 temp_value2;\r\n        if(totalstage>0) {\r\n            temp_value = 10000 ether - temp_XET_stage.mul(10000 ether);\r\n            XET_num_out += temp_value.div(10**((200000 ether - temp_XET_num - XET_num_out).div(10000 ether)));\r\n        }\r\n        else{\r\n            XET_num_out += _msgvalue.div(10**((200000 ether - temp_XET_num - XET_num_out).div(10000 ether)));\r\n            return XET_num_out;\r\n        }\r\n        for (uint256 i = 0; i <= totalstage; i++) {\r\n            if(i<totalstage) {\r\n                temp_value2 = 10000 ether;\r\n                XET_num_out += temp_value2.div(10**((200000 ether - temp_XET_num - XET_num_out).div(10000 ether)));\r\n                }\r\n            if(i==totalstage) {\r\n                temp_value2 = _msgvalue - temp_XET_stage - (totalstage-1).mul(10000 ether);\r\n                XET_num_out += temp_value2.div(10**((200000 ether - temp_XET_num - XET_num_out).div(10000 ether)));\r\n                }\r\n        }\r\n        if (temp_XET_num > XET_num_out) {\r\n            return XET_num_out;\r\n            //ERC20(XET_address).transfer(_address, XET_num_out);\r\n        } else if (temp_XET_num > 0) {\r\n            return temp_XET_num;\r\n            //ERC20(XET_address).transfer(_address, temp_XET_num);\r\n        }\r\n    }\r\n\r\n    function distribute_in(address _address, uint256 _msgvalue)\r\n        external\r\n        only_xpool\r\n    {\r\n        uint256 temp_XET_num = ERC20(XET_address).balanceOf(address(this));\r\n        if (temp_XET_num > 200000 ether) {\r\n            ERC20(XET_address).transfer(Storage_room_addr, temp_XET_num - 200000 ether);\r\n        }\r\n        ERC20(XET_address).transfer(_address, estimate_in(_msgvalue));\r\n    }\r\n\r\n    function estimate_out(uint256 _msgvalue) public view returns(uint256)\r\n    {\r\n        uint256 temp_XET_num = ERC20(XET_address).balanceOf(address(this));\r\n        uint256 XET_num_out = _msgvalue.div(100);\r\n        if (temp_XET_num > XET_num_out) {\r\n            return XET_num_out;\r\n            //ERC20(XET_address).transfer(_address, XET_num_out);\r\n        } else if (temp_XET_num > 0) {\r\n            return temp_XET_num;\r\n            //ERC20(XET_address).transfer(_address, temp_XET_num);\r\n        }\r\n    }\r\n    function distribute_out(address _address, uint256 _msgvalue)\r\n        external\r\n        only_xpool\r\n    {\r\n        ERC20(XET_address).transfer(_address, estimate_out(_msgvalue));\r\n    }\r\n}\r\n",
  "sourcePath": "C:/Users/artii/Conflux Studio/minpos/contracts/eSpace/XETdistribute.sol",
  "compiler": {
    "name": "solc",
    "version": "0.8.2+commit.661d1103.Emscripten.clang"
  },
  "schemaVersion": "3.3.4",
  "updatedAt": "2022-08-13T07:16:09.168Z",
  "devdoc": {
    "kind": "dev",
    "methods": {
      "owner()": {
        "details": "Returns the address of the current owner."
      },
      "renounceOwnership()": {
        "details": "Leaves the contract without owner. It will not be possible to call `onlyOwner` functions anymore. Can only be called by the current owner. NOTE: Renouncing ownership will leave the contract without an owner, thereby removing any functionality that is only available to the owner."
      },
      "transferOwnership(address)": {
        "details": "Transfers ownership of the contract to a new account (`newOwner`). Can only be called by the current owner."
      }
    },
    "version": 1
  },
  "userdoc": {
    "kind": "user",
    "methods": {},
    "version": 1
  }
}