{
  "contractName": "PoSPoolmini",
  "abi": [
    {
      "anonymous": false,
      "inputs": [
        {
          "indexed": true,
          "internalType": "address",
          "name": "user",
          "type": "address"
        },
        {
          "indexed": false,
          "internalType": "uint256",
          "name": "amount",
          "type": "uint256"
        }
      ],
      "name": "ClaimInterest",
      "type": "event"
    },
    {
      "anonymous": false,
      "inputs": [
        {
          "indexed": true,
          "internalType": "address",
          "name": "user",
          "type": "address"
        },
        {
          "indexed": false,
          "internalType": "uint256",
          "name": "votePower",
          "type": "uint256"
        }
      ],
      "name": "DecreasePoSStake",
      "type": "event"
    },
    {
      "anonymous": false,
      "inputs": [
        {
          "indexed": true,
          "internalType": "address",
          "name": "user",
          "type": "address"
        },
        {
          "indexed": false,
          "internalType": "uint256",
          "name": "votePower",
          "type": "uint256"
        }
      ],
      "name": "IncreasePoSStake",
      "type": "event"
    },
    {
      "anonymous": false,
      "inputs": [
        {
          "indexed": true,
          "internalType": "address",
          "name": "previousOwner",
          "type": "address"
        },
        {
          "indexed": true,
          "internalType": "address",
          "name": "newOwner",
          "type": "address"
        }
      ],
      "name": "OwnershipTransferred",
      "type": "event"
    },
    {
      "anonymous": false,
      "inputs": [
        {
          "indexed": true,
          "internalType": "address",
          "name": "user",
          "type": "address"
        },
        {
          "indexed": false,
          "internalType": "uint256",
          "name": "votePower",
          "type": "uint256"
        }
      ],
      "name": "WithdrawStake",
      "type": "event"
    },
    {
      "stateMutability": "payable",
      "type": "fallback"
    },
    {
      "inputs": [],
      "name": "_poolLockPeriod_in",
      "outputs": [
        {
          "internalType": "uint256",
          "name": "",
          "type": "uint256"
        }
      ],
      "stateMutability": "view",
      "type": "function"
    },
    {
      "inputs": [],
      "name": "_poolLockPeriod_out",
      "outputs": [
        {
          "internalType": "uint256",
          "name": "",
          "type": "uint256"
        }
      ],
      "stateMutability": "view",
      "type": "function"
    },
    {
      "inputs": [],
      "name": "_poolRegisted",
      "outputs": [
        {
          "internalType": "bool",
          "name": "",
          "type": "bool"
        }
      ],
      "stateMutability": "view",
      "type": "function"
    },
    {
      "inputs": [],
      "name": "owner",
      "outputs": [
        {
          "internalType": "address",
          "name": "",
          "type": "address"
        }
      ],
      "stateMutability": "view",
      "type": "function"
    },
    {
      "inputs": [],
      "name": "poolName",
      "outputs": [
        {
          "internalType": "string",
          "name": "",
          "type": "string"
        }
      ],
      "stateMutability": "view",
      "type": "function"
    },
    {
      "inputs": [],
      "name": "renounceOwnership",
      "outputs": [],
      "stateMutability": "nonpayable",
      "type": "function"
    },
    {
      "inputs": [
        {
          "internalType": "address",
          "name": "newOwner",
          "type": "address"
        }
      ],
      "name": "transferOwnership",
      "outputs": [],
      "stateMutability": "nonpayable",
      "type": "function"
    },
    {
      "stateMutability": "payable",
      "type": "receive"
    },
    {
      "inputs": [],
      "name": "initialize",
      "outputs": [],
      "stateMutability": "nonpayable",
      "type": "function"
    },
    {
      "inputs": [
        {
          "internalType": "bytes32",
          "name": "indentifier",
          "type": "bytes32"
        },
        {
          "internalType": "uint64",
          "name": "votePower",
          "type": "uint64"
        },
        {
          "internalType": "bytes",
          "name": "blsPubKey",
          "type": "bytes"
        },
        {
          "internalType": "bytes",
          "name": "vrfPubKey",
          "type": "bytes"
        },
        {
          "internalType": "bytes[2]",
          "name": "blsPubKeyProof",
          "type": "bytes[2]"
        }
      ],
      "name": "register",
      "outputs": [],
      "stateMutability": "payable",
      "type": "function"
    },
    {
      "inputs": [
        {
          "internalType": "uint64",
          "name": "votePower",
          "type": "uint64"
        }
      ],
      "name": "increaseStake",
      "outputs": [],
      "stateMutability": "payable",
      "type": "function"
    },
    {
      "inputs": [
        {
          "internalType": "uint64",
          "name": "votePower",
          "type": "uint64"
        }
      ],
      "name": "decreaseStake",
      "outputs": [],
      "stateMutability": "nonpayable",
      "type": "function"
    },
    {
      "inputs": [],
      "name": "withdrawStake",
      "outputs": [],
      "stateMutability": "nonpayable",
      "type": "function"
    },
    {
      "inputs": [],
      "name": "claimAllInterest",
      "outputs": [
        {
          "internalType": "uint256",
          "name": "",
          "type": "uint256"
        }
      ],
      "stateMutability": "nonpayable",
      "type": "function"
    },
    {
      "inputs": [],
      "name": "test_transfer",
      "outputs": [
        {
          "internalType": "uint256",
          "name": "",
          "type": "uint256"
        }
      ],
      "stateMutability": "nonpayable",
      "type": "function"
    },
    {
      "inputs": [],
      "name": "temp_Interest",
      "outputs": [
        {
          "internalType": "uint256",
          "name": "",
          "type": "uint256"
        }
      ],
      "stateMutability": "view",
      "type": "function"
    },
    {
      "inputs": [],
      "name": "poolSummary",
      "outputs": [
        {
          "components": [
            {
              "internalType": "uint256",
              "name": "totalvotes",
              "type": "uint256"
            },
            {
              "internalType": "uint256",
              "name": "locking",
              "type": "uint256"
            },
            {
              "internalType": "uint256",
              "name": "locked",
              "type": "uint256"
            },
            {
              "internalType": "uint256",
              "name": "unlocking",
              "type": "uint256"
            },
            {
              "internalType": "uint256",
              "name": "unlocked",
              "type": "uint256"
            },
            {
              "internalType": "uint256",
              "name": "totalInterest",
              "type": "uint256"
            },
            {
              "internalType": "uint256",
              "name": "claimedInterest",
              "type": "uint256"
            }
          ],
          "internalType": "struct PoSPoolmini.PoolSummary",
          "name": "",
          "type": "tuple"
        }
      ],
      "stateMutability": "view",
      "type": "function"
    },
    {
      "inputs": [],
      "name": "posAddress",
      "outputs": [
        {
          "internalType": "bytes32",
          "name": "",
          "type": "bytes32"
        }
      ],
      "stateMutability": "view",
      "type": "function"
    },
    {
      "inputs": [],
      "name": "getInQueue",
      "outputs": [
        {
          "components": [
            {
              "internalType": "uint256",
              "name": "votePower",
              "type": "uint256"
            },
            {
              "internalType": "uint256",
              "name": "endBlock",
              "type": "uint256"
            }
          ],
          "internalType": "struct VotePowerQueue.QueueNode[]",
          "name": "",
          "type": "tuple[]"
        }
      ],
      "stateMutability": "view",
      "type": "function"
    },
    {
      "inputs": [],
      "name": "getOutQueue",
      "outputs": [
        {
          "components": [
            {
              "internalType": "uint256",
              "name": "votePower",
              "type": "uint256"
            },
            {
              "internalType": "uint256",
              "name": "endBlock",
              "type": "uint256"
            }
          ],
          "internalType": "struct VotePowerQueue.QueueNode[]",
          "name": "",
          "type": "tuple[]"
        }
      ],
      "stateMutability": "view",
      "type": "function"
    },
    {
      "inputs": [
        {
          "internalType": "address",
          "name": "_bridge",
          "type": "address"
        },
        {
          "internalType": "address",
          "name": "_withdraw",
          "type": "address"
        },
        {
          "internalType": "address",
          "name": "_storage",
          "type": "address"
        }
      ],
      "name": "set_bridges",
      "outputs": [],
      "stateMutability": "nonpayable",
      "type": "function"
    },
    {
      "inputs": [
        {
          "internalType": "uint64",
          "name": "_in",
          "type": "uint64"
        },
        {
          "internalType": "uint64",
          "name": "_out",
          "type": "uint64"
        }
      ],
      "name": "setLockPeriod",
      "outputs": [],
      "stateMutability": "nonpayable",
      "type": "function"
    },
    {
      "inputs": [
        {
          "internalType": "string",
          "name": "name",
          "type": "string"
        }
      ],
      "name": "setPoolName",
      "outputs": [],
      "stateMutability": "nonpayable",
      "type": "function"
    },
    {
      "inputs": [
        {
          "internalType": "uint256",
          "name": "count",
          "type": "uint256"
        }
      ],
      "name": "setCfxCountOfOneVote",
      "outputs": [],
      "stateMutability": "nonpayable",
      "type": "function"
    },
    {
      "inputs": [
        {
          "internalType": "uint64",
          "name": "votePower",
          "type": "uint64"
        }
      ],
      "name": "_reStake",
      "outputs": [],
      "stateMutability": "nonpayable",
      "type": "function"
    }
  ],
  "bytecode": "0x60806040526103e8600155683635c9adc5dea000006002556202a300600355610e106007600354620000329190620001c1565b6200003e919062000164565b600855610e106007600354620000559190620001c1565b62000061919062000164565b6009553480156200007157600080fd5b5062000092620000866200009860201b60201c565b620000a060201b60201c565b6200025b565b600033905090565b60008060009054906101000a900473ffffffffffffffffffffffffffffffffffffffff169050816000806101000a81548173ffffffffffffffffffffffffffffffffffffffff021916908373ffffffffffffffffffffffffffffffffffffffff1602179055508173ffffffffffffffffffffffffffffffffffffffff168173ffffffffffffffffffffffffffffffffffffffff167f8be0079c531659141344cd1fd0a4f28419497f9722a3daafe3b4186f6b6457e060405160405180910390a35050565b6000620001718262000222565b91506200017e8362000222565b9250827fffffffffffffffffffffffffffffffffffffffffffffffffffffffffffffffff03821115620001b657620001b56200022c565b5b828201905092915050565b6000620001ce8262000222565b9150620001db8362000222565b9250817fffffffffffffffffffffffffffffffffffffffffffffffffffffffffffffffff04831182151516156200021757620002166200022c565b5b828202905092915050565b6000819050919050565b7f4e487b7100000000000000000000000000000000000000000000000000000000600052601160045260246000fd5b61360d806200026b6000396000f3fe60806040526004361061014f5760003560e01c806396b6b59d116100b6578063e335b4511161006f578063e335b45114610409578063e73e183b14610425578063e7c8160314610450578063f2fde38b1461047b578063f313afaf146104a4578063f3466dfa146104cd57610156565b806396b6b59d146103215780639bdeb5aa1461034a5780639c45706d14610375578063beb99c1e146103a0578063bed9d861146103c9578063cddfe5c9146103e057610156565b806372b654241161010857806372b65424146102375780637571fcf61461026057806377c9d5931461028b5780638129fc1c146102b45780638270512f146102cb5780638da5cb5b146102f657610156565b806309fecf7f146101585780631764618c1461017457806332d5d7a51461019f5780634b1b45e6146101ca5780634db88eff146101f5578063715018a61461022057610156565b3661015657005b005b610172600480360381019061016d919061260c565b6104f8565b005b34801561018057600080fd5b5061018961079f565b6040516101969190612baf565b60405180910390f35b3480156101ab57600080fd5b506101b46107fe565b6040516101c19190612b72565b60405180910390f35b3480156101d657600080fd5b506101df61080f565b6040516101ec9190612b94565b60405180910390f35b34801561020157600080fd5b5061020a610822565b6040516102179190612e33565b60405180910390f35b34801561022c57600080fd5b50610235610828565b005b34801561024357600080fd5b5061025e600480360381019061025991906125a2565b6108b0565b005b34801561026c57600080fd5b50610275610946565b6040516102829190612e18565b60405180910390f35b34801561029757600080fd5b506102b260048036038101906102ad9190612635565b6109f0565b005b3480156102c057600080fd5b506102c9610a92565b005b3480156102d757600080fd5b506102e0610bd5565b6040516102ed9190612e33565b60405180910390f35b34801561030257600080fd5b5061030b610d74565b6040516103189190612b57565b60405180910390f35b34801561032d57600080fd5b50610348600480360381019061034391906125e3565b610d9d565b005b34801561035657600080fd5b5061035f610e3d565b60405161036c9190612e33565b60405180910390f35b34801561038157600080fd5b5061038a610e43565b6040516103979190612e33565b60405180910390f35b3480156103ac57600080fd5b506103c760048036038101906103c2919061260c565b610f40565b005b3480156103d557600080fd5b506103de6111af565b005b3480156103ec57600080fd5b5061040760048036038101906104029190612462565b6113ff565b005b610423600480360381019061041e91906124da565b611543565b005b34801561043157600080fd5b5061043a6117b0565b6040516104479190612e33565b60405180910390f35b34801561045c57600080fd5b50610465611807565b6040516104729190612b72565b60405180910390f35b34801561048757600080fd5b506104a2600480360381019061049d9190612439565b611818565b005b3480156104b057600080fd5b506104cb60048036038101906104c6919061260c565b611910565b005b3480156104d957600080fd5b506104e2611998565b6040516104ef9190612c36565b60405180910390f35b600560009054906101000a900460ff16610547576040517f08c379a000000000000000000000000000000000000000000000000000000000815260040161053e90612d18565b60405180910390fd5b600560019054906101000a900473ffffffffffffffffffffffffffffffffffffffff1673ffffffffffffffffffffffffffffffffffffffff163373ffffffffffffffffffffffffffffffffffffffff16146105d7576040517f08c379a00000000000000000000000000000000000000000000000000000000081526004016105ce90612c78565b60405180910390fd5b60008167ffffffffffffffff1611610624576040517f08c379a000000000000000000000000000000000000000000000000000000000815260040161061b90612d78565b60405180910390fd5b6002548167ffffffffffffffff1661063c9190613036565b341461067d576040517f08c379a000000000000000000000000000000000000000000000000000000000815260040161067490612c58565b60405180910390fd5b61068634611a26565b61068f81611aa8565b3373ffffffffffffffffffffffffffffffffffffffff167ff5ebfcde71acb15a758233f0c9ab25632209399b90a9209a4f2379ec5fcee89f826040516106d59190612e4e565b60405180910390a28067ffffffffffffffff16600a60000160008282546106fc9190612fe0565b925050819055508067ffffffffffffffff16600a60010160008282546107229190612fe0565b9250508190555061076f60405180604001604052808367ffffffffffffffff168152602001600854610752611b2a565b61075c9190612fe0565b8152506011611b3290919063ffffffff16565b6107796011611b7b565b600a600201600082825461078d9190612fe0565b9250508190555061079c611c0a565b50565b6000600560009054906101000a900460ff166107f0576040517f08c379a00000000000000000000000000000000000000000000000000000000081526004016107e790612d18565b60405180910390fd5b6107f930611c3d565b905090565b606061080a6011611ce3565b905090565b600560009054906101000a900460ff1681565b60085481565b610830611e30565b73ffffffffffffffffffffffffffffffffffffffff1661084e610d74565b73ffffffffffffffffffffffffffffffffffffffff16146108a4576040517f08c379a000000000000000000000000000000000000000000000000000000000815260040161089b90612d58565b60405180910390fd5b6108ae6000611e38565b565b6108b8611e30565b73ffffffffffffffffffffffffffffffffffffffff166108d6610d74565b73ffffffffffffffffffffffffffffffffffffffff161461092c576040517f08c379a000000000000000000000000000000000000000000000000000000000815260040161092390612d58565b60405180910390fd5b8060049080519060200190610942929190612206565b5050565b61094e61228c565b6000600a6040518060e0016040529081600082015481526020016001820154815260200160028201548152602001600382015481526020016004820154815260200160058201548152602001600682015481525050905060006109c66017600101546109b8611efc565b611f0490919063ffffffff16565b90506109df818360a00151611f1a90919063ffffffff16565b8260a0018181525050819250505090565b6109f8611e30565b73ffffffffffffffffffffffffffffffffffffffff16610a16610d74565b73ffffffffffffffffffffffffffffffffffffffff1614610a6c576040517f08c379a0000000000000000000000000000000000000000000000000000000008152600401610a6390612d58565b60405180910390fd5b8167ffffffffffffffff166008819055508067ffffffffffffffff166009819055505050565b600060159054906101000a900460ff1680610aba5750600060149054906101000a900460ff16155b610af9576040517f08c379a0000000000000000000000000000000000000000000000000000000008152600401610af090612cf8565b60405180910390fd5b60008060159054906101000a900460ff161590508015610b4a576001600060156101000a81548160ff0219169083151502179055506001600060146101000a81548160ff0219169083151502179055505b6103e8600181905550683635c9adc5dea000006002819055506202a300600381905550610e106007600354610b7f9190613036565b610b899190612fe0565b600881905550610e106007600354610ba19190613036565b610bab9190612fe0565b6009819055508015610bd25760008060156101000a81548160ff0219169083151502179055505b50565b6000600560009054906101000a900460ff16610c26576040517f08c379a0000000000000000000000000000000000000000000000000000000008152600401610c1d90612d18565b60405180910390fd5b600560019054906101000a900473ffffffffffffffffffffffffffffffffffffffff1673ffffffffffffffffffffffffffffffffffffffff163373ffffffffffffffffffffffffffffffffffffffff1614610cb6576040517f08c379a0000000000000000000000000000000000000000000000000000000008152600401610cad90612c78565b60405180910390fd5b600047905060008111610cfe576040517f08c379a0000000000000000000000000000000000000000000000000000000008152600401610cf590612d98565b60405180910390fd5b6000600760009054906101000a900473ffffffffffffffffffffffffffffffffffffffff1690508073ffffffffffffffffffffffffffffffffffffffff166108fc839081150290604051600060405180830381858888f19350505050158015610d6b573d6000803e3d6000fd5b50819250505090565b60008060009054906101000a900473ffffffffffffffffffffffffffffffffffffffff16905090565b610da5611e30565b73ffffffffffffffffffffffffffffffffffffffff16610dc3610d74565b73ffffffffffffffffffffffffffffffffffffffff1614610e19576040517f08c379a0000000000000000000000000000000000000000000000000000000008152600401610e1090612d58565b60405180910390fd5b80600181905550670de0b6b3a764000081610e349190613036565b60028190555050565b60095481565b6000600560009054906101000a900460ff16610e94576040517f08c379a0000000000000000000000000000000000000000000000000000000008152600401610e8b90612d18565b60405180910390fd5b600560019054906101000a900473ffffffffffffffffffffffffffffffffffffffff1673ffffffffffffffffffffffffffffffffffffffff163373ffffffffffffffffffffffffffffffffffffffff1614610f24576040517f08c379a0000000000000000000000000000000000000000000000000000000008152600401610f1b90612c78565b60405180910390fd5b60004790506000339050610f388183611f30565b819250505090565b600560009054906101000a900460ff16610f8f576040517f08c379a0000000000000000000000000000000000000000000000000000000008152600401610f8690612d18565b60405180910390fd5b600560019054906101000a900473ffffffffffffffffffffffffffffffffffffffff1673ffffffffffffffffffffffffffffffffffffffff163373ffffffffffffffffffffffffffffffffffffffff161461101f576040517f08c379a000000000000000000000000000000000000000000000000000000000815260040161101690612c78565b60405180910390fd5b6110296011611b7b565b600a600201600082825461103d9190612fe0565b925050819055508067ffffffffffffffff16600a600201541015611096576040517f08c379a000000000000000000000000000000000000000000000000000000000815260040161108d90612d38565b60405180910390fd5b61109f81611fe1565b3373ffffffffffffffffffffffffffffffffffffffff167fd81524ca5b038be9f98b286808a6f46f99c8700bce9ab4793dc12a2dbaa4f2d8826040516110e59190612e4e565b60405180910390a28067ffffffffffffffff16600a600001600082825461110c9190613090565b925050819055508067ffffffffffffffff16600a60030160008282546111329190612fe0565b9250508190555061117f60405180604001604052808367ffffffffffffffff168152602001600954611162611b2a565b61116c9190612fe0565b8152506014611b3290919063ffffffff16565b6111896014611b7b565b600a600401600082825461119d9190612fe0565b925050819055506111ac611c0a565b50565b600560009054906101000a900460ff166111fe576040517f08c379a00000000000000000000000000000000000000000000000000000000081526004016111f590612d18565b60405180910390fd5b600560019054906101000a900473ffffffffffffffffffffffffffffffffffffffff1673ffffffffffffffffffffffffffffffffffffffff163373ffffffffffffffffffffffffffffffffffffffff161461128e576040517f08c379a000000000000000000000000000000000000000000000000000000000815260040161128590612c78565b60405180910390fd5b600061129a6014611b7b565b905080600a60030160008282546112b19190613090565b9250508190555080600a60040160008282546112cd9190612fe0565b9250508190555080600a60040154101561131c576040517f08c379a000000000000000000000000000000000000000000000000000000000815260040161131390612df8565b60405180910390fd5b6113326002548261132d9190613036565b612063565b6000600660009054906101000a900473ffffffffffffffffffffffffffffffffffffffff1690508073ffffffffffffffffffffffffffffffffffffffff166108fc600254846113819190613036565b9081150290604051600060405180830381858888f193505050501580156113ac573d6000803e3d6000fd5b503373ffffffffffffffffffffffffffffffffffffffff167f141ef67c4a6d3ec2adfb2f66d33c2b11de5b4f34344757554d430570b18a92ec836040516113f39190612e33565b60405180910390a25050565b611407611e30565b73ffffffffffffffffffffffffffffffffffffffff16611425610d74565b73ffffffffffffffffffffffffffffffffffffffff161461147b576040517f08c379a000000000000000000000000000000000000000000000000000000000815260040161147290612d58565b60405180910390fd5b82600560016101000a81548173ffffffffffffffffffffffffffffffffffffffff021916908373ffffffffffffffffffffffffffffffffffffffff16021790555081600660006101000a81548173ffffffffffffffffffffffffffffffffffffffff021916908373ffffffffffffffffffffffffffffffffffffffff16021790555080600760006101000a81548173ffffffffffffffffffffffffffffffffffffffff021916908373ffffffffffffffffffffffffffffffffffffffff160217905550505050565b61154b611e30565b73ffffffffffffffffffffffffffffffffffffffff16611569610d74565b73ffffffffffffffffffffffffffffffffffffffff16146115bf576040517f08c379a00000000000000000000000000000000000000000000000000000000081526004016115b690612d58565b60405180910390fd5b600560009054906101000a900460ff161561160f576040517f08c379a000000000000000000000000000000000000000000000000000000000815260040161160690612db8565b60405180910390fd5b60018667ffffffffffffffff161461165c576040517f08c379a000000000000000000000000000000000000000000000000000000000815260040161165390612dd8565b60405180910390fd5b6002548667ffffffffffffffff166116749190613036565b34146116b5576040517f08c379a00000000000000000000000000000000000000000000000000000000081526004016116ac90612cd8565b60405180910390fd5b6116be34611a26565b6116cd878787878787876120e5565b6001600560006101000a81548160ff0219169083151502179055508567ffffffffffffffff16600a60000160008282546117079190612fe0565b925050819055508567ffffffffffffffff16600a600101600082825461172d9190612fe0565b9250508190555061177a60405180604001604052808867ffffffffffffffff16815260200160085461175d611b2a565b6117679190612fe0565b8152506011611b3290919063ffffffff16565b6117846011611b7b565b600a60020160008282546117989190612fe0565b925050819055506117a7611c0a565b50505050505050565b6000600560009054906101000a900460ff16611801576040517f08c379a00000000000000000000000000000000000000000000000000000000081526004016117f890612d18565b60405180910390fd5b47905090565b60606118136014611ce3565b905090565b611820611e30565b73ffffffffffffffffffffffffffffffffffffffff1661183e610d74565b73ffffffffffffffffffffffffffffffffffffffff1614611894576040517f08c379a000000000000000000000000000000000000000000000000000000000815260040161188b90612d58565b60405180910390fd5b600073ffffffffffffffffffffffffffffffffffffffff168173ffffffffffffffffffffffffffffffffffffffff161415611904576040517f08c379a00000000000000000000000000000000000000000000000000000000081526004016118fb90612c98565b60405180910390fd5b61190d81611e38565b50565b611918611e30565b73ffffffffffffffffffffffffffffffffffffffff16611936610d74565b73ffffffffffffffffffffffffffffffffffffffff161461198c576040517f08c379a000000000000000000000000000000000000000000000000000000000815260040161198390612d58565b60405180910390fd5b61199581611aa8565b50565b600480546119a59061317e565b80601f01602080910402602001604051908101604052809291908181526020018280546119d19061317e565b8015611a1e5780601f106119f357610100808354040283529160200191611a1e565b820191906000526020600020905b815481529060010190602001808311611a0157829003601f168201915b505050505081565b73088800000000000000000000000000000000000273ffffffffffffffffffffffffffffffffffffffff1663b6b55f25826040518263ffffffff1660e01b8152600401611a739190612e33565b600060405180830381600087803b158015611a8d57600080fd5b505af1158015611aa1573d6000803e3d6000fd5b5050505050565b73088800000000000000000000000000000000000573ffffffffffffffffffffffffffffffffffffffff166309fecf7f826040518263ffffffff1660e01b8152600401611af59190612e69565b600060405180830381600087803b158015611b0f57600080fd5b505af1158015611b23573d6000803e3d6000fd5b5050505050565b600043905090565b80826002016000846001016000815480929190611b4e906131e1565b91905055815260200190815260200160002060008201518160000155602082015181600101559050505050565b600080600090506000836000015490505b8360010154811015611c005743846002016000838152602001908152602001600020600101541115611bbd57611c00565b8360020160008281526020019081526020016000206000015482611be19190612fe0565b9150611bec84612179565b508080611bf8906131e1565b915050611b8c565b5080915050919050565b600a60000154601760000181905550611c21611efc565b601760010181905550611c32611b2a565b601760020181905550565b600073088800000000000000000000000000000000000573ffffffffffffffffffffffffffffffffffffffff16636a06ea96836040518263ffffffff1660e01b8152600401611c8c9190612b57565b60206040518083038186803b158015611ca457600080fd5b505afa158015611cb8573d6000803e3d6000fd5b505050506040513d601f19601f82011682018060405250810190611cdc91906124b1565b9050919050565b6060600082600001548360010154611cfb9190613090565b67ffffffffffffffff811115611d3a577f4e487b7100000000000000000000000000000000000000000000000000000000600052604160045260246000fd5b604051908082528060200260200182016040528015611d7357816020015b611d606122c9565b815260200190600190039081611d585790505b5090506000836000015490505b8360010154811015611e26578360020160008281526020019081526020016000206040518060400160405290816000820154815260200160018201548152505082856000015483611dd19190613090565b81518110611e08577f4e487b7100000000000000000000000000000000000000000000000000000000600052603260045260246000fd5b60200260200101819052508080611e1e906131e1565b915050611d80565b5080915050919050565b600033905090565b60008060009054906101000a900473ffffffffffffffffffffffffffffffffffffffff169050816000806101000a81548173ffffffffffffffffffffffffffffffffffffffff021916908373ffffffffffffffffffffffffffffffffffffffff1602179055508173ffffffffffffffffffffffffffffffffffffffff168173ffffffffffffffffffffffffffffffffffffffff167f8be0079c531659141344cd1fd0a4f28419497f9722a3daafe3b4186f6b6457e060405160405180910390a35050565b600047905090565b60008183611f129190613090565b905092915050565b60008183611f289190612fe0565b905092915050565b60008273ffffffffffffffffffffffffffffffffffffffff1682604051611f5690612b42565b60006040518083038185875af1925050503d8060008114611f93576040519150601f19603f3d011682016040523d82523d6000602084013e611f98565b606091505b5050905080611fdc576040517f08c379a0000000000000000000000000000000000000000000000000000000008152600401611fd390612cb8565b60405180910390fd5b505050565b73088800000000000000000000000000000000000573ffffffffffffffffffffffffffffffffffffffff1663f49d0638826040518263ffffffff1660e01b815260040161202e9190612e69565b600060405180830381600087803b15801561204857600080fd5b505af115801561205c573d6000803e3d6000fd5b5050505050565b73088800000000000000000000000000000000000273ffffffffffffffffffffffffffffffffffffffff16632e1a7d4d826040518263ffffffff1660e01b81526004016120b09190612e33565b600060405180830381600087803b1580156120ca57600080fd5b505af11580156120de573d6000803e3d6000fd5b5050505050565b73088800000000000000000000000000000000000573ffffffffffffffffffffffffffffffffffffffff1663e335b451888888888888886040518863ffffffff1660e01b815260040161213e9796959493929190612bca565b600060405180830381600087803b15801561215857600080fd5b505af115801561216c573d6000803e3d6000fd5b5050505050505050505050565b6121816122c9565b6000826002016000846000015481526020019081526020016000206040518060400160405290816000820154815260200160018201548152505090508260020160008460000160008154809291906121d8906131e1565b9190505581526020019081526020016000206000808201600090556001820160009055505080915050919050565b8280546122129061317e565b90600052602060002090601f016020900481019282612234576000855561227b565b82601f1061224d57805160ff191683800117855561227b565b8280016001018555821561227b579182015b8281111561227a57825182559160200191906001019061225f565b5b50905061228891906122e3565b5090565b6040518060e00160405280600081526020016000815260200160008152602001600081526020016000815260200160008152602001600081525090565b604051806040016040528060008152602001600081525090565b5b808211156122fc5760008160009055506001016122e4565b5090565b600061231361230e84612ea9565b612e84565b90508281526020810184848401111561232b57600080fd5b61233684828561313c565b509392505050565b60008135905061234d8161357b565b92915050565b60008190508260206002028201111561236b57600080fd5b92915050565b60008135905061238081613592565b92915050565b60008151905061239581613592565b92915050565b60008083601f8401126123ad57600080fd5b8235905067ffffffffffffffff8111156123c657600080fd5b6020830191508360018202830111156123de57600080fd5b9250929050565b600082601f8301126123f657600080fd5b8135612406848260208601612300565b91505092915050565b60008135905061241e816135a9565b92915050565b600081359050612433816135c0565b92915050565b60006020828403121561244b57600080fd5b60006124598482850161233e565b91505092915050565b60008060006060848603121561247757600080fd5b60006124858682870161233e565b93505060206124968682870161233e565b92505060406124a78682870161233e565b9150509250925092565b6000602082840312156124c357600080fd5b60006124d184828501612386565b91505092915050565b600080600080600080600060a0888a0312156124f557600080fd5b60006125038a828b01612371565b97505060206125148a828b01612424565b965050604088013567ffffffffffffffff81111561253157600080fd5b61253d8a828b0161239b565b9550955050606088013567ffffffffffffffff81111561255c57600080fd5b6125688a828b0161239b565b9350935050608088013567ffffffffffffffff81111561258757600080fd5b6125938a828b01612353565b91505092959891949750929550565b6000602082840312156125b457600080fd5b600082013567ffffffffffffffff8111156125ce57600080fd5b6125da848285016123e5565b91505092915050565b6000602082840312156125f557600080fd5b60006126038482850161240f565b91505092915050565b60006020828403121561261e57600080fd5b600061262c84828501612424565b91505092915050565b6000806040838503121561264857600080fd5b600061265685828601612424565b925050602061266785828601612424565b9150509250929050565b600061267e8484846127a9565b90509392505050565b60006126938383612ad7565b60408301905092915050565b6126a8816130c4565b82525050565b60006126b982612ef4565b6126c38185612f2f565b9350836020820285016126d585612eda565b8060005b8581101561271b5784840389526126f08284612f89565b6126fb868284612671565b955061270684612f15565b935060208b019a5050506001810190506126d9565b50829750879550505050505092915050565b600061273882612eff565b6127428185612f3a565b935061274d83612ee4565b8060005b8381101561277e5781516127658882612687565b975061277083612f22565b925050600181019050612751565b5085935050505092915050565b612794816130d6565b82525050565b6127a3816130e2565b82525050565b60006127b58385612f4b565b93506127c283858461313c565b6127cb836132b7565b840190509392505050565b60006127e28385612f5c565b93506127ef83858461313c565b6127f8836132b7565b840190509392505050565b600061280e82612f0a565b6128188185612f78565b935061282881856020860161314b565b612831816132b7565b840191505092915050565b6000612849602a83612f78565b9150612854826132c8565b604082019050919050565b600061286c601883612f78565b915061287782613317565b602082019050919050565b600061288f602683612f78565b915061289a82613340565b604082019050919050565b60006128b2601283612f78565b91506128bd8261338f565b602082019050919050565b60006128d5601c83612f78565b91506128e0826133b8565b602082019050919050565b60006128f8602e83612f78565b9150612903826133e1565b604082019050919050565b600061291b601483612f78565b915061292682613430565b602082019050919050565b600061293e601483612f78565b915061294982613459565b602082019050919050565b6000612961602083612f78565b915061296c82613482565b602082019050919050565b6000612984601683612f78565b915061298f826134ab565b602082019050919050565b60006129a7601583612f78565b91506129b2826134d4565b602082019050919050565b60006129ca600083612f6d565b91506129d5826134fd565b600082019050919050565b60006129ed601883612f78565b91506129f882613500565b602082019050919050565b6000612a10601583612f78565b9150612a1b82613529565b602082019050919050565b6000612a33601683612f78565b9150612a3e82613552565b602082019050919050565b60e082016000820151612a5f6000850182612b06565b506020820151612a726020850182612b06565b506040820151612a856040850182612b06565b506060820151612a986060850182612b06565b506080820151612aab6080850182612b06565b5060a0820151612abe60a0850182612b06565b5060c0820151612ad160c0850182612b06565b50505050565b604082016000820151612aed6000850182612b06565b506020820151612b006020850182612b06565b50505050565b612b0f8161310c565b82525050565b612b1e8161310c565b82525050565b612b2d8161312a565b82525050565b612b3c81613116565b82525050565b6000612b4d826129bd565b9150819050919050565b6000602082019050612b6c600083018461269f565b92915050565b60006020820190508181036000830152612b8c818461272d565b905092915050565b6000602082019050612ba9600083018461278b565b92915050565b6000602082019050612bc4600083018461279a565b92915050565b600060a082019050612bdf600083018a61279a565b612bec6020830189612b33565b8181036040830152612bff8187896127d6565b90508181036060830152612c148185876127d6565b90508181036080830152612c2881846126ae565b905098975050505050505050565b60006020820190508181036000830152612c508184612803565b905092915050565b60006020820190508181036000830152612c718161283c565b9050919050565b60006020820190508181036000830152612c918161285f565b9050919050565b60006020820190508181036000830152612cb181612882565b9050919050565b60006020820190508181036000830152612cd1816128a5565b9050919050565b60006020820190508181036000830152612cf1816128c8565b9050919050565b60006020820190508181036000830152612d11816128eb565b9050919050565b60006020820190508181036000830152612d318161290e565b9050919050565b60006020820190508181036000830152612d5181612931565b9050919050565b60006020820190508181036000830152612d7181612954565b9050919050565b60006020820190508181036000830152612d9181612977565b9050919050565b60006020820190508181036000830152612db18161299a565b9050919050565b60006020820190508181036000830152612dd1816129e0565b9050919050565b60006020820190508181036000830152612df181612a03565b9050919050565b60006020820190508181036000830152612e1181612a26565b9050919050565b600060e082019050612e2d6000830184612a49565b92915050565b6000602082019050612e486000830184612b15565b92915050565b6000602082019050612e636000830184612b24565b92915050565b6000602082019050612e7e6000830184612b33565b92915050565b6000612e8e612e9f565b9050612e9a82826131b0565b919050565b6000604051905090565b600067ffffffffffffffff821115612ec457612ec3613288565b5b612ecd826132b7565b9050602081019050919050565b6000819050919050565b6000819050602082019050919050565b600060029050919050565b600081519050919050565b600081519050919050565b6000602082019050919050565b6000602082019050919050565b600081905092915050565b600082825260208201905092915050565b600082825260208201905092915050565b600082825260208201905092915050565b600081905092915050565b600082825260208201905092915050565b60008083356001602003843603038112612fa257600080fd5b83810192508235915060208301925067ffffffffffffffff821115612fc657600080fd5b600182023603841315612fd857600080fd5b509250929050565b6000612feb8261310c565b9150612ff68361310c565b9250827fffffffffffffffffffffffffffffffffffffffffffffffffffffffffffffffff0382111561302b5761302a61322a565b5b828201905092915050565b60006130418261310c565b915061304c8361310c565b9250817fffffffffffffffffffffffffffffffffffffffffffffffffffffffffffffffff04831182151516156130855761308461322a565b5b828202905092915050565b600061309b8261310c565b91506130a68361310c565b9250828210156130b9576130b861322a565b5b828203905092915050565b60006130cf826130ec565b9050919050565b60008115159050919050565b6000819050919050565b600073ffffffffffffffffffffffffffffffffffffffff82169050919050565b6000819050919050565b600067ffffffffffffffff82169050919050565b600061313582613116565b9050919050565b82818337600083830152505050565b60005b8381101561316957808201518184015260208101905061314e565b83811115613178576000848401525b50505050565b6000600282049050600182168061319657607f821691505b602082108114156131aa576131a9613259565b5b50919050565b6131b9826132b7565b810181811067ffffffffffffffff821117156131d8576131d7613288565b5b80604052505050565b60006131ec8261310c565b91507fffffffffffffffffffffffffffffffffffffffffffffffffffffffffffffffff82141561321f5761321e61322a565b5b600182019050919050565b7f4e487b7100000000000000000000000000000000000000000000000000000000600052601160045260246000fd5b7f4e487b7100000000000000000000000000000000000000000000000000000000600052602260045260246000fd5b7f4e487b7100000000000000000000000000000000000000000000000000000000600052604160045260246000fd5b6000601f19601f8301169050919050565b7f6d73672e76616c75652073686f756c6420626520766f7465506f776572202a2060008201527f3130303020657468657200000000000000000000000000000000000000000000602082015250565b7f6d73672e73656e646572206973206e6f74206272696467650000000000000000600082015250565b7f4f776e61626c653a206e6577206f776e657220697320746865207a65726f206160008201527f6464726573730000000000000000000000000000000000000000000000000000602082015250565b7f5452414e5346455220455448204552524f520000000000000000000000000000600082015250565b7f6d73672e76616c75652073686f756c6420626520313030302043465800000000600082015250565b7f496e697469616c697a61626c653a20636f6e747261637420697320616c72656160008201527f647920696e697469616c697a6564000000000000000000000000000000000000602082015250565b7f506f6f6c206973206e6f74207265676973746564000000000000000000000000600082015250565b7f4c6f636b6564206973206e6f7420656e6f756768000000000000000000000000600082015250565b7f4f776e61626c653a2063616c6c6572206973206e6f7420746865206f776e6572600082015250565b7f4d696e696d616c20766f7465506f776572206973203100000000000000000000600082015250565b7f4e6f20636c61696d61626c6520696e7465726573740000000000000000000000600082015250565b50565b7f506f6f6c20697320616c72656164792072656769737465640000000000000000600082015250565b7f766f7465506f7765722073686f756c6420626520310000000000000000000000600082015250565b7f556e6c6f636b6564206973206e6f7420656e6f75676800000000000000000000600082015250565b613584816130c4565b811461358f57600080fd5b50565b61359b816130e2565b81146135a657600080fd5b50565b6135b28161310c565b81146135bd57600080fd5b50565b6135c981613116565b81146135d457600080fd5b5056fea264697066735822122018f3d2f7fc57121edbafe32217a0ad91ddcd0c2fcd9f5c700ce3a70f8dd8d0c464736f6c63430008020033",
  "immutableReferences": {},
  "source": "//SPDX-License-Identifier: BUSL-1.1\npragma solidity ^0.8.0;\n\nimport \"@openzeppelin/contracts/access/Ownable.sol\";\nimport \"@openzeppelin/contracts/utils/math/SafeMath.sol\";\nimport \"@openzeppelin/contracts/utils/structs/EnumerableSet.sol\";\nimport \"@openzeppelin/contracts/proxy/utils/Initializable.sol\";\nimport \"./PoolContext.sol\";\nimport \"./VotePowerQueue.sol\";\nimport \"./PoolAPY.sol\";\n\n///\n///  @title PoSPoolmini is a small Conflux POS pool cantract with the basic usages \n///  @dev This is Conflux PoS pool contract, the contract didn't have user\n///  @notice Users can use this contract to participate Conflux PoS without running a PoS node.\n///\ncontract PoSPoolmini is PoolContext, Ownable, Initializable {\n  using SafeMath for uint256;\n  using EnumerableSet for EnumerableSet.AddressSet;\n  using VotePowerQueue for VotePowerQueue.InOutQueue;\n  using PoolAPY for PoolAPY.ApyQueue;\n\n  uint256 private CFX_COUNT_OF_ONE_VOTE = 1000;\n  uint256 private CFX_VALUE_OF_ONE_VOTE = 1000 ether;\n  uint256 private ONE_DAY_BLOCK_COUNT = 2 * 3600 * 24;\n  \n  // ======================== Pool config =========================\n\n  string public poolName;\n  // wheter this poolContract registed in PoS\n  bool public _poolRegisted;\n  // ratio shared by user: 1-10000\n  address bridge_contract;\n  address bridge_withdraw;\n  address bridge_storage;\n\n  // lock period: 7 days + half hour\n  uint256 public _poolLockPeriod_in = ONE_DAY_BLOCK_COUNT * 7 + 3600; \n  uint256 public _poolLockPeriod_out = ONE_DAY_BLOCK_COUNT * 7 + 3600; \n\n  // ======================== Struct definitions =========================\n\n  /// @title PoolSummary\n  /// @custom:field totalvotes Pool's total votes\n  /// @custom:field locking Pool's locking votes\n  /// @custom:field locked\n  /// @custom:field unlocking\n  /// @custom:field unlocked\n  /// @custom:field totalInterest\n  /// @custom:field claimedInterest\n\n  struct PoolSummary {\n    uint256 totalvotes;\n    uint256 locking;\n    uint256 locked;\n    uint256 unlocking;\n    uint256 unlocked;\n    uint256 totalInterest; // total interest of whole pools\n    uint256 claimedInterest;\n  }\n\n  struct PoolShot {\n    uint256 available;\n    uint256 balance;\n    uint256 blockNumber;\n  } \n\n  // ======================== Contract states =========================\n\n  PoolSummary private _poolSummary;\n  VotePowerQueue.InOutQueue private Inqueues;\n  VotePowerQueue.InOutQueue private Outqueues;\n\n  PoolShot internal lastPoolShot;\n\n  // ======================== Modifiers =========================\n  modifier onlyRegisted() {\n    require(_poolRegisted, \"Pool is not registed\");\n    _;\n  }\n  modifier onlybridge() {\n    require(msg.sender==bridge_contract, \"msg.sender is not bridge\");\n    _;\n  }\n  // ======================== Helpers =========================\n\n  // used to update lastPoolShot after _poolSummary.available changed \n  function _updatePoolShot() private {\n    lastPoolShot.available = _poolSummary.totalvotes;\n    lastPoolShot.balance = _selfBalance();\n    lastPoolShot.blockNumber = _blockNumber();\n  }\n\n  // ======================== Events =========================\n\n  event IncreasePoSStake(address indexed user, uint256 votePower);\n\n  event DecreasePoSStake(address indexed user, uint256 votePower);\n\n  event WithdrawStake(address indexed user, uint256 votePower);\n\n  event ClaimInterest(address indexed user, uint256 amount);\n\n  // ======================== Init methods =========================\n  // call this method when depoly the 1967 proxy contract\n  function initialize() public initializer {\n    CFX_COUNT_OF_ONE_VOTE = 1000;\n    CFX_VALUE_OF_ONE_VOTE = 1000 ether;\n    ONE_DAY_BLOCK_COUNT = 2 * 3600 * 24;\n    _poolLockPeriod_in = ONE_DAY_BLOCK_COUNT * 7 + 3600;\n    _poolLockPeriod_out = ONE_DAY_BLOCK_COUNT * 7 + 3600;\n  }\n  \n  ///\n  /// @notice Regist the pool contract in PoS internal contract \n  /// @dev Only admin can do this\n  /// @param indentifier The identifier of PoS node\n  /// @param votePower The vote power when register\n  /// @param blsPubKey The bls public key of PoS node\n  /// @param vrfPubKey The vrf public key of PoS node\n  /// @param blsPubKeyProof The bls public key proof of PoS node\n  ///\n  function register(\n    bytes32 indentifier,\n    uint64 votePower,\n    bytes calldata blsPubKey,\n    bytes calldata vrfPubKey,\n    bytes[2] calldata blsPubKeyProof\n  ) public virtual payable onlyOwner {\n    require(!_poolRegisted, \"Pool is already registed\");\n    require(votePower == 1, \"votePower should be 1\");\n    require(msg.value == votePower * CFX_VALUE_OF_ONE_VOTE, \"msg.value should be 1000 CFX\");\n    _stakingDeposit(msg.value);\n    _posRegisterRegister(indentifier, votePower, blsPubKey, vrfPubKey, blsPubKeyProof);\n    _poolRegisted = true;\n\n    // update pool info\n    _poolSummary.totalvotes += votePower;\n    _poolSummary.locking += votePower;\n    Inqueues.enqueue(VotePowerQueue.QueueNode(votePower, _blockNumber() + _poolLockPeriod_in));\n    _poolSummary.locked += Inqueues.collectEndedVotes();\n    _updatePoolShot();\n  }\n\n  // ======================== Contract methods =========================\n\n  ///\n  /// @notice Increase PoS vote power\n  /// @param votePower The number of vote power to increase\n  ///\n  function increaseStake(uint64 votePower) public virtual payable onlyRegisted onlybridge{\n    require(votePower > 0, \"Minimal votePower is 1\");\n    require(msg.value == votePower * CFX_VALUE_OF_ONE_VOTE, \"msg.value should be votePower * 1000 ether\");\n    _stakingDeposit(msg.value);\n    _posRegisterIncreaseStake(votePower);\n    emit IncreasePoSStake(msg.sender, votePower);\n\n    // update pool info\n    _poolSummary.totalvotes += votePower;\n    _poolSummary.locking += votePower;\n    Inqueues.enqueue(VotePowerQueue.QueueNode(votePower, _blockNumber() + _poolLockPeriod_in));\n    _poolSummary.locked += Inqueues.collectEndedVotes();\n    _updatePoolShot();\n  }\n\n  ///\n  /// @notice Decrease PoS vote power\n  /// @param votePower The number of vote power to decrease\n  ///\n  function decreaseStake(uint64 votePower) public virtual onlyRegisted onlybridge{\n    _poolSummary.locked += Inqueues.collectEndedVotes();\n    require(_poolSummary.locked >= votePower, \"Locked is not enough\");\n    _posRegisterRetire(votePower);\n    emit DecreasePoSStake(msg.sender, votePower);\n\n    // update pool info\n    _poolSummary.totalvotes -= votePower;\n    _poolSummary.unlocking += votePower;\n    Outqueues.enqueue(VotePowerQueue.QueueNode(votePower, _blockNumber() + _poolLockPeriod_out));\n    _poolSummary.unlocked += Outqueues.collectEndedVotes();\n    _updatePoolShot();\n  }\n\n  ///\n  /// @notice Withdraw PoS vote power\n  /// @dev  The number of vote power to withdraw\n  ///\n  function withdrawStake() public onlyRegisted onlybridge{\n    uint256 temp_out_cEndVotes = Outqueues.collectEndedVotes();\n    //require(temp_out_cEndVotes>0,\"No new unlocked\");\n    _poolSummary.unlocking -= temp_out_cEndVotes;\n    _poolSummary.unlocked += temp_out_cEndVotes;\n    require(_poolSummary.unlocked >= temp_out_cEndVotes, \"Unlocked is not enough\");\n    _stakingWithdraw(temp_out_cEndVotes * CFX_VALUE_OF_ONE_VOTE);\n\n    address payable receiver = payable(bridge_withdraw);\n    receiver.transfer(temp_out_cEndVotes * CFX_VALUE_OF_ONE_VOTE);\n    emit WithdrawStake(msg.sender, temp_out_cEndVotes);\n  }\n\n  ///\n  /// @notice Claim all interest in pool\n  ///\n  function claimAllInterest() public onlyRegisted onlybridge returns (uint256){\n    uint claimableInterest = address(this).balance;\n    require(claimableInterest > 0, \"No claimable interest\");\n    address payable receiver = payable(bridge_storage);\n    receiver.transfer(claimableInterest);\n    return claimableInterest;\n  }\n  function test_transfer() public onlyRegisted onlybridge returns (uint256){\n    uint claimableInterest = address(this).balance;\n    //require(claimableInterest > 0, \"No claimable interest\");\n    address payable receiver = payable(msg.sender);\n    transferCFX( receiver,  claimableInterest);\n    //receiver.transfer(claimableInterest);\n    return claimableInterest;\n  }\n\n  function transferCFX(address _address, uint256 _value) internal{\n        (bool res, ) = address(uint160(_address)).call{value:_value}(\"\");\n        require(res,\"TRANSFER ETH ERROR\");\n  }\n\n  function temp_Interest() public view onlyRegisted returns (uint256){\n    return address(this).balance;\n  }\n\n  /// \n  /// @notice Get  pool summary\n  /// @return pool's summary\n  ///\n  function poolSummary() public view returns (PoolSummary memory) {\n    PoolSummary memory summary = _poolSummary;\n    uint256 _latestReward = _selfBalance().sub(lastPoolShot.balance);\n    summary.totalInterest = summary.totalInterest.add(_latestReward);\n    return summary;\n  }\n\n  /// \n  /// @notice Query pools contract address\n  /// @return Pool's PoS address\n  ///\n  function posAddress() public view onlyRegisted returns (bytes32) {\n    return _posAddressToIdentifier(address(this));\n  }\n\n  function getInQueue() public view returns (VotePowerQueue.QueueNode[] memory) {\n    return Inqueues.queueItems();\n  }\n\n  function getOutQueue() public view returns (VotePowerQueue.QueueNode[] memory) {\n    return Outqueues.queueItems();\n  }\n\n  // ======================== admin methods =====================\n\n  ///\n  /// @notice Enable admin to set the user share ratio\n  /// @dev description\n  /// @param _withdraw  description\n  /// @param _storage description\n  ///\n  function set_bridges(address _bridge, address _withdraw, address _storage) public onlyOwner {\n    bridge_contract = _bridge;\n    bridge_withdraw = _withdraw;\n    bridge_storage = _storage;\n  }\n\n  /// \n  /// @notice Enable admin to set the lock and unlock period\n  /// @dev Only admin can do this\n  /// @param _in The lock period in in block number, default is seven day's block count\n  /// @param _out The lock period out in block number, default is seven day's block count\n  ///\n  function setLockPeriod(uint64 _in,uint64 _out) public onlyOwner {\n    _poolLockPeriod_in = _in;\n    _poolLockPeriod_out = _out;\n  }\n\n  /// \n  /// @notice Enable admin to set the pool name\n  ///\n  function setPoolName(string memory name) public onlyOwner {\n    poolName = name;\n  }\n\n  /// @param count Vote cfx count, unit is cfx\n  function setCfxCountOfOneVote(uint256 count) public onlyOwner {\n    CFX_COUNT_OF_ONE_VOTE = count;\n    CFX_VALUE_OF_ONE_VOTE = count * 1 ether;\n  }\n\n  // Used to bring account's retired votes back to work\n  // reStake _poolSummary.available\n  function _reStake(uint64 votePower) public onlyOwner {\n    _posRegisterIncreaseStake(votePower);\n  }\n\n  fallback() external payable {}\n  receive() external payable {}\n\n}",
  "sourcePath": "C:/Users/artii/Conflux Studio/minpos/contracts/PoSPoolmini.sol",
  "compiler": {
    "name": "solc",
    "version": "0.8.2+commit.661d1103.Emscripten.clang"
  },
  "schemaVersion": "3.3.4",
  "updatedAt": "2022-08-10T13:24:49.146Z",
  "devdoc": {
    "details": "This is Conflux PoS pool contract, the contract didn't have user",
    "kind": "dev",
    "methods": {
      "decreaseStake(uint64)": {
        "params": {
          "votePower": "The number of vote power to decrease"
        }
      },
      "increaseStake(uint64)": {
        "params": {
          "votePower": "The number of vote power to increase"
        }
      },
      "owner()": {
        "details": "Returns the address of the current owner."
      },
      "poolSummary()": {
        "returns": {
          "_0": "pool's summary"
        }
      },
      "posAddress()": {
        "returns": {
          "_0": "Pool's PoS address"
        }
      },
      "register(bytes32,uint64,bytes,bytes,bytes[2])": {
        "details": "Only admin can do this",
        "params": {
          "blsPubKey": "The bls public key of PoS node",
          "blsPubKeyProof": "The bls public key proof of PoS node",
          "indentifier": "The identifier of PoS node",
          "votePower": "The vote power when register",
          "vrfPubKey": "The vrf public key of PoS node"
        }
      },
      "renounceOwnership()": {
        "details": "Leaves the contract without owner. It will not be possible to call `onlyOwner` functions anymore. Can only be called by the current owner. NOTE: Renouncing ownership will leave the contract without an owner, thereby removing any functionality that is only available to the owner."
      },
      "setCfxCountOfOneVote(uint256)": {
        "params": {
          "count": "Vote cfx count, unit is cfx"
        }
      },
      "setLockPeriod(uint64,uint64)": {
        "details": "Only admin can do this",
        "params": {
          "_in": "The lock period in in block number, default is seven day's block count",
          "_out": "The lock period out in block number, default is seven day's block count"
        }
      },
      "set_bridges(address,address,address)": {
        "details": "description",
        "params": {
          "_storage": "description",
          "_withdraw": "description"
        }
      },
      "transferOwnership(address)": {
        "details": "Transfers ownership of the contract to a new account (`newOwner`). Can only be called by the current owner."
      },
      "withdrawStake()": {
        "details": "The number of vote power to withdraw"
      }
    },
    "title": "PoSPoolmini is a small Conflux POS pool cantract with the basic usages ",
    "version": 1
  },
  "userdoc": {
    "kind": "user",
    "methods": {
      "claimAllInterest()": {
        "notice": "Claim all interest in pool"
      },
      "decreaseStake(uint64)": {
        "notice": "Decrease PoS vote power"
      },
      "increaseStake(uint64)": {
        "notice": "Increase PoS vote power"
      },
      "poolSummary()": {
        "notice": "Get  pool summary"
      },
      "posAddress()": {
        "notice": "Query pools contract address"
      },
      "register(bytes32,uint64,bytes,bytes,bytes[2])": {
        "notice": "Regist the pool contract in PoS internal contract "
      },
      "setLockPeriod(uint64,uint64)": {
        "notice": "Enable admin to set the lock and unlock period"
      },
      "setPoolName(string)": {
        "notice": "Enable admin to set the pool name"
      },
      "set_bridges(address,address,address)": {
        "notice": "Enable admin to set the user share ratio"
      },
      "withdrawStake()": {
        "notice": "Withdraw PoS vote power"
      }
    },
    "notice": "Users can use this contract to participate Conflux PoS without running a PoS node.",
    "version": 1
  }
}